{
	"data": {
		"bytecode": {
			"linkReferences": {},
			"object": "60a060405234801561001057600080fd5b50306080526080516121de61002d600039600050506121de6000f3fe6080604052600436106100bc5760003560e01c806361c2926c116100745780638c3f55631161004e5780638c3f55631461025357806390042baf14610273578063affed0e0146102ab57600080fd5b806361c2926c146101cb5780637a9a1628146101eb578063853c50681461020b57600080fd5b806320c13b0b116100a557806320c13b0b14610147578063295614261461016757806357c56d6b1461018957600080fd5b806301ffc9a7146100c15780631626ba7e146100f6575b600080fd5b3480156100cd57600080fd5b506100e16100dc366004611880565b6102c0565b60405190151581526020015b60405180910390f35b34801561010257600080fd5b506101166101113660046118e6565b6102d1565b6040517fffffffff0000000000000000000000000000000000000000000000000000000090911681526020016100ed565b34801561015357600080fd5b50610116610162366004611932565b61031e565b34801561017357600080fd5b5061018761018236600461199e565b610383565b005b34801561019557600080fd5b506101bd7f8713a7c4465f6fbee2b6e9d6646d1d9f83fec929edfc4baf661f3c865bdd04d181565b6040519081526020016100ed565b3480156101d757600080fd5b506101876101e63660046119fc565b6103d5565b3480156101f757600080fd5b50610187610206366004611a3e565b61041a565b34801561021757600080fd5b5061022b6102263660046118e6565b610447565b604080519586526020860194909452928401919091526060830152608082015260a0016100ed565b34801561025f57600080fd5b506101bd61026e36600461199e565b61060f565b610286610281366004611ae7565b61063b565b60405173ffffffffffffffffffffffffffffffffffffffff90911681526020016100ed565b3480156102b757600080fd5b506101bd610725565b60006102cb82610736565b92915050565b6000806102df858585610792565b509050801561031157507f1626ba7e000000000000000000000000000000000000000000000000000000009050610317565b50600090505b9392505050565b6000806103438686604051610334929190611bb6565b60405180910390208585610792565b509050801561037557507f20c13b0b00000000000000000000000000000000000000000000000000000000905061037b565b50600090505b949350505050565b3330146103c9576040517fe12588940000000000000000000000000000000000000000000000000000000081523360048201523060248201526044015b60405180910390fd5b6103d2816107ca565b50565b600061040883836040516020016103ed929190611d97565b604051602081830303815290604052805190602001206107fc565b9050610415818484610881565b505050565b600061043286866040516020016103ed929190611ddf565b905061043f818787610881565b505050505050565b6000806000806000808787600081811061046357610463611e27565b909101357fff000000000000000000000000000000000000000000000000000000000000001691508190506104b95761049b896107fc565b92506104a8838989610a0e565b929850909650945091506106049050565b7fff00000000000000000000000000000000000000000000000000000000000000818116016104f8576104eb896107fc565b92506104a8838989610a5f565b7ffe000000000000000000000000000000000000000000000000000000000000007fff0000000000000000000000000000000000000000000000000000000000000082160161054a576104eb89610a8b565b7ffd000000000000000000000000000000000000000000000000000000000000007fff000000000000000000000000000000000000000000000000000000000000008216016105ae5761059e898989610af8565b9550955095509550955050610604565b6040517f6085cd820000000000000000000000000000000000000000000000000000000081527fff00000000000000000000000000000000000000000000000000000000000000821660048201526024016103c0565b939792965093509350565b60006102cb7f8d0bf1fd623d628c741362c1289948e57b3e2905218c676d3e69abee36d6ae2e83610c75565b600033301461067e576040517fe12588940000000000000000000000000000000000000000000000000000000081523360048201523060248201526044016103c0565b81516020830134f0905073ffffffffffffffffffffffffffffffffffffffff81166106d757816040517f0d2571910000000000000000000000000000000000000000000000000000000081526004016103c09190611eba565b60405173ffffffffffffffffffffffffffffffffffffffff821681527fa506ad4e7f05eceba62a023c3219e5bd98a615f4fa87e2afb08a2da5cf62bf0c9060200160405180910390a1919050565b6000610731600061060f565b905090565b60007f6ffbd451000000000000000000000000000000000000000000000000000000007fffffffff0000000000000000000000000000000000000000000000000000000083160161078957506001919050565b6102cb82610cd3565b60008060008060006107a5888888610447565b509650919450925090508282108015906107bd575060015b9450505050935093915050565b6040517fa038794000000000000000000000000000000000000000000000000000000000815260040160405180910390fd5b6040517f190100000000000000000000000000000000000000000000000000000000000060208201524660228201527fffffffffffffffffffffffffffffffffffffffff0000000000000000000000003060601b166042820152605681018290526000906076015b604051602081830303815290604052805190602001209050919050565b8060005b81811015610a0757368484838181106108a0576108a0611e27565b90506020028101906108b29190611ecd565b90506108c16020820182611f0b565b156108fb576040517f230d1ccc000000000000000000000000000000000000000000000000000000008152600481018390526024016103c0565b6040810135805a101561094e5782815a6040517f2bb3e3ba0000000000000000000000000000000000000000000000000000000081526004810193909352602483019190915260448201526064016103c0565b60006109886109636080850160608601611f26565b608085013584156109745784610976565b5a5b61098360a0880188611f41565b610d2f565b905080156109cf57877f5c4eeb02dabf8976016ab414d617f9a162936dcace3cdef8c69ef6e262ad5ae7856040516109c291815260200190565b60405180910390a26109f1565b6109f16109e26040850160208601611f0b565b89866109ec610d4c565b610d6b565b50505080806109ff90611fd5565b915050610885565b5050505050565b6000808080610a2987610a24876006818b61200d565b610db9565b6000908152873560f01c6020818152604080842084526002909a013560e01c908190529890912090999198509695509350505050565b6000808080610a7a87610a75876001818b61200d565b610a0e565b935093509350935093509350935093565b6040517f190100000000000000000000000000000000000000000000000000000000000060208201526000602282018190527fffffffffffffffffffffffffffffffffffffffff0000000000000000000000003060601b1660428301526056820183905290607601610864565b6000808080806004600188013560e81c82610b138383612037565b9050610b258b61022683868d8f61200d565b939b5091995097509550935087871015610b7d57610b4581848b8d61200d565b89896040517fb006aba00000000000000000000000000000000000000000000000000000000081526004016103c0949392919061204a565b8092505b88831015610c675760038301928a013560e81c9150610ba08383612037565b90506000610bc2610bb08861124f565b8c8c879086926102269392919061200d565b939c50919a5098509091505088881015610c1a57610be282858c8e61200d565b8a8a6040517fb006aba00000000000000000000000000000000000000000000000000000000081526004016103c0949392919061204a565b848110610c5d576040517f37daf62b00000000000000000000000000000000000000000000000000000000815260048101829052602481018690526044016103c0565b9350915081610b81565b505050939792965093509350565b6000808383604051602001610c94929190918252602082015260400190565b604080517fffffffffffffffffffffffffffffffffffffffffffffffffffffffffffffffe0818403018152919052805160209091012054949350505050565b60007fe4a77bbc000000000000000000000000000000000000000000000000000000007fffffffff00000000000000000000000000000000000000000000000000000000831601610d2657506001919050565b6102cb82611283565b6000604051828482376000808483898b8af1979650505050505050565b60603d604051915060208201818101604052818352816000823e505090565b8315610d7957805160208201fd5b827fab46c69f7f32e1bf09b0725853da82a211e5402a0600296ab499a2fb5ea3b4198383604051610dab929190612071565b60405180910390a250505050565b60008060005b8381101561124657600181019085013560f81c7fffffffffffffffffffffffffffffffffffffffffffffffffffffffffffffffff8101610e6057601582019186013560f881901c9060581c73ffffffffffffffffffffffffffffffffffffffff81169074ff000000000000000000000000000000000000000016811785610e465780610e55565b60008681526020829052604090205b955050505050610dbf565b80610ef65760018201918681013560f81c906043016000610e8c8a610e8784888c8e61200d565b61136d565b60ff841697909701969194508491905060a083901b74ff00000000000000000000000000000000000000001673ffffffffffffffffffffffffffffffffffffffff82161786610edb5780610eea565b60008781526020829052604090205b96505050505050610dbf565b6002810361101e576000808784013560f881901c9060581c73ffffffffffffffffffffffffffffffffffffffff16601586019550909250905060008885013560e81c600386018162ffffff169150809650819250505060008186019050610f6f8b848c8c8a908692610f6a9392919061200d565b611630565b610fb7578a83610f8183898d8f61200d565b6040517f9a9462320000000000000000000000000000000000000000000000000000000081526004016103c0949392919061208a565b60ff8416979097019694508460a084901b74ff00000000000000000000000000000000000000001673ffffffffffffffffffffffffffffffffffffffff841617876110025780611011565b60008881526020829052604090205b9750505050505050610dbf565b60038103611051576020820191860135836110395780611048565b60008481526020829052604090205b93505050610dbf565b6004810361109d576003808301928781013560e81c919082010160008061107e8b610a2485898d8f61200d565b60009889526020526040909720969097019650909350610dbf92505050565b600681036111a55760008287013560f81c60018401935060ff16905060008784013560f01c60028501945061ffff16905060008885013560e81c600386018162ffffff16915080965081925050506000818601905060008061110b8d8d8d8b908792610a249392919061200d565b9398508893909250905084821061112157988501985b604080517f53657175656e6365206e657374656420636f6e6669673a0a0000000000000000602080830191909152603882018490526058820188905260788083018a90528351808403909101815260989092019092528051910120896111875780611196565b60008a81526020829052604090205b99505050505050505050610dbf565b600581036112115760208201918601358781036111e0577fffffffffffffffffffffffffffffffffffffffffffffffffffffffffffffffff94505b60006111eb82611817565b9050846111f85780611207565b60008581526020829052604090205b9450505050610dbf565b6040517fb2505f7c000000000000000000000000000000000000000000000000000000008152600481018290526024016103c0565b50935093915050565b7f8713a7c4465f6fbee2b6e9d6646d1d9f83fec929edfc4baf661f3c865bdd04d160009081526020829052604081206102cb565b60007fffffffff0000000000000000000000000000000000000000000000000000000082167fac6a444e00000000000000000000000000000000000000000000000000000000148061131657507fffffffff0000000000000000000000000000000000000000000000000000000082167f36e7817500000000000000000000000000000000000000000000000000000000145b1561132357506001919050565b7f01ffc9a7000000000000000000000000000000000000000000000000000000007fffffffff000000000000000000000000000000000000000000000000000000008316146102cb565b6000604282146113ad5782826040517f2ee17a3d0000000000000000000000000000000000000000000000000000000081526004016103c09291906120ca565b60006113c66113bd6001856120de565b85013560f81c90565b60ff169050604084013560f81c843560208601357f7fffffffffffffffffffffffffffffff5d576e7357a4501ddfe92f46681b20a081111561143a578686826040517fad4aac760000000000000000000000000000000000000000000000000000000081526004016103c0939291906120f1565b8260ff16601b1415801561145257508260ff16601c14155b1561148f578686846040517fe578897e0000000000000000000000000000000000000000000000000000000081526004016103c093929190612115565b600184036114fc576040805160008152602081018083528a905260ff851691810191909152606081018390526080810182905260019060a0015b6020604051602081039080840390855afa1580156114eb573d6000803e3d6000fd5b5050506020604051035194506115d4565b60028403611599576040517f19457468657265756d205369676e6564204d6573736167653a0a3332000000006020820152603c8101899052600190605c01604080517fffffffffffffffffffffffffffffffffffffffffffffffffffffffffffffffe08184030181528282528051602091820120600084529083018083525260ff861690820152606081018490526080810183905260a0016114c9565b86868560016040517f9dfba8520000000000000000000000000000000000000000000000000000000081526004016103c0949392919061213c565b73ffffffffffffffffffffffffffffffffffffffff85166116255786866040517f6c1719d20000000000000000000000000000000000000000000000000000000081526004016103c09291906120ca565b505050509392505050565b600081810361166b576040517fac241e1100000000000000000000000000000000000000000000000000000000815260040160405180910390fd5b6000838361167a6001826120de565b81811061168957611689611e27565b919091013560f81c91505060018114806116a35750600281145b156116e8578473ffffffffffffffffffffffffffffffffffffffff166116ca87868661136d565b73ffffffffffffffffffffffffffffffffffffffff1614915061180e565b600381036117d35773ffffffffffffffffffffffffffffffffffffffff8516631626ba7e878660008761171c6001826120de565b926117299392919061200d565b6040518463ffffffff1660e01b815260040161174793929190612168565b602060405180830381865afa158015611764573d6000803e3d6000fd5b505050506040513d601f19601f82011682018060405250810190611788919061218b565b7fffffffff00000000000000000000000000000000000000000000000000000000167f1626ba7e0000000000000000000000000000000000000000000000000000000014915061180e565b83838260006040517f9dfba8520000000000000000000000000000000000000000000000000000000081526004016103c0949392919061213c565b50949350505050565b6040517f53657175656e636520737461746963206469676573743a0a0000000000000000602082015260388101829052600090605801610864565b7fffffffff00000000000000000000000000000000000000000000000000000000811681146103d257600080fd5b60006020828403121561189257600080fd5b813561031781611852565b60008083601f8401126118af57600080fd5b50813567ffffffffffffffff8111156118c757600080fd5b6020830191508360208285010111156118df57600080fd5b9250929050565b6000806000604084860312156118fb57600080fd5b83359250602084013567ffffffffffffffff81111561191957600080fd5b6119258682870161189d565b9497909650939450505050565b6000806000806040858703121561194857600080fd5b843567ffffffffffffffff8082111561196057600080fd5b61196c8883890161189d565b9096509450602087013591508082111561198557600080fd5b506119928782880161189d565b95989497509550505050565b6000602082840312156119b057600080fd5b5035919050565b60008083601f8401126119c957600080fd5b50813567ffffffffffffffff8111156119e157600080fd5b6020830191508360208260051b85010111156118df57600080fd5b60008060208385031215611a0f57600080fd5b823567ffffffffffffffff811115611a2657600080fd5b611a32858286016119b7565b90969095509350505050565b600080600080600060608688031215611a5657600080fd5b853567ffffffffffffffff80821115611a6e57600080fd5b611a7a89838a016119b7565b9097509550602088013594506040880135915080821115611a9a57600080fd5b50611aa78882890161189d565b969995985093965092949392505050565b7f4e487b7100000000000000000000000000000000000000000000000000000000600052604160045260246000fd5b600060208284031215611af957600080fd5b813567ffffffffffffffff80821115611b1157600080fd5b818401915084601f830112611b2557600080fd5b813581811115611b3757611b37611ab8565b604051601f82017fffffffffffffffffffffffffffffffffffffffffffffffffffffffffffffffe0908116603f01168101908382118183101715611b7d57611b7d611ab8565b81604052828152876020848701011115611b9657600080fd5b826020860160208301376000928101602001929092525095945050505050565b8183823760009101908152919050565b80358015158114611bd657600080fd5b919050565b803573ffffffffffffffffffffffffffffffffffffffff81168114611bd657600080fd5b8183528181602085013750600060208284010152600060207fffffffffffffffffffffffffffffffffffffffffffffffffffffffffffffffe0601f840116840101905092915050565b81835260006020808501808196508560051b810191508460005b87811015611d8a57828403895281357fffffffffffffffffffffffffffffffffffffffffffffffffffffffffffffff41883603018112611ca157600080fd5b870160c0611cae82611bc6565b15158652611cbd878301611bc6565b15158688015260408281013590870152606073ffffffffffffffffffffffffffffffffffffffff611cef828501611bdb565b16908701526080828101359087015260a080830135368490037fffffffffffffffffffffffffffffffffffffffffffffffffffffffffffffffe1018112611d3557600080fd5b90920187810192903567ffffffffffffffff811115611d5357600080fd5b803603841315611d6257600080fd5b8282890152611d748389018286611bff565b9c89019c97505050928601925050600101611c62565b5091979650505050505050565b60408152600560408201527f73656c663a000000000000000000000000000000000000000000000000000000606082015260806020820152600061037b608083018486611c48565b60408152600660408201527f67756573743a0000000000000000000000000000000000000000000000000000606082015260806020820152600061037b608083018486611c48565b7f4e487b7100000000000000000000000000000000000000000000000000000000600052603260045260246000fd5b6000815180845260005b81811015611e7c57602081850181015186830182015201611e60565b5060006020828601015260207fffffffffffffffffffffffffffffffffffffffffffffffffffffffffffffffe0601f83011685010191505092915050565b6020815260006103176020830184611e56565b600082357fffffffffffffffffffffffffffffffffffffffffffffffffffffffffffffff41833603018112611f0157600080fd5b9190910192915050565b600060208284031215611f1d57600080fd5b61031782611bc6565b600060208284031215611f3857600080fd5b61031782611bdb565b60008083357fffffffffffffffffffffffffffffffffffffffffffffffffffffffffffffffe1843603018112611f7657600080fd5b83018035915067ffffffffffffffff821115611f9157600080fd5b6020019150368190038213156118df57600080fd5b7f4e487b7100000000000000000000000000000000000000000000000000000000600052601160045260246000fd5b60007fffffffffffffffffffffffffffffffffffffffffffffffffffffffffffffffff820361200657612006611fa6565b5060010190565b6000808585111561201d57600080fd5b8386111561202a57600080fd5b5050820193919092039150565b808201808211156102cb576102cb611fa6565b60608152600061205e606083018688611bff565b6020830194909452506040015292915050565b82815260406020820152600061037b6040830184611e56565b84815273ffffffffffffffffffffffffffffffffffffffff841660208201526060604082015260006120c0606083018486611bff565b9695505050505050565b60208152600061037b602083018486611bff565b818103818111156102cb576102cb611fa6565b604081526000612105604083018587611bff565b9050826020830152949350505050565b604081526000612129604083018587611bff565b905060ff83166020830152949350505050565b606081526000612150606083018688611bff565b60208301949094525090151560409091015292915050565b838152604060208201526000612182604083018486611bff565b95945050505050565b60006020828403121561219d57600080fd5b81516103178161185256fea26469706673582212209bb95d18e97f278aa47e0c04c20d5a6af9bdb6d473c6d4051192cd96fc17866864736f6c63430008120033",
			"opcodes": "PUSH1 0xA0 PUSH1 0x40 MSTORE CALLVALUE DUP1 ISZERO PUSH2 0x10 JUMPI PUSH1 0x0 DUP1 REVERT JUMPDEST POP ADDRESS PUSH1 0x80 MSTORE PUSH1 0x80 MLOAD PUSH2 0x21DE PUSH2 0x2D PUSH1 0x0 CODECOPY PUSH1 0x0 POP POP PUSH2 0x21DE PUSH1 0x0 RETURN INVALID PUSH1 0x80 PUSH1 0x40 MSTORE PUSH1 0x4 CALLDATASIZE LT PUSH2 0xBC JUMPI PUSH1 0x0 CALLDATALOAD PUSH1 0xE0 SHR DUP1 PUSH4 0x61C2926C GT PUSH2 0x74 JUMPI DUP1 PUSH4 0x8C3F5563 GT PUSH2 0x4E JUMPI DUP1 PUSH4 0x8C3F5563 EQ PUSH2 0x253 JUMPI DUP1 PUSH4 0x90042BAF EQ PUSH2 0x273 JUMPI DUP1 PUSH4 0xAFFED0E0 EQ PUSH2 0x2AB JUMPI PUSH1 0x0 DUP1 REVERT JUMPDEST DUP1 PUSH4 0x61C2926C EQ PUSH2 0x1CB JUMPI DUP1 PUSH4 0x7A9A1628 EQ PUSH2 0x1EB JUMPI DUP1 PUSH4 0x853C5068 EQ PUSH2 0x20B JUMPI PUSH1 0x0 DUP1 REVERT JUMPDEST DUP1 PUSH4 0x20C13B0B GT PUSH2 0xA5 JUMPI DUP1 PUSH4 0x20C13B0B EQ PUSH2 0x147 JUMPI DUP1 PUSH4 0x29561426 EQ PUSH2 0x167 JUMPI DUP1 PUSH4 0x57C56D6B EQ PUSH2 0x189 JUMPI PUSH1 0x0 DUP1 REVERT JUMPDEST DUP1 PUSH4 0x1FFC9A7 EQ PUSH2 0xC1 JUMPI DUP1 PUSH4 0x1626BA7E EQ PUSH2 0xF6 JUMPI JUMPDEST PUSH1 0x0 DUP1 REVERT JUMPDEST CALLVALUE DUP1 ISZERO PUSH2 0xCD JUMPI PUSH1 0x0 DUP1 REVERT JUMPDEST POP PUSH2 0xE1 PUSH2 0xDC CALLDATASIZE PUSH1 0x4 PUSH2 0x1880 JUMP JUMPDEST PUSH2 0x2C0 JUMP JUMPDEST PUSH1 0x40 MLOAD SWAP1 ISZERO ISZERO DUP2 MSTORE PUSH1 0x20 ADD JUMPDEST PUSH1 0x40 MLOAD DUP1 SWAP2 SUB SWAP1 RETURN JUMPDEST CALLVALUE DUP1 ISZERO PUSH2 0x102 JUMPI PUSH1 0x0 DUP1 REVERT JUMPDEST POP PUSH2 0x116 PUSH2 0x111 CALLDATASIZE PUSH1 0x4 PUSH2 0x18E6 JUMP JUMPDEST PUSH2 0x2D1 JUMP JUMPDEST PUSH1 0x40 MLOAD PUSH32 0xFFFFFFFF00000000000000000000000000000000000000000000000000000000 SWAP1 SWAP2 AND DUP2 MSTORE PUSH1 0x20 ADD PUSH2 0xED JUMP JUMPDEST CALLVALUE DUP1 ISZERO PUSH2 0x153 JUMPI PUSH1 0x0 DUP1 REVERT JUMPDEST POP PUSH2 0x116 PUSH2 0x162 CALLDATASIZE PUSH1 0x4 PUSH2 0x1932 JUMP JUMPDEST PUSH2 0x31E JUMP JUMPDEST CALLVALUE DUP1 ISZERO PUSH2 0x173 JUMPI PUSH1 0x0 DUP1 REVERT JUMPDEST POP PUSH2 0x187 PUSH2 0x182 CALLDATASIZE PUSH1 0x4 PUSH2 0x199E JUMP JUMPDEST PUSH2 0x383 JUMP JUMPDEST STOP JUMPDEST CALLVALUE DUP1 ISZERO PUSH2 0x195 JUMPI PUSH1 0x0 DUP1 REVERT JUMPDEST POP PUSH2 0x1BD PUSH32 0x8713A7C4465F6FBEE2B6E9D6646D1D9F83FEC929EDFC4BAF661F3C865BDD04D1 DUP2 JUMP JUMPDEST PUSH1 0x40 MLOAD SWAP1 DUP2 MSTORE PUSH1 0x20 ADD PUSH2 0xED JUMP JUMPDEST CALLVALUE DUP1 ISZERO PUSH2 0x1D7 JUMPI PUSH1 0x0 DUP1 REVERT JUMPDEST POP PUSH2 0x187 PUSH2 0x1E6 CALLDATASIZE PUSH1 0x4 PUSH2 0x19FC JUMP JUMPDEST PUSH2 0x3D5 JUMP JUMPDEST CALLVALUE DUP1 ISZERO PUSH2 0x1F7 JUMPI PUSH1 0x0 DUP1 REVERT JUMPDEST POP PUSH2 0x187 PUSH2 0x206 CALLDATASIZE PUSH1 0x4 PUSH2 0x1A3E JUMP JUMPDEST PUSH2 0x41A JUMP JUMPDEST CALLVALUE DUP1 ISZERO PUSH2 0x217 JUMPI PUSH1 0x0 DUP1 REVERT JUMPDEST POP PUSH2 0x22B PUSH2 0x226 CALLDATASIZE PUSH1 0x4 PUSH2 0x18E6 JUMP JUMPDEST PUSH2 0x447 JUMP JUMPDEST PUSH1 0x40 DUP1 MLOAD SWAP6 DUP7 MSTORE PUSH1 0x20 DUP7 ADD SWAP5 SWAP1 SWAP5 MSTORE SWAP3 DUP5 ADD SWAP2 SWAP1 SWAP2 MSTORE PUSH1 0x60 DUP4 ADD MSTORE PUSH1 0x80 DUP3 ADD MSTORE PUSH1 0xA0 ADD PUSH2 0xED JUMP JUMPDEST CALLVALUE DUP1 ISZERO PUSH2 0x25F JUMPI PUSH1 0x0 DUP1 REVERT JUMPDEST POP PUSH2 0x1BD PUSH2 0x26E CALLDATASIZE PUSH1 0x4 PUSH2 0x199E JUMP JUMPDEST PUSH2 0x60F JUMP JUMPDEST PUSH2 0x286 PUSH2 0x281 CALLDATASIZE PUSH1 0x4 PUSH2 0x1AE7 JUMP JUMPDEST PUSH2 0x63B JUMP JUMPDEST PUSH1 0x40 MLOAD PUSH20 0xFFFFFFFFFFFFFFFFFFFFFFFFFFFFFFFFFFFFFFFF SWAP1 SWAP2 AND DUP2 MSTORE PUSH1 0x20 ADD PUSH2 0xED JUMP JUMPDEST CALLVALUE DUP1 ISZERO PUSH2 0x2B7 JUMPI PUSH1 0x0 DUP1 REVERT JUMPDEST POP PUSH2 0x1BD PUSH2 0x725 JUMP JUMPDEST PUSH1 0x0 PUSH2 0x2CB DUP3 PUSH2 0x736 JUMP JUMPDEST SWAP3 SWAP2 POP POP JUMP JUMPDEST PUSH1 0x0 DUP1 PUSH2 0x2DF DUP6 DUP6 DUP6 PUSH2 0x792 JUMP JUMPDEST POP SWAP1 POP DUP1 ISZERO PUSH2 0x311 JUMPI POP PUSH32 0x1626BA7E00000000000000000000000000000000000000000000000000000000 SWAP1 POP PUSH2 0x317 JUMP JUMPDEST POP PUSH1 0x0 SWAP1 POP JUMPDEST SWAP4 SWAP3 POP POP POP JUMP JUMPDEST PUSH1 0x0 DUP1 PUSH2 0x343 DUP7 DUP7 PUSH1 0x40 MLOAD PUSH2 0x334 SWAP3 SWAP2 SWAP1 PUSH2 0x1BB6 JUMP JUMPDEST PUSH1 0x40 MLOAD DUP1 SWAP2 SUB SWAP1 KECCAK256 DUP6 DUP6 PUSH2 0x792 JUMP JUMPDEST POP SWAP1 POP DUP1 ISZERO PUSH2 0x375 JUMPI POP PUSH32 0x20C13B0B00000000000000000000000000000000000000000000000000000000 SWAP1 POP PUSH2 0x37B JUMP JUMPDEST POP PUSH1 0x0 SWAP1 POP JUMPDEST SWAP5 SWAP4 POP POP POP POP JUMP JUMPDEST CALLER ADDRESS EQ PUSH2 0x3C9 JUMPI PUSH1 0x40 MLOAD PUSH32 0xE125889400000000000000000000000000000000000000000000000000000000 DUP2 MSTORE CALLER PUSH1 0x4 DUP3 ADD MSTORE ADDRESS PUSH1 0x24 DUP3 ADD MSTORE PUSH1 0x44 ADD JUMPDEST PUSH1 0x40 MLOAD DUP1 SWAP2 SUB SWAP1 REVERT JUMPDEST PUSH2 0x3D2 DUP2 PUSH2 0x7CA JUMP JUMPDEST POP JUMP JUMPDEST PUSH1 0x0 PUSH2 0x408 DUP4 DUP4 PUSH1 0x40 MLOAD PUSH1 0x20 ADD PUSH2 0x3ED SWAP3 SWAP2 SWAP1 PUSH2 0x1D97 JUMP JUMPDEST PUSH1 0x40 MLOAD PUSH1 0x20 DUP2 DUP4 SUB SUB DUP2 MSTORE SWAP1 PUSH1 0x40 MSTORE DUP1 MLOAD SWAP1 PUSH1 0x20 ADD KECCAK256 PUSH2 0x7FC JUMP JUMPDEST SWAP1 POP PUSH2 0x415 DUP2 DUP5 DUP5 PUSH2 0x881 JUMP JUMPDEST POP POP POP JUMP JUMPDEST PUSH1 0x0 PUSH2 0x432 DUP7 DUP7 PUSH1 0x40 MLOAD PUSH1 0x20 ADD PUSH2 0x3ED SWAP3 SWAP2 SWAP1 PUSH2 0x1DDF JUMP JUMPDEST SWAP1 POP PUSH2 0x43F DUP2 DUP8 DUP8 PUSH2 0x881 JUMP JUMPDEST POP POP POP POP POP POP JUMP JUMPDEST PUSH1 0x0 DUP1 PUSH1 0x0 DUP1 PUSH1 0x0 DUP1 DUP8 DUP8 PUSH1 0x0 DUP2 DUP2 LT PUSH2 0x463 JUMPI PUSH2 0x463 PUSH2 0x1E27 JUMP JUMPDEST SWAP1 SWAP2 ADD CALLDATALOAD PUSH32 0xFF00000000000000000000000000000000000000000000000000000000000000 AND SWAP2 POP DUP2 SWAP1 POP PUSH2 0x4B9 JUMPI PUSH2 0x49B DUP10 PUSH2 0x7FC JUMP JUMPDEST SWAP3 POP PUSH2 0x4A8 DUP4 DUP10 DUP10 PUSH2 0xA0E JUMP JUMPDEST SWAP3 SWAP9 POP SWAP1 SWAP7 POP SWAP5 POP SWAP2 POP PUSH2 0x604 SWAP1 POP JUMP JUMPDEST PUSH32 0xFF00000000000000000000000000000000000000000000000000000000000000 DUP2 DUP2 AND ADD PUSH2 0x4F8 JUMPI PUSH2 0x4EB DUP10 PUSH2 0x7FC JUMP JUMPDEST SWAP3 POP PUSH2 0x4A8 DUP4 DUP10 DUP10 PUSH2 0xA5F JUMP JUMPDEST PUSH32 0xFE00000000000000000000000000000000000000000000000000000000000000 PUSH32 0xFF00000000000000000000000000000000000000000000000000000000000000 DUP3 AND ADD PUSH2 0x54A JUMPI PUSH2 0x4EB DUP10 PUSH2 0xA8B JUMP JUMPDEST PUSH32 0xFD00000000000000000000000000000000000000000000000000000000000000 PUSH32 0xFF00000000000000000000000000000000000000000000000000000000000000 DUP3 AND ADD PUSH2 0x5AE JUMPI PUSH2 0x59E DUP10 DUP10 DUP10 PUSH2 0xAF8 JUMP JUMPDEST SWAP6 POP SWAP6 POP SWAP6 POP SWAP6 POP SWAP6 POP POP PUSH2 0x604 JUMP JUMPDEST PUSH1 0x40 MLOAD PUSH32 0x6085CD8200000000000000000000000000000000000000000000000000000000 DUP2 MSTORE PUSH32 0xFF00000000000000000000000000000000000000000000000000000000000000 DUP3 AND PUSH1 0x4 DUP3 ADD MSTORE PUSH1 0x24 ADD PUSH2 0x3C0 JUMP JUMPDEST SWAP4 SWAP8 SWAP3 SWAP7 POP SWAP4 POP SWAP4 POP JUMP JUMPDEST PUSH1 0x0 PUSH2 0x2CB PUSH32 0x8D0BF1FD623D628C741362C1289948E57B3E2905218C676D3E69ABEE36D6AE2E DUP4 PUSH2 0xC75 JUMP JUMPDEST PUSH1 0x0 CALLER ADDRESS EQ PUSH2 0x67E JUMPI PUSH1 0x40 MLOAD PUSH32 0xE125889400000000000000000000000000000000000000000000000000000000 DUP2 MSTORE CALLER PUSH1 0x4 DUP3 ADD MSTORE ADDRESS PUSH1 0x24 DUP3 ADD MSTORE PUSH1 0x44 ADD PUSH2 0x3C0 JUMP JUMPDEST DUP2 MLOAD PUSH1 0x20 DUP4 ADD CALLVALUE CREATE SWAP1 POP PUSH20 0xFFFFFFFFFFFFFFFFFFFFFFFFFFFFFFFFFFFFFFFF DUP2 AND PUSH2 0x6D7 JUMPI DUP2 PUSH1 0x40 MLOAD PUSH32 0xD25719100000000000000000000000000000000000000000000000000000000 DUP2 MSTORE PUSH1 0x4 ADD PUSH2 0x3C0 SWAP2 SWAP1 PUSH2 0x1EBA JUMP JUMPDEST PUSH1 0x40 MLOAD PUSH20 0xFFFFFFFFFFFFFFFFFFFFFFFFFFFFFFFFFFFFFFFF DUP3 AND DUP2 MSTORE PUSH32 0xA506AD4E7F05ECEBA62A023C3219E5BD98A615F4FA87E2AFB08A2DA5CF62BF0C SWAP1 PUSH1 0x20 ADD PUSH1 0x40 MLOAD DUP1 SWAP2 SUB SWAP1 LOG1 SWAP2 SWAP1 POP JUMP JUMPDEST PUSH1 0x0 PUSH2 0x731 PUSH1 0x0 PUSH2 0x60F JUMP JUMPDEST SWAP1 POP SWAP1 JUMP JUMPDEST PUSH1 0x0 PUSH32 0x6FFBD45100000000000000000000000000000000000000000000000000000000 PUSH32 0xFFFFFFFF00000000000000000000000000000000000000000000000000000000 DUP4 AND ADD PUSH2 0x789 JUMPI POP PUSH1 0x1 SWAP2 SWAP1 POP JUMP JUMPDEST PUSH2 0x2CB DUP3 PUSH2 0xCD3 JUMP JUMPDEST PUSH1 0x0 DUP1 PUSH1 0x0 DUP1 PUSH1 0x0 PUSH2 0x7A5 DUP9 DUP9 DUP9 PUSH2 0x447 JUMP JUMPDEST POP SWAP7 POP SWAP2 SWAP5 POP SWAP3 POP SWAP1 POP DUP3 DUP3 LT DUP1 ISZERO SWAP1 PUSH2 0x7BD JUMPI POP PUSH1 0x1 JUMPDEST SWAP5 POP POP POP POP SWAP4 POP SWAP4 SWAP2 POP POP JUMP JUMPDEST PUSH1 0x40 MLOAD PUSH32 0xA038794000000000000000000000000000000000000000000000000000000000 DUP2 MSTORE PUSH1 0x4 ADD PUSH1 0x40 MLOAD DUP1 SWAP2 SUB SWAP1 REVERT JUMPDEST PUSH1 0x40 MLOAD PUSH32 0x1901000000000000000000000000000000000000000000000000000000000000 PUSH1 0x20 DUP3 ADD MSTORE CHAINID PUSH1 0x22 DUP3 ADD MSTORE PUSH32 0xFFFFFFFFFFFFFFFFFFFFFFFFFFFFFFFFFFFFFFFF000000000000000000000000 ADDRESS PUSH1 0x60 SHL AND PUSH1 0x42 DUP3 ADD MSTORE PUSH1 0x56 DUP2 ADD DUP3 SWAP1 MSTORE PUSH1 0x0 SWAP1 PUSH1 0x76 ADD JUMPDEST PUSH1 0x40 MLOAD PUSH1 0x20 DUP2 DUP4 SUB SUB DUP2 MSTORE SWAP1 PUSH1 0x40 MSTORE DUP1 MLOAD SWAP1 PUSH1 0x20 ADD KECCAK256 SWAP1 POP SWAP2 SWAP1 POP JUMP JUMPDEST DUP1 PUSH1 0x0 JUMPDEST DUP2 DUP2 LT ISZERO PUSH2 0xA07 JUMPI CALLDATASIZE DUP5 DUP5 DUP4 DUP2 DUP2 LT PUSH2 0x8A0 JUMPI PUSH2 0x8A0 PUSH2 0x1E27 JUMP JUMPDEST SWAP1 POP PUSH1 0x20 MUL DUP2 ADD SWAP1 PUSH2 0x8B2 SWAP2 SWAP1 PUSH2 0x1ECD JUMP JUMPDEST SWAP1 POP PUSH2 0x8C1 PUSH1 0x20 DUP3 ADD DUP3 PUSH2 0x1F0B JUMP JUMPDEST ISZERO PUSH2 0x8FB JUMPI PUSH1 0x40 MLOAD PUSH32 0x230D1CCC00000000000000000000000000000000000000000000000000000000 DUP2 MSTORE PUSH1 0x4 DUP2 ADD DUP4 SWAP1 MSTORE PUSH1 0x24 ADD PUSH2 0x3C0 JUMP JUMPDEST PUSH1 0x40 DUP2 ADD CALLDATALOAD DUP1 GAS LT ISZERO PUSH2 0x94E JUMPI DUP3 DUP2 GAS PUSH1 0x40 MLOAD PUSH32 0x2BB3E3BA00000000000000000000000000000000000000000000000000000000 DUP2 MSTORE PUSH1 0x4 DUP2 ADD SWAP4 SWAP1 SWAP4 MSTORE PUSH1 0x24 DUP4 ADD SWAP2 SWAP1 SWAP2 MSTORE PUSH1 0x44 DUP3 ADD MSTORE PUSH1 0x64 ADD PUSH2 0x3C0 JUMP JUMPDEST PUSH1 0x0 PUSH2 0x988 PUSH2 0x963 PUSH1 0x80 DUP6 ADD PUSH1 0x60 DUP7 ADD PUSH2 0x1F26 JUMP JUMPDEST PUSH1 0x80 DUP6 ADD CALLDATALOAD DUP5 ISZERO PUSH2 0x974 JUMPI DUP5 PUSH2 0x976 JUMP JUMPDEST GAS JUMPDEST PUSH2 0x983 PUSH1 0xA0 DUP9 ADD DUP9 PUSH2 0x1F41 JUMP JUMPDEST PUSH2 0xD2F JUMP JUMPDEST SWAP1 POP DUP1 ISZERO PUSH2 0x9CF JUMPI DUP8 PUSH32 0x5C4EEB02DABF8976016AB414D617F9A162936DCACE3CDEF8C69EF6E262AD5AE7 DUP6 PUSH1 0x40 MLOAD PUSH2 0x9C2 SWAP2 DUP2 MSTORE PUSH1 0x20 ADD SWAP1 JUMP JUMPDEST PUSH1 0x40 MLOAD DUP1 SWAP2 SUB SWAP1 LOG2 PUSH2 0x9F1 JUMP JUMPDEST PUSH2 0x9F1 PUSH2 0x9E2 PUSH1 0x40 DUP6 ADD PUSH1 0x20 DUP7 ADD PUSH2 0x1F0B JUMP JUMPDEST DUP10 DUP7 PUSH2 0x9EC PUSH2 0xD4C JUMP JUMPDEST PUSH2 0xD6B JUMP JUMPDEST POP POP POP DUP1 DUP1 PUSH2 0x9FF SWAP1 PUSH2 0x1FD5 JUMP JUMPDEST SWAP2 POP POP PUSH2 0x885 JUMP JUMPDEST POP POP POP POP POP JUMP JUMPDEST PUSH1 0x0 DUP1 DUP1 DUP1 PUSH2 0xA29 DUP8 PUSH2 0xA24 DUP8 PUSH1 0x6 DUP2 DUP12 PUSH2 0x200D JUMP JUMPDEST PUSH2 0xDB9 JUMP JUMPDEST PUSH1 0x0 SWAP1 DUP2 MSTORE DUP8 CALLDATALOAD PUSH1 0xF0 SHR PUSH1 0x20 DUP2 DUP2 MSTORE PUSH1 0x40 DUP1 DUP5 KECCAK256 DUP5 MSTORE PUSH1 0x2 SWAP1 SWAP11 ADD CALLDATALOAD PUSH1 0xE0 SHR SWAP1 DUP2 SWAP1 MSTORE SWAP9 SWAP1 SWAP2 KECCAK256 SWAP1 SWAP10 SWAP2 SWAP9 POP SWAP7 SWAP6 POP SWAP4 POP POP POP POP JUMP JUMPDEST PUSH1 0x0 DUP1 DUP1 DUP1 PUSH2 0xA7A DUP8 PUSH2 0xA75 DUP8 PUSH1 0x1 DUP2 DUP12 PUSH2 0x200D JUMP JUMPDEST PUSH2 0xA0E JUMP JUMPDEST SWAP4 POP SWAP4 POP SWAP4 POP SWAP4 POP SWAP4 POP SWAP4 POP SWAP4 POP SWAP4 JUMP JUMPDEST PUSH1 0x40 MLOAD PUSH32 0x1901000000000000000000000000000000000000000000000000000000000000 PUSH1 0x20 DUP3 ADD MSTORE PUSH1 0x0 PUSH1 0x22 DUP3 ADD DUP2 SWAP1 MSTORE PUSH32 0xFFFFFFFFFFFFFFFFFFFFFFFFFFFFFFFFFFFFFFFF000000000000000000000000 ADDRESS PUSH1 0x60 SHL AND PUSH1 0x42 DUP4 ADD MSTORE PUSH1 0x56 DUP3 ADD DUP4 SWAP1 MSTORE SWAP1 PUSH1 0x76 ADD PUSH2 0x864 JUMP JUMPDEST PUSH1 0x0 DUP1 DUP1 DUP1 DUP1 PUSH1 0x4 PUSH1 0x1 DUP9 ADD CALLDATALOAD PUSH1 0xE8 SHR DUP3 PUSH2 0xB13 DUP4 DUP4 PUSH2 0x2037 JUMP JUMPDEST SWAP1 POP PUSH2 0xB25 DUP12 PUSH2 0x226 DUP4 DUP7 DUP14 DUP16 PUSH2 0x200D JUMP JUMPDEST SWAP4 SWAP12 POP SWAP2 SWAP10 POP SWAP8 POP SWAP6 POP SWAP4 POP DUP8 DUP8 LT ISZERO PUSH2 0xB7D JUMPI PUSH2 0xB45 DUP2 DUP5 DUP12 DUP14 PUSH2 0x200D JUMP JUMPDEST DUP10 DUP10 PUSH1 0x40 MLOAD PUSH32 0xB006ABA000000000000000000000000000000000000000000000000000000000 DUP2 MSTORE PUSH1 0x4 ADD PUSH2 0x3C0 SWAP5 SWAP4 SWAP3 SWAP2 SWAP1 PUSH2 0x204A JUMP JUMPDEST DUP1 SWAP3 POP JUMPDEST DUP9 DUP4 LT ISZERO PUSH2 0xC67 JUMPI PUSH1 0x3 DUP4 ADD SWAP3 DUP11 ADD CALLDATALOAD PUSH1 0xE8 SHR SWAP2 POP PUSH2 0xBA0 DUP4 DUP4 PUSH2 0x2037 JUMP JUMPDEST SWAP1 POP PUSH1 0x0 PUSH2 0xBC2 PUSH2 0xBB0 DUP9 PUSH2 0x124F JUMP JUMPDEST DUP13 DUP13 DUP8 SWAP1 DUP7 SWAP3 PUSH2 0x226 SWAP4 SWAP3 SWAP2 SWAP1 PUSH2 0x200D JUMP JUMPDEST SWAP4 SWAP13 POP SWAP2 SWAP11 POP SWAP9 POP SWAP1 SWAP2 POP POP DUP9 DUP9 LT ISZERO PUSH2 0xC1A JUMPI PUSH2 0xBE2 DUP3 DUP6 DUP13 DUP15 PUSH2 0x200D JUMP JUMPDEST DUP11 DUP11 PUSH1 0x40 MLOAD PUSH32 0xB006ABA000000000000000000000000000000000000000000000000000000000 DUP2 MSTORE PUSH1 0x4 ADD PUSH2 0x3C0 SWAP5 SWAP4 SWAP3 SWAP2 SWAP1 PUSH2 0x204A JUMP JUMPDEST DUP5 DUP2 LT PUSH2 0xC5D JUMPI PUSH1 0x40 MLOAD PUSH32 0x37DAF62B00000000000000000000000000000000000000000000000000000000 DUP2 MSTORE PUSH1 0x4 DUP2 ADD DUP3 SWAP1 MSTORE PUSH1 0x24 DUP2 ADD DUP7 SWAP1 MSTORE PUSH1 0x44 ADD PUSH2 0x3C0 JUMP JUMPDEST SWAP4 POP SWAP2 POP DUP2 PUSH2 0xB81 JUMP JUMPDEST POP POP POP SWAP4 SWAP8 SWAP3 SWAP7 POP SWAP4 POP SWAP4 POP JUMP JUMPDEST PUSH1 0x0 DUP1 DUP4 DUP4 PUSH1 0x40 MLOAD PUSH1 0x20 ADD PUSH2 0xC94 SWAP3 SWAP2 SWAP1 SWAP2 DUP3 MSTORE PUSH1 0x20 DUP3 ADD MSTORE PUSH1 0x40 ADD SWAP1 JUMP JUMPDEST PUSH1 0x40 DUP1 MLOAD PUSH32 0xFFFFFFFFFFFFFFFFFFFFFFFFFFFFFFFFFFFFFFFFFFFFFFFFFFFFFFFFFFFFFFE0 DUP2 DUP5 SUB ADD DUP2 MSTORE SWAP2 SWAP1 MSTORE DUP1 MLOAD PUSH1 0x20 SWAP1 SWAP2 ADD KECCAK256 SLOAD SWAP5 SWAP4 POP POP POP POP JUMP JUMPDEST PUSH1 0x0 PUSH32 0xE4A77BBC00000000000000000000000000000000000000000000000000000000 PUSH32 0xFFFFFFFF00000000000000000000000000000000000000000000000000000000 DUP4 AND ADD PUSH2 0xD26 JUMPI POP PUSH1 0x1 SWAP2 SWAP1 POP JUMP JUMPDEST PUSH2 0x2CB DUP3 PUSH2 0x1283 JUMP JUMPDEST PUSH1 0x0 PUSH1 0x40 MLOAD DUP3 DUP5 DUP3 CALLDATACOPY PUSH1 0x0 DUP1 DUP5 DUP4 DUP10 DUP12 DUP11 CALL SWAP8 SWAP7 POP POP POP POP POP POP POP JUMP JUMPDEST PUSH1 0x60 RETURNDATASIZE PUSH1 0x40 MLOAD SWAP2 POP PUSH1 0x20 DUP3 ADD DUP2 DUP2 ADD PUSH1 0x40 MSTORE DUP2 DUP4 MSTORE DUP2 PUSH1 0x0 DUP3 RETURNDATACOPY POP POP SWAP1 JUMP JUMPDEST DUP4 ISZERO PUSH2 0xD79 JUMPI DUP1 MLOAD PUSH1 0x20 DUP3 ADD REVERT JUMPDEST DUP3 PUSH32 0xAB46C69F7F32E1BF09B0725853DA82A211E5402A0600296AB499A2FB5EA3B419 DUP4 DUP4 PUSH1 0x40 MLOAD PUSH2 0xDAB SWAP3 SWAP2 SWAP1 PUSH2 0x2071 JUMP JUMPDEST PUSH1 0x40 MLOAD DUP1 SWAP2 SUB SWAP1 LOG2 POP POP POP POP JUMP JUMPDEST PUSH1 0x0 DUP1 PUSH1 0x0 JUMPDEST DUP4 DUP2 LT ISZERO PUSH2 0x1246 JUMPI PUSH1 0x1 DUP2 ADD SWAP1 DUP6 ADD CALLDATALOAD PUSH1 0xF8 SHR PUSH32 0xFFFFFFFFFFFFFFFFFFFFFFFFFFFFFFFFFFFFFFFFFFFFFFFFFFFFFFFFFFFFFFFF DUP2 ADD PUSH2 0xE60 JUMPI PUSH1 0x15 DUP3 ADD SWAP2 DUP7 ADD CALLDATALOAD PUSH1 0xF8 DUP2 SWAP1 SHR SWAP1 PUSH1 0x58 SHR PUSH20 0xFFFFFFFFFFFFFFFFFFFFFFFFFFFFFFFFFFFFFFFF DUP2 AND SWAP1 PUSH21 0xFF0000000000000000000000000000000000000000 AND DUP2 OR DUP6 PUSH2 0xE46 JUMPI DUP1 PUSH2 0xE55 JUMP JUMPDEST PUSH1 0x0 DUP7 DUP2 MSTORE PUSH1 0x20 DUP3 SWAP1 MSTORE PUSH1 0x40 SWAP1 KECCAK256 JUMPDEST SWAP6 POP POP POP POP POP PUSH2 0xDBF JUMP JUMPDEST DUP1 PUSH2 0xEF6 JUMPI PUSH1 0x1 DUP3 ADD SWAP2 DUP7 DUP2 ADD CALLDATALOAD PUSH1 0xF8 SHR SWAP1 PUSH1 0x43 ADD PUSH1 0x0 PUSH2 0xE8C DUP11 PUSH2 0xE87 DUP5 DUP9 DUP13 DUP15 PUSH2 0x200D JUMP JUMPDEST PUSH2 0x136D JUMP JUMPDEST PUSH1 0xFF DUP5 AND SWAP8 SWAP1 SWAP8 ADD SWAP7 SWAP2 SWAP5 POP DUP5 SWAP2 SWAP1 POP PUSH1 0xA0 DUP4 SWAP1 SHL PUSH21 0xFF0000000000000000000000000000000000000000 AND PUSH20 0xFFFFFFFFFFFFFFFFFFFFFFFFFFFFFFFFFFFFFFFF DUP3 AND OR DUP7 PUSH2 0xEDB JUMPI DUP1 PUSH2 0xEEA JUMP JUMPDEST PUSH1 0x0 DUP8 DUP2 MSTORE PUSH1 0x20 DUP3 SWAP1 MSTORE PUSH1 0x40 SWAP1 KECCAK256 JUMPDEST SWAP7 POP POP POP POP POP POP PUSH2 0xDBF JUMP JUMPDEST PUSH1 0x2 DUP2 SUB PUSH2 0x101E JUMPI PUSH1 0x0 DUP1 DUP8 DUP5 ADD CALLDATALOAD PUSH1 0xF8 DUP2 SWAP1 SHR SWAP1 PUSH1 0x58 SHR PUSH20 0xFFFFFFFFFFFFFFFFFFFFFFFFFFFFFFFFFFFFFFFF AND PUSH1 0x15 DUP7 ADD SWAP6 POP SWAP1 SWAP3 POP SWAP1 POP PUSH1 0x0 DUP9 DUP6 ADD CALLDATALOAD PUSH1 0xE8 SHR PUSH1 0x3 DUP7 ADD DUP2 PUSH3 0xFFFFFF AND SWAP2 POP DUP1 SWAP7 POP DUP2 SWAP3 POP POP POP PUSH1 0x0 DUP2 DUP7 ADD SWAP1 POP PUSH2 0xF6F DUP12 DUP5 DUP13 DUP13 DUP11 SWAP1 DUP7 SWAP3 PUSH2 0xF6A SWAP4 SWAP3 SWAP2 SWAP1 PUSH2 0x200D JUMP JUMPDEST PUSH2 0x1630 JUMP JUMPDEST PUSH2 0xFB7 JUMPI DUP11 DUP4 PUSH2 0xF81 DUP4 DUP10 DUP14 DUP16 PUSH2 0x200D JUMP JUMPDEST PUSH1 0x40 MLOAD PUSH32 0x9A94623200000000000000000000000000000000000000000000000000000000 DUP2 MSTORE PUSH1 0x4 ADD PUSH2 0x3C0 SWAP5 SWAP4 SWAP3 SWAP2 SWAP1 PUSH2 0x208A JUMP JUMPDEST PUSH1 0xFF DUP5 AND SWAP8 SWAP1 SWAP8 ADD SWAP7 SWAP5 POP DUP5 PUSH1 0xA0 DUP5 SWAP1 SHL PUSH21 0xFF0000000000000000000000000000000000000000 AND PUSH20 0xFFFFFFFFFFFFFFFFFFFFFFFFFFFFFFFFFFFFFFFF DUP5 AND OR DUP8 PUSH2 0x1002 JUMPI DUP1 PUSH2 0x1011 JUMP JUMPDEST PUSH1 0x0 DUP9 DUP2 MSTORE PUSH1 0x20 DUP3 SWAP1 MSTORE PUSH1 0x40 SWAP1 KECCAK256 JUMPDEST SWAP8 POP POP POP POP POP POP POP PUSH2 0xDBF JUMP JUMPDEST PUSH1 0x3 DUP2 SUB PUSH2 0x1051 JUMPI PUSH1 0x20 DUP3 ADD SWAP2 DUP7 ADD CALLDATALOAD DUP4 PUSH2 0x1039 JUMPI DUP1 PUSH2 0x1048 JUMP JUMPDEST PUSH1 0x0 DUP5 DUP2 MSTORE PUSH1 0x20 DUP3 SWAP1 MSTORE PUSH1 0x40 SWAP1 KECCAK256 JUMPDEST SWAP4 POP POP POP PUSH2 0xDBF JUMP JUMPDEST PUSH1 0x4 DUP2 SUB PUSH2 0x109D JUMPI PUSH1 0x3 DUP1 DUP4 ADD SWAP3 DUP8 DUP2 ADD CALLDATALOAD PUSH1 0xE8 SHR SWAP2 SWAP1 DUP3 ADD ADD PUSH1 0x0 DUP1 PUSH2 0x107E DUP12 PUSH2 0xA24 DUP6 DUP10 DUP14 DUP16 PUSH2 0x200D JUMP JUMPDEST PUSH1 0x0 SWAP9 DUP10 MSTORE PUSH1 0x20 MSTORE PUSH1 0x40 SWAP1 SWAP8 KECCAK256 SWAP7 SWAP1 SWAP8 ADD SWAP7 POP SWAP1 SWAP4 POP PUSH2 0xDBF SWAP3 POP POP POP JUMP JUMPDEST PUSH1 0x6 DUP2 SUB PUSH2 0x11A5 JUMPI PUSH1 0x0 DUP3 DUP8 ADD CALLDATALOAD PUSH1 0xF8 SHR PUSH1 0x1 DUP5 ADD SWAP4 POP PUSH1 0xFF AND SWAP1 POP PUSH1 0x0 DUP8 DUP5 ADD CALLDATALOAD PUSH1 0xF0 SHR PUSH1 0x2 DUP6 ADD SWAP5 POP PUSH2 0xFFFF AND SWAP1 POP PUSH1 0x0 DUP9 DUP6 ADD CALLDATALOAD PUSH1 0xE8 SHR PUSH1 0x3 DUP7 ADD DUP2 PUSH3 0xFFFFFF AND SWAP2 POP DUP1 SWAP7 POP DUP2 SWAP3 POP POP POP PUSH1 0x0 DUP2 DUP7 ADD SWAP1 POP PUSH1 0x0 DUP1 PUSH2 0x110B DUP14 DUP14 DUP14 DUP12 SWAP1 DUP8 SWAP3 PUSH2 0xA24 SWAP4 SWAP3 SWAP2 SWAP1 PUSH2 0x200D JUMP JUMPDEST SWAP4 SWAP9 POP DUP9 SWAP4 SWAP1 SWAP3 POP SWAP1 POP DUP5 DUP3 LT PUSH2 0x1121 JUMPI SWAP9 DUP6 ADD SWAP9 JUMPDEST PUSH1 0x40 DUP1 MLOAD PUSH32 0x53657175656E6365206E657374656420636F6E6669673A0A0000000000000000 PUSH1 0x20 DUP1 DUP4 ADD SWAP2 SWAP1 SWAP2 MSTORE PUSH1 0x38 DUP3 ADD DUP5 SWAP1 MSTORE PUSH1 0x58 DUP3 ADD DUP9 SWAP1 MSTORE PUSH1 0x78 DUP1 DUP4 ADD DUP11 SWAP1 MSTORE DUP4 MLOAD DUP1 DUP5 SUB SWAP1 SWAP2 ADD DUP2 MSTORE PUSH1 0x98 SWAP1 SWAP3 ADD SWAP1 SWAP3 MSTORE DUP1 MLOAD SWAP2 ADD KECCAK256 DUP10 PUSH2 0x1187 JUMPI DUP1 PUSH2 0x1196 JUMP JUMPDEST PUSH1 0x0 DUP11 DUP2 MSTORE PUSH1 0x20 DUP3 SWAP1 MSTORE PUSH1 0x40 SWAP1 KECCAK256 JUMPDEST SWAP10 POP POP POP POP POP POP POP POP POP PUSH2 0xDBF JUMP JUMPDEST PUSH1 0x5 DUP2 SUB PUSH2 0x1211 JUMPI PUSH1 0x20 DUP3 ADD SWAP2 DUP7 ADD CALLDATALOAD DUP8 DUP2 SUB PUSH2 0x11E0 JUMPI PUSH32 0xFFFFFFFFFFFFFFFFFFFFFFFFFFFFFFFFFFFFFFFFFFFFFFFFFFFFFFFFFFFFFFFF SWAP5 POP JUMPDEST PUSH1 0x0 PUSH2 0x11EB DUP3 PUSH2 0x1817 JUMP JUMPDEST SWAP1 POP DUP5 PUSH2 0x11F8 JUMPI DUP1 PUSH2 0x1207 JUMP JUMPDEST PUSH1 0x0 DUP6 DUP2 MSTORE PUSH1 0x20 DUP3 SWAP1 MSTORE PUSH1 0x40 SWAP1 KECCAK256 JUMPDEST SWAP5 POP POP POP POP PUSH2 0xDBF JUMP JUMPDEST PUSH1 0x40 MLOAD PUSH32 0xB2505F7C00000000000000000000000000000000000000000000000000000000 DUP2 MSTORE PUSH1 0x4 DUP2 ADD DUP3 SWAP1 MSTORE PUSH1 0x24 ADD PUSH2 0x3C0 JUMP JUMPDEST POP SWAP4 POP SWAP4 SWAP2 POP POP JUMP JUMPDEST PUSH32 0x8713A7C4465F6FBEE2B6E9D6646D1D9F83FEC929EDFC4BAF661F3C865BDD04D1 PUSH1 0x0 SWAP1 DUP2 MSTORE PUSH1 0x20 DUP3 SWAP1 MSTORE PUSH1 0x40 DUP2 KECCAK256 PUSH2 0x2CB JUMP JUMPDEST PUSH1 0x0 PUSH32 0xFFFFFFFF00000000000000000000000000000000000000000000000000000000 DUP3 AND PUSH32 0xAC6A444E00000000000000000000000000000000000000000000000000000000 EQ DUP1 PUSH2 0x1316 JUMPI POP PUSH32 0xFFFFFFFF00000000000000000000000000000000000000000000000000000000 DUP3 AND PUSH32 0x36E7817500000000000000000000000000000000000000000000000000000000 EQ JUMPDEST ISZERO PUSH2 0x1323 JUMPI POP PUSH1 0x1 SWAP2 SWAP1 POP JUMP JUMPDEST PUSH32 0x1FFC9A700000000000000000000000000000000000000000000000000000000 PUSH32 0xFFFFFFFF00000000000000000000000000000000000000000000000000000000 DUP4 AND EQ PUSH2 0x2CB JUMP JUMPDEST PUSH1 0x0 PUSH1 0x42 DUP3 EQ PUSH2 0x13AD JUMPI DUP3 DUP3 PUSH1 0x40 MLOAD PUSH32 0x2EE17A3D00000000000000000000000000000000000000000000000000000000 DUP2 MSTORE PUSH1 0x4 ADD PUSH2 0x3C0 SWAP3 SWAP2 SWAP1 PUSH2 0x20CA JUMP JUMPDEST PUSH1 0x0 PUSH2 0x13C6 PUSH2 0x13BD PUSH1 0x1 DUP6 PUSH2 0x20DE JUMP JUMPDEST DUP6 ADD CALLDATALOAD PUSH1 0xF8 SHR SWAP1 JUMP JUMPDEST PUSH1 0xFF AND SWAP1 POP PUSH1 0x40 DUP5 ADD CALLDATALOAD PUSH1 0xF8 SHR DUP5 CALLDATALOAD PUSH1 0x20 DUP7 ADD CALLDATALOAD PUSH32 0x7FFFFFFFFFFFFFFFFFFFFFFFFFFFFFFF5D576E7357A4501DDFE92F46681B20A0 DUP2 GT ISZERO PUSH2 0x143A JUMPI DUP7 DUP7 DUP3 PUSH1 0x40 MLOAD PUSH32 0xAD4AAC7600000000000000000000000000000000000000000000000000000000 DUP2 MSTORE PUSH1 0x4 ADD PUSH2 0x3C0 SWAP4 SWAP3 SWAP2 SWAP1 PUSH2 0x20F1 JUMP JUMPDEST DUP3 PUSH1 0xFF AND PUSH1 0x1B EQ ISZERO DUP1 ISZERO PUSH2 0x1452 JUMPI POP DUP3 PUSH1 0xFF AND PUSH1 0x1C EQ ISZERO JUMPDEST ISZERO PUSH2 0x148F JUMPI DUP7 DUP7 DUP5 PUSH1 0x40 MLOAD PUSH32 0xE578897E00000000000000000000000000000000000000000000000000000000 DUP2 MSTORE PUSH1 0x4 ADD PUSH2 0x3C0 SWAP4 SWAP3 SWAP2 SWAP1 PUSH2 0x2115 JUMP JUMPDEST PUSH1 0x1 DUP5 SUB PUSH2 0x14FC JUMPI PUSH1 0x40 DUP1 MLOAD PUSH1 0x0 DUP2 MSTORE PUSH1 0x20 DUP2 ADD DUP1 DUP4 MSTORE DUP11 SWAP1 MSTORE PUSH1 0xFF DUP6 AND SWAP2 DUP2 ADD SWAP2 SWAP1 SWAP2 MSTORE PUSH1 0x60 DUP2 ADD DUP4 SWAP1 MSTORE PUSH1 0x80 DUP2 ADD DUP3 SWAP1 MSTORE PUSH1 0x1 SWAP1 PUSH1 0xA0 ADD JUMPDEST PUSH1 0x20 PUSH1 0x40 MLOAD PUSH1 0x20 DUP2 SUB SWAP1 DUP1 DUP5 SUB SWAP1 DUP6 GAS STATICCALL ISZERO DUP1 ISZERO PUSH2 0x14EB JUMPI RETURNDATASIZE PUSH1 0x0 DUP1 RETURNDATACOPY RETURNDATASIZE PUSH1 0x0 REVERT JUMPDEST POP POP POP PUSH1 0x20 PUSH1 0x40 MLOAD SUB MLOAD SWAP5 POP PUSH2 0x15D4 JUMP JUMPDEST PUSH1 0x2 DUP5 SUB PUSH2 0x1599 JUMPI PUSH1 0x40 MLOAD PUSH32 0x19457468657265756D205369676E6564204D6573736167653A0A333200000000 PUSH1 0x20 DUP3 ADD MSTORE PUSH1 0x3C DUP2 ADD DUP10 SWAP1 MSTORE PUSH1 0x1 SWAP1 PUSH1 0x5C ADD PUSH1 0x40 DUP1 MLOAD PUSH32 0xFFFFFFFFFFFFFFFFFFFFFFFFFFFFFFFFFFFFFFFFFFFFFFFFFFFFFFFFFFFFFFE0 DUP2 DUP5 SUB ADD DUP2 MSTORE DUP3 DUP3 MSTORE DUP1 MLOAD PUSH1 0x20 SWAP2 DUP3 ADD KECCAK256 PUSH1 0x0 DUP5 MSTORE SWAP1 DUP4 ADD DUP1 DUP4 MSTORE MSTORE PUSH1 0xFF DUP7 AND SWAP1 DUP3 ADD MSTORE PUSH1 0x60 DUP2 ADD DUP5 SWAP1 MSTORE PUSH1 0x80 DUP2 ADD DUP4 SWAP1 MSTORE PUSH1 0xA0 ADD PUSH2 0x14C9 JUMP JUMPDEST DUP7 DUP7 DUP6 PUSH1 0x1 PUSH1 0x40 MLOAD PUSH32 0x9DFBA85200000000000000000000000000000000000000000000000000000000 DUP2 MSTORE PUSH1 0x4 ADD PUSH2 0x3C0 SWAP5 SWAP4 SWAP3 SWAP2 SWAP1 PUSH2 0x213C JUMP JUMPDEST PUSH20 0xFFFFFFFFFFFFFFFFFFFFFFFFFFFFFFFFFFFFFFFF DUP6 AND PUSH2 0x1625 JUMPI DUP7 DUP7 PUSH1 0x40 MLOAD PUSH32 0x6C1719D200000000000000000000000000000000000000000000000000000000 DUP2 MSTORE PUSH1 0x4 ADD PUSH2 0x3C0 SWAP3 SWAP2 SWAP1 PUSH2 0x20CA JUMP JUMPDEST POP POP POP POP SWAP4 SWAP3 POP POP POP JUMP JUMPDEST PUSH1 0x0 DUP2 DUP2 SUB PUSH2 0x166B JUMPI PUSH1 0x40 MLOAD PUSH32 0xAC241E1100000000000000000000000000000000000000000000000000000000 DUP2 MSTORE PUSH1 0x4 ADD PUSH1 0x40 MLOAD DUP1 SWAP2 SUB SWAP1 REVERT JUMPDEST PUSH1 0x0 DUP4 DUP4 PUSH2 0x167A PUSH1 0x1 DUP3 PUSH2 0x20DE JUMP JUMPDEST DUP2 DUP2 LT PUSH2 0x1689 JUMPI PUSH2 0x1689 PUSH2 0x1E27 JUMP JUMPDEST SWAP2 SWAP1 SWAP2 ADD CALLDATALOAD PUSH1 0xF8 SHR SWAP2 POP POP PUSH1 0x1 DUP2 EQ DUP1 PUSH2 0x16A3 JUMPI POP PUSH1 0x2 DUP2 EQ JUMPDEST ISZERO PUSH2 0x16E8 JUMPI DUP5 PUSH20 0xFFFFFFFFFFFFFFFFFFFFFFFFFFFFFFFFFFFFFFFF AND PUSH2 0x16CA DUP8 DUP7 DUP7 PUSH2 0x136D JUMP JUMPDEST PUSH20 0xFFFFFFFFFFFFFFFFFFFFFFFFFFFFFFFFFFFFFFFF AND EQ SWAP2 POP PUSH2 0x180E JUMP JUMPDEST PUSH1 0x3 DUP2 SUB PUSH2 0x17D3 JUMPI PUSH20 0xFFFFFFFFFFFFFFFFFFFFFFFFFFFFFFFFFFFFFFFF DUP6 AND PUSH4 0x1626BA7E DUP8 DUP7 PUSH1 0x0 DUP8 PUSH2 0x171C PUSH1 0x1 DUP3 PUSH2 0x20DE JUMP JUMPDEST SWAP3 PUSH2 0x1729 SWAP4 SWAP3 SWAP2 SWAP1 PUSH2 0x200D JUMP JUMPDEST PUSH1 0x40 MLOAD DUP5 PUSH4 0xFFFFFFFF AND PUSH1 0xE0 SHL DUP2 MSTORE PUSH1 0x4 ADD PUSH2 0x1747 SWAP4 SWAP3 SWAP2 SWAP1 PUSH2 0x2168 JUMP JUMPDEST PUSH1 0x20 PUSH1 0x40 MLOAD DUP1 DUP4 SUB DUP2 DUP7 GAS STATICCALL ISZERO DUP1 ISZERO PUSH2 0x1764 JUMPI RETURNDATASIZE PUSH1 0x0 DUP1 RETURNDATACOPY RETURNDATASIZE PUSH1 0x0 REVERT JUMPDEST POP POP POP POP PUSH1 0x40 MLOAD RETURNDATASIZE PUSH1 0x1F NOT PUSH1 0x1F DUP3 ADD AND DUP3 ADD DUP1 PUSH1 0x40 MSTORE POP DUP2 ADD SWAP1 PUSH2 0x1788 SWAP2 SWAP1 PUSH2 0x218B JUMP JUMPDEST PUSH32 0xFFFFFFFF00000000000000000000000000000000000000000000000000000000 AND PUSH32 0x1626BA7E00000000000000000000000000000000000000000000000000000000 EQ SWAP2 POP PUSH2 0x180E JUMP JUMPDEST DUP4 DUP4 DUP3 PUSH1 0x0 PUSH1 0x40 MLOAD PUSH32 0x9DFBA85200000000000000000000000000000000000000000000000000000000 DUP2 MSTORE PUSH1 0x4 ADD PUSH2 0x3C0 SWAP5 SWAP4 SWAP3 SWAP2 SWAP1 PUSH2 0x213C JUMP JUMPDEST POP SWAP5 SWAP4 POP POP POP POP JUMP JUMPDEST PUSH1 0x40 MLOAD PUSH32 0x53657175656E636520737461746963206469676573743A0A0000000000000000 PUSH1 0x20 DUP3 ADD MSTORE PUSH1 0x38 DUP2 ADD DUP3 SWAP1 MSTORE PUSH1 0x0 SWAP1 PUSH1 0x58 ADD PUSH2 0x864 JUMP JUMPDEST PUSH32 0xFFFFFFFF00000000000000000000000000000000000000000000000000000000 DUP2 AND DUP2 EQ PUSH2 0x3D2 JUMPI PUSH1 0x0 DUP1 REVERT JUMPDEST PUSH1 0x0 PUSH1 0x20 DUP3 DUP5 SUB SLT ISZERO PUSH2 0x1892 JUMPI PUSH1 0x0 DUP1 REVERT JUMPDEST DUP2 CALLDATALOAD PUSH2 0x317 DUP2 PUSH2 0x1852 JUMP JUMPDEST PUSH1 0x0 DUP1 DUP4 PUSH1 0x1F DUP5 ADD SLT PUSH2 0x18AF JUMPI PUSH1 0x0 DUP1 REVERT JUMPDEST POP DUP2 CALLDATALOAD PUSH8 0xFFFFFFFFFFFFFFFF DUP2 GT ISZERO PUSH2 0x18C7 JUMPI PUSH1 0x0 DUP1 REVERT JUMPDEST PUSH1 0x20 DUP4 ADD SWAP2 POP DUP4 PUSH1 0x20 DUP3 DUP6 ADD ADD GT ISZERO PUSH2 0x18DF JUMPI PUSH1 0x0 DUP1 REVERT JUMPDEST SWAP3 POP SWAP3 SWAP1 POP JUMP JUMPDEST PUSH1 0x0 DUP1 PUSH1 0x0 PUSH1 0x40 DUP5 DUP7 SUB SLT ISZERO PUSH2 0x18FB JUMPI PUSH1 0x0 DUP1 REVERT JUMPDEST DUP4 CALLDATALOAD SWAP3 POP PUSH1 0x20 DUP5 ADD CALLDATALOAD PUSH8 0xFFFFFFFFFFFFFFFF DUP2 GT ISZERO PUSH2 0x1919 JUMPI PUSH1 0x0 DUP1 REVERT JUMPDEST PUSH2 0x1925 DUP7 DUP3 DUP8 ADD PUSH2 0x189D JUMP JUMPDEST SWAP5 SWAP8 SWAP1 SWAP7 POP SWAP4 SWAP5 POP POP POP POP JUMP JUMPDEST PUSH1 0x0 DUP1 PUSH1 0x0 DUP1 PUSH1 0x40 DUP6 DUP8 SUB SLT ISZERO PUSH2 0x1948 JUMPI PUSH1 0x0 DUP1 REVERT JUMPDEST DUP5 CALLDATALOAD PUSH8 0xFFFFFFFFFFFFFFFF DUP1 DUP3 GT ISZERO PUSH2 0x1960 JUMPI PUSH1 0x0 DUP1 REVERT JUMPDEST PUSH2 0x196C DUP9 DUP4 DUP10 ADD PUSH2 0x189D JUMP JUMPDEST SWAP1 SWAP7 POP SWAP5 POP PUSH1 0x20 DUP8 ADD CALLDATALOAD SWAP2 POP DUP1 DUP3 GT ISZERO PUSH2 0x1985 JUMPI PUSH1 0x0 DUP1 REVERT JUMPDEST POP PUSH2 0x1992 DUP8 DUP3 DUP9 ADD PUSH2 0x189D JUMP JUMPDEST SWAP6 SWAP9 SWAP5 SWAP8 POP SWAP6 POP POP POP POP JUMP JUMPDEST PUSH1 0x0 PUSH1 0x20 DUP3 DUP5 SUB SLT ISZERO PUSH2 0x19B0 JUMPI PUSH1 0x0 DUP1 REVERT JUMPDEST POP CALLDATALOAD SWAP2 SWAP1 POP JUMP JUMPDEST PUSH1 0x0 DUP1 DUP4 PUSH1 0x1F DUP5 ADD SLT PUSH2 0x19C9 JUMPI PUSH1 0x0 DUP1 REVERT JUMPDEST POP DUP2 CALLDATALOAD PUSH8 0xFFFFFFFFFFFFFFFF DUP2 GT ISZERO PUSH2 0x19E1 JUMPI PUSH1 0x0 DUP1 REVERT JUMPDEST PUSH1 0x20 DUP4 ADD SWAP2 POP DUP4 PUSH1 0x20 DUP3 PUSH1 0x5 SHL DUP6 ADD ADD GT ISZERO PUSH2 0x18DF JUMPI PUSH1 0x0 DUP1 REVERT JUMPDEST PUSH1 0x0 DUP1 PUSH1 0x20 DUP4 DUP6 SUB SLT ISZERO PUSH2 0x1A0F JUMPI PUSH1 0x0 DUP1 REVERT JUMPDEST DUP3 CALLDATALOAD PUSH8 0xFFFFFFFFFFFFFFFF DUP2 GT ISZERO PUSH2 0x1A26 JUMPI PUSH1 0x0 DUP1 REVERT JUMPDEST PUSH2 0x1A32 DUP6 DUP3 DUP7 ADD PUSH2 0x19B7 JUMP JUMPDEST SWAP1 SWAP7 SWAP1 SWAP6 POP SWAP4 POP POP POP POP JUMP JUMPDEST PUSH1 0x0 DUP1 PUSH1 0x0 DUP1 PUSH1 0x0 PUSH1 0x60 DUP7 DUP9 SUB SLT ISZERO PUSH2 0x1A56 JUMPI PUSH1 0x0 DUP1 REVERT JUMPDEST DUP6 CALLDATALOAD PUSH8 0xFFFFFFFFFFFFFFFF DUP1 DUP3 GT ISZERO PUSH2 0x1A6E JUMPI PUSH1 0x0 DUP1 REVERT JUMPDEST PUSH2 0x1A7A DUP10 DUP4 DUP11 ADD PUSH2 0x19B7 JUMP JUMPDEST SWAP1 SWAP8 POP SWAP6 POP PUSH1 0x20 DUP9 ADD CALLDATALOAD SWAP5 POP PUSH1 0x40 DUP9 ADD CALLDATALOAD SWAP2 POP DUP1 DUP3 GT ISZERO PUSH2 0x1A9A JUMPI PUSH1 0x0 DUP1 REVERT JUMPDEST POP PUSH2 0x1AA7 DUP9 DUP3 DUP10 ADD PUSH2 0x189D JUMP JUMPDEST SWAP7 SWAP10 SWAP6 SWAP9 POP SWAP4 SWAP7 POP SWAP3 SWAP5 SWAP4 SWAP3 POP POP POP JUMP JUMPDEST PUSH32 0x4E487B7100000000000000000000000000000000000000000000000000000000 PUSH1 0x0 MSTORE PUSH1 0x41 PUSH1 0x4 MSTORE PUSH1 0x24 PUSH1 0x0 REVERT JUMPDEST PUSH1 0x0 PUSH1 0x20 DUP3 DUP5 SUB SLT ISZERO PUSH2 0x1AF9 JUMPI PUSH1 0x0 DUP1 REVERT JUMPDEST DUP2 CALLDATALOAD PUSH8 0xFFFFFFFFFFFFFFFF DUP1 DUP3 GT ISZERO PUSH2 0x1B11 JUMPI PUSH1 0x0 DUP1 REVERT JUMPDEST DUP2 DUP5 ADD SWAP2 POP DUP5 PUSH1 0x1F DUP4 ADD SLT PUSH2 0x1B25 JUMPI PUSH1 0x0 DUP1 REVERT JUMPDEST DUP2 CALLDATALOAD DUP2 DUP2 GT ISZERO PUSH2 0x1B37 JUMPI PUSH2 0x1B37 PUSH2 0x1AB8 JUMP JUMPDEST PUSH1 0x40 MLOAD PUSH1 0x1F DUP3 ADD PUSH32 0xFFFFFFFFFFFFFFFFFFFFFFFFFFFFFFFFFFFFFFFFFFFFFFFFFFFFFFFFFFFFFFE0 SWAP1 DUP2 AND PUSH1 0x3F ADD AND DUP2 ADD SWAP1 DUP4 DUP3 GT DUP2 DUP4 LT OR ISZERO PUSH2 0x1B7D JUMPI PUSH2 0x1B7D PUSH2 0x1AB8 JUMP JUMPDEST DUP2 PUSH1 0x40 MSTORE DUP3 DUP2 MSTORE DUP8 PUSH1 0x20 DUP5 DUP8 ADD ADD GT ISZERO PUSH2 0x1B96 JUMPI PUSH1 0x0 DUP1 REVERT JUMPDEST DUP3 PUSH1 0x20 DUP7 ADD PUSH1 0x20 DUP4 ADD CALLDATACOPY PUSH1 0x0 SWAP3 DUP2 ADD PUSH1 0x20 ADD SWAP3 SWAP1 SWAP3 MSTORE POP SWAP6 SWAP5 POP POP POP POP POP JUMP JUMPDEST DUP2 DUP4 DUP3 CALLDATACOPY PUSH1 0x0 SWAP2 ADD SWAP1 DUP2 MSTORE SWAP2 SWAP1 POP JUMP JUMPDEST DUP1 CALLDATALOAD DUP1 ISZERO ISZERO DUP2 EQ PUSH2 0x1BD6 JUMPI PUSH1 0x0 DUP1 REVERT JUMPDEST SWAP2 SWAP1 POP JUMP JUMPDEST DUP1 CALLDATALOAD PUSH20 0xFFFFFFFFFFFFFFFFFFFFFFFFFFFFFFFFFFFFFFFF DUP2 AND DUP2 EQ PUSH2 0x1BD6 JUMPI PUSH1 0x0 DUP1 REVERT JUMPDEST DUP2 DUP4 MSTORE DUP2 DUP2 PUSH1 0x20 DUP6 ADD CALLDATACOPY POP PUSH1 0x0 PUSH1 0x20 DUP3 DUP5 ADD ADD MSTORE PUSH1 0x0 PUSH1 0x20 PUSH32 0xFFFFFFFFFFFFFFFFFFFFFFFFFFFFFFFFFFFFFFFFFFFFFFFFFFFFFFFFFFFFFFE0 PUSH1 0x1F DUP5 ADD AND DUP5 ADD ADD SWAP1 POP SWAP3 SWAP2 POP POP JUMP JUMPDEST DUP2 DUP4 MSTORE PUSH1 0x0 PUSH1 0x20 DUP1 DUP6 ADD DUP1 DUP2 SWAP7 POP DUP6 PUSH1 0x5 SHL DUP2 ADD SWAP2 POP DUP5 PUSH1 0x0 JUMPDEST DUP8 DUP2 LT ISZERO PUSH2 0x1D8A JUMPI DUP3 DUP5 SUB DUP10 MSTORE DUP2 CALLDATALOAD PUSH32 0xFFFFFFFFFFFFFFFFFFFFFFFFFFFFFFFFFFFFFFFFFFFFFFFFFFFFFFFFFFFFFF41 DUP9 CALLDATASIZE SUB ADD DUP2 SLT PUSH2 0x1CA1 JUMPI PUSH1 0x0 DUP1 REVERT JUMPDEST DUP8 ADD PUSH1 0xC0 PUSH2 0x1CAE DUP3 PUSH2 0x1BC6 JUMP JUMPDEST ISZERO ISZERO DUP7 MSTORE PUSH2 0x1CBD DUP8 DUP4 ADD PUSH2 0x1BC6 JUMP JUMPDEST ISZERO ISZERO DUP7 DUP9 ADD MSTORE PUSH1 0x40 DUP3 DUP2 ADD CALLDATALOAD SWAP1 DUP8 ADD MSTORE PUSH1 0x60 PUSH20 0xFFFFFFFFFFFFFFFFFFFFFFFFFFFFFFFFFFFFFFFF PUSH2 0x1CEF DUP3 DUP6 ADD PUSH2 0x1BDB JUMP JUMPDEST AND SWAP1 DUP8 ADD MSTORE PUSH1 0x80 DUP3 DUP2 ADD CALLDATALOAD SWAP1 DUP8 ADD MSTORE PUSH1 0xA0 DUP1 DUP4 ADD CALLDATALOAD CALLDATASIZE DUP5 SWAP1 SUB PUSH32 0xFFFFFFFFFFFFFFFFFFFFFFFFFFFFFFFFFFFFFFFFFFFFFFFFFFFFFFFFFFFFFFE1 ADD DUP2 SLT PUSH2 0x1D35 JUMPI PUSH1 0x0 DUP1 REVERT JUMPDEST SWAP1 SWAP3 ADD DUP8 DUP2 ADD SWAP3 SWAP1 CALLDATALOAD PUSH8 0xFFFFFFFFFFFFFFFF DUP2 GT ISZERO PUSH2 0x1D53 JUMPI PUSH1 0x0 DUP1 REVERT JUMPDEST DUP1 CALLDATASIZE SUB DUP5 SGT ISZERO PUSH2 0x1D62 JUMPI PUSH1 0x0 DUP1 REVERT JUMPDEST DUP3 DUP3 DUP10 ADD MSTORE PUSH2 0x1D74 DUP4 DUP10 ADD DUP3 DUP7 PUSH2 0x1BFF JUMP JUMPDEST SWAP13 DUP10 ADD SWAP13 SWAP8 POP POP POP SWAP3 DUP7 ADD SWAP3 POP POP PUSH1 0x1 ADD PUSH2 0x1C62 JUMP JUMPDEST POP SWAP2 SWAP8 SWAP7 POP POP POP POP POP POP POP JUMP JUMPDEST PUSH1 0x40 DUP2 MSTORE PUSH1 0x5 PUSH1 0x40 DUP3 ADD MSTORE PUSH32 0x73656C663A000000000000000000000000000000000000000000000000000000 PUSH1 0x60 DUP3 ADD MSTORE PUSH1 0x80 PUSH1 0x20 DUP3 ADD MSTORE PUSH1 0x0 PUSH2 0x37B PUSH1 0x80 DUP4 ADD DUP5 DUP7 PUSH2 0x1C48 JUMP JUMPDEST PUSH1 0x40 DUP2 MSTORE PUSH1 0x6 PUSH1 0x40 DUP3 ADD MSTORE PUSH32 0x67756573743A0000000000000000000000000000000000000000000000000000 PUSH1 0x60 DUP3 ADD MSTORE PUSH1 0x80 PUSH1 0x20 DUP3 ADD MSTORE PUSH1 0x0 PUSH2 0x37B PUSH1 0x80 DUP4 ADD DUP5 DUP7 PUSH2 0x1C48 JUMP JUMPDEST PUSH32 0x4E487B7100000000000000000000000000000000000000000000000000000000 PUSH1 0x0 MSTORE PUSH1 0x32 PUSH1 0x4 MSTORE PUSH1 0x24 PUSH1 0x0 REVERT JUMPDEST PUSH1 0x0 DUP2 MLOAD DUP1 DUP5 MSTORE PUSH1 0x0 JUMPDEST DUP2 DUP2 LT ISZERO PUSH2 0x1E7C JUMPI PUSH1 0x20 DUP2 DUP6 ADD DUP2 ADD MLOAD DUP7 DUP4 ADD DUP3 ADD MSTORE ADD PUSH2 0x1E60 JUMP JUMPDEST POP PUSH1 0x0 PUSH1 0x20 DUP3 DUP7 ADD ADD MSTORE PUSH1 0x20 PUSH32 0xFFFFFFFFFFFFFFFFFFFFFFFFFFFFFFFFFFFFFFFFFFFFFFFFFFFFFFFFFFFFFFE0 PUSH1 0x1F DUP4 ADD AND DUP6 ADD ADD SWAP2 POP POP SWAP3 SWAP2 POP POP JUMP JUMPDEST PUSH1 0x20 DUP2 MSTORE PUSH1 0x0 PUSH2 0x317 PUSH1 0x20 DUP4 ADD DUP5 PUSH2 0x1E56 JUMP JUMPDEST PUSH1 0x0 DUP3 CALLDATALOAD PUSH32 0xFFFFFFFFFFFFFFFFFFFFFFFFFFFFFFFFFFFFFFFFFFFFFFFFFFFFFFFFFFFFFF41 DUP4 CALLDATASIZE SUB ADD DUP2 SLT PUSH2 0x1F01 JUMPI PUSH1 0x0 DUP1 REVERT JUMPDEST SWAP2 SWAP1 SWAP2 ADD SWAP3 SWAP2 POP POP JUMP JUMPDEST PUSH1 0x0 PUSH1 0x20 DUP3 DUP5 SUB SLT ISZERO PUSH2 0x1F1D JUMPI PUSH1 0x0 DUP1 REVERT JUMPDEST PUSH2 0x317 DUP3 PUSH2 0x1BC6 JUMP JUMPDEST PUSH1 0x0 PUSH1 0x20 DUP3 DUP5 SUB SLT ISZERO PUSH2 0x1F38 JUMPI PUSH1 0x0 DUP1 REVERT JUMPDEST PUSH2 0x317 DUP3 PUSH2 0x1BDB JUMP JUMPDEST PUSH1 0x0 DUP1 DUP4 CALLDATALOAD PUSH32 0xFFFFFFFFFFFFFFFFFFFFFFFFFFFFFFFFFFFFFFFFFFFFFFFFFFFFFFFFFFFFFFE1 DUP5 CALLDATASIZE SUB ADD DUP2 SLT PUSH2 0x1F76 JUMPI PUSH1 0x0 DUP1 REVERT JUMPDEST DUP4 ADD DUP1 CALLDATALOAD SWAP2 POP PUSH8 0xFFFFFFFFFFFFFFFF DUP3 GT ISZERO PUSH2 0x1F91 JUMPI PUSH1 0x0 DUP1 REVERT JUMPDEST PUSH1 0x20 ADD SWAP2 POP CALLDATASIZE DUP2 SWAP1 SUB DUP3 SGT ISZERO PUSH2 0x18DF JUMPI PUSH1 0x0 DUP1 REVERT JUMPDEST PUSH32 0x4E487B7100000000000000000000000000000000000000000000000000000000 PUSH1 0x0 MSTORE PUSH1 0x11 PUSH1 0x4 MSTORE PUSH1 0x24 PUSH1 0x0 REVERT JUMPDEST PUSH1 0x0 PUSH32 0xFFFFFFFFFFFFFFFFFFFFFFFFFFFFFFFFFFFFFFFFFFFFFFFFFFFFFFFFFFFFFFFF DUP3 SUB PUSH2 0x2006 JUMPI PUSH2 0x2006 PUSH2 0x1FA6 JUMP JUMPDEST POP PUSH1 0x1 ADD SWAP1 JUMP JUMPDEST PUSH1 0x0 DUP1 DUP6 DUP6 GT ISZERO PUSH2 0x201D JUMPI PUSH1 0x0 DUP1 REVERT JUMPDEST DUP4 DUP7 GT ISZERO PUSH2 0x202A JUMPI PUSH1 0x0 DUP1 REVERT JUMPDEST POP POP DUP3 ADD SWAP4 SWAP2 SWAP1 SWAP3 SUB SWAP2 POP JUMP JUMPDEST DUP1 DUP3 ADD DUP1 DUP3 GT ISZERO PUSH2 0x2CB JUMPI PUSH2 0x2CB PUSH2 0x1FA6 JUMP JUMPDEST PUSH1 0x60 DUP2 MSTORE PUSH1 0x0 PUSH2 0x205E PUSH1 0x60 DUP4 ADD DUP7 DUP9 PUSH2 0x1BFF JUMP JUMPDEST PUSH1 0x20 DUP4 ADD SWAP5 SWAP1 SWAP5 MSTORE POP PUSH1 0x40 ADD MSTORE SWAP3 SWAP2 POP POP JUMP JUMPDEST DUP3 DUP2 MSTORE PUSH1 0x40 PUSH1 0x20 DUP3 ADD MSTORE PUSH1 0x0 PUSH2 0x37B PUSH1 0x40 DUP4 ADD DUP5 PUSH2 0x1E56 JUMP JUMPDEST DUP5 DUP2 MSTORE PUSH20 0xFFFFFFFFFFFFFFFFFFFFFFFFFFFFFFFFFFFFFFFF DUP5 AND PUSH1 0x20 DUP3 ADD MSTORE PUSH1 0x60 PUSH1 0x40 DUP3 ADD MSTORE PUSH1 0x0 PUSH2 0x20C0 PUSH1 0x60 DUP4 ADD DUP5 DUP7 PUSH2 0x1BFF JUMP JUMPDEST SWAP7 SWAP6 POP POP POP POP POP POP JUMP JUMPDEST PUSH1 0x20 DUP2 MSTORE PUSH1 0x0 PUSH2 0x37B PUSH1 0x20 DUP4 ADD DUP5 DUP7 PUSH2 0x1BFF JUMP JUMPDEST DUP2 DUP2 SUB DUP2 DUP2 GT ISZERO PUSH2 0x2CB JUMPI PUSH2 0x2CB PUSH2 0x1FA6 JUMP JUMPDEST PUSH1 0x40 DUP2 MSTORE PUSH1 0x0 PUSH2 0x2105 PUSH1 0x40 DUP4 ADD DUP6 DUP8 PUSH2 0x1BFF JUMP JUMPDEST SWAP1 POP DUP3 PUSH1 0x20 DUP4 ADD MSTORE SWAP5 SWAP4 POP POP POP POP JUMP JUMPDEST PUSH1 0x40 DUP2 MSTORE PUSH1 0x0 PUSH2 0x2129 PUSH1 0x40 DUP4 ADD DUP6 DUP8 PUSH2 0x1BFF JUMP JUMPDEST SWAP1 POP PUSH1 0xFF DUP4 AND PUSH1 0x20 DUP4 ADD MSTORE SWAP5 SWAP4 POP POP POP POP JUMP JUMPDEST PUSH1 0x60 DUP2 MSTORE PUSH1 0x0 PUSH2 0x2150 PUSH1 0x60 DUP4 ADD DUP7 DUP9 PUSH2 0x1BFF JUMP JUMPDEST PUSH1 0x20 DUP4 ADD SWAP5 SWAP1 SWAP5 MSTORE POP SWAP1 ISZERO ISZERO PUSH1 0x40 SWAP1 SWAP2 ADD MSTORE SWAP3 SWAP2 POP POP JUMP JUMPDEST DUP4 DUP2 MSTORE PUSH1 0x40 PUSH1 0x20 DUP3 ADD MSTORE PUSH1 0x0 PUSH2 0x2182 PUSH1 0x40 DUP4 ADD DUP5 DUP7 PUSH2 0x1BFF JUMP JUMPDEST SWAP6 SWAP5 POP POP POP POP POP JUMP JUMPDEST PUSH1 0x0 PUSH1 0x20 DUP3 DUP5 SUB SLT ISZERO PUSH2 0x219D JUMPI PUSH1 0x0 DUP1 REVERT JUMPDEST DUP2 MLOAD PUSH2 0x317 DUP2 PUSH2 0x1852 JUMP INVALID LOG2 PUSH5 0x6970667358 0x22 SLT KECCAK256 SWAP12 0xB9 0x5D XOR 0xE9 PUSH32 0x278AA47E0C04C20D5A6AF9BDB6D473C6D4051192CD96FC17866864736F6C6343 STOP ADDMOD SLT STOP CALLER "
		},
		"gasEstimates": {
			"creation": {
				"codeDepositCost": "1734000",
				"executionCost": "infinite",
				"totalCost": "infinite"
			},
			"external": {
				"SET_IMAGE_HASH_TYPE_HASH()": "262",
				"createContract(bytes)": "infinite",
				"execute((bool,bool,uint256,address,uint256,bytes)[],uint256,bytes)": "infinite",
				"isValidSignature(bytes,bytes)": "infinite",
				"isValidSignature(bytes32,bytes)": "infinite",
				"nonce()": "2645",
				"readNonce(uint256)": "2640",
				"selfExecute((bool,bool,uint256,address,uint256,bytes)[])": "infinite",
				"signatureRecovery(bytes32,bytes)": "infinite",
				"supportsInterface(bytes4)": "infinite",
				"updateImageHash(bytes32)": "357"
			},
			"internal": {
				"_executeGuest(bytes32,struct IModuleCalls.Transaction calldata[] calldata)": "infinite",
				"_isValidImage(bytes32)": "infinite",
				"_updateImageHash(bytes32)": "infinite"
			}
		},
		"methodIdentifiers": {
			"SET_IMAGE_HASH_TYPE_HASH()": "57c56d6b",
			"createContract(bytes)": "90042baf",
			"execute((bool,bool,uint256,address,uint256,bytes)[],uint256,bytes)": "7a9a1628",
			"isValidSignature(bytes,bytes)": "20c13b0b",
			"isValidSignature(bytes32,bytes)": "1626ba7e",
			"nonce()": "affed0e0",
			"readNonce(uint256)": "8c3f5563",
			"selfExecute((bool,bool,uint256,address,uint256,bytes)[])": "61c2926c",
			"signatureRecovery(bytes32,bytes)": "853c5068",
			"supportsInterface(bytes4)": "01ffc9a7",
			"updateImageHash(bytes32)": "29561426"
		}
	},
	"abi": [
		{
			"inputs": [
				{
					"internalType": "uint256",
					"name": "_space",
					"type": "uint256"
				},
				{
					"internalType": "uint256",
					"name": "_provided",
					"type": "uint256"
				},
				{
					"internalType": "uint256",
					"name": "_current",
					"type": "uint256"
				}
			],
			"name": "BadNonce",
			"type": "error"
		},
		{
			"inputs": [
				{
					"internalType": "bytes",
					"name": "_code",
					"type": "bytes"
				}
			],
			"name": "CreateFailed",
			"type": "error"
		},
		{
			"inputs": [
				{
					"internalType": "uint256",
					"name": "_index",
					"type": "uint256"
				}
			],
			"name": "DelegateCallNotAllowed",
			"type": "error"
		},
		{
			"inputs": [],
			"name": "EmptySignature",
			"type": "error"
		},
		{
			"inputs": [],
			"name": "ImageHashIsZero",
			"type": "error"
		},
		{
			"inputs": [
				{
					"internalType": "bytes32",
					"name": "_hash",
					"type": "bytes32"
				},
				{
					"internalType": "address",
					"name": "_addr",
					"type": "address"
				},
				{
					"internalType": "bytes",
					"name": "_signature",
					"type": "bytes"
				}
			],
			"name": "InvalidNestedSignature",
			"type": "error"
		},
		{
			"inputs": [
				{
					"internalType": "bytes",
					"name": "_signature",
					"type": "bytes"
				},
				{
					"internalType": "bytes32",
					"name": "_s",
					"type": "bytes32"
				}
			],
			"name": "InvalidSValue",
			"type": "error"
		},
		{
			"inputs": [
				{
					"internalType": "bytes32",
					"name": "_hash",
					"type": "bytes32"
				},
				{
					"internalType": "bytes",
					"name": "_signature",
					"type": "bytes"
				}
			],
			"name": "InvalidSignature",
			"type": "error"
		},
		{
			"inputs": [
				{
					"internalType": "uint256",
					"name": "_flag",
					"type": "uint256"
				}
			],
			"name": "InvalidSignatureFlag",
			"type": "error"
		},
		{
			"inputs": [
				{
					"internalType": "bytes",
					"name": "_signature",
					"type": "bytes"
				}
			],
			"name": "InvalidSignatureLength",
			"type": "error"
		},
		{
			"inputs": [
				{
					"internalType": "bytes1",
					"name": "_type",
					"type": "bytes1"
				}
			],
			"name": "InvalidSignatureType",
			"type": "error"
		},
		{
			"inputs": [
				{
					"internalType": "bytes",
					"name": "_signature",
					"type": "bytes"
				},
				{
					"internalType": "uint256",
					"name": "_v",
					"type": "uint256"
				}
			],
			"name": "InvalidVValue",
			"type": "error"
		},
		{
			"inputs": [
				{
					"internalType": "bytes",
					"name": "_signature",
					"type": "bytes"
				},
				{
					"internalType": "uint256",
					"name": "threshold",
					"type": "uint256"
				},
				{
					"internalType": "uint256",
					"name": "_weight",
					"type": "uint256"
				}
			],
			"name": "LowWeightChainedSignature",
			"type": "error"
		},
		{
			"inputs": [
				{
					"internalType": "uint256",
					"name": "_index",
					"type": "uint256"
				},
				{
					"internalType": "uint256",
					"name": "_requested",
					"type": "uint256"
				},
				{
					"internalType": "uint256",
					"name": "_available",
					"type": "uint256"
				}
			],
			"name": "NotEnoughGas",
			"type": "error"
		},
		{
			"inputs": [],
			"name": "NotSupported",
			"type": "error"
		},
		{
			"inputs": [],
			"name": "OnlyDelegatecall",
			"type": "error"
		},
		{
			"inputs": [
				{
					"internalType": "address",
					"name": "_sender",
					"type": "address"
				},
				{
					"internalType": "address",
					"name": "_self",
					"type": "address"
				}
			],
			"name": "OnlySelfAuth",
			"type": "error"
		},
		{
			"inputs": [
				{
					"internalType": "bytes",
					"name": "_signature",
					"type": "bytes"
				}
			],
			"name": "SignerIsAddress0",
			"type": "error"
		},
		{
			"inputs": [
				{
					"internalType": "bytes",
					"name": "_signature",
					"type": "bytes"
				},
				{
					"internalType": "uint256",
					"name": "_type",
					"type": "uint256"
				},
				{
					"internalType": "bool",
					"name": "_recoverMode",
					"type": "bool"
				}
			],
			"name": "UnsupportedSignatureType",
			"type": "error"
		},
		{
			"inputs": [
				{
					"internalType": "uint256",
					"name": "_current",
					"type": "uint256"
				},
				{
					"internalType": "uint256",
					"name": "_prev",
					"type": "uint256"
				}
			],
			"name": "WrongChainedCheckpointOrder",
			"type": "error"
		},
		{
			"anonymous": false,
			"inputs": [
				{
					"indexed": false,
					"internalType": "address",
					"name": "_contract",
					"type": "address"
				}
			],
			"name": "CreatedContract",
			"type": "event"
		},
		{
			"anonymous": false,
			"inputs": [
				{
					"indexed": false,
					"internalType": "bytes32",
					"name": "newImageHash",
					"type": "bytes32"
				}
			],
			"name": "ImageHashUpdated",
			"type": "event"
		},
		{
			"anonymous": false,
			"inputs": [
				{
					"indexed": false,
					"internalType": "uint256",
					"name": "_space",
					"type": "uint256"
				},
				{
					"indexed": false,
					"internalType": "uint256",
					"name": "_newNonce",
					"type": "uint256"
				}
			],
			"name": "NonceChange",
			"type": "event"
		},
		{
			"anonymous": false,
			"inputs": [
				{
					"indexed": true,
					"internalType": "bytes32",
					"name": "_tx",
					"type": "bytes32"
				},
				{
					"indexed": false,
					"internalType": "uint256",
					"name": "_index",
					"type": "uint256"
				}
			],
			"name": "TxExecuted",
			"type": "event"
		},
		{
			"anonymous": false,
			"inputs": [
				{
					"indexed": true,
					"internalType": "bytes32",
					"name": "_tx",
					"type": "bytes32"
				},
				{
					"indexed": false,
					"internalType": "uint256",
					"name": "_index",
					"type": "uint256"
				},
				{
					"indexed": false,
					"internalType": "bytes",
					"name": "_reason",
					"type": "bytes"
				}
			],
			"name": "TxFailed",
			"type": "event"
		},
		{
			"inputs": [],
			"name": "SET_IMAGE_HASH_TYPE_HASH",
			"outputs": [
				{
					"internalType": "bytes32",
					"name": "",
					"type": "bytes32"
				}
			],
			"stateMutability": "view",
			"type": "function"
		},
		{
			"inputs": [
				{
					"internalType": "bytes",
					"name": "_code",
					"type": "bytes"
				}
			],
			"name": "createContract",
			"outputs": [
				{
					"internalType": "address",
					"name": "addr",
					"type": "address"
				}
			],
			"stateMutability": "payable",
			"type": "function"
		},
		{
			"inputs": [
				{
					"components": [
						{
							"internalType": "bool",
							"name": "delegateCall",
							"type": "bool"
						},
						{
							"internalType": "bool",
							"name": "revertOnError",
							"type": "bool"
						},
						{
							"internalType": "uint256",
							"name": "gasLimit",
							"type": "uint256"
						},
						{
							"internalType": "address",
							"name": "target",
							"type": "address"
						},
						{
							"internalType": "uint256",
							"name": "value",
							"type": "uint256"
						},
						{
							"internalType": "bytes",
							"name": "data",
							"type": "bytes"
						}
					],
					"internalType": "struct IModuleCalls.Transaction[]",
					"name": "_txs",
					"type": "tuple[]"
				},
				{
					"internalType": "uint256",
					"name": "",
					"type": "uint256"
				},
				{
					"internalType": "bytes",
					"name": "",
					"type": "bytes"
				}
			],
			"name": "execute",
			"outputs": [],
			"stateMutability": "nonpayable",
			"type": "function"
		},
		{
			"inputs": [
				{
					"internalType": "bytes32",
					"name": "_hash",
					"type": "bytes32"
				},
				{
					"internalType": "bytes",
					"name": "_signatures",
					"type": "bytes"
				}
			],
			"name": "isValidSignature",
			"outputs": [
				{
					"internalType": "bytes4",
					"name": "",
					"type": "bytes4"
				}
			],
			"stateMutability": "view",
			"type": "function"
		},
		{
			"inputs": [
				{
					"internalType": "bytes",
					"name": "_data",
					"type": "bytes"
				},
				{
					"internalType": "bytes",
					"name": "_signatures",
					"type": "bytes"
				}
			],
			"name": "isValidSignature",
			"outputs": [
				{
					"internalType": "bytes4",
					"name": "",
					"type": "bytes4"
				}
			],
			"stateMutability": "view",
			"type": "function"
		},
		{
			"inputs": [],
			"name": "nonce",
			"outputs": [
				{
					"internalType": "uint256",
					"name": "",
					"type": "uint256"
				}
			],
			"stateMutability": "view",
			"type": "function"
		},
		{
			"inputs": [
				{
					"internalType": "uint256",
					"name": "_space",
					"type": "uint256"
				}
			],
			"name": "readNonce",
			"outputs": [
				{
					"internalType": "uint256",
					"name": "",
					"type": "uint256"
				}
			],
			"stateMutability": "view",
			"type": "function"
		},
		{
			"inputs": [
				{
					"components": [
						{
							"internalType": "bool",
							"name": "delegateCall",
							"type": "bool"
						},
						{
							"internalType": "bool",
							"name": "revertOnError",
							"type": "bool"
						},
						{
							"internalType": "uint256",
							"name": "gasLimit",
							"type": "uint256"
						},
						{
							"internalType": "address",
							"name": "target",
							"type": "address"
						},
						{
							"internalType": "uint256",
							"name": "value",
							"type": "uint256"
						},
						{
							"internalType": "bytes",
							"name": "data",
							"type": "bytes"
						}
					],
					"internalType": "struct IModuleCalls.Transaction[]",
					"name": "_txs",
					"type": "tuple[]"
				}
			],
			"name": "selfExecute",
			"outputs": [],
			"stateMutability": "nonpayable",
			"type": "function"
		},
		{
			"inputs": [
				{
					"internalType": "bytes32",
					"name": "_digest",
					"type": "bytes32"
				},
				{
					"internalType": "bytes",
					"name": "_signature",
					"type": "bytes"
				}
			],
			"name": "signatureRecovery",
			"outputs": [
				{
					"internalType": "uint256",
					"name": "threshold",
					"type": "uint256"
				},
				{
					"internalType": "uint256",
					"name": "weight",
					"type": "uint256"
				},
				{
					"internalType": "bytes32",
					"name": "imageHash",
					"type": "bytes32"
				},
				{
					"internalType": "bytes32",
					"name": "subdigest",
					"type": "bytes32"
				},
				{
					"internalType": "uint256",
					"name": "checkpoint",
					"type": "uint256"
				}
			],
			"stateMutability": "view",
			"type": "function"
		},
		{
			"inputs": [
				{
					"internalType": "bytes4",
					"name": "_interfaceID",
					"type": "bytes4"
				}
			],
			"name": "supportsInterface",
			"outputs": [
				{
					"internalType": "bool",
					"name": "",
					"type": "bool"
				}
			],
			"stateMutability": "pure",
			"type": "function"
		},
		{
			"inputs": [
				{
					"internalType": "bytes32",
					"name": "_imageHash",
					"type": "bytes32"
				}
			],
			"name": "updateImageHash",
			"outputs": [],
			"stateMutability": "nonpayable",
			"type": "function"
		}
	]
}