{
	"data": {
		"bytecode": {
			"linkReferences": {},
			"object": "60a060405234801561001057600080fd5b5030608052608051611a8361002d60003960005050611a836000f3fe60806040526004361061009c5760003560e01c806361c2926c1161006457806361c2926c146101935780637a9a1628146101b3578063853c5068146101d35780638c3f55631461021b57806390042baf1461023b578063affed0e01461026657600080fd5b806301ffc9a7146100a15780631626ba7e146100d657806320c13b0b1461010f578063295614261461012f57806357c56d6b14610151575b600080fd5b3480156100ad57600080fd5b506100c16100bc366004611282565b61027b565b60405190151581526020015b60405180910390f35b3480156100e257600080fd5b506100f66100f13660046112e8565b61028c565b6040516001600160e01b031990911681526020016100cd565b34801561011b57600080fd5b506100f661012a366004611334565b6102c0565b34801561013b57600080fd5b5061014f61014a3660046113a0565b61030c565b005b34801561015d57600080fd5b506101857f8713a7c4465f6fbee2b6e9d6646d1d9f83fec929edfc4baf661f3c865bdd04d181565b6040519081526020016100cd565b34801561019f57600080fd5b5061014f6101ae3660046113fe565b610345565b3480156101bf57600080fd5b5061014f6101ce366004611440565b61038a565b3480156101df57600080fd5b506101f36101ee3660046112e8565b6103b7565b604080519586526020860194909452928401919091526060830152608082015260a0016100cd565b34801561022757600080fd5b506101856102363660046113a0565b6104b6565b61024e6102493660046114d0565b6104e2565b6040516001600160a01b0390911681526020016100cd565b34801561027257600080fd5b50610185610580565b600061028682610591565b92915050565b60008061029a8585856105bc565b50905080156102b35750630b135d3f60e11b90506102b9565b50600090505b9392505050565b6000806102e586866040516102d6929190611581565b604051809103902085856105bc565b50905080156102fe57506320c13b0b60e01b9050610304565b50600090505b949350505050565b33301461033957604051633849622560e21b81523360048201523060248201526044015b60405180910390fd5b610342816105f4565b50565b6000610378838360405160200161035d9291906116ec565b6040516020818303038152906040528051906020012061060d565b9050610385818484610641565b505050565b60006103a2868660405160200161035d92919061171c565b90506103af818787610641565b505050505050565b600080600080600080878760008181106103d3576103d361174d565b909101356001600160f81b0319169150819050610411576103f38961060d565b925061040083898961079c565b929850909650945091506104ab9050565b6001600160f81b0319818116016104385761042b8961060d565b92506104008389896107ed565b607f60f91b6001600160f81b03198216016104565761042b89610819565b60fd60f81b6001600160f81b031982160161048657610476898989610830565b95509550955095509550506104ab565b604051633042e6c160e11b81526001600160f81b031982166004820152602401610330565b939792965093509350565b60006102867f8d0bf1fd623d628c741362c1289948e57b3e2905218c676d3e69abee36d6ae2e83610962565b600033301461050c57604051633849622560e21b8152336004820152306024820152604401610330565b81516020830134f090506001600160a01b03811661053f5781604051630d25719160e01b815260040161033091906117a9565b6040516001600160a01b03821681527fa506ad4e7f05eceba62a023c3219e5bd98a615f4fa87e2afb08a2da5cf62bf0c9060200160405180910390a1919050565b600061058c60006104b6565b905090565b6000636ffbd45160e01b6001600160e01b03198316016105b357506001919050565b610286826109a2565b60008060008060006105cf8888886103b7565b509650919450925090508282108015906105e7575060015b9450505050935093915050565b604051630280e1e560e61b815260040160405180910390fd5b6000463083604051602001610624939291906117bc565b604051602081830303815290604052805190602001209050919050565b8060005b8181101561079557368484838181106106605761066061174d565b905060200281019061067291906117f1565b90506106816020820182611811565b156106a2576040516308c3473360e21b815260048101839052602401610330565b6040810135805a10156106dc5782815a6040516315d9f1dd60e11b8152600481019390935260248301919091526044820152606401610330565b60006107166106f1608085016060860161182c565b608085013584156107025784610704565b5a5b61071160a0880188611847565b6109cd565b9050801561075d57877f5c4eeb02dabf8976016ab414d617f9a162936dcace3cdef8c69ef6e262ad5ae78560405161075091815260200190565b60405180910390a261077f565b61077f6107706040850160208601611811565b898661077a6109ea565b610a09565b505050808061078d906118a4565b915050610645565b5050505050565b60008080806107b7876107b2876006818b6118bd565b610a57565b6000908152873560f01c6020818152604080842084526002909a013560e01c908190529890912090999198509695509350505050565b600080808061080887610803876001818b6118bd565b61079c565b935093509350935093509350935093565b6000803083604051602001610624939291906117bc565b6000808080806004600188013560e81c8261084b83836118e7565b905061085d8b6101ee83868d8f6118bd565b939b509199509750955093508787101561089c5761087d81848b8d6118bd565b8989604051630580355d60e51b815260040161033094939291906118fa565b8092505b888310156109545760038301928a013560e81c91506108bf83836118e7565b905060006108e16108cf88610e0e565b8c8c879086926101ee939291906118bd565b939c50919a50985090915050888810156109205761090182858c8e6118bd565b8a8a604051630580355d60e51b815260040161033094939291906118fa565b84811061094a576040516337daf62b60e01b81526004810182905260248101869052604401610330565b93509150816108a0565b505050939792965093509350565b6000808383604051602001610981929190918252602082015260400190565b60408051601f19818403018152919052805160209091012054949350505050565b6000633929deef60e21b6001600160e01b03198316016109c457506001919050565b61028682610e42565b6000604051828482376000808483898b8af1979650505050505050565b60603d604051915060208201818101604052818352816000823e505090565b8315610a1757805160208201fd5b827fab46c69f7f32e1bf09b0725853da82a211e5402a0600296ab499a2fb5ea3b4198383604051610a49929190611921565b60405180910390a250505050565b60008060005b83811015610e0557600181019085013560f81c6000198101610ac657601582019186013560f881901c9060581c6001600160a01b03166000610a9f8284610e99565b905085610aac5780610abb565b60008681526020829052604090205b955050505050610a5d565b80610b365760018201918681013560f81c906043016000610af28a610aed84888c8e6118bd565b610eb9565b90508194508260ff16870196506000610b0e828560ff16610e99565b905086610b1b5780610b2a565b60008781526020829052604090205b96505050505050610a5d565b60028103610c14576000808784013560f881901c9060581c6001600160a01b0316601586019550909250905060008885013560e81c600386018162ffffff169150809650819250505060008186019050610ba28b848c8c8a908692610b9d939291906118bd565b6110d4565b610bd1578a83610bb483898d8f6118bd565b604051634d4a311960e11b8152600401610330949392919061193a565b8095508360ff16880197506000610beb848660ff16610e99565b905087610bf85780610c07565b60008881526020829052604090205b9750505050505050610a5d565b60038103610c4757602082019186013583610c2f5780610c3e565b60008481526020829052604090205b93505050610a5d565b60048103610c93576003808301928781013560e81c9190820101600080610c748b6107b285898d8f6118bd565b60009889526020526040909720969097019650909350610a5d92505050565b60068103610d9b5760008287013560f81c60018401935060ff16905060008784013560f01c60028501945061ffff16905060008885013560e81c600386018162ffffff169150809650819250505060008186019050600080610d018d8d8d8b9087926107b2939291906118bd565b93985088939092509050848210610d1757988501985b604080517f53657175656e6365206e657374656420636f6e6669673a0a0000000000000000602080830191909152603882018490526058820188905260788083018a9052835180840390910181526098909201909252805191012089610d7d5780610d8c565b60008a81526020829052604090205b99505050505050505050610a5d565b60058103610de9576020820191860135878103610db85760001994505b6000610dc382611231565b905084610dd05780610ddf565b60008581526020829052604090205b9450505050610a5d565b604051632c9417df60e21b815260048101829052602401610330565b50935093915050565b7f8713a7c4465f6fbee2b6e9d6646d1d9f83fec929edfc4baf661f3c865bdd04d16000908152602082905260408120610286565b60006001600160e01b03198216635635222760e11b1480610e7357506001600160e01b031982166336e7817560e01b145b15610e8057506001919050565b6301ffc9a760e01b6001600160e01b0319831614610286565b6001600160a01b031960a082901b166001600160a01b0383161792915050565b600060428214610ee0578282604051632ee17a3d60e01b815260040161033092919061196f565b6000610ef9610ef0600185611983565b85013560f81c90565b60ff169050604084013560f81c843560208601357f7fffffffffffffffffffffffffffffff5d576e7357a4501ddfe92f46681b20a0811115610f54578686826040516356a5563b60e11b815260040161033093929190611996565b8260ff16601b14158015610f6c57508260ff16601c14155b15610f90578686846040516372bc44bf60e11b8152600401610330939291906119ba565b60018403610ffd576040805160008152602081018083528a905260ff851691810191909152606081018390526080810182905260019060a0015b6020604051602081039080840390855afa158015610fec573d6000803e3d6000fd5b50505060206040510351945061109e565b6002840361107c576040517f19457468657265756d205369676e6564204d6573736167653a0a3332000000006020820152603c8101899052600190605c0160408051601f198184030181528282528051602091820120600084529083018083525260ff861690820152606081018490526080810183905260a001610fca565b8686856001604051634efdd42960e11b815260040161033094939291906119e1565b6001600160a01b0385166110c957868660405163360b8ce960e11b815260040161033092919061196f565b505050509392505050565b60008181036110f65760405163ac241e1160e01b815260040160405180910390fd5b60008383611105600182611983565b8181106111145761111461174d565b919091013560f81c915050600181148061112e5750600281145b1561115957846001600160a01b0316611148878686610eb9565b6001600160a01b0316149150611228565b60038103611206576001600160a01b038516631626ba7e8786600087611180600182611983565b9261118d939291906118bd565b6040518463ffffffff1660e01b81526004016111ab93929190611a0d565b602060405180830381865afa1580156111c8573d6000803e3d6000fd5b505050506040513d601f19601f820116820180604052508101906111ec9190611a30565b6001600160e01b031916630b135d3f60e11b149150611228565b8383826000604051634efdd42960e11b815260040161033094939291906119e1565b50949350505050565b6040517f53657175656e636520737461746963206469676573743a0a0000000000000000602082015260388101829052600090605801610624565b6001600160e01b03198116811461034257600080fd5b60006020828403121561129457600080fd5b81356102b98161126c565b60008083601f8401126112b157600080fd5b50813567ffffffffffffffff8111156112c957600080fd5b6020830191508360208285010111156112e157600080fd5b9250929050565b6000806000604084860312156112fd57600080fd5b83359250602084013567ffffffffffffffff81111561131b57600080fd5b6113278682870161129f565b9497909650939450505050565b6000806000806040858703121561134a57600080fd5b843567ffffffffffffffff8082111561136257600080fd5b61136e8883890161129f565b9096509450602087013591508082111561138757600080fd5b506113948782880161129f565b95989497509550505050565b6000602082840312156113b257600080fd5b5035919050565b60008083601f8401126113cb57600080fd5b50813567ffffffffffffffff8111156113e357600080fd5b6020830191508360208260051b85010111156112e157600080fd5b6000806020838503121561141157600080fd5b823567ffffffffffffffff81111561142857600080fd5b611434858286016113b9565b90969095509350505050565b60008060008060006060868803121561145857600080fd5b853567ffffffffffffffff8082111561147057600080fd5b61147c89838a016113b9565b909750955060208801359450604088013591508082111561149c57600080fd5b506114a98882890161129f565b969995985093965092949392505050565b634e487b7160e01b600052604160045260246000fd5b6000602082840312156114e257600080fd5b813567ffffffffffffffff808211156114fa57600080fd5b818401915084601f83011261150e57600080fd5b813581811115611520576115206114ba565b604051601f8201601f19908116603f01168101908382118183101715611548576115486114ba565b8160405282815287602084870101111561156157600080fd5b826020860160208301376000928101602001929092525095945050505050565b8183823760009101908152919050565b803580151581146115a157600080fd5b919050565b80356001600160a01b03811681146115a157600080fd5b81835281816020850137506000828201602090810191909152601f909101601f19169091010190565b81835260006020808501808196508560051b810191508460005b878110156116df578284038952813560be1988360301811261162157600080fd5b870160c061162e82611591565b1515865261163d878301611591565b1515868801526040828101359087015260606001600160a01b036116628285016115a6565b16908701526080828101359087015260a08083013536849003601e1901811261168a57600080fd5b90920187810192903567ffffffffffffffff8111156116a857600080fd5b8036038413156116b757600080fd5b82828901526116c983890182866115bd565b9c89019c97505050928601925050600101611600565b5091979650505050505050565b60408152600560408201526439b2b6331d60d91b60608201526080602082015260006103046080830184866115e6565b60408152600660408201526533bab2b9ba1d60d11b60608201526080602082015260006103046080830184866115e6565b634e487b7160e01b600052603260045260246000fd5b6000815180845260005b818110156117895760208185018101518683018201520161176d565b506000602082860101526020601f19601f83011685010191505092915050565b6020815260006102b96020830184611763565b61190160f01b8152600281019390935260609190911b6bffffffffffffffffffffffff19166022830152603682015260560190565b6000823560be1983360301811261180757600080fd5b9190910192915050565b60006020828403121561182357600080fd5b6102b982611591565b60006020828403121561183e57600080fd5b6102b9826115a6565b6000808335601e1984360301811261185e57600080fd5b83018035915067ffffffffffffffff82111561187957600080fd5b6020019150368190038213156112e157600080fd5b634e487b7160e01b600052601160045260246000fd5b6000600182016118b6576118b661188e565b5060010190565b600080858511156118cd57600080fd5b838611156118da57600080fd5b5050820193919092039150565b808201808211156102865761028661188e565b60608152600061190e6060830186886115bd565b6020830194909452506040015292915050565b8281526040602082015260006103046040830184611763565b8481526001600160a01b038416602082015260606040820181905260009061196590830184866115bd565b9695505050505050565b6020815260006103046020830184866115bd565b818103818111156102865761028661188e565b6040815260006119aa6040830185876115bd565b9050826020830152949350505050565b6040815260006119ce6040830185876115bd565b905060ff83166020830152949350505050565b6060815260006119f56060830186886115bd565b60208301949094525090151560409091015292915050565b838152604060208201526000611a276040830184866115bd565b95945050505050565b600060208284031215611a4257600080fd5b81516102b98161126c56fea264697066735822122010e2c059f9a9e2f89a7c1457afea3b456af4b8e09fc9fc5f1f342597d6384dc264736f6c63430008120033",
			"opcodes": "PUSH1 0xA0 PUSH1 0x40 MSTORE CALLVALUE DUP1 ISZERO PUSH2 0x10 JUMPI PUSH1 0x0 DUP1 REVERT JUMPDEST POP ADDRESS PUSH1 0x80 MSTORE PUSH1 0x80 MLOAD PUSH2 0x1A83 PUSH2 0x2D PUSH1 0x0 CODECOPY PUSH1 0x0 POP POP PUSH2 0x1A83 PUSH1 0x0 RETURN INVALID PUSH1 0x80 PUSH1 0x40 MSTORE PUSH1 0x4 CALLDATASIZE LT PUSH2 0x9C JUMPI PUSH1 0x0 CALLDATALOAD PUSH1 0xE0 SHR DUP1 PUSH4 0x61C2926C GT PUSH2 0x64 JUMPI DUP1 PUSH4 0x61C2926C EQ PUSH2 0x193 JUMPI DUP1 PUSH4 0x7A9A1628 EQ PUSH2 0x1B3 JUMPI DUP1 PUSH4 0x853C5068 EQ PUSH2 0x1D3 JUMPI DUP1 PUSH4 0x8C3F5563 EQ PUSH2 0x21B JUMPI DUP1 PUSH4 0x90042BAF EQ PUSH2 0x23B JUMPI DUP1 PUSH4 0xAFFED0E0 EQ PUSH2 0x266 JUMPI PUSH1 0x0 DUP1 REVERT JUMPDEST DUP1 PUSH4 0x1FFC9A7 EQ PUSH2 0xA1 JUMPI DUP1 PUSH4 0x1626BA7E EQ PUSH2 0xD6 JUMPI DUP1 PUSH4 0x20C13B0B EQ PUSH2 0x10F JUMPI DUP1 PUSH4 0x29561426 EQ PUSH2 0x12F JUMPI DUP1 PUSH4 0x57C56D6B EQ PUSH2 0x151 JUMPI JUMPDEST PUSH1 0x0 DUP1 REVERT JUMPDEST CALLVALUE DUP1 ISZERO PUSH2 0xAD JUMPI PUSH1 0x0 DUP1 REVERT JUMPDEST POP PUSH2 0xC1 PUSH2 0xBC CALLDATASIZE PUSH1 0x4 PUSH2 0x1282 JUMP JUMPDEST PUSH2 0x27B JUMP JUMPDEST PUSH1 0x40 MLOAD SWAP1 ISZERO ISZERO DUP2 MSTORE PUSH1 0x20 ADD JUMPDEST PUSH1 0x40 MLOAD DUP1 SWAP2 SUB SWAP1 RETURN JUMPDEST CALLVALUE DUP1 ISZERO PUSH2 0xE2 JUMPI PUSH1 0x0 DUP1 REVERT JUMPDEST POP PUSH2 0xF6 PUSH2 0xF1 CALLDATASIZE PUSH1 0x4 PUSH2 0x12E8 JUMP JUMPDEST PUSH2 0x28C JUMP JUMPDEST PUSH1 0x40 MLOAD PUSH1 0x1 PUSH1 0x1 PUSH1 0xE0 SHL SUB NOT SWAP1 SWAP2 AND DUP2 MSTORE PUSH1 0x20 ADD PUSH2 0xCD JUMP JUMPDEST CALLVALUE DUP1 ISZERO PUSH2 0x11B JUMPI PUSH1 0x0 DUP1 REVERT JUMPDEST POP PUSH2 0xF6 PUSH2 0x12A CALLDATASIZE PUSH1 0x4 PUSH2 0x1334 JUMP JUMPDEST PUSH2 0x2C0 JUMP JUMPDEST CALLVALUE DUP1 ISZERO PUSH2 0x13B JUMPI PUSH1 0x0 DUP1 REVERT JUMPDEST POP PUSH2 0x14F PUSH2 0x14A CALLDATASIZE PUSH1 0x4 PUSH2 0x13A0 JUMP JUMPDEST PUSH2 0x30C JUMP JUMPDEST STOP JUMPDEST CALLVALUE DUP1 ISZERO PUSH2 0x15D JUMPI PUSH1 0x0 DUP1 REVERT JUMPDEST POP PUSH2 0x185 PUSH32 0x8713A7C4465F6FBEE2B6E9D6646D1D9F83FEC929EDFC4BAF661F3C865BDD04D1 DUP2 JUMP JUMPDEST PUSH1 0x40 MLOAD SWAP1 DUP2 MSTORE PUSH1 0x20 ADD PUSH2 0xCD JUMP JUMPDEST CALLVALUE DUP1 ISZERO PUSH2 0x19F JUMPI PUSH1 0x0 DUP1 REVERT JUMPDEST POP PUSH2 0x14F PUSH2 0x1AE CALLDATASIZE PUSH1 0x4 PUSH2 0x13FE JUMP JUMPDEST PUSH2 0x345 JUMP JUMPDEST CALLVALUE DUP1 ISZERO PUSH2 0x1BF JUMPI PUSH1 0x0 DUP1 REVERT JUMPDEST POP PUSH2 0x14F PUSH2 0x1CE CALLDATASIZE PUSH1 0x4 PUSH2 0x1440 JUMP JUMPDEST PUSH2 0x38A JUMP JUMPDEST CALLVALUE DUP1 ISZERO PUSH2 0x1DF JUMPI PUSH1 0x0 DUP1 REVERT JUMPDEST POP PUSH2 0x1F3 PUSH2 0x1EE CALLDATASIZE PUSH1 0x4 PUSH2 0x12E8 JUMP JUMPDEST PUSH2 0x3B7 JUMP JUMPDEST PUSH1 0x40 DUP1 MLOAD SWAP6 DUP7 MSTORE PUSH1 0x20 DUP7 ADD SWAP5 SWAP1 SWAP5 MSTORE SWAP3 DUP5 ADD SWAP2 SWAP1 SWAP2 MSTORE PUSH1 0x60 DUP4 ADD MSTORE PUSH1 0x80 DUP3 ADD MSTORE PUSH1 0xA0 ADD PUSH2 0xCD JUMP JUMPDEST CALLVALUE DUP1 ISZERO PUSH2 0x227 JUMPI PUSH1 0x0 DUP1 REVERT JUMPDEST POP PUSH2 0x185 PUSH2 0x236 CALLDATASIZE PUSH1 0x4 PUSH2 0x13A0 JUMP JUMPDEST PUSH2 0x4B6 JUMP JUMPDEST PUSH2 0x24E PUSH2 0x249 CALLDATASIZE PUSH1 0x4 PUSH2 0x14D0 JUMP JUMPDEST PUSH2 0x4E2 JUMP JUMPDEST PUSH1 0x40 MLOAD PUSH1 0x1 PUSH1 0x1 PUSH1 0xA0 SHL SUB SWAP1 SWAP2 AND DUP2 MSTORE PUSH1 0x20 ADD PUSH2 0xCD JUMP JUMPDEST CALLVALUE DUP1 ISZERO PUSH2 0x272 JUMPI PUSH1 0x0 DUP1 REVERT JUMPDEST POP PUSH2 0x185 PUSH2 0x580 JUMP JUMPDEST PUSH1 0x0 PUSH2 0x286 DUP3 PUSH2 0x591 JUMP JUMPDEST SWAP3 SWAP2 POP POP JUMP JUMPDEST PUSH1 0x0 DUP1 PUSH2 0x29A DUP6 DUP6 DUP6 PUSH2 0x5BC JUMP JUMPDEST POP SWAP1 POP DUP1 ISZERO PUSH2 0x2B3 JUMPI POP PUSH4 0xB135D3F PUSH1 0xE1 SHL SWAP1 POP PUSH2 0x2B9 JUMP JUMPDEST POP PUSH1 0x0 SWAP1 POP JUMPDEST SWAP4 SWAP3 POP POP POP JUMP JUMPDEST PUSH1 0x0 DUP1 PUSH2 0x2E5 DUP7 DUP7 PUSH1 0x40 MLOAD PUSH2 0x2D6 SWAP3 SWAP2 SWAP1 PUSH2 0x1581 JUMP JUMPDEST PUSH1 0x40 MLOAD DUP1 SWAP2 SUB SWAP1 KECCAK256 DUP6 DUP6 PUSH2 0x5BC JUMP JUMPDEST POP SWAP1 POP DUP1 ISZERO PUSH2 0x2FE JUMPI POP PUSH4 0x20C13B0B PUSH1 0xE0 SHL SWAP1 POP PUSH2 0x304 JUMP JUMPDEST POP PUSH1 0x0 SWAP1 POP JUMPDEST SWAP5 SWAP4 POP POP POP POP JUMP JUMPDEST CALLER ADDRESS EQ PUSH2 0x339 JUMPI PUSH1 0x40 MLOAD PUSH4 0x38496225 PUSH1 0xE2 SHL DUP2 MSTORE CALLER PUSH1 0x4 DUP3 ADD MSTORE ADDRESS PUSH1 0x24 DUP3 ADD MSTORE PUSH1 0x44 ADD JUMPDEST PUSH1 0x40 MLOAD DUP1 SWAP2 SUB SWAP1 REVERT JUMPDEST PUSH2 0x342 DUP2 PUSH2 0x5F4 JUMP JUMPDEST POP JUMP JUMPDEST PUSH1 0x0 PUSH2 0x378 DUP4 DUP4 PUSH1 0x40 MLOAD PUSH1 0x20 ADD PUSH2 0x35D SWAP3 SWAP2 SWAP1 PUSH2 0x16EC JUMP JUMPDEST PUSH1 0x40 MLOAD PUSH1 0x20 DUP2 DUP4 SUB SUB DUP2 MSTORE SWAP1 PUSH1 0x40 MSTORE DUP1 MLOAD SWAP1 PUSH1 0x20 ADD KECCAK256 PUSH2 0x60D JUMP JUMPDEST SWAP1 POP PUSH2 0x385 DUP2 DUP5 DUP5 PUSH2 0x641 JUMP JUMPDEST POP POP POP JUMP JUMPDEST PUSH1 0x0 PUSH2 0x3A2 DUP7 DUP7 PUSH1 0x40 MLOAD PUSH1 0x20 ADD PUSH2 0x35D SWAP3 SWAP2 SWAP1 PUSH2 0x171C JUMP JUMPDEST SWAP1 POP PUSH2 0x3AF DUP2 DUP8 DUP8 PUSH2 0x641 JUMP JUMPDEST POP POP POP POP POP POP JUMP JUMPDEST PUSH1 0x0 DUP1 PUSH1 0x0 DUP1 PUSH1 0x0 DUP1 DUP8 DUP8 PUSH1 0x0 DUP2 DUP2 LT PUSH2 0x3D3 JUMPI PUSH2 0x3D3 PUSH2 0x174D JUMP JUMPDEST SWAP1 SWAP2 ADD CALLDATALOAD PUSH1 0x1 PUSH1 0x1 PUSH1 0xF8 SHL SUB NOT AND SWAP2 POP DUP2 SWAP1 POP PUSH2 0x411 JUMPI PUSH2 0x3F3 DUP10 PUSH2 0x60D JUMP JUMPDEST SWAP3 POP PUSH2 0x400 DUP4 DUP10 DUP10 PUSH2 0x79C JUMP JUMPDEST SWAP3 SWAP9 POP SWAP1 SWAP7 POP SWAP5 POP SWAP2 POP PUSH2 0x4AB SWAP1 POP JUMP JUMPDEST PUSH1 0x1 PUSH1 0x1 PUSH1 0xF8 SHL SUB NOT DUP2 DUP2 AND ADD PUSH2 0x438 JUMPI PUSH2 0x42B DUP10 PUSH2 0x60D JUMP JUMPDEST SWAP3 POP PUSH2 0x400 DUP4 DUP10 DUP10 PUSH2 0x7ED JUMP JUMPDEST PUSH1 0x7F PUSH1 0xF9 SHL PUSH1 0x1 PUSH1 0x1 PUSH1 0xF8 SHL SUB NOT DUP3 AND ADD PUSH2 0x456 JUMPI PUSH2 0x42B DUP10 PUSH2 0x819 JUMP JUMPDEST PUSH1 0xFD PUSH1 0xF8 SHL PUSH1 0x1 PUSH1 0x1 PUSH1 0xF8 SHL SUB NOT DUP3 AND ADD PUSH2 0x486 JUMPI PUSH2 0x476 DUP10 DUP10 DUP10 PUSH2 0x830 JUMP JUMPDEST SWAP6 POP SWAP6 POP SWAP6 POP SWAP6 POP SWAP6 POP POP PUSH2 0x4AB JUMP JUMPDEST PUSH1 0x40 MLOAD PUSH4 0x3042E6C1 PUSH1 0xE1 SHL DUP2 MSTORE PUSH1 0x1 PUSH1 0x1 PUSH1 0xF8 SHL SUB NOT DUP3 AND PUSH1 0x4 DUP3 ADD MSTORE PUSH1 0x24 ADD PUSH2 0x330 JUMP JUMPDEST SWAP4 SWAP8 SWAP3 SWAP7 POP SWAP4 POP SWAP4 POP JUMP JUMPDEST PUSH1 0x0 PUSH2 0x286 PUSH32 0x8D0BF1FD623D628C741362C1289948E57B3E2905218C676D3E69ABEE36D6AE2E DUP4 PUSH2 0x962 JUMP JUMPDEST PUSH1 0x0 CALLER ADDRESS EQ PUSH2 0x50C JUMPI PUSH1 0x40 MLOAD PUSH4 0x38496225 PUSH1 0xE2 SHL DUP2 MSTORE CALLER PUSH1 0x4 DUP3 ADD MSTORE ADDRESS PUSH1 0x24 DUP3 ADD MSTORE PUSH1 0x44 ADD PUSH2 0x330 JUMP JUMPDEST DUP2 MLOAD PUSH1 0x20 DUP4 ADD CALLVALUE CREATE SWAP1 POP PUSH1 0x1 PUSH1 0x1 PUSH1 0xA0 SHL SUB DUP2 AND PUSH2 0x53F JUMPI DUP2 PUSH1 0x40 MLOAD PUSH4 0xD257191 PUSH1 0xE0 SHL DUP2 MSTORE PUSH1 0x4 ADD PUSH2 0x330 SWAP2 SWAP1 PUSH2 0x17A9 JUMP JUMPDEST PUSH1 0x40 MLOAD PUSH1 0x1 PUSH1 0x1 PUSH1 0xA0 SHL SUB DUP3 AND DUP2 MSTORE PUSH32 0xA506AD4E7F05ECEBA62A023C3219E5BD98A615F4FA87E2AFB08A2DA5CF62BF0C SWAP1 PUSH1 0x20 ADD PUSH1 0x40 MLOAD DUP1 SWAP2 SUB SWAP1 LOG1 SWAP2 SWAP1 POP JUMP JUMPDEST PUSH1 0x0 PUSH2 0x58C PUSH1 0x0 PUSH2 0x4B6 JUMP JUMPDEST SWAP1 POP SWAP1 JUMP JUMPDEST PUSH1 0x0 PUSH4 0x6FFBD451 PUSH1 0xE0 SHL PUSH1 0x1 PUSH1 0x1 PUSH1 0xE0 SHL SUB NOT DUP4 AND ADD PUSH2 0x5B3 JUMPI POP PUSH1 0x1 SWAP2 SWAP1 POP JUMP JUMPDEST PUSH2 0x286 DUP3 PUSH2 0x9A2 JUMP JUMPDEST PUSH1 0x0 DUP1 PUSH1 0x0 DUP1 PUSH1 0x0 PUSH2 0x5CF DUP9 DUP9 DUP9 PUSH2 0x3B7 JUMP JUMPDEST POP SWAP7 POP SWAP2 SWAP5 POP SWAP3 POP SWAP1 POP DUP3 DUP3 LT DUP1 ISZERO SWAP1 PUSH2 0x5E7 JUMPI POP PUSH1 0x1 JUMPDEST SWAP5 POP POP POP POP SWAP4 POP SWAP4 SWAP2 POP POP JUMP JUMPDEST PUSH1 0x40 MLOAD PUSH4 0x280E1E5 PUSH1 0xE6 SHL DUP2 MSTORE PUSH1 0x4 ADD PUSH1 0x40 MLOAD DUP1 SWAP2 SUB SWAP1 REVERT JUMPDEST PUSH1 0x0 CHAINID ADDRESS DUP4 PUSH1 0x40 MLOAD PUSH1 0x20 ADD PUSH2 0x624 SWAP4 SWAP3 SWAP2 SWAP1 PUSH2 0x17BC JUMP JUMPDEST PUSH1 0x40 MLOAD PUSH1 0x20 DUP2 DUP4 SUB SUB DUP2 MSTORE SWAP1 PUSH1 0x40 MSTORE DUP1 MLOAD SWAP1 PUSH1 0x20 ADD KECCAK256 SWAP1 POP SWAP2 SWAP1 POP JUMP JUMPDEST DUP1 PUSH1 0x0 JUMPDEST DUP2 DUP2 LT ISZERO PUSH2 0x795 JUMPI CALLDATASIZE DUP5 DUP5 DUP4 DUP2 DUP2 LT PUSH2 0x660 JUMPI PUSH2 0x660 PUSH2 0x174D JUMP JUMPDEST SWAP1 POP PUSH1 0x20 MUL DUP2 ADD SWAP1 PUSH2 0x672 SWAP2 SWAP1 PUSH2 0x17F1 JUMP JUMPDEST SWAP1 POP PUSH2 0x681 PUSH1 0x20 DUP3 ADD DUP3 PUSH2 0x1811 JUMP JUMPDEST ISZERO PUSH2 0x6A2 JUMPI PUSH1 0x40 MLOAD PUSH4 0x8C34733 PUSH1 0xE2 SHL DUP2 MSTORE PUSH1 0x4 DUP2 ADD DUP4 SWAP1 MSTORE PUSH1 0x24 ADD PUSH2 0x330 JUMP JUMPDEST PUSH1 0x40 DUP2 ADD CALLDATALOAD DUP1 GAS LT ISZERO PUSH2 0x6DC JUMPI DUP3 DUP2 GAS PUSH1 0x40 MLOAD PUSH4 0x15D9F1DD PUSH1 0xE1 SHL DUP2 MSTORE PUSH1 0x4 DUP2 ADD SWAP4 SWAP1 SWAP4 MSTORE PUSH1 0x24 DUP4 ADD SWAP2 SWAP1 SWAP2 MSTORE PUSH1 0x44 DUP3 ADD MSTORE PUSH1 0x64 ADD PUSH2 0x330 JUMP JUMPDEST PUSH1 0x0 PUSH2 0x716 PUSH2 0x6F1 PUSH1 0x80 DUP6 ADD PUSH1 0x60 DUP7 ADD PUSH2 0x182C JUMP JUMPDEST PUSH1 0x80 DUP6 ADD CALLDATALOAD DUP5 ISZERO PUSH2 0x702 JUMPI DUP5 PUSH2 0x704 JUMP JUMPDEST GAS JUMPDEST PUSH2 0x711 PUSH1 0xA0 DUP9 ADD DUP9 PUSH2 0x1847 JUMP JUMPDEST PUSH2 0x9CD JUMP JUMPDEST SWAP1 POP DUP1 ISZERO PUSH2 0x75D JUMPI DUP8 PUSH32 0x5C4EEB02DABF8976016AB414D617F9A162936DCACE3CDEF8C69EF6E262AD5AE7 DUP6 PUSH1 0x40 MLOAD PUSH2 0x750 SWAP2 DUP2 MSTORE PUSH1 0x20 ADD SWAP1 JUMP JUMPDEST PUSH1 0x40 MLOAD DUP1 SWAP2 SUB SWAP1 LOG2 PUSH2 0x77F JUMP JUMPDEST PUSH2 0x77F PUSH2 0x770 PUSH1 0x40 DUP6 ADD PUSH1 0x20 DUP7 ADD PUSH2 0x1811 JUMP JUMPDEST DUP10 DUP7 PUSH2 0x77A PUSH2 0x9EA JUMP JUMPDEST PUSH2 0xA09 JUMP JUMPDEST POP POP POP DUP1 DUP1 PUSH2 0x78D SWAP1 PUSH2 0x18A4 JUMP JUMPDEST SWAP2 POP POP PUSH2 0x645 JUMP JUMPDEST POP POP POP POP POP JUMP JUMPDEST PUSH1 0x0 DUP1 DUP1 DUP1 PUSH2 0x7B7 DUP8 PUSH2 0x7B2 DUP8 PUSH1 0x6 DUP2 DUP12 PUSH2 0x18BD JUMP JUMPDEST PUSH2 0xA57 JUMP JUMPDEST PUSH1 0x0 SWAP1 DUP2 MSTORE DUP8 CALLDATALOAD PUSH1 0xF0 SHR PUSH1 0x20 DUP2 DUP2 MSTORE PUSH1 0x40 DUP1 DUP5 KECCAK256 DUP5 MSTORE PUSH1 0x2 SWAP1 SWAP11 ADD CALLDATALOAD PUSH1 0xE0 SHR SWAP1 DUP2 SWAP1 MSTORE SWAP9 SWAP1 SWAP2 KECCAK256 SWAP1 SWAP10 SWAP2 SWAP9 POP SWAP7 SWAP6 POP SWAP4 POP POP POP POP JUMP JUMPDEST PUSH1 0x0 DUP1 DUP1 DUP1 PUSH2 0x808 DUP8 PUSH2 0x803 DUP8 PUSH1 0x1 DUP2 DUP12 PUSH2 0x18BD JUMP JUMPDEST PUSH2 0x79C JUMP JUMPDEST SWAP4 POP SWAP4 POP SWAP4 POP SWAP4 POP SWAP4 POP SWAP4 POP SWAP4 POP SWAP4 JUMP JUMPDEST PUSH1 0x0 DUP1 ADDRESS DUP4 PUSH1 0x40 MLOAD PUSH1 0x20 ADD PUSH2 0x624 SWAP4 SWAP3 SWAP2 SWAP1 PUSH2 0x17BC JUMP JUMPDEST PUSH1 0x0 DUP1 DUP1 DUP1 DUP1 PUSH1 0x4 PUSH1 0x1 DUP9 ADD CALLDATALOAD PUSH1 0xE8 SHR DUP3 PUSH2 0x84B DUP4 DUP4 PUSH2 0x18E7 JUMP JUMPDEST SWAP1 POP PUSH2 0x85D DUP12 PUSH2 0x1EE DUP4 DUP7 DUP14 DUP16 PUSH2 0x18BD JUMP JUMPDEST SWAP4 SWAP12 POP SWAP2 SWAP10 POP SWAP8 POP SWAP6 POP SWAP4 POP DUP8 DUP8 LT ISZERO PUSH2 0x89C JUMPI PUSH2 0x87D DUP2 DUP5 DUP12 DUP14 PUSH2 0x18BD JUMP JUMPDEST DUP10 DUP10 PUSH1 0x40 MLOAD PUSH4 0x580355D PUSH1 0xE5 SHL DUP2 MSTORE PUSH1 0x4 ADD PUSH2 0x330 SWAP5 SWAP4 SWAP3 SWAP2 SWAP1 PUSH2 0x18FA JUMP JUMPDEST DUP1 SWAP3 POP JUMPDEST DUP9 DUP4 LT ISZERO PUSH2 0x954 JUMPI PUSH1 0x3 DUP4 ADD SWAP3 DUP11 ADD CALLDATALOAD PUSH1 0xE8 SHR SWAP2 POP PUSH2 0x8BF DUP4 DUP4 PUSH2 0x18E7 JUMP JUMPDEST SWAP1 POP PUSH1 0x0 PUSH2 0x8E1 PUSH2 0x8CF DUP9 PUSH2 0xE0E JUMP JUMPDEST DUP13 DUP13 DUP8 SWAP1 DUP7 SWAP3 PUSH2 0x1EE SWAP4 SWAP3 SWAP2 SWAP1 PUSH2 0x18BD JUMP JUMPDEST SWAP4 SWAP13 POP SWAP2 SWAP11 POP SWAP9 POP SWAP1 SWAP2 POP POP DUP9 DUP9 LT ISZERO PUSH2 0x920 JUMPI PUSH2 0x901 DUP3 DUP6 DUP13 DUP15 PUSH2 0x18BD JUMP JUMPDEST DUP11 DUP11 PUSH1 0x40 MLOAD PUSH4 0x580355D PUSH1 0xE5 SHL DUP2 MSTORE PUSH1 0x4 ADD PUSH2 0x330 SWAP5 SWAP4 SWAP3 SWAP2 SWAP1 PUSH2 0x18FA JUMP JUMPDEST DUP5 DUP2 LT PUSH2 0x94A JUMPI PUSH1 0x40 MLOAD PUSH4 0x37DAF62B PUSH1 0xE0 SHL DUP2 MSTORE PUSH1 0x4 DUP2 ADD DUP3 SWAP1 MSTORE PUSH1 0x24 DUP2 ADD DUP7 SWAP1 MSTORE PUSH1 0x44 ADD PUSH2 0x330 JUMP JUMPDEST SWAP4 POP SWAP2 POP DUP2 PUSH2 0x8A0 JUMP JUMPDEST POP POP POP SWAP4 SWAP8 SWAP3 SWAP7 POP SWAP4 POP SWAP4 POP JUMP JUMPDEST PUSH1 0x0 DUP1 DUP4 DUP4 PUSH1 0x40 MLOAD PUSH1 0x20 ADD PUSH2 0x981 SWAP3 SWAP2 SWAP1 SWAP2 DUP3 MSTORE PUSH1 0x20 DUP3 ADD MSTORE PUSH1 0x40 ADD SWAP1 JUMP JUMPDEST PUSH1 0x40 DUP1 MLOAD PUSH1 0x1F NOT DUP2 DUP5 SUB ADD DUP2 MSTORE SWAP2 SWAP1 MSTORE DUP1 MLOAD PUSH1 0x20 SWAP1 SWAP2 ADD KECCAK256 SLOAD SWAP5 SWAP4 POP POP POP POP JUMP JUMPDEST PUSH1 0x0 PUSH4 0x3929DEEF PUSH1 0xE2 SHL PUSH1 0x1 PUSH1 0x1 PUSH1 0xE0 SHL SUB NOT DUP4 AND ADD PUSH2 0x9C4 JUMPI POP PUSH1 0x1 SWAP2 SWAP1 POP JUMP JUMPDEST PUSH2 0x286 DUP3 PUSH2 0xE42 JUMP JUMPDEST PUSH1 0x0 PUSH1 0x40 MLOAD DUP3 DUP5 DUP3 CALLDATACOPY PUSH1 0x0 DUP1 DUP5 DUP4 DUP10 DUP12 DUP11 CALL SWAP8 SWAP7 POP POP POP POP POP POP POP JUMP JUMPDEST PUSH1 0x60 RETURNDATASIZE PUSH1 0x40 MLOAD SWAP2 POP PUSH1 0x20 DUP3 ADD DUP2 DUP2 ADD PUSH1 0x40 MSTORE DUP2 DUP4 MSTORE DUP2 PUSH1 0x0 DUP3 RETURNDATACOPY POP POP SWAP1 JUMP JUMPDEST DUP4 ISZERO PUSH2 0xA17 JUMPI DUP1 MLOAD PUSH1 0x20 DUP3 ADD REVERT JUMPDEST DUP3 PUSH32 0xAB46C69F7F32E1BF09B0725853DA82A211E5402A0600296AB499A2FB5EA3B419 DUP4 DUP4 PUSH1 0x40 MLOAD PUSH2 0xA49 SWAP3 SWAP2 SWAP1 PUSH2 0x1921 JUMP JUMPDEST PUSH1 0x40 MLOAD DUP1 SWAP2 SUB SWAP1 LOG2 POP POP POP POP JUMP JUMPDEST PUSH1 0x0 DUP1 PUSH1 0x0 JUMPDEST DUP4 DUP2 LT ISZERO PUSH2 0xE05 JUMPI PUSH1 0x1 DUP2 ADD SWAP1 DUP6 ADD CALLDATALOAD PUSH1 0xF8 SHR PUSH1 0x0 NOT DUP2 ADD PUSH2 0xAC6 JUMPI PUSH1 0x15 DUP3 ADD SWAP2 DUP7 ADD CALLDATALOAD PUSH1 0xF8 DUP2 SWAP1 SHR SWAP1 PUSH1 0x58 SHR PUSH1 0x1 PUSH1 0x1 PUSH1 0xA0 SHL SUB AND PUSH1 0x0 PUSH2 0xA9F DUP3 DUP5 PUSH2 0xE99 JUMP JUMPDEST SWAP1 POP DUP6 PUSH2 0xAAC JUMPI DUP1 PUSH2 0xABB JUMP JUMPDEST PUSH1 0x0 DUP7 DUP2 MSTORE PUSH1 0x20 DUP3 SWAP1 MSTORE PUSH1 0x40 SWAP1 KECCAK256 JUMPDEST SWAP6 POP POP POP POP POP PUSH2 0xA5D JUMP JUMPDEST DUP1 PUSH2 0xB36 JUMPI PUSH1 0x1 DUP3 ADD SWAP2 DUP7 DUP2 ADD CALLDATALOAD PUSH1 0xF8 SHR SWAP1 PUSH1 0x43 ADD PUSH1 0x0 PUSH2 0xAF2 DUP11 PUSH2 0xAED DUP5 DUP9 DUP13 DUP15 PUSH2 0x18BD JUMP JUMPDEST PUSH2 0xEB9 JUMP JUMPDEST SWAP1 POP DUP2 SWAP5 POP DUP3 PUSH1 0xFF AND DUP8 ADD SWAP7 POP PUSH1 0x0 PUSH2 0xB0E DUP3 DUP6 PUSH1 0xFF AND PUSH2 0xE99 JUMP JUMPDEST SWAP1 POP DUP7 PUSH2 0xB1B JUMPI DUP1 PUSH2 0xB2A JUMP JUMPDEST PUSH1 0x0 DUP8 DUP2 MSTORE PUSH1 0x20 DUP3 SWAP1 MSTORE PUSH1 0x40 SWAP1 KECCAK256 JUMPDEST SWAP7 POP POP POP POP POP POP PUSH2 0xA5D JUMP JUMPDEST PUSH1 0x2 DUP2 SUB PUSH2 0xC14 JUMPI PUSH1 0x0 DUP1 DUP8 DUP5 ADD CALLDATALOAD PUSH1 0xF8 DUP2 SWAP1 SHR SWAP1 PUSH1 0x58 SHR PUSH1 0x1 PUSH1 0x1 PUSH1 0xA0 SHL SUB AND PUSH1 0x15 DUP7 ADD SWAP6 POP SWAP1 SWAP3 POP SWAP1 POP PUSH1 0x0 DUP9 DUP6 ADD CALLDATALOAD PUSH1 0xE8 SHR PUSH1 0x3 DUP7 ADD DUP2 PUSH3 0xFFFFFF AND SWAP2 POP DUP1 SWAP7 POP DUP2 SWAP3 POP POP POP PUSH1 0x0 DUP2 DUP7 ADD SWAP1 POP PUSH2 0xBA2 DUP12 DUP5 DUP13 DUP13 DUP11 SWAP1 DUP7 SWAP3 PUSH2 0xB9D SWAP4 SWAP3 SWAP2 SWAP1 PUSH2 0x18BD JUMP JUMPDEST PUSH2 0x10D4 JUMP JUMPDEST PUSH2 0xBD1 JUMPI DUP11 DUP4 PUSH2 0xBB4 DUP4 DUP10 DUP14 DUP16 PUSH2 0x18BD JUMP JUMPDEST PUSH1 0x40 MLOAD PUSH4 0x4D4A3119 PUSH1 0xE1 SHL DUP2 MSTORE PUSH1 0x4 ADD PUSH2 0x330 SWAP5 SWAP4 SWAP3 SWAP2 SWAP1 PUSH2 0x193A JUMP JUMPDEST DUP1 SWAP6 POP DUP4 PUSH1 0xFF AND DUP9 ADD SWAP8 POP PUSH1 0x0 PUSH2 0xBEB DUP5 DUP7 PUSH1 0xFF AND PUSH2 0xE99 JUMP JUMPDEST SWAP1 POP DUP8 PUSH2 0xBF8 JUMPI DUP1 PUSH2 0xC07 JUMP JUMPDEST PUSH1 0x0 DUP9 DUP2 MSTORE PUSH1 0x20 DUP3 SWAP1 MSTORE PUSH1 0x40 SWAP1 KECCAK256 JUMPDEST SWAP8 POP POP POP POP POP POP POP PUSH2 0xA5D JUMP JUMPDEST PUSH1 0x3 DUP2 SUB PUSH2 0xC47 JUMPI PUSH1 0x20 DUP3 ADD SWAP2 DUP7 ADD CALLDATALOAD DUP4 PUSH2 0xC2F JUMPI DUP1 PUSH2 0xC3E JUMP JUMPDEST PUSH1 0x0 DUP5 DUP2 MSTORE PUSH1 0x20 DUP3 SWAP1 MSTORE PUSH1 0x40 SWAP1 KECCAK256 JUMPDEST SWAP4 POP POP POP PUSH2 0xA5D JUMP JUMPDEST PUSH1 0x4 DUP2 SUB PUSH2 0xC93 JUMPI PUSH1 0x3 DUP1 DUP4 ADD SWAP3 DUP8 DUP2 ADD CALLDATALOAD PUSH1 0xE8 SHR SWAP2 SWAP1 DUP3 ADD ADD PUSH1 0x0 DUP1 PUSH2 0xC74 DUP12 PUSH2 0x7B2 DUP6 DUP10 DUP14 DUP16 PUSH2 0x18BD JUMP JUMPDEST PUSH1 0x0 SWAP9 DUP10 MSTORE PUSH1 0x20 MSTORE PUSH1 0x40 SWAP1 SWAP8 KECCAK256 SWAP7 SWAP1 SWAP8 ADD SWAP7 POP SWAP1 SWAP4 POP PUSH2 0xA5D SWAP3 POP POP POP JUMP JUMPDEST PUSH1 0x6 DUP2 SUB PUSH2 0xD9B JUMPI PUSH1 0x0 DUP3 DUP8 ADD CALLDATALOAD PUSH1 0xF8 SHR PUSH1 0x1 DUP5 ADD SWAP4 POP PUSH1 0xFF AND SWAP1 POP PUSH1 0x0 DUP8 DUP5 ADD CALLDATALOAD PUSH1 0xF0 SHR PUSH1 0x2 DUP6 ADD SWAP5 POP PUSH2 0xFFFF AND SWAP1 POP PUSH1 0x0 DUP9 DUP6 ADD CALLDATALOAD PUSH1 0xE8 SHR PUSH1 0x3 DUP7 ADD DUP2 PUSH3 0xFFFFFF AND SWAP2 POP DUP1 SWAP7 POP DUP2 SWAP3 POP POP POP PUSH1 0x0 DUP2 DUP7 ADD SWAP1 POP PUSH1 0x0 DUP1 PUSH2 0xD01 DUP14 DUP14 DUP14 DUP12 SWAP1 DUP8 SWAP3 PUSH2 0x7B2 SWAP4 SWAP3 SWAP2 SWAP1 PUSH2 0x18BD JUMP JUMPDEST SWAP4 SWAP9 POP DUP9 SWAP4 SWAP1 SWAP3 POP SWAP1 POP DUP5 DUP3 LT PUSH2 0xD17 JUMPI SWAP9 DUP6 ADD SWAP9 JUMPDEST PUSH1 0x40 DUP1 MLOAD PUSH32 0x53657175656E6365206E657374656420636F6E6669673A0A0000000000000000 PUSH1 0x20 DUP1 DUP4 ADD SWAP2 SWAP1 SWAP2 MSTORE PUSH1 0x38 DUP3 ADD DUP5 SWAP1 MSTORE PUSH1 0x58 DUP3 ADD DUP9 SWAP1 MSTORE PUSH1 0x78 DUP1 DUP4 ADD DUP11 SWAP1 MSTORE DUP4 MLOAD DUP1 DUP5 SUB SWAP1 SWAP2 ADD DUP2 MSTORE PUSH1 0x98 SWAP1 SWAP3 ADD SWAP1 SWAP3 MSTORE DUP1 MLOAD SWAP2 ADD KECCAK256 DUP10 PUSH2 0xD7D JUMPI DUP1 PUSH2 0xD8C JUMP JUMPDEST PUSH1 0x0 DUP11 DUP2 MSTORE PUSH1 0x20 DUP3 SWAP1 MSTORE PUSH1 0x40 SWAP1 KECCAK256 JUMPDEST SWAP10 POP POP POP POP POP POP POP POP POP PUSH2 0xA5D JUMP JUMPDEST PUSH1 0x5 DUP2 SUB PUSH2 0xDE9 JUMPI PUSH1 0x20 DUP3 ADD SWAP2 DUP7 ADD CALLDATALOAD DUP8 DUP2 SUB PUSH2 0xDB8 JUMPI PUSH1 0x0 NOT SWAP5 POP JUMPDEST PUSH1 0x0 PUSH2 0xDC3 DUP3 PUSH2 0x1231 JUMP JUMPDEST SWAP1 POP DUP5 PUSH2 0xDD0 JUMPI DUP1 PUSH2 0xDDF JUMP JUMPDEST PUSH1 0x0 DUP6 DUP2 MSTORE PUSH1 0x20 DUP3 SWAP1 MSTORE PUSH1 0x40 SWAP1 KECCAK256 JUMPDEST SWAP5 POP POP POP POP PUSH2 0xA5D JUMP JUMPDEST PUSH1 0x40 MLOAD PUSH4 0x2C9417DF PUSH1 0xE2 SHL DUP2 MSTORE PUSH1 0x4 DUP2 ADD DUP3 SWAP1 MSTORE PUSH1 0x24 ADD PUSH2 0x330 JUMP JUMPDEST POP SWAP4 POP SWAP4 SWAP2 POP POP JUMP JUMPDEST PUSH32 0x8713A7C4465F6FBEE2B6E9D6646D1D9F83FEC929EDFC4BAF661F3C865BDD04D1 PUSH1 0x0 SWAP1 DUP2 MSTORE PUSH1 0x20 DUP3 SWAP1 MSTORE PUSH1 0x40 DUP2 KECCAK256 PUSH2 0x286 JUMP JUMPDEST PUSH1 0x0 PUSH1 0x1 PUSH1 0x1 PUSH1 0xE0 SHL SUB NOT DUP3 AND PUSH4 0x56352227 PUSH1 0xE1 SHL EQ DUP1 PUSH2 0xE73 JUMPI POP PUSH1 0x1 PUSH1 0x1 PUSH1 0xE0 SHL SUB NOT DUP3 AND PUSH4 0x36E78175 PUSH1 0xE0 SHL EQ JUMPDEST ISZERO PUSH2 0xE80 JUMPI POP PUSH1 0x1 SWAP2 SWAP1 POP JUMP JUMPDEST PUSH4 0x1FFC9A7 PUSH1 0xE0 SHL PUSH1 0x1 PUSH1 0x1 PUSH1 0xE0 SHL SUB NOT DUP4 AND EQ PUSH2 0x286 JUMP JUMPDEST PUSH1 0x1 PUSH1 0x1 PUSH1 0xA0 SHL SUB NOT PUSH1 0xA0 DUP3 SWAP1 SHL AND PUSH1 0x1 PUSH1 0x1 PUSH1 0xA0 SHL SUB DUP4 AND OR SWAP3 SWAP2 POP POP JUMP JUMPDEST PUSH1 0x0 PUSH1 0x42 DUP3 EQ PUSH2 0xEE0 JUMPI DUP3 DUP3 PUSH1 0x40 MLOAD PUSH4 0x2EE17A3D PUSH1 0xE0 SHL DUP2 MSTORE PUSH1 0x4 ADD PUSH2 0x330 SWAP3 SWAP2 SWAP1 PUSH2 0x196F JUMP JUMPDEST PUSH1 0x0 PUSH2 0xEF9 PUSH2 0xEF0 PUSH1 0x1 DUP6 PUSH2 0x1983 JUMP JUMPDEST DUP6 ADD CALLDATALOAD PUSH1 0xF8 SHR SWAP1 JUMP JUMPDEST PUSH1 0xFF AND SWAP1 POP PUSH1 0x40 DUP5 ADD CALLDATALOAD PUSH1 0xF8 SHR DUP5 CALLDATALOAD PUSH1 0x20 DUP7 ADD CALLDATALOAD PUSH32 0x7FFFFFFFFFFFFFFFFFFFFFFFFFFFFFFF5D576E7357A4501DDFE92F46681B20A0 DUP2 GT ISZERO PUSH2 0xF54 JUMPI DUP7 DUP7 DUP3 PUSH1 0x40 MLOAD PUSH4 0x56A5563B PUSH1 0xE1 SHL DUP2 MSTORE PUSH1 0x4 ADD PUSH2 0x330 SWAP4 SWAP3 SWAP2 SWAP1 PUSH2 0x1996 JUMP JUMPDEST DUP3 PUSH1 0xFF AND PUSH1 0x1B EQ ISZERO DUP1 ISZERO PUSH2 0xF6C JUMPI POP DUP3 PUSH1 0xFF AND PUSH1 0x1C EQ ISZERO JUMPDEST ISZERO PUSH2 0xF90 JUMPI DUP7 DUP7 DUP5 PUSH1 0x40 MLOAD PUSH4 0x72BC44BF PUSH1 0xE1 SHL DUP2 MSTORE PUSH1 0x4 ADD PUSH2 0x330 SWAP4 SWAP3 SWAP2 SWAP1 PUSH2 0x19BA JUMP JUMPDEST PUSH1 0x1 DUP5 SUB PUSH2 0xFFD JUMPI PUSH1 0x40 DUP1 MLOAD PUSH1 0x0 DUP2 MSTORE PUSH1 0x20 DUP2 ADD DUP1 DUP4 MSTORE DUP11 SWAP1 MSTORE PUSH1 0xFF DUP6 AND SWAP2 DUP2 ADD SWAP2 SWAP1 SWAP2 MSTORE PUSH1 0x60 DUP2 ADD DUP4 SWAP1 MSTORE PUSH1 0x80 DUP2 ADD DUP3 SWAP1 MSTORE PUSH1 0x1 SWAP1 PUSH1 0xA0 ADD JUMPDEST PUSH1 0x20 PUSH1 0x40 MLOAD PUSH1 0x20 DUP2 SUB SWAP1 DUP1 DUP5 SUB SWAP1 DUP6 GAS STATICCALL ISZERO DUP1 ISZERO PUSH2 0xFEC JUMPI RETURNDATASIZE PUSH1 0x0 DUP1 RETURNDATACOPY RETURNDATASIZE PUSH1 0x0 REVERT JUMPDEST POP POP POP PUSH1 0x20 PUSH1 0x40 MLOAD SUB MLOAD SWAP5 POP PUSH2 0x109E JUMP JUMPDEST PUSH1 0x2 DUP5 SUB PUSH2 0x107C JUMPI PUSH1 0x40 MLOAD PUSH32 0x19457468657265756D205369676E6564204D6573736167653A0A333200000000 PUSH1 0x20 DUP3 ADD MSTORE PUSH1 0x3C DUP2 ADD DUP10 SWAP1 MSTORE PUSH1 0x1 SWAP1 PUSH1 0x5C ADD PUSH1 0x40 DUP1 MLOAD PUSH1 0x1F NOT DUP2 DUP5 SUB ADD DUP2 MSTORE DUP3 DUP3 MSTORE DUP1 MLOAD PUSH1 0x20 SWAP2 DUP3 ADD KECCAK256 PUSH1 0x0 DUP5 MSTORE SWAP1 DUP4 ADD DUP1 DUP4 MSTORE MSTORE PUSH1 0xFF DUP7 AND SWAP1 DUP3 ADD MSTORE PUSH1 0x60 DUP2 ADD DUP5 SWAP1 MSTORE PUSH1 0x80 DUP2 ADD DUP4 SWAP1 MSTORE PUSH1 0xA0 ADD PUSH2 0xFCA JUMP JUMPDEST DUP7 DUP7 DUP6 PUSH1 0x1 PUSH1 0x40 MLOAD PUSH4 0x4EFDD429 PUSH1 0xE1 SHL DUP2 MSTORE PUSH1 0x4 ADD PUSH2 0x330 SWAP5 SWAP4 SWAP3 SWAP2 SWAP1 PUSH2 0x19E1 JUMP JUMPDEST PUSH1 0x1 PUSH1 0x1 PUSH1 0xA0 SHL SUB DUP6 AND PUSH2 0x10C9 JUMPI DUP7 DUP7 PUSH1 0x40 MLOAD PUSH4 0x360B8CE9 PUSH1 0xE1 SHL DUP2 MSTORE PUSH1 0x4 ADD PUSH2 0x330 SWAP3 SWAP2 SWAP1 PUSH2 0x196F JUMP JUMPDEST POP POP POP POP SWAP4 SWAP3 POP POP POP JUMP JUMPDEST PUSH1 0x0 DUP2 DUP2 SUB PUSH2 0x10F6 JUMPI PUSH1 0x40 MLOAD PUSH4 0xAC241E11 PUSH1 0xE0 SHL DUP2 MSTORE PUSH1 0x4 ADD PUSH1 0x40 MLOAD DUP1 SWAP2 SUB SWAP1 REVERT JUMPDEST PUSH1 0x0 DUP4 DUP4 PUSH2 0x1105 PUSH1 0x1 DUP3 PUSH2 0x1983 JUMP JUMPDEST DUP2 DUP2 LT PUSH2 0x1114 JUMPI PUSH2 0x1114 PUSH2 0x174D JUMP JUMPDEST SWAP2 SWAP1 SWAP2 ADD CALLDATALOAD PUSH1 0xF8 SHR SWAP2 POP POP PUSH1 0x1 DUP2 EQ DUP1 PUSH2 0x112E JUMPI POP PUSH1 0x2 DUP2 EQ JUMPDEST ISZERO PUSH2 0x1159 JUMPI DUP5 PUSH1 0x1 PUSH1 0x1 PUSH1 0xA0 SHL SUB AND PUSH2 0x1148 DUP8 DUP7 DUP7 PUSH2 0xEB9 JUMP JUMPDEST PUSH1 0x1 PUSH1 0x1 PUSH1 0xA0 SHL SUB AND EQ SWAP2 POP PUSH2 0x1228 JUMP JUMPDEST PUSH1 0x3 DUP2 SUB PUSH2 0x1206 JUMPI PUSH1 0x1 PUSH1 0x1 PUSH1 0xA0 SHL SUB DUP6 AND PUSH4 0x1626BA7E DUP8 DUP7 PUSH1 0x0 DUP8 PUSH2 0x1180 PUSH1 0x1 DUP3 PUSH2 0x1983 JUMP JUMPDEST SWAP3 PUSH2 0x118D SWAP4 SWAP3 SWAP2 SWAP1 PUSH2 0x18BD JUMP JUMPDEST PUSH1 0x40 MLOAD DUP5 PUSH4 0xFFFFFFFF AND PUSH1 0xE0 SHL DUP2 MSTORE PUSH1 0x4 ADD PUSH2 0x11AB SWAP4 SWAP3 SWAP2 SWAP1 PUSH2 0x1A0D JUMP JUMPDEST PUSH1 0x20 PUSH1 0x40 MLOAD DUP1 DUP4 SUB DUP2 DUP7 GAS STATICCALL ISZERO DUP1 ISZERO PUSH2 0x11C8 JUMPI RETURNDATASIZE PUSH1 0x0 DUP1 RETURNDATACOPY RETURNDATASIZE PUSH1 0x0 REVERT JUMPDEST POP POP POP POP PUSH1 0x40 MLOAD RETURNDATASIZE PUSH1 0x1F NOT PUSH1 0x1F DUP3 ADD AND DUP3 ADD DUP1 PUSH1 0x40 MSTORE POP DUP2 ADD SWAP1 PUSH2 0x11EC SWAP2 SWAP1 PUSH2 0x1A30 JUMP JUMPDEST PUSH1 0x1 PUSH1 0x1 PUSH1 0xE0 SHL SUB NOT AND PUSH4 0xB135D3F PUSH1 0xE1 SHL EQ SWAP2 POP PUSH2 0x1228 JUMP JUMPDEST DUP4 DUP4 DUP3 PUSH1 0x0 PUSH1 0x40 MLOAD PUSH4 0x4EFDD429 PUSH1 0xE1 SHL DUP2 MSTORE PUSH1 0x4 ADD PUSH2 0x330 SWAP5 SWAP4 SWAP3 SWAP2 SWAP1 PUSH2 0x19E1 JUMP JUMPDEST POP SWAP5 SWAP4 POP POP POP POP JUMP JUMPDEST PUSH1 0x40 MLOAD PUSH32 0x53657175656E636520737461746963206469676573743A0A0000000000000000 PUSH1 0x20 DUP3 ADD MSTORE PUSH1 0x38 DUP2 ADD DUP3 SWAP1 MSTORE PUSH1 0x0 SWAP1 PUSH1 0x58 ADD PUSH2 0x624 JUMP JUMPDEST PUSH1 0x1 PUSH1 0x1 PUSH1 0xE0 SHL SUB NOT DUP2 AND DUP2 EQ PUSH2 0x342 JUMPI PUSH1 0x0 DUP1 REVERT JUMPDEST PUSH1 0x0 PUSH1 0x20 DUP3 DUP5 SUB SLT ISZERO PUSH2 0x1294 JUMPI PUSH1 0x0 DUP1 REVERT JUMPDEST DUP2 CALLDATALOAD PUSH2 0x2B9 DUP2 PUSH2 0x126C JUMP JUMPDEST PUSH1 0x0 DUP1 DUP4 PUSH1 0x1F DUP5 ADD SLT PUSH2 0x12B1 JUMPI PUSH1 0x0 DUP1 REVERT JUMPDEST POP DUP2 CALLDATALOAD PUSH8 0xFFFFFFFFFFFFFFFF DUP2 GT ISZERO PUSH2 0x12C9 JUMPI PUSH1 0x0 DUP1 REVERT JUMPDEST PUSH1 0x20 DUP4 ADD SWAP2 POP DUP4 PUSH1 0x20 DUP3 DUP6 ADD ADD GT ISZERO PUSH2 0x12E1 JUMPI PUSH1 0x0 DUP1 REVERT JUMPDEST SWAP3 POP SWAP3 SWAP1 POP JUMP JUMPDEST PUSH1 0x0 DUP1 PUSH1 0x0 PUSH1 0x40 DUP5 DUP7 SUB SLT ISZERO PUSH2 0x12FD JUMPI PUSH1 0x0 DUP1 REVERT JUMPDEST DUP4 CALLDATALOAD SWAP3 POP PUSH1 0x20 DUP5 ADD CALLDATALOAD PUSH8 0xFFFFFFFFFFFFFFFF DUP2 GT ISZERO PUSH2 0x131B JUMPI PUSH1 0x0 DUP1 REVERT JUMPDEST PUSH2 0x1327 DUP7 DUP3 DUP8 ADD PUSH2 0x129F JUMP JUMPDEST SWAP5 SWAP8 SWAP1 SWAP7 POP SWAP4 SWAP5 POP POP POP POP JUMP JUMPDEST PUSH1 0x0 DUP1 PUSH1 0x0 DUP1 PUSH1 0x40 DUP6 DUP8 SUB SLT ISZERO PUSH2 0x134A JUMPI PUSH1 0x0 DUP1 REVERT JUMPDEST DUP5 CALLDATALOAD PUSH8 0xFFFFFFFFFFFFFFFF DUP1 DUP3 GT ISZERO PUSH2 0x1362 JUMPI PUSH1 0x0 DUP1 REVERT JUMPDEST PUSH2 0x136E DUP9 DUP4 DUP10 ADD PUSH2 0x129F JUMP JUMPDEST SWAP1 SWAP7 POP SWAP5 POP PUSH1 0x20 DUP8 ADD CALLDATALOAD SWAP2 POP DUP1 DUP3 GT ISZERO PUSH2 0x1387 JUMPI PUSH1 0x0 DUP1 REVERT JUMPDEST POP PUSH2 0x1394 DUP8 DUP3 DUP9 ADD PUSH2 0x129F JUMP JUMPDEST SWAP6 SWAP9 SWAP5 SWAP8 POP SWAP6 POP POP POP POP JUMP JUMPDEST PUSH1 0x0 PUSH1 0x20 DUP3 DUP5 SUB SLT ISZERO PUSH2 0x13B2 JUMPI PUSH1 0x0 DUP1 REVERT JUMPDEST POP CALLDATALOAD SWAP2 SWAP1 POP JUMP JUMPDEST PUSH1 0x0 DUP1 DUP4 PUSH1 0x1F DUP5 ADD SLT PUSH2 0x13CB JUMPI PUSH1 0x0 DUP1 REVERT JUMPDEST POP DUP2 CALLDATALOAD PUSH8 0xFFFFFFFFFFFFFFFF DUP2 GT ISZERO PUSH2 0x13E3 JUMPI PUSH1 0x0 DUP1 REVERT JUMPDEST PUSH1 0x20 DUP4 ADD SWAP2 POP DUP4 PUSH1 0x20 DUP3 PUSH1 0x5 SHL DUP6 ADD ADD GT ISZERO PUSH2 0x12E1 JUMPI PUSH1 0x0 DUP1 REVERT JUMPDEST PUSH1 0x0 DUP1 PUSH1 0x20 DUP4 DUP6 SUB SLT ISZERO PUSH2 0x1411 JUMPI PUSH1 0x0 DUP1 REVERT JUMPDEST DUP3 CALLDATALOAD PUSH8 0xFFFFFFFFFFFFFFFF DUP2 GT ISZERO PUSH2 0x1428 JUMPI PUSH1 0x0 DUP1 REVERT JUMPDEST PUSH2 0x1434 DUP6 DUP3 DUP7 ADD PUSH2 0x13B9 JUMP JUMPDEST SWAP1 SWAP7 SWAP1 SWAP6 POP SWAP4 POP POP POP POP JUMP JUMPDEST PUSH1 0x0 DUP1 PUSH1 0x0 DUP1 PUSH1 0x0 PUSH1 0x60 DUP7 DUP9 SUB SLT ISZERO PUSH2 0x1458 JUMPI PUSH1 0x0 DUP1 REVERT JUMPDEST DUP6 CALLDATALOAD PUSH8 0xFFFFFFFFFFFFFFFF DUP1 DUP3 GT ISZERO PUSH2 0x1470 JUMPI PUSH1 0x0 DUP1 REVERT JUMPDEST PUSH2 0x147C DUP10 DUP4 DUP11 ADD PUSH2 0x13B9 JUMP JUMPDEST SWAP1 SWAP8 POP SWAP6 POP PUSH1 0x20 DUP9 ADD CALLDATALOAD SWAP5 POP PUSH1 0x40 DUP9 ADD CALLDATALOAD SWAP2 POP DUP1 DUP3 GT ISZERO PUSH2 0x149C JUMPI PUSH1 0x0 DUP1 REVERT JUMPDEST POP PUSH2 0x14A9 DUP9 DUP3 DUP10 ADD PUSH2 0x129F JUMP JUMPDEST SWAP7 SWAP10 SWAP6 SWAP9 POP SWAP4 SWAP7 POP SWAP3 SWAP5 SWAP4 SWAP3 POP POP POP JUMP JUMPDEST PUSH4 0x4E487B71 PUSH1 0xE0 SHL PUSH1 0x0 MSTORE PUSH1 0x41 PUSH1 0x4 MSTORE PUSH1 0x24 PUSH1 0x0 REVERT JUMPDEST PUSH1 0x0 PUSH1 0x20 DUP3 DUP5 SUB SLT ISZERO PUSH2 0x14E2 JUMPI PUSH1 0x0 DUP1 REVERT JUMPDEST DUP2 CALLDATALOAD PUSH8 0xFFFFFFFFFFFFFFFF DUP1 DUP3 GT ISZERO PUSH2 0x14FA JUMPI PUSH1 0x0 DUP1 REVERT JUMPDEST DUP2 DUP5 ADD SWAP2 POP DUP5 PUSH1 0x1F DUP4 ADD SLT PUSH2 0x150E JUMPI PUSH1 0x0 DUP1 REVERT JUMPDEST DUP2 CALLDATALOAD DUP2 DUP2 GT ISZERO PUSH2 0x1520 JUMPI PUSH2 0x1520 PUSH2 0x14BA JUMP JUMPDEST PUSH1 0x40 MLOAD PUSH1 0x1F DUP3 ADD PUSH1 0x1F NOT SWAP1 DUP2 AND PUSH1 0x3F ADD AND DUP2 ADD SWAP1 DUP4 DUP3 GT DUP2 DUP4 LT OR ISZERO PUSH2 0x1548 JUMPI PUSH2 0x1548 PUSH2 0x14BA JUMP JUMPDEST DUP2 PUSH1 0x40 MSTORE DUP3 DUP2 MSTORE DUP8 PUSH1 0x20 DUP5 DUP8 ADD ADD GT ISZERO PUSH2 0x1561 JUMPI PUSH1 0x0 DUP1 REVERT JUMPDEST DUP3 PUSH1 0x20 DUP7 ADD PUSH1 0x20 DUP4 ADD CALLDATACOPY PUSH1 0x0 SWAP3 DUP2 ADD PUSH1 0x20 ADD SWAP3 SWAP1 SWAP3 MSTORE POP SWAP6 SWAP5 POP POP POP POP POP JUMP JUMPDEST DUP2 DUP4 DUP3 CALLDATACOPY PUSH1 0x0 SWAP2 ADD SWAP1 DUP2 MSTORE SWAP2 SWAP1 POP JUMP JUMPDEST DUP1 CALLDATALOAD DUP1 ISZERO ISZERO DUP2 EQ PUSH2 0x15A1 JUMPI PUSH1 0x0 DUP1 REVERT JUMPDEST SWAP2 SWAP1 POP JUMP JUMPDEST DUP1 CALLDATALOAD PUSH1 0x1 PUSH1 0x1 PUSH1 0xA0 SHL SUB DUP2 AND DUP2 EQ PUSH2 0x15A1 JUMPI PUSH1 0x0 DUP1 REVERT JUMPDEST DUP2 DUP4 MSTORE DUP2 DUP2 PUSH1 0x20 DUP6 ADD CALLDATACOPY POP PUSH1 0x0 DUP3 DUP3 ADD PUSH1 0x20 SWAP1 DUP2 ADD SWAP2 SWAP1 SWAP2 MSTORE PUSH1 0x1F SWAP1 SWAP2 ADD PUSH1 0x1F NOT AND SWAP1 SWAP2 ADD ADD SWAP1 JUMP JUMPDEST DUP2 DUP4 MSTORE PUSH1 0x0 PUSH1 0x20 DUP1 DUP6 ADD DUP1 DUP2 SWAP7 POP DUP6 PUSH1 0x5 SHL DUP2 ADD SWAP2 POP DUP5 PUSH1 0x0 JUMPDEST DUP8 DUP2 LT ISZERO PUSH2 0x16DF JUMPI DUP3 DUP5 SUB DUP10 MSTORE DUP2 CALLDATALOAD PUSH1 0xBE NOT DUP9 CALLDATASIZE SUB ADD DUP2 SLT PUSH2 0x1621 JUMPI PUSH1 0x0 DUP1 REVERT JUMPDEST DUP8 ADD PUSH1 0xC0 PUSH2 0x162E DUP3 PUSH2 0x1591 JUMP JUMPDEST ISZERO ISZERO DUP7 MSTORE PUSH2 0x163D DUP8 DUP4 ADD PUSH2 0x1591 JUMP JUMPDEST ISZERO ISZERO DUP7 DUP9 ADD MSTORE PUSH1 0x40 DUP3 DUP2 ADD CALLDATALOAD SWAP1 DUP8 ADD MSTORE PUSH1 0x60 PUSH1 0x1 PUSH1 0x1 PUSH1 0xA0 SHL SUB PUSH2 0x1662 DUP3 DUP6 ADD PUSH2 0x15A6 JUMP JUMPDEST AND SWAP1 DUP8 ADD MSTORE PUSH1 0x80 DUP3 DUP2 ADD CALLDATALOAD SWAP1 DUP8 ADD MSTORE PUSH1 0xA0 DUP1 DUP4 ADD CALLDATALOAD CALLDATASIZE DUP5 SWAP1 SUB PUSH1 0x1E NOT ADD DUP2 SLT PUSH2 0x168A JUMPI PUSH1 0x0 DUP1 REVERT JUMPDEST SWAP1 SWAP3 ADD DUP8 DUP2 ADD SWAP3 SWAP1 CALLDATALOAD PUSH8 0xFFFFFFFFFFFFFFFF DUP2 GT ISZERO PUSH2 0x16A8 JUMPI PUSH1 0x0 DUP1 REVERT JUMPDEST DUP1 CALLDATASIZE SUB DUP5 SGT ISZERO PUSH2 0x16B7 JUMPI PUSH1 0x0 DUP1 REVERT JUMPDEST DUP3 DUP3 DUP10 ADD MSTORE PUSH2 0x16C9 DUP4 DUP10 ADD DUP3 DUP7 PUSH2 0x15BD JUMP JUMPDEST SWAP13 DUP10 ADD SWAP13 SWAP8 POP POP POP SWAP3 DUP7 ADD SWAP3 POP POP PUSH1 0x1 ADD PUSH2 0x1600 JUMP JUMPDEST POP SWAP2 SWAP8 SWAP7 POP POP POP POP POP POP POP JUMP JUMPDEST PUSH1 0x40 DUP2 MSTORE PUSH1 0x5 PUSH1 0x40 DUP3 ADD MSTORE PUSH5 0x39B2B6331D PUSH1 0xD9 SHL PUSH1 0x60 DUP3 ADD MSTORE PUSH1 0x80 PUSH1 0x20 DUP3 ADD MSTORE PUSH1 0x0 PUSH2 0x304 PUSH1 0x80 DUP4 ADD DUP5 DUP7 PUSH2 0x15E6 JUMP JUMPDEST PUSH1 0x40 DUP2 MSTORE PUSH1 0x6 PUSH1 0x40 DUP3 ADD MSTORE PUSH6 0x33BAB2B9BA1D PUSH1 0xD1 SHL PUSH1 0x60 DUP3 ADD MSTORE PUSH1 0x80 PUSH1 0x20 DUP3 ADD MSTORE PUSH1 0x0 PUSH2 0x304 PUSH1 0x80 DUP4 ADD DUP5 DUP7 PUSH2 0x15E6 JUMP JUMPDEST PUSH4 0x4E487B71 PUSH1 0xE0 SHL PUSH1 0x0 MSTORE PUSH1 0x32 PUSH1 0x4 MSTORE PUSH1 0x24 PUSH1 0x0 REVERT JUMPDEST PUSH1 0x0 DUP2 MLOAD DUP1 DUP5 MSTORE PUSH1 0x0 JUMPDEST DUP2 DUP2 LT ISZERO PUSH2 0x1789 JUMPI PUSH1 0x20 DUP2 DUP6 ADD DUP2 ADD MLOAD DUP7 DUP4 ADD DUP3 ADD MSTORE ADD PUSH2 0x176D JUMP JUMPDEST POP PUSH1 0x0 PUSH1 0x20 DUP3 DUP7 ADD ADD MSTORE PUSH1 0x20 PUSH1 0x1F NOT PUSH1 0x1F DUP4 ADD AND DUP6 ADD ADD SWAP2 POP POP SWAP3 SWAP2 POP POP JUMP JUMPDEST PUSH1 0x20 DUP2 MSTORE PUSH1 0x0 PUSH2 0x2B9 PUSH1 0x20 DUP4 ADD DUP5 PUSH2 0x1763 JUMP JUMPDEST PUSH2 0x1901 PUSH1 0xF0 SHL DUP2 MSTORE PUSH1 0x2 DUP2 ADD SWAP4 SWAP1 SWAP4 MSTORE PUSH1 0x60 SWAP2 SWAP1 SWAP2 SHL PUSH12 0xFFFFFFFFFFFFFFFFFFFFFFFF NOT AND PUSH1 0x22 DUP4 ADD MSTORE PUSH1 0x36 DUP3 ADD MSTORE PUSH1 0x56 ADD SWAP1 JUMP JUMPDEST PUSH1 0x0 DUP3 CALLDATALOAD PUSH1 0xBE NOT DUP4 CALLDATASIZE SUB ADD DUP2 SLT PUSH2 0x1807 JUMPI PUSH1 0x0 DUP1 REVERT JUMPDEST SWAP2 SWAP1 SWAP2 ADD SWAP3 SWAP2 POP POP JUMP JUMPDEST PUSH1 0x0 PUSH1 0x20 DUP3 DUP5 SUB SLT ISZERO PUSH2 0x1823 JUMPI PUSH1 0x0 DUP1 REVERT JUMPDEST PUSH2 0x2B9 DUP3 PUSH2 0x1591 JUMP JUMPDEST PUSH1 0x0 PUSH1 0x20 DUP3 DUP5 SUB SLT ISZERO PUSH2 0x183E JUMPI PUSH1 0x0 DUP1 REVERT JUMPDEST PUSH2 0x2B9 DUP3 PUSH2 0x15A6 JUMP JUMPDEST PUSH1 0x0 DUP1 DUP4 CALLDATALOAD PUSH1 0x1E NOT DUP5 CALLDATASIZE SUB ADD DUP2 SLT PUSH2 0x185E JUMPI PUSH1 0x0 DUP1 REVERT JUMPDEST DUP4 ADD DUP1 CALLDATALOAD SWAP2 POP PUSH8 0xFFFFFFFFFFFFFFFF DUP3 GT ISZERO PUSH2 0x1879 JUMPI PUSH1 0x0 DUP1 REVERT JUMPDEST PUSH1 0x20 ADD SWAP2 POP CALLDATASIZE DUP2 SWAP1 SUB DUP3 SGT ISZERO PUSH2 0x12E1 JUMPI PUSH1 0x0 DUP1 REVERT JUMPDEST PUSH4 0x4E487B71 PUSH1 0xE0 SHL PUSH1 0x0 MSTORE PUSH1 0x11 PUSH1 0x4 MSTORE PUSH1 0x24 PUSH1 0x0 REVERT JUMPDEST PUSH1 0x0 PUSH1 0x1 DUP3 ADD PUSH2 0x18B6 JUMPI PUSH2 0x18B6 PUSH2 0x188E JUMP JUMPDEST POP PUSH1 0x1 ADD SWAP1 JUMP JUMPDEST PUSH1 0x0 DUP1 DUP6 DUP6 GT ISZERO PUSH2 0x18CD JUMPI PUSH1 0x0 DUP1 REVERT JUMPDEST DUP4 DUP7 GT ISZERO PUSH2 0x18DA JUMPI PUSH1 0x0 DUP1 REVERT JUMPDEST POP POP DUP3 ADD SWAP4 SWAP2 SWAP1 SWAP3 SUB SWAP2 POP JUMP JUMPDEST DUP1 DUP3 ADD DUP1 DUP3 GT ISZERO PUSH2 0x286 JUMPI PUSH2 0x286 PUSH2 0x188E JUMP JUMPDEST PUSH1 0x60 DUP2 MSTORE PUSH1 0x0 PUSH2 0x190E PUSH1 0x60 DUP4 ADD DUP7 DUP9 PUSH2 0x15BD JUMP JUMPDEST PUSH1 0x20 DUP4 ADD SWAP5 SWAP1 SWAP5 MSTORE POP PUSH1 0x40 ADD MSTORE SWAP3 SWAP2 POP POP JUMP JUMPDEST DUP3 DUP2 MSTORE PUSH1 0x40 PUSH1 0x20 DUP3 ADD MSTORE PUSH1 0x0 PUSH2 0x304 PUSH1 0x40 DUP4 ADD DUP5 PUSH2 0x1763 JUMP JUMPDEST DUP5 DUP2 MSTORE PUSH1 0x1 PUSH1 0x1 PUSH1 0xA0 SHL SUB DUP5 AND PUSH1 0x20 DUP3 ADD MSTORE PUSH1 0x60 PUSH1 0x40 DUP3 ADD DUP2 SWAP1 MSTORE PUSH1 0x0 SWAP1 PUSH2 0x1965 SWAP1 DUP4 ADD DUP5 DUP7 PUSH2 0x15BD JUMP JUMPDEST SWAP7 SWAP6 POP POP POP POP POP POP JUMP JUMPDEST PUSH1 0x20 DUP2 MSTORE PUSH1 0x0 PUSH2 0x304 PUSH1 0x20 DUP4 ADD DUP5 DUP7 PUSH2 0x15BD JUMP JUMPDEST DUP2 DUP2 SUB DUP2 DUP2 GT ISZERO PUSH2 0x286 JUMPI PUSH2 0x286 PUSH2 0x188E JUMP JUMPDEST PUSH1 0x40 DUP2 MSTORE PUSH1 0x0 PUSH2 0x19AA PUSH1 0x40 DUP4 ADD DUP6 DUP8 PUSH2 0x15BD JUMP JUMPDEST SWAP1 POP DUP3 PUSH1 0x20 DUP4 ADD MSTORE SWAP5 SWAP4 POP POP POP POP JUMP JUMPDEST PUSH1 0x40 DUP2 MSTORE PUSH1 0x0 PUSH2 0x19CE PUSH1 0x40 DUP4 ADD DUP6 DUP8 PUSH2 0x15BD JUMP JUMPDEST SWAP1 POP PUSH1 0xFF DUP4 AND PUSH1 0x20 DUP4 ADD MSTORE SWAP5 SWAP4 POP POP POP POP JUMP JUMPDEST PUSH1 0x60 DUP2 MSTORE PUSH1 0x0 PUSH2 0x19F5 PUSH1 0x60 DUP4 ADD DUP7 DUP9 PUSH2 0x15BD JUMP JUMPDEST PUSH1 0x20 DUP4 ADD SWAP5 SWAP1 SWAP5 MSTORE POP SWAP1 ISZERO ISZERO PUSH1 0x40 SWAP1 SWAP2 ADD MSTORE SWAP3 SWAP2 POP POP JUMP JUMPDEST DUP4 DUP2 MSTORE PUSH1 0x40 PUSH1 0x20 DUP3 ADD MSTORE PUSH1 0x0 PUSH2 0x1A27 PUSH1 0x40 DUP4 ADD DUP5 DUP7 PUSH2 0x15BD JUMP JUMPDEST SWAP6 SWAP5 POP POP POP POP POP JUMP JUMPDEST PUSH1 0x0 PUSH1 0x20 DUP3 DUP5 SUB SLT ISZERO PUSH2 0x1A42 JUMPI PUSH1 0x0 DUP1 REVERT JUMPDEST DUP2 MLOAD PUSH2 0x2B9 DUP2 PUSH2 0x126C JUMP INVALID LOG2 PUSH5 0x6970667358 0x22 SLT KECCAK256 LT 0xE2 0xC0 MSIZE 0xF9 0xA9 0xE2 0xF8 SWAP11 PUSH29 0x1457AFEA3B456AF4B8E09FC9FC5F1F342597D6384DC264736F6C634300 ADDMOD SLT STOP CALLER "
		},
		"gasEstimates": {
			"creation": {
				"codeDepositCost": "1357400",
				"executionCost": "infinite",
				"totalCost": "infinite"
			},
			"external": {
				"SET_IMAGE_HASH_TYPE_HASH()": "284",
				"createContract(bytes)": "infinite",
				"execute((bool,bool,uint256,address,uint256,bytes)[],uint256,bytes)": "infinite",
				"isValidSignature(bytes,bytes)": "infinite",
				"isValidSignature(bytes32,bytes)": "infinite",
				"nonce()": "2692",
				"readNonce(uint256)": "2687",
				"selfExecute((bool,bool,uint256,address,uint256,bytes)[])": "infinite",
				"signatureRecovery(bytes32,bytes)": "infinite",
				"supportsInterface(bytes4)": "infinite",
				"updateImageHash(bytes32)": "385"
			},
			"internal": {
				"_executeGuest(bytes32,struct IModuleCalls.Transaction calldata[] calldata)": "infinite",
				"_isValidImage(bytes32)": "infinite",
				"_updateImageHash(bytes32)": "infinite"
			}
		},
		"methodIdentifiers": {
			"SET_IMAGE_HASH_TYPE_HASH()": "57c56d6b",
			"createContract(bytes)": "90042baf",
			"execute((bool,bool,uint256,address,uint256,bytes)[],uint256,bytes)": "7a9a1628",
			"isValidSignature(bytes,bytes)": "20c13b0b",
			"isValidSignature(bytes32,bytes)": "1626ba7e",
			"nonce()": "affed0e0",
			"readNonce(uint256)": "8c3f5563",
			"selfExecute((bool,bool,uint256,address,uint256,bytes)[])": "61c2926c",
			"signatureRecovery(bytes32,bytes)": "853c5068",
			"supportsInterface(bytes4)": "01ffc9a7",
			"updateImageHash(bytes32)": "29561426"
		}
	},
	"abi": [
		{
			"inputs": [
				{
					"internalType": "uint256",
					"name": "_space",
					"type": "uint256"
				},
				{
					"internalType": "uint256",
					"name": "_provided",
					"type": "uint256"
				},
				{
					"internalType": "uint256",
					"name": "_current",
					"type": "uint256"
				}
			],
			"name": "BadNonce",
			"type": "error"
		},
		{
			"inputs": [
				{
					"internalType": "bytes",
					"name": "_code",
					"type": "bytes"
				}
			],
			"name": "CreateFailed",
			"type": "error"
		},
		{
			"inputs": [
				{
					"internalType": "uint256",
					"name": "_index",
					"type": "uint256"
				}
			],
			"name": "DelegateCallNotAllowed",
			"type": "error"
		},
		{
			"inputs": [],
			"name": "EmptySignature",
			"type": "error"
		},
		{
			"inputs": [],
			"name": "ImageHashIsZero",
			"type": "error"
		},
		{
			"inputs": [
				{
					"internalType": "bytes32",
					"name": "_hash",
					"type": "bytes32"
				},
				{
					"internalType": "address",
					"name": "_addr",
					"type": "address"
				},
				{
					"internalType": "bytes",
					"name": "_signature",
					"type": "bytes"
				}
			],
			"name": "InvalidNestedSignature",
			"type": "error"
		},
		{
			"inputs": [
				{
					"internalType": "bytes",
					"name": "_signature",
					"type": "bytes"
				},
				{
					"internalType": "bytes32",
					"name": "_s",
					"type": "bytes32"
				}
			],
			"name": "InvalidSValue",
			"type": "error"
		},
		{
			"inputs": [
				{
					"internalType": "bytes32",
					"name": "_hash",
					"type": "bytes32"
				},
				{
					"internalType": "bytes",
					"name": "_signature",
					"type": "bytes"
				}
			],
			"name": "InvalidSignature",
			"type": "error"
		},
		{
			"inputs": [
				{
					"internalType": "uint256",
					"name": "_flag",
					"type": "uint256"
				}
			],
			"name": "InvalidSignatureFlag",
			"type": "error"
		},
		{
			"inputs": [
				{
					"internalType": "bytes",
					"name": "_signature",
					"type": "bytes"
				}
			],
			"name": "InvalidSignatureLength",
			"type": "error"
		},
		{
			"inputs": [
				{
					"internalType": "bytes1",
					"name": "_type",
					"type": "bytes1"
				}
			],
			"name": "InvalidSignatureType",
			"type": "error"
		},
		{
			"inputs": [
				{
					"internalType": "bytes",
					"name": "_signature",
					"type": "bytes"
				},
				{
					"internalType": "uint256",
					"name": "_v",
					"type": "uint256"
				}
			],
			"name": "InvalidVValue",
			"type": "error"
		},
		{
			"inputs": [
				{
					"internalType": "bytes",
					"name": "_signature",
					"type": "bytes"
				},
				{
					"internalType": "uint256",
					"name": "threshold",
					"type": "uint256"
				},
				{
					"internalType": "uint256",
					"name": "_weight",
					"type": "uint256"
				}
			],
			"name": "LowWeightChainedSignature",
			"type": "error"
		},
		{
			"inputs": [
				{
					"internalType": "uint256",
					"name": "_index",
					"type": "uint256"
				},
				{
					"internalType": "uint256",
					"name": "_requested",
					"type": "uint256"
				},
				{
					"internalType": "uint256",
					"name": "_available",
					"type": "uint256"
				}
			],
			"name": "NotEnoughGas",
			"type": "error"
		},
		{
			"inputs": [],
			"name": "NotSupported",
			"type": "error"
		},
		{
			"inputs": [],
			"name": "OnlyDelegatecall",
			"type": "error"
		},
		{
			"inputs": [
				{
					"internalType": "address",
					"name": "_sender",
					"type": "address"
				},
				{
					"internalType": "address",
					"name": "_self",
					"type": "address"
				}
			],
			"name": "OnlySelfAuth",
			"type": "error"
		},
		{
			"inputs": [
				{
					"internalType": "bytes",
					"name": "_signature",
					"type": "bytes"
				}
			],
			"name": "SignerIsAddress0",
			"type": "error"
		},
		{
			"inputs": [
				{
					"internalType": "bytes",
					"name": "_signature",
					"type": "bytes"
				},
				{
					"internalType": "uint256",
					"name": "_type",
					"type": "uint256"
				},
				{
					"internalType": "bool",
					"name": "_recoverMode",
					"type": "bool"
				}
			],
			"name": "UnsupportedSignatureType",
			"type": "error"
		},
		{
			"inputs": [
				{
					"internalType": "uint256",
					"name": "_current",
					"type": "uint256"
				},
				{
					"internalType": "uint256",
					"name": "_prev",
					"type": "uint256"
				}
			],
			"name": "WrongChainedCheckpointOrder",
			"type": "error"
		},
		{
			"anonymous": false,
			"inputs": [
				{
					"indexed": false,
					"internalType": "address",
					"name": "_contract",
					"type": "address"
				}
			],
			"name": "CreatedContract",
			"type": "event"
		},
		{
			"anonymous": false,
			"inputs": [
				{
					"indexed": false,
					"internalType": "bytes32",
					"name": "newImageHash",
					"type": "bytes32"
				}
			],
			"name": "ImageHashUpdated",
			"type": "event"
		},
		{
			"anonymous": false,
			"inputs": [
				{
					"indexed": false,
					"internalType": "uint256",
					"name": "_space",
					"type": "uint256"
				},
				{
					"indexed": false,
					"internalType": "uint256",
					"name": "_newNonce",
					"type": "uint256"
				}
			],
			"name": "NonceChange",
			"type": "event"
		},
		{
			"anonymous": false,
			"inputs": [
				{
					"indexed": true,
					"internalType": "bytes32",
					"name": "_tx",
					"type": "bytes32"
				},
				{
					"indexed": false,
					"internalType": "uint256",
					"name": "_index",
					"type": "uint256"
				}
			],
			"name": "TxExecuted",
			"type": "event"
		},
		{
			"anonymous": false,
			"inputs": [
				{
					"indexed": true,
					"internalType": "bytes32",
					"name": "_tx",
					"type": "bytes32"
				},
				{
					"indexed": false,
					"internalType": "uint256",
					"name": "_index",
					"type": "uint256"
				},
				{
					"indexed": false,
					"internalType": "bytes",
					"name": "_reason",
					"type": "bytes"
				}
			],
			"name": "TxFailed",
			"type": "event"
		},
		{
			"inputs": [],
			"name": "SET_IMAGE_HASH_TYPE_HASH",
			"outputs": [
				{
					"internalType": "bytes32",
					"name": "",
					"type": "bytes32"
				}
			],
			"stateMutability": "view",
			"type": "function"
		},
		{
			"inputs": [
				{
					"internalType": "bytes",
					"name": "_code",
					"type": "bytes"
				}
			],
			"name": "createContract",
			"outputs": [
				{
					"internalType": "address",
					"name": "addr",
					"type": "address"
				}
			],
			"stateMutability": "payable",
			"type": "function"
		},
		{
			"inputs": [
				{
					"components": [
						{
							"internalType": "bool",
							"name": "delegateCall",
							"type": "bool"
						},
						{
							"internalType": "bool",
							"name": "revertOnError",
							"type": "bool"
						},
						{
							"internalType": "uint256",
							"name": "gasLimit",
							"type": "uint256"
						},
						{
							"internalType": "address",
							"name": "target",
							"type": "address"
						},
						{
							"internalType": "uint256",
							"name": "value",
							"type": "uint256"
						},
						{
							"internalType": "bytes",
							"name": "data",
							"type": "bytes"
						}
					],
					"internalType": "struct IModuleCalls.Transaction[]",
					"name": "_txs",
					"type": "tuple[]"
				},
				{
					"internalType": "uint256",
					"name": "",
					"type": "uint256"
				},
				{
					"internalType": "bytes",
					"name": "",
					"type": "bytes"
				}
			],
			"name": "execute",
			"outputs": [],
			"stateMutability": "nonpayable",
			"type": "function"
		},
		{
			"inputs": [
				{
					"internalType": "bytes32",
					"name": "_hash",
					"type": "bytes32"
				},
				{
					"internalType": "bytes",
					"name": "_signatures",
					"type": "bytes"
				}
			],
			"name": "isValidSignature",
			"outputs": [
				{
					"internalType": "bytes4",
					"name": "",
					"type": "bytes4"
				}
			],
			"stateMutability": "view",
			"type": "function"
		},
		{
			"inputs": [
				{
					"internalType": "bytes",
					"name": "_data",
					"type": "bytes"
				},
				{
					"internalType": "bytes",
					"name": "_signatures",
					"type": "bytes"
				}
			],
			"name": "isValidSignature",
			"outputs": [
				{
					"internalType": "bytes4",
					"name": "",
					"type": "bytes4"
				}
			],
			"stateMutability": "view",
			"type": "function"
		},
		{
			"inputs": [],
			"name": "nonce",
			"outputs": [
				{
					"internalType": "uint256",
					"name": "",
					"type": "uint256"
				}
			],
			"stateMutability": "view",
			"type": "function"
		},
		{
			"inputs": [
				{
					"internalType": "uint256",
					"name": "_space",
					"type": "uint256"
				}
			],
			"name": "readNonce",
			"outputs": [
				{
					"internalType": "uint256",
					"name": "",
					"type": "uint256"
				}
			],
			"stateMutability": "view",
			"type": "function"
		},
		{
			"inputs": [
				{
					"components": [
						{
							"internalType": "bool",
							"name": "delegateCall",
							"type": "bool"
						},
						{
							"internalType": "bool",
							"name": "revertOnError",
							"type": "bool"
						},
						{
							"internalType": "uint256",
							"name": "gasLimit",
							"type": "uint256"
						},
						{
							"internalType": "address",
							"name": "target",
							"type": "address"
						},
						{
							"internalType": "uint256",
							"name": "value",
							"type": "uint256"
						},
						{
							"internalType": "bytes",
							"name": "data",
							"type": "bytes"
						}
					],
					"internalType": "struct IModuleCalls.Transaction[]",
					"name": "_txs",
					"type": "tuple[]"
				}
			],
			"name": "selfExecute",
			"outputs": [],
			"stateMutability": "nonpayable",
			"type": "function"
		},
		{
			"inputs": [
				{
					"internalType": "bytes32",
					"name": "_digest",
					"type": "bytes32"
				},
				{
					"internalType": "bytes",
					"name": "_signature",
					"type": "bytes"
				}
			],
			"name": "signatureRecovery",
			"outputs": [
				{
					"internalType": "uint256",
					"name": "threshold",
					"type": "uint256"
				},
				{
					"internalType": "uint256",
					"name": "weight",
					"type": "uint256"
				},
				{
					"internalType": "bytes32",
					"name": "imageHash",
					"type": "bytes32"
				},
				{
					"internalType": "bytes32",
					"name": "subdigest",
					"type": "bytes32"
				},
				{
					"internalType": "uint256",
					"name": "checkpoint",
					"type": "uint256"
				}
			],
			"stateMutability": "view",
			"type": "function"
		},
		{
			"inputs": [
				{
					"internalType": "bytes4",
					"name": "_interfaceID",
					"type": "bytes4"
				}
			],
			"name": "supportsInterface",
			"outputs": [
				{
					"internalType": "bool",
					"name": "",
					"type": "bool"
				}
			],
			"stateMutability": "pure",
			"type": "function"
		},
		{
			"inputs": [
				{
					"internalType": "bytes32",
					"name": "_imageHash",
					"type": "bytes32"
				}
			],
			"name": "updateImageHash",
			"outputs": [],
			"stateMutability": "nonpayable",
			"type": "function"
		}
	]
}