{
	"sourcify-verified/1/0xfea230Ee243f88BC698dD8f1aE93F8301B6cdfaE/sources/contracts/modules/commons/ModuleNonce.sol": {
		"ModuleNonce": {
			"abi": [
				{
					"inputs": [
						{
							"internalType": "uint256",
							"name": "_space",
							"type": "uint256"
						},
						{
							"internalType": "uint256",
							"name": "_provided",
							"type": "uint256"
						},
						{
							"internalType": "uint256",
							"name": "_current",
							"type": "uint256"
						}
					],
					"name": "BadNonce",
					"type": "error"
				},
				{
					"anonymous": false,
					"inputs": [
						{
							"indexed": false,
							"internalType": "uint256",
							"name": "_space",
							"type": "uint256"
						},
						{
							"indexed": false,
							"internalType": "uint256",
							"name": "_newNonce",
							"type": "uint256"
						}
					],
					"name": "NonceChange",
					"type": "event"
				},
				{
					"inputs": [],
					"name": "nonce",
					"outputs": [
						{
							"internalType": "uint256",
							"name": "",
							"type": "uint256"
						}
					],
					"stateMutability": "view",
					"type": "function"
				},
				{
					"inputs": [
						{
							"internalType": "uint256",
							"name": "_space",
							"type": "uint256"
						}
					],
					"name": "readNonce",
					"outputs": [
						{
							"internalType": "uint256",
							"name": "",
							"type": "uint256"
						}
					],
					"stateMutability": "view",
					"type": "function"
				}
			],
			"devdoc": {
				"kind": "dev",
				"methods": {
					"nonce()": {
						"details": "The default nonce space is 0x00",
						"returns": {
							"_0": "The next nonce"
						}
					},
					"readNonce(uint256)": {
						"params": {
							"_space": "Nonce space, each space keeps an independent nonce count"
						},
						"returns": {
							"_0": "The next nonce"
						}
					}
				},
				"version": 1
			},
			"evm": {
				"assembly": "    /* \"sourcify-verified/1/0xfea230Ee243f88BC698dD8f1aE93F8301B6cdfaE/sources/contracts/modules/commons/ModuleNonce.sol\":145:2076  contract ModuleNonce {... */\n  mstore(0x40, 0x80)\n  callvalue\n  dup1\n  iszero\n  tag_1\n  jumpi\n  0x00\n  dup1\n  revert\ntag_1:\n  pop\n  dataSize(sub_0)\n  dup1\n  dataOffset(sub_0)\n  0x00\n  codecopy\n  0x00\n  return\nstop\n\nsub_0: assembly {\n        /* \"sourcify-verified/1/0xfea230Ee243f88BC698dD8f1aE93F8301B6cdfaE/sources/contracts/modules/commons/ModuleNonce.sol\":145:2076  contract ModuleNonce {... */\n      mstore(0x40, 0x80)\n      callvalue\n      dup1\n      iszero\n      tag_1\n      jumpi\n      0x00\n      dup1\n      revert\n    tag_1:\n      pop\n      jumpi(tag_2, lt(calldatasize, 0x04))\n      shr(0xe0, calldataload(0x00))\n      dup1\n      0x8c3f5563\n      eq\n      tag_3\n      jumpi\n      dup1\n      0xaffed0e0\n      eq\n      tag_4\n      jumpi\n    tag_2:\n      0x00\n      dup1\n      revert\n        /* \"sourcify-verified/1/0xfea230Ee243f88BC698dD8f1aE93F8301B6cdfaE/sources/contracts/modules/commons/ModuleNonce.sol\":938:1094  function readNonce(uint256 _space) public virtual view returns (uint256) {... */\n    tag_3:\n      tag_5\n      tag_6\n      calldatasize\n      0x04\n      tag_7\n      jump\t// in\n    tag_6:\n      tag_8\n      jump\t// in\n    tag_5:\n      mload(0x40)\n        /* \"#utility.yul\":345:370   */\n      swap1\n      dup2\n      mstore\n        /* \"#utility.yul\":333:335   */\n      0x20\n        /* \"#utility.yul\":318:336   */\n      add\n        /* \"sourcify-verified/1/0xfea230Ee243f88BC698dD8f1aE93F8301B6cdfaE/sources/contracts/modules/commons/ModuleNonce.sol\":938:1094  function readNonce(uint256 _space) public virtual view returns (uint256) {... */\n      mload(0x40)\n      dup1\n      swap2\n      sub\n      swap1\n      return\n        /* \"sourcify-verified/1/0xfea230Ee243f88BC698dD8f1aE93F8301B6cdfaE/sources/contracts/modules/commons/ModuleNonce.sol\":670:757  function nonce() external virtual view returns (uint256) {... */\n    tag_4:\n      tag_5\n      tag_12\n      jump\t// in\n        /* \"sourcify-verified/1/0xfea230Ee243f88BC698dD8f1aE93F8301B6cdfaE/sources/contracts/modules/commons/ModuleNonce.sol\":938:1094  function readNonce(uint256 _space) public virtual view returns (uint256) {... */\n    tag_8:\n        /* \"sourcify-verified/1/0xfea230Ee243f88BC698dD8f1aE93F8301B6cdfaE/sources/contracts/modules/commons/ModuleNonce.sol\":1002:1009  uint256 */\n      0x00\n        /* \"sourcify-verified/1/0xfea230Ee243f88BC698dD8f1aE93F8301B6cdfaE/sources/contracts/modules/commons/ModuleNonce.sol\":1032:1088  ModuleStorage.readBytes32Map(NONCE_KEY, bytes32(_space)) */\n      tag_15\n        /* \"sourcify-verified/1/0xfea230Ee243f88BC698dD8f1aE93F8301B6cdfaE/sources/contracts/modules/commons/ModuleNonce.sol\":453:519  0x8d0bf1fd623d628c741362c1289948e57b3e2905218c676d3e69abee36d6ae2e */\n      0x8d0bf1fd623d628c741362c1289948e57b3e2905218c676d3e69abee36d6ae2e\n        /* \"sourcify-verified/1/0xfea230Ee243f88BC698dD8f1aE93F8301B6cdfaE/sources/contracts/modules/commons/ModuleNonce.sol\":1080:1086  _space */\n      dup4\n        /* \"sourcify-verified/1/0xfea230Ee243f88BC698dD8f1aE93F8301B6cdfaE/sources/contracts/modules/commons/ModuleNonce.sol\":1032:1060  ModuleStorage.readBytes32Map */\n      tag_16\n        /* \"sourcify-verified/1/0xfea230Ee243f88BC698dD8f1aE93F8301B6cdfaE/sources/contracts/modules/commons/ModuleNonce.sol\":1032:1088  ModuleStorage.readBytes32Map(NONCE_KEY, bytes32(_space)) */\n      jump\t// in\n    tag_15:\n        /* \"sourcify-verified/1/0xfea230Ee243f88BC698dD8f1aE93F8301B6cdfaE/sources/contracts/modules/commons/ModuleNonce.sol\":1024:1089  uint256(ModuleStorage.readBytes32Map(NONCE_KEY, bytes32(_space))) */\n      swap3\n        /* \"sourcify-verified/1/0xfea230Ee243f88BC698dD8f1aE93F8301B6cdfaE/sources/contracts/modules/commons/ModuleNonce.sol\":938:1094  function readNonce(uint256 _space) public virtual view returns (uint256) {... */\n      swap2\n      pop\n      pop\n      jump\t// out\n        /* \"sourcify-verified/1/0xfea230Ee243f88BC698dD8f1aE93F8301B6cdfaE/sources/contracts/modules/commons/ModuleNonce.sol\":670:757  function nonce() external virtual view returns (uint256) {... */\n    tag_12:\n        /* \"sourcify-verified/1/0xfea230Ee243f88BC698dD8f1aE93F8301B6cdfaE/sources/contracts/modules/commons/ModuleNonce.sol\":718:725  uint256 */\n      0x00\n        /* \"sourcify-verified/1/0xfea230Ee243f88BC698dD8f1aE93F8301B6cdfaE/sources/contracts/modules/commons/ModuleNonce.sol\":740:752  readNonce(0) */\n      tag_18\n        /* \"sourcify-verified/1/0xfea230Ee243f88BC698dD8f1aE93F8301B6cdfaE/sources/contracts/modules/commons/ModuleNonce.sol\":750:751  0 */\n      0x00\n        /* \"sourcify-verified/1/0xfea230Ee243f88BC698dD8f1aE93F8301B6cdfaE/sources/contracts/modules/commons/ModuleNonce.sol\":740:749  readNonce */\n      tag_8\n        /* \"sourcify-verified/1/0xfea230Ee243f88BC698dD8f1aE93F8301B6cdfaE/sources/contracts/modules/commons/ModuleNonce.sol\":740:752  readNonce(0) */\n      jump\t// in\n    tag_18:\n        /* \"sourcify-verified/1/0xfea230Ee243f88BC698dD8f1aE93F8301B6cdfaE/sources/contracts/modules/commons/ModuleNonce.sol\":733:752  return readNonce(0) */\n      swap1\n      pop\n        /* \"sourcify-verified/1/0xfea230Ee243f88BC698dD8f1aE93F8301B6cdfaE/sources/contracts/modules/commons/ModuleNonce.sol\":670:757  function nonce() external virtual view returns (uint256) {... */\n      swap1\n      jump\t// out\n        /* \"sourcify-verified/1/0xfea230Ee243f88BC698dD8f1aE93F8301B6cdfaE/sources/contracts/modules/commons/ModuleStorage.sol\":490:677  function readBytes32Map(bytes32 _key, bytes32 _subKey) internal view returns (bytes32 val) {... */\n    tag_16:\n        /* \"sourcify-verified/1/0xfea230Ee243f88BC698dD8f1aE93F8301B6cdfaE/sources/contracts/modules/commons/ModuleStorage.sol\":568:579  bytes32 val */\n      0x00\n        /* \"sourcify-verified/1/0xfea230Ee243f88BC698dD8f1aE93F8301B6cdfaE/sources/contracts/modules/commons/ModuleStorage.sol\":587:598  bytes32 key */\n      dup1\n        /* \"sourcify-verified/1/0xfea230Ee243f88BC698dD8f1aE93F8301B6cdfaE/sources/contracts/modules/commons/ModuleStorage.sol\":622:626  _key */\n      dup4\n        /* \"sourcify-verified/1/0xfea230Ee243f88BC698dD8f1aE93F8301B6cdfaE/sources/contracts/modules/commons/ModuleStorage.sol\":628:635  _subKey */\n      dup4\n        /* \"sourcify-verified/1/0xfea230Ee243f88BC698dD8f1aE93F8301B6cdfaE/sources/contracts/modules/commons/ModuleStorage.sol\":611:636  abi.encode(_key, _subKey) */\n      add(0x20, mload(0x40))\n      tag_20\n      swap3\n      swap2\n      swap1\n        /* \"#utility.yul\":555:580   */\n      swap2\n      dup3\n      mstore\n        /* \"#utility.yul\":611:613   */\n      0x20\n        /* \"#utility.yul\":596:614   */\n      dup3\n      add\n        /* \"#utility.yul\":589:623   */\n      mstore\n        /* \"#utility.yul\":543:545   */\n      0x40\n        /* \"#utility.yul\":528:546   */\n      add\n      swap1\n        /* \"#utility.yul\":381:629   */\n      jump\n        /* \"sourcify-verified/1/0xfea230Ee243f88BC698dD8f1aE93F8301B6cdfaE/sources/contracts/modules/commons/ModuleStorage.sol\":611:636  abi.encode(_key, _subKey) */\n    tag_20:\n      0x40\n      dup1\n      mload\n      0xffffffffffffffffffffffffffffffffffffffffffffffffffffffffffffffe0\n      dup2\n      dup5\n      sub\n      add\n      dup2\n      mstore\n      swap2\n      swap1\n      mstore\n        /* \"sourcify-verified/1/0xfea230Ee243f88BC698dD8f1aE93F8301B6cdfaE/sources/contracts/modules/commons/ModuleStorage.sol\":601:637  keccak256(abi.encode(_key, _subKey)) */\n      dup1\n      mload\n        /* \"sourcify-verified/1/0xfea230Ee243f88BC698dD8f1aE93F8301B6cdfaE/sources/contracts/modules/commons/ModuleStorage.sol\":611:636  abi.encode(_key, _subKey) */\n      0x20\n        /* \"sourcify-verified/1/0xfea230Ee243f88BC698dD8f1aE93F8301B6cdfaE/sources/contracts/modules/commons/ModuleStorage.sol\":601:637  keccak256(abi.encode(_key, _subKey)) */\n      swap1\n      swap2\n      add\n      keccak256\n        /* \"sourcify-verified/1/0xfea230Ee243f88BC698dD8f1aE93F8301B6cdfaE/sources/contracts/modules/commons/ModuleStorage.sol\":661:671  sload(key) */\n      sload\n      swap5\n        /* \"sourcify-verified/1/0xfea230Ee243f88BC698dD8f1aE93F8301B6cdfaE/sources/contracts/modules/commons/ModuleStorage.sol\":490:677  function readBytes32Map(bytes32 _key, bytes32 _subKey) internal view returns (bytes32 val) {... */\n      swap4\n      pop\n      pop\n      pop\n      pop\n      jump\t// out\n        /* \"#utility.yul\":14:194   */\n    tag_7:\n        /* \"#utility.yul\":73:79   */\n      0x00\n        /* \"#utility.yul\":126:128   */\n      0x20\n        /* \"#utility.yul\":114:123   */\n      dup3\n        /* \"#utility.yul\":105:112   */\n      dup5\n        /* \"#utility.yul\":101:124   */\n      sub\n        /* \"#utility.yul\":97:129   */\n      slt\n        /* \"#utility.yul\":94:146   */\n      iszero\n      tag_24\n      jumpi\n        /* \"#utility.yul\":142:143   */\n      0x00\n        /* \"#utility.yul\":139:140   */\n      dup1\n        /* \"#utility.yul\":132:144   */\n      revert\n        /* \"#utility.yul\":94:146   */\n    tag_24:\n      pop\n        /* \"#utility.yul\":165:188   */\n      calldataload\n      swap2\n        /* \"#utility.yul\":14:194   */\n      swap1\n      pop\n      jump\t// out\n\n    auxdata: 0xa264697066735822122096307c37b71eb1ad75d89220df55103f539339b39b69638a2d573cf67d84ea6164736f6c63430008120033\n}\n",
				"bytecode": {
					"linkReferences": {},
					"object": "608060405234801561001057600080fd5b50610158806100206000396000f3fe608060405234801561001057600080fd5b50600436106100365760003560e01c80638c3f55631461003b578063affed0e014610060575b600080fd5b61004e610049366004610109565b610068565b60405190815260200160405180910390f35b61004e61009a565b60006100947f8d0bf1fd623d628c741362c1289948e57b3e2905218c676d3e69abee36d6ae2e836100ab565b92915050565b60006100a66000610068565b905090565b60008083836040516020016100ca929190918252602082015260400190565b604080517fffffffffffffffffffffffffffffffffffffffffffffffffffffffffffffffe0818403018152919052805160209091012054949350505050565b60006020828403121561011b57600080fd5b503591905056fea264697066735822122096307c37b71eb1ad75d89220df55103f539339b39b69638a2d573cf67d84ea6164736f6c63430008120033",
					"opcodes": "PUSH1 0x80 PUSH1 0x40 MSTORE CALLVALUE DUP1 ISZERO PUSH2 0x10 JUMPI PUSH1 0x0 DUP1 REVERT JUMPDEST POP PUSH2 0x158 DUP1 PUSH2 0x20 PUSH1 0x0 CODECOPY PUSH1 0x0 RETURN INVALID PUSH1 0x80 PUSH1 0x40 MSTORE CALLVALUE DUP1 ISZERO PUSH2 0x10 JUMPI PUSH1 0x0 DUP1 REVERT JUMPDEST POP PUSH1 0x4 CALLDATASIZE LT PUSH2 0x36 JUMPI PUSH1 0x0 CALLDATALOAD PUSH1 0xE0 SHR DUP1 PUSH4 0x8C3F5563 EQ PUSH2 0x3B JUMPI DUP1 PUSH4 0xAFFED0E0 EQ PUSH2 0x60 JUMPI JUMPDEST PUSH1 0x0 DUP1 REVERT JUMPDEST PUSH2 0x4E PUSH2 0x49 CALLDATASIZE PUSH1 0x4 PUSH2 0x109 JUMP JUMPDEST PUSH2 0x68 JUMP JUMPDEST PUSH1 0x40 MLOAD SWAP1 DUP2 MSTORE PUSH1 0x20 ADD PUSH1 0x40 MLOAD DUP1 SWAP2 SUB SWAP1 RETURN JUMPDEST PUSH2 0x4E PUSH2 0x9A JUMP JUMPDEST PUSH1 0x0 PUSH2 0x94 PUSH32 0x8D0BF1FD623D628C741362C1289948E57B3E2905218C676D3E69ABEE36D6AE2E DUP4 PUSH2 0xAB JUMP JUMPDEST SWAP3 SWAP2 POP POP JUMP JUMPDEST PUSH1 0x0 PUSH2 0xA6 PUSH1 0x0 PUSH2 0x68 JUMP JUMPDEST SWAP1 POP SWAP1 JUMP JUMPDEST PUSH1 0x0 DUP1 DUP4 DUP4 PUSH1 0x40 MLOAD PUSH1 0x20 ADD PUSH2 0xCA SWAP3 SWAP2 SWAP1 SWAP2 DUP3 MSTORE PUSH1 0x20 DUP3 ADD MSTORE PUSH1 0x40 ADD SWAP1 JUMP JUMPDEST PUSH1 0x40 DUP1 MLOAD PUSH32 0xFFFFFFFFFFFFFFFFFFFFFFFFFFFFFFFFFFFFFFFFFFFFFFFFFFFFFFFFFFFFFFE0 DUP2 DUP5 SUB ADD DUP2 MSTORE SWAP2 SWAP1 MSTORE DUP1 MLOAD PUSH1 0x20 SWAP1 SWAP2 ADD KECCAK256 SLOAD SWAP5 SWAP4 POP POP POP POP JUMP JUMPDEST PUSH1 0x0 PUSH1 0x20 DUP3 DUP5 SUB SLT ISZERO PUSH2 0x11B JUMPI PUSH1 0x0 DUP1 REVERT JUMPDEST POP CALLDATALOAD SWAP2 SWAP1 POP JUMP INVALID LOG2 PUSH5 0x6970667358 0x22 SLT KECCAK256 SWAP7 ADDRESS PUSH29 0x37B71EB1AD75D89220DF55103F539339B39B69638A2D573CF67D84EA61 PUSH5 0x736F6C6343 STOP ADDMOD SLT STOP CALLER "
				},
				"gasEstimates": {
					"creation": {
						"codeDepositCost": "68800",
						"executionCost": "117",
						"totalCost": "68917"
					},
					"external": {
						"nonce()": "2567",
						"readNonce(uint256)": "2584"
					},
					"internal": {
						"_validateNonce(uint256)": "infinite",
						"_writeNonce(uint256,uint256)": "infinite"
					}
				},
				"methodIdentifiers": {
					"nonce()": "affed0e0",
					"readNonce(uint256)": "8c3f5563"
				}
			},
			"storageLayout": {
				"storage": [],
				"types": null
			},
			"userdoc": {
				"kind": "user",
				"methods": {
					"nonce()": {
						"notice": "Returns the next nonce of the default nonce space"
					},
					"readNonce(uint256)": {
						"notice": "Returns the next nonce of the given nonce space"
					}
				},
				"version": 1
			}
		}
	}
}