{
	"sourcify-verified/1/0xfea230Ee243f88BC698dD8f1aE93F8301B6cdfaE/sources/contracts/modules/GuestModule.sol": {
		"GuestModule": {
			"abi": [
				{
					"inputs": [
						{
							"internalType": "uint256",
							"name": "_space",
							"type": "uint256"
						},
						{
							"internalType": "uint256",
							"name": "_provided",
							"type": "uint256"
						},
						{
							"internalType": "uint256",
							"name": "_current",
							"type": "uint256"
						}
					],
					"name": "BadNonce",
					"type": "error"
				},
				{
					"inputs": [
						{
							"internalType": "bytes",
							"name": "_code",
							"type": "bytes"
						}
					],
					"name": "CreateFailed",
					"type": "error"
				},
				{
					"inputs": [
						{
							"internalType": "uint256",
							"name": "_index",
							"type": "uint256"
						}
					],
					"name": "DelegateCallNotAllowed",
					"type": "error"
				},
				{
					"inputs": [],
					"name": "EmptySignature",
					"type": "error"
				},
				{
					"inputs": [],
					"name": "ImageHashIsZero",
					"type": "error"
				},
				{
					"inputs": [
						{
							"internalType": "bytes32",
							"name": "_hash",
							"type": "bytes32"
						},
						{
							"internalType": "address",
							"name": "_addr",
							"type": "address"
						},
						{
							"internalType": "bytes",
							"name": "_signature",
							"type": "bytes"
						}
					],
					"name": "InvalidNestedSignature",
					"type": "error"
				},
				{
					"inputs": [
						{
							"internalType": "bytes",
							"name": "_signature",
							"type": "bytes"
						},
						{
							"internalType": "bytes32",
							"name": "_s",
							"type": "bytes32"
						}
					],
					"name": "InvalidSValue",
					"type": "error"
				},
				{
					"inputs": [
						{
							"internalType": "bytes32",
							"name": "_hash",
							"type": "bytes32"
						},
						{
							"internalType": "bytes",
							"name": "_signature",
							"type": "bytes"
						}
					],
					"name": "InvalidSignature",
					"type": "error"
				},
				{
					"inputs": [
						{
							"internalType": "uint256",
							"name": "_flag",
							"type": "uint256"
						}
					],
					"name": "InvalidSignatureFlag",
					"type": "error"
				},
				{
					"inputs": [
						{
							"internalType": "bytes",
							"name": "_signature",
							"type": "bytes"
						}
					],
					"name": "InvalidSignatureLength",
					"type": "error"
				},
				{
					"inputs": [
						{
							"internalType": "bytes1",
							"name": "_type",
							"type": "bytes1"
						}
					],
					"name": "InvalidSignatureType",
					"type": "error"
				},
				{
					"inputs": [
						{
							"internalType": "bytes",
							"name": "_signature",
							"type": "bytes"
						},
						{
							"internalType": "uint256",
							"name": "_v",
							"type": "uint256"
						}
					],
					"name": "InvalidVValue",
					"type": "error"
				},
				{
					"inputs": [
						{
							"internalType": "bytes",
							"name": "_signature",
							"type": "bytes"
						},
						{
							"internalType": "uint256",
							"name": "threshold",
							"type": "uint256"
						},
						{
							"internalType": "uint256",
							"name": "_weight",
							"type": "uint256"
						}
					],
					"name": "LowWeightChainedSignature",
					"type": "error"
				},
				{
					"inputs": [
						{
							"internalType": "uint256",
							"name": "_index",
							"type": "uint256"
						},
						{
							"internalType": "uint256",
							"name": "_requested",
							"type": "uint256"
						},
						{
							"internalType": "uint256",
							"name": "_available",
							"type": "uint256"
						}
					],
					"name": "NotEnoughGas",
					"type": "error"
				},
				{
					"inputs": [],
					"name": "NotSupported",
					"type": "error"
				},
				{
					"inputs": [],
					"name": "OnlyDelegatecall",
					"type": "error"
				},
				{
					"inputs": [
						{
							"internalType": "address",
							"name": "_sender",
							"type": "address"
						},
						{
							"internalType": "address",
							"name": "_self",
							"type": "address"
						}
					],
					"name": "OnlySelfAuth",
					"type": "error"
				},
				{
					"inputs": [
						{
							"internalType": "bytes",
							"name": "_signature",
							"type": "bytes"
						}
					],
					"name": "SignerIsAddress0",
					"type": "error"
				},
				{
					"inputs": [
						{
							"internalType": "bytes",
							"name": "_signature",
							"type": "bytes"
						},
						{
							"internalType": "uint256",
							"name": "_type",
							"type": "uint256"
						},
						{
							"internalType": "bool",
							"name": "_recoverMode",
							"type": "bool"
						}
					],
					"name": "UnsupportedSignatureType",
					"type": "error"
				},
				{
					"inputs": [
						{
							"internalType": "uint256",
							"name": "_current",
							"type": "uint256"
						},
						{
							"internalType": "uint256",
							"name": "_prev",
							"type": "uint256"
						}
					],
					"name": "WrongChainedCheckpointOrder",
					"type": "error"
				},
				{
					"anonymous": false,
					"inputs": [
						{
							"indexed": false,
							"internalType": "address",
							"name": "_contract",
							"type": "address"
						}
					],
					"name": "CreatedContract",
					"type": "event"
				},
				{
					"anonymous": false,
					"inputs": [
						{
							"indexed": false,
							"internalType": "bytes32",
							"name": "newImageHash",
							"type": "bytes32"
						}
					],
					"name": "ImageHashUpdated",
					"type": "event"
				},
				{
					"anonymous": false,
					"inputs": [
						{
							"indexed": false,
							"internalType": "uint256",
							"name": "_space",
							"type": "uint256"
						},
						{
							"indexed": false,
							"internalType": "uint256",
							"name": "_newNonce",
							"type": "uint256"
						}
					],
					"name": "NonceChange",
					"type": "event"
				},
				{
					"anonymous": false,
					"inputs": [
						{
							"indexed": true,
							"internalType": "bytes32",
							"name": "_tx",
							"type": "bytes32"
						},
						{
							"indexed": false,
							"internalType": "uint256",
							"name": "_index",
							"type": "uint256"
						}
					],
					"name": "TxExecuted",
					"type": "event"
				},
				{
					"anonymous": false,
					"inputs": [
						{
							"indexed": true,
							"internalType": "bytes32",
							"name": "_tx",
							"type": "bytes32"
						},
						{
							"indexed": false,
							"internalType": "uint256",
							"name": "_index",
							"type": "uint256"
						},
						{
							"indexed": false,
							"internalType": "bytes",
							"name": "_reason",
							"type": "bytes"
						}
					],
					"name": "TxFailed",
					"type": "event"
				},
				{
					"inputs": [],
					"name": "SET_IMAGE_HASH_TYPE_HASH",
					"outputs": [
						{
							"internalType": "bytes32",
							"name": "",
							"type": "bytes32"
						}
					],
					"stateMutability": "view",
					"type": "function"
				},
				{
					"inputs": [
						{
							"internalType": "bytes",
							"name": "_code",
							"type": "bytes"
						}
					],
					"name": "createContract",
					"outputs": [
						{
							"internalType": "address",
							"name": "addr",
							"type": "address"
						}
					],
					"stateMutability": "payable",
					"type": "function"
				},
				{
					"inputs": [
						{
							"components": [
								{
									"internalType": "bool",
									"name": "delegateCall",
									"type": "bool"
								},
								{
									"internalType": "bool",
									"name": "revertOnError",
									"type": "bool"
								},
								{
									"internalType": "uint256",
									"name": "gasLimit",
									"type": "uint256"
								},
								{
									"internalType": "address",
									"name": "target",
									"type": "address"
								},
								{
									"internalType": "uint256",
									"name": "value",
									"type": "uint256"
								},
								{
									"internalType": "bytes",
									"name": "data",
									"type": "bytes"
								}
							],
							"internalType": "struct IModuleCalls.Transaction[]",
							"name": "_txs",
							"type": "tuple[]"
						},
						{
							"internalType": "uint256",
							"name": "",
							"type": "uint256"
						},
						{
							"internalType": "bytes",
							"name": "",
							"type": "bytes"
						}
					],
					"name": "execute",
					"outputs": [],
					"stateMutability": "nonpayable",
					"type": "function"
				},
				{
					"inputs": [
						{
							"internalType": "bytes32",
							"name": "_hash",
							"type": "bytes32"
						},
						{
							"internalType": "bytes",
							"name": "_signatures",
							"type": "bytes"
						}
					],
					"name": "isValidSignature",
					"outputs": [
						{
							"internalType": "bytes4",
							"name": "",
							"type": "bytes4"
						}
					],
					"stateMutability": "view",
					"type": "function"
				},
				{
					"inputs": [
						{
							"internalType": "bytes",
							"name": "_data",
							"type": "bytes"
						},
						{
							"internalType": "bytes",
							"name": "_signatures",
							"type": "bytes"
						}
					],
					"name": "isValidSignature",
					"outputs": [
						{
							"internalType": "bytes4",
							"name": "",
							"type": "bytes4"
						}
					],
					"stateMutability": "view",
					"type": "function"
				},
				{
					"inputs": [],
					"name": "nonce",
					"outputs": [
						{
							"internalType": "uint256",
							"name": "",
							"type": "uint256"
						}
					],
					"stateMutability": "view",
					"type": "function"
				},
				{
					"inputs": [
						{
							"internalType": "uint256",
							"name": "_space",
							"type": "uint256"
						}
					],
					"name": "readNonce",
					"outputs": [
						{
							"internalType": "uint256",
							"name": "",
							"type": "uint256"
						}
					],
					"stateMutability": "view",
					"type": "function"
				},
				{
					"inputs": [
						{
							"components": [
								{
									"internalType": "bool",
									"name": "delegateCall",
									"type": "bool"
								},
								{
									"internalType": "bool",
									"name": "revertOnError",
									"type": "bool"
								},
								{
									"internalType": "uint256",
									"name": "gasLimit",
									"type": "uint256"
								},
								{
									"internalType": "address",
									"name": "target",
									"type": "address"
								},
								{
									"internalType": "uint256",
									"name": "value",
									"type": "uint256"
								},
								{
									"internalType": "bytes",
									"name": "data",
									"type": "bytes"
								}
							],
							"internalType": "struct IModuleCalls.Transaction[]",
							"name": "_txs",
							"type": "tuple[]"
						}
					],
					"name": "selfExecute",
					"outputs": [],
					"stateMutability": "nonpayable",
					"type": "function"
				},
				{
					"inputs": [
						{
							"internalType": "bytes32",
							"name": "_digest",
							"type": "bytes32"
						},
						{
							"internalType": "bytes",
							"name": "_signature",
							"type": "bytes"
						}
					],
					"name": "signatureRecovery",
					"outputs": [
						{
							"internalType": "uint256",
							"name": "threshold",
							"type": "uint256"
						},
						{
							"internalType": "uint256",
							"name": "weight",
							"type": "uint256"
						},
						{
							"internalType": "bytes32",
							"name": "imageHash",
							"type": "bytes32"
						},
						{
							"internalType": "bytes32",
							"name": "subdigest",
							"type": "bytes32"
						},
						{
							"internalType": "uint256",
							"name": "checkpoint",
							"type": "uint256"
						}
					],
					"stateMutability": "view",
					"type": "function"
				},
				{
					"inputs": [
						{
							"internalType": "bytes4",
							"name": "_interfaceID",
							"type": "bytes4"
						}
					],
					"name": "supportsInterface",
					"outputs": [
						{
							"internalType": "bool",
							"name": "",
							"type": "bool"
						}
					],
					"stateMutability": "pure",
					"type": "function"
				},
				{
					"inputs": [
						{
							"internalType": "bytes32",
							"name": "_imageHash",
							"type": "bytes32"
						}
					],
					"name": "updateImageHash",
					"outputs": [],
					"stateMutability": "nonpayable",
					"type": "function"
				}
			],
			"devdoc": {
				"kind": "dev",
				"methods": {
					"createContract(bytes)": {
						"params": {
							"_code": "Creation code of the contract"
						},
						"returns": {
							"addr": "The address of the created contract"
						}
					},
					"execute((bool,bool,uint256,address,uint256,bytes)[],uint256,bytes)": {
						"params": {
							"_txs": "Transactions to process"
						}
					},
					"isValidSignature(bytes,bytes)": {
						"details": "MUST return the correct magic value if the signature provided is valid for the provided data   > The bytes4 magic value to return when signature is valid is 0x20c13b0b : bytes4(keccak256(\"isValidSignature(bytes,bytes)\"))",
						"params": {
							"_data": "Arbitrary length data signed on the behalf of address(this)",
							"_signatures": "Signature byte array associated with _data.                    Encoded as abi.encode(Signature[], Configs)"
						},
						"returns": {
							"_0": "magicValue Magic value 0x20c13b0b if the signature is valid and 0x0 otherwise"
						}
					},
					"isValidSignature(bytes32,bytes)": {
						"details": "MUST return the correct magic value if the signature provided is valid for the provided hash   > The bytes4 magic value to return when signature is valid is 0x1626ba7e : bytes4(keccak256(\"isValidSignature(bytes32,bytes)\"))",
						"params": {
							"_hash": "keccak256 hash that was signed",
							"_signatures": "Signature byte array associated with _data.                    Encoded as abi.encode(Signature[], Configs)"
						},
						"returns": {
							"_0": "magicValue Magic value 0x1626ba7e if the signature is valid and 0x0 otherwise"
						}
					},
					"nonce()": {
						"details": "The default nonce space is 0x00",
						"returns": {
							"_0": "The next nonce"
						}
					},
					"readNonce(uint256)": {
						"params": {
							"_space": "Nonce space, each space keeps an independent nonce count"
						},
						"returns": {
							"_0": "The next nonce"
						}
					},
					"selfExecute((bool,bool,uint256,address,uint256,bytes)[])": {
						"params": {
							"_txs": "Transactions to process"
						}
					},
					"signatureRecovery(bytes32,bytes)": {
						"details": "The signature must be prefixed with a type byte, which is used to determine the recovery method.",
						"params": {
							"_digest": "Digest of the signed data.",
							"_signature": "A Sequence signature."
						},
						"returns": {
							"checkpoint": "A nonce that is incremented every time a new configuration is set.",
							"imageHash": "The imageHash of the configuration that signed the message.",
							"subdigest": "A modified version of the original digest, unique for each wallet/network.",
							"threshold": "The required number of signatures needed to consider the signature valid.",
							"weight": "The actual number of signatures collected in the signature."
						}
					},
					"supportsInterface(bytes4)": {
						"params": {
							"_interfaceID": "The interface identifier, as specified in ERC-165"
						},
						"returns": {
							"_0": "`true` if the contract implements `_interfaceID`"
						}
					},
					"updateImageHash(bytes32)": {
						"params": {
							"_imageHash": "New required image hash of the signature"
						}
					}
				},
				"version": 1
			},
			"evm": {
				"assembly": "    /* \"sourcify-verified/1/0xfea230Ee243f88BC698dD8f1aE93F8301B6cdfaE/sources/contracts/modules/GuestModule.sol\":640:3333  contract GuestModule is... */\n  mstore(0x40, 0xa0)\n  callvalue\n  dup1\n  iszero\n  tag_1\n  jumpi\n  0x00\n  dup1\n  revert\ntag_1:\n  pop\n    /* \"sourcify-verified/1/0xfea230Ee243f88BC698dD8f1aE93F8301B6cdfaE/sources/contracts/modules/commons/ModuleOnlyDelegatecall.sol\":200:204  this */\n  address\n    /* \"sourcify-verified/1/0xfea230Ee243f88BC698dD8f1aE93F8301B6cdfaE/sources/contracts/modules/commons/ModuleOnlyDelegatecall.sol\":185:205  self = address(this) */\n  0x80\n  mstore\n    /* \"sourcify-verified/1/0xfea230Ee243f88BC698dD8f1aE93F8301B6cdfaE/sources/contracts/modules/GuestModule.sol\":640:3333  contract GuestModule is... */\n  mload(0x80)\n  codecopy(0x00, dataOffset(sub_0), dataSize(sub_0))\n  0x00\n  assignImmutable(\"0x4ffc9d227228e624d76834105f24ceb5cb9c5a8675150ad2031c88a10259e303\")\n  return(0x00, dataSize(sub_0))\nstop\n\nsub_0: assembly {\n        /* \"sourcify-verified/1/0xfea230Ee243f88BC698dD8f1aE93F8301B6cdfaE/sources/contracts/modules/GuestModule.sol\":640:3333  contract GuestModule is... */\n      mstore(0x40, 0x80)\n      jumpi(tag_1, lt(calldatasize, 0x04))\n      shr(0xe0, calldataload(0x00))\n      dup1\n      0x61c2926c\n      gt\n      tag_13\n      jumpi\n      dup1\n      0x8c3f5563\n      gt\n      tag_14\n      jumpi\n      dup1\n      0x8c3f5563\n      eq\n      tag_10\n      jumpi\n      dup1\n      0x90042baf\n      eq\n      tag_11\n      jumpi\n      dup1\n      0xaffed0e0\n      eq\n      tag_12\n      jumpi\n      0x00\n      dup1\n      revert\n    tag_14:\n      dup1\n      0x61c2926c\n      eq\n      tag_7\n      jumpi\n      dup1\n      0x7a9a1628\n      eq\n      tag_8\n      jumpi\n      dup1\n      0x853c5068\n      eq\n      tag_9\n      jumpi\n      0x00\n      dup1\n      revert\n    tag_13:\n      dup1\n      0x20c13b0b\n      gt\n      tag_15\n      jumpi\n      dup1\n      0x20c13b0b\n      eq\n      tag_4\n      jumpi\n      dup1\n      0x29561426\n      eq\n      tag_5\n      jumpi\n      dup1\n      0x57c56d6b\n      eq\n      tag_6\n      jumpi\n      0x00\n      dup1\n      revert\n    tag_15:\n      dup1\n      0x01ffc9a7\n      eq\n      tag_2\n      jumpi\n      dup1\n      0x1626ba7e\n      eq\n      tag_3\n      jumpi\n    tag_1:\n      0x00\n      dup1\n      revert\n        /* \"sourcify-verified/1/0xfea230Ee243f88BC698dD8f1aE93F8301B6cdfaE/sources/contracts/modules/GuestModule.sol\":3127:3331  function supportsInterface(... */\n    tag_2:\n      callvalue\n      dup1\n      iszero\n      tag_16\n      jumpi\n      0x00\n      dup1\n      revert\n    tag_16:\n      pop\n      tag_17\n      tag_18\n      calldatasize\n      0x04\n      tag_19\n      jump\t// in\n    tag_18:\n      tag_20\n      jump\t// in\n    tag_17:\n      mload(0x40)\n        /* \"#utility.yul\":611:625   */\n      swap1\n      iszero\n        /* \"#utility.yul\":604:626   */\n      iszero\n        /* \"#utility.yul\":586:627   */\n      dup2\n      mstore\n        /* \"#utility.yul\":574:576   */\n      0x20\n        /* \"#utility.yul\":559:577   */\n      add\n        /* \"sourcify-verified/1/0xfea230Ee243f88BC698dD8f1aE93F8301B6cdfaE/sources/contracts/modules/GuestModule.sol\":3127:3331  function supportsInterface(... */\n    tag_21:\n      mload(0x40)\n      dup1\n      swap2\n      sub\n      swap1\n      return\n        /* \"sourcify-verified/1/0xfea230Ee243f88BC698dD8f1aE93F8301B6cdfaE/sources/contracts/modules/commons/ModuleAuth.sol\":5489:5805  function isValidSignature(... */\n    tag_3:\n      callvalue\n      dup1\n      iszero\n      tag_23\n      jumpi\n      0x00\n      dup1\n      revert\n    tag_23:\n      pop\n      tag_24\n      tag_25\n      calldatasize\n      0x04\n      tag_26\n      jump\t// in\n    tag_25:\n      tag_27\n      jump\t// in\n    tag_24:\n      mload(0x40)\n        /* \"#utility.yul\":1646:1712   */\n      0xffffffff00000000000000000000000000000000000000000000000000000000\n        /* \"#utility.yul\":1634:1713   */\n      swap1\n      swap2\n      and\n        /* \"#utility.yul\":1616:1714   */\n      dup2\n      mstore\n        /* \"#utility.yul\":1604:1606   */\n      0x20\n        /* \"#utility.yul\":1589:1607   */\n      add\n        /* \"sourcify-verified/1/0xfea230Ee243f88BC698dD8f1aE93F8301B6cdfaE/sources/contracts/modules/commons/ModuleAuth.sol\":5489:5805  function isValidSignature(... */\n      tag_21\n        /* \"#utility.yul\":1472:1720   */\n      jump\n        /* \"sourcify-verified/1/0xfea230Ee243f88BC698dD8f1aE93F8301B6cdfaE/sources/contracts/modules/commons/ModuleAuth.sol\":4525:4857  function isValidSignature(... */\n    tag_4:\n      callvalue\n      dup1\n      iszero\n      tag_30\n      jumpi\n      0x00\n      dup1\n      revert\n    tag_30:\n      pop\n      tag_24\n      tag_32\n      calldatasize\n      0x04\n      tag_33\n      jump\t// in\n    tag_32:\n      tag_34\n      jump\t// in\n        /* \"sourcify-verified/1/0xfea230Ee243f88BC698dD8f1aE93F8301B6cdfaE/sources/contracts/modules/commons/ModuleAuth.sol\":6456:6575  function updateImageHash(bytes32 _imageHash) external override virtual onlySelf {... */\n    tag_5:\n      callvalue\n      dup1\n      iszero\n      tag_36\n      jumpi\n      0x00\n      dup1\n      revert\n    tag_36:\n      pop\n      tag_37\n      tag_38\n      calldatasize\n      0x04\n      tag_39\n      jump\t// in\n    tag_38:\n      tag_40\n      jump\t// in\n    tag_37:\n      stop\n        /* \"sourcify-verified/1/0xfea230Ee243f88BC698dD8f1aE93F8301B6cdfaE/sources/contracts/modules/commons/submodules/auth/SequenceChainedSig.sol\":811:906  bytes32 public constant SET_IMAGE_HASH_TYPE_HASH = keccak256(\"SetImageHash(bytes32 imageHash)\") */\n    tag_6:\n      callvalue\n      dup1\n      iszero\n      tag_41\n      jumpi\n      0x00\n      dup1\n      revert\n    tag_41:\n      pop\n      tag_42\n        /* \"sourcify-verified/1/0xfea230Ee243f88BC698dD8f1aE93F8301B6cdfaE/sources/contracts/modules/commons/submodules/auth/SequenceChainedSig.sol\":862:906  keccak256(\"SetImageHash(bytes32 imageHash)\") */\n      0x8713a7c4465f6fbee2b6e9d6646d1d9f83fec929edfc4baf661f3c865bdd04d1\n        /* \"sourcify-verified/1/0xfea230Ee243f88BC698dD8f1aE93F8301B6cdfaE/sources/contracts/modules/commons/submodules/auth/SequenceChainedSig.sol\":811:906  bytes32 public constant SET_IMAGE_HASH_TYPE_HASH = keccak256(\"SetImageHash(bytes32 imageHash)\") */\n      dup2\n      jump\n    tag_42:\n      mload(0x40)\n        /* \"#utility.yul\":2778:2803   */\n      swap1\n      dup2\n      mstore\n        /* \"#utility.yul\":2766:2768   */\n      0x20\n        /* \"#utility.yul\":2751:2769   */\n      add\n        /* \"sourcify-verified/1/0xfea230Ee243f88BC698dD8f1aE93F8301B6cdfaE/sources/contracts/modules/commons/submodules/auth/SequenceChainedSig.sol\":811:906  bytes32 public constant SET_IMAGE_HASH_TYPE_HASH = keccak256(\"SetImageHash(bytes32 imageHash)\") */\n      tag_21\n        /* \"#utility.yul\":2632:2809   */\n      jump\n        /* \"sourcify-verified/1/0xfea230Ee243f88BC698dD8f1aE93F8301B6cdfaE/sources/contracts/modules/GuestModule.sol\":1290:1552  function selfExecute(... */\n    tag_7:\n      callvalue\n      dup1\n      iszero\n      tag_46\n      jumpi\n      0x00\n      dup1\n      revert\n    tag_46:\n      pop\n      tag_37\n      tag_48\n      calldatasize\n      0x04\n      tag_49\n      jump\t// in\n    tag_48:\n      tag_50\n      jump\t// in\n        /* \"sourcify-verified/1/0xfea230Ee243f88BC698dD8f1aE93F8301B6cdfaE/sources/contracts/modules/GuestModule.sol\":890:1182  function execute(... */\n    tag_8:\n      callvalue\n      dup1\n      iszero\n      tag_51\n      jumpi\n      0x00\n      dup1\n      revert\n    tag_51:\n      pop\n      tag_37\n      tag_53\n      calldatasize\n      0x04\n      tag_54\n      jump\t// in\n    tag_53:\n      tag_55\n      jump\t// in\n        /* \"sourcify-verified/1/0xfea230Ee243f88BC698dD8f1aE93F8301B6cdfaE/sources/contracts/modules/commons/ModuleAuth.sol\":1675:3161  function signatureRecovery(... */\n    tag_9:\n      callvalue\n      dup1\n      iszero\n      tag_56\n      jumpi\n      0x00\n      dup1\n      revert\n    tag_56:\n      pop\n      tag_57\n      tag_58\n      calldatasize\n      0x04\n      tag_26\n      jump\t// in\n    tag_58:\n      tag_59\n      jump\t// in\n    tag_57:\n      0x40\n      dup1\n      mload\n        /* \"#utility.yul\":4827:4852   */\n      swap6\n      dup7\n      mstore\n        /* \"#utility.yul\":4883:4885   */\n      0x20\n        /* \"#utility.yul\":4868:4886   */\n      dup7\n      add\n        /* \"#utility.yul\":4861:4895   */\n      swap5\n      swap1\n      swap5\n      mstore\n        /* \"#utility.yul\":4911:4929   */\n      swap3\n      dup5\n      add\n        /* \"#utility.yul\":4904:4938   */\n      swap2\n      swap1\n      swap2\n      mstore\n        /* \"#utility.yul\":4969:4971   */\n      0x60\n        /* \"#utility.yul\":4954:4972   */\n      dup4\n      add\n        /* \"#utility.yul\":4947:4981   */\n      mstore\n        /* \"#utility.yul\":5012:5015   */\n      0x80\n        /* \"#utility.yul\":4997:5016   */\n      dup3\n      add\n        /* \"#utility.yul\":4990:5025   */\n      mstore\n        /* \"#utility.yul\":4814:4817   */\n      0xa0\n        /* \"#utility.yul\":4799:4818   */\n      add\n        /* \"sourcify-verified/1/0xfea230Ee243f88BC698dD8f1aE93F8301B6cdfaE/sources/contracts/modules/commons/ModuleAuth.sol\":1675:3161  function signatureRecovery(... */\n      tag_21\n        /* \"#utility.yul\":4568:5031   */\n      jump\n        /* \"sourcify-verified/1/0xfea230Ee243f88BC698dD8f1aE93F8301B6cdfaE/sources/contracts/modules/commons/ModuleNonce.sol\":938:1094  function readNonce(uint256 _space) public virtual view returns (uint256) {... */\n    tag_10:\n      callvalue\n      dup1\n      iszero\n      tag_62\n      jumpi\n      0x00\n      dup1\n      revert\n    tag_62:\n      pop\n      tag_42\n      tag_64\n      calldatasize\n      0x04\n      tag_39\n      jump\t// in\n    tag_64:\n      tag_66\n      jump\t// in\n        /* \"sourcify-verified/1/0xfea230Ee243f88BC698dD8f1aE93F8301B6cdfaE/sources/contracts/modules/commons/ModuleCreator.sol\":456:732  function createContract(bytes memory _code) public override virtual payable onlySelf returns (address addr) {... */\n    tag_11:\n      tag_69\n      tag_70\n      calldatasize\n      0x04\n      tag_71\n      jump\t// in\n    tag_70:\n      tag_72\n      jump\t// in\n    tag_69:\n      mload(0x40)\n        /* \"#utility.yul\":6753:6795   */\n      0xffffffffffffffffffffffffffffffffffffffff\n        /* \"#utility.yul\":6741:6796   */\n      swap1\n      swap2\n      and\n        /* \"#utility.yul\":6723:6797   */\n      dup2\n      mstore\n        /* \"#utility.yul\":6711:6713   */\n      0x20\n        /* \"#utility.yul\":6696:6714   */\n      add\n        /* \"sourcify-verified/1/0xfea230Ee243f88BC698dD8f1aE93F8301B6cdfaE/sources/contracts/modules/commons/ModuleCreator.sol\":456:732  function createContract(bytes memory _code) public override virtual payable onlySelf returns (address addr) {... */\n      tag_21\n        /* \"#utility.yul\":6577:6803   */\n      jump\n        /* \"sourcify-verified/1/0xfea230Ee243f88BC698dD8f1aE93F8301B6cdfaE/sources/contracts/modules/commons/ModuleNonce.sol\":670:757  function nonce() external virtual view returns (uint256) {... */\n    tag_12:\n      callvalue\n      dup1\n      iszero\n      tag_75\n      jumpi\n      0x00\n      dup1\n      revert\n    tag_75:\n      pop\n      tag_42\n      tag_77\n      jump\t// in\n        /* \"sourcify-verified/1/0xfea230Ee243f88BC698dD8f1aE93F8301B6cdfaE/sources/contracts/modules/GuestModule.sol\":3127:3331  function supportsInterface(... */\n    tag_20:\n        /* \"sourcify-verified/1/0xfea230Ee243f88BC698dD8f1aE93F8301B6cdfaE/sources/contracts/modules/GuestModule.sol\":3270:3274  bool */\n      0x00\n        /* \"sourcify-verified/1/0xfea230Ee243f88BC698dD8f1aE93F8301B6cdfaE/sources/contracts/modules/GuestModule.sol\":3289:3326  super.supportsInterface(_interfaceID) */\n      tag_80\n        /* \"sourcify-verified/1/0xfea230Ee243f88BC698dD8f1aE93F8301B6cdfaE/sources/contracts/modules/GuestModule.sol\":3313:3325  _interfaceID */\n      dup3\n        /* \"sourcify-verified/1/0xfea230Ee243f88BC698dD8f1aE93F8301B6cdfaE/sources/contracts/modules/GuestModule.sol\":3289:3312  super.supportsInterface */\n      tag_81\n        /* \"sourcify-verified/1/0xfea230Ee243f88BC698dD8f1aE93F8301B6cdfaE/sources/contracts/modules/GuestModule.sol\":3289:3326  super.supportsInterface(_interfaceID) */\n      jump\t// in\n    tag_80:\n        /* \"sourcify-verified/1/0xfea230Ee243f88BC698dD8f1aE93F8301B6cdfaE/sources/contracts/modules/GuestModule.sol\":3282:3326  return super.supportsInterface(_interfaceID) */\n      swap3\n        /* \"sourcify-verified/1/0xfea230Ee243f88BC698dD8f1aE93F8301B6cdfaE/sources/contracts/modules/GuestModule.sol\":3127:3331  function supportsInterface(... */\n      swap2\n      pop\n      pop\n      jump\t// out\n        /* \"sourcify-verified/1/0xfea230Ee243f88BC698dD8f1aE93F8301B6cdfaE/sources/contracts/modules/commons/ModuleAuth.sol\":5489:5805  function isValidSignature(... */\n    tag_27:\n        /* \"sourcify-verified/1/0xfea230Ee243f88BC698dD8f1aE93F8301B6cdfaE/sources/contracts/modules/commons/ModuleAuth.sol\":5608:5614  bytes4 */\n      0x00\n        /* \"sourcify-verified/1/0xfea230Ee243f88BC698dD8f1aE93F8301B6cdfaE/sources/contracts/modules/commons/ModuleAuth.sol\":5650:5662  bool isValid */\n      dup1\n        /* \"sourcify-verified/1/0xfea230Ee243f88BC698dD8f1aE93F8301B6cdfaE/sources/contracts/modules/commons/ModuleAuth.sol\":5667:5707  _signatureValidation(_hash, _signatures) */\n      tag_83\n        /* \"sourcify-verified/1/0xfea230Ee243f88BC698dD8f1aE93F8301B6cdfaE/sources/contracts/modules/commons/ModuleAuth.sol\":5688:5693  _hash */\n      dup6\n        /* \"sourcify-verified/1/0xfea230Ee243f88BC698dD8f1aE93F8301B6cdfaE/sources/contracts/modules/commons/ModuleAuth.sol\":5695:5706  _signatures */\n      dup6\n      dup6\n        /* \"sourcify-verified/1/0xfea230Ee243f88BC698dD8f1aE93F8301B6cdfaE/sources/contracts/modules/commons/ModuleAuth.sol\":5667:5687  _signatureValidation */\n      tag_84\n        /* \"sourcify-verified/1/0xfea230Ee243f88BC698dD8f1aE93F8301B6cdfaE/sources/contracts/modules/commons/ModuleAuth.sol\":5667:5707  _signatureValidation(_hash, _signatures) */\n      jump\t// in\n    tag_83:\n        /* \"sourcify-verified/1/0xfea230Ee243f88BC698dD8f1aE93F8301B6cdfaE/sources/contracts/modules/commons/ModuleAuth.sol\":5649:5707  (bool isValid,) = _signatureValidation(_hash, _signatures) */\n      pop\n      swap1\n      pop\n        /* \"sourcify-verified/1/0xfea230Ee243f88BC698dD8f1aE93F8301B6cdfaE/sources/contracts/modules/commons/ModuleAuth.sol\":5717:5724  isValid */\n      dup1\n        /* \"sourcify-verified/1/0xfea230Ee243f88BC698dD8f1aE93F8301B6cdfaE/sources/contracts/modules/commons/ModuleAuth.sol\":5713:5778  if (isValid) {... */\n      iszero\n      tag_85\n      jumpi\n      pop\n        /* \"sourcify-verified/1/0xfea230Ee243f88BC698dD8f1aE93F8301B6cdfaE/sources/contracts/modules/commons/ModuleAuth.sol\":5741:5771  SELECTOR_ERC1271_BYTES32_BYTES */\n      0x1626ba7e00000000000000000000000000000000000000000000000000000000\n      swap1\n      pop\n        /* \"sourcify-verified/1/0xfea230Ee243f88BC698dD8f1aE93F8301B6cdfaE/sources/contracts/modules/commons/ModuleAuth.sol\":5734:5771  return SELECTOR_ERC1271_BYTES32_BYTES */\n      jump(tag_82)\n        /* \"sourcify-verified/1/0xfea230Ee243f88BC698dD8f1aE93F8301B6cdfaE/sources/contracts/modules/commons/ModuleAuth.sol\":5713:5778  if (isValid) {... */\n    tag_85:\n      pop\n        /* \"sourcify-verified/1/0xfea230Ee243f88BC698dD8f1aE93F8301B6cdfaE/sources/contracts/modules/commons/ModuleAuth.sol\":5798:5799  0 */\n      0x00\n      swap1\n      pop\n        /* \"sourcify-verified/1/0xfea230Ee243f88BC698dD8f1aE93F8301B6cdfaE/sources/contracts/modules/commons/ModuleAuth.sol\":5489:5805  function isValidSignature(... */\n    tag_82:\n      swap4\n      swap3\n      pop\n      pop\n      pop\n      jump\t// out\n        /* \"sourcify-verified/1/0xfea230Ee243f88BC698dD8f1aE93F8301B6cdfaE/sources/contracts/modules/commons/ModuleAuth.sol\":4525:4857  function isValidSignature(... */\n    tag_34:\n        /* \"sourcify-verified/1/0xfea230Ee243f88BC698dD8f1aE93F8301B6cdfaE/sources/contracts/modules/commons/ModuleAuth.sol\":4651:4657  bytes4 */\n      0x00\n        /* \"sourcify-verified/1/0xfea230Ee243f88BC698dD8f1aE93F8301B6cdfaE/sources/contracts/modules/commons/ModuleAuth.sol\":4693:4705  bool isValid */\n      dup1\n        /* \"sourcify-verified/1/0xfea230Ee243f88BC698dD8f1aE93F8301B6cdfaE/sources/contracts/modules/commons/ModuleAuth.sol\":4710:4761  _signatureValidation(keccak256(_data), _signatures) */\n      tag_87\n        /* \"sourcify-verified/1/0xfea230Ee243f88BC698dD8f1aE93F8301B6cdfaE/sources/contracts/modules/commons/ModuleAuth.sol\":4741:4746  _data */\n      dup7\n      dup7\n        /* \"sourcify-verified/1/0xfea230Ee243f88BC698dD8f1aE93F8301B6cdfaE/sources/contracts/modules/commons/ModuleAuth.sol\":4731:4747  keccak256(_data) */\n      mload(0x40)\n      tag_88\n      swap3\n      swap2\n      swap1\n      tag_89\n      jump\t// in\n    tag_88:\n      mload(0x40)\n      dup1\n      swap2\n      sub\n      swap1\n      keccak256\n        /* \"sourcify-verified/1/0xfea230Ee243f88BC698dD8f1aE93F8301B6cdfaE/sources/contracts/modules/commons/ModuleAuth.sol\":4749:4760  _signatures */\n      dup6\n      dup6\n        /* \"sourcify-verified/1/0xfea230Ee243f88BC698dD8f1aE93F8301B6cdfaE/sources/contracts/modules/commons/ModuleAuth.sol\":4710:4730  _signatureValidation */\n      tag_84\n        /* \"sourcify-verified/1/0xfea230Ee243f88BC698dD8f1aE93F8301B6cdfaE/sources/contracts/modules/commons/ModuleAuth.sol\":4710:4761  _signatureValidation(keccak256(_data), _signatures) */\n      jump\t// in\n    tag_87:\n        /* \"sourcify-verified/1/0xfea230Ee243f88BC698dD8f1aE93F8301B6cdfaE/sources/contracts/modules/commons/ModuleAuth.sol\":4692:4761  (bool isValid,) = _signatureValidation(keccak256(_data), _signatures) */\n      pop\n      swap1\n      pop\n        /* \"sourcify-verified/1/0xfea230Ee243f88BC698dD8f1aE93F8301B6cdfaE/sources/contracts/modules/commons/ModuleAuth.sol\":4771:4778  isValid */\n      dup1\n        /* \"sourcify-verified/1/0xfea230Ee243f88BC698dD8f1aE93F8301B6cdfaE/sources/contracts/modules/commons/ModuleAuth.sol\":4767:4830  if (isValid) {... */\n      iszero\n      tag_90\n      jumpi\n      pop\n        /* \"sourcify-verified/1/0xfea230Ee243f88BC698dD8f1aE93F8301B6cdfaE/sources/contracts/modules/commons/ModuleAuth.sol\":4795:4823  SELECTOR_ERC1271_BYTES_BYTES */\n      0x20c13b0b00000000000000000000000000000000000000000000000000000000\n      swap1\n      pop\n        /* \"sourcify-verified/1/0xfea230Ee243f88BC698dD8f1aE93F8301B6cdfaE/sources/contracts/modules/commons/ModuleAuth.sol\":4788:4823  return SELECTOR_ERC1271_BYTES_BYTES */\n      jump(tag_86)\n        /* \"sourcify-verified/1/0xfea230Ee243f88BC698dD8f1aE93F8301B6cdfaE/sources/contracts/modules/commons/ModuleAuth.sol\":4767:4830  if (isValid) {... */\n    tag_90:\n      pop\n        /* \"sourcify-verified/1/0xfea230Ee243f88BC698dD8f1aE93F8301B6cdfaE/sources/contracts/modules/commons/ModuleAuth.sol\":4850:4851  0 */\n      0x00\n      swap1\n      pop\n        /* \"sourcify-verified/1/0xfea230Ee243f88BC698dD8f1aE93F8301B6cdfaE/sources/contracts/modules/commons/ModuleAuth.sol\":4525:4857  function isValidSignature(... */\n    tag_86:\n      swap5\n      swap4\n      pop\n      pop\n      pop\n      pop\n      jump\t// out\n        /* \"sourcify-verified/1/0xfea230Ee243f88BC698dD8f1aE93F8301B6cdfaE/sources/contracts/modules/commons/ModuleAuth.sol\":6456:6575  function updateImageHash(bytes32 _imageHash) external override virtual onlySelf {... */\n    tag_40:\n        /* \"sourcify-verified/1/0xfea230Ee243f88BC698dD8f1aE93F8301B6cdfaE/sources/contracts/modules/commons/ModuleSelfAuth.sol\":178:188  msg.sender */\n      caller\n        /* \"sourcify-verified/1/0xfea230Ee243f88BC698dD8f1aE93F8301B6cdfaE/sources/contracts/modules/commons/ModuleSelfAuth.sol\":200:204  this */\n      address\n        /* \"sourcify-verified/1/0xfea230Ee243f88BC698dD8f1aE93F8301B6cdfaE/sources/contracts/modules/commons/ModuleSelfAuth.sol\":178:205  msg.sender != address(this) */\n      eq\n        /* \"sourcify-verified/1/0xfea230Ee243f88BC698dD8f1aE93F8301B6cdfaE/sources/contracts/modules/commons/ModuleSelfAuth.sol\":174:268  if (msg.sender != address(this)) {... */\n      tag_92\n      jumpi\n        /* \"sourcify-verified/1/0xfea230Ee243f88BC698dD8f1aE93F8301B6cdfaE/sources/contracts/modules/commons/ModuleSelfAuth.sol\":222:261  OnlySelfAuth(msg.sender, address(this)) */\n      mload(0x40)\n      0xe125889400000000000000000000000000000000000000000000000000000000\n      dup2\n      mstore\n        /* \"sourcify-verified/1/0xfea230Ee243f88BC698dD8f1aE93F8301B6cdfaE/sources/contracts/modules/commons/ModuleSelfAuth.sol\":235:245  msg.sender */\n      caller\n        /* \"sourcify-verified/1/0xfea230Ee243f88BC698dD8f1aE93F8301B6cdfaE/sources/contracts/modules/commons/ModuleSelfAuth.sol\":222:261  OnlySelfAuth(msg.sender, address(this)) */\n      0x04\n      dup3\n      add\n        /* \"#utility.yul\":7319:7353   */\n      mstore\n        /* \"sourcify-verified/1/0xfea230Ee243f88BC698dD8f1aE93F8301B6cdfaE/sources/contracts/modules/commons/ModuleSelfAuth.sol\":255:259  this */\n      address\n        /* \"#utility.yul\":7369:7387   */\n      0x24\n      dup3\n      add\n        /* \"#utility.yul\":7362:7405   */\n      mstore\n        /* \"#utility.yul\":7231:7249   */\n      0x44\n      add\n        /* \"sourcify-verified/1/0xfea230Ee243f88BC698dD8f1aE93F8301B6cdfaE/sources/contracts/modules/commons/ModuleSelfAuth.sol\":222:261  OnlySelfAuth(msg.sender, address(this)) */\n    tag_93:\n      mload(0x40)\n      dup1\n      swap2\n      sub\n      swap1\n      revert\n        /* \"sourcify-verified/1/0xfea230Ee243f88BC698dD8f1aE93F8301B6cdfaE/sources/contracts/modules/commons/ModuleSelfAuth.sol\":174:268  if (msg.sender != address(this)) {... */\n    tag_92:\n        /* \"sourcify-verified/1/0xfea230Ee243f88BC698dD8f1aE93F8301B6cdfaE/sources/contracts/modules/commons/ModuleAuth.sol\":6542:6570  _updateImageHash(_imageHash) */\n      tag_96\n        /* \"sourcify-verified/1/0xfea230Ee243f88BC698dD8f1aE93F8301B6cdfaE/sources/contracts/modules/commons/ModuleAuth.sol\":6559:6569  _imageHash */\n      dup2\n        /* \"sourcify-verified/1/0xfea230Ee243f88BC698dD8f1aE93F8301B6cdfaE/sources/contracts/modules/commons/ModuleAuth.sol\":6542:6558  _updateImageHash */\n      tag_97\n        /* \"sourcify-verified/1/0xfea230Ee243f88BC698dD8f1aE93F8301B6cdfaE/sources/contracts/modules/commons/ModuleAuth.sol\":6542:6570  _updateImageHash(_imageHash) */\n      jump\t// in\n    tag_96:\n        /* \"sourcify-verified/1/0xfea230Ee243f88BC698dD8f1aE93F8301B6cdfaE/sources/contracts/modules/commons/ModuleAuth.sol\":6456:6575  function updateImageHash(bytes32 _imageHash) external override virtual onlySelf {... */\n      pop\n      jump\t// out\n        /* \"sourcify-verified/1/0xfea230Ee243f88BC698dD8f1aE93F8301B6cdfaE/sources/contracts/modules/GuestModule.sol\":1290:1552  function selfExecute(... */\n    tag_50:\n        /* \"sourcify-verified/1/0xfea230Ee243f88BC698dD8f1aE93F8301B6cdfaE/sources/contracts/modules/GuestModule.sol\":1401:1415  bytes32 txHash */\n      0x00\n        /* \"sourcify-verified/1/0xfea230Ee243f88BC698dD8f1aE93F8301B6cdfaE/sources/contracts/modules/GuestModule.sol\":1418:1481  SequenceBaseSig.subdigest(keccak256(abi.encode('self:', _txs))) */\n      tag_99\n        /* \"sourcify-verified/1/0xfea230Ee243f88BC698dD8f1aE93F8301B6cdfaE/sources/contracts/modules/GuestModule.sol\":1474:1478  _txs */\n      dup4\n      dup4\n        /* \"sourcify-verified/1/0xfea230Ee243f88BC698dD8f1aE93F8301B6cdfaE/sources/contracts/modules/GuestModule.sol\":1454:1479  abi.encode('self:', _txs) */\n      add(0x20, mload(0x40))\n      tag_100\n      swap3\n      swap2\n      swap1\n      tag_101\n      jump\t// in\n    tag_100:\n      mload(0x40)\n      0x20\n      dup2\n      dup4\n      sub\n      sub\n      dup2\n      mstore\n      swap1\n      0x40\n      mstore\n        /* \"sourcify-verified/1/0xfea230Ee243f88BC698dD8f1aE93F8301B6cdfaE/sources/contracts/modules/GuestModule.sol\":1444:1480  keccak256(abi.encode('self:', _txs)) */\n      dup1\n      mload\n      swap1\n      0x20\n      add\n      keccak256\n        /* \"sourcify-verified/1/0xfea230Ee243f88BC698dD8f1aE93F8301B6cdfaE/sources/contracts/modules/GuestModule.sol\":1418:1443  SequenceBaseSig.subdigest */\n      tag_102\n        /* \"sourcify-verified/1/0xfea230Ee243f88BC698dD8f1aE93F8301B6cdfaE/sources/contracts/modules/GuestModule.sol\":1418:1481  SequenceBaseSig.subdigest(keccak256(abi.encode('self:', _txs))) */\n      jump\t// in\n    tag_99:\n        /* \"sourcify-verified/1/0xfea230Ee243f88BC698dD8f1aE93F8301B6cdfaE/sources/contracts/modules/GuestModule.sol\":1401:1481  bytes32 txHash = SequenceBaseSig.subdigest(keccak256(abi.encode('self:', _txs))) */\n      swap1\n      pop\n        /* \"sourcify-verified/1/0xfea230Ee243f88BC698dD8f1aE93F8301B6cdfaE/sources/contracts/modules/GuestModule.sol\":1520:1547  _executeGuest(txHash, _txs) */\n      tag_103\n        /* \"sourcify-verified/1/0xfea230Ee243f88BC698dD8f1aE93F8301B6cdfaE/sources/contracts/modules/GuestModule.sol\":1534:1540  txHash */\n      dup2\n        /* \"sourcify-verified/1/0xfea230Ee243f88BC698dD8f1aE93F8301B6cdfaE/sources/contracts/modules/GuestModule.sol\":1542:1546  _txs */\n      dup5\n      dup5\n        /* \"sourcify-verified/1/0xfea230Ee243f88BC698dD8f1aE93F8301B6cdfaE/sources/contracts/modules/GuestModule.sol\":1520:1533  _executeGuest */\n      tag_104\n        /* \"sourcify-verified/1/0xfea230Ee243f88BC698dD8f1aE93F8301B6cdfaE/sources/contracts/modules/GuestModule.sol\":1520:1547  _executeGuest(txHash, _txs) */\n      jump\t// in\n    tag_103:\n        /* \"sourcify-verified/1/0xfea230Ee243f88BC698dD8f1aE93F8301B6cdfaE/sources/contracts/modules/GuestModule.sol\":1364:1552  {... */\n      pop\n        /* \"sourcify-verified/1/0xfea230Ee243f88BC698dD8f1aE93F8301B6cdfaE/sources/contracts/modules/GuestModule.sol\":1290:1552  function selfExecute(... */\n      pop\n      pop\n      jump\t// out\n        /* \"sourcify-verified/1/0xfea230Ee243f88BC698dD8f1aE93F8301B6cdfaE/sources/contracts/modules/GuestModule.sol\":890:1182  function execute(... */\n    tag_55:\n        /* \"sourcify-verified/1/0xfea230Ee243f88BC698dD8f1aE93F8301B6cdfaE/sources/contracts/modules/GuestModule.sol\":1030:1044  bytes32 txHash */\n      0x00\n        /* \"sourcify-verified/1/0xfea230Ee243f88BC698dD8f1aE93F8301B6cdfaE/sources/contracts/modules/GuestModule.sol\":1047:1111  SequenceBaseSig.subdigest(keccak256(abi.encode('guest:', _txs))) */\n      tag_106\n        /* \"sourcify-verified/1/0xfea230Ee243f88BC698dD8f1aE93F8301B6cdfaE/sources/contracts/modules/GuestModule.sol\":1104:1108  _txs */\n      dup7\n      dup7\n        /* \"sourcify-verified/1/0xfea230Ee243f88BC698dD8f1aE93F8301B6cdfaE/sources/contracts/modules/GuestModule.sol\":1083:1109  abi.encode('guest:', _txs) */\n      add(0x20, mload(0x40))\n      tag_100\n      swap3\n      swap2\n      swap1\n      tag_108\n      jump\t// in\n        /* \"sourcify-verified/1/0xfea230Ee243f88BC698dD8f1aE93F8301B6cdfaE/sources/contracts/modules/GuestModule.sol\":1047:1111  SequenceBaseSig.subdigest(keccak256(abi.encode('guest:', _txs))) */\n    tag_106:\n        /* \"sourcify-verified/1/0xfea230Ee243f88BC698dD8f1aE93F8301B6cdfaE/sources/contracts/modules/GuestModule.sol\":1030:1111  bytes32 txHash = SequenceBaseSig.subdigest(keccak256(abi.encode('guest:', _txs))) */\n      swap1\n      pop\n        /* \"sourcify-verified/1/0xfea230Ee243f88BC698dD8f1aE93F8301B6cdfaE/sources/contracts/modules/GuestModule.sol\":1150:1177  _executeGuest(txHash, _txs) */\n      tag_109\n        /* \"sourcify-verified/1/0xfea230Ee243f88BC698dD8f1aE93F8301B6cdfaE/sources/contracts/modules/GuestModule.sol\":1164:1170  txHash */\n      dup2\n        /* \"sourcify-verified/1/0xfea230Ee243f88BC698dD8f1aE93F8301B6cdfaE/sources/contracts/modules/GuestModule.sol\":1172:1176  _txs */\n      dup8\n      dup8\n        /* \"sourcify-verified/1/0xfea230Ee243f88BC698dD8f1aE93F8301B6cdfaE/sources/contracts/modules/GuestModule.sol\":1150:1163  _executeGuest */\n      tag_104\n        /* \"sourcify-verified/1/0xfea230Ee243f88BC698dD8f1aE93F8301B6cdfaE/sources/contracts/modules/GuestModule.sol\":1150:1177  _executeGuest(txHash, _txs) */\n      jump\t// in\n    tag_109:\n        /* \"sourcify-verified/1/0xfea230Ee243f88BC698dD8f1aE93F8301B6cdfaE/sources/contracts/modules/GuestModule.sol\":993:1182  {... */\n      pop\n        /* \"sourcify-verified/1/0xfea230Ee243f88BC698dD8f1aE93F8301B6cdfaE/sources/contracts/modules/GuestModule.sol\":890:1182  function execute(... */\n      pop\n      pop\n      pop\n      pop\n      pop\n      jump\t// out\n        /* \"sourcify-verified/1/0xfea230Ee243f88BC698dD8f1aE93F8301B6cdfaE/sources/contracts/modules/commons/ModuleAuth.sol\":1675:3161  function signatureRecovery(... */\n    tag_59:\n        /* \"sourcify-verified/1/0xfea230Ee243f88BC698dD8f1aE93F8301B6cdfaE/sources/contracts/modules/commons/ModuleAuth.sol\":1801:1818  uint256 threshold */\n      0x00\n        /* \"sourcify-verified/1/0xfea230Ee243f88BC698dD8f1aE93F8301B6cdfaE/sources/contracts/modules/commons/ModuleAuth.sol\":1824:1838  uint256 weight */\n      dup1\n        /* \"sourcify-verified/1/0xfea230Ee243f88BC698dD8f1aE93F8301B6cdfaE/sources/contracts/modules/commons/ModuleAuth.sol\":1844:1861  bytes32 imageHash */\n      0x00\n        /* \"sourcify-verified/1/0xfea230Ee243f88BC698dD8f1aE93F8301B6cdfaE/sources/contracts/modules/commons/ModuleAuth.sol\":1867:1884  bytes32 subdigest */\n      dup1\n        /* \"sourcify-verified/1/0xfea230Ee243f88BC698dD8f1aE93F8301B6cdfaE/sources/contracts/modules/commons/ModuleAuth.sol\":1890:1908  uint256 checkpoint */\n      0x00\n        /* \"sourcify-verified/1/0xfea230Ee243f88BC698dD8f1aE93F8301B6cdfaE/sources/contracts/modules/commons/ModuleAuth.sol\":1919:1939  bytes1 signatureType */\n      dup1\n        /* \"sourcify-verified/1/0xfea230Ee243f88BC698dD8f1aE93F8301B6cdfaE/sources/contracts/modules/commons/ModuleAuth.sol\":1942:1952  _signature */\n      dup8\n      dup8\n        /* \"sourcify-verified/1/0xfea230Ee243f88BC698dD8f1aE93F8301B6cdfaE/sources/contracts/modules/commons/ModuleAuth.sol\":1953:1954  0 */\n      0x00\n        /* \"sourcify-verified/1/0xfea230Ee243f88BC698dD8f1aE93F8301B6cdfaE/sources/contracts/modules/commons/ModuleAuth.sol\":1942:1955  _signature[0] */\n      dup2\n      dup2\n      lt\n      tag_112\n      jumpi\n      tag_112\n      tag_113\n      jump\t// in\n    tag_112:\n      swap1\n      swap2\n      add\n      calldataload\n      0xff00000000000000000000000000000000000000000000000000000000000000\n      and\n      swap2\n      pop\n      dup2\n      swap1\n      pop\n        /* \"sourcify-verified/1/0xfea230Ee243f88BC698dD8f1aE93F8301B6cdfaE/sources/contracts/modules/commons/ModuleAuth.sol\":1962:2265  if (signatureType == LEGACY_TYPE) {... */\n      tag_114\n      jumpi\n        /* \"sourcify-verified/1/0xfea230Ee243f88BC698dD8f1aE93F8301B6cdfaE/sources/contracts/modules/commons/ModuleAuth.sol\":2057:2091  SequenceBaseSig.subdigest(_digest) */\n      tag_115\n        /* \"sourcify-verified/1/0xfea230Ee243f88BC698dD8f1aE93F8301B6cdfaE/sources/contracts/modules/commons/ModuleAuth.sol\":2083:2090  _digest */\n      dup10\n        /* \"sourcify-verified/1/0xfea230Ee243f88BC698dD8f1aE93F8301B6cdfaE/sources/contracts/modules/commons/ModuleAuth.sol\":2057:2082  SequenceBaseSig.subdigest */\n      tag_102\n        /* \"sourcify-verified/1/0xfea230Ee243f88BC698dD8f1aE93F8301B6cdfaE/sources/contracts/modules/commons/ModuleAuth.sol\":2057:2091  SequenceBaseSig.subdigest(_digest) */\n      jump\t// in\n    tag_115:\n        /* \"sourcify-verified/1/0xfea230Ee243f88BC698dD8f1aE93F8301B6cdfaE/sources/contracts/modules/commons/ModuleAuth.sol\":2045:2091  subdigest = SequenceBaseSig.subdigest(_digest) */\n      swap3\n      pop\n        /* \"sourcify-verified/1/0xfea230Ee243f88BC698dD8f1aE93F8301B6cdfaE/sources/contracts/modules/commons/ModuleAuth.sol\":2144:2190  SequenceBaseSig.recover(subdigest, _signature) */\n      tag_116\n        /* \"sourcify-verified/1/0xfea230Ee243f88BC698dD8f1aE93F8301B6cdfaE/sources/contracts/modules/commons/ModuleAuth.sol\":2168:2177  subdigest */\n      dup4\n        /* \"sourcify-verified/1/0xfea230Ee243f88BC698dD8f1aE93F8301B6cdfaE/sources/contracts/modules/commons/ModuleAuth.sol\":2179:2189  _signature */\n      dup10\n      dup10\n        /* \"sourcify-verified/1/0xfea230Ee243f88BC698dD8f1aE93F8301B6cdfaE/sources/contracts/modules/commons/ModuleAuth.sol\":2144:2167  SequenceBaseSig.recover */\n      tag_117\n        /* \"sourcify-verified/1/0xfea230Ee243f88BC698dD8f1aE93F8301B6cdfaE/sources/contracts/modules/commons/ModuleAuth.sol\":2144:2190  SequenceBaseSig.recover(subdigest, _signature) */\n      jump\t// in\n    tag_116:\n        /* \"sourcify-verified/1/0xfea230Ee243f88BC698dD8f1aE93F8301B6cdfaE/sources/contracts/modules/commons/ModuleAuth.sol\":2099:2190  (threshold, weight, imageHash, checkpoint) = SequenceBaseSig.recover(subdigest, _signature) */\n      swap3\n      swap9\n      pop\n      swap1\n      swap7\n      pop\n      swap5\n      pop\n      swap2\n      pop\n        /* \"sourcify-verified/1/0xfea230Ee243f88BC698dD8f1aE93F8301B6cdfaE/sources/contracts/modules/commons/ModuleAuth.sol\":2198:2258  return (threshold, weight, imageHash, subdigest, checkpoint) */\n      tag_110\n      swap1\n      pop\n      jump\n        /* \"sourcify-verified/1/0xfea230Ee243f88BC698dD8f1aE93F8301B6cdfaE/sources/contracts/modules/commons/ModuleAuth.sol\":1962:2265  if (signatureType == LEGACY_TYPE) {... */\n    tag_114:\n        /* \"sourcify-verified/1/0xfea230Ee243f88BC698dD8f1aE93F8301B6cdfaE/sources/contracts/modules/commons/ModuleAuth.sol\":2275:2304  signatureType == DYNAMIC_TYPE */\n      0xff00000000000000000000000000000000000000000000000000000000000000\n      dup2\n      dup2\n      and\n      add\n        /* \"sourcify-verified/1/0xfea230Ee243f88BC698dD8f1aE93F8301B6cdfaE/sources/contracts/modules/commons/ModuleAuth.sol\":2271:2581  if (signatureType == DYNAMIC_TYPE) {... */\n      tag_118\n      jumpi\n        /* \"sourcify-verified/1/0xfea230Ee243f88BC698dD8f1aE93F8301B6cdfaE/sources/contracts/modules/commons/ModuleAuth.sol\":2370:2404  SequenceBaseSig.subdigest(_digest) */\n      tag_119\n        /* \"sourcify-verified/1/0xfea230Ee243f88BC698dD8f1aE93F8301B6cdfaE/sources/contracts/modules/commons/ModuleAuth.sol\":2396:2403  _digest */\n      dup10\n        /* \"sourcify-verified/1/0xfea230Ee243f88BC698dD8f1aE93F8301B6cdfaE/sources/contracts/modules/commons/ModuleAuth.sol\":2370:2395  SequenceBaseSig.subdigest */\n      tag_102\n        /* \"sourcify-verified/1/0xfea230Ee243f88BC698dD8f1aE93F8301B6cdfaE/sources/contracts/modules/commons/ModuleAuth.sol\":2370:2404  SequenceBaseSig.subdigest(_digest) */\n      jump\t// in\n    tag_119:\n        /* \"sourcify-verified/1/0xfea230Ee243f88BC698dD8f1aE93F8301B6cdfaE/sources/contracts/modules/commons/ModuleAuth.sol\":2358:2404  subdigest = SequenceBaseSig.subdigest(_digest) */\n      swap3\n      pop\n        /* \"sourcify-verified/1/0xfea230Ee243f88BC698dD8f1aE93F8301B6cdfaE/sources/contracts/modules/commons/ModuleAuth.sol\":2457:2506  SequenceDynamicSig.recover(subdigest, _signature) */\n      tag_116\n        /* \"sourcify-verified/1/0xfea230Ee243f88BC698dD8f1aE93F8301B6cdfaE/sources/contracts/modules/commons/ModuleAuth.sol\":2484:2493  subdigest */\n      dup4\n        /* \"sourcify-verified/1/0xfea230Ee243f88BC698dD8f1aE93F8301B6cdfaE/sources/contracts/modules/commons/ModuleAuth.sol\":2495:2505  _signature */\n      dup10\n      dup10\n        /* \"sourcify-verified/1/0xfea230Ee243f88BC698dD8f1aE93F8301B6cdfaE/sources/contracts/modules/commons/ModuleAuth.sol\":2457:2483  SequenceDynamicSig.recover */\n      tag_121\n        /* \"sourcify-verified/1/0xfea230Ee243f88BC698dD8f1aE93F8301B6cdfaE/sources/contracts/modules/commons/ModuleAuth.sol\":2457:2506  SequenceDynamicSig.recover(subdigest, _signature) */\n      jump\t// in\n        /* \"sourcify-verified/1/0xfea230Ee243f88BC698dD8f1aE93F8301B6cdfaE/sources/contracts/modules/commons/ModuleAuth.sol\":2271:2581  if (signatureType == DYNAMIC_TYPE) {... */\n    tag_118:\n        /* \"sourcify-verified/1/0xfea230Ee243f88BC698dD8f1aE93F8301B6cdfaE/sources/contracts/modules/commons/ModuleAuth.sol\":2591:2624  signatureType == NO_CHAIN_ID_TYPE */\n      0xfe00000000000000000000000000000000000000000000000000000000000000\n      0xff00000000000000000000000000000000000000000000000000000000000000\n      dup3\n      and\n      add\n        /* \"sourcify-verified/1/0xfea230Ee243f88BC698dD8f1aE93F8301B6cdfaE/sources/contracts/modules/commons/ModuleAuth.sol\":2587:2906  if (signatureType == NO_CHAIN_ID_TYPE) {... */\n      tag_122\n      jumpi\n        /* \"sourcify-verified/1/0xfea230Ee243f88BC698dD8f1aE93F8301B6cdfaE/sources/contracts/modules/commons/ModuleAuth.sol\":2690:2729  SequenceNoChainIdSig.subdigest(_digest) */\n      tag_119\n        /* \"sourcify-verified/1/0xfea230Ee243f88BC698dD8f1aE93F8301B6cdfaE/sources/contracts/modules/commons/ModuleAuth.sol\":2721:2728  _digest */\n      dup10\n        /* \"sourcify-verified/1/0xfea230Ee243f88BC698dD8f1aE93F8301B6cdfaE/sources/contracts/modules/commons/ModuleAuth.sol\":2690:2720  SequenceNoChainIdSig.subdigest */\n      tag_124\n        /* \"sourcify-verified/1/0xfea230Ee243f88BC698dD8f1aE93F8301B6cdfaE/sources/contracts/modules/commons/ModuleAuth.sol\":2690:2729  SequenceNoChainIdSig.subdigest(_digest) */\n      jump\t// in\n        /* \"sourcify-verified/1/0xfea230Ee243f88BC698dD8f1aE93F8301B6cdfaE/sources/contracts/modules/commons/ModuleAuth.sol\":2587:2906  if (signatureType == NO_CHAIN_ID_TYPE) {... */\n    tag_122:\n        /* \"sourcify-verified/1/0xfea230Ee243f88BC698dD8f1aE93F8301B6cdfaE/sources/contracts/modules/commons/ModuleAuth.sol\":2916:2945  signatureType == CHAINED_TYPE */\n      0xfd00000000000000000000000000000000000000000000000000000000000000\n      0xff00000000000000000000000000000000000000000000000000000000000000\n      dup3\n      and\n      add\n        /* \"sourcify-verified/1/0xfea230Ee243f88BC698dD8f1aE93F8301B6cdfaE/sources/contracts/modules/commons/ModuleAuth.sol\":2912:3108  if (signatureType == CHAINED_TYPE) {... */\n      tag_126\n      jumpi\n        /* \"sourcify-verified/1/0xfea230Ee243f88BC698dD8f1aE93F8301B6cdfaE/sources/contracts/modules/commons/ModuleAuth.sol\":3066:3101  chainedRecover(_digest, _signature) */\n      tag_127\n        /* \"sourcify-verified/1/0xfea230Ee243f88BC698dD8f1aE93F8301B6cdfaE/sources/contracts/modules/commons/ModuleAuth.sol\":3081:3088  _digest */\n      dup10\n        /* \"sourcify-verified/1/0xfea230Ee243f88BC698dD8f1aE93F8301B6cdfaE/sources/contracts/modules/commons/ModuleAuth.sol\":3090:3100  _signature */\n      dup10\n      dup10\n        /* \"sourcify-verified/1/0xfea230Ee243f88BC698dD8f1aE93F8301B6cdfaE/sources/contracts/modules/commons/ModuleAuth.sol\":3066:3080  chainedRecover */\n      tag_128\n        /* \"sourcify-verified/1/0xfea230Ee243f88BC698dD8f1aE93F8301B6cdfaE/sources/contracts/modules/commons/ModuleAuth.sol\":3066:3101  chainedRecover(_digest, _signature) */\n      jump\t// in\n    tag_127:\n        /* \"sourcify-verified/1/0xfea230Ee243f88BC698dD8f1aE93F8301B6cdfaE/sources/contracts/modules/commons/ModuleAuth.sol\":3059:3101  return chainedRecover(_digest, _signature) */\n      swap6\n      pop\n      swap6\n      pop\n      swap6\n      pop\n      swap6\n      pop\n      swap6\n      pop\n      pop\n      jump(tag_110)\n        /* \"sourcify-verified/1/0xfea230Ee243f88BC698dD8f1aE93F8301B6cdfaE/sources/contracts/modules/commons/ModuleAuth.sol\":2912:3108  if (signatureType == CHAINED_TYPE) {... */\n    tag_126:\n        /* \"sourcify-verified/1/0xfea230Ee243f88BC698dD8f1aE93F8301B6cdfaE/sources/contracts/modules/commons/ModuleAuth.sol\":3121:3156  InvalidSignatureType(signatureType) */\n      mload(0x40)\n      0x6085cd8200000000000000000000000000000000000000000000000000000000\n      dup2\n      mstore\n        /* \"#utility.yul\":11707:11773   */\n      0xff00000000000000000000000000000000000000000000000000000000000000\n        /* \"#utility.yul\":11695:11774   */\n      dup3\n      and\n        /* \"sourcify-verified/1/0xfea230Ee243f88BC698dD8f1aE93F8301B6cdfaE/sources/contracts/modules/commons/ModuleAuth.sol\":3121:3156  InvalidSignatureType(signatureType) */\n      0x04\n      dup3\n      add\n        /* \"#utility.yul\":11677:11775   */\n      mstore\n        /* \"#utility.yul\":11650:11668   */\n      0x24\n      add\n        /* \"sourcify-verified/1/0xfea230Ee243f88BC698dD8f1aE93F8301B6cdfaE/sources/contracts/modules/commons/ModuleAuth.sol\":3121:3156  InvalidSignatureType(signatureType) */\n      tag_93\n        /* \"#utility.yul\":11533:11781   */\n      jump\n        /* \"sourcify-verified/1/0xfea230Ee243f88BC698dD8f1aE93F8301B6cdfaE/sources/contracts/modules/commons/ModuleAuth.sol\":1675:3161  function signatureRecovery(... */\n    tag_110:\n      swap4\n      swap8\n      swap3\n      swap7\n      pop\n      swap4\n      pop\n      swap4\n      pop\n      jump\t// out\n        /* \"sourcify-verified/1/0xfea230Ee243f88BC698dD8f1aE93F8301B6cdfaE/sources/contracts/modules/commons/ModuleNonce.sol\":938:1094  function readNonce(uint256 _space) public virtual view returns (uint256) {... */\n    tag_66:\n        /* \"sourcify-verified/1/0xfea230Ee243f88BC698dD8f1aE93F8301B6cdfaE/sources/contracts/modules/commons/ModuleNonce.sol\":1002:1009  uint256 */\n      0x00\n        /* \"sourcify-verified/1/0xfea230Ee243f88BC698dD8f1aE93F8301B6cdfaE/sources/contracts/modules/commons/ModuleNonce.sol\":1032:1088  ModuleStorage.readBytes32Map(NONCE_KEY, bytes32(_space)) */\n      tag_80\n        /* \"sourcify-verified/1/0xfea230Ee243f88BC698dD8f1aE93F8301B6cdfaE/sources/contracts/modules/commons/ModuleNonce.sol\":453:519  0x8d0bf1fd623d628c741362c1289948e57b3e2905218c676d3e69abee36d6ae2e */\n      0x8d0bf1fd623d628c741362c1289948e57b3e2905218c676d3e69abee36d6ae2e\n        /* \"sourcify-verified/1/0xfea230Ee243f88BC698dD8f1aE93F8301B6cdfaE/sources/contracts/modules/commons/ModuleNonce.sol\":1080:1086  _space */\n      dup4\n        /* \"sourcify-verified/1/0xfea230Ee243f88BC698dD8f1aE93F8301B6cdfaE/sources/contracts/modules/commons/ModuleNonce.sol\":1032:1060  ModuleStorage.readBytes32Map */\n      tag_133\n        /* \"sourcify-verified/1/0xfea230Ee243f88BC698dD8f1aE93F8301B6cdfaE/sources/contracts/modules/commons/ModuleNonce.sol\":1032:1088  ModuleStorage.readBytes32Map(NONCE_KEY, bytes32(_space)) */\n      jump\t// in\n        /* \"sourcify-verified/1/0xfea230Ee243f88BC698dD8f1aE93F8301B6cdfaE/sources/contracts/modules/commons/ModuleCreator.sol\":456:732  function createContract(bytes memory _code) public override virtual payable onlySelf returns (address addr) {... */\n    tag_72:\n        /* \"sourcify-verified/1/0xfea230Ee243f88BC698dD8f1aE93F8301B6cdfaE/sources/contracts/modules/commons/ModuleCreator.sol\":550:562  address addr */\n      0x00\n        /* \"sourcify-verified/1/0xfea230Ee243f88BC698dD8f1aE93F8301B6cdfaE/sources/contracts/modules/commons/ModuleSelfAuth.sol\":178:188  msg.sender */\n      caller\n        /* \"sourcify-verified/1/0xfea230Ee243f88BC698dD8f1aE93F8301B6cdfaE/sources/contracts/modules/commons/ModuleSelfAuth.sol\":200:204  this */\n      address\n        /* \"sourcify-verified/1/0xfea230Ee243f88BC698dD8f1aE93F8301B6cdfaE/sources/contracts/modules/commons/ModuleSelfAuth.sol\":178:205  msg.sender != address(this) */\n      eq\n        /* \"sourcify-verified/1/0xfea230Ee243f88BC698dD8f1aE93F8301B6cdfaE/sources/contracts/modules/commons/ModuleSelfAuth.sol\":174:268  if (msg.sender != address(this)) {... */\n      tag_135\n      jumpi\n        /* \"sourcify-verified/1/0xfea230Ee243f88BC698dD8f1aE93F8301B6cdfaE/sources/contracts/modules/commons/ModuleSelfAuth.sol\":222:261  OnlySelfAuth(msg.sender, address(this)) */\n      mload(0x40)\n      0xe125889400000000000000000000000000000000000000000000000000000000\n      dup2\n      mstore\n        /* \"sourcify-verified/1/0xfea230Ee243f88BC698dD8f1aE93F8301B6cdfaE/sources/contracts/modules/commons/ModuleSelfAuth.sol\":235:245  msg.sender */\n      caller\n        /* \"sourcify-verified/1/0xfea230Ee243f88BC698dD8f1aE93F8301B6cdfaE/sources/contracts/modules/commons/ModuleSelfAuth.sol\":222:261  OnlySelfAuth(msg.sender, address(this)) */\n      0x04\n      dup3\n      add\n        /* \"#utility.yul\":7319:7353   */\n      mstore\n        /* \"sourcify-verified/1/0xfea230Ee243f88BC698dD8f1aE93F8301B6cdfaE/sources/contracts/modules/commons/ModuleSelfAuth.sol\":255:259  this */\n      address\n        /* \"#utility.yul\":7369:7387   */\n      0x24\n      dup3\n      add\n        /* \"#utility.yul\":7362:7405   */\n      mstore\n        /* \"#utility.yul\":7231:7249   */\n      0x44\n      add\n        /* \"sourcify-verified/1/0xfea230Ee243f88BC698dD8f1aE93F8301B6cdfaE/sources/contracts/modules/commons/ModuleSelfAuth.sol\":222:261  OnlySelfAuth(msg.sender, address(this)) */\n      tag_93\n        /* \"#utility.yul\":7084:7411   */\n      jump\n        /* \"sourcify-verified/1/0xfea230Ee243f88BC698dD8f1aE93F8301B6cdfaE/sources/contracts/modules/commons/ModuleSelfAuth.sol\":174:268  if (msg.sender != address(this)) {... */\n    tag_135:\n        /* \"sourcify-verified/1/0xfea230Ee243f88BC698dD8f1aE93F8301B6cdfaE/sources/contracts/modules/commons/ModuleCreator.sol\":631:636  _code */\n      dup2\n        /* \"sourcify-verified/1/0xfea230Ee243f88BC698dD8f1aE93F8301B6cdfaE/sources/contracts/modules/commons/ModuleCreator.sol\":625:637  mload(_code) */\n      mload\n        /* \"sourcify-verified/1/0xfea230Ee243f88BC698dD8f1aE93F8301B6cdfaE/sources/contracts/modules/commons/ModuleCreator.sol\":620:622  32 */\n      0x20\n        /* \"sourcify-verified/1/0xfea230Ee243f88BC698dD8f1aE93F8301B6cdfaE/sources/contracts/modules/commons/ModuleCreator.sol\":613:618  _code */\n      dup4\n        /* \"sourcify-verified/1/0xfea230Ee243f88BC698dD8f1aE93F8301B6cdfaE/sources/contracts/modules/commons/ModuleCreator.sol\":609:623  add(_code, 32) */\n      add\n        /* \"sourcify-verified/1/0xfea230Ee243f88BC698dD8f1aE93F8301B6cdfaE/sources/contracts/modules/commons/ModuleCreator.sol\":596:607  callvalue() */\n      callvalue\n        /* \"sourcify-verified/1/0xfea230Ee243f88BC698dD8f1aE93F8301B6cdfaE/sources/contracts/modules/commons/ModuleCreator.sol\":589:638  create(callvalue(), add(_code, 32), mload(_code)) */\n      create\n        /* \"sourcify-verified/1/0xfea230Ee243f88BC698dD8f1aE93F8301B6cdfaE/sources/contracts/modules/commons/ModuleCreator.sol\":581:638  addr := create(callvalue(), add(_code, 32), mload(_code)) */\n      swap1\n      pop\n        /* \"sourcify-verified/1/0xfea230Ee243f88BC698dD8f1aE93F8301B6cdfaE/sources/contracts/modules/commons/ModuleCreator.sol\":649:667  addr == address(0) */\n      0xffffffffffffffffffffffffffffffffffffffff\n      dup2\n      and\n        /* \"sourcify-verified/1/0xfea230Ee243f88BC698dD8f1aE93F8301B6cdfaE/sources/contracts/modules/commons/ModuleCreator.sol\":645:695  if (addr == address(0)) revert CreateFailed(_code) */\n      tag_138\n      jumpi\n        /* \"sourcify-verified/1/0xfea230Ee243f88BC698dD8f1aE93F8301B6cdfaE/sources/contracts/modules/commons/ModuleCreator.sol\":689:694  _code */\n      dup2\n        /* \"sourcify-verified/1/0xfea230Ee243f88BC698dD8f1aE93F8301B6cdfaE/sources/contracts/modules/commons/ModuleCreator.sol\":676:695  CreateFailed(_code) */\n      mload(0x40)\n      0x0d25719100000000000000000000000000000000000000000000000000000000\n      dup2\n      mstore\n      0x04\n      add\n      tag_93\n      swap2\n      swap1\n      tag_140\n      jump\t// in\n        /* \"sourcify-verified/1/0xfea230Ee243f88BC698dD8f1aE93F8301B6cdfaE/sources/contracts/modules/commons/ModuleCreator.sol\":645:695  if (addr == address(0)) revert CreateFailed(_code) */\n    tag_138:\n        /* \"sourcify-verified/1/0xfea230Ee243f88BC698dD8f1aE93F8301B6cdfaE/sources/contracts/modules/commons/ModuleCreator.sol\":706:727  CreatedContract(addr) */\n      mload(0x40)\n        /* \"#utility.yul\":6753:6795   */\n      0xffffffffffffffffffffffffffffffffffffffff\n        /* \"#utility.yul\":6741:6796   */\n      dup3\n      and\n        /* \"#utility.yul\":6723:6797   */\n      dup2\n      mstore\n        /* \"sourcify-verified/1/0xfea230Ee243f88BC698dD8f1aE93F8301B6cdfaE/sources/contracts/modules/commons/ModuleCreator.sol\":706:727  CreatedContract(addr) */\n      0xa506ad4e7f05eceba62a023c3219e5bd98a615f4fa87e2afb08a2da5cf62bf0c\n      swap1\n        /* \"#utility.yul\":6711:6713   */\n      0x20\n        /* \"#utility.yul\":6696:6714   */\n      add\n        /* \"sourcify-verified/1/0xfea230Ee243f88BC698dD8f1aE93F8301B6cdfaE/sources/contracts/modules/commons/ModuleCreator.sol\":706:727  CreatedContract(addr) */\n      mload(0x40)\n      dup1\n      swap2\n      sub\n      swap1\n      log1\n        /* \"sourcify-verified/1/0xfea230Ee243f88BC698dD8f1aE93F8301B6cdfaE/sources/contracts/modules/commons/ModuleCreator.sol\":456:732  function createContract(bytes memory _code) public override virtual payable onlySelf returns (address addr) {... */\n      swap2\n      swap1\n      pop\n      jump\t// out\n        /* \"sourcify-verified/1/0xfea230Ee243f88BC698dD8f1aE93F8301B6cdfaE/sources/contracts/modules/commons/ModuleNonce.sol\":670:757  function nonce() external virtual view returns (uint256) {... */\n    tag_77:\n        /* \"sourcify-verified/1/0xfea230Ee243f88BC698dD8f1aE93F8301B6cdfaE/sources/contracts/modules/commons/ModuleNonce.sol\":718:725  uint256 */\n      0x00\n        /* \"sourcify-verified/1/0xfea230Ee243f88BC698dD8f1aE93F8301B6cdfaE/sources/contracts/modules/commons/ModuleNonce.sol\":740:752  readNonce(0) */\n      tag_143\n        /* \"sourcify-verified/1/0xfea230Ee243f88BC698dD8f1aE93F8301B6cdfaE/sources/contracts/modules/commons/ModuleNonce.sol\":750:751  0 */\n      0x00\n        /* \"sourcify-verified/1/0xfea230Ee243f88BC698dD8f1aE93F8301B6cdfaE/sources/contracts/modules/commons/ModuleNonce.sol\":740:749  readNonce */\n      tag_66\n        /* \"sourcify-verified/1/0xfea230Ee243f88BC698dD8f1aE93F8301B6cdfaE/sources/contracts/modules/commons/ModuleNonce.sol\":740:752  readNonce(0) */\n      jump\t// in\n    tag_143:\n        /* \"sourcify-verified/1/0xfea230Ee243f88BC698dD8f1aE93F8301B6cdfaE/sources/contracts/modules/commons/ModuleNonce.sol\":733:752  return readNonce(0) */\n      swap1\n      pop\n        /* \"sourcify-verified/1/0xfea230Ee243f88BC698dD8f1aE93F8301B6cdfaE/sources/contracts/modules/commons/ModuleNonce.sol\":670:757  function nonce() external virtual view returns (uint256) {... */\n      swap1\n      jump\t// out\n        /* \"sourcify-verified/1/0xfea230Ee243f88BC698dD8f1aE93F8301B6cdfaE/sources/contracts/modules/commons/ModuleCreator.sol\":942:1175  function supportsInterface(bytes4 _interfaceID) public override virtual pure returns (bool) {... */\n    tag_81:\n        /* \"sourcify-verified/1/0xfea230Ee243f88BC698dD8f1aE93F8301B6cdfaE/sources/contracts/modules/commons/ModuleCreator.sol\":1028:1032  bool */\n      0x00\n        /* \"sourcify-verified/1/0xfea230Ee243f88BC698dD8f1aE93F8301B6cdfaE/sources/contracts/modules/commons/ModuleCreator.sol\":1044:1092  _interfaceID == type(IModuleCreator).interfaceId */\n      0x6ffbd45100000000000000000000000000000000000000000000000000000000\n      0xffffffff00000000000000000000000000000000000000000000000000000000\n      dup4\n      and\n      add\n        /* \"sourcify-verified/1/0xfea230Ee243f88BC698dD8f1aE93F8301B6cdfaE/sources/contracts/modules/commons/ModuleCreator.sol\":1040:1120  if (_interfaceID == type(IModuleCreator).interfaceId) {... */\n      tag_145\n      jumpi\n      pop\n        /* \"sourcify-verified/1/0xfea230Ee243f88BC698dD8f1aE93F8301B6cdfaE/sources/contracts/modules/commons/ModuleCreator.sol\":1109:1113  true */\n      0x01\n      swap2\n        /* \"sourcify-verified/1/0xfea230Ee243f88BC698dD8f1aE93F8301B6cdfaE/sources/contracts/modules/commons/ModuleCreator.sol\":942:1175  function supportsInterface(bytes4 _interfaceID) public override virtual pure returns (bool) {... */\n      swap1\n      pop\n      jump\t// out\n        /* \"sourcify-verified/1/0xfea230Ee243f88BC698dD8f1aE93F8301B6cdfaE/sources/contracts/modules/commons/ModuleCreator.sol\":1040:1120  if (_interfaceID == type(IModuleCreator).interfaceId) {... */\n    tag_145:\n        /* \"sourcify-verified/1/0xfea230Ee243f88BC698dD8f1aE93F8301B6cdfaE/sources/contracts/modules/commons/ModuleCreator.sol\":1133:1170  super.supportsInterface(_interfaceID) */\n      tag_80\n        /* \"sourcify-verified/1/0xfea230Ee243f88BC698dD8f1aE93F8301B6cdfaE/sources/contracts/modules/commons/ModuleCreator.sol\":1157:1169  _interfaceID */\n      dup3\n        /* \"sourcify-verified/1/0xfea230Ee243f88BC698dD8f1aE93F8301B6cdfaE/sources/contracts/modules/commons/ModuleCreator.sol\":1133:1156  super.supportsInterface */\n      tag_147\n        /* \"sourcify-verified/1/0xfea230Ee243f88BC698dD8f1aE93F8301B6cdfaE/sources/contracts/modules/commons/ModuleCreator.sol\":1133:1170  super.supportsInterface(_interfaceID) */\n      jump\t// in\n        /* \"sourcify-verified/1/0xfea230Ee243f88BC698dD8f1aE93F8301B6cdfaE/sources/contracts/modules/commons/ModuleAuth.sol\":3480:3866  function _signatureValidation(... */\n    tag_84:\n        /* \"sourcify-verified/1/0xfea230Ee243f88BC698dD8f1aE93F8301B6cdfaE/sources/contracts/modules/commons/ModuleAuth.sol\":3611:3623  bool isValid */\n      0x00\n        /* \"sourcify-verified/1/0xfea230Ee243f88BC698dD8f1aE93F8301B6cdfaE/sources/contracts/modules/commons/ModuleAuth.sol\":3629:3646  bytes32 subdigest */\n      dup1\n        /* \"sourcify-verified/1/0xfea230Ee243f88BC698dD8f1aE93F8301B6cdfaE/sources/contracts/modules/commons/ModuleAuth.sol\":3657:3674  uint256 threshold */\n      0x00\n        /* \"sourcify-verified/1/0xfea230Ee243f88BC698dD8f1aE93F8301B6cdfaE/sources/contracts/modules/commons/ModuleAuth.sol\":3676:3690  uint256 weight */\n      dup1\n        /* \"sourcify-verified/1/0xfea230Ee243f88BC698dD8f1aE93F8301B6cdfaE/sources/contracts/modules/commons/ModuleAuth.sol\":3692:3709  bytes32 imageHash */\n      0x00\n        /* \"sourcify-verified/1/0xfea230Ee243f88BC698dD8f1aE93F8301B6cdfaE/sources/contracts/modules/commons/ModuleAuth.sol\":3760:3798  signatureRecovery(_digest, _signature) */\n      tag_149\n        /* \"sourcify-verified/1/0xfea230Ee243f88BC698dD8f1aE93F8301B6cdfaE/sources/contracts/modules/commons/ModuleAuth.sol\":3778:3785  _digest */\n      dup9\n        /* \"sourcify-verified/1/0xfea230Ee243f88BC698dD8f1aE93F8301B6cdfaE/sources/contracts/modules/commons/ModuleAuth.sol\":3787:3797  _signature */\n      dup9\n      dup9\n        /* \"sourcify-verified/1/0xfea230Ee243f88BC698dD8f1aE93F8301B6cdfaE/sources/contracts/modules/commons/ModuleAuth.sol\":3760:3777  signatureRecovery */\n      tag_59\n        /* \"sourcify-verified/1/0xfea230Ee243f88BC698dD8f1aE93F8301B6cdfaE/sources/contracts/modules/commons/ModuleAuth.sol\":3760:3798  signatureRecovery(_digest, _signature) */\n      jump\t// in\n    tag_149:\n      pop\n        /* \"sourcify-verified/1/0xfea230Ee243f88BC698dD8f1aE93F8301B6cdfaE/sources/contracts/modules/commons/ModuleAuth.sol\":3715:3798  (threshold, weight, imageHash, subdigest,) = signatureRecovery(_digest, _signature) */\n      swap7\n      pop\n      swap2\n      swap5\n      pop\n      swap3\n      pop\n      swap1\n      pop\n        /* \"sourcify-verified/1/0xfea230Ee243f88BC698dD8f1aE93F8301B6cdfaE/sources/contracts/modules/commons/ModuleAuth.sol\":3814:3833  weight >= threshold */\n      dup3\n      dup3\n      lt\n      dup1\n      iszero\n      swap1\n        /* \"sourcify-verified/1/0xfea230Ee243f88BC698dD8f1aE93F8301B6cdfaE/sources/contracts/modules/commons/ModuleAuth.sol\":3814:3861  weight >= threshold && _isValidImage(imageHash) */\n      tag_151\n      jumpi\n      pop\n        /* \"sourcify-verified/1/0xfea230Ee243f88BC698dD8f1aE93F8301B6cdfaE/sources/contracts/modules/GuestModule.sol\":2779:2783  true */\n      0x01\n        /* \"sourcify-verified/1/0xfea230Ee243f88BC698dD8f1aE93F8301B6cdfaE/sources/contracts/modules/commons/ModuleAuth.sol\":3837:3861  _isValidImage(imageHash) */\n    tag_151:\n        /* \"sourcify-verified/1/0xfea230Ee243f88BC698dD8f1aE93F8301B6cdfaE/sources/contracts/modules/commons/ModuleAuth.sol\":3804:3861  isValid = weight >= threshold && _isValidImage(imageHash) */\n      swap5\n      pop\n        /* \"sourcify-verified/1/0xfea230Ee243f88BC698dD8f1aE93F8301B6cdfaE/sources/contracts/modules/commons/ModuleAuth.sol\":3651:3866  {... */\n      pop\n      pop\n      pop\n        /* \"sourcify-verified/1/0xfea230Ee243f88BC698dD8f1aE93F8301B6cdfaE/sources/contracts/modules/commons/ModuleAuth.sol\":3480:3866  function _signatureValidation(... */\n      swap4\n      pop\n      swap4\n      swap2\n      pop\n      pop\n      jump\t// out\n        /* \"sourcify-verified/1/0xfea230Ee243f88BC698dD8f1aE93F8301B6cdfaE/sources/contracts/modules/GuestModule.sol\":2824:2917  function _updateImageHash(bytes32) internal override virtual {... */\n    tag_97:\n        /* \"sourcify-verified/1/0xfea230Ee243f88BC698dD8f1aE93F8301B6cdfaE/sources/contracts/modules/GuestModule.sol\":2898:2912  NotSupported() */\n      mload(0x40)\n      0xa038794000000000000000000000000000000000000000000000000000000000\n      dup2\n      mstore\n      0x04\n      add\n      mload(0x40)\n      dup1\n      swap2\n      sub\n      swap1\n      revert\n        /* \"sourcify-verified/1/0xfea230Ee243f88BC698dD8f1aE93F8301B6cdfaE/sources/contracts/modules/commons/submodules/auth/SequenceBaseSig.sol\":1173:1397  function subdigest(... */\n    tag_102:\n        /* \"sourcify-verified/1/0xfea230Ee243f88BC698dD8f1aE93F8301B6cdfaE/sources/contracts/modules/commons/submodules/auth/SequenceBaseSig.sol\":1279:1386  abi.encodePacked(... */\n      mload(0x40)\n        /* \"#utility.yul\":12792:12858   */\n      0x1901000000000000000000000000000000000000000000000000000000000000\n        /* \"sourcify-verified/1/0xfea230Ee243f88BC698dD8f1aE93F8301B6cdfaE/sources/contracts/modules/commons/submodules/auth/SequenceBaseSig.sol\":1279:1386  abi.encodePacked(... */\n      0x20\n      dup3\n      add\n        /* \"#utility.yul\":12780:12859   */\n      mstore\n        /* \"sourcify-verified/1/0xfea230Ee243f88BC698dD8f1aE93F8301B6cdfaE/sources/contracts/modules/commons/submodules/auth/SequenceBaseSig.sol\":1325:1338  block.chainid */\n      chainid\n        /* \"#utility.yul\":12875:12886   */\n      0x22\n      dup3\n      add\n        /* \"#utility.yul\":12868:12895   */\n      mstore\n        /* \"#utility.yul\":12946:13012   */\n      0xffffffffffffffffffffffffffffffffffffffff000000000000000000000000\n        /* \"sourcify-verified/1/0xfea230Ee243f88BC698dD8f1aE93F8301B6cdfaE/sources/contracts/modules/commons/submodules/auth/SequenceBaseSig.sol\":1356:1360  this */\n      address\n        /* \"#utility.yul\":12933:12935   */\n      0x60\n        /* \"#utility.yul\":12929:12944   */\n      shl\n        /* \"#utility.yul\":12925:13013   */\n      and\n        /* \"#utility.yul\":12911:12923   */\n      0x42\n      dup3\n      add\n        /* \"#utility.yul\":12904:13014   */\n      mstore\n        /* \"#utility.yul\":13030:13042   */\n      0x56\n      dup2\n      add\n        /* \"#utility.yul\":13023:13051   */\n      dup3\n      swap1\n      mstore\n        /* \"sourcify-verified/1/0xfea230Ee243f88BC698dD8f1aE93F8301B6cdfaE/sources/contracts/modules/commons/submodules/auth/SequenceBaseSig.sol\":1240:1247  bytes32 */\n      0x00\n      swap1\n        /* \"#utility.yul\":13067:13079   */\n      0x76\n      add\n        /* \"sourcify-verified/1/0xfea230Ee243f88BC698dD8f1aE93F8301B6cdfaE/sources/contracts/modules/commons/submodules/auth/SequenceBaseSig.sol\":1279:1386  abi.encodePacked(... */\n    tag_155:\n      mload(0x40)\n      0x20\n      dup2\n      dup4\n      sub\n      sub\n      dup2\n      mstore\n      swap1\n      0x40\n      mstore\n        /* \"sourcify-verified/1/0xfea230Ee243f88BC698dD8f1aE93F8301B6cdfaE/sources/contracts/modules/commons/submodules/auth/SequenceBaseSig.sol\":1262:1392  keccak256(... */\n      dup1\n      mload\n      swap1\n      0x20\n      add\n      keccak256\n        /* \"sourcify-verified/1/0xfea230Ee243f88BC698dD8f1aE93F8301B6cdfaE/sources/contracts/modules/commons/submodules/auth/SequenceBaseSig.sol\":1255:1392  return keccak256(... */\n      swap1\n      pop\n        /* \"sourcify-verified/1/0xfea230Ee243f88BC698dD8f1aE93F8301B6cdfaE/sources/contracts/modules/commons/submodules/auth/SequenceBaseSig.sol\":1173:1397  function subdigest(... */\n      swap2\n      swap1\n      pop\n      jump\t// out\n        /* \"sourcify-verified/1/0xfea230Ee243f88BC698dD8f1aE93F8301B6cdfaE/sources/contracts/modules/GuestModule.sol\":1710:2544  function _executeGuest(... */\n    tag_104:\n        /* \"sourcify-verified/1/0xfea230Ee243f88BC698dD8f1aE93F8301B6cdfaE/sources/contracts/modules/GuestModule.sol\":1847:1851  _txs */\n      dup1\n        /* \"sourcify-verified/1/0xfea230Ee243f88BC698dD8f1aE93F8301B6cdfaE/sources/contracts/modules/GuestModule.sol\":1832:1844  uint256 size */\n      0x00\n        /* \"sourcify-verified/1/0xfea230Ee243f88BC698dD8f1aE93F8301B6cdfaE/sources/contracts/modules/GuestModule.sol\":1864:2540  for (uint256 i = 0; i < size; i++) {... */\n    tag_158:\n        /* \"sourcify-verified/1/0xfea230Ee243f88BC698dD8f1aE93F8301B6cdfaE/sources/contracts/modules/GuestModule.sol\":1888:1892  size */\n      dup2\n        /* \"sourcify-verified/1/0xfea230Ee243f88BC698dD8f1aE93F8301B6cdfaE/sources/contracts/modules/GuestModule.sol\":1884:1885  i */\n      dup2\n        /* \"sourcify-verified/1/0xfea230Ee243f88BC698dD8f1aE93F8301B6cdfaE/sources/contracts/modules/GuestModule.sol\":1884:1892  i < size */\n      lt\n        /* \"sourcify-verified/1/0xfea230Ee243f88BC698dD8f1aE93F8301B6cdfaE/sources/contracts/modules/GuestModule.sol\":1864:2540  for (uint256 i = 0; i < size; i++) {... */\n      iszero\n      tag_159\n      jumpi\n        /* \"sourcify-verified/1/0xfea230Ee243f88BC698dD8f1aE93F8301B6cdfaE/sources/contracts/modules/GuestModule.sol\":1907:1939  Transaction calldata transaction */\n      calldatasize\n        /* \"sourcify-verified/1/0xfea230Ee243f88BC698dD8f1aE93F8301B6cdfaE/sources/contracts/modules/GuestModule.sol\":1942:1946  _txs */\n      dup5\n      dup5\n        /* \"sourcify-verified/1/0xfea230Ee243f88BC698dD8f1aE93F8301B6cdfaE/sources/contracts/modules/GuestModule.sol\":1947:1948  i */\n      dup4\n        /* \"sourcify-verified/1/0xfea230Ee243f88BC698dD8f1aE93F8301B6cdfaE/sources/contracts/modules/GuestModule.sol\":1942:1949  _txs[i] */\n      dup2\n      dup2\n      lt\n      tag_162\n      jumpi\n      tag_162\n      tag_113\n      jump\t// in\n    tag_162:\n      swap1\n      pop\n      0x20\n      mul\n      dup2\n      add\n      swap1\n      tag_163\n      swap2\n      swap1\n      tag_164\n      jump\t// in\n    tag_163:\n        /* \"sourcify-verified/1/0xfea230Ee243f88BC698dD8f1aE93F8301B6cdfaE/sources/contracts/modules/GuestModule.sol\":1907:1949  Transaction calldata transaction = _txs[i] */\n      swap1\n      pop\n        /* \"sourcify-verified/1/0xfea230Ee243f88BC698dD8f1aE93F8301B6cdfaE/sources/contracts/modules/GuestModule.sol\":1962:1986  transaction.delegateCall */\n      tag_165\n      0x20\n      dup3\n      add\n        /* \"sourcify-verified/1/0xfea230Ee243f88BC698dD8f1aE93F8301B6cdfaE/sources/contracts/modules/GuestModule.sol\":1907:1949  Transaction calldata transaction = _txs[i] */\n      dup3\n        /* \"sourcify-verified/1/0xfea230Ee243f88BC698dD8f1aE93F8301B6cdfaE/sources/contracts/modules/GuestModule.sol\":1962:1986  transaction.delegateCall */\n      tag_166\n      jump\t// in\n    tag_165:\n        /* \"sourcify-verified/1/0xfea230Ee243f88BC698dD8f1aE93F8301B6cdfaE/sources/contracts/modules/GuestModule.sol\":1958:2020  if (transaction.delegateCall) revert DelegateCallNotAllowed(i) */\n      iszero\n      tag_167\n      jumpi\n        /* \"sourcify-verified/1/0xfea230Ee243f88BC698dD8f1aE93F8301B6cdfaE/sources/contracts/modules/GuestModule.sol\":1995:2020  DelegateCallNotAllowed(i) */\n      mload(0x40)\n      0x230d1ccc00000000000000000000000000000000000000000000000000000000\n      dup2\n      mstore\n      0x04\n      dup2\n      add\n        /* \"#utility.yul\":2778:2803   */\n      dup4\n      swap1\n      mstore\n        /* \"#utility.yul\":2751:2769   */\n      0x24\n      add\n        /* \"sourcify-verified/1/0xfea230Ee243f88BC698dD8f1aE93F8301B6cdfaE/sources/contracts/modules/GuestModule.sol\":1995:2020  DelegateCallNotAllowed(i) */\n      tag_93\n        /* \"#utility.yul\":2632:2809   */\n      jump\n        /* \"sourcify-verified/1/0xfea230Ee243f88BC698dD8f1aE93F8301B6cdfaE/sources/contracts/modules/GuestModule.sol\":1958:2020  if (transaction.delegateCall) revert DelegateCallNotAllowed(i) */\n    tag_167:\n        /* \"sourcify-verified/1/0xfea230Ee243f88BC698dD8f1aE93F8301B6cdfaE/sources/contracts/modules/GuestModule.sol\":2048:2068  transaction.gasLimit */\n      0x40\n      dup2\n      add\n      calldataload\n      dup1\n        /* \"sourcify-verified/1/0xfea230Ee243f88BC698dD8f1aE93F8301B6cdfaE/sources/contracts/modules/GuestModule.sol\":2080:2089  gasleft() */\n      gas\n        /* \"sourcify-verified/1/0xfea230Ee243f88BC698dD8f1aE93F8301B6cdfaE/sources/contracts/modules/GuestModule.sol\":2080:2100  gasleft() < gasLimit */\n      lt\n        /* \"sourcify-verified/1/0xfea230Ee243f88BC698dD8f1aE93F8301B6cdfaE/sources/contracts/modules/GuestModule.sol\":2076:2145  if (gasleft() < gasLimit) revert NotEnoughGas(i, gasLimit, gasleft()) */\n      iszero\n      tag_169\n      jumpi\n        /* \"sourcify-verified/1/0xfea230Ee243f88BC698dD8f1aE93F8301B6cdfaE/sources/contracts/modules/GuestModule.sol\":2122:2123  i */\n      dup3\n        /* \"sourcify-verified/1/0xfea230Ee243f88BC698dD8f1aE93F8301B6cdfaE/sources/contracts/modules/GuestModule.sol\":2125:2133  gasLimit */\n      dup2\n        /* \"sourcify-verified/1/0xfea230Ee243f88BC698dD8f1aE93F8301B6cdfaE/sources/contracts/modules/GuestModule.sol\":2135:2144  gasleft() */\n      gas\n        /* \"sourcify-verified/1/0xfea230Ee243f88BC698dD8f1aE93F8301B6cdfaE/sources/contracts/modules/GuestModule.sol\":2109:2145  NotEnoughGas(i, gasLimit, gasleft()) */\n      mload(0x40)\n      0x2bb3e3ba00000000000000000000000000000000000000000000000000000000\n      dup2\n      mstore\n      0x04\n      dup2\n      add\n        /* \"#utility.yul\":13869:13894   */\n      swap4\n      swap1\n      swap4\n      mstore\n        /* \"#utility.yul\":13910:13928   */\n      0x24\n      dup4\n      add\n        /* \"#utility.yul\":13903:13937   */\n      swap2\n      swap1\n      swap2\n      mstore\n        /* \"#utility.yul\":13953:13971   */\n      0x44\n      dup3\n      add\n        /* \"#utility.yul\":13946:13980   */\n      mstore\n        /* \"#utility.yul\":13842:13860   */\n      0x64\n      add\n        /* \"sourcify-verified/1/0xfea230Ee243f88BC698dD8f1aE93F8301B6cdfaE/sources/contracts/modules/GuestModule.sol\":2109:2145  NotEnoughGas(i, gasLimit, gasleft()) */\n      tag_93\n        /* \"#utility.yul\":13667:13986   */\n      jump\n        /* \"sourcify-verified/1/0xfea230Ee243f88BC698dD8f1aE93F8301B6cdfaE/sources/contracts/modules/GuestModule.sol\":2076:2145  if (gasleft() < gasLimit) revert NotEnoughGas(i, gasLimit, gasleft()) */\n    tag_169:\n        /* \"sourcify-verified/1/0xfea230Ee243f88BC698dD8f1aE93F8301B6cdfaE/sources/contracts/modules/GuestModule.sol\":2154:2166  bool success */\n      0x00\n        /* \"sourcify-verified/1/0xfea230Ee243f88BC698dD8f1aE93F8301B6cdfaE/sources/contracts/modules/GuestModule.sol\":2169:2317  LibOptim.call(... */\n      tag_172\n        /* \"sourcify-verified/1/0xfea230Ee243f88BC698dD8f1aE93F8301B6cdfaE/sources/contracts/modules/GuestModule.sol\":2192:2210  transaction.target */\n      tag_173\n      0x80\n      dup6\n      add\n      0x60\n      dup7\n      add\n      tag_174\n      jump\t// in\n    tag_173:\n        /* \"sourcify-verified/1/0xfea230Ee243f88BC698dD8f1aE93F8301B6cdfaE/sources/contracts/modules/GuestModule.sol\":2220:2237  transaction.value */\n      0x80\n      dup6\n      add\n      calldataload\n        /* \"sourcify-verified/1/0xfea230Ee243f88BC698dD8f1aE93F8301B6cdfaE/sources/contracts/modules/GuestModule.sol\":2247:2260  gasLimit == 0 */\n      dup5\n      iszero\n        /* \"sourcify-verified/1/0xfea230Ee243f88BC698dD8f1aE93F8301B6cdfaE/sources/contracts/modules/GuestModule.sol\":2247:2283  gasLimit == 0 ? gasleft() : gasLimit */\n      tag_175\n      jumpi\n        /* \"sourcify-verified/1/0xfea230Ee243f88BC698dD8f1aE93F8301B6cdfaE/sources/contracts/modules/GuestModule.sol\":2275:2283  gasLimit */\n      dup5\n        /* \"sourcify-verified/1/0xfea230Ee243f88BC698dD8f1aE93F8301B6cdfaE/sources/contracts/modules/GuestModule.sol\":2247:2283  gasLimit == 0 ? gasleft() : gasLimit */\n      jump(tag_176)\n    tag_175:\n        /* \"sourcify-verified/1/0xfea230Ee243f88BC698dD8f1aE93F8301B6cdfaE/sources/contracts/modules/GuestModule.sol\":2263:2272  gasleft() */\n      gas\n        /* \"sourcify-verified/1/0xfea230Ee243f88BC698dD8f1aE93F8301B6cdfaE/sources/contracts/modules/GuestModule.sol\":2247:2283  gasLimit == 0 ? gasleft() : gasLimit */\n    tag_176:\n        /* \"sourcify-verified/1/0xfea230Ee243f88BC698dD8f1aE93F8301B6cdfaE/sources/contracts/modules/GuestModule.sol\":2293:2309  transaction.data */\n      tag_177\n      0xa0\n      dup9\n      add\n        /* \"sourcify-verified/1/0xfea230Ee243f88BC698dD8f1aE93F8301B6cdfaE/sources/contracts/modules/GuestModule.sol\":2293:2304  transaction */\n      dup9\n        /* \"sourcify-verified/1/0xfea230Ee243f88BC698dD8f1aE93F8301B6cdfaE/sources/contracts/modules/GuestModule.sol\":2293:2309  transaction.data */\n      tag_178\n      jump\t// in\n    tag_177:\n        /* \"sourcify-verified/1/0xfea230Ee243f88BC698dD8f1aE93F8301B6cdfaE/sources/contracts/modules/GuestModule.sol\":2169:2182  LibOptim.call */\n      tag_179\n        /* \"sourcify-verified/1/0xfea230Ee243f88BC698dD8f1aE93F8301B6cdfaE/sources/contracts/modules/GuestModule.sol\":2169:2317  LibOptim.call(... */\n      jump\t// in\n    tag_172:\n        /* \"sourcify-verified/1/0xfea230Ee243f88BC698dD8f1aE93F8301B6cdfaE/sources/contracts/modules/GuestModule.sol\":2154:2317  bool success = LibOptim.call(... */\n      swap1\n      pop\n        /* \"sourcify-verified/1/0xfea230Ee243f88BC698dD8f1aE93F8301B6cdfaE/sources/contracts/modules/GuestModule.sol\":2330:2337  success */\n      dup1\n        /* \"sourcify-verified/1/0xfea230Ee243f88BC698dD8f1aE93F8301B6cdfaE/sources/contracts/modules/GuestModule.sol\":2326:2534  if (success) {... */\n      iszero\n      tag_180\n      jumpi\n        /* \"sourcify-verified/1/0xfea230Ee243f88BC698dD8f1aE93F8301B6cdfaE/sources/contracts/modules/GuestModule.sol\":2365:2372  _txHash */\n      dup8\n        /* \"sourcify-verified/1/0xfea230Ee243f88BC698dD8f1aE93F8301B6cdfaE/sources/contracts/modules/GuestModule.sol\":2354:2376  TxExecuted(_txHash, i) */\n      0x5c4eeb02dabf8976016ab414d617f9a162936dcace3cdef8c69ef6e262ad5ae7\n        /* \"sourcify-verified/1/0xfea230Ee243f88BC698dD8f1aE93F8301B6cdfaE/sources/contracts/modules/GuestModule.sol\":2374:2375  i */\n      dup6\n        /* \"sourcify-verified/1/0xfea230Ee243f88BC698dD8f1aE93F8301B6cdfaE/sources/contracts/modules/GuestModule.sol\":2354:2376  TxExecuted(_txHash, i) */\n      mload(0x40)\n      tag_181\n      swap2\n        /* \"#utility.yul\":2778:2803   */\n      dup2\n      mstore\n        /* \"#utility.yul\":2766:2768   */\n      0x20\n        /* \"#utility.yul\":2751:2769   */\n      add\n      swap1\n        /* \"#utility.yul\":2632:2809   */\n      jump\n        /* \"sourcify-verified/1/0xfea230Ee243f88BC698dD8f1aE93F8301B6cdfaE/sources/contracts/modules/GuestModule.sol\":2354:2376  TxExecuted(_txHash, i) */\n    tag_181:\n      mload(0x40)\n      dup1\n      swap2\n      sub\n      swap1\n      log2\n        /* \"sourcify-verified/1/0xfea230Ee243f88BC698dD8f1aE93F8301B6cdfaE/sources/contracts/modules/GuestModule.sol\":2326:2534  if (success) {... */\n      jump(tag_183)\n    tag_180:\n        /* \"sourcify-verified/1/0xfea230Ee243f88BC698dD8f1aE93F8301B6cdfaE/sources/contracts/modules/GuestModule.sol\":2401:2525  _revertBytes(... */\n      tag_183\n        /* \"sourcify-verified/1/0xfea230Ee243f88BC698dD8f1aE93F8301B6cdfaE/sources/contracts/modules/GuestModule.sol\":2425:2450  transaction.revertOnError */\n      tag_184\n      0x40\n      dup6\n      add\n      0x20\n      dup7\n      add\n      tag_166\n      jump\t// in\n    tag_184:\n        /* \"sourcify-verified/1/0xfea230Ee243f88BC698dD8f1aE93F8301B6cdfaE/sources/contracts/modules/GuestModule.sol\":2462:2469  _txHash */\n      dup10\n        /* \"sourcify-verified/1/0xfea230Ee243f88BC698dD8f1aE93F8301B6cdfaE/sources/contracts/modules/GuestModule.sol\":2481:2482  i */\n      dup7\n        /* \"sourcify-verified/1/0xfea230Ee243f88BC698dD8f1aE93F8301B6cdfaE/sources/contracts/modules/GuestModule.sol\":2494:2515  LibOptim.returnData() */\n      tag_185\n        /* \"sourcify-verified/1/0xfea230Ee243f88BC698dD8f1aE93F8301B6cdfaE/sources/contracts/modules/GuestModule.sol\":2494:2513  LibOptim.returnData */\n      tag_186\n        /* \"sourcify-verified/1/0xfea230Ee243f88BC698dD8f1aE93F8301B6cdfaE/sources/contracts/modules/GuestModule.sol\":2494:2515  LibOptim.returnData() */\n      jump\t// in\n    tag_185:\n        /* \"sourcify-verified/1/0xfea230Ee243f88BC698dD8f1aE93F8301B6cdfaE/sources/contracts/modules/GuestModule.sol\":2401:2413  _revertBytes */\n      tag_187\n        /* \"sourcify-verified/1/0xfea230Ee243f88BC698dD8f1aE93F8301B6cdfaE/sources/contracts/modules/GuestModule.sol\":2401:2525  _revertBytes(... */\n      jump\t// in\n    tag_183:\n        /* \"sourcify-verified/1/0xfea230Ee243f88BC698dD8f1aE93F8301B6cdfaE/sources/contracts/modules/GuestModule.sol\":1899:2540  {... */\n      pop\n      pop\n      pop\n        /* \"sourcify-verified/1/0xfea230Ee243f88BC698dD8f1aE93F8301B6cdfaE/sources/contracts/modules/GuestModule.sol\":1894:1897  i++ */\n      dup1\n      dup1\n      tag_188\n      swap1\n      tag_189\n      jump\t// in\n    tag_188:\n      swap2\n      pop\n      pop\n        /* \"sourcify-verified/1/0xfea230Ee243f88BC698dD8f1aE93F8301B6cdfaE/sources/contracts/modules/GuestModule.sol\":1864:2540  for (uint256 i = 0; i < size; i++) {... */\n      jump(tag_158)\n    tag_159:\n      pop\n        /* \"sourcify-verified/1/0xfea230Ee243f88BC698dD8f1aE93F8301B6cdfaE/sources/contracts/modules/GuestModule.sol\":1799:2544  {... */\n      pop\n        /* \"sourcify-verified/1/0xfea230Ee243f88BC698dD8f1aE93F8301B6cdfaE/sources/contracts/modules/GuestModule.sol\":1710:2544  function _executeGuest(... */\n      pop\n      pop\n      pop\n      jump\t// out\n        /* \"sourcify-verified/1/0xfea230Ee243f88BC698dD8f1aE93F8301B6cdfaE/sources/contracts/modules/commons/submodules/auth/SequenceBaseSig.sol\":8892:9534  function recover(... */\n    tag_117:\n        /* \"sourcify-verified/1/0xfea230Ee243f88BC698dD8f1aE93F8301B6cdfaE/sources/contracts/modules/commons/submodules/auth/SequenceBaseSig.sol\":8996:9013  uint256 threshold */\n      0x00\n      dup1\n      dup1\n      dup1\n        /* \"sourcify-verified/1/0xfea230Ee243f88BC698dD8f1aE93F8301B6cdfaE/sources/contracts/modules/commons/submodules/auth/SequenceBaseSig.sol\":9131:9172  recoverBranch(_subdigest, _signature[6:]) */\n      tag_191\n        /* \"sourcify-verified/1/0xfea230Ee243f88BC698dD8f1aE93F8301B6cdfaE/sources/contracts/modules/commons/submodules/auth/SequenceBaseSig.sol\":9145:9155  _subdigest */\n      dup8\n        /* \"sourcify-verified/1/0xfea230Ee243f88BC698dD8f1aE93F8301B6cdfaE/sources/contracts/modules/commons/submodules/auth/SequenceBaseSig.sol\":9157:9171  _signature[6:] */\n      tag_192\n        /* \"sourcify-verified/1/0xfea230Ee243f88BC698dD8f1aE93F8301B6cdfaE/sources/contracts/modules/commons/submodules/auth/SequenceBaseSig.sol\":9157:9167  _signature */\n      dup8\n        /* \"sourcify-verified/1/0xfea230Ee243f88BC698dD8f1aE93F8301B6cdfaE/sources/contracts/modules/commons/submodules/auth/SequenceBaseSig.sol\":9168:9169  6 */\n      0x06\n        /* \"sourcify-verified/1/0xfea230Ee243f88BC698dD8f1aE93F8301B6cdfaE/sources/contracts/modules/commons/submodules/auth/SequenceBaseSig.sol\":9157:9167  _signature */\n      dup2\n      dup12\n        /* \"sourcify-verified/1/0xfea230Ee243f88BC698dD8f1aE93F8301B6cdfaE/sources/contracts/modules/commons/submodules/auth/SequenceBaseSig.sol\":9157:9171  _signature[6:] */\n      tag_193\n      jump\t// in\n    tag_192:\n        /* \"sourcify-verified/1/0xfea230Ee243f88BC698dD8f1aE93F8301B6cdfaE/sources/contracts/modules/commons/submodules/auth/SequenceBaseSig.sol\":9131:9144  recoverBranch */\n      tag_194\n        /* \"sourcify-verified/1/0xfea230Ee243f88BC698dD8f1aE93F8301B6cdfaE/sources/contracts/modules/commons/submodules/auth/SequenceBaseSig.sol\":9131:9172  recoverBranch(_subdigest, _signature[6:]) */\n      jump\t// in\n    tag_191:\n        /* \"sourcify-verified/1/0xfea230Ee243f88BC698dD8f1aE93F8301B6cdfaE/sources/contracts/utils/LibOptim.sol\":622:631  bytes32 c */\n      0x00\n        /* \"sourcify-verified/1/0xfea230Ee243f88BC698dD8f1aE93F8301B6cdfaE/sources/contracts/utils/LibOptim.sol\":656:669  mstore(0, _a) */\n      swap1\n      dup2\n      mstore\n        /* \"sourcify-verified/1/0xfea230Ee243f88BC698dD8f1aE93F8301B6cdfaE/sources/contracts/utils/LibBytes.sol\":1585:1610  calldataload(data.offset) */\n      dup8\n      calldataload\n        /* \"sourcify-verified/1/0xfea230Ee243f88BC698dD8f1aE93F8301B6cdfaE/sources/contracts/utils/LibBytes.sol\":1626:1629  240 */\n      0xf0\n        /* \"sourcify-verified/1/0xfea230Ee243f88BC698dD8f1aE93F8301B6cdfaE/sources/contracts/utils/LibBytes.sol\":1622:1636  shr(240, word) */\n      shr\n        /* \"sourcify-verified/1/0xfea230Ee243f88BC698dD8f1aE93F8301B6cdfaE/sources/contracts/utils/LibOptim.sol\":683:685  32 */\n      0x20\n        /* \"sourcify-verified/1/0xfea230Ee243f88BC698dD8f1aE93F8301B6cdfaE/sources/contracts/utils/LibOptim.sol\":676:690  mstore(32, _b) */\n      dup2\n      dup2\n      mstore\n        /* \"sourcify-verified/1/0xfea230Ee243f88BC698dD8f1aE93F8301B6cdfaE/sources/contracts/utils/LibOptim.sol\":715:717  64 */\n      0x40\n        /* \"sourcify-verified/1/0xfea230Ee243f88BC698dD8f1aE93F8301B6cdfaE/sources/contracts/utils/LibOptim.sol\":702:718  keccak256(0, 64) */\n      dup1\n      dup5\n      keccak256\n        /* \"sourcify-verified/1/0xfea230Ee243f88BC698dD8f1aE93F8301B6cdfaE/sources/contracts/utils/LibOptim.sol\":656:669  mstore(0, _a) */\n      dup5\n      mstore\n        /* \"sourcify-verified/1/0xfea230Ee243f88BC698dD8f1aE93F8301B6cdfaE/sources/contracts/modules/commons/submodules/auth/SequenceBaseSig.sol\":9379:9380  2 */\n      0x02\n        /* \"sourcify-verified/1/0xfea230Ee243f88BC698dD8f1aE93F8301B6cdfaE/sources/contracts/utils/LibBytes.sol\":2034:2057  add(index, data.offset) */\n      swap1\n      swap11\n      add\n        /* \"sourcify-verified/1/0xfea230Ee243f88BC698dD8f1aE93F8301B6cdfaE/sources/contracts/utils/LibBytes.sol\":2021:2058  calldataload(add(index, data.offset)) */\n      calldataload\n        /* \"sourcify-verified/1/0xfea230Ee243f88BC698dD8f1aE93F8301B6cdfaE/sources/contracts/utils/LibBytes.sol\":2074:2077  224 */\n      0xe0\n        /* \"sourcify-verified/1/0xfea230Ee243f88BC698dD8f1aE93F8301B6cdfaE/sources/contracts/utils/LibBytes.sol\":2070:2084  shr(224, word) */\n      shr\n        /* \"sourcify-verified/1/0xfea230Ee243f88BC698dD8f1aE93F8301B6cdfaE/sources/contracts/utils/LibOptim.sol\":676:690  mstore(32, _b) */\n      swap1\n      dup2\n      swap1\n      mstore\n        /* \"sourcify-verified/1/0xfea230Ee243f88BC698dD8f1aE93F8301B6cdfaE/sources/contracts/utils/LibOptim.sol\":702:718  keccak256(0, 64) */\n      swap9\n      swap1\n      swap2\n      keccak256\n        /* \"sourcify-verified/1/0xfea230Ee243f88BC698dD8f1aE93F8301B6cdfaE/sources/contracts/utils/LibBytes.sol\":1622:1636  shr(240, word) */\n      swap1\n      swap10\n        /* \"sourcify-verified/1/0xfea230Ee243f88BC698dD8f1aE93F8301B6cdfaE/sources/contracts/modules/commons/submodules/auth/SequenceBaseSig.sol\":9109:9172  (weight, imageHash) = recoverBranch(_subdigest, _signature[6:]) */\n      swap2\n      swap9\n      pop\n        /* \"sourcify-verified/1/0xfea230Ee243f88BC698dD8f1aE93F8301B6cdfaE/sources/contracts/utils/LibOptim.sol\":702:718  keccak256(0, 64) */\n      swap7\n        /* \"sourcify-verified/1/0xfea230Ee243f88BC698dD8f1aE93F8301B6cdfaE/sources/contracts/utils/LibBytes.sol\":2070:2084  shr(224, word) */\n      swap6\n      pop\n        /* \"sourcify-verified/1/0xfea230Ee243f88BC698dD8f1aE93F8301B6cdfaE/sources/contracts/modules/commons/submodules/auth/SequenceBaseSig.sol\":8892:9534  function recover(... */\n      swap4\n      pop\n      pop\n      pop\n      pop\n      jump\t// out\n        /* \"sourcify-verified/1/0xfea230Ee243f88BC698dD8f1aE93F8301B6cdfaE/sources/contracts/modules/commons/submodules/auth/SequenceDynamicSig.sol\":648:910  function recover(... */\n    tag_121:\n        /* \"sourcify-verified/1/0xfea230Ee243f88BC698dD8f1aE93F8301B6cdfaE/sources/contracts/modules/commons/submodules/auth/SequenceDynamicSig.sol\":752:769  uint256 threshold */\n      0x00\n      dup1\n      dup1\n      dup1\n        /* \"sourcify-verified/1/0xfea230Ee243f88BC698dD8f1aE93F8301B6cdfaE/sources/contracts/modules/commons/submodules/auth/SequenceDynamicSig.sol\":854:905  SequenceBaseSig.recover(_subdigest, _signature[1:]) */\n      tag_203\n        /* \"sourcify-verified/1/0xfea230Ee243f88BC698dD8f1aE93F8301B6cdfaE/sources/contracts/modules/commons/submodules/auth/SequenceDynamicSig.sol\":878:888  _subdigest */\n      dup8\n        /* \"sourcify-verified/1/0xfea230Ee243f88BC698dD8f1aE93F8301B6cdfaE/sources/contracts/modules/commons/submodules/auth/SequenceDynamicSig.sol\":890:904  _signature[1:] */\n      tag_204\n        /* \"sourcify-verified/1/0xfea230Ee243f88BC698dD8f1aE93F8301B6cdfaE/sources/contracts/modules/commons/submodules/auth/SequenceDynamicSig.sol\":890:900  _signature */\n      dup8\n        /* \"sourcify-verified/1/0xfea230Ee243f88BC698dD8f1aE93F8301B6cdfaE/sources/contracts/modules/commons/submodules/auth/SequenceDynamicSig.sol\":901:902  1 */\n      0x01\n        /* \"sourcify-verified/1/0xfea230Ee243f88BC698dD8f1aE93F8301B6cdfaE/sources/contracts/modules/commons/submodules/auth/SequenceDynamicSig.sol\":890:900  _signature */\n      dup2\n      dup12\n        /* \"sourcify-verified/1/0xfea230Ee243f88BC698dD8f1aE93F8301B6cdfaE/sources/contracts/modules/commons/submodules/auth/SequenceDynamicSig.sol\":890:904  _signature[1:] */\n      tag_193\n      jump\t// in\n    tag_204:\n        /* \"sourcify-verified/1/0xfea230Ee243f88BC698dD8f1aE93F8301B6cdfaE/sources/contracts/modules/commons/submodules/auth/SequenceDynamicSig.sol\":854:877  SequenceBaseSig.recover */\n      tag_117\n        /* \"sourcify-verified/1/0xfea230Ee243f88BC698dD8f1aE93F8301B6cdfaE/sources/contracts/modules/commons/submodules/auth/SequenceDynamicSig.sol\":854:905  SequenceBaseSig.recover(_subdigest, _signature[1:]) */\n      jump\t// in\n    tag_203:\n        /* \"sourcify-verified/1/0xfea230Ee243f88BC698dD8f1aE93F8301B6cdfaE/sources/contracts/modules/commons/submodules/auth/SequenceDynamicSig.sol\":847:905  return SequenceBaseSig.recover(_subdigest, _signature[1:]) */\n      swap4\n      pop\n      swap4\n      pop\n      swap4\n      pop\n      swap4\n      pop\n        /* \"sourcify-verified/1/0xfea230Ee243f88BC698dD8f1aE93F8301B6cdfaE/sources/contracts/modules/commons/submodules/auth/SequenceDynamicSig.sol\":648:910  function recover(... */\n      swap4\n      pop\n      swap4\n      pop\n      swap4\n      pop\n      swap4\n      jump\t// out\n        /* \"sourcify-verified/1/0xfea230Ee243f88BC698dD8f1aE93F8301B6cdfaE/sources/contracts/modules/commons/submodules/auth/SequenceNoChainIdSig.sol\":404:617  function subdigest(bytes32 _digest) internal view returns (bytes32) {... */\n    tag_124:\n        /* \"sourcify-verified/1/0xfea230Ee243f88BC698dD8f1aE93F8301B6cdfaE/sources/contracts/modules/commons/submodules/auth/SequenceNoChainIdSig.sol\":502:606  abi.encodePacked(... */\n      mload(0x40)\n        /* \"#utility.yul\":12792:12858   */\n      0x1901000000000000000000000000000000000000000000000000000000000000\n        /* \"sourcify-verified/1/0xfea230Ee243f88BC698dD8f1aE93F8301B6cdfaE/sources/contracts/modules/commons/submodules/auth/SequenceNoChainIdSig.sol\":502:606  abi.encodePacked(... */\n      0x20\n      dup3\n      add\n        /* \"#utility.yul\":12780:12859   */\n      mstore\n        /* \"sourcify-verified/1/0xfea230Ee243f88BC698dD8f1aE93F8301B6cdfaE/sources/contracts/modules/commons/submodules/auth/SequenceNoChainIdSig.sol\":463:470  bytes32 */\n      0x00\n        /* \"#utility.yul\":12875:12886   */\n      0x22\n      dup3\n      add\n        /* \"#utility.yul\":12868:12895   */\n      dup2\n      swap1\n      mstore\n        /* \"#utility.yul\":12946:13012   */\n      0xffffffffffffffffffffffffffffffffffffffff000000000000000000000000\n        /* \"sourcify-verified/1/0xfea230Ee243f88BC698dD8f1aE93F8301B6cdfaE/sources/contracts/modules/commons/submodules/auth/SequenceNoChainIdSig.sol\":576:580  this */\n      address\n        /* \"#utility.yul\":12933:12935   */\n      0x60\n        /* \"#utility.yul\":12929:12944   */\n      shl\n        /* \"#utility.yul\":12925:13013   */\n      and\n        /* \"#utility.yul\":12911:12923   */\n      0x42\n      dup4\n      add\n        /* \"#utility.yul\":12904:13014   */\n      mstore\n        /* \"#utility.yul\":13030:13042   */\n      0x56\n      dup3\n      add\n        /* \"#utility.yul\":13023:13051   */\n      dup4\n      swap1\n      mstore\n        /* \"sourcify-verified/1/0xfea230Ee243f88BC698dD8f1aE93F8301B6cdfaE/sources/contracts/modules/commons/submodules/auth/SequenceNoChainIdSig.sol\":463:470  bytes32 */\n      swap1\n        /* \"#utility.yul\":13067:13079   */\n      0x76\n      add\n        /* \"sourcify-verified/1/0xfea230Ee243f88BC698dD8f1aE93F8301B6cdfaE/sources/contracts/modules/commons/submodules/auth/SequenceNoChainIdSig.sol\":502:606  abi.encodePacked(... */\n      tag_155\n        /* \"#utility.yul\":12494:13085   */\n      jump\n        /* \"sourcify-verified/1/0xfea230Ee243f88BC698dD8f1aE93F8301B6cdfaE/sources/contracts/modules/commons/submodules/auth/SequenceChainedSig.sol\":2320:4379  function chainedRecover(... */\n    tag_128:\n        /* \"sourcify-verified/1/0xfea230Ee243f88BC698dD8f1aE93F8301B6cdfaE/sources/contracts/modules/commons/submodules/auth/SequenceChainedSig.sol\":2428:2445  uint256 threshold */\n      0x00\n      dup1\n      dup1\n      dup1\n      dup1\n        /* \"sourcify-verified/1/0xfea230Ee243f88BC698dD8f1aE93F8301B6cdfaE/sources/contracts/utils/LibBytesPointer.sol\":3378:3392  add(_index, 3) */\n      0x04\n        /* \"sourcify-verified/1/0xfea230Ee243f88BC698dD8f1aE93F8301B6cdfaE/sources/contracts/modules/commons/submodules/auth/SequenceChainedSig.sol\":2563:2564  1 */\n      0x01\n        /* \"sourcify-verified/1/0xfea230Ee243f88BC698dD8f1aE93F8301B6cdfaE/sources/contracts/utils/LibBytesPointer.sol\":3290:3315  add(_index, _data.offset) */\n      dup9\n      add\n        /* \"sourcify-verified/1/0xfea230Ee243f88BC698dD8f1aE93F8301B6cdfaE/sources/contracts/utils/LibBytesPointer.sol\":3277:3316  calldataload(add(_index, _data.offset)) */\n      calldataload\n        /* \"sourcify-verified/1/0xfea230Ee243f88BC698dD8f1aE93F8301B6cdfaE/sources/contracts/utils/LibBytesPointer.sol\":3336:3339  232 */\n      0xe8\n        /* \"sourcify-verified/1/0xfea230Ee243f88BC698dD8f1aE93F8301B6cdfaE/sources/contracts/utils/LibBytesPointer.sol\":3332:3346  shr(232, word) */\n      shr\n        /* \"sourcify-verified/1/0xfea230Ee243f88BC698dD8f1aE93F8301B6cdfaE/sources/contracts/modules/commons/submodules/auth/SequenceChainedSig.sol\":2428:2445  uint256 threshold */\n      dup3\n        /* \"sourcify-verified/1/0xfea230Ee243f88BC698dD8f1aE93F8301B6cdfaE/sources/contracts/modules/commons/submodules/auth/SequenceChainedSig.sol\":2768:2784  sigSize + rindex */\n      tag_210\n        /* \"sourcify-verified/1/0xfea230Ee243f88BC698dD8f1aE93F8301B6cdfaE/sources/contracts/utils/LibBytesPointer.sol\":3378:3392  add(_index, 3) */\n      dup4\n        /* \"sourcify-verified/1/0xfea230Ee243f88BC698dD8f1aE93F8301B6cdfaE/sources/contracts/utils/LibBytesPointer.sol\":3332:3346  shr(232, word) */\n      dup4\n        /* \"sourcify-verified/1/0xfea230Ee243f88BC698dD8f1aE93F8301B6cdfaE/sources/contracts/modules/commons/submodules/auth/SequenceChainedSig.sol\":2768:2784  sigSize + rindex */\n      tag_211\n      jump\t// in\n    tag_210:\n        /* \"sourcify-verified/1/0xfea230Ee243f88BC698dD8f1aE93F8301B6cdfaE/sources/contracts/modules/commons/submodules/auth/SequenceChainedSig.sol\":2750:2784  uint256 nrindex = sigSize + rindex */\n      swap1\n      pop\n        /* \"sourcify-verified/1/0xfea230Ee243f88BC698dD8f1aE93F8301B6cdfaE/sources/contracts/modules/commons/submodules/auth/SequenceChainedSig.sol\":2883:2955  signatureRecovery(... */\n      tag_212\n        /* \"sourcify-verified/1/0xfea230Ee243f88BC698dD8f1aE93F8301B6cdfaE/sources/contracts/modules/commons/submodules/auth/SequenceChainedSig.sol\":2908:2915  _digest */\n      dup12\n        /* \"sourcify-verified/1/0xfea230Ee243f88BC698dD8f1aE93F8301B6cdfaE/sources/contracts/modules/commons/submodules/auth/SequenceChainedSig.sol\":2923:2949  _signature[rindex:nrindex] */\n      tag_58\n        /* \"sourcify-verified/1/0xfea230Ee243f88BC698dD8f1aE93F8301B6cdfaE/sources/contracts/modules/commons/submodules/auth/SequenceChainedSig.sol\":2750:2784  uint256 nrindex = sigSize + rindex */\n      dup4\n        /* \"sourcify-verified/1/0xfea230Ee243f88BC698dD8f1aE93F8301B6cdfaE/sources/contracts/modules/commons/submodules/auth/SequenceChainedSig.sol\":2934:2940  rindex */\n      dup7\n        /* \"sourcify-verified/1/0xfea230Ee243f88BC698dD8f1aE93F8301B6cdfaE/sources/contracts/modules/commons/submodules/auth/SequenceChainedSig.sol\":2923:2933  _signature */\n      dup14\n      dup16\n        /* \"sourcify-verified/1/0xfea230Ee243f88BC698dD8f1aE93F8301B6cdfaE/sources/contracts/modules/commons/submodules/auth/SequenceChainedSig.sol\":2923:2949  _signature[rindex:nrindex] */\n      tag_193\n      jump\t// in\n        /* \"sourcify-verified/1/0xfea230Ee243f88BC698dD8f1aE93F8301B6cdfaE/sources/contracts/modules/commons/submodules/auth/SequenceChainedSig.sol\":2883:2955  signatureRecovery(... */\n    tag_212:\n        /* \"sourcify-verified/1/0xfea230Ee243f88BC698dD8f1aE93F8301B6cdfaE/sources/contracts/modules/commons/submodules/auth/SequenceChainedSig.sol\":2791:2955  (... */\n      swap4\n      swap12\n      pop\n      swap2\n      swap10\n      pop\n      swap8\n      pop\n      swap6\n      pop\n      swap4\n      pop\n        /* \"sourcify-verified/1/0xfea230Ee243f88BC698dD8f1aE93F8301B6cdfaE/sources/contracts/modules/commons/submodules/auth/SequenceChainedSig.sol\":2966:2984  weight < threshold */\n      dup8\n      dup8\n      lt\n        /* \"sourcify-verified/1/0xfea230Ee243f88BC698dD8f1aE93F8301B6cdfaE/sources/contracts/modules/commons/submodules/auth/SequenceChainedSig.sol\":2962:3080  if (weight < threshold) {... */\n      iszero\n      tag_214\n      jumpi\n        /* \"sourcify-verified/1/0xfea230Ee243f88BC698dD8f1aE93F8301B6cdfaE/sources/contracts/modules/commons/submodules/auth/SequenceChainedSig.sol\":3027:3053  _signature[rindex:nrindex] */\n      tag_215\n        /* \"sourcify-verified/1/0xfea230Ee243f88BC698dD8f1aE93F8301B6cdfaE/sources/contracts/modules/commons/submodules/auth/SequenceChainedSig.sol\":3045:3052  nrindex */\n      dup2\n        /* \"sourcify-verified/1/0xfea230Ee243f88BC698dD8f1aE93F8301B6cdfaE/sources/contracts/modules/commons/submodules/auth/SequenceChainedSig.sol\":3038:3044  rindex */\n      dup5\n        /* \"sourcify-verified/1/0xfea230Ee243f88BC698dD8f1aE93F8301B6cdfaE/sources/contracts/modules/commons/submodules/auth/SequenceChainedSig.sol\":3027:3037  _signature */\n      dup12\n      dup14\n        /* \"sourcify-verified/1/0xfea230Ee243f88BC698dD8f1aE93F8301B6cdfaE/sources/contracts/modules/commons/submodules/auth/SequenceChainedSig.sol\":3027:3053  _signature[rindex:nrindex] */\n      tag_193\n      jump\t// in\n    tag_215:\n        /* \"sourcify-verified/1/0xfea230Ee243f88BC698dD8f1aE93F8301B6cdfaE/sources/contracts/modules/commons/submodules/auth/SequenceChainedSig.sol\":3055:3064  threshold */\n      dup10\n        /* \"sourcify-verified/1/0xfea230Ee243f88BC698dD8f1aE93F8301B6cdfaE/sources/contracts/modules/commons/submodules/auth/SequenceChainedSig.sol\":3066:3072  weight */\n      dup10\n        /* \"sourcify-verified/1/0xfea230Ee243f88BC698dD8f1aE93F8301B6cdfaE/sources/contracts/modules/commons/submodules/auth/SequenceChainedSig.sol\":3001:3073  LowWeightChainedSignature(_signature[rindex:nrindex], threshold, weight) */\n      mload(0x40)\n      0xb006aba000000000000000000000000000000000000000000000000000000000\n      dup2\n      mstore\n      0x04\n      add\n      tag_93\n      swap5\n      swap4\n      swap3\n      swap2\n      swap1\n      tag_217\n      jump\t// in\n        /* \"sourcify-verified/1/0xfea230Ee243f88BC698dD8f1aE93F8301B6cdfaE/sources/contracts/modules/commons/submodules/auth/SequenceChainedSig.sol\":2962:3080  if (weight < threshold) {... */\n    tag_214:\n        /* \"sourcify-verified/1/0xfea230Ee243f88BC698dD8f1aE93F8301B6cdfaE/sources/contracts/modules/commons/submodules/auth/SequenceChainedSig.sol\":3095:3102  nrindex */\n      dup1\n        /* \"sourcify-verified/1/0xfea230Ee243f88BC698dD8f1aE93F8301B6cdfaE/sources/contracts/modules/commons/submodules/auth/SequenceChainedSig.sol\":3086:3102  rindex = nrindex */\n      swap3\n      pop\n        /* \"sourcify-verified/1/0xfea230Ee243f88BC698dD8f1aE93F8301B6cdfaE/sources/contracts/modules/commons/submodules/auth/SequenceChainedSig.sol\":3283:4375  while (rindex < _signature.length) {... */\n    tag_218:\n        /* \"sourcify-verified/1/0xfea230Ee243f88BC698dD8f1aE93F8301B6cdfaE/sources/contracts/modules/commons/submodules/auth/SequenceChainedSig.sol\":3290:3316  rindex < _signature.length */\n      dup9\n      dup4\n      lt\n        /* \"sourcify-verified/1/0xfea230Ee243f88BC698dD8f1aE93F8301B6cdfaE/sources/contracts/modules/commons/submodules/auth/SequenceChainedSig.sol\":3283:4375  while (rindex < _signature.length) {... */\n      iszero\n      tag_219\n      jumpi\n        /* \"sourcify-verified/1/0xfea230Ee243f88BC698dD8f1aE93F8301B6cdfaE/sources/contracts/utils/LibBytesPointer.sol\":3390:3391  3 */\n      0x03\n        /* \"sourcify-verified/1/0xfea230Ee243f88BC698dD8f1aE93F8301B6cdfaE/sources/contracts/utils/LibBytesPointer.sol\":3378:3392  add(_index, 3) */\n      dup4\n      add\n      swap3\n        /* \"sourcify-verified/1/0xfea230Ee243f88BC698dD8f1aE93F8301B6cdfaE/sources/contracts/utils/LibBytesPointer.sol\":3290:3315  add(_index, _data.offset) */\n      dup11\n      add\n        /* \"sourcify-verified/1/0xfea230Ee243f88BC698dD8f1aE93F8301B6cdfaE/sources/contracts/utils/LibBytesPointer.sol\":3277:3316  calldataload(add(_index, _data.offset)) */\n      calldataload\n        /* \"sourcify-verified/1/0xfea230Ee243f88BC698dD8f1aE93F8301B6cdfaE/sources/contracts/utils/LibBytesPointer.sol\":3336:3339  232 */\n      0xe8\n        /* \"sourcify-verified/1/0xfea230Ee243f88BC698dD8f1aE93F8301B6cdfaE/sources/contracts/utils/LibBytesPointer.sol\":3332:3346  shr(232, word) */\n      shr\n      swap2\n      pop\n        /* \"sourcify-verified/1/0xfea230Ee243f88BC698dD8f1aE93F8301B6cdfaE/sources/contracts/modules/commons/submodules/auth/SequenceChainedSig.sol\":3444:3460  sigSize + rindex */\n      tag_221\n        /* \"sourcify-verified/1/0xfea230Ee243f88BC698dD8f1aE93F8301B6cdfaE/sources/contracts/utils/LibBytesPointer.sol\":3378:3392  add(_index, 3) */\n      dup4\n        /* \"sourcify-verified/1/0xfea230Ee243f88BC698dD8f1aE93F8301B6cdfaE/sources/contracts/utils/LibBytesPointer.sol\":3332:3346  shr(232, word) */\n      dup4\n        /* \"sourcify-verified/1/0xfea230Ee243f88BC698dD8f1aE93F8301B6cdfaE/sources/contracts/modules/commons/submodules/auth/SequenceChainedSig.sol\":3444:3460  sigSize + rindex */\n      tag_211\n      jump\t// in\n    tag_221:\n        /* \"sourcify-verified/1/0xfea230Ee243f88BC698dD8f1aE93F8301B6cdfaE/sources/contracts/modules/commons/submodules/auth/SequenceChainedSig.sol\":3434:3460  nrindex = sigSize + rindex */\n      swap1\n      pop\n        /* \"sourcify-verified/1/0xfea230Ee243f88BC698dD8f1aE93F8301B6cdfaE/sources/contracts/modules/commons/submodules/auth/SequenceChainedSig.sol\":3469:3491  uint256 nextCheckpoint */\n      0x00\n        /* \"sourcify-verified/1/0xfea230Ee243f88BC698dD8f1aE93F8301B6cdfaE/sources/contracts/modules/commons/submodules/auth/SequenceChainedSig.sol\":3687:3792  signatureRecovery(... */\n      tag_222\n        /* \"sourcify-verified/1/0xfea230Ee243f88BC698dD8f1aE93F8301B6cdfaE/sources/contracts/modules/commons/submodules/auth/SequenceChainedSig.sol\":3714:3748  _hashSetImageHashStruct(imageHash) */\n      tag_223\n        /* \"sourcify-verified/1/0xfea230Ee243f88BC698dD8f1aE93F8301B6cdfaE/sources/contracts/modules/commons/submodules/auth/SequenceChainedSig.sol\":3738:3747  imageHash */\n      dup9\n        /* \"sourcify-verified/1/0xfea230Ee243f88BC698dD8f1aE93F8301B6cdfaE/sources/contracts/modules/commons/submodules/auth/SequenceChainedSig.sol\":3714:3737  _hashSetImageHashStruct */\n      tag_224\n        /* \"sourcify-verified/1/0xfea230Ee243f88BC698dD8f1aE93F8301B6cdfaE/sources/contracts/modules/commons/submodules/auth/SequenceChainedSig.sol\":3714:3748  _hashSetImageHashStruct(imageHash) */\n      jump\t// in\n    tag_223:\n        /* \"sourcify-verified/1/0xfea230Ee243f88BC698dD8f1aE93F8301B6cdfaE/sources/contracts/modules/commons/submodules/auth/SequenceChainedSig.sol\":3758:3768  _signature */\n      dup13\n      dup13\n        /* \"sourcify-verified/1/0xfea230Ee243f88BC698dD8f1aE93F8301B6cdfaE/sources/contracts/modules/commons/submodules/auth/SequenceChainedSig.sol\":3769:3775  rindex */\n      dup8\n        /* \"sourcify-verified/1/0xfea230Ee243f88BC698dD8f1aE93F8301B6cdfaE/sources/contracts/modules/commons/submodules/auth/SequenceChainedSig.sol\":3758:3784  _signature[rindex:nrindex] */\n      swap1\n        /* \"sourcify-verified/1/0xfea230Ee243f88BC698dD8f1aE93F8301B6cdfaE/sources/contracts/modules/commons/submodules/auth/SequenceChainedSig.sol\":3776:3783  nrindex */\n      dup7\n        /* \"sourcify-verified/1/0xfea230Ee243f88BC698dD8f1aE93F8301B6cdfaE/sources/contracts/modules/commons/submodules/auth/SequenceChainedSig.sol\":3758:3784  _signature[rindex:nrindex] */\n      swap3\n      tag_58\n      swap4\n      swap3\n      swap2\n      swap1\n      tag_193\n      jump\t// in\n        /* \"sourcify-verified/1/0xfea230Ee243f88BC698dD8f1aE93F8301B6cdfaE/sources/contracts/modules/commons/submodules/auth/SequenceChainedSig.sol\":3687:3792  signatureRecovery(... */\n    tag_222:\n        /* \"sourcify-verified/1/0xfea230Ee243f88BC698dD8f1aE93F8301B6cdfaE/sources/contracts/modules/commons/submodules/auth/SequenceChainedSig.sol\":3500:3792  (... */\n      swap4\n      swap13\n      pop\n      swap2\n      swap11\n      pop\n      swap9\n      pop\n      swap1\n      swap2\n      pop\n      pop\n        /* \"sourcify-verified/1/0xfea230Ee243f88BC698dD8f1aE93F8301B6cdfaE/sources/contracts/modules/commons/submodules/auth/SequenceChainedSig.sol\":3833:3851  weight < threshold */\n      dup9\n      dup9\n      lt\n        /* \"sourcify-verified/1/0xfea230Ee243f88BC698dD8f1aE93F8301B6cdfaE/sources/contracts/modules/commons/submodules/auth/SequenceChainedSig.sol\":3829:3951  if (weight < threshold) {... */\n      iszero\n      tag_226\n      jumpi\n        /* \"sourcify-verified/1/0xfea230Ee243f88BC698dD8f1aE93F8301B6cdfaE/sources/contracts/modules/commons/submodules/auth/SequenceChainedSig.sol\":3896:3922  _signature[rindex:nrindex] */\n      tag_227\n        /* \"sourcify-verified/1/0xfea230Ee243f88BC698dD8f1aE93F8301B6cdfaE/sources/contracts/modules/commons/submodules/auth/SequenceChainedSig.sol\":3914:3921  nrindex */\n      dup3\n        /* \"sourcify-verified/1/0xfea230Ee243f88BC698dD8f1aE93F8301B6cdfaE/sources/contracts/modules/commons/submodules/auth/SequenceChainedSig.sol\":3907:3913  rindex */\n      dup6\n        /* \"sourcify-verified/1/0xfea230Ee243f88BC698dD8f1aE93F8301B6cdfaE/sources/contracts/modules/commons/submodules/auth/SequenceChainedSig.sol\":3896:3906  _signature */\n      dup13\n      dup15\n        /* \"sourcify-verified/1/0xfea230Ee243f88BC698dD8f1aE93F8301B6cdfaE/sources/contracts/modules/commons/submodules/auth/SequenceChainedSig.sol\":3896:3922  _signature[rindex:nrindex] */\n      tag_193\n      jump\t// in\n    tag_227:\n        /* \"sourcify-verified/1/0xfea230Ee243f88BC698dD8f1aE93F8301B6cdfaE/sources/contracts/modules/commons/submodules/auth/SequenceChainedSig.sol\":3924:3933  threshold */\n      dup11\n        /* \"sourcify-verified/1/0xfea230Ee243f88BC698dD8f1aE93F8301B6cdfaE/sources/contracts/modules/commons/submodules/auth/SequenceChainedSig.sol\":3935:3941  weight */\n      dup11\n        /* \"sourcify-verified/1/0xfea230Ee243f88BC698dD8f1aE93F8301B6cdfaE/sources/contracts/modules/commons/submodules/auth/SequenceChainedSig.sol\":3870:3942  LowWeightChainedSignature(_signature[rindex:nrindex], threshold, weight) */\n      mload(0x40)\n      0xb006aba000000000000000000000000000000000000000000000000000000000\n      dup2\n      mstore\n      0x04\n      add\n      tag_93\n      swap5\n      swap4\n      swap3\n      swap2\n      swap1\n      tag_217\n      jump\t// in\n        /* \"sourcify-verified/1/0xfea230Ee243f88BC698dD8f1aE93F8301B6cdfaE/sources/contracts/modules/commons/submodules/auth/SequenceChainedSig.sol\":3829:3951  if (weight < threshold) {... */\n    tag_226:\n        /* \"sourcify-verified/1/0xfea230Ee243f88BC698dD8f1aE93F8301B6cdfaE/sources/contracts/modules/commons/submodules/auth/SequenceChainedSig.sol\":4216:4226  checkpoint */\n      dup5\n        /* \"sourcify-verified/1/0xfea230Ee243f88BC698dD8f1aE93F8301B6cdfaE/sources/contracts/modules/commons/submodules/auth/SequenceChainedSig.sol\":4198:4212  nextCheckpoint */\n      dup2\n        /* \"sourcify-verified/1/0xfea230Ee243f88BC698dD8f1aE93F8301B6cdfaE/sources/contracts/modules/commons/submodules/auth/SequenceChainedSig.sol\":4198:4226  nextCheckpoint >= checkpoint */\n      lt\n        /* \"sourcify-verified/1/0xfea230Ee243f88BC698dD8f1aE93F8301B6cdfaE/sources/contracts/modules/commons/submodules/auth/SequenceChainedSig.sol\":4194:4309  if (nextCheckpoint >= checkpoint) {... */\n      tag_229\n      jumpi\n        /* \"sourcify-verified/1/0xfea230Ee243f88BC698dD8f1aE93F8301B6cdfaE/sources/contracts/modules/commons/submodules/auth/SequenceChainedSig.sol\":4245:4300  WrongChainedCheckpointOrder(nextCheckpoint, checkpoint) */\n      mload(0x40)\n      0x37daf62b00000000000000000000000000000000000000000000000000000000\n      dup2\n      mstore\n      0x04\n      dup2\n      add\n        /* \"#utility.yul\":16193:16218   */\n      dup3\n      swap1\n      mstore\n        /* \"#utility.yul\":16234:16252   */\n      0x24\n      dup2\n      add\n        /* \"#utility.yul\":16227:16261   */\n      dup7\n      swap1\n      mstore\n        /* \"#utility.yul\":16166:16184   */\n      0x44\n      add\n        /* \"sourcify-verified/1/0xfea230Ee243f88BC698dD8f1aE93F8301B6cdfaE/sources/contracts/modules/commons/submodules/auth/SequenceChainedSig.sol\":4245:4300  WrongChainedCheckpointOrder(nextCheckpoint, checkpoint) */\n      tag_93\n        /* \"#utility.yul\":16019:16267   */\n      jump\n        /* \"sourcify-verified/1/0xfea230Ee243f88BC698dD8f1aE93F8301B6cdfaE/sources/contracts/modules/commons/submodules/auth/SequenceChainedSig.sol\":4194:4309  if (nextCheckpoint >= checkpoint) {... */\n    tag_229:\n        /* \"sourcify-verified/1/0xfea230Ee243f88BC698dD8f1aE93F8301B6cdfaE/sources/contracts/modules/commons/submodules/auth/SequenceChainedSig.sol\":4330:4344  nextCheckpoint */\n      swap4\n      pop\n        /* \"sourcify-verified/1/0xfea230Ee243f88BC698dD8f1aE93F8301B6cdfaE/sources/contracts/modules/commons/submodules/auth/SequenceChainedSig.sol\":4361:4368  nrindex */\n      swap2\n      pop\n      dup2\n        /* \"sourcify-verified/1/0xfea230Ee243f88BC698dD8f1aE93F8301B6cdfaE/sources/contracts/modules/commons/submodules/auth/SequenceChainedSig.sol\":3283:4375  while (rindex < _signature.length) {... */\n      jump(tag_218)\n    tag_219:\n        /* \"sourcify-verified/1/0xfea230Ee243f88BC698dD8f1aE93F8301B6cdfaE/sources/contracts/modules/commons/submodules/auth/SequenceChainedSig.sol\":2540:4379  {... */\n      pop\n      pop\n      pop\n        /* \"sourcify-verified/1/0xfea230Ee243f88BC698dD8f1aE93F8301B6cdfaE/sources/contracts/modules/commons/submodules/auth/SequenceChainedSig.sol\":2320:4379  function chainedRecover(... */\n      swap4\n      swap8\n      swap3\n      swap7\n      pop\n      swap4\n      pop\n      swap4\n      pop\n      jump\t// out\n        /* \"sourcify-verified/1/0xfea230Ee243f88BC698dD8f1aE93F8301B6cdfaE/sources/contracts/modules/commons/ModuleStorage.sol\":490:677  function readBytes32Map(bytes32 _key, bytes32 _subKey) internal view returns (bytes32 val) {... */\n    tag_133:\n        /* \"sourcify-verified/1/0xfea230Ee243f88BC698dD8f1aE93F8301B6cdfaE/sources/contracts/modules/commons/ModuleStorage.sol\":568:579  bytes32 val */\n      0x00\n        /* \"sourcify-verified/1/0xfea230Ee243f88BC698dD8f1aE93F8301B6cdfaE/sources/contracts/modules/commons/ModuleStorage.sol\":587:598  bytes32 key */\n      dup1\n        /* \"sourcify-verified/1/0xfea230Ee243f88BC698dD8f1aE93F8301B6cdfaE/sources/contracts/modules/commons/ModuleStorage.sol\":622:626  _key */\n      dup4\n        /* \"sourcify-verified/1/0xfea230Ee243f88BC698dD8f1aE93F8301B6cdfaE/sources/contracts/modules/commons/ModuleStorage.sol\":628:635  _subKey */\n      dup4\n        /* \"sourcify-verified/1/0xfea230Ee243f88BC698dD8f1aE93F8301B6cdfaE/sources/contracts/modules/commons/ModuleStorage.sol\":611:636  abi.encode(_key, _subKey) */\n      add(0x20, mload(0x40))\n      tag_233\n      swap3\n      swap2\n      swap1\n        /* \"#utility.yul\":16193:16218   */\n      swap2\n      dup3\n      mstore\n        /* \"#utility.yul\":16249:16251   */\n      0x20\n        /* \"#utility.yul\":16234:16252   */\n      dup3\n      add\n        /* \"#utility.yul\":16227:16261   */\n      mstore\n        /* \"#utility.yul\":16181:16183   */\n      0x40\n        /* \"#utility.yul\":16166:16184   */\n      add\n      swap1\n        /* \"#utility.yul\":16019:16267   */\n      jump\n        /* \"sourcify-verified/1/0xfea230Ee243f88BC698dD8f1aE93F8301B6cdfaE/sources/contracts/modules/commons/ModuleStorage.sol\":611:636  abi.encode(_key, _subKey) */\n    tag_233:\n      0x40\n      dup1\n      mload\n      0xffffffffffffffffffffffffffffffffffffffffffffffffffffffffffffffe0\n      dup2\n      dup5\n      sub\n      add\n      dup2\n      mstore\n      swap2\n      swap1\n      mstore\n        /* \"sourcify-verified/1/0xfea230Ee243f88BC698dD8f1aE93F8301B6cdfaE/sources/contracts/modules/commons/ModuleStorage.sol\":601:637  keccak256(abi.encode(_key, _subKey)) */\n      dup1\n      mload\n        /* \"sourcify-verified/1/0xfea230Ee243f88BC698dD8f1aE93F8301B6cdfaE/sources/contracts/modules/commons/ModuleStorage.sol\":611:636  abi.encode(_key, _subKey) */\n      0x20\n        /* \"sourcify-verified/1/0xfea230Ee243f88BC698dD8f1aE93F8301B6cdfaE/sources/contracts/modules/commons/ModuleStorage.sol\":601:637  keccak256(abi.encode(_key, _subKey)) */\n      swap1\n      swap2\n      add\n      keccak256\n        /* \"sourcify-verified/1/0xfea230Ee243f88BC698dD8f1aE93F8301B6cdfaE/sources/contracts/modules/commons/ModuleStorage.sol\":661:671  sload(key) */\n      sload\n      swap5\n        /* \"sourcify-verified/1/0xfea230Ee243f88BC698dD8f1aE93F8301B6cdfaE/sources/contracts/modules/commons/ModuleStorage.sol\":490:677  function readBytes32Map(bytes32 _key, bytes32 _subKey) internal view returns (bytes32 val) {... */\n      swap4\n      pop\n      pop\n      pop\n      pop\n      jump\t// out\n        /* \"sourcify-verified/1/0xfea230Ee243f88BC698dD8f1aE93F8301B6cdfaE/sources/contracts/modules/commons/ModuleCalls.sol\":4140:4371  function supportsInterface(bytes4 _interfaceID) public override virtual pure returns (bool) {... */\n    tag_147:\n        /* \"sourcify-verified/1/0xfea230Ee243f88BC698dD8f1aE93F8301B6cdfaE/sources/contracts/modules/commons/ModuleCalls.sol\":4226:4230  bool */\n      0x00\n        /* \"sourcify-verified/1/0xfea230Ee243f88BC698dD8f1aE93F8301B6cdfaE/sources/contracts/modules/commons/ModuleCalls.sol\":4242:4288  _interfaceID == type(IModuleCalls).interfaceId */\n      0xe4a77bbc00000000000000000000000000000000000000000000000000000000\n      0xffffffff00000000000000000000000000000000000000000000000000000000\n      dup4\n      and\n      add\n        /* \"sourcify-verified/1/0xfea230Ee243f88BC698dD8f1aE93F8301B6cdfaE/sources/contracts/modules/commons/ModuleCalls.sol\":4238:4316  if (_interfaceID == type(IModuleCalls).interfaceId) {... */\n      tag_236\n      jumpi\n      pop\n        /* \"sourcify-verified/1/0xfea230Ee243f88BC698dD8f1aE93F8301B6cdfaE/sources/contracts/modules/commons/ModuleCalls.sol\":4305:4309  true */\n      0x01\n      swap2\n        /* \"sourcify-verified/1/0xfea230Ee243f88BC698dD8f1aE93F8301B6cdfaE/sources/contracts/modules/commons/ModuleCalls.sol\":4140:4371  function supportsInterface(bytes4 _interfaceID) public override virtual pure returns (bool) {... */\n      swap1\n      pop\n      jump\t// out\n        /* \"sourcify-verified/1/0xfea230Ee243f88BC698dD8f1aE93F8301B6cdfaE/sources/contracts/modules/commons/ModuleCalls.sol\":4238:4316  if (_interfaceID == type(IModuleCalls).interfaceId) {... */\n    tag_236:\n        /* \"sourcify-verified/1/0xfea230Ee243f88BC698dD8f1aE93F8301B6cdfaE/sources/contracts/modules/commons/ModuleCalls.sol\":4329:4366  super.supportsInterface(_interfaceID) */\n      tag_80\n        /* \"sourcify-verified/1/0xfea230Ee243f88BC698dD8f1aE93F8301B6cdfaE/sources/contracts/modules/commons/ModuleCalls.sol\":4353:4365  _interfaceID */\n      dup3\n        /* \"sourcify-verified/1/0xfea230Ee243f88BC698dD8f1aE93F8301B6cdfaE/sources/contracts/modules/commons/ModuleCalls.sol\":4329:4352  super.supportsInterface */\n      tag_238\n        /* \"sourcify-verified/1/0xfea230Ee243f88BC698dD8f1aE93F8301B6cdfaE/sources/contracts/modules/commons/ModuleCalls.sol\":4329:4366  super.supportsInterface(_interfaceID) */\n      jump\t// in\n        /* \"sourcify-verified/1/0xfea230Ee243f88BC698dD8f1aE93F8301B6cdfaE/sources/contracts/utils/LibOptim.sol\":1525:1878  function call(... */\n    tag_179:\n        /* \"sourcify-verified/1/0xfea230Ee243f88BC698dD8f1aE93F8301B6cdfaE/sources/contracts/utils/LibOptim.sol\":1640:1646  bool r */\n      0x00\n        /* \"sourcify-verified/1/0xfea230Ee243f88BC698dD8f1aE93F8301B6cdfaE/sources/contracts/utils/LibOptim.sol\":1688:1692  0x40 */\n      0x40\n        /* \"sourcify-verified/1/0xfea230Ee243f88BC698dD8f1aE93F8301B6cdfaE/sources/contracts/utils/LibOptim.sol\":1682:1693  mload(0x40) */\n      mload\n        /* \"sourcify-verified/1/0xfea230Ee243f88BC698dD8f1aE93F8301B6cdfaE/sources/contracts/utils/LibOptim.sol\":1732:1744  _data.length */\n      dup3\n        /* \"sourcify-verified/1/0xfea230Ee243f88BC698dD8f1aE93F8301B6cdfaE/sources/contracts/utils/LibOptim.sol\":1718:1730  _data.offset */\n      dup5\n        /* \"sourcify-verified/1/0xfea230Ee243f88BC698dD8f1aE93F8301B6cdfaE/sources/contracts/utils/LibOptim.sol\":1713:1716  tmp */\n      dup3\n        /* \"sourcify-verified/1/0xfea230Ee243f88BC698dD8f1aE93F8301B6cdfaE/sources/contracts/utils/LibOptim.sol\":1700:1745  calldatacopy(tmp, _data.offset, _data.length) */\n      calldatacopy\n        /* \"sourcify-verified/1/0xfea230Ee243f88BC698dD8f1aE93F8301B6cdfaE/sources/contracts/utils/LibOptim.sol\":1859:1860  0 */\n      0x00\n        /* \"sourcify-verified/1/0xfea230Ee243f88BC698dD8f1aE93F8301B6cdfaE/sources/contracts/utils/LibOptim.sol\":1848:1849  0 */\n      dup1\n        /* \"sourcify-verified/1/0xfea230Ee243f88BC698dD8f1aE93F8301B6cdfaE/sources/contracts/utils/LibOptim.sol\":1826:1838  _data.length */\n      dup5\n        /* \"sourcify-verified/1/0xfea230Ee243f88BC698dD8f1aE93F8301B6cdfaE/sources/contracts/utils/LibOptim.sol\":1813:1816  tmp */\n      dup4\n        /* \"sourcify-verified/1/0xfea230Ee243f88BC698dD8f1aE93F8301B6cdfaE/sources/contracts/utils/LibOptim.sol\":1799:1803  _val */\n      dup10\n        /* \"sourcify-verified/1/0xfea230Ee243f88BC698dD8f1aE93F8301B6cdfaE/sources/contracts/utils/LibOptim.sol\":1786:1789  _to */\n      dup12\n        /* \"sourcify-verified/1/0xfea230Ee243f88BC698dD8f1aE93F8301B6cdfaE/sources/contracts/utils/LibOptim.sol\":1772:1776  _gas */\n      dup11\n        /* \"sourcify-verified/1/0xfea230Ee243f88BC698dD8f1aE93F8301B6cdfaE/sources/contracts/utils/LibOptim.sol\":1758:1868  call(... */\n      call\n        /* \"sourcify-verified/1/0xfea230Ee243f88BC698dD8f1aE93F8301B6cdfaE/sources/contracts/utils/LibOptim.sol\":1753:1868  r := call(... */\n      swap8\n        /* \"sourcify-verified/1/0xfea230Ee243f88BC698dD8f1aE93F8301B6cdfaE/sources/contracts/utils/LibOptim.sol\":1525:1878  function call(... */\n      swap7\n      pop\n      pop\n      pop\n      pop\n      pop\n      pop\n      pop\n      jump\t// out\n        /* \"sourcify-verified/1/0xfea230Ee243f88BC698dD8f1aE93F8301B6cdfaE/sources/contracts/utils/LibOptim.sol\":852:1123  function returnData() internal pure returns (bytes memory r) {... */\n    tag_186:\n        /* \"sourcify-verified/1/0xfea230Ee243f88BC698dD8f1aE93F8301B6cdfaE/sources/contracts/utils/LibOptim.sol\":897:911  bytes memory r */\n      0x60\n        /* \"sourcify-verified/1/0xfea230Ee243f88BC698dD8f1aE93F8301B6cdfaE/sources/contracts/utils/LibOptim.sol\":948:964  returndatasize() */\n      returndatasize\n        /* \"sourcify-verified/1/0xfea230Ee243f88BC698dD8f1aE93F8301B6cdfaE/sources/contracts/utils/LibOptim.sol\":982:986  0x40 */\n      0x40\n        /* \"sourcify-verified/1/0xfea230Ee243f88BC698dD8f1aE93F8301B6cdfaE/sources/contracts/utils/LibOptim.sol\":976:987  mload(0x40) */\n      mload\n        /* \"sourcify-verified/1/0xfea230Ee243f88BC698dD8f1aE93F8301B6cdfaE/sources/contracts/utils/LibOptim.sol\":971:987  r := mload(0x40) */\n      swap2\n      pop\n        /* \"sourcify-verified/1/0xfea230Ee243f88BC698dD8f1aE93F8301B6cdfaE/sources/contracts/utils/LibOptim.sol\":1014:1016  32 */\n      0x20\n        /* \"sourcify-verified/1/0xfea230Ee243f88BC698dD8f1aE93F8301B6cdfaE/sources/contracts/utils/LibOptim.sol\":1011:1012  r */\n      dup3\n        /* \"sourcify-verified/1/0xfea230Ee243f88BC698dD8f1aE93F8301B6cdfaE/sources/contracts/utils/LibOptim.sol\":1007:1017  add(r, 32) */\n      add\n        /* \"sourcify-verified/1/0xfea230Ee243f88BC698dD8f1aE93F8301B6cdfaE/sources/contracts/utils/LibOptim.sol\":1048:1052  size */\n      dup2\n        /* \"sourcify-verified/1/0xfea230Ee243f88BC698dD8f1aE93F8301B6cdfaE/sources/contracts/utils/LibOptim.sol\":1041:1046  start */\n      dup2\n        /* \"sourcify-verified/1/0xfea230Ee243f88BC698dD8f1aE93F8301B6cdfaE/sources/contracts/utils/LibOptim.sol\":1037:1053  add(start, size) */\n      add\n        /* \"sourcify-verified/1/0xfea230Ee243f88BC698dD8f1aE93F8301B6cdfaE/sources/contracts/utils/LibOptim.sol\":1031:1035  0x40 */\n      0x40\n        /* \"sourcify-verified/1/0xfea230Ee243f88BC698dD8f1aE93F8301B6cdfaE/sources/contracts/utils/LibOptim.sol\":1024:1054  mstore(0x40, add(start, size)) */\n      mstore\n        /* \"sourcify-verified/1/0xfea230Ee243f88BC698dD8f1aE93F8301B6cdfaE/sources/contracts/utils/LibOptim.sol\":1071:1075  size */\n      dup2\n        /* \"sourcify-verified/1/0xfea230Ee243f88BC698dD8f1aE93F8301B6cdfaE/sources/contracts/utils/LibOptim.sol\":1068:1069  r */\n      dup4\n        /* \"sourcify-verified/1/0xfea230Ee243f88BC698dD8f1aE93F8301B6cdfaE/sources/contracts/utils/LibOptim.sol\":1061:1076  mstore(r, size) */\n      mstore\n        /* \"sourcify-verified/1/0xfea230Ee243f88BC698dD8f1aE93F8301B6cdfaE/sources/contracts/utils/LibOptim.sol\":1108:1112  size */\n      dup2\n        /* \"sourcify-verified/1/0xfea230Ee243f88BC698dD8f1aE93F8301B6cdfaE/sources/contracts/utils/LibOptim.sol\":1105:1106  0 */\n      0x00\n        /* \"sourcify-verified/1/0xfea230Ee243f88BC698dD8f1aE93F8301B6cdfaE/sources/contracts/utils/LibOptim.sol\":1098:1103  start */\n      dup3\n        /* \"sourcify-verified/1/0xfea230Ee243f88BC698dD8f1aE93F8301B6cdfaE/sources/contracts/utils/LibOptim.sol\":1083:1113  returndatacopy(start, 0, size) */\n      returndatacopy\n      pop\n      pop\n        /* \"sourcify-verified/1/0xfea230Ee243f88BC698dD8f1aE93F8301B6cdfaE/sources/contracts/utils/LibOptim.sol\":852:1123  function returnData() internal pure returns (bytes memory r) {... */\n      swap1\n      jump\t// out\n        /* \"sourcify-verified/1/0xfea230Ee243f88BC698dD8f1aE93F8301B6cdfaE/sources/contracts/modules/commons/ModuleCalls.sol\":3644:3930  function _revertBytes(... */\n    tag_187:\n        /* \"sourcify-verified/1/0xfea230Ee243f88BC698dD8f1aE93F8301B6cdfaE/sources/contracts/modules/commons/ModuleCalls.sol\":3781:3795  _revertOnError */\n      dup4\n        /* \"sourcify-verified/1/0xfea230Ee243f88BC698dD8f1aE93F8301B6cdfaE/sources/contracts/modules/commons/ModuleCalls.sol\":3777:3926  if (_revertOnError) {... */\n      iszero\n      tag_243\n      jumpi\n        /* \"sourcify-verified/1/0xfea230Ee243f88BC698dD8f1aE93F8301B6cdfaE/sources/contracts/modules/commons/ModuleCalls.sol\":3849:3856  _reason */\n      dup1\n        /* \"sourcify-verified/1/0xfea230Ee243f88BC698dD8f1aE93F8301B6cdfaE/sources/contracts/modules/commons/ModuleCalls.sol\":3843:3857  mload(_reason) */\n      mload\n        /* \"sourcify-verified/1/0xfea230Ee243f88BC698dD8f1aE93F8301B6cdfaE/sources/contracts/modules/commons/ModuleCalls.sol\":3836:3840  0x20 */\n      0x20\n        /* \"sourcify-verified/1/0xfea230Ee243f88BC698dD8f1aE93F8301B6cdfaE/sources/contracts/modules/commons/ModuleCalls.sol\":3827:3834  _reason */\n      dup3\n        /* \"sourcify-verified/1/0xfea230Ee243f88BC698dD8f1aE93F8301B6cdfaE/sources/contracts/modules/commons/ModuleCalls.sol\":3823:3841  add(_reason, 0x20) */\n      add\n        /* \"sourcify-verified/1/0xfea230Ee243f88BC698dD8f1aE93F8301B6cdfaE/sources/contracts/modules/commons/ModuleCalls.sol\":3816:3858  revert(add(_reason, 0x20), mload(_reason)) */\n      revert\n        /* \"sourcify-verified/1/0xfea230Ee243f88BC698dD8f1aE93F8301B6cdfaE/sources/contracts/modules/commons/ModuleCalls.sol\":3777:3926  if (_revertOnError) {... */\n    tag_243:\n        /* \"sourcify-verified/1/0xfea230Ee243f88BC698dD8f1aE93F8301B6cdfaE/sources/contracts/modules/commons/ModuleCalls.sol\":3894:3901  _txHash */\n      dup3\n        /* \"sourcify-verified/1/0xfea230Ee243f88BC698dD8f1aE93F8301B6cdfaE/sources/contracts/modules/commons/ModuleCalls.sol\":3885:3919  TxFailed(_txHash, _index, _reason) */\n      0xab46c69f7f32e1bf09b0725853da82a211e5402a0600296ab499a2fb5ea3b419\n        /* \"sourcify-verified/1/0xfea230Ee243f88BC698dD8f1aE93F8301B6cdfaE/sources/contracts/modules/commons/ModuleCalls.sol\":3903:3909  _index */\n      dup4\n        /* \"sourcify-verified/1/0xfea230Ee243f88BC698dD8f1aE93F8301B6cdfaE/sources/contracts/modules/commons/ModuleCalls.sol\":3911:3918  _reason */\n      dup4\n        /* \"sourcify-verified/1/0xfea230Ee243f88BC698dD8f1aE93F8301B6cdfaE/sources/contracts/modules/commons/ModuleCalls.sol\":3885:3919  TxFailed(_txHash, _index, _reason) */\n      mload(0x40)\n      tag_245\n      swap3\n      swap2\n      swap1\n      tag_246\n      jump\t// in\n    tag_245:\n      mload(0x40)\n      dup1\n      swap2\n      sub\n      swap1\n      log2\n        /* \"sourcify-verified/1/0xfea230Ee243f88BC698dD8f1aE93F8301B6cdfaE/sources/contracts/modules/commons/ModuleCalls.sol\":3644:3930  function _revertBytes(... */\n      pop\n      pop\n      pop\n      pop\n      jump\t// out\n        /* \"sourcify-verified/1/0xfea230Ee243f88BC698dD8f1aE93F8301B6cdfaE/sources/contracts/modules/commons/submodules/auth/SequenceBaseSig.sol\":3525:8233  function recoverBranch(... */\n    tag_194:\n        /* \"sourcify-verified/1/0xfea230Ee243f88BC698dD8f1aE93F8301B6cdfaE/sources/contracts/modules/commons/submodules/auth/SequenceBaseSig.sol\":3635:3649  uint256 weight */\n      0x00\n        /* \"sourcify-verified/1/0xfea230Ee243f88BC698dD8f1aE93F8301B6cdfaE/sources/contracts/modules/commons/submodules/auth/SequenceBaseSig.sol\":3655:3667  bytes32 root */\n      dup1\n        /* \"sourcify-verified/1/0xfea230Ee243f88BC698dD8f1aE93F8301B6cdfaE/sources/contracts/modules/commons/submodules/auth/SequenceBaseSig.sol\":3696:3710  uint256 rindex */\n      0x00\n        /* \"sourcify-verified/1/0xfea230Ee243f88BC698dD8f1aE93F8301B6cdfaE/sources/contracts/modules/commons/submodules/auth/SequenceBaseSig.sol\":3765:8223  while (rindex < _signature.length) {... */\n    tag_248:\n        /* \"sourcify-verified/1/0xfea230Ee243f88BC698dD8f1aE93F8301B6cdfaE/sources/contracts/modules/commons/submodules/auth/SequenceBaseSig.sol\":3772:3798  rindex < _signature.length */\n      dup4\n      dup2\n      lt\n        /* \"sourcify-verified/1/0xfea230Ee243f88BC698dD8f1aE93F8301B6cdfaE/sources/contracts/modules/commons/submodules/auth/SequenceBaseSig.sol\":3765:8223  while (rindex < _signature.length) {... */\n      iszero\n      tag_249\n      jumpi\n        /* \"sourcify-verified/1/0xfea230Ee243f88BC698dD8f1aE93F8301B6cdfaE/sources/contracts/utils/LibBytesPointer.sol\":1475:1476  1 */\n      0x01\n        /* \"sourcify-verified/1/0xfea230Ee243f88BC698dD8f1aE93F8301B6cdfaE/sources/contracts/utils/LibBytesPointer.sol\":1463:1477  add(_index, 1) */\n      dup2\n      add\n      swap1\n        /* \"sourcify-verified/1/0xfea230Ee243f88BC698dD8f1aE93F8301B6cdfaE/sources/contracts/utils/LibBytesPointer.sol\":1390:1415  add(_index, _data.offset) */\n      dup6\n      add\n        /* \"sourcify-verified/1/0xfea230Ee243f88BC698dD8f1aE93F8301B6cdfaE/sources/contracts/utils/LibBytesPointer.sol\":1377:1416  calldataload(add(_index, _data.offset)) */\n      calldataload\n        /* \"sourcify-verified/1/0xfea230Ee243f88BC698dD8f1aE93F8301B6cdfaE/sources/contracts/utils/LibBytesPointer.sol\":1432:1435  248 */\n      0xf8\n        /* \"sourcify-verified/1/0xfea230Ee243f88BC698dD8f1aE93F8301B6cdfaE/sources/contracts/utils/LibBytesPointer.sol\":1428:1442  shr(248, word) */\n      shr\n        /* \"sourcify-verified/1/0xfea230Ee243f88BC698dD8f1aE93F8301B6cdfaE/sources/contracts/modules/commons/submodules/auth/SequenceBaseSig.sol\":3923:3943  flag == FLAG_ADDRESS */\n      0xffffffffffffffffffffffffffffffffffffffffffffffffffffffffffffffff\n      dup2\n      add\n        /* \"sourcify-verified/1/0xfea230Ee243f88BC698dD8f1aE93F8301B6cdfaE/sources/contracts/modules/commons/submodules/auth/SequenceBaseSig.sol\":3919:4321  if (flag == FLAG_ADDRESS) {... */\n      tag_252\n      jumpi\n        /* \"sourcify-verified/1/0xfea230Ee243f88BC698dD8f1aE93F8301B6cdfaE/sources/contracts/utils/LibBytesPointer.sol\":2205:2207  21 */\n      0x15\n        /* \"sourcify-verified/1/0xfea230Ee243f88BC698dD8f1aE93F8301B6cdfaE/sources/contracts/utils/LibBytesPointer.sol\":2193:2208  add(_index, 21) */\n      dup3\n      add\n      swap2\n        /* \"sourcify-verified/1/0xfea230Ee243f88BC698dD8f1aE93F8301B6cdfaE/sources/contracts/utils/LibBytesPointer.sol\":2046:2071  add(_index, _data.offset) */\n      dup7\n      add\n        /* \"sourcify-verified/1/0xfea230Ee243f88BC698dD8f1aE93F8301B6cdfaE/sources/contracts/utils/LibBytesPointer.sol\":2033:2072  calldataload(add(_index, _data.offset)) */\n      calldataload\n        /* \"sourcify-verified/1/0xfea230Ee243f88BC698dD8f1aE93F8301B6cdfaE/sources/contracts/utils/LibBytesPointer.sol\":2088:2091  248 */\n      0xf8\n        /* \"sourcify-verified/1/0xfea230Ee243f88BC698dD8f1aE93F8301B6cdfaE/sources/contracts/utils/LibBytesPointer.sol\":2084:2098  shr(248, word) */\n      dup2\n      swap1\n      shr\n      swap1\n        /* \"sourcify-verified/1/0xfea230Ee243f88BC698dD8f1aE93F8301B6cdfaE/sources/contracts/utils/LibBytesPointer.sol\":2118:2120  88 */\n      0x58\n        /* \"sourcify-verified/1/0xfea230Ee243f88BC698dD8f1aE93F8301B6cdfaE/sources/contracts/utils/LibBytesPointer.sol\":2114:2127  shr(88, word) */\n      shr\n        /* \"sourcify-verified/1/0xfea230Ee243f88BC698dD8f1aE93F8301B6cdfaE/sources/contracts/utils/LibBytesPointer.sol\":2129:2171  0xffffffffffffffffffffffffffffffffffffffff */\n      0xffffffffffffffffffffffffffffffffffffffff\n        /* \"sourcify-verified/1/0xfea230Ee243f88BC698dD8f1aE93F8301B6cdfaE/sources/contracts/utils/LibBytesPointer.sol\":2110:2172  and(shr(88, word), 0xffffffffffffffffffffffffffffffffffffffff) */\n      dup2\n      and\n      swap1\n        /* \"sourcify-verified/1/0xfea230Ee243f88BC698dD8f1aE93F8301B6cdfaE/sources/contracts/modules/commons/submodules/auth/SequenceBaseSig.sol\":1873:1896  uint256(_weight) << 160 */\n      0xff0000000000000000000000000000000000000000\n      and\n        /* \"sourcify-verified/1/0xfea230Ee243f88BC698dD8f1aE93F8301B6cdfaE/sources/contracts/modules/commons/submodules/auth/SequenceBaseSig.sol\":1873:1922  uint256(_weight) << 160 | uint256(uint160(_addr)) */\n      dup2\n      or\n        /* \"sourcify-verified/1/0xfea230Ee243f88BC698dD8f1aE93F8301B6cdfaE/sources/contracts/modules/commons/submodules/auth/SequenceBaseSig.sol\":4231:4235  root */\n      dup6\n        /* \"sourcify-verified/1/0xfea230Ee243f88BC698dD8f1aE93F8301B6cdfaE/sources/contracts/modules/commons/submodules/auth/SequenceBaseSig.sol\":4231:4290  root != bytes32(0) ? LibOptim.fkeccak256(root, node) : node */\n      tag_257\n      jumpi\n        /* \"sourcify-verified/1/0xfea230Ee243f88BC698dD8f1aE93F8301B6cdfaE/sources/contracts/modules/commons/submodules/auth/SequenceBaseSig.sol\":4286:4290  node */\n      dup1\n        /* \"sourcify-verified/1/0xfea230Ee243f88BC698dD8f1aE93F8301B6cdfaE/sources/contracts/modules/commons/submodules/auth/SequenceBaseSig.sol\":4231:4290  root != bytes32(0) ? LibOptim.fkeccak256(root, node) : node */\n      jump(tag_259)\n    tag_257:\n        /* \"sourcify-verified/1/0xfea230Ee243f88BC698dD8f1aE93F8301B6cdfaE/sources/contracts/utils/LibOptim.sol\":622:631  bytes32 c */\n      0x00\n        /* \"sourcify-verified/1/0xfea230Ee243f88BC698dD8f1aE93F8301B6cdfaE/sources/contracts/utils/LibOptim.sol\":656:669  mstore(0, _a) */\n      dup7\n      dup2\n      mstore\n        /* \"sourcify-verified/1/0xfea230Ee243f88BC698dD8f1aE93F8301B6cdfaE/sources/contracts/utils/LibOptim.sol\":683:685  32 */\n      0x20\n        /* \"sourcify-verified/1/0xfea230Ee243f88BC698dD8f1aE93F8301B6cdfaE/sources/contracts/utils/LibOptim.sol\":676:690  mstore(32, _b) */\n      dup3\n      swap1\n      mstore\n        /* \"sourcify-verified/1/0xfea230Ee243f88BC698dD8f1aE93F8301B6cdfaE/sources/contracts/utils/LibOptim.sol\":715:717  64 */\n      0x40\n        /* \"sourcify-verified/1/0xfea230Ee243f88BC698dD8f1aE93F8301B6cdfaE/sources/contracts/utils/LibOptim.sol\":702:718  keccak256(0, 64) */\n      swap1\n      keccak256\n        /* \"sourcify-verified/1/0xfea230Ee243f88BC698dD8f1aE93F8301B6cdfaE/sources/contracts/modules/commons/submodules/auth/SequenceBaseSig.sol\":4252:4283  LibOptim.fkeccak256(root, node) */\n    tag_259:\n        /* \"sourcify-verified/1/0xfea230Ee243f88BC698dD8f1aE93F8301B6cdfaE/sources/contracts/modules/commons/submodules/auth/SequenceBaseSig.sol\":4224:4290  root = root != bytes32(0) ? LibOptim.fkeccak256(root, node) : node */\n      swap6\n      pop\n        /* \"sourcify-verified/1/0xfea230Ee243f88BC698dD8f1aE93F8301B6cdfaE/sources/contracts/modules/commons/submodules/auth/SequenceBaseSig.sol\":4302:4310  continue */\n      pop\n      pop\n      pop\n      pop\n      jump(tag_248)\n        /* \"sourcify-verified/1/0xfea230Ee243f88BC698dD8f1aE93F8301B6cdfaE/sources/contracts/modules/commons/submodules/auth/SequenceBaseSig.sol\":3919:4321  if (flag == FLAG_ADDRESS) {... */\n    tag_252:\n        /* \"sourcify-verified/1/0xfea230Ee243f88BC698dD8f1aE93F8301B6cdfaE/sources/contracts/modules/commons/submodules/auth/SequenceBaseSig.sol\":4335:4339  flag */\n      dup1\n        /* \"sourcify-verified/1/0xfea230Ee243f88BC698dD8f1aE93F8301B6cdfaE/sources/contracts/modules/commons/submodules/auth/SequenceBaseSig.sol\":4331:5010  if (flag == FLAG_SIGNATURE) {... */\n      tag_260\n      jumpi\n        /* \"sourcify-verified/1/0xfea230Ee243f88BC698dD8f1aE93F8301B6cdfaE/sources/contracts/utils/LibBytesPointer.sol\":1475:1476  1 */\n      0x01\n        /* \"sourcify-verified/1/0xfea230Ee243f88BC698dD8f1aE93F8301B6cdfaE/sources/contracts/utils/LibBytesPointer.sol\":1463:1477  add(_index, 1) */\n      dup3\n      add\n      swap2\n        /* \"sourcify-verified/1/0xfea230Ee243f88BC698dD8f1aE93F8301B6cdfaE/sources/contracts/utils/LibBytesPointer.sol\":1390:1415  add(_index, _data.offset) */\n      dup7\n      dup2\n      add\n        /* \"sourcify-verified/1/0xfea230Ee243f88BC698dD8f1aE93F8301B6cdfaE/sources/contracts/utils/LibBytesPointer.sol\":1377:1416  calldataload(add(_index, _data.offset)) */\n      calldataload\n        /* \"sourcify-verified/1/0xfea230Ee243f88BC698dD8f1aE93F8301B6cdfaE/sources/contracts/utils/LibBytesPointer.sol\":1432:1435  248 */\n      0xf8\n        /* \"sourcify-verified/1/0xfea230Ee243f88BC698dD8f1aE93F8301B6cdfaE/sources/contracts/utils/LibBytesPointer.sol\":1428:1442  shr(248, word) */\n      shr\n      swap1\n        /* \"sourcify-verified/1/0xfea230Ee243f88BC698dD8f1aE93F8301B6cdfaE/sources/contracts/modules/commons/submodules/auth/SequenceBaseSig.sol\":4560:4571  rindex + 66 */\n      0x43\n      add\n        /* \"sourcify-verified/1/0xfea230Ee243f88BC698dD8f1aE93F8301B6cdfaE/sources/contracts/modules/commons/submodules/auth/SequenceBaseSig.sol\":4396:4412  uint8 addrWeight */\n      0x00\n        /* \"sourcify-verified/1/0xfea230Ee243f88BC698dD8f1aE93F8301B6cdfaE/sources/contracts/modules/commons/submodules/auth/SequenceBaseSig.sol\":4598:4670  SignatureValidator.recoverSigner(_subdigest, _signature[rindex:nrindex]) */\n      tag_262\n        /* \"sourcify-verified/1/0xfea230Ee243f88BC698dD8f1aE93F8301B6cdfaE/sources/contracts/modules/commons/submodules/auth/SequenceBaseSig.sol\":4631:4641  _subdigest */\n      dup11\n        /* \"sourcify-verified/1/0xfea230Ee243f88BC698dD8f1aE93F8301B6cdfaE/sources/contracts/modules/commons/submodules/auth/SequenceBaseSig.sol\":4643:4669  _signature[rindex:nrindex] */\n      tag_263\n        /* \"sourcify-verified/1/0xfea230Ee243f88BC698dD8f1aE93F8301B6cdfaE/sources/contracts/modules/commons/submodules/auth/SequenceBaseSig.sol\":4560:4571  rindex + 66 */\n      dup5\n        /* \"sourcify-verified/1/0xfea230Ee243f88BC698dD8f1aE93F8301B6cdfaE/sources/contracts/utils/LibBytesPointer.sol\":1463:1477  add(_index, 1) */\n      dup9\n        /* \"sourcify-verified/1/0xfea230Ee243f88BC698dD8f1aE93F8301B6cdfaE/sources/contracts/modules/commons/submodules/auth/SequenceBaseSig.sol\":4643:4653  _signature */\n      dup13\n        /* \"sourcify-verified/1/0xfea230Ee243f88BC698dD8f1aE93F8301B6cdfaE/sources/contracts/utils/LibBytesPointer.sol\":1390:1415  add(_index, _data.offset) */\n      dup15\n        /* \"sourcify-verified/1/0xfea230Ee243f88BC698dD8f1aE93F8301B6cdfaE/sources/contracts/modules/commons/submodules/auth/SequenceBaseSig.sol\":4643:4669  _signature[rindex:nrindex] */\n      tag_193\n      jump\t// in\n    tag_263:\n        /* \"sourcify-verified/1/0xfea230Ee243f88BC698dD8f1aE93F8301B6cdfaE/sources/contracts/modules/commons/submodules/auth/SequenceBaseSig.sol\":4598:4630  SignatureValidator.recoverSigner */\n      tag_264\n        /* \"sourcify-verified/1/0xfea230Ee243f88BC698dD8f1aE93F8301B6cdfaE/sources/contracts/modules/commons/submodules/auth/SequenceBaseSig.sol\":4598:4670  SignatureValidator.recoverSigner(_subdigest, _signature[rindex:nrindex]) */\n      jump\t// in\n    tag_262:\n        /* \"sourcify-verified/1/0xfea230Ee243f88BC698dD8f1aE93F8301B6cdfaE/sources/contracts/modules/commons/submodules/auth/SequenceBaseSig.sol\":4764:4784  weight += addrWeight */\n      0xff\n      dup5\n      and\n      swap8\n      swap1\n      swap8\n      add\n      swap7\n        /* \"sourcify-verified/1/0xfea230Ee243f88BC698dD8f1aE93F8301B6cdfaE/sources/contracts/modules/commons/submodules/auth/SequenceBaseSig.sol\":4691:4698  nrindex */\n      swap2\n      swap5\n      pop\n      dup5\n      swap2\n        /* \"sourcify-verified/1/0xfea230Ee243f88BC698dD8f1aE93F8301B6cdfaE/sources/contracts/modules/commons/submodules/auth/SequenceBaseSig.sol\":4764:4784  weight += addrWeight */\n      swap1\n      pop\n        /* \"sourcify-verified/1/0xfea230Ee243f88BC698dD8f1aE93F8301B6cdfaE/sources/contracts/modules/commons/submodules/auth/SequenceBaseSig.sol\":1893:1896  160 */\n      0xa0\n        /* \"sourcify-verified/1/0xfea230Ee243f88BC698dD8f1aE93F8301B6cdfaE/sources/contracts/modules/commons/submodules/auth/SequenceBaseSig.sol\":1873:1896  uint256(_weight) << 160 */\n      dup4\n      swap1\n      shl\n      0xff0000000000000000000000000000000000000000\n      and\n        /* \"sourcify-verified/1/0xfea230Ee243f88BC698dD8f1aE93F8301B6cdfaE/sources/contracts/modules/commons/submodules/auth/SequenceBaseSig.sol\":1899:1922  uint256(uint160(_addr)) */\n      0xffffffffffffffffffffffffffffffffffffffff\n      dup3\n      and\n        /* \"sourcify-verified/1/0xfea230Ee243f88BC698dD8f1aE93F8301B6cdfaE/sources/contracts/modules/commons/submodules/auth/SequenceBaseSig.sol\":1873:1922  uint256(_weight) << 160 | uint256(uint160(_addr)) */\n      or\n        /* \"sourcify-verified/1/0xfea230Ee243f88BC698dD8f1aE93F8301B6cdfaE/sources/contracts/modules/commons/submodules/auth/SequenceBaseSig.sol\":4920:4924  root */\n      dup7\n        /* \"sourcify-verified/1/0xfea230Ee243f88BC698dD8f1aE93F8301B6cdfaE/sources/contracts/modules/commons/submodules/auth/SequenceBaseSig.sol\":4920:4979  root != bytes32(0) ? LibOptim.fkeccak256(root, node) : node */\n      tag_266\n      jumpi\n        /* \"sourcify-verified/1/0xfea230Ee243f88BC698dD8f1aE93F8301B6cdfaE/sources/contracts/modules/commons/submodules/auth/SequenceBaseSig.sol\":4975:4979  node */\n      dup1\n        /* \"sourcify-verified/1/0xfea230Ee243f88BC698dD8f1aE93F8301B6cdfaE/sources/contracts/modules/commons/submodules/auth/SequenceBaseSig.sol\":4920:4979  root != bytes32(0) ? LibOptim.fkeccak256(root, node) : node */\n      jump(tag_268)\n    tag_266:\n        /* \"sourcify-verified/1/0xfea230Ee243f88BC698dD8f1aE93F8301B6cdfaE/sources/contracts/utils/LibOptim.sol\":622:631  bytes32 c */\n      0x00\n        /* \"sourcify-verified/1/0xfea230Ee243f88BC698dD8f1aE93F8301B6cdfaE/sources/contracts/utils/LibOptim.sol\":656:669  mstore(0, _a) */\n      dup8\n      dup2\n      mstore\n        /* \"sourcify-verified/1/0xfea230Ee243f88BC698dD8f1aE93F8301B6cdfaE/sources/contracts/utils/LibOptim.sol\":683:685  32 */\n      0x20\n        /* \"sourcify-verified/1/0xfea230Ee243f88BC698dD8f1aE93F8301B6cdfaE/sources/contracts/utils/LibOptim.sol\":676:690  mstore(32, _b) */\n      dup3\n      swap1\n      mstore\n        /* \"sourcify-verified/1/0xfea230Ee243f88BC698dD8f1aE93F8301B6cdfaE/sources/contracts/utils/LibOptim.sol\":715:717  64 */\n      0x40\n        /* \"sourcify-verified/1/0xfea230Ee243f88BC698dD8f1aE93F8301B6cdfaE/sources/contracts/utils/LibOptim.sol\":702:718  keccak256(0, 64) */\n      swap1\n      keccak256\n        /* \"sourcify-verified/1/0xfea230Ee243f88BC698dD8f1aE93F8301B6cdfaE/sources/contracts/modules/commons/submodules/auth/SequenceBaseSig.sol\":4941:4972  LibOptim.fkeccak256(root, node) */\n    tag_268:\n        /* \"sourcify-verified/1/0xfea230Ee243f88BC698dD8f1aE93F8301B6cdfaE/sources/contracts/modules/commons/submodules/auth/SequenceBaseSig.sol\":4913:4979  root = root != bytes32(0) ? LibOptim.fkeccak256(root, node) : node */\n      swap7\n      pop\n        /* \"sourcify-verified/1/0xfea230Ee243f88BC698dD8f1aE93F8301B6cdfaE/sources/contracts/modules/commons/submodules/auth/SequenceBaseSig.sol\":4991:4999  continue */\n      pop\n      pop\n      pop\n      pop\n      pop\n      jump(tag_248)\n        /* \"sourcify-verified/1/0xfea230Ee243f88BC698dD8f1aE93F8301B6cdfaE/sources/contracts/modules/commons/submodules/auth/SequenceBaseSig.sol\":4331:5010  if (flag == FLAG_SIGNATURE) {... */\n    tag_260:\n        /* \"sourcify-verified/1/0xfea230Ee243f88BC698dD8f1aE93F8301B6cdfaE/sources/contracts/modules/commons/submodules/auth/SequenceBaseSig.sol\":625:626  2 */\n      0x02\n        /* \"sourcify-verified/1/0xfea230Ee243f88BC698dD8f1aE93F8301B6cdfaE/sources/contracts/modules/commons/submodules/auth/SequenceBaseSig.sol\":5024:5028  flag */\n      dup2\n        /* \"sourcify-verified/1/0xfea230Ee243f88BC698dD8f1aE93F8301B6cdfaE/sources/contracts/modules/commons/submodules/auth/SequenceBaseSig.sol\":5024:5054  flag == FLAG_DYNAMIC_SIGNATURE */\n      sub\n        /* \"sourcify-verified/1/0xfea230Ee243f88BC698dD8f1aE93F8301B6cdfaE/sources/contracts/modules/commons/submodules/auth/SequenceBaseSig.sol\":5020:5952  if (flag == FLAG_DYNAMIC_SIGNATURE) {... */\n      tag_269\n      jumpi\n        /* \"sourcify-verified/1/0xfea230Ee243f88BC698dD8f1aE93F8301B6cdfaE/sources/contracts/modules/commons/submodules/auth/SequenceBaseSig.sol\":5104:5120  uint8 addrWeight */\n      0x00\n      dup1\n        /* \"sourcify-verified/1/0xfea230Ee243f88BC698dD8f1aE93F8301B6cdfaE/sources/contracts/utils/LibBytesPointer.sol\":2046:2071  add(_index, _data.offset) */\n      dup8\n      dup5\n      add\n        /* \"sourcify-verified/1/0xfea230Ee243f88BC698dD8f1aE93F8301B6cdfaE/sources/contracts/utils/LibBytesPointer.sol\":2033:2072  calldataload(add(_index, _data.offset)) */\n      calldataload\n        /* \"sourcify-verified/1/0xfea230Ee243f88BC698dD8f1aE93F8301B6cdfaE/sources/contracts/utils/LibBytesPointer.sol\":2088:2091  248 */\n      0xf8\n        /* \"sourcify-verified/1/0xfea230Ee243f88BC698dD8f1aE93F8301B6cdfaE/sources/contracts/utils/LibBytesPointer.sol\":2084:2098  shr(248, word) */\n      dup2\n      swap1\n      shr\n      swap1\n        /* \"sourcify-verified/1/0xfea230Ee243f88BC698dD8f1aE93F8301B6cdfaE/sources/contracts/utils/LibBytesPointer.sol\":2118:2120  88 */\n      0x58\n        /* \"sourcify-verified/1/0xfea230Ee243f88BC698dD8f1aE93F8301B6cdfaE/sources/contracts/utils/LibBytesPointer.sol\":2114:2127  shr(88, word) */\n      shr\n        /* \"sourcify-verified/1/0xfea230Ee243f88BC698dD8f1aE93F8301B6cdfaE/sources/contracts/utils/LibBytesPointer.sol\":2129:2171  0xffffffffffffffffffffffffffffffffffffffff */\n      0xffffffffffffffffffffffffffffffffffffffff\n        /* \"sourcify-verified/1/0xfea230Ee243f88BC698dD8f1aE93F8301B6cdfaE/sources/contracts/utils/LibBytesPointer.sol\":2110:2172  and(shr(88, word), 0xffffffffffffffffffffffffffffffffffffffff) */\n      and\n        /* \"sourcify-verified/1/0xfea230Ee243f88BC698dD8f1aE93F8301B6cdfaE/sources/contracts/utils/LibBytesPointer.sol\":2205:2207  21 */\n      0x15\n        /* \"sourcify-verified/1/0xfea230Ee243f88BC698dD8f1aE93F8301B6cdfaE/sources/contracts/utils/LibBytesPointer.sol\":2193:2208  add(_index, 21) */\n      dup7\n      add\n        /* \"sourcify-verified/1/0xfea230Ee243f88BC698dD8f1aE93F8301B6cdfaE/sources/contracts/modules/commons/submodules/auth/SequenceBaseSig.sol\":5146:5210  (addrWeight, addr, rindex) = _signature.readUint8Address(rindex) */\n      swap6\n      pop\n      swap1\n      swap3\n      pop\n      swap1\n      pop\n        /* \"sourcify-verified/1/0xfea230Ee243f88BC698dD8f1aE93F8301B6cdfaE/sources/contracts/modules/commons/submodules/auth/SequenceBaseSig.sol\":5256:5268  uint256 size */\n      0x00\n        /* \"sourcify-verified/1/0xfea230Ee243f88BC698dD8f1aE93F8301B6cdfaE/sources/contracts/utils/LibBytesPointer.sol\":3290:3315  add(_index, _data.offset) */\n      dup9\n      dup6\n      add\n        /* \"sourcify-verified/1/0xfea230Ee243f88BC698dD8f1aE93F8301B6cdfaE/sources/contracts/utils/LibBytesPointer.sol\":3277:3316  calldataload(add(_index, _data.offset)) */\n      calldataload\n        /* \"sourcify-verified/1/0xfea230Ee243f88BC698dD8f1aE93F8301B6cdfaE/sources/contracts/utils/LibBytesPointer.sol\":3336:3339  232 */\n      0xe8\n        /* \"sourcify-verified/1/0xfea230Ee243f88BC698dD8f1aE93F8301B6cdfaE/sources/contracts/utils/LibBytesPointer.sol\":3332:3346  shr(232, word) */\n      shr\n        /* \"sourcify-verified/1/0xfea230Ee243f88BC698dD8f1aE93F8301B6cdfaE/sources/contracts/utils/LibBytesPointer.sol\":3390:3391  3 */\n      0x03\n        /* \"sourcify-verified/1/0xfea230Ee243f88BC698dD8f1aE93F8301B6cdfaE/sources/contracts/utils/LibBytesPointer.sol\":3378:3392  add(_index, 3) */\n      dup7\n      add\n        /* \"sourcify-verified/1/0xfea230Ee243f88BC698dD8f1aE93F8301B6cdfaE/sources/contracts/modules/commons/submodules/auth/SequenceBaseSig.sol\":5280:5326  (size, rindex) = _signature.readUint24(rindex) */\n      dup2\n      0xffffff\n      and\n      swap2\n      pop\n      dup1\n      swap7\n      pop\n      dup2\n      swap3\n      pop\n      pop\n      pop\n        /* \"sourcify-verified/1/0xfea230Ee243f88BC698dD8f1aE93F8301B6cdfaE/sources/contracts/modules/commons/submodules/auth/SequenceBaseSig.sol\":5380:5395  uint256 nrindex */\n      0x00\n        /* \"sourcify-verified/1/0xfea230Ee243f88BC698dD8f1aE93F8301B6cdfaE/sources/contracts/modules/commons/submodules/auth/SequenceBaseSig.sol\":5407:5411  size */\n      dup2\n        /* \"sourcify-verified/1/0xfea230Ee243f88BC698dD8f1aE93F8301B6cdfaE/sources/contracts/modules/commons/submodules/auth/SequenceBaseSig.sol\":5398:5404  rindex */\n      dup7\n        /* \"sourcify-verified/1/0xfea230Ee243f88BC698dD8f1aE93F8301B6cdfaE/sources/contracts/modules/commons/submodules/auth/SequenceBaseSig.sol\":5398:5411  rindex + size */\n      add\n        /* \"sourcify-verified/1/0xfea230Ee243f88BC698dD8f1aE93F8301B6cdfaE/sources/contracts/modules/commons/submodules/auth/SequenceBaseSig.sol\":5380:5411  uint256 nrindex = rindex + size */\n      swap1\n      pop\n        /* \"sourcify-verified/1/0xfea230Ee243f88BC698dD8f1aE93F8301B6cdfaE/sources/contracts/modules/commons/submodules/auth/SequenceBaseSig.sol\":5428:5509  SignatureValidator.isValidSignature(_subdigest, addr, _signature[rindex:nrindex]) */\n      tag_272\n        /* \"sourcify-verified/1/0xfea230Ee243f88BC698dD8f1aE93F8301B6cdfaE/sources/contracts/modules/commons/submodules/auth/SequenceBaseSig.sol\":5464:5474  _subdigest */\n      dup12\n        /* \"sourcify-verified/1/0xfea230Ee243f88BC698dD8f1aE93F8301B6cdfaE/sources/contracts/modules/commons/submodules/auth/SequenceBaseSig.sol\":5476:5480  addr */\n      dup5\n        /* \"sourcify-verified/1/0xfea230Ee243f88BC698dD8f1aE93F8301B6cdfaE/sources/contracts/modules/commons/submodules/auth/SequenceBaseSig.sol\":5482:5492  _signature */\n      dup13\n      dup13\n        /* \"sourcify-verified/1/0xfea230Ee243f88BC698dD8f1aE93F8301B6cdfaE/sources/contracts/modules/commons/submodules/auth/SequenceBaseSig.sol\":5493:5499  rindex */\n      dup11\n        /* \"sourcify-verified/1/0xfea230Ee243f88BC698dD8f1aE93F8301B6cdfaE/sources/contracts/modules/commons/submodules/auth/SequenceBaseSig.sol\":5482:5508  _signature[rindex:nrindex] */\n      swap1\n        /* \"sourcify-verified/1/0xfea230Ee243f88BC698dD8f1aE93F8301B6cdfaE/sources/contracts/modules/commons/submodules/auth/SequenceBaseSig.sol\":5500:5507  nrindex */\n      dup7\n        /* \"sourcify-verified/1/0xfea230Ee243f88BC698dD8f1aE93F8301B6cdfaE/sources/contracts/modules/commons/submodules/auth/SequenceBaseSig.sol\":5482:5508  _signature[rindex:nrindex] */\n      swap3\n      tag_273\n      swap4\n      swap3\n      swap2\n      swap1\n      tag_193\n      jump\t// in\n    tag_273:\n        /* \"sourcify-verified/1/0xfea230Ee243f88BC698dD8f1aE93F8301B6cdfaE/sources/contracts/modules/commons/submodules/auth/SequenceBaseSig.sol\":5428:5463  SignatureValidator.isValidSignature */\n      tag_274\n        /* \"sourcify-verified/1/0xfea230Ee243f88BC698dD8f1aE93F8301B6cdfaE/sources/contracts/modules/commons/submodules/auth/SequenceBaseSig.sol\":5428:5509  SignatureValidator.isValidSignature(_subdigest, addr, _signature[rindex:nrindex]) */\n      jump\t// in\n    tag_272:\n        /* \"sourcify-verified/1/0xfea230Ee243f88BC698dD8f1aE93F8301B6cdfaE/sources/contracts/modules/commons/submodules/auth/SequenceBaseSig.sol\":5423:5613  if (!SignatureValidator.isValidSignature(_subdigest, addr, _signature[rindex:nrindex])) {... */\n      tag_275\n      jumpi\n        /* \"sourcify-verified/1/0xfea230Ee243f88BC698dD8f1aE93F8301B6cdfaE/sources/contracts/modules/commons/submodules/auth/SequenceBaseSig.sol\":5555:5565  _subdigest */\n      dup11\n        /* \"sourcify-verified/1/0xfea230Ee243f88BC698dD8f1aE93F8301B6cdfaE/sources/contracts/modules/commons/submodules/auth/SequenceBaseSig.sol\":5567:5571  addr */\n      dup4\n        /* \"sourcify-verified/1/0xfea230Ee243f88BC698dD8f1aE93F8301B6cdfaE/sources/contracts/modules/commons/submodules/auth/SequenceBaseSig.sol\":5573:5599  _signature[rindex:nrindex] */\n      tag_276\n        /* \"sourcify-verified/1/0xfea230Ee243f88BC698dD8f1aE93F8301B6cdfaE/sources/contracts/modules/commons/submodules/auth/SequenceBaseSig.sol\":5591:5598  nrindex */\n      dup4\n        /* \"sourcify-verified/1/0xfea230Ee243f88BC698dD8f1aE93F8301B6cdfaE/sources/contracts/modules/commons/submodules/auth/SequenceBaseSig.sol\":5584:5590  rindex */\n      dup10\n        /* \"sourcify-verified/1/0xfea230Ee243f88BC698dD8f1aE93F8301B6cdfaE/sources/contracts/modules/commons/submodules/auth/SequenceBaseSig.sol\":5573:5583  _signature */\n      dup14\n      dup16\n        /* \"sourcify-verified/1/0xfea230Ee243f88BC698dD8f1aE93F8301B6cdfaE/sources/contracts/modules/commons/submodules/auth/SequenceBaseSig.sol\":5573:5599  _signature[rindex:nrindex] */\n      tag_193\n      jump\t// in\n    tag_276:\n        /* \"sourcify-verified/1/0xfea230Ee243f88BC698dD8f1aE93F8301B6cdfaE/sources/contracts/modules/commons/submodules/auth/SequenceBaseSig.sol\":5532:5600  InvalidNestedSignature(_subdigest, addr, _signature[rindex:nrindex]) */\n      mload(0x40)\n      0x9a94623200000000000000000000000000000000000000000000000000000000\n      dup2\n      mstore\n      0x04\n      add\n      tag_93\n      swap5\n      swap4\n      swap3\n      swap2\n      swap1\n      tag_278\n      jump\t// in\n        /* \"sourcify-verified/1/0xfea230Ee243f88BC698dD8f1aE93F8301B6cdfaE/sources/contracts/modules/commons/submodules/auth/SequenceBaseSig.sol\":5423:5613  if (!SignatureValidator.isValidSignature(_subdigest, addr, _signature[rindex:nrindex])) {... */\n    tag_275:\n        /* \"sourcify-verified/1/0xfea230Ee243f88BC698dD8f1aE93F8301B6cdfaE/sources/contracts/modules/commons/submodules/auth/SequenceBaseSig.sol\":5706:5726  weight += addrWeight */\n      0xff\n      dup5\n      and\n      swap8\n      swap1\n      swap8\n      add\n      swap7\n      swap5\n      pop\n      dup5\n        /* \"sourcify-verified/1/0xfea230Ee243f88BC698dD8f1aE93F8301B6cdfaE/sources/contracts/modules/commons/submodules/auth/SequenceBaseSig.sol\":1893:1896  160 */\n      0xa0\n        /* \"sourcify-verified/1/0xfea230Ee243f88BC698dD8f1aE93F8301B6cdfaE/sources/contracts/modules/commons/submodules/auth/SequenceBaseSig.sol\":1873:1896  uint256(_weight) << 160 */\n      dup5\n      swap1\n      shl\n      0xff0000000000000000000000000000000000000000\n      and\n        /* \"sourcify-verified/1/0xfea230Ee243f88BC698dD8f1aE93F8301B6cdfaE/sources/contracts/modules/commons/submodules/auth/SequenceBaseSig.sol\":1899:1922  uint256(uint160(_addr)) */\n      0xffffffffffffffffffffffffffffffffffffffff\n      dup5\n      and\n        /* \"sourcify-verified/1/0xfea230Ee243f88BC698dD8f1aE93F8301B6cdfaE/sources/contracts/modules/commons/submodules/auth/SequenceBaseSig.sol\":1873:1922  uint256(_weight) << 160 | uint256(uint160(_addr)) */\n      or\n        /* \"sourcify-verified/1/0xfea230Ee243f88BC698dD8f1aE93F8301B6cdfaE/sources/contracts/modules/commons/submodules/auth/SequenceBaseSig.sol\":5862:5866  root */\n      dup8\n        /* \"sourcify-verified/1/0xfea230Ee243f88BC698dD8f1aE93F8301B6cdfaE/sources/contracts/modules/commons/submodules/auth/SequenceBaseSig.sol\":5862:5921  root != bytes32(0) ? LibOptim.fkeccak256(root, node) : node */\n      tag_280\n      jumpi\n        /* \"sourcify-verified/1/0xfea230Ee243f88BC698dD8f1aE93F8301B6cdfaE/sources/contracts/modules/commons/submodules/auth/SequenceBaseSig.sol\":5917:5921  node */\n      dup1\n        /* \"sourcify-verified/1/0xfea230Ee243f88BC698dD8f1aE93F8301B6cdfaE/sources/contracts/modules/commons/submodules/auth/SequenceBaseSig.sol\":5862:5921  root != bytes32(0) ? LibOptim.fkeccak256(root, node) : node */\n      jump(tag_282)\n    tag_280:\n        /* \"sourcify-verified/1/0xfea230Ee243f88BC698dD8f1aE93F8301B6cdfaE/sources/contracts/utils/LibOptim.sol\":622:631  bytes32 c */\n      0x00\n        /* \"sourcify-verified/1/0xfea230Ee243f88BC698dD8f1aE93F8301B6cdfaE/sources/contracts/utils/LibOptim.sol\":656:669  mstore(0, _a) */\n      dup9\n      dup2\n      mstore\n        /* \"sourcify-verified/1/0xfea230Ee243f88BC698dD8f1aE93F8301B6cdfaE/sources/contracts/utils/LibOptim.sol\":683:685  32 */\n      0x20\n        /* \"sourcify-verified/1/0xfea230Ee243f88BC698dD8f1aE93F8301B6cdfaE/sources/contracts/utils/LibOptim.sol\":676:690  mstore(32, _b) */\n      dup3\n      swap1\n      mstore\n        /* \"sourcify-verified/1/0xfea230Ee243f88BC698dD8f1aE93F8301B6cdfaE/sources/contracts/utils/LibOptim.sol\":715:717  64 */\n      0x40\n        /* \"sourcify-verified/1/0xfea230Ee243f88BC698dD8f1aE93F8301B6cdfaE/sources/contracts/utils/LibOptim.sol\":702:718  keccak256(0, 64) */\n      swap1\n      keccak256\n        /* \"sourcify-verified/1/0xfea230Ee243f88BC698dD8f1aE93F8301B6cdfaE/sources/contracts/modules/commons/submodules/auth/SequenceBaseSig.sol\":5883:5914  LibOptim.fkeccak256(root, node) */\n    tag_282:\n        /* \"sourcify-verified/1/0xfea230Ee243f88BC698dD8f1aE93F8301B6cdfaE/sources/contracts/modules/commons/submodules/auth/SequenceBaseSig.sol\":5855:5921  root = root != bytes32(0) ? LibOptim.fkeccak256(root, node) : node */\n      swap8\n      pop\n        /* \"sourcify-verified/1/0xfea230Ee243f88BC698dD8f1aE93F8301B6cdfaE/sources/contracts/modules/commons/submodules/auth/SequenceBaseSig.sol\":5933:5941  continue */\n      pop\n      pop\n      pop\n      pop\n      pop\n      pop\n      jump(tag_248)\n        /* \"sourcify-verified/1/0xfea230Ee243f88BC698dD8f1aE93F8301B6cdfaE/sources/contracts/modules/commons/submodules/auth/SequenceBaseSig.sol\":5020:5952  if (flag == FLAG_DYNAMIC_SIGNATURE) {... */\n    tag_269:\n        /* \"sourcify-verified/1/0xfea230Ee243f88BC698dD8f1aE93F8301B6cdfaE/sources/contracts/modules/commons/submodules/auth/SequenceBaseSig.sol\":667:668  3 */\n      0x03\n        /* \"sourcify-verified/1/0xfea230Ee243f88BC698dD8f1aE93F8301B6cdfaE/sources/contracts/modules/commons/submodules/auth/SequenceBaseSig.sol\":5966:5970  flag */\n      dup2\n        /* \"sourcify-verified/1/0xfea230Ee243f88BC698dD8f1aE93F8301B6cdfaE/sources/contracts/modules/commons/submodules/auth/SequenceBaseSig.sol\":5966:5983  flag == FLAG_NODE */\n      sub\n        /* \"sourcify-verified/1/0xfea230Ee243f88BC698dD8f1aE93F8301B6cdfaE/sources/contracts/modules/commons/submodules/auth/SequenceBaseSig.sol\":5962:6205  if (flag == FLAG_NODE) {... */\n      tag_283\n      jumpi\n        /* \"sourcify-verified/1/0xfea230Ee243f88BC698dD8f1aE93F8301B6cdfaE/sources/contracts/utils/LibBytesPointer.sol\":4550:4552  32 */\n      0x20\n        /* \"sourcify-verified/1/0xfea230Ee243f88BC698dD8f1aE93F8301B6cdfaE/sources/contracts/utils/LibBytesPointer.sol\":4536:4553  add(_pointer, 32) */\n      dup3\n      add\n      swap2\n        /* \"sourcify-verified/1/0xfea230Ee243f88BC698dD8f1aE93F8301B6cdfaE/sources/contracts/utils/LibBytesPointer.sol\":4487:4514  add(_pointer, _data.offset) */\n      dup7\n      add\n        /* \"sourcify-verified/1/0xfea230Ee243f88BC698dD8f1aE93F8301B6cdfaE/sources/contracts/utils/LibBytesPointer.sol\":4474:4515  calldataload(add(_pointer, _data.offset)) */\n      calldataload\n        /* \"sourcify-verified/1/0xfea230Ee243f88BC698dD8f1aE93F8301B6cdfaE/sources/contracts/modules/commons/submodules/auth/SequenceBaseSig.sol\":6115:6119  root */\n      dup4\n        /* \"sourcify-verified/1/0xfea230Ee243f88BC698dD8f1aE93F8301B6cdfaE/sources/contracts/modules/commons/submodules/auth/SequenceBaseSig.sol\":6115:6174  root != bytes32(0) ? LibOptim.fkeccak256(root, node) : node */\n      tag_286\n      jumpi\n        /* \"sourcify-verified/1/0xfea230Ee243f88BC698dD8f1aE93F8301B6cdfaE/sources/contracts/modules/commons/submodules/auth/SequenceBaseSig.sol\":6170:6174  node */\n      dup1\n        /* \"sourcify-verified/1/0xfea230Ee243f88BC698dD8f1aE93F8301B6cdfaE/sources/contracts/modules/commons/submodules/auth/SequenceBaseSig.sol\":6115:6174  root != bytes32(0) ? LibOptim.fkeccak256(root, node) : node */\n      jump(tag_288)\n    tag_286:\n        /* \"sourcify-verified/1/0xfea230Ee243f88BC698dD8f1aE93F8301B6cdfaE/sources/contracts/utils/LibOptim.sol\":622:631  bytes32 c */\n      0x00\n        /* \"sourcify-verified/1/0xfea230Ee243f88BC698dD8f1aE93F8301B6cdfaE/sources/contracts/utils/LibOptim.sol\":656:669  mstore(0, _a) */\n      dup5\n      dup2\n      mstore\n        /* \"sourcify-verified/1/0xfea230Ee243f88BC698dD8f1aE93F8301B6cdfaE/sources/contracts/utils/LibOptim.sol\":683:685  32 */\n      0x20\n        /* \"sourcify-verified/1/0xfea230Ee243f88BC698dD8f1aE93F8301B6cdfaE/sources/contracts/utils/LibOptim.sol\":676:690  mstore(32, _b) */\n      dup3\n      swap1\n      mstore\n        /* \"sourcify-verified/1/0xfea230Ee243f88BC698dD8f1aE93F8301B6cdfaE/sources/contracts/utils/LibOptim.sol\":715:717  64 */\n      0x40\n        /* \"sourcify-verified/1/0xfea230Ee243f88BC698dD8f1aE93F8301B6cdfaE/sources/contracts/utils/LibOptim.sol\":702:718  keccak256(0, 64) */\n      swap1\n      keccak256\n        /* \"sourcify-verified/1/0xfea230Ee243f88BC698dD8f1aE93F8301B6cdfaE/sources/contracts/modules/commons/submodules/auth/SequenceBaseSig.sol\":6136:6167  LibOptim.fkeccak256(root, node) */\n    tag_288:\n        /* \"sourcify-verified/1/0xfea230Ee243f88BC698dD8f1aE93F8301B6cdfaE/sources/contracts/modules/commons/submodules/auth/SequenceBaseSig.sol\":6108:6174  root = root != bytes32(0) ? LibOptim.fkeccak256(root, node) : node */\n      swap4\n      pop\n        /* \"sourcify-verified/1/0xfea230Ee243f88BC698dD8f1aE93F8301B6cdfaE/sources/contracts/modules/commons/submodules/auth/SequenceBaseSig.sol\":6186:6194  continue */\n      pop\n      pop\n      jump(tag_248)\n        /* \"sourcify-verified/1/0xfea230Ee243f88BC698dD8f1aE93F8301B6cdfaE/sources/contracts/modules/commons/submodules/auth/SequenceBaseSig.sol\":5962:6205  if (flag == FLAG_NODE) {... */\n    tag_283:\n        /* \"sourcify-verified/1/0xfea230Ee243f88BC698dD8f1aE93F8301B6cdfaE/sources/contracts/modules/commons/submodules/auth/SequenceBaseSig.sol\":711:712  4 */\n      0x04\n        /* \"sourcify-verified/1/0xfea230Ee243f88BC698dD8f1aE93F8301B6cdfaE/sources/contracts/modules/commons/submodules/auth/SequenceBaseSig.sol\":6219:6223  flag */\n      dup2\n        /* \"sourcify-verified/1/0xfea230Ee243f88BC698dD8f1aE93F8301B6cdfaE/sources/contracts/modules/commons/submodules/auth/SequenceBaseSig.sol\":6219:6238  flag == FLAG_BRANCH */\n      sub\n        /* \"sourcify-verified/1/0xfea230Ee243f88BC698dD8f1aE93F8301B6cdfaE/sources/contracts/modules/commons/submodules/auth/SequenceBaseSig.sol\":6215:6687  if (flag == FLAG_BRANCH) {... */\n      tag_289\n      jumpi\n        /* \"sourcify-verified/1/0xfea230Ee243f88BC698dD8f1aE93F8301B6cdfaE/sources/contracts/utils/LibBytesPointer.sol\":3390:3391  3 */\n      0x03\n        /* \"sourcify-verified/1/0xfea230Ee243f88BC698dD8f1aE93F8301B6cdfaE/sources/contracts/utils/LibBytesPointer.sol\":3378:3392  add(_index, 3) */\n      dup1\n      dup4\n      add\n      swap3\n        /* \"sourcify-verified/1/0xfea230Ee243f88BC698dD8f1aE93F8301B6cdfaE/sources/contracts/utils/LibBytesPointer.sol\":3290:3315  add(_index, _data.offset) */\n      dup8\n      dup2\n      add\n        /* \"sourcify-verified/1/0xfea230Ee243f88BC698dD8f1aE93F8301B6cdfaE/sources/contracts/utils/LibBytesPointer.sol\":3277:3316  calldataload(add(_index, _data.offset)) */\n      calldataload\n        /* \"sourcify-verified/1/0xfea230Ee243f88BC698dD8f1aE93F8301B6cdfaE/sources/contracts/utils/LibBytesPointer.sol\":3336:3339  232 */\n      0xe8\n        /* \"sourcify-verified/1/0xfea230Ee243f88BC698dD8f1aE93F8301B6cdfaE/sources/contracts/utils/LibBytesPointer.sol\":3332:3346  shr(232, word) */\n      shr\n      swap2\n        /* \"sourcify-verified/1/0xfea230Ee243f88BC698dD8f1aE93F8301B6cdfaE/sources/contracts/modules/commons/submodules/auth/SequenceBaseSig.sol\":6409:6422  rindex + size */\n      swap1\n      dup3\n      add\n      add\n        /* \"sourcify-verified/1/0xfea230Ee243f88BC698dD8f1aE93F8301B6cdfaE/sources/contracts/modules/commons/submodules/auth/SequenceBaseSig.sol\":6309:6321  uint256 size */\n      0x00\n      dup1\n        /* \"sourcify-verified/1/0xfea230Ee243f88BC698dD8f1aE93F8301B6cdfaE/sources/contracts/modules/commons/submodules/auth/SequenceBaseSig.sol\":6494:6547  recoverBranch(_subdigest, _signature[rindex:nrindex]) */\n      tag_291\n        /* \"sourcify-verified/1/0xfea230Ee243f88BC698dD8f1aE93F8301B6cdfaE/sources/contracts/modules/commons/submodules/auth/SequenceBaseSig.sol\":6508:6518  _subdigest */\n      dup12\n        /* \"sourcify-verified/1/0xfea230Ee243f88BC698dD8f1aE93F8301B6cdfaE/sources/contracts/modules/commons/submodules/auth/SequenceBaseSig.sol\":6520:6546  _signature[rindex:nrindex] */\n      tag_192\n        /* \"sourcify-verified/1/0xfea230Ee243f88BC698dD8f1aE93F8301B6cdfaE/sources/contracts/modules/commons/submodules/auth/SequenceBaseSig.sol\":6409:6422  rindex + size */\n      dup6\n        /* \"sourcify-verified/1/0xfea230Ee243f88BC698dD8f1aE93F8301B6cdfaE/sources/contracts/utils/LibBytesPointer.sol\":3378:3392  add(_index, 3) */\n      dup10\n        /* \"sourcify-verified/1/0xfea230Ee243f88BC698dD8f1aE93F8301B6cdfaE/sources/contracts/modules/commons/submodules/auth/SequenceBaseSig.sol\":6520:6530  _signature */\n      dup14\n        /* \"sourcify-verified/1/0xfea230Ee243f88BC698dD8f1aE93F8301B6cdfaE/sources/contracts/utils/LibBytesPointer.sol\":3290:3315  add(_index, _data.offset) */\n      dup16\n        /* \"sourcify-verified/1/0xfea230Ee243f88BC698dD8f1aE93F8301B6cdfaE/sources/contracts/modules/commons/submodules/auth/SequenceBaseSig.sol\":6520:6546  _signature[rindex:nrindex] */\n      tag_193\n      jump\t// in\n        /* \"sourcify-verified/1/0xfea230Ee243f88BC698dD8f1aE93F8301B6cdfaE/sources/contracts/modules/commons/submodules/auth/SequenceBaseSig.sol\":6494:6547  recoverBranch(_subdigest, _signature[rindex:nrindex]) */\n    tag_291:\n        /* \"sourcify-verified/1/0xfea230Ee243f88BC698dD8f1aE93F8301B6cdfaE/sources/contracts/utils/LibOptim.sol\":622:631  bytes32 c */\n      0x00\n        /* \"sourcify-verified/1/0xfea230Ee243f88BC698dD8f1aE93F8301B6cdfaE/sources/contracts/utils/LibOptim.sol\":656:669  mstore(0, _a) */\n      swap9\n      dup10\n      mstore\n        /* \"sourcify-verified/1/0xfea230Ee243f88BC698dD8f1aE93F8301B6cdfaE/sources/contracts/utils/LibOptim.sol\":683:685  32 */\n      0x20\n        /* \"sourcify-verified/1/0xfea230Ee243f88BC698dD8f1aE93F8301B6cdfaE/sources/contracts/utils/LibOptim.sol\":676:690  mstore(32, _b) */\n      mstore\n        /* \"sourcify-verified/1/0xfea230Ee243f88BC698dD8f1aE93F8301B6cdfaE/sources/contracts/utils/LibOptim.sol\":715:717  64 */\n      0x40\n        /* \"sourcify-verified/1/0xfea230Ee243f88BC698dD8f1aE93F8301B6cdfaE/sources/contracts/utils/LibOptim.sol\":702:718  keccak256(0, 64) */\n      swap1\n      swap8\n      keccak256\n        /* \"sourcify-verified/1/0xfea230Ee243f88BC698dD8f1aE93F8301B6cdfaE/sources/contracts/modules/commons/submodules/auth/SequenceBaseSig.sol\":6560:6577  weight += nweight */\n      swap7\n      swap1\n      swap8\n      add\n      swap7\n      pop\n        /* \"sourcify-verified/1/0xfea230Ee243f88BC698dD8f1aE93F8301B6cdfaE/sources/contracts/modules/commons/submodules/auth/SequenceBaseSig.sol\":6649:6656  nrindex */\n      swap1\n      swap4\n      pop\n        /* \"sourcify-verified/1/0xfea230Ee243f88BC698dD8f1aE93F8301B6cdfaE/sources/contracts/modules/commons/submodules/auth/SequenceBaseSig.sol\":6668:6676  continue */\n      tag_248\n      swap3\n      pop\n      pop\n      pop\n      jump\n        /* \"sourcify-verified/1/0xfea230Ee243f88BC698dD8f1aE93F8301B6cdfaE/sources/contracts/modules/commons/submodules/auth/SequenceBaseSig.sol\":6215:6687  if (flag == FLAG_BRANCH) {... */\n    tag_289:\n        /* \"sourcify-verified/1/0xfea230Ee243f88BC698dD8f1aE93F8301B6cdfaE/sources/contracts/modules/commons/submodules/auth/SequenceBaseSig.sol\":802:803  6 */\n      0x06\n        /* \"sourcify-verified/1/0xfea230Ee243f88BC698dD8f1aE93F8301B6cdfaE/sources/contracts/modules/commons/submodules/auth/SequenceBaseSig.sol\":6701:6705  flag */\n      dup2\n        /* \"sourcify-verified/1/0xfea230Ee243f88BC698dD8f1aE93F8301B6cdfaE/sources/contracts/modules/commons/submodules/auth/SequenceBaseSig.sol\":6701:6720  flag == FLAG_NESTED */\n      sub\n        /* \"sourcify-verified/1/0xfea230Ee243f88BC698dD8f1aE93F8301B6cdfaE/sources/contracts/modules/commons/submodules/auth/SequenceBaseSig.sol\":6697:7676  if (flag == FLAG_NESTED) {... */\n      tag_294\n      jumpi\n        /* \"sourcify-verified/1/0xfea230Ee243f88BC698dD8f1aE93F8301B6cdfaE/sources/contracts/modules/commons/submodules/auth/SequenceBaseSig.sol\":6864:6886  uint256 externalWeight */\n      0x00\n        /* \"sourcify-verified/1/0xfea230Ee243f88BC698dD8f1aE93F8301B6cdfaE/sources/contracts/utils/LibBytesPointer.sol\":1390:1415  add(_index, _data.offset) */\n      dup3\n      dup8\n      add\n        /* \"sourcify-verified/1/0xfea230Ee243f88BC698dD8f1aE93F8301B6cdfaE/sources/contracts/utils/LibBytesPointer.sol\":1377:1416  calldataload(add(_index, _data.offset)) */\n      calldataload\n        /* \"sourcify-verified/1/0xfea230Ee243f88BC698dD8f1aE93F8301B6cdfaE/sources/contracts/utils/LibBytesPointer.sol\":1432:1435  248 */\n      0xf8\n        /* \"sourcify-verified/1/0xfea230Ee243f88BC698dD8f1aE93F8301B6cdfaE/sources/contracts/utils/LibBytesPointer.sol\":1428:1442  shr(248, word) */\n      shr\n        /* \"sourcify-verified/1/0xfea230Ee243f88BC698dD8f1aE93F8301B6cdfaE/sources/contracts/utils/LibBytesPointer.sol\":1475:1476  1 */\n      0x01\n        /* \"sourcify-verified/1/0xfea230Ee243f88BC698dD8f1aE93F8301B6cdfaE/sources/contracts/utils/LibBytesPointer.sol\":1463:1477  add(_index, 1) */\n      dup5\n      add\n        /* \"sourcify-verified/1/0xfea230Ee243f88BC698dD8f1aE93F8301B6cdfaE/sources/contracts/modules/commons/submodules/auth/SequenceBaseSig.sol\":6898:6953  (externalWeight, rindex) = _signature.readUint8(rindex) */\n      swap4\n      pop\n      0xff\n      and\n      swap1\n      pop\n        /* \"sourcify-verified/1/0xfea230Ee243f88BC698dD8f1aE93F8301B6cdfaE/sources/contracts/modules/commons/submodules/auth/SequenceBaseSig.sol\":6966:6991  uint256 internalThreshold */\n      0x00\n        /* \"sourcify-verified/1/0xfea230Ee243f88BC698dD8f1aE93F8301B6cdfaE/sources/contracts/utils/LibBytesPointer.sol\":2699:2724  add(_index, _data.offset) */\n      dup8\n      dup5\n      add\n        /* \"sourcify-verified/1/0xfea230Ee243f88BC698dD8f1aE93F8301B6cdfaE/sources/contracts/utils/LibBytesPointer.sol\":2686:2725  calldataload(add(_index, _data.offset)) */\n      calldataload\n        /* \"sourcify-verified/1/0xfea230Ee243f88BC698dD8f1aE93F8301B6cdfaE/sources/contracts/utils/LibBytesPointer.sol\":2745:2748  240 */\n      0xf0\n        /* \"sourcify-verified/1/0xfea230Ee243f88BC698dD8f1aE93F8301B6cdfaE/sources/contracts/utils/LibBytesPointer.sol\":2741:2755  shr(240, word) */\n      shr\n        /* \"sourcify-verified/1/0xfea230Ee243f88BC698dD8f1aE93F8301B6cdfaE/sources/contracts/utils/LibBytesPointer.sol\":2797:2798  2 */\n      0x02\n        /* \"sourcify-verified/1/0xfea230Ee243f88BC698dD8f1aE93F8301B6cdfaE/sources/contracts/utils/LibBytesPointer.sol\":2785:2799  add(_index, 2) */\n      dup6\n      add\n        /* \"sourcify-verified/1/0xfea230Ee243f88BC698dD8f1aE93F8301B6cdfaE/sources/contracts/modules/commons/submodules/auth/SequenceBaseSig.sol\":7003:7062  (internalThreshold, rindex) = _signature.readUint16(rindex) */\n      swap5\n      pop\n      0xffff\n      and\n      swap1\n      pop\n        /* \"sourcify-verified/1/0xfea230Ee243f88BC698dD8f1aE93F8301B6cdfaE/sources/contracts/modules/commons/submodules/auth/SequenceBaseSig.sol\":7075:7087  uint256 size */\n      0x00\n        /* \"sourcify-verified/1/0xfea230Ee243f88BC698dD8f1aE93F8301B6cdfaE/sources/contracts/utils/LibBytesPointer.sol\":3290:3315  add(_index, _data.offset) */\n      dup9\n      dup6\n      add\n        /* \"sourcify-verified/1/0xfea230Ee243f88BC698dD8f1aE93F8301B6cdfaE/sources/contracts/utils/LibBytesPointer.sol\":3277:3316  calldataload(add(_index, _data.offset)) */\n      calldataload\n        /* \"sourcify-verified/1/0xfea230Ee243f88BC698dD8f1aE93F8301B6cdfaE/sources/contracts/utils/LibBytesPointer.sol\":3336:3339  232 */\n      0xe8\n        /* \"sourcify-verified/1/0xfea230Ee243f88BC698dD8f1aE93F8301B6cdfaE/sources/contracts/utils/LibBytesPointer.sol\":3332:3346  shr(232, word) */\n      shr\n        /* \"sourcify-verified/1/0xfea230Ee243f88BC698dD8f1aE93F8301B6cdfaE/sources/contracts/utils/LibBytesPointer.sol\":3390:3391  3 */\n      0x03\n        /* \"sourcify-verified/1/0xfea230Ee243f88BC698dD8f1aE93F8301B6cdfaE/sources/contracts/utils/LibBytesPointer.sol\":3378:3392  add(_index, 3) */\n      dup7\n      add\n        /* \"sourcify-verified/1/0xfea230Ee243f88BC698dD8f1aE93F8301B6cdfaE/sources/contracts/modules/commons/submodules/auth/SequenceBaseSig.sol\":7099:7145  (size, rindex) = _signature.readUint24(rindex) */\n      dup2\n      0xffffff\n      and\n      swap2\n      pop\n      dup1\n      swap7\n      pop\n      dup2\n      swap3\n      pop\n      pop\n      pop\n        /* \"sourcify-verified/1/0xfea230Ee243f88BC698dD8f1aE93F8301B6cdfaE/sources/contracts/modules/commons/submodules/auth/SequenceBaseSig.sol\":7157:7172  uint256 nrindex */\n      0x00\n        /* \"sourcify-verified/1/0xfea230Ee243f88BC698dD8f1aE93F8301B6cdfaE/sources/contracts/modules/commons/submodules/auth/SequenceBaseSig.sol\":7184:7188  size */\n      dup2\n        /* \"sourcify-verified/1/0xfea230Ee243f88BC698dD8f1aE93F8301B6cdfaE/sources/contracts/modules/commons/submodules/auth/SequenceBaseSig.sol\":7175:7181  rindex */\n      dup7\n        /* \"sourcify-verified/1/0xfea230Ee243f88BC698dD8f1aE93F8301B6cdfaE/sources/contracts/modules/commons/submodules/auth/SequenceBaseSig.sol\":7175:7188  rindex + size */\n      add\n        /* \"sourcify-verified/1/0xfea230Ee243f88BC698dD8f1aE93F8301B6cdfaE/sources/contracts/modules/commons/submodules/auth/SequenceBaseSig.sol\":7157:7188  uint256 nrindex = rindex + size */\n      swap1\n      pop\n        /* \"sourcify-verified/1/0xfea230Ee243f88BC698dD8f1aE93F8301B6cdfaE/sources/contracts/modules/commons/submodules/auth/SequenceBaseSig.sol\":7201:7223  uint256 internalWeight */\n      0x00\n        /* \"sourcify-verified/1/0xfea230Ee243f88BC698dD8f1aE93F8301B6cdfaE/sources/contracts/modules/commons/submodules/auth/SequenceBaseSig.sol\":7225:7245  bytes32 internalRoot */\n      dup1\n        /* \"sourcify-verified/1/0xfea230Ee243f88BC698dD8f1aE93F8301B6cdfaE/sources/contracts/modules/commons/submodules/auth/SequenceBaseSig.sol\":7290:7343  recoverBranch(_subdigest, _signature[rindex:nrindex]) */\n      tag_299\n        /* \"sourcify-verified/1/0xfea230Ee243f88BC698dD8f1aE93F8301B6cdfaE/sources/contracts/modules/commons/submodules/auth/SequenceBaseSig.sol\":7304:7314  _subdigest */\n      dup14\n        /* \"sourcify-verified/1/0xfea230Ee243f88BC698dD8f1aE93F8301B6cdfaE/sources/contracts/modules/commons/submodules/auth/SequenceBaseSig.sol\":7316:7326  _signature */\n      dup14\n      dup14\n        /* \"sourcify-verified/1/0xfea230Ee243f88BC698dD8f1aE93F8301B6cdfaE/sources/contracts/modules/commons/submodules/auth/SequenceBaseSig.sol\":7327:7333  rindex */\n      dup12\n        /* \"sourcify-verified/1/0xfea230Ee243f88BC698dD8f1aE93F8301B6cdfaE/sources/contracts/modules/commons/submodules/auth/SequenceBaseSig.sol\":7316:7342  _signature[rindex:nrindex] */\n      swap1\n        /* \"sourcify-verified/1/0xfea230Ee243f88BC698dD8f1aE93F8301B6cdfaE/sources/contracts/modules/commons/submodules/auth/SequenceBaseSig.sol\":7334:7341  nrindex */\n      dup8\n        /* \"sourcify-verified/1/0xfea230Ee243f88BC698dD8f1aE93F8301B6cdfaE/sources/contracts/modules/commons/submodules/auth/SequenceBaseSig.sol\":7316:7342  _signature[rindex:nrindex] */\n      swap3\n      tag_192\n      swap4\n      swap3\n      swap2\n      swap1\n      tag_193\n      jump\t// in\n        /* \"sourcify-verified/1/0xfea230Ee243f88BC698dD8f1aE93F8301B6cdfaE/sources/contracts/modules/commons/submodules/auth/SequenceBaseSig.sol\":7290:7343  recoverBranch(_subdigest, _signature[rindex:nrindex]) */\n    tag_299:\n        /* \"sourcify-verified/1/0xfea230Ee243f88BC698dD8f1aE93F8301B6cdfaE/sources/contracts/modules/commons/submodules/auth/SequenceBaseSig.sol\":7364:7371  nrindex */\n      swap4\n      swap9\n      pop\n      dup9\n      swap4\n        /* \"sourcify-verified/1/0xfea230Ee243f88BC698dD8f1aE93F8301B6cdfaE/sources/contracts/modules/commons/submodules/auth/SequenceBaseSig.sol\":7257:7343  (internalWeight, internalRoot) = recoverBranch(_subdigest, _signature[rindex:nrindex]) */\n      swap1\n      swap3\n      pop\n      swap1\n      pop\n        /* \"sourcify-verified/1/0xfea230Ee243f88BC698dD8f1aE93F8301B6cdfaE/sources/contracts/modules/commons/submodules/auth/SequenceBaseSig.sol\":7388:7423  internalWeight >= internalThreshold */\n      dup5\n      dup3\n      lt\n        /* \"sourcify-verified/1/0xfea230Ee243f88BC698dD8f1aE93F8301B6cdfaE/sources/contracts/modules/commons/submodules/auth/SequenceBaseSig.sol\":7384:7476  if (internalWeight >= internalThreshold) {... */\n      tag_301\n      jumpi\n        /* \"sourcify-verified/1/0xfea230Ee243f88BC698dD8f1aE93F8301B6cdfaE/sources/contracts/modules/commons/submodules/auth/SequenceBaseSig.sol\":7439:7463  weight += externalWeight */\n      swap9\n      dup6\n      add\n      swap9\n        /* \"sourcify-verified/1/0xfea230Ee243f88BC698dD8f1aE93F8301B6cdfaE/sources/contracts/modules/commons/submodules/auth/SequenceBaseSig.sol\":7384:7476  if (internalWeight >= internalThreshold) {... */\n    tag_301:\n        /* \"sourcify-verified/1/0xfea230Ee243f88BC698dD8f1aE93F8301B6cdfaE/sources/contracts/modules/commons/submodules/auth/SequenceBaseSig.sol\":2976:3049  abi.encodePacked('Sequence nested config:\\n', _node, _threshold, _weight) */\n      0x40\n      dup1\n      mload\n        /* \"#utility.yul\":20362:20428   */\n      0x53657175656e6365206e657374656420636f6e6669673a0a0000000000000000\n        /* \"sourcify-verified/1/0xfea230Ee243f88BC698dD8f1aE93F8301B6cdfaE/sources/contracts/modules/commons/submodules/auth/SequenceBaseSig.sol\":2976:3049  abi.encodePacked('Sequence nested config:\\n', _node, _threshold, _weight) */\n      0x20\n      dup1\n      dup4\n      add\n        /* \"#utility.yul\":20350:20429   */\n      swap2\n      swap1\n      swap2\n      mstore\n        /* \"#utility.yul\":20445:20457   */\n      0x38\n      dup3\n      add\n        /* \"#utility.yul\":20438:20466   */\n      dup5\n      swap1\n      mstore\n        /* \"#utility.yul\":20482:20494   */\n      0x58\n      dup3\n      add\n        /* \"#utility.yul\":20475:20503   */\n      dup9\n      swap1\n      mstore\n        /* \"#utility.yul\":20519:20531   */\n      0x78\n      dup1\n      dup4\n      add\n        /* \"#utility.yul\":20512:20540   */\n      dup11\n      swap1\n      mstore\n        /* \"sourcify-verified/1/0xfea230Ee243f88BC698dD8f1aE93F8301B6cdfaE/sources/contracts/modules/commons/submodules/auth/SequenceBaseSig.sol\":2976:3049  abi.encodePacked('Sequence nested config:\\n', _node, _threshold, _weight) */\n      dup4\n      mload\n      dup1\n      dup5\n      sub\n      swap1\n      swap2\n      add\n      dup2\n      mstore\n        /* \"#utility.yul\":20556:20569   */\n      0x98\n      swap1\n      swap3\n      add\n        /* \"sourcify-verified/1/0xfea230Ee243f88BC698dD8f1aE93F8301B6cdfaE/sources/contracts/modules/commons/submodules/auth/SequenceBaseSig.sol\":2976:3049  abi.encodePacked('Sequence nested config:\\n', _node, _threshold, _weight) */\n      swap1\n      swap3\n      mstore\n        /* \"sourcify-verified/1/0xfea230Ee243f88BC698dD8f1aE93F8301B6cdfaE/sources/contracts/modules/commons/submodules/auth/SequenceBaseSig.sol\":2966:3050  keccak256(abi.encodePacked('Sequence nested config:\\n', _node, _threshold, _weight)) */\n      dup1\n      mload\n      swap2\n      add\n      keccak256\n        /* \"sourcify-verified/1/0xfea230Ee243f88BC698dD8f1aE93F8301B6cdfaE/sources/contracts/modules/commons/submodules/auth/SequenceBaseSig.sol\":7585:7589  root */\n      dup10\n        /* \"sourcify-verified/1/0xfea230Ee243f88BC698dD8f1aE93F8301B6cdfaE/sources/contracts/modules/commons/submodules/auth/SequenceBaseSig.sol\":7585:7644  root != bytes32(0) ? LibOptim.fkeccak256(root, node) : node */\n      tag_304\n      jumpi\n        /* \"sourcify-verified/1/0xfea230Ee243f88BC698dD8f1aE93F8301B6cdfaE/sources/contracts/modules/commons/submodules/auth/SequenceBaseSig.sol\":7640:7644  node */\n      dup1\n        /* \"sourcify-verified/1/0xfea230Ee243f88BC698dD8f1aE93F8301B6cdfaE/sources/contracts/modules/commons/submodules/auth/SequenceBaseSig.sol\":7585:7644  root != bytes32(0) ? LibOptim.fkeccak256(root, node) : node */\n      jump(tag_306)\n    tag_304:\n        /* \"sourcify-verified/1/0xfea230Ee243f88BC698dD8f1aE93F8301B6cdfaE/sources/contracts/utils/LibOptim.sol\":622:631  bytes32 c */\n      0x00\n        /* \"sourcify-verified/1/0xfea230Ee243f88BC698dD8f1aE93F8301B6cdfaE/sources/contracts/utils/LibOptim.sol\":656:669  mstore(0, _a) */\n      dup11\n      dup2\n      mstore\n        /* \"sourcify-verified/1/0xfea230Ee243f88BC698dD8f1aE93F8301B6cdfaE/sources/contracts/utils/LibOptim.sol\":683:685  32 */\n      0x20\n        /* \"sourcify-verified/1/0xfea230Ee243f88BC698dD8f1aE93F8301B6cdfaE/sources/contracts/utils/LibOptim.sol\":676:690  mstore(32, _b) */\n      dup3\n      swap1\n      mstore\n        /* \"sourcify-verified/1/0xfea230Ee243f88BC698dD8f1aE93F8301B6cdfaE/sources/contracts/utils/LibOptim.sol\":715:717  64 */\n      0x40\n        /* \"sourcify-verified/1/0xfea230Ee243f88BC698dD8f1aE93F8301B6cdfaE/sources/contracts/utils/LibOptim.sol\":702:718  keccak256(0, 64) */\n      swap1\n      keccak256\n        /* \"sourcify-verified/1/0xfea230Ee243f88BC698dD8f1aE93F8301B6cdfaE/sources/contracts/modules/commons/submodules/auth/SequenceBaseSig.sol\":7606:7637  LibOptim.fkeccak256(root, node) */\n    tag_306:\n        /* \"sourcify-verified/1/0xfea230Ee243f88BC698dD8f1aE93F8301B6cdfaE/sources/contracts/modules/commons/submodules/auth/SequenceBaseSig.sol\":7578:7644  root = root != bytes32(0) ? LibOptim.fkeccak256(root, node) : node */\n      swap10\n      pop\n        /* \"sourcify-verified/1/0xfea230Ee243f88BC698dD8f1aE93F8301B6cdfaE/sources/contracts/modules/commons/submodules/auth/SequenceBaseSig.sol\":7657:7665  continue */\n      pop\n      pop\n      pop\n      pop\n      pop\n      pop\n      pop\n      pop\n      jump(tag_248)\n        /* \"sourcify-verified/1/0xfea230Ee243f88BC698dD8f1aE93F8301B6cdfaE/sources/contracts/modules/commons/submodules/auth/SequenceBaseSig.sol\":6697:7676  if (flag == FLAG_NESTED) {... */\n    tag_294:\n        /* \"sourcify-verified/1/0xfea230Ee243f88BC698dD8f1aE93F8301B6cdfaE/sources/contracts/modules/commons/submodules/auth/SequenceBaseSig.sol\":758:759  5 */\n      0x05\n        /* \"sourcify-verified/1/0xfea230Ee243f88BC698dD8f1aE93F8301B6cdfaE/sources/contracts/modules/commons/submodules/auth/SequenceBaseSig.sol\":7690:7694  flag */\n      dup2\n        /* \"sourcify-verified/1/0xfea230Ee243f88BC698dD8f1aE93F8301B6cdfaE/sources/contracts/modules/commons/submodules/auth/SequenceBaseSig.sol\":7690:7712  flag == FLAG_SUBDIGEST */\n      sub\n        /* \"sourcify-verified/1/0xfea230Ee243f88BC698dD8f1aE93F8301B6cdfaE/sources/contracts/modules/commons/submodules/auth/SequenceBaseSig.sol\":7686:8171  if (flag == FLAG_SUBDIGEST) {... */\n      tag_307\n      jumpi\n        /* \"sourcify-verified/1/0xfea230Ee243f88BC698dD8f1aE93F8301B6cdfaE/sources/contracts/utils/LibBytesPointer.sol\":4550:4552  32 */\n      0x20\n        /* \"sourcify-verified/1/0xfea230Ee243f88BC698dD8f1aE93F8301B6cdfaE/sources/contracts/utils/LibBytesPointer.sol\":4536:4553  add(_pointer, 32) */\n      dup3\n      add\n      swap2\n        /* \"sourcify-verified/1/0xfea230Ee243f88BC698dD8f1aE93F8301B6cdfaE/sources/contracts/utils/LibBytesPointer.sol\":4487:4514  add(_pointer, _data.offset) */\n      dup7\n      add\n        /* \"sourcify-verified/1/0xfea230Ee243f88BC698dD8f1aE93F8301B6cdfaE/sources/contracts/utils/LibBytesPointer.sol\":4474:4515  calldataload(add(_pointer, _data.offset)) */\n      calldataload\n        /* \"sourcify-verified/1/0xfea230Ee243f88BC698dD8f1aE93F8301B6cdfaE/sources/contracts/modules/commons/submodules/auth/SequenceBaseSig.sol\":7920:7943  hardcoded == _subdigest */\n      dup8\n      dup2\n      sub\n        /* \"sourcify-verified/1/0xfea230Ee243f88BC698dD8f1aE93F8301B6cdfaE/sources/contracts/modules/commons/submodules/auth/SequenceBaseSig.sol\":7916:7998  if (hardcoded == _subdigest) {... */\n      tag_309\n      jumpi\n        /* \"sourcify-verified/1/0xfea230Ee243f88BC698dD8f1aE93F8301B6cdfaE/sources/contracts/modules/commons/submodules/auth/SequenceBaseSig.sol\":7968:7985  type(uint256).max */\n      0xffffffffffffffffffffffffffffffffffffffffffffffffffffffffffffffff\n        /* \"sourcify-verified/1/0xfea230Ee243f88BC698dD8f1aE93F8301B6cdfaE/sources/contracts/modules/commons/submodules/auth/SequenceBaseSig.sol\":7959:7985  weight = type(uint256).max */\n      swap5\n      pop\n        /* \"sourcify-verified/1/0xfea230Ee243f88BC698dD8f1aE93F8301B6cdfaE/sources/contracts/modules/commons/submodules/auth/SequenceBaseSig.sol\":7916:7998  if (hardcoded == _subdigest) {... */\n    tag_309:\n        /* \"sourcify-verified/1/0xfea230Ee243f88BC698dD8f1aE93F8301B6cdfaE/sources/contracts/modules/commons/submodules/auth/SequenceBaseSig.sol\":8010:8022  bytes32 node */\n      0x00\n        /* \"sourcify-verified/1/0xfea230Ee243f88BC698dD8f1aE93F8301B6cdfaE/sources/contracts/modules/commons/submodules/auth/SequenceBaseSig.sol\":8025:8062  _leafForHardcodedSubdigest(hardcoded) */\n      tag_310\n        /* \"sourcify-verified/1/0xfea230Ee243f88BC698dD8f1aE93F8301B6cdfaE/sources/contracts/modules/commons/submodules/auth/SequenceBaseSig.sol\":8052:8061  hardcoded */\n      dup3\n        /* \"sourcify-verified/1/0xfea230Ee243f88BC698dD8f1aE93F8301B6cdfaE/sources/contracts/modules/commons/submodules/auth/SequenceBaseSig.sol\":8025:8051  _leafForHardcodedSubdigest */\n      tag_311\n        /* \"sourcify-verified/1/0xfea230Ee243f88BC698dD8f1aE93F8301B6cdfaE/sources/contracts/modules/commons/submodules/auth/SequenceBaseSig.sol\":8025:8062  _leafForHardcodedSubdigest(hardcoded) */\n      jump\t// in\n    tag_310:\n        /* \"sourcify-verified/1/0xfea230Ee243f88BC698dD8f1aE93F8301B6cdfaE/sources/contracts/modules/commons/submodules/auth/SequenceBaseSig.sol\":8010:8062  bytes32 node = _leafForHardcodedSubdigest(hardcoded) */\n      swap1\n      pop\n        /* \"sourcify-verified/1/0xfea230Ee243f88BC698dD8f1aE93F8301B6cdfaE/sources/contracts/modules/commons/submodules/auth/SequenceBaseSig.sol\":8081:8085  root */\n      dup5\n        /* \"sourcify-verified/1/0xfea230Ee243f88BC698dD8f1aE93F8301B6cdfaE/sources/contracts/modules/commons/submodules/auth/SequenceBaseSig.sol\":8081:8140  root != bytes32(0) ? LibOptim.fkeccak256(root, node) : node */\n      tag_312\n      jumpi\n        /* \"sourcify-verified/1/0xfea230Ee243f88BC698dD8f1aE93F8301B6cdfaE/sources/contracts/modules/commons/submodules/auth/SequenceBaseSig.sol\":8136:8140  node */\n      dup1\n        /* \"sourcify-verified/1/0xfea230Ee243f88BC698dD8f1aE93F8301B6cdfaE/sources/contracts/modules/commons/submodules/auth/SequenceBaseSig.sol\":8081:8140  root != bytes32(0) ? LibOptim.fkeccak256(root, node) : node */\n      jump(tag_314)\n    tag_312:\n        /* \"sourcify-verified/1/0xfea230Ee243f88BC698dD8f1aE93F8301B6cdfaE/sources/contracts/utils/LibOptim.sol\":622:631  bytes32 c */\n      0x00\n        /* \"sourcify-verified/1/0xfea230Ee243f88BC698dD8f1aE93F8301B6cdfaE/sources/contracts/utils/LibOptim.sol\":656:669  mstore(0, _a) */\n      dup6\n      dup2\n      mstore\n        /* \"sourcify-verified/1/0xfea230Ee243f88BC698dD8f1aE93F8301B6cdfaE/sources/contracts/utils/LibOptim.sol\":683:685  32 */\n      0x20\n        /* \"sourcify-verified/1/0xfea230Ee243f88BC698dD8f1aE93F8301B6cdfaE/sources/contracts/utils/LibOptim.sol\":676:690  mstore(32, _b) */\n      dup3\n      swap1\n      mstore\n        /* \"sourcify-verified/1/0xfea230Ee243f88BC698dD8f1aE93F8301B6cdfaE/sources/contracts/utils/LibOptim.sol\":715:717  64 */\n      0x40\n        /* \"sourcify-verified/1/0xfea230Ee243f88BC698dD8f1aE93F8301B6cdfaE/sources/contracts/utils/LibOptim.sol\":702:718  keccak256(0, 64) */\n      swap1\n      keccak256\n        /* \"sourcify-verified/1/0xfea230Ee243f88BC698dD8f1aE93F8301B6cdfaE/sources/contracts/modules/commons/submodules/auth/SequenceBaseSig.sol\":8102:8133  LibOptim.fkeccak256(root, node) */\n    tag_314:\n        /* \"sourcify-verified/1/0xfea230Ee243f88BC698dD8f1aE93F8301B6cdfaE/sources/contracts/modules/commons/submodules/auth/SequenceBaseSig.sol\":8074:8140  root = root != bytes32(0) ? LibOptim.fkeccak256(root, node) : node */\n      swap5\n      pop\n        /* \"sourcify-verified/1/0xfea230Ee243f88BC698dD8f1aE93F8301B6cdfaE/sources/contracts/modules/commons/submodules/auth/SequenceBaseSig.sol\":8152:8160  continue */\n      pop\n      pop\n      pop\n      jump(tag_248)\n        /* \"sourcify-verified/1/0xfea230Ee243f88BC698dD8f1aE93F8301B6cdfaE/sources/contracts/modules/commons/submodules/auth/SequenceBaseSig.sol\":7686:8171  if (flag == FLAG_SUBDIGEST) {... */\n    tag_307:\n        /* \"sourcify-verified/1/0xfea230Ee243f88BC698dD8f1aE93F8301B6cdfaE/sources/contracts/modules/commons/submodules/auth/SequenceBaseSig.sol\":8188:8214  InvalidSignatureFlag(flag) */\n      mload(0x40)\n      0xb2505f7c00000000000000000000000000000000000000000000000000000000\n      dup2\n      mstore\n      0x04\n      dup2\n      add\n        /* \"#utility.yul\":2778:2803   */\n      dup3\n      swap1\n      mstore\n        /* \"#utility.yul\":2751:2769   */\n      0x24\n      add\n        /* \"sourcify-verified/1/0xfea230Ee243f88BC698dD8f1aE93F8301B6cdfaE/sources/contracts/modules/commons/submodules/auth/SequenceBaseSig.sol\":8188:8214  InvalidSignatureFlag(flag) */\n      tag_93\n        /* \"#utility.yul\":2632:2809   */\n      jump\n        /* \"sourcify-verified/1/0xfea230Ee243f88BC698dD8f1aE93F8301B6cdfaE/sources/contracts/modules/commons/submodules/auth/SequenceBaseSig.sol\":3765:8223  while (rindex < _signature.length) {... */\n    tag_249:\n        /* \"sourcify-verified/1/0xfea230Ee243f88BC698dD8f1aE93F8301B6cdfaE/sources/contracts/modules/commons/submodules/auth/SequenceBaseSig.sol\":3678:8229  unchecked {... */\n      pop\n        /* \"sourcify-verified/1/0xfea230Ee243f88BC698dD8f1aE93F8301B6cdfaE/sources/contracts/modules/commons/submodules/auth/SequenceBaseSig.sol\":3525:8233  function recoverBranch(... */\n      swap4\n      pop\n      swap4\n      swap2\n      pop\n      pop\n      jump\t// out\n        /* \"sourcify-verified/1/0xfea230Ee243f88BC698dD8f1aE93F8301B6cdfaE/sources/contracts/modules/commons/submodules/auth/SequenceChainedSig.sol\":1296:1456  function _hashSetImageHashStruct(bytes32 _imageHash) internal pure returns (bytes32) {... */\n    tag_224:\n        /* \"sourcify-verified/1/0xfea230Ee243f88BC698dD8f1aE93F8301B6cdfaE/sources/contracts/modules/commons/submodules/auth/SequenceChainedSig.sol\":862:906  keccak256(\"SetImageHash(bytes32 imageHash)\") */\n      0x8713a7c4465f6fbee2b6e9d6646d1d9f83fec929edfc4baf661f3c865bdd04d1\n        /* \"sourcify-verified/1/0xfea230Ee243f88BC698dD8f1aE93F8301B6cdfaE/sources/contracts/modules/commons/submodules/auth/SequenceChainedSig.sol\":1372:1379  bytes32 */\n      0x00\n        /* \"sourcify-verified/1/0xfea230Ee243f88BC698dD8f1aE93F8301B6cdfaE/sources/contracts/utils/LibOptim.sol\":656:669  mstore(0, _a) */\n      swap1\n      dup2\n      mstore\n        /* \"sourcify-verified/1/0xfea230Ee243f88BC698dD8f1aE93F8301B6cdfaE/sources/contracts/utils/LibOptim.sol\":683:685  32 */\n      0x20\n        /* \"sourcify-verified/1/0xfea230Ee243f88BC698dD8f1aE93F8301B6cdfaE/sources/contracts/utils/LibOptim.sol\":676:690  mstore(32, _b) */\n      dup3\n      swap1\n      mstore\n        /* \"sourcify-verified/1/0xfea230Ee243f88BC698dD8f1aE93F8301B6cdfaE/sources/contracts/utils/LibOptim.sol\":715:717  64 */\n      0x40\n        /* \"sourcify-verified/1/0xfea230Ee243f88BC698dD8f1aE93F8301B6cdfaE/sources/contracts/utils/LibOptim.sol\":702:718  keccak256(0, 64) */\n      dup2\n      keccak256\n        /* \"sourcify-verified/1/0xfea230Ee243f88BC698dD8f1aE93F8301B6cdfaE/sources/contracts/modules/commons/submodules/auth/SequenceChainedSig.sol\":1394:1451  LibOptim.fkeccak256(SET_IMAGE_HASH_TYPE_HASH, _imageHash) */\n      tag_80\n        /* \"sourcify-verified/1/0xfea230Ee243f88BC698dD8f1aE93F8301B6cdfaE/sources/contracts/utils/LibOptim.sol\":543:728  function fkeccak256(... */\n      jump\n        /* \"sourcify-verified/1/0xfea230Ee243f88BC698dD8f1aE93F8301B6cdfaE/sources/contracts/modules/commons/ModuleAuth.sol\":6015:6315  function supportsInterface(bytes4 _interfaceID) public override virtual pure returns (bool) {... */\n    tag_238:\n        /* \"sourcify-verified/1/0xfea230Ee243f88BC698dD8f1aE93F8301B6cdfaE/sources/contracts/modules/commons/ModuleAuth.sol\":6101:6105  bool */\n      0x00\n        /* \"sourcify-verified/1/0xfea230Ee243f88BC698dD8f1aE93F8301B6cdfaE/sources/contracts/modules/commons/ModuleAuth.sol\":6124:6169  _interfaceID == type(IModuleAuth).interfaceId */\n      0xffffffff00000000000000000000000000000000000000000000000000000000\n      dup3\n      and\n        /* \"sourcify-verified/1/0xfea230Ee243f88BC698dD8f1aE93F8301B6cdfaE/sources/contracts/modules/commons/ModuleAuth.sol\":6140:6169  type(IModuleAuth).interfaceId */\n      0xac6a444e00000000000000000000000000000000000000000000000000000000\n        /* \"sourcify-verified/1/0xfea230Ee243f88BC698dD8f1aE93F8301B6cdfaE/sources/contracts/modules/commons/ModuleAuth.sol\":6124:6169  _interfaceID == type(IModuleAuth).interfaceId */\n      eq\n      dup1\n        /* \"sourcify-verified/1/0xfea230Ee243f88BC698dD8f1aE93F8301B6cdfaE/sources/contracts/modules/commons/ModuleAuth.sol\":6124:6227  _interfaceID == type(IModuleAuth).interfaceId ||... */\n      tag_323\n      jumpi\n      pop\n        /* \"sourcify-verified/1/0xfea230Ee243f88BC698dD8f1aE93F8301B6cdfaE/sources/contracts/modules/commons/ModuleAuth.sol\":6179:6227  _interfaceID == type(IERC1271Wallet).interfaceId */\n      0xffffffff00000000000000000000000000000000000000000000000000000000\n      dup3\n      and\n        /* \"sourcify-verified/1/0xfea230Ee243f88BC698dD8f1aE93F8301B6cdfaE/sources/contracts/modules/commons/ModuleAuth.sol\":6195:6227  type(IERC1271Wallet).interfaceId */\n      0x36e7817500000000000000000000000000000000000000000000000000000000\n        /* \"sourcify-verified/1/0xfea230Ee243f88BC698dD8f1aE93F8301B6cdfaE/sources/contracts/modules/commons/ModuleAuth.sol\":6179:6227  _interfaceID == type(IERC1271Wallet).interfaceId */\n      eq\n        /* \"sourcify-verified/1/0xfea230Ee243f88BC698dD8f1aE93F8301B6cdfaE/sources/contracts/modules/commons/ModuleAuth.sol\":6124:6227  _interfaceID == type(IModuleAuth).interfaceId ||... */\n    tag_323:\n        /* \"sourcify-verified/1/0xfea230Ee243f88BC698dD8f1aE93F8301B6cdfaE/sources/contracts/modules/commons/ModuleAuth.sol\":6113:6260  if (... */\n      iszero\n      tag_324\n      jumpi\n      pop\n        /* \"sourcify-verified/1/0xfea230Ee243f88BC698dD8f1aE93F8301B6cdfaE/sources/contracts/modules/commons/ModuleAuth.sol\":6249:6253  true */\n      0x01\n      swap2\n        /* \"sourcify-verified/1/0xfea230Ee243f88BC698dD8f1aE93F8301B6cdfaE/sources/contracts/modules/commons/ModuleAuth.sol\":6015:6315  function supportsInterface(bytes4 _interfaceID) public override virtual pure returns (bool) {... */\n      swap1\n      pop\n      jump\t// out\n        /* \"sourcify-verified/1/0xfea230Ee243f88BC698dD8f1aE93F8301B6cdfaE/sources/contracts/modules/commons/ModuleAuth.sol\":6113:6260  if (... */\n    tag_324:\n        /* \"sourcify-verified/1/0xfea230Ee243f88BC698dD8f1aE93F8301B6cdfaE/sources/contracts/modules/commons/ModuleERC165.sol\":725:756  this.supportsInterface.selector */\n      0x01ffc9a700000000000000000000000000000000000000000000000000000000\n        /* \"sourcify-verified/1/0xfea230Ee243f88BC698dD8f1aE93F8301B6cdfaE/sources/contracts/modules/commons/ModuleERC165.sol\":709:756  _interfaceID == this.supportsInterface.selector */\n      0xffffffff00000000000000000000000000000000000000000000000000000000\n      dup4\n      and\n      eq\n        /* \"sourcify-verified/1/0xfea230Ee243f88BC698dD8f1aE93F8301B6cdfaE/sources/contracts/modules/commons/ModuleAuth.sol\":6273:6310  super.supportsInterface(_interfaceID) */\n      tag_80\n        /* \"sourcify-verified/1/0xfea230Ee243f88BC698dD8f1aE93F8301B6cdfaE/sources/contracts/modules/commons/ModuleERC165.sol\":613:761  function supportsInterface(bytes4 _interfaceID) virtual public pure returns (bool) {... */\n      jump\n        /* \"sourcify-verified/1/0xfea230Ee243f88BC698dD8f1aE93F8301B6cdfaE/sources/contracts/utils/SignatureValidator.sol\":1767:4083  function recoverSigner(... */\n    tag_264:\n        /* \"sourcify-verified/1/0xfea230Ee243f88BC698dD8f1aE93F8301B6cdfaE/sources/contracts/utils/SignatureValidator.sol\":1867:1881  address signer */\n      0x00\n        /* \"sourcify-verified/1/0xfea230Ee243f88BC698dD8f1aE93F8301B6cdfaE/sources/contracts/utils/SignatureValidator.sol\":1914:1916  66 */\n      0x42\n        /* \"sourcify-verified/1/0xfea230Ee243f88BC698dD8f1aE93F8301B6cdfaE/sources/contracts/utils/SignatureValidator.sol\":1893:1916  _signature.length != 66 */\n      dup3\n      eq\n        /* \"sourcify-verified/1/0xfea230Ee243f88BC698dD8f1aE93F8301B6cdfaE/sources/contracts/utils/SignatureValidator.sol\":1889:1959  if (_signature.length != 66) revert InvalidSignatureLength(_signature) */\n      tag_331\n      jumpi\n        /* \"sourcify-verified/1/0xfea230Ee243f88BC698dD8f1aE93F8301B6cdfaE/sources/contracts/utils/SignatureValidator.sol\":1948:1958  _signature */\n      dup3\n      dup3\n        /* \"sourcify-verified/1/0xfea230Ee243f88BC698dD8f1aE93F8301B6cdfaE/sources/contracts/utils/SignatureValidator.sol\":1925:1959  InvalidSignatureLength(_signature) */\n      mload(0x40)\n      0x2ee17a3d00000000000000000000000000000000000000000000000000000000\n      dup2\n      mstore\n      0x04\n      add\n      tag_93\n      swap3\n      swap2\n      swap1\n      tag_333\n      jump\t// in\n        /* \"sourcify-verified/1/0xfea230Ee243f88BC698dD8f1aE93F8301B6cdfaE/sources/contracts/utils/SignatureValidator.sol\":1889:1959  if (_signature.length != 66) revert InvalidSignatureLength(_signature) */\n    tag_331:\n        /* \"sourcify-verified/1/0xfea230Ee243f88BC698dD8f1aE93F8301B6cdfaE/sources/contracts/utils/SignatureValidator.sol\":1965:1986  uint256 signatureType */\n      0x00\n        /* \"sourcify-verified/1/0xfea230Ee243f88BC698dD8f1aE93F8301B6cdfaE/sources/contracts/utils/SignatureValidator.sol\":1989:2032  _signature.readUint8(_signature.length - 1) */\n      tag_334\n        /* \"sourcify-verified/1/0xfea230Ee243f88BC698dD8f1aE93F8301B6cdfaE/sources/contracts/utils/SignatureValidator.sol\":2010:2031  _signature.length - 1 */\n      tag_335\n        /* \"sourcify-verified/1/0xfea230Ee243f88BC698dD8f1aE93F8301B6cdfaE/sources/contracts/utils/SignatureValidator.sol\":2030:2031  1 */\n      0x01\n        /* \"sourcify-verified/1/0xfea230Ee243f88BC698dD8f1aE93F8301B6cdfaE/sources/contracts/utils/SignatureValidator.sol\":2010:2020  _signature */\n      dup6\n        /* \"sourcify-verified/1/0xfea230Ee243f88BC698dD8f1aE93F8301B6cdfaE/sources/contracts/utils/SignatureValidator.sol\":2010:2031  _signature.length - 1 */\n      tag_336\n      jump\t// in\n    tag_335:\n        /* \"sourcify-verified/1/0xfea230Ee243f88BC698dD8f1aE93F8301B6cdfaE/sources/contracts/utils/LibBytes.sol\":1226:1249  add(index, data.offset) */\n      dup6\n      add\n        /* \"sourcify-verified/1/0xfea230Ee243f88BC698dD8f1aE93F8301B6cdfaE/sources/contracts/utils/LibBytes.sol\":1213:1250  calldataload(add(index, data.offset)) */\n      calldataload\n        /* \"sourcify-verified/1/0xfea230Ee243f88BC698dD8f1aE93F8301B6cdfaE/sources/contracts/utils/LibBytes.sol\":1266:1269  248 */\n      0xf8\n        /* \"sourcify-verified/1/0xfea230Ee243f88BC698dD8f1aE93F8301B6cdfaE/sources/contracts/utils/LibBytes.sol\":1262:1276  shr(248, word) */\n      shr\n      swap1\n        /* \"sourcify-verified/1/0xfea230Ee243f88BC698dD8f1aE93F8301B6cdfaE/sources/contracts/utils/LibBytes.sol\":1071:1286  function readUint8(... */\n      jump\n        /* \"sourcify-verified/1/0xfea230Ee243f88BC698dD8f1aE93F8301B6cdfaE/sources/contracts/utils/SignatureValidator.sol\":1989:2032  _signature.readUint8(_signature.length - 1) */\n    tag_334:\n        /* \"sourcify-verified/1/0xfea230Ee243f88BC698dD8f1aE93F8301B6cdfaE/sources/contracts/utils/SignatureValidator.sol\":1965:2032  uint256 signatureType = _signature.readUint8(_signature.length - 1) */\n      0xff\n      and\n      swap1\n      pop\n        /* \"sourcify-verified/1/0xfea230Ee243f88BC698dD8f1aE93F8301B6cdfaE/sources/contracts/utils/SignatureValidator.sol\":2115:2117  64 */\n      0x40\n        /* \"sourcify-verified/1/0xfea230Ee243f88BC698dD8f1aE93F8301B6cdfaE/sources/contracts/utils/LibBytes.sol\":1226:1249  add(index, data.offset) */\n      dup5\n      add\n        /* \"sourcify-verified/1/0xfea230Ee243f88BC698dD8f1aE93F8301B6cdfaE/sources/contracts/utils/LibBytes.sol\":1213:1250  calldataload(add(index, data.offset)) */\n      calldataload\n        /* \"sourcify-verified/1/0xfea230Ee243f88BC698dD8f1aE93F8301B6cdfaE/sources/contracts/utils/LibBytes.sol\":1266:1269  248 */\n      0xf8\n        /* \"sourcify-verified/1/0xfea230Ee243f88BC698dD8f1aE93F8301B6cdfaE/sources/contracts/utils/LibBytes.sol\":1262:1276  shr(248, word) */\n      shr\n        /* \"sourcify-verified/1/0xfea230Ee243f88BC698dD8f1aE93F8301B6cdfaE/sources/contracts/utils/LibBytes.sol\":795:832  calldataload(add(data.offset, index)) */\n      dup5\n      calldataload\n        /* \"sourcify-verified/1/0xfea230Ee243f88BC698dD8f1aE93F8301B6cdfaE/sources/contracts/utils/SignatureValidator.sol\":2202:2204  32 */\n      0x20\n        /* \"sourcify-verified/1/0xfea230Ee243f88BC698dD8f1aE93F8301B6cdfaE/sources/contracts/utils/LibBytes.sol\":808:831  add(data.offset, index) */\n      dup7\n      add\n        /* \"sourcify-verified/1/0xfea230Ee243f88BC698dD8f1aE93F8301B6cdfaE/sources/contracts/utils/LibBytes.sol\":795:832  calldataload(add(data.offset, index)) */\n      calldataload\n        /* \"sourcify-verified/1/0xfea230Ee243f88BC698dD8f1aE93F8301B6cdfaE/sources/contracts/utils/SignatureValidator.sol\":3209:3275  0x7FFFFFFFFFFFFFFFFFFFFFFFFFFFFFFF5D576E7357A4501DDFE92F46681B20A0 */\n      0x7fffffffffffffffffffffffffffffff5d576e7357a4501ddfe92f46681b20a0\n        /* \"sourcify-verified/1/0xfea230Ee243f88BC698dD8f1aE93F8301B6cdfaE/sources/contracts/utils/SignatureValidator.sol\":3196:3275  uint256(s) > 0x7FFFFFFFFFFFFFFFFFFFFFFFFFFFFFFF5D576E7357A4501DDFE92F46681B20A0 */\n      dup2\n      gt\n        /* \"sourcify-verified/1/0xfea230Ee243f88BC698dD8f1aE93F8301B6cdfaE/sources/contracts/utils/SignatureValidator.sol\":3192:3327  if (uint256(s) > 0x7FFFFFFFFFFFFFFFFFFFFFFFFFFFFFFF5D576E7357A4501DDFE92F46681B20A0) {... */\n      iszero\n      tag_342\n      jumpi\n        /* \"sourcify-verified/1/0xfea230Ee243f88BC698dD8f1aE93F8301B6cdfaE/sources/contracts/utils/SignatureValidator.sol\":3306:3316  _signature */\n      dup7\n      dup7\n        /* \"sourcify-verified/1/0xfea230Ee243f88BC698dD8f1aE93F8301B6cdfaE/sources/contracts/utils/SignatureValidator.sol\":3318:3319  s */\n      dup3\n        /* \"sourcify-verified/1/0xfea230Ee243f88BC698dD8f1aE93F8301B6cdfaE/sources/contracts/utils/SignatureValidator.sol\":3292:3320  InvalidSValue(_signature, s) */\n      mload(0x40)\n      0xad4aac7600000000000000000000000000000000000000000000000000000000\n      dup2\n      mstore\n      0x04\n      add\n      tag_93\n      swap4\n      swap3\n      swap2\n      swap1\n      tag_344\n      jump\t// in\n        /* \"sourcify-verified/1/0xfea230Ee243f88BC698dD8f1aE93F8301B6cdfaE/sources/contracts/utils/SignatureValidator.sol\":3192:3327  if (uint256(s) > 0x7FFFFFFFFFFFFFFFFFFFFFFFFFFFFFFF5D576E7357A4501DDFE92F46681B20A0) {... */\n    tag_342:\n        /* \"sourcify-verified/1/0xfea230Ee243f88BC698dD8f1aE93F8301B6cdfaE/sources/contracts/utils/SignatureValidator.sol\":3337:3338  v */\n      dup3\n        /* \"sourcify-verified/1/0xfea230Ee243f88BC698dD8f1aE93F8301B6cdfaE/sources/contracts/utils/SignatureValidator.sol\":3337:3344  v != 27 */\n      0xff\n      and\n        /* \"sourcify-verified/1/0xfea230Ee243f88BC698dD8f1aE93F8301B6cdfaE/sources/contracts/utils/SignatureValidator.sol\":3342:3344  27 */\n      0x1b\n        /* \"sourcify-verified/1/0xfea230Ee243f88BC698dD8f1aE93F8301B6cdfaE/sources/contracts/utils/SignatureValidator.sol\":3337:3344  v != 27 */\n      eq\n      iszero\n        /* \"sourcify-verified/1/0xfea230Ee243f88BC698dD8f1aE93F8301B6cdfaE/sources/contracts/utils/SignatureValidator.sol\":3337:3355  v != 27 && v != 28 */\n      dup1\n      iszero\n      tag_345\n      jumpi\n      pop\n        /* \"sourcify-verified/1/0xfea230Ee243f88BC698dD8f1aE93F8301B6cdfaE/sources/contracts/utils/SignatureValidator.sol\":3348:3349  v */\n      dup3\n        /* \"sourcify-verified/1/0xfea230Ee243f88BC698dD8f1aE93F8301B6cdfaE/sources/contracts/utils/SignatureValidator.sol\":3348:3355  v != 28 */\n      0xff\n      and\n        /* \"sourcify-verified/1/0xfea230Ee243f88BC698dD8f1aE93F8301B6cdfaE/sources/contracts/utils/SignatureValidator.sol\":3353:3355  28 */\n      0x1c\n        /* \"sourcify-verified/1/0xfea230Ee243f88BC698dD8f1aE93F8301B6cdfaE/sources/contracts/utils/SignatureValidator.sol\":3348:3355  v != 28 */\n      eq\n      iszero\n        /* \"sourcify-verified/1/0xfea230Ee243f88BC698dD8f1aE93F8301B6cdfaE/sources/contracts/utils/SignatureValidator.sol\":3337:3355  v != 27 && v != 28 */\n    tag_345:\n        /* \"sourcify-verified/1/0xfea230Ee243f88BC698dD8f1aE93F8301B6cdfaE/sources/contracts/utils/SignatureValidator.sol\":3333:3407  if (v != 27 && v != 28) {... */\n      iszero\n      tag_346\n      jumpi\n        /* \"sourcify-verified/1/0xfea230Ee243f88BC698dD8f1aE93F8301B6cdfaE/sources/contracts/utils/SignatureValidator.sol\":3386:3396  _signature */\n      dup7\n      dup7\n        /* \"sourcify-verified/1/0xfea230Ee243f88BC698dD8f1aE93F8301B6cdfaE/sources/contracts/utils/SignatureValidator.sol\":3398:3399  v */\n      dup5\n        /* \"sourcify-verified/1/0xfea230Ee243f88BC698dD8f1aE93F8301B6cdfaE/sources/contracts/utils/SignatureValidator.sol\":3372:3400  InvalidVValue(_signature, v) */\n      mload(0x40)\n      0xe578897e00000000000000000000000000000000000000000000000000000000\n      dup2\n      mstore\n      0x04\n      add\n      tag_93\n      swap4\n      swap3\n      swap2\n      swap1\n      tag_348\n      jump\t// in\n        /* \"sourcify-verified/1/0xfea230Ee243f88BC698dD8f1aE93F8301B6cdfaE/sources/contracts/utils/SignatureValidator.sol\":3333:3407  if (v != 27 && v != 28) {... */\n    tag_346:\n        /* \"sourcify-verified/1/0xfea230Ee243f88BC698dD8f1aE93F8301B6cdfaE/sources/contracts/utils/SignatureValidator.sol\":1253:1254  1 */\n      0x01\n        /* \"sourcify-verified/1/0xfea230Ee243f88BC698dD8f1aE93F8301B6cdfaE/sources/contracts/utils/SignatureValidator.sol\":3447:3460  signatureType */\n      dup5\n        /* \"sourcify-verified/1/0xfea230Ee243f88BC698dD8f1aE93F8301B6cdfaE/sources/contracts/utils/SignatureValidator.sol\":3447:3479  signatureType == SIG_TYPE_EIP712 */\n      sub\n        /* \"sourcify-verified/1/0xfea230Ee243f88BC698dD8f1aE93F8301B6cdfaE/sources/contracts/utils/SignatureValidator.sol\":3443:3952  if (signatureType == SIG_TYPE_EIP712) {... */\n      tag_349\n      jumpi\n        /* \"sourcify-verified/1/0xfea230Ee243f88BC698dD8f1aE93F8301B6cdfaE/sources/contracts/utils/SignatureValidator.sol\":3498:3523  ecrecover(_hash, v, r, s) */\n      0x40\n      dup1\n      mload\n      0x00\n      dup2\n      mstore\n      0x20\n      dup2\n      add\n      dup1\n      dup4\n      mstore\n        /* \"#utility.yul\":18522:18547   */\n      dup11\n      swap1\n      mstore\n        /* \"#utility.yul\":18595:18599   */\n      0xff\n        /* \"#utility.yul\":18583:18600   */\n      dup6\n      and\n        /* \"#utility.yul\":18563:18581   */\n      swap2\n      dup2\n      add\n        /* \"#utility.yul\":18556:18601   */\n      swap2\n      swap1\n      swap2\n      mstore\n        /* \"#utility.yul\":18617:18635   */\n      0x60\n      dup2\n      add\n        /* \"#utility.yul\":18610:18644   */\n      dup4\n      swap1\n      mstore\n        /* \"#utility.yul\":18660:18678   */\n      0x80\n      dup2\n      add\n        /* \"#utility.yul\":18653:18687   */\n      dup3\n      swap1\n      mstore\n        /* \"sourcify-verified/1/0xfea230Ee243f88BC698dD8f1aE93F8301B6cdfaE/sources/contracts/utils/SignatureValidator.sol\":3498:3523  ecrecover(_hash, v, r, s) */\n      0x01\n      swap1\n        /* \"#utility.yul\":18494:18513   */\n      0xa0\n      add\n        /* \"sourcify-verified/1/0xfea230Ee243f88BC698dD8f1aE93F8301B6cdfaE/sources/contracts/utils/SignatureValidator.sol\":3498:3523  ecrecover(_hash, v, r, s) */\n    tag_350:\n      0x20\n      mload(0x40)\n      0x20\n      dup2\n      sub\n      swap1\n      dup1\n      dup5\n      sub\n      swap1\n      dup6\n      gas\n      staticcall\n      iszero\n      dup1\n      iszero\n      tag_353\n      jumpi\n      returndatasize\n      0x00\n      dup1\n      returndatacopy\n      revert(0x00, returndatasize)\n    tag_353:\n      pop\n      pop\n      pop\n      mload(sub(mload(0x40), 0x20))\n        /* \"sourcify-verified/1/0xfea230Ee243f88BC698dD8f1aE93F8301B6cdfaE/sources/contracts/utils/SignatureValidator.sol\":3489:3523  signer = ecrecover(_hash, v, r, s) */\n      swap5\n      pop\n        /* \"sourcify-verified/1/0xfea230Ee243f88BC698dD8f1aE93F8301B6cdfaE/sources/contracts/utils/SignatureValidator.sol\":3443:3952  if (signatureType == SIG_TYPE_EIP712) {... */\n      jump(tag_361)\n    tag_349:\n        /* \"sourcify-verified/1/0xfea230Ee243f88BC698dD8f1aE93F8301B6cdfaE/sources/contracts/utils/SignatureValidator.sol\":1303:1304  2 */\n      0x02\n        /* \"sourcify-verified/1/0xfea230Ee243f88BC698dD8f1aE93F8301B6cdfaE/sources/contracts/utils/SignatureValidator.sol\":3608:3621  signatureType */\n      dup5\n        /* \"sourcify-verified/1/0xfea230Ee243f88BC698dD8f1aE93F8301B6cdfaE/sources/contracts/utils/SignatureValidator.sol\":3608:3642  signatureType == SIG_TYPE_ETH_SIGN */\n      sub\n        /* \"sourcify-verified/1/0xfea230Ee243f88BC698dD8f1aE93F8301B6cdfaE/sources/contracts/utils/SignatureValidator.sol\":3604:3952  if (signatureType == SIG_TYPE_ETH_SIGN) {... */\n      tag_355\n      jumpi\n        /* \"sourcify-verified/1/0xfea230Ee243f88BC698dD8f1aE93F8301B6cdfaE/sources/contracts/utils/SignatureValidator.sol\":3690:3749  abi.encodePacked(\"\\x19Ethereum Signed Message:\\n32\", _hash) */\n      mload(0x40)\n        /* \"#utility.yul\":18940:19006   */\n      0x19457468657265756d205369676e6564204d6573736167653a0a333200000000\n        /* \"sourcify-verified/1/0xfea230Ee243f88BC698dD8f1aE93F8301B6cdfaE/sources/contracts/utils/SignatureValidator.sol\":3690:3749  abi.encodePacked(\"\\x19Ethereum Signed Message:\\n32\", _hash) */\n      0x20\n      dup3\n      add\n        /* \"#utility.yul\":18928:19007   */\n      mstore\n        /* \"#utility.yul\":19023:19035   */\n      0x3c\n      dup2\n      add\n        /* \"#utility.yul\":19016:19044   */\n      dup10\n      swap1\n      mstore\n        /* \"sourcify-verified/1/0xfea230Ee243f88BC698dD8f1aE93F8301B6cdfaE/sources/contracts/utils/SignatureValidator.sol\":3661:3791  ecrecover(... */\n      0x01\n      swap1\n        /* \"#utility.yul\":19060:19072   */\n      0x5c\n      add\n        /* \"sourcify-verified/1/0xfea230Ee243f88BC698dD8f1aE93F8301B6cdfaE/sources/contracts/utils/SignatureValidator.sol\":3690:3749  abi.encodePacked(\"\\x19Ethereum Signed Message:\\n32\", _hash) */\n      0x40\n      dup1\n      mload\n      0xffffffffffffffffffffffffffffffffffffffffffffffffffffffffffffffe0\n      dup2\n      dup5\n      sub\n      add\n      dup2\n      mstore\n      dup3\n      dup3\n      mstore\n        /* \"sourcify-verified/1/0xfea230Ee243f88BC698dD8f1aE93F8301B6cdfaE/sources/contracts/utils/SignatureValidator.sol\":3680:3750  keccak256(abi.encodePacked(\"\\x19Ethereum Signed Message:\\n32\", _hash)) */\n      dup1\n      mload\n        /* \"sourcify-verified/1/0xfea230Ee243f88BC698dD8f1aE93F8301B6cdfaE/sources/contracts/utils/SignatureValidator.sol\":3690:3749  abi.encodePacked(\"\\x19Ethereum Signed Message:\\n32\", _hash) */\n      0x20\n        /* \"sourcify-verified/1/0xfea230Ee243f88BC698dD8f1aE93F8301B6cdfaE/sources/contracts/utils/SignatureValidator.sol\":3680:3750  keccak256(abi.encodePacked(\"\\x19Ethereum Signed Message:\\n32\", _hash)) */\n      swap2\n      dup3\n      add\n      keccak256\n        /* \"sourcify-verified/1/0xfea230Ee243f88BC698dD8f1aE93F8301B6cdfaE/sources/contracts/utils/SignatureValidator.sol\":3661:3791  ecrecover(... */\n      0x00\n      dup5\n      mstore\n      swap1\n      dup4\n      add\n      dup1\n      dup4\n      mstore\n        /* \"#utility.yul\":18522:18547   */\n      mstore\n        /* \"#utility.yul\":18595:18599   */\n      0xff\n        /* \"#utility.yul\":18583:18600   */\n      dup7\n      and\n        /* \"#utility.yul\":18563:18581   */\n      swap1\n      dup3\n      add\n        /* \"#utility.yul\":18556:18601   */\n      mstore\n        /* \"#utility.yul\":18617:18635   */\n      0x60\n      dup2\n      add\n        /* \"#utility.yul\":18610:18644   */\n      dup5\n      swap1\n      mstore\n        /* \"#utility.yul\":18660:18678   */\n      0x80\n      dup2\n      add\n        /* \"#utility.yul\":18653:18687   */\n      dup4\n      swap1\n      mstore\n        /* \"#utility.yul\":18494:18513   */\n      0xa0\n      add\n        /* \"sourcify-verified/1/0xfea230Ee243f88BC698dD8f1aE93F8301B6cdfaE/sources/contracts/utils/SignatureValidator.sol\":3661:3791  ecrecover(... */\n      tag_350\n        /* \"#utility.yul\":18295:18693   */\n      jump\n        /* \"sourcify-verified/1/0xfea230Ee243f88BC698dD8f1aE93F8301B6cdfaE/sources/contracts/utils/SignatureValidator.sol\":3604:3952  if (signatureType == SIG_TYPE_ETH_SIGN) {... */\n    tag_355:\n        /* \"sourcify-verified/1/0xfea230Ee243f88BC698dD8f1aE93F8301B6cdfaE/sources/contracts/utils/SignatureValidator.sol\":3913:3923  _signature */\n      dup7\n      dup7\n        /* \"sourcify-verified/1/0xfea230Ee243f88BC698dD8f1aE93F8301B6cdfaE/sources/contracts/utils/SignatureValidator.sol\":3925:3938  signatureType */\n      dup6\n        /* \"sourcify-verified/1/0xfea230Ee243f88BC698dD8f1aE93F8301B6cdfaE/sources/contracts/utils/SignatureValidator.sol\":3940:3944  true */\n      0x01\n        /* \"sourcify-verified/1/0xfea230Ee243f88BC698dD8f1aE93F8301B6cdfaE/sources/contracts/utils/SignatureValidator.sol\":3888:3945  UnsupportedSignatureType(_signature, signatureType, true) */\n      mload(0x40)\n      0x9dfba85200000000000000000000000000000000000000000000000000000000\n      dup2\n      mstore\n      0x04\n      add\n      tag_93\n      swap5\n      swap4\n      swap3\n      swap2\n      swap1\n      tag_363\n      jump\t// in\n        /* \"sourcify-verified/1/0xfea230Ee243f88BC698dD8f1aE93F8301B6cdfaE/sources/contracts/utils/SignatureValidator.sol\":3604:3952  if (signatureType == SIG_TYPE_ETH_SIGN) {... */\n    tag_361:\n        /* \"sourcify-verified/1/0xfea230Ee243f88BC698dD8f1aE93F8301B6cdfaE/sources/contracts/utils/SignatureValidator.sol\":3999:4021  signer == address(0x0) */\n      0xffffffffffffffffffffffffffffffffffffffff\n      dup6\n      and\n        /* \"sourcify-verified/1/0xfea230Ee243f88BC698dD8f1aE93F8301B6cdfaE/sources/contracts/utils/SignatureValidator.sol\":3995:4058  if (signer == address(0x0)) revert SignerIsAddress0(_signature) */\n      tag_364\n      jumpi\n        /* \"sourcify-verified/1/0xfea230Ee243f88BC698dD8f1aE93F8301B6cdfaE/sources/contracts/utils/SignatureValidator.sol\":4047:4057  _signature */\n      dup7\n      dup7\n        /* \"sourcify-verified/1/0xfea230Ee243f88BC698dD8f1aE93F8301B6cdfaE/sources/contracts/utils/SignatureValidator.sol\":4030:4058  SignerIsAddress0(_signature) */\n      mload(0x40)\n      0x6c1719d200000000000000000000000000000000000000000000000000000000\n      dup2\n      mstore\n      0x04\n      add\n      tag_93\n      swap3\n      swap2\n      swap1\n      tag_333\n      jump\t// in\n        /* \"sourcify-verified/1/0xfea230Ee243f88BC698dD8f1aE93F8301B6cdfaE/sources/contracts/utils/SignatureValidator.sol\":3995:4058  if (signer == address(0x0)) revert SignerIsAddress0(_signature) */\n    tag_364:\n        /* \"sourcify-verified/1/0xfea230Ee243f88BC698dD8f1aE93F8301B6cdfaE/sources/contracts/utils/SignatureValidator.sol\":4065:4078  return signer */\n      pop\n      pop\n      pop\n      pop\n        /* \"sourcify-verified/1/0xfea230Ee243f88BC698dD8f1aE93F8301B6cdfaE/sources/contracts/utils/SignatureValidator.sol\":1767:4083  function recoverSigner(... */\n      swap4\n      swap3\n      pop\n      pop\n      pop\n      jump\t// out\n        /* \"sourcify-verified/1/0xfea230Ee243f88BC698dD8f1aE93F8301B6cdfaE/sources/contracts/utils/SignatureValidator.sol\":4411:5362  function isValidSignature(... */\n    tag_274:\n        /* \"sourcify-verified/1/0xfea230Ee243f88BC698dD8f1aE93F8301B6cdfaE/sources/contracts/utils/SignatureValidator.sol\":4535:4545  bool valid */\n      0x00\n        /* \"sourcify-verified/1/0xfea230Ee243f88BC698dD8f1aE93F8301B6cdfaE/sources/contracts/utils/SignatureValidator.sol\":4557:4579  _signature.length == 0 */\n      dup2\n      dup2\n      sub\n        /* \"sourcify-verified/1/0xfea230Ee243f88BC698dD8f1aE93F8301B6cdfaE/sources/contracts/utils/SignatureValidator.sol\":4553:4619  if (_signature.length == 0) {... */\n      tag_367\n      jumpi\n        /* \"sourcify-verified/1/0xfea230Ee243f88BC698dD8f1aE93F8301B6cdfaE/sources/contracts/utils/SignatureValidator.sol\":4596:4612  EmptySignature() */\n      mload(0x40)\n      0xac241e1100000000000000000000000000000000000000000000000000000000\n      dup2\n      mstore\n      0x04\n      add\n      mload(0x40)\n      dup1\n      swap2\n      sub\n      swap1\n      revert\n        /* \"sourcify-verified/1/0xfea230Ee243f88BC698dD8f1aE93F8301B6cdfaE/sources/contracts/utils/SignatureValidator.sol\":4553:4619  if (_signature.length == 0) {... */\n    tag_367:\n        /* \"sourcify-verified/1/0xfea230Ee243f88BC698dD8f1aE93F8301B6cdfaE/sources/contracts/utils/SignatureValidator.sol\":4625:4646  uint256 signatureType */\n      0x00\n        /* \"sourcify-verified/1/0xfea230Ee243f88BC698dD8f1aE93F8301B6cdfaE/sources/contracts/utils/SignatureValidator.sol\":4655:4665  _signature */\n      dup4\n      dup4\n        /* \"sourcify-verified/1/0xfea230Ee243f88BC698dD8f1aE93F8301B6cdfaE/sources/contracts/utils/SignatureValidator.sol\":4666:4687  _signature.length - 1 */\n      tag_368\n        /* \"sourcify-verified/1/0xfea230Ee243f88BC698dD8f1aE93F8301B6cdfaE/sources/contracts/utils/SignatureValidator.sol\":4686:4687  1 */\n      0x01\n        /* \"sourcify-verified/1/0xfea230Ee243f88BC698dD8f1aE93F8301B6cdfaE/sources/contracts/utils/SignatureValidator.sol\":4655:4665  _signature */\n      dup3\n        /* \"sourcify-verified/1/0xfea230Ee243f88BC698dD8f1aE93F8301B6cdfaE/sources/contracts/utils/SignatureValidator.sol\":4666:4687  _signature.length - 1 */\n      tag_336\n      jump\t// in\n    tag_368:\n        /* \"sourcify-verified/1/0xfea230Ee243f88BC698dD8f1aE93F8301B6cdfaE/sources/contracts/utils/SignatureValidator.sol\":4655:4688  _signature[_signature.length - 1] */\n      dup2\n      dup2\n      lt\n      tag_370\n      jumpi\n      tag_370\n      tag_113\n      jump\t// in\n    tag_370:\n      swap2\n      swap1\n      swap2\n      add\n      calldataload\n      0xf8\n      shr\n      swap2\n      pop\n      pop\n        /* \"sourcify-verified/1/0xfea230Ee243f88BC698dD8f1aE93F8301B6cdfaE/sources/contracts/utils/SignatureValidator.sol\":1253:1254  1 */\n      0x01\n        /* \"sourcify-verified/1/0xfea230Ee243f88BC698dD8f1aE93F8301B6cdfaE/sources/contracts/utils/SignatureValidator.sol\":4699:4731  signatureType == SIG_TYPE_EIP712 */\n      dup2\n      eq\n      dup1\n        /* \"sourcify-verified/1/0xfea230Ee243f88BC698dD8f1aE93F8301B6cdfaE/sources/contracts/utils/SignatureValidator.sol\":4699:4769  signatureType == SIG_TYPE_EIP712 || signatureType == SIG_TYPE_ETH_SIGN */\n      tag_371\n      jumpi\n      pop\n        /* \"sourcify-verified/1/0xfea230Ee243f88BC698dD8f1aE93F8301B6cdfaE/sources/contracts/utils/SignatureValidator.sol\":1303:1304  2 */\n      0x02\n        /* \"sourcify-verified/1/0xfea230Ee243f88BC698dD8f1aE93F8301B6cdfaE/sources/contracts/utils/SignatureValidator.sol\":4735:4748  signatureType */\n      dup2\n        /* \"sourcify-verified/1/0xfea230Ee243f88BC698dD8f1aE93F8301B6cdfaE/sources/contracts/utils/SignatureValidator.sol\":4735:4769  signatureType == SIG_TYPE_ETH_SIGN */\n      eq\n        /* \"sourcify-verified/1/0xfea230Ee243f88BC698dD8f1aE93F8301B6cdfaE/sources/contracts/utils/SignatureValidator.sol\":4699:4769  signatureType == SIG_TYPE_EIP712 || signatureType == SIG_TYPE_ETH_SIGN */\n    tag_371:\n        /* \"sourcify-verified/1/0xfea230Ee243f88BC698dD8f1aE93F8301B6cdfaE/sources/contracts/utils/SignatureValidator.sol\":4695:5358  if (signatureType == SIG_TYPE_EIP712 || signatureType == SIG_TYPE_ETH_SIGN) {... */\n      iszero\n      tag_372\n      jumpi\n        /* \"sourcify-verified/1/0xfea230Ee243f88BC698dD8f1aE93F8301B6cdfaE/sources/contracts/utils/SignatureValidator.sol\":4873:4880  _signer */\n      dup5\n        /* \"sourcify-verified/1/0xfea230Ee243f88BC698dD8f1aE93F8301B6cdfaE/sources/contracts/utils/SignatureValidator.sol\":4837:4880  recoverSigner(_hash, _signature) == _signer */\n      0xffffffffffffffffffffffffffffffffffffffff\n      and\n        /* \"sourcify-verified/1/0xfea230Ee243f88BC698dD8f1aE93F8301B6cdfaE/sources/contracts/utils/SignatureValidator.sol\":4837:4869  recoverSigner(_hash, _signature) */\n      tag_373\n        /* \"sourcify-verified/1/0xfea230Ee243f88BC698dD8f1aE93F8301B6cdfaE/sources/contracts/utils/SignatureValidator.sol\":4851:4856  _hash */\n      dup8\n        /* \"sourcify-verified/1/0xfea230Ee243f88BC698dD8f1aE93F8301B6cdfaE/sources/contracts/utils/SignatureValidator.sol\":4858:4868  _signature */\n      dup7\n      dup7\n        /* \"sourcify-verified/1/0xfea230Ee243f88BC698dD8f1aE93F8301B6cdfaE/sources/contracts/utils/SignatureValidator.sol\":4837:4850  recoverSigner */\n      tag_264\n        /* \"sourcify-verified/1/0xfea230Ee243f88BC698dD8f1aE93F8301B6cdfaE/sources/contracts/utils/SignatureValidator.sol\":4837:4869  recoverSigner(_hash, _signature) */\n      jump\t// in\n    tag_373:\n        /* \"sourcify-verified/1/0xfea230Ee243f88BC698dD8f1aE93F8301B6cdfaE/sources/contracts/utils/SignatureValidator.sol\":4837:4880  recoverSigner(_hash, _signature) == _signer */\n      0xffffffffffffffffffffffffffffffffffffffff\n      and\n      eq\n        /* \"sourcify-verified/1/0xfea230Ee243f88BC698dD8f1aE93F8301B6cdfaE/sources/contracts/utils/SignatureValidator.sol\":4829:4880  valid = recoverSigner(_hash, _signature) == _signer */\n      swap2\n      pop\n        /* \"sourcify-verified/1/0xfea230Ee243f88BC698dD8f1aE93F8301B6cdfaE/sources/contracts/utils/SignatureValidator.sol\":4695:5358  if (signatureType == SIG_TYPE_EIP712 || signatureType == SIG_TYPE_ETH_SIGN) {... */\n      jump(tag_384)\n    tag_372:\n        /* \"sourcify-verified/1/0xfea230Ee243f88BC698dD8f1aE93F8301B6cdfaE/sources/contracts/utils/SignatureValidator.sol\":1359:1360  3 */\n      0x03\n        /* \"sourcify-verified/1/0xfea230Ee243f88BC698dD8f1aE93F8301B6cdfaE/sources/contracts/utils/SignatureValidator.sol\":4898:4911  signatureType */\n      dup2\n        /* \"sourcify-verified/1/0xfea230Ee243f88BC698dD8f1aE93F8301B6cdfaE/sources/contracts/utils/SignatureValidator.sol\":4898:4938  signatureType == SIG_TYPE_WALLET_BYTES32 */\n      sub\n        /* \"sourcify-verified/1/0xfea230Ee243f88BC698dD8f1aE93F8301B6cdfaE/sources/contracts/utils/SignatureValidator.sol\":4894:5358  if (signatureType == SIG_TYPE_WALLET_BYTES32) {... */\n      tag_375\n      jumpi\n        /* \"sourcify-verified/1/0xfea230Ee243f88BC698dD8f1aE93F8301B6cdfaE/sources/contracts/utils/SignatureValidator.sol\":5060:5100  IERC1271Wallet(_signer).isValidSignature */\n      0xffffffffffffffffffffffffffffffffffffffff\n      dup6\n      and\n      0x1626ba7e\n        /* \"sourcify-verified/1/0xfea230Ee243f88BC698dD8f1aE93F8301B6cdfaE/sources/contracts/utils/SignatureValidator.sol\":5101:5106  _hash */\n      dup8\n        /* \"sourcify-verified/1/0xfea230Ee243f88BC698dD8f1aE93F8301B6cdfaE/sources/contracts/utils/SignatureValidator.sol\":5108:5118  _signature */\n      dup7\n        /* \"sourcify-verified/1/0xfea230Ee243f88BC698dD8f1aE93F8301B6cdfaE/sources/contracts/utils/SignatureValidator.sol\":5119:5120  0 */\n      0x00\n        /* \"sourcify-verified/1/0xfea230Ee243f88BC698dD8f1aE93F8301B6cdfaE/sources/contracts/utils/SignatureValidator.sol\":5108:5118  _signature */\n      dup8\n        /* \"sourcify-verified/1/0xfea230Ee243f88BC698dD8f1aE93F8301B6cdfaE/sources/contracts/utils/SignatureValidator.sol\":5121:5142  _signature.length - 1 */\n      tag_376\n        /* \"sourcify-verified/1/0xfea230Ee243f88BC698dD8f1aE93F8301B6cdfaE/sources/contracts/utils/SignatureValidator.sol\":5141:5142  1 */\n      0x01\n        /* \"sourcify-verified/1/0xfea230Ee243f88BC698dD8f1aE93F8301B6cdfaE/sources/contracts/utils/SignatureValidator.sol\":5108:5118  _signature */\n      dup3\n        /* \"sourcify-verified/1/0xfea230Ee243f88BC698dD8f1aE93F8301B6cdfaE/sources/contracts/utils/SignatureValidator.sol\":5121:5142  _signature.length - 1 */\n      tag_336\n      jump\t// in\n    tag_376:\n        /* \"sourcify-verified/1/0xfea230Ee243f88BC698dD8f1aE93F8301B6cdfaE/sources/contracts/utils/SignatureValidator.sol\":5108:5143  _signature[0:_signature.length - 1] */\n      swap3\n      tag_377\n      swap4\n      swap3\n      swap2\n      swap1\n      tag_193\n      jump\t// in\n    tag_377:\n        /* \"sourcify-verified/1/0xfea230Ee243f88BC698dD8f1aE93F8301B6cdfaE/sources/contracts/utils/SignatureValidator.sol\":5060:5144  IERC1271Wallet(_signer).isValidSignature(_hash, _signature[0:_signature.length - 1]) */\n      mload(0x40)\n      dup5\n      0xffffffff\n      and\n      0xe0\n      shl\n      dup2\n      mstore\n      0x04\n      add\n      tag_378\n      swap4\n      swap3\n      swap2\n      swap1\n      tag_379\n      jump\t// in\n    tag_378:\n      0x20\n      mload(0x40)\n      dup1\n      dup4\n      sub\n      dup2\n      dup7\n      gas\n      staticcall\n      iszero\n      dup1\n      iszero\n      tag_381\n      jumpi\n      returndatasize\n      0x00\n      dup1\n      returndatacopy\n      revert(0x00, returndatasize)\n    tag_381:\n      pop\n      pop\n      pop\n      pop\n      mload(0x40)\n      returndatasize\n      not(0x1f)\n      0x1f\n      dup3\n      add\n      and\n      dup3\n      add\n      dup1\n      0x40\n      mstore\n      pop\n      dup2\n      add\n      swap1\n      tag_382\n      swap2\n      swap1\n      tag_383\n      jump\t// in\n    tag_382:\n        /* \"sourcify-verified/1/0xfea230Ee243f88BC698dD8f1aE93F8301B6cdfaE/sources/contracts/utils/SignatureValidator.sol\":5030:5144  ERC1271_MAGICVALUE_BYTES32 == IERC1271Wallet(_signer).isValidSignature(_hash, _signature[0:_signature.length - 1]) */\n      0xffffffff00000000000000000000000000000000000000000000000000000000\n      and\n        /* \"sourcify-verified/1/0xfea230Ee243f88BC698dD8f1aE93F8301B6cdfaE/sources/contracts/utils/SignatureValidator.sol\":5030:5056  ERC1271_MAGICVALUE_BYTES32 */\n      0x1626ba7e00000000000000000000000000000000000000000000000000000000\n        /* \"sourcify-verified/1/0xfea230Ee243f88BC698dD8f1aE93F8301B6cdfaE/sources/contracts/utils/SignatureValidator.sol\":5030:5144  ERC1271_MAGICVALUE_BYTES32 == IERC1271Wallet(_signer).isValidSignature(_hash, _signature[0:_signature.length - 1]) */\n      eq\n      swap2\n      pop\n        /* \"sourcify-verified/1/0xfea230Ee243f88BC698dD8f1aE93F8301B6cdfaE/sources/contracts/utils/SignatureValidator.sol\":4894:5358  if (signatureType == SIG_TYPE_WALLET_BYTES32) {... */\n      jump(tag_384)\n    tag_375:\n        /* \"sourcify-verified/1/0xfea230Ee243f88BC698dD8f1aE93F8301B6cdfaE/sources/contracts/utils/SignatureValidator.sol\":5318:5328  _signature */\n      dup4\n      dup4\n        /* \"sourcify-verified/1/0xfea230Ee243f88BC698dD8f1aE93F8301B6cdfaE/sources/contracts/utils/SignatureValidator.sol\":5330:5343  signatureType */\n      dup3\n        /* \"sourcify-verified/1/0xfea230Ee243f88BC698dD8f1aE93F8301B6cdfaE/sources/contracts/utils/SignatureValidator.sol\":5345:5350  false */\n      0x00\n        /* \"sourcify-verified/1/0xfea230Ee243f88BC698dD8f1aE93F8301B6cdfaE/sources/contracts/utils/SignatureValidator.sol\":5293:5351  UnsupportedSignatureType(_signature, signatureType, false) */\n      mload(0x40)\n      0x9dfba85200000000000000000000000000000000000000000000000000000000\n      dup2\n      mstore\n      0x04\n      add\n      tag_93\n      swap5\n      swap4\n      swap3\n      swap2\n      swap1\n      tag_363\n      jump\t// in\n        /* \"sourcify-verified/1/0xfea230Ee243f88BC698dD8f1aE93F8301B6cdfaE/sources/contracts/utils/SignatureValidator.sol\":4894:5358  if (signatureType == SIG_TYPE_WALLET_BYTES32) {... */\n    tag_384:\n        /* \"sourcify-verified/1/0xfea230Ee243f88BC698dD8f1aE93F8301B6cdfaE/sources/contracts/utils/SignatureValidator.sol\":4547:5362  {... */\n      pop\n        /* \"sourcify-verified/1/0xfea230Ee243f88BC698dD8f1aE93F8301B6cdfaE/sources/contracts/utils/SignatureValidator.sol\":4411:5362  function isValidSignature(... */\n      swap5\n      swap4\n      pop\n      pop\n      pop\n      pop\n      jump\t// out\n        /* \"sourcify-verified/1/0xfea230Ee243f88BC698dD8f1aE93F8301B6cdfaE/sources/contracts/modules/commons/submodules/auth/SequenceBaseSig.sol\":2227:2409  function _leafForHardcodedSubdigest(... */\n    tag_311:\n        /* \"sourcify-verified/1/0xfea230Ee243f88BC698dD8f1aE93F8301B6cdfaE/sources/contracts/modules/commons/submodules/auth/SequenceBaseSig.sol\":2346:2403  abi.encodePacked('Sequence static digest:\\n', _subdigest) */\n      mload(0x40)\n        /* \"#utility.yul\":20822:20888   */\n      0x53657175656e636520737461746963206469676573743a0a0000000000000000\n        /* \"sourcify-verified/1/0xfea230Ee243f88BC698dD8f1aE93F8301B6cdfaE/sources/contracts/modules/commons/submodules/auth/SequenceBaseSig.sol\":2346:2403  abi.encodePacked('Sequence static digest:\\n', _subdigest) */\n      0x20\n      dup3\n      add\n        /* \"#utility.yul\":20810:20889   */\n      mstore\n        /* \"#utility.yul\":20905:20917   */\n      0x38\n      dup2\n      add\n        /* \"#utility.yul\":20898:20926   */\n      dup3\n      swap1\n      mstore\n        /* \"sourcify-verified/1/0xfea230Ee243f88BC698dD8f1aE93F8301B6cdfaE/sources/contracts/modules/commons/submodules/auth/SequenceBaseSig.sol\":2314:2321  bytes32 */\n      0x00\n      swap1\n        /* \"#utility.yul\":20942:20954   */\n      0x58\n      add\n        /* \"sourcify-verified/1/0xfea230Ee243f88BC698dD8f1aE93F8301B6cdfaE/sources/contracts/modules/commons/submodules/auth/SequenceBaseSig.sol\":2346:2403  abi.encodePacked('Sequence static digest:\\n', _subdigest) */\n      tag_155\n        /* \"#utility.yul\":20580:20960   */\n      jump\n        /* \"#utility.yul\":14:191   */\n    tag_397:\n        /* \"#utility.yul\":99:165   */\n      0xffffffff00000000000000000000000000000000000000000000000000000000\n        /* \"#utility.yul\":92:97   */\n      dup2\n        /* \"#utility.yul\":88:166   */\n      and\n        /* \"#utility.yul\":81:86   */\n      dup2\n        /* \"#utility.yul\":78:167   */\n      eq\n        /* \"#utility.yul\":68:185   */\n      tag_96\n      jumpi\n        /* \"#utility.yul\":181:182   */\n      0x00\n        /* \"#utility.yul\":178:179   */\n      dup1\n        /* \"#utility.yul\":171:183   */\n      revert\n        /* \"#utility.yul\":196:441   */\n    tag_19:\n        /* \"#utility.yul\":254:260   */\n      0x00\n        /* \"#utility.yul\":307:309   */\n      0x20\n        /* \"#utility.yul\":295:304   */\n      dup3\n        /* \"#utility.yul\":286:293   */\n      dup5\n        /* \"#utility.yul\":282:305   */\n      sub\n        /* \"#utility.yul\":278:310   */\n      slt\n        /* \"#utility.yul\":275:327   */\n      iszero\n      tag_411\n      jumpi\n        /* \"#utility.yul\":323:324   */\n      0x00\n        /* \"#utility.yul\":320:321   */\n      dup1\n        /* \"#utility.yul\":313:325   */\n      revert\n        /* \"#utility.yul\":275:327   */\n    tag_411:\n        /* \"#utility.yul\":362:371   */\n      dup2\n        /* \"#utility.yul\":349:372   */\n      calldataload\n        /* \"#utility.yul\":381:411   */\n      tag_82\n        /* \"#utility.yul\":405:410   */\n      dup2\n        /* \"#utility.yul\":381:411   */\n      tag_397\n      jump\t// in\n        /* \"#utility.yul\":638:985   */\n    tag_398:\n        /* \"#utility.yul\":689:697   */\n      0x00\n        /* \"#utility.yul\":699:705   */\n      dup1\n        /* \"#utility.yul\":753:756   */\n      dup4\n        /* \"#utility.yul\":746:750   */\n      0x1f\n        /* \"#utility.yul\":738:744   */\n      dup5\n        /* \"#utility.yul\":734:751   */\n      add\n        /* \"#utility.yul\":730:757   */\n      slt\n        /* \"#utility.yul\":720:775   */\n      tag_415\n      jumpi\n        /* \"#utility.yul\":771:772   */\n      0x00\n        /* \"#utility.yul\":768:769   */\n      dup1\n        /* \"#utility.yul\":761:773   */\n      revert\n        /* \"#utility.yul\":720:775   */\n    tag_415:\n      pop\n        /* \"#utility.yul\":794:814   */\n      dup2\n      calldataload\n        /* \"#utility.yul\":837:855   */\n      0xffffffffffffffff\n        /* \"#utility.yul\":826:856   */\n      dup2\n      gt\n        /* \"#utility.yul\":823:873   */\n      iszero\n      tag_416\n      jumpi\n        /* \"#utility.yul\":869:870   */\n      0x00\n        /* \"#utility.yul\":866:867   */\n      dup1\n        /* \"#utility.yul\":859:871   */\n      revert\n        /* \"#utility.yul\":823:873   */\n    tag_416:\n        /* \"#utility.yul\":906:910   */\n      0x20\n        /* \"#utility.yul\":898:904   */\n      dup4\n        /* \"#utility.yul\":894:911   */\n      add\n        /* \"#utility.yul\":882:911   */\n      swap2\n      pop\n        /* \"#utility.yul\":958:961   */\n      dup4\n        /* \"#utility.yul\":951:955   */\n      0x20\n        /* \"#utility.yul\":942:948   */\n      dup3\n        /* \"#utility.yul\":934:940   */\n      dup6\n        /* \"#utility.yul\":930:949   */\n      add\n        /* \"#utility.yul\":926:956   */\n      add\n        /* \"#utility.yul\":923:962   */\n      gt\n        /* \"#utility.yul\":920:979   */\n      iszero\n      tag_417\n      jumpi\n        /* \"#utility.yul\":975:976   */\n      0x00\n        /* \"#utility.yul\":972:973   */\n      dup1\n        /* \"#utility.yul\":965:977   */\n      revert\n        /* \"#utility.yul\":920:979   */\n    tag_417:\n        /* \"#utility.yul\":638:985   */\n      swap3\n      pop\n      swap3\n      swap1\n      pop\n      jump\t// out\n        /* \"#utility.yul\":990:1467   */\n    tag_26:\n        /* \"#utility.yul\":1069:1075   */\n      0x00\n        /* \"#utility.yul\":1077:1083   */\n      dup1\n        /* \"#utility.yul\":1085:1091   */\n      0x00\n        /* \"#utility.yul\":1138:1140   */\n      0x40\n        /* \"#utility.yul\":1126:1135   */\n      dup5\n        /* \"#utility.yul\":1117:1124   */\n      dup7\n        /* \"#utility.yul\":1113:1136   */\n      sub\n        /* \"#utility.yul\":1109:1141   */\n      slt\n        /* \"#utility.yul\":1106:1158   */\n      iszero\n      tag_419\n      jumpi\n        /* \"#utility.yul\":1154:1155   */\n      0x00\n        /* \"#utility.yul\":1151:1152   */\n      dup1\n        /* \"#utility.yul\":1144:1156   */\n      revert\n        /* \"#utility.yul\":1106:1158   */\n    tag_419:\n        /* \"#utility.yul\":1190:1199   */\n      dup4\n        /* \"#utility.yul\":1177:1200   */\n      calldataload\n        /* \"#utility.yul\":1167:1200   */\n      swap3\n      pop\n        /* \"#utility.yul\":1251:1253   */\n      0x20\n        /* \"#utility.yul\":1240:1249   */\n      dup5\n        /* \"#utility.yul\":1236:1254   */\n      add\n        /* \"#utility.yul\":1223:1255   */\n      calldataload\n        /* \"#utility.yul\":1278:1296   */\n      0xffffffffffffffff\n        /* \"#utility.yul\":1270:1276   */\n      dup2\n        /* \"#utility.yul\":1267:1297   */\n      gt\n        /* \"#utility.yul\":1264:1314   */\n      iszero\n      tag_420\n      jumpi\n        /* \"#utility.yul\":1310:1311   */\n      0x00\n        /* \"#utility.yul\":1307:1308   */\n      dup1\n        /* \"#utility.yul\":1300:1312   */\n      revert\n        /* \"#utility.yul\":1264:1314   */\n    tag_420:\n        /* \"#utility.yul\":1349:1407   */\n      tag_421\n        /* \"#utility.yul\":1399:1406   */\n      dup7\n        /* \"#utility.yul\":1390:1396   */\n      dup3\n        /* \"#utility.yul\":1379:1388   */\n      dup8\n        /* \"#utility.yul\":1375:1397   */\n      add\n        /* \"#utility.yul\":1349:1407   */\n      tag_398\n      jump\t// in\n    tag_421:\n        /* \"#utility.yul\":990:1467   */\n      swap5\n      swap8\n        /* \"#utility.yul\":1426:1434   */\n      swap1\n      swap7\n      pop\n        /* \"#utility.yul\":1323:1407   */\n      swap4\n      swap5\n      pop\n      pop\n      pop\n      pop\n        /* \"#utility.yul\":990:1467   */\n      jump\t// out\n        /* \"#utility.yul\":1725:2442   */\n    tag_33:\n        /* \"#utility.yul\":1815:1821   */\n      0x00\n        /* \"#utility.yul\":1823:1829   */\n      dup1\n        /* \"#utility.yul\":1831:1837   */\n      0x00\n        /* \"#utility.yul\":1839:1845   */\n      dup1\n        /* \"#utility.yul\":1892:1894   */\n      0x40\n        /* \"#utility.yul\":1880:1889   */\n      dup6\n        /* \"#utility.yul\":1871:1878   */\n      dup8\n        /* \"#utility.yul\":1867:1890   */\n      sub\n        /* \"#utility.yul\":1863:1895   */\n      slt\n        /* \"#utility.yul\":1860:1912   */\n      iszero\n      tag_424\n      jumpi\n        /* \"#utility.yul\":1908:1909   */\n      0x00\n        /* \"#utility.yul\":1905:1906   */\n      dup1\n        /* \"#utility.yul\":1898:1910   */\n      revert\n        /* \"#utility.yul\":1860:1912   */\n    tag_424:\n        /* \"#utility.yul\":1948:1957   */\n      dup5\n        /* \"#utility.yul\":1935:1958   */\n      calldataload\n        /* \"#utility.yul\":1977:1995   */\n      0xffffffffffffffff\n        /* \"#utility.yul\":2018:2020   */\n      dup1\n        /* \"#utility.yul\":2010:2016   */\n      dup3\n        /* \"#utility.yul\":2007:2021   */\n      gt\n        /* \"#utility.yul\":2004:2038   */\n      iszero\n      tag_425\n      jumpi\n        /* \"#utility.yul\":2034:2035   */\n      0x00\n        /* \"#utility.yul\":2031:2032   */\n      dup1\n        /* \"#utility.yul\":2024:2036   */\n      revert\n        /* \"#utility.yul\":2004:2038   */\n    tag_425:\n        /* \"#utility.yul\":2073:2131   */\n      tag_426\n        /* \"#utility.yul\":2123:2130   */\n      dup9\n        /* \"#utility.yul\":2114:2120   */\n      dup4\n        /* \"#utility.yul\":2103:2112   */\n      dup10\n        /* \"#utility.yul\":2099:2121   */\n      add\n        /* \"#utility.yul\":2073:2131   */\n      tag_398\n      jump\t// in\n    tag_426:\n        /* \"#utility.yul\":2150:2158   */\n      swap1\n      swap7\n      pop\n        /* \"#utility.yul\":2047:2131   */\n      swap5\n      pop\n        /* \"#utility.yul\":2238:2240   */\n      0x20\n        /* \"#utility.yul\":2223:2241   */\n      dup8\n      add\n        /* \"#utility.yul\":2210:2242   */\n      calldataload\n      swap2\n      pop\n        /* \"#utility.yul\":2254:2270   */\n      dup1\n      dup3\n      gt\n        /* \"#utility.yul\":2251:2287   */\n      iszero\n      tag_427\n      jumpi\n        /* \"#utility.yul\":2283:2284   */\n      0x00\n        /* \"#utility.yul\":2280:2281   */\n      dup1\n        /* \"#utility.yul\":2273:2285   */\n      revert\n        /* \"#utility.yul\":2251:2287   */\n    tag_427:\n      pop\n        /* \"#utility.yul\":2322:2382   */\n      tag_428\n        /* \"#utility.yul\":2374:2381   */\n      dup8\n        /* \"#utility.yul\":2363:2371   */\n      dup3\n        /* \"#utility.yul\":2352:2361   */\n      dup9\n        /* \"#utility.yul\":2348:2372   */\n      add\n        /* \"#utility.yul\":2322:2382   */\n      tag_398\n      jump\t// in\n    tag_428:\n        /* \"#utility.yul\":1725:2442   */\n      swap6\n      swap9\n      swap5\n      swap8\n      pop\n        /* \"#utility.yul\":2401:2409   */\n      swap6\n      pop\n      pop\n      pop\n      pop\n        /* \"#utility.yul\":1725:2442   */\n      jump\t// out\n        /* \"#utility.yul\":2447:2627   */\n    tag_39:\n        /* \"#utility.yul\":2506:2512   */\n      0x00\n        /* \"#utility.yul\":2559:2561   */\n      0x20\n        /* \"#utility.yul\":2547:2556   */\n      dup3\n        /* \"#utility.yul\":2538:2545   */\n      dup5\n        /* \"#utility.yul\":2534:2557   */\n      sub\n        /* \"#utility.yul\":2530:2562   */\n      slt\n        /* \"#utility.yul\":2527:2579   */\n      iszero\n      tag_430\n      jumpi\n        /* \"#utility.yul\":2575:2576   */\n      0x00\n        /* \"#utility.yul\":2572:2573   */\n      dup1\n        /* \"#utility.yul\":2565:2577   */\n      revert\n        /* \"#utility.yul\":2527:2579   */\n    tag_430:\n      pop\n        /* \"#utility.yul\":2598:2621   */\n      calldataload\n      swap2\n        /* \"#utility.yul\":2447:2627   */\n      swap1\n      pop\n      jump\t// out\n        /* \"#utility.yul\":2814:3201   */\n    tag_399:\n        /* \"#utility.yul\":2897:2905   */\n      0x00\n        /* \"#utility.yul\":2907:2913   */\n      dup1\n        /* \"#utility.yul\":2961:2964   */\n      dup4\n        /* \"#utility.yul\":2954:2958   */\n      0x1f\n        /* \"#utility.yul\":2946:2952   */\n      dup5\n        /* \"#utility.yul\":2942:2959   */\n      add\n        /* \"#utility.yul\":2938:2965   */\n      slt\n        /* \"#utility.yul\":2928:2983   */\n      tag_433\n      jumpi\n        /* \"#utility.yul\":2979:2980   */\n      0x00\n        /* \"#utility.yul\":2976:2977   */\n      dup1\n        /* \"#utility.yul\":2969:2981   */\n      revert\n        /* \"#utility.yul\":2928:2983   */\n    tag_433:\n      pop\n        /* \"#utility.yul\":3002:3022   */\n      dup2\n      calldataload\n        /* \"#utility.yul\":3045:3063   */\n      0xffffffffffffffff\n        /* \"#utility.yul\":3034:3064   */\n      dup2\n      gt\n        /* \"#utility.yul\":3031:3081   */\n      iszero\n      tag_434\n      jumpi\n        /* \"#utility.yul\":3077:3078   */\n      0x00\n        /* \"#utility.yul\":3074:3075   */\n      dup1\n        /* \"#utility.yul\":3067:3079   */\n      revert\n        /* \"#utility.yul\":3031:3081   */\n    tag_434:\n        /* \"#utility.yul\":3114:3118   */\n      0x20\n        /* \"#utility.yul\":3106:3112   */\n      dup4\n        /* \"#utility.yul\":3102:3119   */\n      add\n        /* \"#utility.yul\":3090:3119   */\n      swap2\n      pop\n        /* \"#utility.yul\":3174:3177   */\n      dup4\n        /* \"#utility.yul\":3167:3171   */\n      0x20\n        /* \"#utility.yul\":3157:3163   */\n      dup3\n        /* \"#utility.yul\":3154:3155   */\n      0x05\n        /* \"#utility.yul\":3150:3164   */\n      shl\n        /* \"#utility.yul\":3142:3148   */\n      dup6\n        /* \"#utility.yul\":3138:3165   */\n      add\n        /* \"#utility.yul\":3134:3172   */\n      add\n        /* \"#utility.yul\":3131:3178   */\n      gt\n        /* \"#utility.yul\":3128:3195   */\n      iszero\n      tag_417\n      jumpi\n        /* \"#utility.yul\":3191:3192   */\n      0x00\n        /* \"#utility.yul\":3188:3189   */\n      dup1\n        /* \"#utility.yul\":3181:3193   */\n      revert\n        /* \"#utility.yul\":3206:3694   */\n    tag_49:\n        /* \"#utility.yul\":3323:3329   */\n      0x00\n        /* \"#utility.yul\":3331:3337   */\n      dup1\n        /* \"#utility.yul\":3384:3386   */\n      0x20\n        /* \"#utility.yul\":3372:3381   */\n      dup4\n        /* \"#utility.yul\":3363:3370   */\n      dup6\n        /* \"#utility.yul\":3359:3382   */\n      sub\n        /* \"#utility.yul\":3355:3387   */\n      slt\n        /* \"#utility.yul\":3352:3404   */\n      iszero\n      tag_437\n      jumpi\n        /* \"#utility.yul\":3400:3401   */\n      0x00\n        /* \"#utility.yul\":3397:3398   */\n      dup1\n        /* \"#utility.yul\":3390:3402   */\n      revert\n        /* \"#utility.yul\":3352:3404   */\n    tag_437:\n        /* \"#utility.yul\":3440:3449   */\n      dup3\n        /* \"#utility.yul\":3427:3450   */\n      calldataload\n        /* \"#utility.yul\":3473:3491   */\n      0xffffffffffffffff\n        /* \"#utility.yul\":3465:3471   */\n      dup2\n        /* \"#utility.yul\":3462:3492   */\n      gt\n        /* \"#utility.yul\":3459:3509   */\n      iszero\n      tag_438\n      jumpi\n        /* \"#utility.yul\":3505:3506   */\n      0x00\n        /* \"#utility.yul\":3502:3503   */\n      dup1\n        /* \"#utility.yul\":3495:3507   */\n      revert\n        /* \"#utility.yul\":3459:3509   */\n    tag_438:\n        /* \"#utility.yul\":3544:3634   */\n      tag_439\n        /* \"#utility.yul\":3626:3633   */\n      dup6\n        /* \"#utility.yul\":3617:3623   */\n      dup3\n        /* \"#utility.yul\":3606:3615   */\n      dup7\n        /* \"#utility.yul\":3602:3624   */\n      add\n        /* \"#utility.yul\":3544:3634   */\n      tag_399\n      jump\t// in\n    tag_439:\n        /* \"#utility.yul\":3653:3661   */\n      swap1\n      swap7\n        /* \"#utility.yul\":3518:3634   */\n      swap1\n      swap6\n      pop\n        /* \"#utility.yul\":3206:3694   */\n      swap4\n      pop\n      pop\n      pop\n      pop\n      jump\t// out\n        /* \"#utility.yul\":3699:4563   */\n    tag_54:\n        /* \"#utility.yul\":3845:3851   */\n      0x00\n        /* \"#utility.yul\":3853:3859   */\n      dup1\n        /* \"#utility.yul\":3861:3867   */\n      0x00\n        /* \"#utility.yul\":3869:3875   */\n      dup1\n        /* \"#utility.yul\":3877:3883   */\n      0x00\n        /* \"#utility.yul\":3930:3932   */\n      0x60\n        /* \"#utility.yul\":3918:3927   */\n      dup7\n        /* \"#utility.yul\":3909:3916   */\n      dup9\n        /* \"#utility.yul\":3905:3928   */\n      sub\n        /* \"#utility.yul\":3901:3933   */\n      slt\n        /* \"#utility.yul\":3898:3950   */\n      iszero\n      tag_441\n      jumpi\n        /* \"#utility.yul\":3946:3947   */\n      0x00\n        /* \"#utility.yul\":3943:3944   */\n      dup1\n        /* \"#utility.yul\":3936:3948   */\n      revert\n        /* \"#utility.yul\":3898:3950   */\n    tag_441:\n        /* \"#utility.yul\":3986:3995   */\n      dup6\n        /* \"#utility.yul\":3973:3996   */\n      calldataload\n        /* \"#utility.yul\":4015:4033   */\n      0xffffffffffffffff\n        /* \"#utility.yul\":4056:4058   */\n      dup1\n        /* \"#utility.yul\":4048:4054   */\n      dup3\n        /* \"#utility.yul\":4045:4059   */\n      gt\n        /* \"#utility.yul\":4042:4076   */\n      iszero\n      tag_442\n      jumpi\n        /* \"#utility.yul\":4072:4073   */\n      0x00\n        /* \"#utility.yul\":4069:4070   */\n      dup1\n        /* \"#utility.yul\":4062:4074   */\n      revert\n        /* \"#utility.yul\":4042:4076   */\n    tag_442:\n        /* \"#utility.yul\":4111:4201   */\n      tag_443\n        /* \"#utility.yul\":4193:4200   */\n      dup10\n        /* \"#utility.yul\":4184:4190   */\n      dup4\n        /* \"#utility.yul\":4173:4182   */\n      dup11\n        /* \"#utility.yul\":4169:4191   */\n      add\n        /* \"#utility.yul\":4111:4201   */\n      tag_399\n      jump\t// in\n    tag_443:\n        /* \"#utility.yul\":4220:4228   */\n      swap1\n      swap8\n      pop\n        /* \"#utility.yul\":4085:4201   */\n      swap6\n      pop\n        /* \"#utility.yul\":4302:4304   */\n      0x20\n        /* \"#utility.yul\":4287:4305   */\n      dup9\n      add\n        /* \"#utility.yul\":4274:4306   */\n      calldataload\n      swap5\n      pop\n        /* \"#utility.yul\":4359:4361   */\n      0x40\n        /* \"#utility.yul\":4344:4362   */\n      dup9\n      add\n        /* \"#utility.yul\":4331:4363   */\n      calldataload\n      swap2\n      pop\n        /* \"#utility.yul\":4375:4391   */\n      dup1\n      dup3\n      gt\n        /* \"#utility.yul\":4372:4408   */\n      iszero\n      tag_444\n      jumpi\n        /* \"#utility.yul\":4404:4405   */\n      0x00\n        /* \"#utility.yul\":4401:4402   */\n      dup1\n        /* \"#utility.yul\":4394:4406   */\n      revert\n        /* \"#utility.yul\":4372:4408   */\n    tag_444:\n      pop\n        /* \"#utility.yul\":4443:4503   */\n      tag_445\n        /* \"#utility.yul\":4495:4502   */\n      dup9\n        /* \"#utility.yul\":4484:4492   */\n      dup3\n        /* \"#utility.yul\":4473:4482   */\n      dup10\n        /* \"#utility.yul\":4469:4493   */\n      add\n        /* \"#utility.yul\":4443:4503   */\n      tag_398\n      jump\t// in\n    tag_445:\n        /* \"#utility.yul\":3699:4563   */\n      swap7\n      swap10\n      swap6\n      swap9\n      pop\n      swap4\n      swap7\n      pop\n        /* \"#utility.yul\":4522:4530   */\n      swap3\n      swap5\n        /* \"#utility.yul\":4417:4503   */\n      swap4\n        /* \"#utility.yul\":3699:4563   */\n      swap3\n      pop\n      pop\n      pop\n      jump\t// out\n        /* \"#utility.yul\":5403:5587   */\n    tag_400:\n        /* \"#utility.yul\":5455:5532   */\n      0x4e487b7100000000000000000000000000000000000000000000000000000000\n        /* \"#utility.yul\":5452:5453   */\n      0x00\n        /* \"#utility.yul\":5445:5533   */\n      mstore\n        /* \"#utility.yul\":5552:5556   */\n      0x41\n        /* \"#utility.yul\":5549:5550   */\n      0x04\n        /* \"#utility.yul\":5542:5557   */\n      mstore\n        /* \"#utility.yul\":5576:5580   */\n      0x24\n        /* \"#utility.yul\":5573:5574   */\n      0x00\n        /* \"#utility.yul\":5566:5581   */\n      revert\n        /* \"#utility.yul\":5592:6572   */\n    tag_71:\n        /* \"#utility.yul\":5660:5666   */\n      0x00\n        /* \"#utility.yul\":5713:5715   */\n      0x20\n        /* \"#utility.yul\":5701:5710   */\n      dup3\n        /* \"#utility.yul\":5692:5699   */\n      dup5\n        /* \"#utility.yul\":5688:5711   */\n      sub\n        /* \"#utility.yul\":5684:5716   */\n      slt\n        /* \"#utility.yul\":5681:5733   */\n      iszero\n      tag_452\n      jumpi\n        /* \"#utility.yul\":5729:5730   */\n      0x00\n        /* \"#utility.yul\":5726:5727   */\n      dup1\n        /* \"#utility.yul\":5719:5731   */\n      revert\n        /* \"#utility.yul\":5681:5733   */\n    tag_452:\n        /* \"#utility.yul\":5769:5778   */\n      dup2\n        /* \"#utility.yul\":5756:5779   */\n      calldataload\n        /* \"#utility.yul\":5798:5816   */\n      0xffffffffffffffff\n        /* \"#utility.yul\":5839:5841   */\n      dup1\n        /* \"#utility.yul\":5831:5837   */\n      dup3\n        /* \"#utility.yul\":5828:5842   */\n      gt\n        /* \"#utility.yul\":5825:5859   */\n      iszero\n      tag_453\n      jumpi\n        /* \"#utility.yul\":5855:5856   */\n      0x00\n        /* \"#utility.yul\":5852:5853   */\n      dup1\n        /* \"#utility.yul\":5845:5857   */\n      revert\n        /* \"#utility.yul\":5825:5859   */\n    tag_453:\n        /* \"#utility.yul\":5893:5899   */\n      dup2\n        /* \"#utility.yul\":5882:5891   */\n      dup5\n        /* \"#utility.yul\":5878:5900   */\n      add\n        /* \"#utility.yul\":5868:5900   */\n      swap2\n      pop\n        /* \"#utility.yul\":5938:5945   */\n      dup5\n        /* \"#utility.yul\":5931:5935   */\n      0x1f\n        /* \"#utility.yul\":5927:5929   */\n      dup4\n        /* \"#utility.yul\":5923:5936   */\n      add\n        /* \"#utility.yul\":5919:5946   */\n      slt\n        /* \"#utility.yul\":5909:5964   */\n      tag_454\n      jumpi\n        /* \"#utility.yul\":5960:5961   */\n      0x00\n        /* \"#utility.yul\":5957:5958   */\n      dup1\n        /* \"#utility.yul\":5950:5962   */\n      revert\n        /* \"#utility.yul\":5909:5964   */\n    tag_454:\n        /* \"#utility.yul\":5996:5998   */\n      dup2\n        /* \"#utility.yul\":5983:5999   */\n      calldataload\n        /* \"#utility.yul\":6018:6020   */\n      dup2\n        /* \"#utility.yul\":6014:6016   */\n      dup2\n        /* \"#utility.yul\":6011:6021   */\n      gt\n        /* \"#utility.yul\":6008:6044   */\n      iszero\n      tag_456\n      jumpi\n        /* \"#utility.yul\":6024:6042   */\n      tag_456\n      tag_400\n      jump\t// in\n    tag_456:\n        /* \"#utility.yul\":6158:6160   */\n      0x40\n        /* \"#utility.yul\":6152:6161   */\n      mload\n        /* \"#utility.yul\":6220:6224   */\n      0x1f\n        /* \"#utility.yul\":6212:6225   */\n      dup3\n      add\n        /* \"#utility.yul\":6063:6129   */\n      0xffffffffffffffffffffffffffffffffffffffffffffffffffffffffffffffe0\n        /* \"#utility.yul\":6208:6230   */\n      swap1\n      dup2\n      and\n        /* \"#utility.yul\":6232:6234   */\n      0x3f\n        /* \"#utility.yul\":6204:6235   */\n      add\n        /* \"#utility.yul\":6200:6240   */\n      and\n        /* \"#utility.yul\":6188:6241   */\n      dup2\n      add\n      swap1\n        /* \"#utility.yul\":6256:6274   */\n      dup4\n      dup3\n      gt\n        /* \"#utility.yul\":6276:6298   */\n      dup2\n      dup4\n      lt\n        /* \"#utility.yul\":6253:6299   */\n      or\n        /* \"#utility.yul\":6250:6322   */\n      iszero\n      tag_458\n      jumpi\n        /* \"#utility.yul\":6302:6320   */\n      tag_458\n      tag_400\n      jump\t// in\n    tag_458:\n        /* \"#utility.yul\":6342:6352   */\n      dup2\n        /* \"#utility.yul\":6338:6340   */\n      0x40\n        /* \"#utility.yul\":6331:6353   */\n      mstore\n        /* \"#utility.yul\":6377:6379   */\n      dup3\n        /* \"#utility.yul\":6369:6375   */\n      dup2\n        /* \"#utility.yul\":6362:6380   */\n      mstore\n        /* \"#utility.yul\":6417:6424   */\n      dup8\n        /* \"#utility.yul\":6412:6414   */\n      0x20\n        /* \"#utility.yul\":6407:6409   */\n      dup5\n        /* \"#utility.yul\":6403:6405   */\n      dup8\n        /* \"#utility.yul\":6399:6410   */\n      add\n        /* \"#utility.yul\":6395:6415   */\n      add\n        /* \"#utility.yul\":6392:6425   */\n      gt\n        /* \"#utility.yul\":6389:6442   */\n      iszero\n      tag_459\n      jumpi\n        /* \"#utility.yul\":6438:6439   */\n      0x00\n        /* \"#utility.yul\":6435:6436   */\n      dup1\n        /* \"#utility.yul\":6428:6440   */\n      revert\n        /* \"#utility.yul\":6389:6442   */\n    tag_459:\n        /* \"#utility.yul\":6494:6496   */\n      dup3\n        /* \"#utility.yul\":6489:6491   */\n      0x20\n        /* \"#utility.yul\":6485:6487   */\n      dup7\n        /* \"#utility.yul\":6481:6492   */\n      add\n        /* \"#utility.yul\":6476:6478   */\n      0x20\n        /* \"#utility.yul\":6468:6474   */\n      dup4\n        /* \"#utility.yul\":6464:6479   */\n      add\n        /* \"#utility.yul\":6451:6497   */\n      calldatacopy\n        /* \"#utility.yul\":6539:6540   */\n      0x00\n        /* \"#utility.yul\":6517:6532   */\n      swap3\n      dup2\n      add\n        /* \"#utility.yul\":6534:6536   */\n      0x20\n        /* \"#utility.yul\":6513:6537   */\n      add\n        /* \"#utility.yul\":6506:6541   */\n      swap3\n      swap1\n      swap3\n      mstore\n      pop\n        /* \"#utility.yul\":6521:6527   */\n      swap6\n        /* \"#utility.yul\":5592:6572   */\n      swap5\n      pop\n      pop\n      pop\n      pop\n      pop\n      jump\t// out\n        /* \"#utility.yul\":6808:7079   */\n    tag_89:\n        /* \"#utility.yul\":6991:6997   */\n      dup2\n        /* \"#utility.yul\":6983:6989   */\n      dup4\n        /* \"#utility.yul\":6978:6981   */\n      dup3\n        /* \"#utility.yul\":6965:6998   */\n      calldatacopy\n        /* \"#utility.yul\":6947:6950   */\n      0x00\n        /* \"#utility.yul\":7017:7033   */\n      swap2\n      add\n        /* \"#utility.yul\":7042:7055   */\n      swap1\n      dup2\n      mstore\n        /* \"#utility.yul\":7017:7033   */\n      swap2\n        /* \"#utility.yul\":6808:7079   */\n      swap1\n      pop\n      jump\t// out\n        /* \"#utility.yul\":7416:7576   */\n    tag_401:\n        /* \"#utility.yul\":7481:7501   */\n      dup1\n      calldataload\n        /* \"#utility.yul\":7537:7550   */\n      dup1\n      iszero\n        /* \"#utility.yul\":7530:7551   */\n      iszero\n        /* \"#utility.yul\":7520:7552   */\n      dup2\n      eq\n        /* \"#utility.yul\":7510:7570   */\n      tag_464\n      jumpi\n        /* \"#utility.yul\":7566:7567   */\n      0x00\n        /* \"#utility.yul\":7563:7564   */\n      dup1\n        /* \"#utility.yul\":7556:7568   */\n      revert\n        /* \"#utility.yul\":7510:7570   */\n    tag_464:\n        /* \"#utility.yul\":7416:7576   */\n      swap2\n      swap1\n      pop\n      jump\t// out\n        /* \"#utility.yul\":7581:7777   */\n    tag_402:\n        /* \"#utility.yul\":7649:7669   */\n      dup1\n      calldataload\n        /* \"#utility.yul\":7709:7751   */\n      0xffffffffffffffffffffffffffffffffffffffff\n        /* \"#utility.yul\":7698:7752   */\n      dup2\n      and\n        /* \"#utility.yul\":7688:7753   */\n      dup2\n      eq\n        /* \"#utility.yul\":7678:7771   */\n      tag_464\n      jumpi\n        /* \"#utility.yul\":7767:7768   */\n      0x00\n        /* \"#utility.yul\":7764:7765   */\n      dup1\n        /* \"#utility.yul\":7757:7769   */\n      revert\n        /* \"#utility.yul\":7782:8107   */\n    tag_403:\n        /* \"#utility.yul\":7870:7876   */\n      dup2\n        /* \"#utility.yul\":7865:7868   */\n      dup4\n        /* \"#utility.yul\":7858:7877   */\n      mstore\n        /* \"#utility.yul\":7922:7928   */\n      dup2\n        /* \"#utility.yul\":7915:7920   */\n      dup2\n        /* \"#utility.yul\":7908:7912   */\n      0x20\n        /* \"#utility.yul\":7903:7906   */\n      dup6\n        /* \"#utility.yul\":7899:7913   */\n      add\n        /* \"#utility.yul\":7886:7929   */\n      calldatacopy\n      pop\n        /* \"#utility.yul\":7974:7975   */\n      0x00\n        /* \"#utility.yul\":7967:7971   */\n      0x20\n        /* \"#utility.yul\":7958:7964   */\n      dup3\n        /* \"#utility.yul\":7953:7956   */\n      dup5\n        /* \"#utility.yul\":7949:7965   */\n      add\n        /* \"#utility.yul\":7945:7972   */\n      add\n        /* \"#utility.yul\":7938:7976   */\n      mstore\n        /* \"#utility.yul\":7840:7843   */\n      0x00\n        /* \"#utility.yul\":8096:8100   */\n      0x20\n        /* \"#utility.yul\":8026:8092   */\n      0xffffffffffffffffffffffffffffffffffffffffffffffffffffffffffffffe0\n        /* \"#utility.yul\":8021:8023   */\n      0x1f\n        /* \"#utility.yul\":8013:8019   */\n      dup5\n        /* \"#utility.yul\":8009:8024   */\n      add\n        /* \"#utility.yul\":8005:8093   */\n      and\n        /* \"#utility.yul\":8000:8003   */\n      dup5\n        /* \"#utility.yul\":7996:8094   */\n      add\n        /* \"#utility.yul\":7992:8101   */\n      add\n        /* \"#utility.yul\":7985:8101   */\n      swap1\n      pop\n        /* \"#utility.yul\":7782:8107   */\n      swap3\n      swap2\n      pop\n      pop\n      jump\t// out\n        /* \"#utility.yul\":8112:10140   */\n    tag_404:\n        /* \"#utility.yul\":8232:8238   */\n      dup2\n        /* \"#utility.yul\":8227:8230   */\n      dup4\n        /* \"#utility.yul\":8220:8239   */\n      mstore\n        /* \"#utility.yul\":8202:8205   */\n      0x00\n        /* \"#utility.yul\":8258:8262   */\n      0x20\n        /* \"#utility.yul\":8299:8301   */\n      dup1\n        /* \"#utility.yul\":8294:8297   */\n      dup6\n        /* \"#utility.yul\":8290:8302   */\n      add\n        /* \"#utility.yul\":8324:8335   */\n      dup1\n        /* \"#utility.yul\":8351:8362   */\n      dup2\n        /* \"#utility.yul\":8344:8362   */\n      swap7\n      pop\n        /* \"#utility.yul\":8401:8407   */\n      dup6\n        /* \"#utility.yul\":8398:8399   */\n      0x05\n        /* \"#utility.yul\":8394:8408   */\n      shl\n        /* \"#utility.yul\":8387:8392   */\n      dup2\n        /* \"#utility.yul\":8383:8409   */\n      add\n        /* \"#utility.yul\":8371:8409   */\n      swap2\n      pop\n        /* \"#utility.yul\":8432:8437   */\n      dup5\n        /* \"#utility.yul\":8455:8456   */\n      0x00\n        /* \"#utility.yul\":8465:10114   */\n    tag_469:\n        /* \"#utility.yul\":8479:8485   */\n      dup8\n        /* \"#utility.yul\":8476:8477   */\n      dup2\n        /* \"#utility.yul\":8473:8486   */\n      lt\n        /* \"#utility.yul\":8465:10114   */\n      iszero\n      tag_471\n      jumpi\n        /* \"#utility.yul\":8550:8555   */\n      dup3\n        /* \"#utility.yul\":8544:8548   */\n      dup5\n        /* \"#utility.yul\":8540:8556   */\n      sub\n        /* \"#utility.yul\":8535:8538   */\n      dup10\n        /* \"#utility.yul\":8528:8557   */\n      mstore\n        /* \"#utility.yul\":8609:8615   */\n      dup2\n        /* \"#utility.yul\":8596:8616   */\n      calldataload\n        /* \"#utility.yul\":8695:8761   */\n      0xffffffffffffffffffffffffffffffffffffffffffffffffffffffffffffff41\n        /* \"#utility.yul\":8687:8692   */\n      dup9\n        /* \"#utility.yul\":8671:8685   */\n      calldatasize\n        /* \"#utility.yul\":8667:8693   */\n      sub\n        /* \"#utility.yul\":8663:8762   */\n      add\n        /* \"#utility.yul\":8643:8661   */\n      dup2\n        /* \"#utility.yul\":8639:8763   */\n      slt\n        /* \"#utility.yul\":8629:8781   */\n      tag_472\n      jumpi\n        /* \"#utility.yul\":8777:8778   */\n      0x00\n        /* \"#utility.yul\":8774:8775   */\n      dup1\n        /* \"#utility.yul\":8767:8779   */\n      revert\n        /* \"#utility.yul\":8629:8781   */\n    tag_472:\n        /* \"#utility.yul\":8809:8839   */\n      dup8\n      add\n        /* \"#utility.yul\":8862:8866   */\n      0xc0\n        /* \"#utility.yul\":8906:8930   */\n      tag_473\n        /* \"#utility.yul\":8809:8839   */\n      dup3\n        /* \"#utility.yul\":8906:8930   */\n      tag_401\n      jump\t// in\n    tag_473:\n        /* \"#utility.yul\":8899:8931   */\n      iszero\n        /* \"#utility.yul\":8892:8932   */\n      iszero\n        /* \"#utility.yul\":8886:8890   */\n      dup7\n        /* \"#utility.yul\":8879:8933   */\n      mstore\n        /* \"#utility.yul\":8982:9015   */\n      tag_474\n        /* \"#utility.yul\":9011:9013   */\n      dup8\n        /* \"#utility.yul\":9002:9009   */\n      dup4\n        /* \"#utility.yul\":8998:9014   */\n      add\n        /* \"#utility.yul\":8982:9015   */\n      tag_401\n      jump\t// in\n    tag_474:\n        /* \"#utility.yul\":8975:9016   */\n      iszero\n        /* \"#utility.yul\":8968:9017   */\n      iszero\n        /* \"#utility.yul\":8953:8966   */\n      dup7\n      dup9\n      add\n        /* \"#utility.yul\":8946:9018   */\n      mstore\n        /* \"#utility.yul\":9041:9045   */\n      0x40\n        /* \"#utility.yul\":9093:9109   */\n      dup3\n      dup2\n      add\n        /* \"#utility.yul\":9080:9110   */\n      calldataload\n        /* \"#utility.yul\":9065:9078   */\n      swap1\n      dup8\n      add\n        /* \"#utility.yul\":9058:9111   */\n      mstore\n        /* \"#utility.yul\":9134:9138   */\n      0x60\n        /* \"#utility.yul\":9215:9257   */\n      0xffffffffffffffffffffffffffffffffffffffff\n        /* \"#utility.yul\":9177:9213   */\n      tag_475\n        /* \"#utility.yul\":9196:9212   */\n      dup3\n      dup6\n      add\n        /* \"#utility.yul\":9177:9213   */\n      tag_402\n      jump\t// in\n    tag_475:\n        /* \"#utility.yul\":9173:9258   */\n      and\n        /* \"#utility.yul\":9158:9171   */\n      swap1\n      dup8\n      add\n        /* \"#utility.yul\":9151:9259   */\n      mstore\n        /* \"#utility.yul\":9282:9286   */\n      0x80\n        /* \"#utility.yul\":9334:9350   */\n      dup3\n      dup2\n      add\n        /* \"#utility.yul\":9321:9351   */\n      calldataload\n        /* \"#utility.yul\":9306:9319   */\n      swap1\n      dup8\n      add\n        /* \"#utility.yul\":9299:9352   */\n      mstore\n        /* \"#utility.yul\":9375:9379   */\n      0xa0\n        /* \"#utility.yul\":9433:9449   */\n      dup1\n      dup4\n      add\n        /* \"#utility.yul\":9420:9450   */\n      calldataload\n        /* \"#utility.yul\":9507:9521   */\n      calldatasize\n        /* \"#utility.yul\":9503:9531   */\n      dup5\n      swap1\n      sub\n        /* \"#utility.yul\":9533:9599   */\n      0xffffffffffffffffffffffffffffffffffffffffffffffffffffffffffffffe1\n        /* \"#utility.yul\":9499:9600   */\n      add\n        /* \"#utility.yul\":9473:9601   */\n      dup2\n      slt\n        /* \"#utility.yul\":9463:9619   */\n      tag_476\n      jumpi\n        /* \"#utility.yul\":9615:9616   */\n      0x00\n        /* \"#utility.yul\":9612:9613   */\n      dup1\n        /* \"#utility.yul\":9605:9617   */\n      revert\n        /* \"#utility.yul\":9463:9619   */\n    tag_476:\n        /* \"#utility.yul\":9647:9681   */\n      swap1\n      swap3\n      add\n        /* \"#utility.yul\":9759:9775   */\n      dup8\n      dup2\n      add\n      swap3\n      swap1\n        /* \"#utility.yul\":9710:9731   */\n      calldataload\n        /* \"#utility.yul\":9804:9822   */\n      0xffffffffffffffff\n        /* \"#utility.yul\":9791:9823   */\n      dup2\n      gt\n        /* \"#utility.yul\":9788:9840   */\n      iszero\n      tag_477\n      jumpi\n        /* \"#utility.yul\":9836:9837   */\n      0x00\n        /* \"#utility.yul\":9833:9834   */\n      dup1\n        /* \"#utility.yul\":9826:9838   */\n      revert\n        /* \"#utility.yul\":9788:9840   */\n    tag_477:\n        /* \"#utility.yul\":9889:9897   */\n      dup1\n        /* \"#utility.yul\":9873:9887   */\n      calldatasize\n        /* \"#utility.yul\":9869:9898   */\n      sub\n        /* \"#utility.yul\":9860:9867   */\n      dup5\n        /* \"#utility.yul\":9856:9899   */\n      sgt\n        /* \"#utility.yul\":9853:9916   */\n      iszero\n      tag_478\n      jumpi\n        /* \"#utility.yul\":9912:9913   */\n      0x00\n        /* \"#utility.yul\":9909:9910   */\n      dup1\n        /* \"#utility.yul\":9902:9914   */\n      revert\n        /* \"#utility.yul\":9853:9916   */\n    tag_478:\n        /* \"#utility.yul\":9951:9953   */\n      dup3\n        /* \"#utility.yul\":9946:9948   */\n      dup3\n        /* \"#utility.yul\":9940:9944   */\n      dup10\n        /* \"#utility.yul\":9936:9949   */\n      add\n        /* \"#utility.yul\":9929:9954   */\n      mstore\n        /* \"#utility.yul\":9975:10034   */\n      tag_479\n        /* \"#utility.yul\":10030:10032   */\n      dup4\n        /* \"#utility.yul\":10024:10028   */\n      dup10\n        /* \"#utility.yul\":10020:10033   */\n      add\n        /* \"#utility.yul\":10010:10018   */\n      dup3\n        /* \"#utility.yul\":10001:10008   */\n      dup7\n        /* \"#utility.yul\":9975:10034   */\n      tag_403\n      jump\t// in\n    tag_479:\n        /* \"#utility.yul\":10092:10104   */\n      swap13\n      dup10\n      add\n      swap13\n        /* \"#utility.yul\":9967:10034   */\n      swap8\n      pop\n      pop\n      pop\n        /* \"#utility.yul\":10057:10072   */\n      swap3\n      dup7\n      add\n      swap3\n      pop\n      pop\n        /* \"#utility.yul\":8501:8502   */\n      0x01\n        /* \"#utility.yul\":8494:8503   */\n      add\n        /* \"#utility.yul\":8465:10114   */\n      jump(tag_469)\n    tag_471:\n      pop\n        /* \"#utility.yul\":10130:10134   */\n      swap2\n      swap8\n        /* \"#utility.yul\":8112:10140   */\n      swap7\n      pop\n      pop\n      pop\n      pop\n      pop\n      pop\n      pop\n      jump\t// out\n        /* \"#utility.yul\":10145:10739   */\n    tag_101:\n        /* \"#utility.yul\":10495:10497   */\n      0x40\n        /* \"#utility.yul\":10484:10493   */\n      dup2\n        /* \"#utility.yul\":10477:10498   */\n      mstore\n        /* \"#utility.yul\":10534:10535   */\n      0x05\n        /* \"#utility.yul\":10529:10531   */\n      0x40\n        /* \"#utility.yul\":10518:10527   */\n      dup3\n        /* \"#utility.yul\":10514:10532   */\n      add\n        /* \"#utility.yul\":10507:10536   */\n      mstore\n        /* \"#utility.yul\":10572:10579   */\n      0x73656c663a000000000000000000000000000000000000000000000000000000\n        /* \"#utility.yul\":10567:10569   */\n      0x60\n        /* \"#utility.yul\":10556:10565   */\n      dup3\n        /* \"#utility.yul\":10552:10570   */\n      add\n        /* \"#utility.yul\":10545:10580   */\n      mstore\n        /* \"#utility.yul\":10618:10621   */\n      0x80\n        /* \"#utility.yul\":10611:10615   */\n      0x20\n        /* \"#utility.yul\":10600:10609   */\n      dup3\n        /* \"#utility.yul\":10596:10616   */\n      add\n        /* \"#utility.yul\":10589:10622   */\n      mstore\n        /* \"#utility.yul\":10458:10462   */\n      0x00\n        /* \"#utility.yul\":10639:10733   */\n      tag_86\n        /* \"#utility.yul\":10728:10731   */\n      0x80\n        /* \"#utility.yul\":10717:10726   */\n      dup4\n        /* \"#utility.yul\":10713:10732   */\n      add\n        /* \"#utility.yul\":10705:10711   */\n      dup5\n        /* \"#utility.yul\":10697:10703   */\n      dup7\n        /* \"#utility.yul\":10639:10733   */\n      tag_404\n      jump\t// in\n        /* \"#utility.yul\":10744:11339   */\n    tag_108:\n        /* \"#utility.yul\":11094:11096   */\n      0x40\n        /* \"#utility.yul\":11083:11092   */\n      dup2\n        /* \"#utility.yul\":11076:11097   */\n      mstore\n        /* \"#utility.yul\":11133:11134   */\n      0x06\n        /* \"#utility.yul\":11128:11130   */\n      0x40\n        /* \"#utility.yul\":11117:11126   */\n      dup3\n        /* \"#utility.yul\":11113:11131   */\n      add\n        /* \"#utility.yul\":11106:11135   */\n      mstore\n        /* \"#utility.yul\":11171:11179   */\n      0x67756573743a0000000000000000000000000000000000000000000000000000\n        /* \"#utility.yul\":11166:11168   */\n      0x60\n        /* \"#utility.yul\":11155:11164   */\n      dup3\n        /* \"#utility.yul\":11151:11169   */\n      add\n        /* \"#utility.yul\":11144:11180   */\n      mstore\n        /* \"#utility.yul\":11218:11221   */\n      0x80\n        /* \"#utility.yul\":11211:11215   */\n      0x20\n        /* \"#utility.yul\":11200:11209   */\n      dup3\n        /* \"#utility.yul\":11196:11216   */\n      add\n        /* \"#utility.yul\":11189:11222   */\n      mstore\n        /* \"#utility.yul\":11057:11061   */\n      0x00\n        /* \"#utility.yul\":11239:11333   */\n      tag_86\n        /* \"#utility.yul\":11328:11331   */\n      0x80\n        /* \"#utility.yul\":11317:11326   */\n      dup4\n        /* \"#utility.yul\":11313:11332   */\n      add\n        /* \"#utility.yul\":11305:11311   */\n      dup5\n        /* \"#utility.yul\":11297:11303   */\n      dup7\n        /* \"#utility.yul\":11239:11333   */\n      tag_404\n      jump\t// in\n        /* \"#utility.yul\":11344:11528   */\n    tag_113:\n        /* \"#utility.yul\":11396:11473   */\n      0x4e487b7100000000000000000000000000000000000000000000000000000000\n        /* \"#utility.yul\":11393:11394   */\n      0x00\n        /* \"#utility.yul\":11386:11474   */\n      mstore\n        /* \"#utility.yul\":11493:11497   */\n      0x32\n        /* \"#utility.yul\":11490:11491   */\n      0x04\n        /* \"#utility.yul\":11483:11498   */\n      mstore\n        /* \"#utility.yul\":11517:11521   */\n      0x24\n        /* \"#utility.yul\":11514:11515   */\n      0x00\n        /* \"#utility.yul\":11507:11522   */\n      revert\n        /* \"#utility.yul\":11786:12267   */\n    tag_405:\n        /* \"#utility.yul\":11827:11830   */\n      0x00\n        /* \"#utility.yul\":11865:11870   */\n      dup2\n        /* \"#utility.yul\":11859:11871   */\n      mload\n        /* \"#utility.yul\":11892:11898   */\n      dup1\n        /* \"#utility.yul\":11887:11890   */\n      dup5\n        /* \"#utility.yul\":11880:11899   */\n      mstore\n        /* \"#utility.yul\":11917:11918   */\n      0x00\n        /* \"#utility.yul\":11927:12089   */\n    tag_487:\n        /* \"#utility.yul\":11941:11947   */\n      dup2\n        /* \"#utility.yul\":11938:11939   */\n      dup2\n        /* \"#utility.yul\":11935:11948   */\n      lt\n        /* \"#utility.yul\":11927:12089   */\n      iszero\n      tag_489\n      jumpi\n        /* \"#utility.yul\":12003:12007   */\n      0x20\n        /* \"#utility.yul\":12059:12072   */\n      dup2\n      dup6\n      add\n        /* \"#utility.yul\":12055:12077   */\n      dup2\n      add\n        /* \"#utility.yul\":12049:12078   */\n      mload\n        /* \"#utility.yul\":12031:12042   */\n      dup7\n      dup4\n      add\n        /* \"#utility.yul\":12027:12047   */\n      dup3\n      add\n        /* \"#utility.yul\":12020:12079   */\n      mstore\n        /* \"#utility.yul\":11956:11968   */\n      add\n        /* \"#utility.yul\":11927:12089   */\n      jump(tag_487)\n    tag_489:\n        /* \"#utility.yul\":11931:11934   */\n      pop\n        /* \"#utility.yul\":12134:12135   */\n      0x00\n        /* \"#utility.yul\":12127:12131   */\n      0x20\n        /* \"#utility.yul\":12118:12124   */\n      dup3\n        /* \"#utility.yul\":12113:12116   */\n      dup7\n        /* \"#utility.yul\":12109:12125   */\n      add\n        /* \"#utility.yul\":12105:12132   */\n      add\n        /* \"#utility.yul\":12098:12136   */\n      mstore\n        /* \"#utility.yul\":12256:12260   */\n      0x20\n        /* \"#utility.yul\":12186:12252   */\n      0xffffffffffffffffffffffffffffffffffffffffffffffffffffffffffffffe0\n        /* \"#utility.yul\":12181:12183   */\n      0x1f\n        /* \"#utility.yul\":12173:12179   */\n      dup4\n        /* \"#utility.yul\":12169:12184   */\n      add\n        /* \"#utility.yul\":12165:12253   */\n      and\n        /* \"#utility.yul\":12160:12163   */\n      dup6\n        /* \"#utility.yul\":12156:12254   */\n      add\n        /* \"#utility.yul\":12152:12261   */\n      add\n        /* \"#utility.yul\":12145:12261   */\n      swap2\n      pop\n      pop\n        /* \"#utility.yul\":11786:12267   */\n      swap3\n      swap2\n      pop\n      pop\n      jump\t// out\n        /* \"#utility.yul\":12272:12489   */\n    tag_140:\n        /* \"#utility.yul\":12419:12421   */\n      0x20\n        /* \"#utility.yul\":12408:12417   */\n      dup2\n        /* \"#utility.yul\":12401:12422   */\n      mstore\n        /* \"#utility.yul\":12382:12386   */\n      0x00\n        /* \"#utility.yul\":12439:12483   */\n      tag_82\n        /* \"#utility.yul\":12479:12481   */\n      0x20\n        /* \"#utility.yul\":12468:12477   */\n      dup4\n        /* \"#utility.yul\":12464:12482   */\n      add\n        /* \"#utility.yul\":12456:12462   */\n      dup5\n        /* \"#utility.yul\":12439:12483   */\n      tag_405\n      jump\t// in\n        /* \"#utility.yul\":13090:13477   */\n    tag_164:\n        /* \"#utility.yul\":13187:13191   */\n      0x00\n        /* \"#utility.yul\":13245:13256   */\n      dup3\n        /* \"#utility.yul\":13232:13257   */\n      calldataload\n        /* \"#utility.yul\":13335:13401   */\n      0xffffffffffffffffffffffffffffffffffffffffffffffffffffffffffffff41\n        /* \"#utility.yul\":13324:13332   */\n      dup4\n        /* \"#utility.yul\":13308:13322   */\n      calldatasize\n        /* \"#utility.yul\":13304:13333   */\n      sub\n        /* \"#utility.yul\":13300:13402   */\n      add\n        /* \"#utility.yul\":13280:13298   */\n      dup2\n        /* \"#utility.yul\":13276:13403   */\n      slt\n        /* \"#utility.yul\":13266:13421   */\n      tag_494\n      jumpi\n        /* \"#utility.yul\":13417:13418   */\n      0x00\n        /* \"#utility.yul\":13414:13415   */\n      dup1\n        /* \"#utility.yul\":13407:13419   */\n      revert\n        /* \"#utility.yul\":13266:13421   */\n    tag_494:\n        /* \"#utility.yul\":13438:13471   */\n      swap2\n      swap1\n      swap2\n      add\n      swap3\n        /* \"#utility.yul\":13090:13477   */\n      swap2\n      pop\n      pop\n      jump\t// out\n        /* \"#utility.yul\":13482:13662   */\n    tag_166:\n        /* \"#utility.yul\":13538:13544   */\n      0x00\n        /* \"#utility.yul\":13591:13593   */\n      0x20\n        /* \"#utility.yul\":13579:13588   */\n      dup3\n        /* \"#utility.yul\":13570:13577   */\n      dup5\n        /* \"#utility.yul\":13566:13589   */\n      sub\n        /* \"#utility.yul\":13562:13594   */\n      slt\n        /* \"#utility.yul\":13559:13611   */\n      iszero\n      tag_496\n      jumpi\n        /* \"#utility.yul\":13607:13608   */\n      0x00\n        /* \"#utility.yul\":13604:13605   */\n      dup1\n        /* \"#utility.yul\":13597:13609   */\n      revert\n        /* \"#utility.yul\":13559:13611   */\n    tag_496:\n        /* \"#utility.yul\":13630:13656   */\n      tag_82\n        /* \"#utility.yul\":13646:13655   */\n      dup3\n        /* \"#utility.yul\":13630:13656   */\n      tag_401\n      jump\t// in\n        /* \"#utility.yul\":13991:14177   */\n    tag_174:\n        /* \"#utility.yul\":14050:14056   */\n      0x00\n        /* \"#utility.yul\":14103:14105   */\n      0x20\n        /* \"#utility.yul\":14091:14100   */\n      dup3\n        /* \"#utility.yul\":14082:14089   */\n      dup5\n        /* \"#utility.yul\":14078:14101   */\n      sub\n        /* \"#utility.yul\":14074:14106   */\n      slt\n        /* \"#utility.yul\":14071:14123   */\n      iszero\n      tag_500\n      jumpi\n        /* \"#utility.yul\":14119:14120   */\n      0x00\n        /* \"#utility.yul\":14116:14117   */\n      dup1\n        /* \"#utility.yul\":14109:14121   */\n      revert\n        /* \"#utility.yul\":14071:14123   */\n    tag_500:\n        /* \"#utility.yul\":14142:14171   */\n      tag_82\n        /* \"#utility.yul\":14161:14170   */\n      dup3\n        /* \"#utility.yul\":14142:14171   */\n      tag_402\n      jump\t// in\n        /* \"#utility.yul\":14182:14762   */\n    tag_178:\n        /* \"#utility.yul\":14259:14263   */\n      0x00\n        /* \"#utility.yul\":14265:14271   */\n      dup1\n        /* \"#utility.yul\":14325:14336   */\n      dup4\n        /* \"#utility.yul\":14312:14337   */\n      calldataload\n        /* \"#utility.yul\":14415:14481   */\n      0xffffffffffffffffffffffffffffffffffffffffffffffffffffffffffffffe1\n        /* \"#utility.yul\":14404:14412   */\n      dup5\n        /* \"#utility.yul\":14388:14402   */\n      calldatasize\n        /* \"#utility.yul\":14384:14413   */\n      sub\n        /* \"#utility.yul\":14380:14482   */\n      add\n        /* \"#utility.yul\":14360:14378   */\n      dup2\n        /* \"#utility.yul\":14356:14483   */\n      slt\n        /* \"#utility.yul\":14346:14501   */\n      tag_503\n      jumpi\n        /* \"#utility.yul\":14497:14498   */\n      0x00\n        /* \"#utility.yul\":14494:14495   */\n      dup1\n        /* \"#utility.yul\":14487:14499   */\n      revert\n        /* \"#utility.yul\":14346:14501   */\n    tag_503:\n        /* \"#utility.yul\":14524:14557   */\n      dup4\n      add\n        /* \"#utility.yul\":14576:14596   */\n      dup1\n      calldataload\n      swap2\n      pop\n        /* \"#utility.yul\":14619:14637   */\n      0xffffffffffffffff\n        /* \"#utility.yul\":14608:14638   */\n      dup3\n      gt\n        /* \"#utility.yul\":14605:14655   */\n      iszero\n      tag_504\n      jumpi\n        /* \"#utility.yul\":14651:14652   */\n      0x00\n        /* \"#utility.yul\":14648:14649   */\n      dup1\n        /* \"#utility.yul\":14641:14653   */\n      revert\n        /* \"#utility.yul\":14605:14655   */\n    tag_504:\n        /* \"#utility.yul\":14684:14688   */\n      0x20\n        /* \"#utility.yul\":14672:14689   */\n      add\n      swap2\n      pop\n        /* \"#utility.yul\":14715:14729   */\n      calldatasize\n        /* \"#utility.yul\":14711:14738   */\n      dup2\n      swap1\n      sub\n        /* \"#utility.yul\":14701:14739   */\n      dup3\n      sgt\n        /* \"#utility.yul\":14698:14756   */\n      iszero\n      tag_417\n      jumpi\n        /* \"#utility.yul\":14752:14753   */\n      0x00\n        /* \"#utility.yul\":14749:14750   */\n      dup1\n        /* \"#utility.yul\":14742:14754   */\n      revert\n        /* \"#utility.yul\":14767:14951   */\n    tag_406:\n        /* \"#utility.yul\":14819:14896   */\n      0x4e487b7100000000000000000000000000000000000000000000000000000000\n        /* \"#utility.yul\":14816:14817   */\n      0x00\n        /* \"#utility.yul\":14809:14897   */\n      mstore\n        /* \"#utility.yul\":14916:14920   */\n      0x11\n        /* \"#utility.yul\":14913:14914   */\n      0x04\n        /* \"#utility.yul\":14906:14921   */\n      mstore\n        /* \"#utility.yul\":14940:14944   */\n      0x24\n        /* \"#utility.yul\":14937:14938   */\n      0x00\n        /* \"#utility.yul\":14930:14945   */\n      revert\n        /* \"#utility.yul\":14956:15151   */\n    tag_189:\n        /* \"#utility.yul\":14995:14998   */\n      0x00\n        /* \"#utility.yul\":15026:15092   */\n      0xffffffffffffffffffffffffffffffffffffffffffffffffffffffffffffffff\n        /* \"#utility.yul\":15019:15024   */\n      dup3\n        /* \"#utility.yul\":15016:15093   */\n      sub\n        /* \"#utility.yul\":15013:15116   */\n      tag_509\n      jumpi\n        /* \"#utility.yul\":15096:15114   */\n      tag_509\n      tag_406\n      jump\t// in\n    tag_509:\n      pop\n        /* \"#utility.yul\":15143:15144   */\n      0x01\n        /* \"#utility.yul\":15132:15145   */\n      add\n      swap1\n        /* \"#utility.yul\":14956:15151   */\n      jump\t// out\n        /* \"#utility.yul\":15156:15487   */\n    tag_193:\n        /* \"#utility.yul\":15261:15270   */\n      0x00\n        /* \"#utility.yul\":15272:15281   */\n      dup1\n        /* \"#utility.yul\":15314:15322   */\n      dup6\n        /* \"#utility.yul\":15302:15312   */\n      dup6\n        /* \"#utility.yul\":15299:15323   */\n      gt\n        /* \"#utility.yul\":15296:15340   */\n      iszero\n      tag_511\n      jumpi\n        /* \"#utility.yul\":15336:15337   */\n      0x00\n        /* \"#utility.yul\":15333:15334   */\n      dup1\n        /* \"#utility.yul\":15326:15338   */\n      revert\n        /* \"#utility.yul\":15296:15340   */\n    tag_511:\n        /* \"#utility.yul\":15365:15371   */\n      dup4\n        /* \"#utility.yul\":15355:15363   */\n      dup7\n        /* \"#utility.yul\":15352:15372   */\n      gt\n        /* \"#utility.yul\":15349:15389   */\n      iszero\n      tag_512\n      jumpi\n        /* \"#utility.yul\":15385:15386   */\n      0x00\n        /* \"#utility.yul\":15382:15383   */\n      dup1\n        /* \"#utility.yul\":15375:15387   */\n      revert\n        /* \"#utility.yul\":15349:15389   */\n    tag_512:\n      pop\n      pop\n        /* \"#utility.yul\":15411:15434   */\n      dup3\n      add\n      swap4\n        /* \"#utility.yul\":15456:15481   */\n      swap2\n      swap1\n      swap3\n      sub\n      swap2\n      pop\n        /* \"#utility.yul\":15156:15487   */\n      jump\t// out\n        /* \"#utility.yul\":15492:15617   */\n    tag_211:\n        /* \"#utility.yul\":15557:15566   */\n      dup1\n      dup3\n      add\n        /* \"#utility.yul\":15578:15588   */\n      dup1\n      dup3\n      gt\n        /* \"#utility.yul\":15575:15611   */\n      iszero\n      tag_80\n      jumpi\n        /* \"#utility.yul\":15591:15609   */\n      tag_80\n      tag_406\n      jump\t// in\n        /* \"#utility.yul\":15622:16014   */\n    tag_217:\n        /* \"#utility.yul\":15841:15843   */\n      0x60\n        /* \"#utility.yul\":15830:15839   */\n      dup2\n        /* \"#utility.yul\":15823:15844   */\n      mstore\n        /* \"#utility.yul\":15804:15808   */\n      0x00\n        /* \"#utility.yul\":15861:15922   */\n      tag_517\n        /* \"#utility.yul\":15918:15920   */\n      0x60\n        /* \"#utility.yul\":15907:15916   */\n      dup4\n        /* \"#utility.yul\":15903:15921   */\n      add\n        /* \"#utility.yul\":15895:15901   */\n      dup7\n        /* \"#utility.yul\":15887:15893   */\n      dup9\n        /* \"#utility.yul\":15861:15922   */\n      tag_403\n      jump\t// in\n    tag_517:\n        /* \"#utility.yul\":15953:15955   */\n      0x20\n        /* \"#utility.yul\":15938:15956   */\n      dup4\n      add\n        /* \"#utility.yul\":15931:15965   */\n      swap5\n      swap1\n      swap5\n      mstore\n      pop\n        /* \"#utility.yul\":15996:15998   */\n      0x40\n        /* \"#utility.yul\":15981:15999   */\n      add\n        /* \"#utility.yul\":15974:16008   */\n      mstore\n        /* \"#utility.yul\":15853:15922   */\n      swap3\n        /* \"#utility.yul\":15622:16014   */\n      swap2\n      pop\n      pop\n      jump\t// out\n        /* \"#utility.yul\":16525:16813   */\n    tag_246:\n        /* \"#utility.yul\":16700:16706   */\n      dup3\n        /* \"#utility.yul\":16689:16698   */\n      dup2\n        /* \"#utility.yul\":16682:16707   */\n      mstore\n        /* \"#utility.yul\":16743:16745   */\n      0x40\n        /* \"#utility.yul\":16738:16740   */\n      0x20\n        /* \"#utility.yul\":16727:16736   */\n      dup3\n        /* \"#utility.yul\":16723:16741   */\n      add\n        /* \"#utility.yul\":16716:16746   */\n      mstore\n        /* \"#utility.yul\":16663:16667   */\n      0x00\n        /* \"#utility.yul\":16763:16807   */\n      tag_86\n        /* \"#utility.yul\":16803:16805   */\n      0x40\n        /* \"#utility.yul\":16792:16801   */\n      dup4\n        /* \"#utility.yul\":16788:16806   */\n      add\n        /* \"#utility.yul\":16780:16786   */\n      dup5\n        /* \"#utility.yul\":16763:16807   */\n      tag_405\n      jump\t// in\n        /* \"#utility.yul\":16818:17259   */\n    tag_278:\n        /* \"#utility.yul\":17037:17043   */\n      dup5\n        /* \"#utility.yul\":17026:17035   */\n      dup2\n        /* \"#utility.yul\":17019:17044   */\n      mstore\n        /* \"#utility.yul\":17092:17134   */\n      0xffffffffffffffffffffffffffffffffffffffff\n        /* \"#utility.yul\":17084:17090   */\n      dup5\n        /* \"#utility.yul\":17080:17135   */\n      and\n        /* \"#utility.yul\":17075:17077   */\n      0x20\n        /* \"#utility.yul\":17064:17073   */\n      dup3\n        /* \"#utility.yul\":17060:17078   */\n      add\n        /* \"#utility.yul\":17053:17136   */\n      mstore\n        /* \"#utility.yul\":17172:17174   */\n      0x60\n        /* \"#utility.yul\":17167:17169   */\n      0x40\n        /* \"#utility.yul\":17156:17165   */\n      dup3\n        /* \"#utility.yul\":17152:17170   */\n      add\n        /* \"#utility.yul\":17145:17175   */\n      mstore\n        /* \"#utility.yul\":17000:17004   */\n      0x00\n        /* \"#utility.yul\":17192:17253   */\n      tag_523\n        /* \"#utility.yul\":17249:17251   */\n      0x60\n        /* \"#utility.yul\":17238:17247   */\n      dup4\n        /* \"#utility.yul\":17234:17252   */\n      add\n        /* \"#utility.yul\":17226:17232   */\n      dup5\n        /* \"#utility.yul\":17218:17224   */\n      dup7\n        /* \"#utility.yul\":17192:17253   */\n      tag_403\n      jump\t// in\n    tag_523:\n        /* \"#utility.yul\":17184:17253   */\n      swap7\n        /* \"#utility.yul\":16818:17259   */\n      swap6\n      pop\n      pop\n      pop\n      pop\n      pop\n      pop\n      jump\t// out\n        /* \"#utility.yul\":17264:17508   */\n    tag_333:\n        /* \"#utility.yul\":17421:17423   */\n      0x20\n        /* \"#utility.yul\":17410:17419   */\n      dup2\n        /* \"#utility.yul\":17403:17424   */\n      mstore\n        /* \"#utility.yul\":17384:17388   */\n      0x00\n        /* \"#utility.yul\":17441:17502   */\n      tag_86\n        /* \"#utility.yul\":17498:17500   */\n      0x20\n        /* \"#utility.yul\":17487:17496   */\n      dup4\n        /* \"#utility.yul\":17483:17501   */\n      add\n        /* \"#utility.yul\":17475:17481   */\n      dup5\n        /* \"#utility.yul\":17467:17473   */\n      dup7\n        /* \"#utility.yul\":17441:17502   */\n      tag_403\n      jump\t// in\n        /* \"#utility.yul\":17513:17641   */\n    tag_336:\n        /* \"#utility.yul\":17580:17589   */\n      dup2\n      dup2\n      sub\n        /* \"#utility.yul\":17601:17612   */\n      dup2\n      dup2\n      gt\n        /* \"#utility.yul\":17598:17635   */\n      iszero\n      tag_80\n      jumpi\n        /* \"#utility.yul\":17615:17633   */\n      tag_80\n      tag_406\n      jump\t// in\n        /* \"#utility.yul\":17646:17961   */\n    tag_344:\n        /* \"#utility.yul\":17831:17833   */\n      0x40\n        /* \"#utility.yul\":17820:17829   */\n      dup2\n        /* \"#utility.yul\":17813:17834   */\n      mstore\n        /* \"#utility.yul\":17794:17798   */\n      0x00\n        /* \"#utility.yul\":17851:17912   */\n      tag_530\n        /* \"#utility.yul\":17908:17910   */\n      0x40\n        /* \"#utility.yul\":17897:17906   */\n      dup4\n        /* \"#utility.yul\":17893:17911   */\n      add\n        /* \"#utility.yul\":17885:17891   */\n      dup6\n        /* \"#utility.yul\":17877:17883   */\n      dup8\n        /* \"#utility.yul\":17851:17912   */\n      tag_403\n      jump\t// in\n    tag_530:\n        /* \"#utility.yul\":17843:17912   */\n      swap1\n      pop\n        /* \"#utility.yul\":17948:17954   */\n      dup3\n        /* \"#utility.yul\":17943:17945   */\n      0x20\n        /* \"#utility.yul\":17932:17941   */\n      dup4\n        /* \"#utility.yul\":17928:17946   */\n      add\n        /* \"#utility.yul\":17921:17955   */\n      mstore\n        /* \"#utility.yul\":17646:17961   */\n      swap5\n      swap4\n      pop\n      pop\n      pop\n      pop\n      jump\t// out\n        /* \"#utility.yul\":17966:18290   */\n    tag_348:\n        /* \"#utility.yul\":18149:18151   */\n      0x40\n        /* \"#utility.yul\":18138:18147   */\n      dup2\n        /* \"#utility.yul\":18131:18152   */\n      mstore\n        /* \"#utility.yul\":18112:18116   */\n      0x00\n        /* \"#utility.yul\":18169:18230   */\n      tag_532\n        /* \"#utility.yul\":18226:18228   */\n      0x40\n        /* \"#utility.yul\":18215:18224   */\n      dup4\n        /* \"#utility.yul\":18211:18229   */\n      add\n        /* \"#utility.yul\":18203:18209   */\n      dup6\n        /* \"#utility.yul\":18195:18201   */\n      dup8\n        /* \"#utility.yul\":18169:18230   */\n      tag_403\n      jump\t// in\n    tag_532:\n        /* \"#utility.yul\":18161:18230   */\n      swap1\n      pop\n        /* \"#utility.yul\":18278:18282   */\n      0xff\n        /* \"#utility.yul\":18270:18276   */\n      dup4\n        /* \"#utility.yul\":18266:18283   */\n      and\n        /* \"#utility.yul\":18261:18263   */\n      0x20\n        /* \"#utility.yul\":18250:18259   */\n      dup4\n        /* \"#utility.yul\":18246:18264   */\n      add\n        /* \"#utility.yul\":18239:18284   */\n      mstore\n        /* \"#utility.yul\":17966:18290   */\n      swap5\n      swap4\n      pop\n      pop\n      pop\n      pop\n      jump\t// out\n        /* \"#utility.yul\":19083:19479   */\n    tag_363:\n        /* \"#utility.yul\":19290:19292   */\n      0x60\n        /* \"#utility.yul\":19279:19288   */\n      dup2\n        /* \"#utility.yul\":19272:19293   */\n      mstore\n        /* \"#utility.yul\":19253:19257   */\n      0x00\n        /* \"#utility.yul\":19310:19371   */\n      tag_536\n        /* \"#utility.yul\":19367:19369   */\n      0x60\n        /* \"#utility.yul\":19356:19365   */\n      dup4\n        /* \"#utility.yul\":19352:19370   */\n      add\n        /* \"#utility.yul\":19344:19350   */\n      dup7\n        /* \"#utility.yul\":19336:19342   */\n      dup9\n        /* \"#utility.yul\":19310:19371   */\n      tag_403\n      jump\t// in\n    tag_536:\n        /* \"#utility.yul\":19402:19404   */\n      0x20\n        /* \"#utility.yul\":19387:19405   */\n      dup4\n      add\n        /* \"#utility.yul\":19380:19414   */\n      swap5\n      swap1\n      swap5\n      mstore\n      pop\n        /* \"#utility.yul\":19457:19471   */\n      swap1\n      iszero\n        /* \"#utility.yul\":19450:19472   */\n      iszero\n        /* \"#utility.yul\":19445:19447   */\n      0x40\n        /* \"#utility.yul\":19430:19448   */\n      swap1\n      swap2\n      add\n        /* \"#utility.yul\":19423:19473   */\n      mstore\n        /* \"#utility.yul\":19302:19371   */\n      swap3\n        /* \"#utility.yul\":19083:19479   */\n      swap2\n      pop\n      pop\n      jump\t// out\n        /* \"#utility.yul\":19484:19805   */\n    tag_379:\n        /* \"#utility.yul\":19675:19681   */\n      dup4\n        /* \"#utility.yul\":19664:19673   */\n      dup2\n        /* \"#utility.yul\":19657:19682   */\n      mstore\n        /* \"#utility.yul\":19718:19720   */\n      0x40\n        /* \"#utility.yul\":19713:19715   */\n      0x20\n        /* \"#utility.yul\":19702:19711   */\n      dup3\n        /* \"#utility.yul\":19698:19716   */\n      add\n        /* \"#utility.yul\":19691:19721   */\n      mstore\n        /* \"#utility.yul\":19638:19642   */\n      0x00\n        /* \"#utility.yul\":19738:19799   */\n      tag_538\n        /* \"#utility.yul\":19795:19797   */\n      0x40\n        /* \"#utility.yul\":19784:19793   */\n      dup4\n        /* \"#utility.yul\":19780:19798   */\n      add\n        /* \"#utility.yul\":19772:19778   */\n      dup5\n        /* \"#utility.yul\":19764:19770   */\n      dup7\n        /* \"#utility.yul\":19738:19799   */\n      tag_403\n      jump\t// in\n    tag_538:\n        /* \"#utility.yul\":19730:19799   */\n      swap6\n        /* \"#utility.yul\":19484:19805   */\n      swap5\n      pop\n      pop\n      pop\n      pop\n      pop\n      jump\t// out\n        /* \"#utility.yul\":19810:20059   */\n    tag_383:\n        /* \"#utility.yul\":19879:19885   */\n      0x00\n        /* \"#utility.yul\":19932:19934   */\n      0x20\n        /* \"#utility.yul\":19920:19929   */\n      dup3\n        /* \"#utility.yul\":19911:19918   */\n      dup5\n        /* \"#utility.yul\":19907:19930   */\n      sub\n        /* \"#utility.yul\":19903:19935   */\n      slt\n        /* \"#utility.yul\":19900:19952   */\n      iszero\n      tag_540\n      jumpi\n        /* \"#utility.yul\":19948:19949   */\n      0x00\n        /* \"#utility.yul\":19945:19946   */\n      dup1\n        /* \"#utility.yul\":19938:19950   */\n      revert\n        /* \"#utility.yul\":19900:19952   */\n    tag_540:\n        /* \"#utility.yul\":19980:19989   */\n      dup2\n        /* \"#utility.yul\":19974:19990   */\n      mload\n        /* \"#utility.yul\":19999:20029   */\n      tag_82\n        /* \"#utility.yul\":20023:20028   */\n      dup2\n        /* \"#utility.yul\":19999:20029   */\n      tag_397\n      jump\t// in\n\n    auxdata: 0xa26469706673582212209bb95d18e97f278aa47e0c04c20d5a6af9bdb6d473c6d4051192cd96fc17866864736f6c63430008120033\n}\n",
				"bytecode": {
					"linkReferences": {},
					"object": "60a060405234801561001057600080fd5b50306080526080516121de61002d600039600050506121de6000f3fe6080604052600436106100bc5760003560e01c806361c2926c116100745780638c3f55631161004e5780638c3f55631461025357806390042baf14610273578063affed0e0146102ab57600080fd5b806361c2926c146101cb5780637a9a1628146101eb578063853c50681461020b57600080fd5b806320c13b0b116100a557806320c13b0b14610147578063295614261461016757806357c56d6b1461018957600080fd5b806301ffc9a7146100c15780631626ba7e146100f6575b600080fd5b3480156100cd57600080fd5b506100e16100dc366004611880565b6102c0565b60405190151581526020015b60405180910390f35b34801561010257600080fd5b506101166101113660046118e6565b6102d1565b6040517fffffffff0000000000000000000000000000000000000000000000000000000090911681526020016100ed565b34801561015357600080fd5b50610116610162366004611932565b61031e565b34801561017357600080fd5b5061018761018236600461199e565b610383565b005b34801561019557600080fd5b506101bd7f8713a7c4465f6fbee2b6e9d6646d1d9f83fec929edfc4baf661f3c865bdd04d181565b6040519081526020016100ed565b3480156101d757600080fd5b506101876101e63660046119fc565b6103d5565b3480156101f757600080fd5b50610187610206366004611a3e565b61041a565b34801561021757600080fd5b5061022b6102263660046118e6565b610447565b604080519586526020860194909452928401919091526060830152608082015260a0016100ed565b34801561025f57600080fd5b506101bd61026e36600461199e565b61060f565b610286610281366004611ae7565b61063b565b60405173ffffffffffffffffffffffffffffffffffffffff90911681526020016100ed565b3480156102b757600080fd5b506101bd610725565b60006102cb82610736565b92915050565b6000806102df858585610792565b509050801561031157507f1626ba7e000000000000000000000000000000000000000000000000000000009050610317565b50600090505b9392505050565b6000806103438686604051610334929190611bb6565b60405180910390208585610792565b509050801561037557507f20c13b0b00000000000000000000000000000000000000000000000000000000905061037b565b50600090505b949350505050565b3330146103c9576040517fe12588940000000000000000000000000000000000000000000000000000000081523360048201523060248201526044015b60405180910390fd5b6103d2816107ca565b50565b600061040883836040516020016103ed929190611d97565b604051602081830303815290604052805190602001206107fc565b9050610415818484610881565b505050565b600061043286866040516020016103ed929190611ddf565b905061043f818787610881565b505050505050565b6000806000806000808787600081811061046357610463611e27565b909101357fff000000000000000000000000000000000000000000000000000000000000001691508190506104b95761049b896107fc565b92506104a8838989610a0e565b929850909650945091506106049050565b7fff00000000000000000000000000000000000000000000000000000000000000818116016104f8576104eb896107fc565b92506104a8838989610a5f565b7ffe000000000000000000000000000000000000000000000000000000000000007fff0000000000000000000000000000000000000000000000000000000000000082160161054a576104eb89610a8b565b7ffd000000000000000000000000000000000000000000000000000000000000007fff000000000000000000000000000000000000000000000000000000000000008216016105ae5761059e898989610af8565b9550955095509550955050610604565b6040517f6085cd820000000000000000000000000000000000000000000000000000000081527fff00000000000000000000000000000000000000000000000000000000000000821660048201526024016103c0565b939792965093509350565b60006102cb7f8d0bf1fd623d628c741362c1289948e57b3e2905218c676d3e69abee36d6ae2e83610c75565b600033301461067e576040517fe12588940000000000000000000000000000000000000000000000000000000081523360048201523060248201526044016103c0565b81516020830134f0905073ffffffffffffffffffffffffffffffffffffffff81166106d757816040517f0d2571910000000000000000000000000000000000000000000000000000000081526004016103c09190611eba565b60405173ffffffffffffffffffffffffffffffffffffffff821681527fa506ad4e7f05eceba62a023c3219e5bd98a615f4fa87e2afb08a2da5cf62bf0c9060200160405180910390a1919050565b6000610731600061060f565b905090565b60007f6ffbd451000000000000000000000000000000000000000000000000000000007fffffffff0000000000000000000000000000000000000000000000000000000083160161078957506001919050565b6102cb82610cd3565b60008060008060006107a5888888610447565b509650919450925090508282108015906107bd575060015b9450505050935093915050565b6040517fa038794000000000000000000000000000000000000000000000000000000000815260040160405180910390fd5b6040517f190100000000000000000000000000000000000000000000000000000000000060208201524660228201527fffffffffffffffffffffffffffffffffffffffff0000000000000000000000003060601b166042820152605681018290526000906076015b604051602081830303815290604052805190602001209050919050565b8060005b81811015610a0757368484838181106108a0576108a0611e27565b90506020028101906108b29190611ecd565b90506108c16020820182611f0b565b156108fb576040517f230d1ccc000000000000000000000000000000000000000000000000000000008152600481018390526024016103c0565b6040810135805a101561094e5782815a6040517f2bb3e3ba0000000000000000000000000000000000000000000000000000000081526004810193909352602483019190915260448201526064016103c0565b60006109886109636080850160608601611f26565b608085013584156109745784610976565b5a5b61098360a0880188611f41565b610d2f565b905080156109cf57877f5c4eeb02dabf8976016ab414d617f9a162936dcace3cdef8c69ef6e262ad5ae7856040516109c291815260200190565b60405180910390a26109f1565b6109f16109e26040850160208601611f0b565b89866109ec610d4c565b610d6b565b50505080806109ff90611fd5565b915050610885565b5050505050565b6000808080610a2987610a24876006818b61200d565b610db9565b6000908152873560f01c6020818152604080842084526002909a013560e01c908190529890912090999198509695509350505050565b6000808080610a7a87610a75876001818b61200d565b610a0e565b935093509350935093509350935093565b6040517f190100000000000000000000000000000000000000000000000000000000000060208201526000602282018190527fffffffffffffffffffffffffffffffffffffffff0000000000000000000000003060601b1660428301526056820183905290607601610864565b6000808080806004600188013560e81c82610b138383612037565b9050610b258b61022683868d8f61200d565b939b5091995097509550935087871015610b7d57610b4581848b8d61200d565b89896040517fb006aba00000000000000000000000000000000000000000000000000000000081526004016103c0949392919061204a565b8092505b88831015610c675760038301928a013560e81c9150610ba08383612037565b90506000610bc2610bb08861124f565b8c8c879086926102269392919061200d565b939c50919a5098509091505088881015610c1a57610be282858c8e61200d565b8a8a6040517fb006aba00000000000000000000000000000000000000000000000000000000081526004016103c0949392919061204a565b848110610c5d576040517f37daf62b00000000000000000000000000000000000000000000000000000000815260048101829052602481018690526044016103c0565b9350915081610b81565b505050939792965093509350565b6000808383604051602001610c94929190918252602082015260400190565b604080517fffffffffffffffffffffffffffffffffffffffffffffffffffffffffffffffe0818403018152919052805160209091012054949350505050565b60007fe4a77bbc000000000000000000000000000000000000000000000000000000007fffffffff00000000000000000000000000000000000000000000000000000000831601610d2657506001919050565b6102cb82611283565b6000604051828482376000808483898b8af1979650505050505050565b60603d604051915060208201818101604052818352816000823e505090565b8315610d7957805160208201fd5b827fab46c69f7f32e1bf09b0725853da82a211e5402a0600296ab499a2fb5ea3b4198383604051610dab929190612071565b60405180910390a250505050565b60008060005b8381101561124657600181019085013560f81c7fffffffffffffffffffffffffffffffffffffffffffffffffffffffffffffffff8101610e6057601582019186013560f881901c9060581c73ffffffffffffffffffffffffffffffffffffffff81169074ff000000000000000000000000000000000000000016811785610e465780610e55565b60008681526020829052604090205b955050505050610dbf565b80610ef65760018201918681013560f81c906043016000610e8c8a610e8784888c8e61200d565b61136d565b60ff841697909701969194508491905060a083901b74ff00000000000000000000000000000000000000001673ffffffffffffffffffffffffffffffffffffffff82161786610edb5780610eea565b60008781526020829052604090205b96505050505050610dbf565b6002810361101e576000808784013560f881901c9060581c73ffffffffffffffffffffffffffffffffffffffff16601586019550909250905060008885013560e81c600386018162ffffff169150809650819250505060008186019050610f6f8b848c8c8a908692610f6a9392919061200d565b611630565b610fb7578a83610f8183898d8f61200d565b6040517f9a9462320000000000000000000000000000000000000000000000000000000081526004016103c0949392919061208a565b60ff8416979097019694508460a084901b74ff00000000000000000000000000000000000000001673ffffffffffffffffffffffffffffffffffffffff841617876110025780611011565b60008881526020829052604090205b9750505050505050610dbf565b60038103611051576020820191860135836110395780611048565b60008481526020829052604090205b93505050610dbf565b6004810361109d576003808301928781013560e81c919082010160008061107e8b610a2485898d8f61200d565b60009889526020526040909720969097019650909350610dbf92505050565b600681036111a55760008287013560f81c60018401935060ff16905060008784013560f01c60028501945061ffff16905060008885013560e81c600386018162ffffff16915080965081925050506000818601905060008061110b8d8d8d8b908792610a249392919061200d565b9398508893909250905084821061112157988501985b604080517f53657175656e6365206e657374656420636f6e6669673a0a0000000000000000602080830191909152603882018490526058820188905260788083018a90528351808403909101815260989092019092528051910120896111875780611196565b60008a81526020829052604090205b99505050505050505050610dbf565b600581036112115760208201918601358781036111e0577fffffffffffffffffffffffffffffffffffffffffffffffffffffffffffffffff94505b60006111eb82611817565b9050846111f85780611207565b60008581526020829052604090205b9450505050610dbf565b6040517fb2505f7c000000000000000000000000000000000000000000000000000000008152600481018290526024016103c0565b50935093915050565b7f8713a7c4465f6fbee2b6e9d6646d1d9f83fec929edfc4baf661f3c865bdd04d160009081526020829052604081206102cb565b60007fffffffff0000000000000000000000000000000000000000000000000000000082167fac6a444e00000000000000000000000000000000000000000000000000000000148061131657507fffffffff0000000000000000000000000000000000000000000000000000000082167f36e7817500000000000000000000000000000000000000000000000000000000145b1561132357506001919050565b7f01ffc9a7000000000000000000000000000000000000000000000000000000007fffffffff000000000000000000000000000000000000000000000000000000008316146102cb565b6000604282146113ad5782826040517f2ee17a3d0000000000000000000000000000000000000000000000000000000081526004016103c09291906120ca565b60006113c66113bd6001856120de565b85013560f81c90565b60ff169050604084013560f81c843560208601357f7fffffffffffffffffffffffffffffff5d576e7357a4501ddfe92f46681b20a081111561143a578686826040517fad4aac760000000000000000000000000000000000000000000000000000000081526004016103c0939291906120f1565b8260ff16601b1415801561145257508260ff16601c14155b1561148f578686846040517fe578897e0000000000000000000000000000000000000000000000000000000081526004016103c093929190612115565b600184036114fc576040805160008152602081018083528a905260ff851691810191909152606081018390526080810182905260019060a0015b6020604051602081039080840390855afa1580156114eb573d6000803e3d6000fd5b5050506020604051035194506115d4565b60028403611599576040517f19457468657265756d205369676e6564204d6573736167653a0a3332000000006020820152603c8101899052600190605c01604080517fffffffffffffffffffffffffffffffffffffffffffffffffffffffffffffffe08184030181528282528051602091820120600084529083018083525260ff861690820152606081018490526080810183905260a0016114c9565b86868560016040517f9dfba8520000000000000000000000000000000000000000000000000000000081526004016103c0949392919061213c565b73ffffffffffffffffffffffffffffffffffffffff85166116255786866040517f6c1719d20000000000000000000000000000000000000000000000000000000081526004016103c09291906120ca565b505050509392505050565b600081810361166b576040517fac241e1100000000000000000000000000000000000000000000000000000000815260040160405180910390fd5b6000838361167a6001826120de565b81811061168957611689611e27565b919091013560f81c91505060018114806116a35750600281145b156116e8578473ffffffffffffffffffffffffffffffffffffffff166116ca87868661136d565b73ffffffffffffffffffffffffffffffffffffffff1614915061180e565b600381036117d35773ffffffffffffffffffffffffffffffffffffffff8516631626ba7e878660008761171c6001826120de565b926117299392919061200d565b6040518463ffffffff1660e01b815260040161174793929190612168565b602060405180830381865afa158015611764573d6000803e3d6000fd5b505050506040513d601f19601f82011682018060405250810190611788919061218b565b7fffffffff00000000000000000000000000000000000000000000000000000000167f1626ba7e0000000000000000000000000000000000000000000000000000000014915061180e565b83838260006040517f9dfba8520000000000000000000000000000000000000000000000000000000081526004016103c0949392919061213c565b50949350505050565b6040517f53657175656e636520737461746963206469676573743a0a0000000000000000602082015260388101829052600090605801610864565b7fffffffff00000000000000000000000000000000000000000000000000000000811681146103d257600080fd5b60006020828403121561189257600080fd5b813561031781611852565b60008083601f8401126118af57600080fd5b50813567ffffffffffffffff8111156118c757600080fd5b6020830191508360208285010111156118df57600080fd5b9250929050565b6000806000604084860312156118fb57600080fd5b83359250602084013567ffffffffffffffff81111561191957600080fd5b6119258682870161189d565b9497909650939450505050565b6000806000806040858703121561194857600080fd5b843567ffffffffffffffff8082111561196057600080fd5b61196c8883890161189d565b9096509450602087013591508082111561198557600080fd5b506119928782880161189d565b95989497509550505050565b6000602082840312156119b057600080fd5b5035919050565b60008083601f8401126119c957600080fd5b50813567ffffffffffffffff8111156119e157600080fd5b6020830191508360208260051b85010111156118df57600080fd5b60008060208385031215611a0f57600080fd5b823567ffffffffffffffff811115611a2657600080fd5b611a32858286016119b7565b90969095509350505050565b600080600080600060608688031215611a5657600080fd5b853567ffffffffffffffff80821115611a6e57600080fd5b611a7a89838a016119b7565b9097509550602088013594506040880135915080821115611a9a57600080fd5b50611aa78882890161189d565b969995985093965092949392505050565b7f4e487b7100000000000000000000000000000000000000000000000000000000600052604160045260246000fd5b600060208284031215611af957600080fd5b813567ffffffffffffffff80821115611b1157600080fd5b818401915084601f830112611b2557600080fd5b813581811115611b3757611b37611ab8565b604051601f82017fffffffffffffffffffffffffffffffffffffffffffffffffffffffffffffffe0908116603f01168101908382118183101715611b7d57611b7d611ab8565b81604052828152876020848701011115611b9657600080fd5b826020860160208301376000928101602001929092525095945050505050565b8183823760009101908152919050565b80358015158114611bd657600080fd5b919050565b803573ffffffffffffffffffffffffffffffffffffffff81168114611bd657600080fd5b8183528181602085013750600060208284010152600060207fffffffffffffffffffffffffffffffffffffffffffffffffffffffffffffffe0601f840116840101905092915050565b81835260006020808501808196508560051b810191508460005b87811015611d8a57828403895281357fffffffffffffffffffffffffffffffffffffffffffffffffffffffffffffff41883603018112611ca157600080fd5b870160c0611cae82611bc6565b15158652611cbd878301611bc6565b15158688015260408281013590870152606073ffffffffffffffffffffffffffffffffffffffff611cef828501611bdb565b16908701526080828101359087015260a080830135368490037fffffffffffffffffffffffffffffffffffffffffffffffffffffffffffffffe1018112611d3557600080fd5b90920187810192903567ffffffffffffffff811115611d5357600080fd5b803603841315611d6257600080fd5b8282890152611d748389018286611bff565b9c89019c97505050928601925050600101611c62565b5091979650505050505050565b60408152600560408201527f73656c663a000000000000000000000000000000000000000000000000000000606082015260806020820152600061037b608083018486611c48565b60408152600660408201527f67756573743a0000000000000000000000000000000000000000000000000000606082015260806020820152600061037b608083018486611c48565b7f4e487b7100000000000000000000000000000000000000000000000000000000600052603260045260246000fd5b6000815180845260005b81811015611e7c57602081850181015186830182015201611e60565b5060006020828601015260207fffffffffffffffffffffffffffffffffffffffffffffffffffffffffffffffe0601f83011685010191505092915050565b6020815260006103176020830184611e56565b600082357fffffffffffffffffffffffffffffffffffffffffffffffffffffffffffffff41833603018112611f0157600080fd5b9190910192915050565b600060208284031215611f1d57600080fd5b61031782611bc6565b600060208284031215611f3857600080fd5b61031782611bdb565b60008083357fffffffffffffffffffffffffffffffffffffffffffffffffffffffffffffffe1843603018112611f7657600080fd5b83018035915067ffffffffffffffff821115611f9157600080fd5b6020019150368190038213156118df57600080fd5b7f4e487b7100000000000000000000000000000000000000000000000000000000600052601160045260246000fd5b60007fffffffffffffffffffffffffffffffffffffffffffffffffffffffffffffffff820361200657612006611fa6565b5060010190565b6000808585111561201d57600080fd5b8386111561202a57600080fd5b5050820193919092039150565b808201808211156102cb576102cb611fa6565b60608152600061205e606083018688611bff565b6020830194909452506040015292915050565b82815260406020820152600061037b6040830184611e56565b84815273ffffffffffffffffffffffffffffffffffffffff841660208201526060604082015260006120c0606083018486611bff565b9695505050505050565b60208152600061037b602083018486611bff565b818103818111156102cb576102cb611fa6565b604081526000612105604083018587611bff565b9050826020830152949350505050565b604081526000612129604083018587611bff565b905060ff83166020830152949350505050565b606081526000612150606083018688611bff565b60208301949094525090151560409091015292915050565b838152604060208201526000612182604083018486611bff565b95945050505050565b60006020828403121561219d57600080fd5b81516103178161185256fea26469706673582212209bb95d18e97f278aa47e0c04c20d5a6af9bdb6d473c6d4051192cd96fc17866864736f6c63430008120033",
					"opcodes": "PUSH1 0xA0 PUSH1 0x40 MSTORE CALLVALUE DUP1 ISZERO PUSH2 0x10 JUMPI PUSH1 0x0 DUP1 REVERT JUMPDEST POP ADDRESS PUSH1 0x80 MSTORE PUSH1 0x80 MLOAD PUSH2 0x21DE PUSH2 0x2D PUSH1 0x0 CODECOPY PUSH1 0x0 POP POP PUSH2 0x21DE PUSH1 0x0 RETURN INVALID PUSH1 0x80 PUSH1 0x40 MSTORE PUSH1 0x4 CALLDATASIZE LT PUSH2 0xBC JUMPI PUSH1 0x0 CALLDATALOAD PUSH1 0xE0 SHR DUP1 PUSH4 0x61C2926C GT PUSH2 0x74 JUMPI DUP1 PUSH4 0x8C3F5563 GT PUSH2 0x4E JUMPI DUP1 PUSH4 0x8C3F5563 EQ PUSH2 0x253 JUMPI DUP1 PUSH4 0x90042BAF EQ PUSH2 0x273 JUMPI DUP1 PUSH4 0xAFFED0E0 EQ PUSH2 0x2AB JUMPI PUSH1 0x0 DUP1 REVERT JUMPDEST DUP1 PUSH4 0x61C2926C EQ PUSH2 0x1CB JUMPI DUP1 PUSH4 0x7A9A1628 EQ PUSH2 0x1EB JUMPI DUP1 PUSH4 0x853C5068 EQ PUSH2 0x20B JUMPI PUSH1 0x0 DUP1 REVERT JUMPDEST DUP1 PUSH4 0x20C13B0B GT PUSH2 0xA5 JUMPI DUP1 PUSH4 0x20C13B0B EQ PUSH2 0x147 JUMPI DUP1 PUSH4 0x29561426 EQ PUSH2 0x167 JUMPI DUP1 PUSH4 0x57C56D6B EQ PUSH2 0x189 JUMPI PUSH1 0x0 DUP1 REVERT JUMPDEST DUP1 PUSH4 0x1FFC9A7 EQ PUSH2 0xC1 JUMPI DUP1 PUSH4 0x1626BA7E EQ PUSH2 0xF6 JUMPI JUMPDEST PUSH1 0x0 DUP1 REVERT JUMPDEST CALLVALUE DUP1 ISZERO PUSH2 0xCD JUMPI PUSH1 0x0 DUP1 REVERT JUMPDEST POP PUSH2 0xE1 PUSH2 0xDC CALLDATASIZE PUSH1 0x4 PUSH2 0x1880 JUMP JUMPDEST PUSH2 0x2C0 JUMP JUMPDEST PUSH1 0x40 MLOAD SWAP1 ISZERO ISZERO DUP2 MSTORE PUSH1 0x20 ADD JUMPDEST PUSH1 0x40 MLOAD DUP1 SWAP2 SUB SWAP1 RETURN JUMPDEST CALLVALUE DUP1 ISZERO PUSH2 0x102 JUMPI PUSH1 0x0 DUP1 REVERT JUMPDEST POP PUSH2 0x116 PUSH2 0x111 CALLDATASIZE PUSH1 0x4 PUSH2 0x18E6 JUMP JUMPDEST PUSH2 0x2D1 JUMP JUMPDEST PUSH1 0x40 MLOAD PUSH32 0xFFFFFFFF00000000000000000000000000000000000000000000000000000000 SWAP1 SWAP2 AND DUP2 MSTORE PUSH1 0x20 ADD PUSH2 0xED JUMP JUMPDEST CALLVALUE DUP1 ISZERO PUSH2 0x153 JUMPI PUSH1 0x0 DUP1 REVERT JUMPDEST POP PUSH2 0x116 PUSH2 0x162 CALLDATASIZE PUSH1 0x4 PUSH2 0x1932 JUMP JUMPDEST PUSH2 0x31E JUMP JUMPDEST CALLVALUE DUP1 ISZERO PUSH2 0x173 JUMPI PUSH1 0x0 DUP1 REVERT JUMPDEST POP PUSH2 0x187 PUSH2 0x182 CALLDATASIZE PUSH1 0x4 PUSH2 0x199E JUMP JUMPDEST PUSH2 0x383 JUMP JUMPDEST STOP JUMPDEST CALLVALUE DUP1 ISZERO PUSH2 0x195 JUMPI PUSH1 0x0 DUP1 REVERT JUMPDEST POP PUSH2 0x1BD PUSH32 0x8713A7C4465F6FBEE2B6E9D6646D1D9F83FEC929EDFC4BAF661F3C865BDD04D1 DUP2 JUMP JUMPDEST PUSH1 0x40 MLOAD SWAP1 DUP2 MSTORE PUSH1 0x20 ADD PUSH2 0xED JUMP JUMPDEST CALLVALUE DUP1 ISZERO PUSH2 0x1D7 JUMPI PUSH1 0x0 DUP1 REVERT JUMPDEST POP PUSH2 0x187 PUSH2 0x1E6 CALLDATASIZE PUSH1 0x4 PUSH2 0x19FC JUMP JUMPDEST PUSH2 0x3D5 JUMP JUMPDEST CALLVALUE DUP1 ISZERO PUSH2 0x1F7 JUMPI PUSH1 0x0 DUP1 REVERT JUMPDEST POP PUSH2 0x187 PUSH2 0x206 CALLDATASIZE PUSH1 0x4 PUSH2 0x1A3E JUMP JUMPDEST PUSH2 0x41A JUMP JUMPDEST CALLVALUE DUP1 ISZERO PUSH2 0x217 JUMPI PUSH1 0x0 DUP1 REVERT JUMPDEST POP PUSH2 0x22B PUSH2 0x226 CALLDATASIZE PUSH1 0x4 PUSH2 0x18E6 JUMP JUMPDEST PUSH2 0x447 JUMP JUMPDEST PUSH1 0x40 DUP1 MLOAD SWAP6 DUP7 MSTORE PUSH1 0x20 DUP7 ADD SWAP5 SWAP1 SWAP5 MSTORE SWAP3 DUP5 ADD SWAP2 SWAP1 SWAP2 MSTORE PUSH1 0x60 DUP4 ADD MSTORE PUSH1 0x80 DUP3 ADD MSTORE PUSH1 0xA0 ADD PUSH2 0xED JUMP JUMPDEST CALLVALUE DUP1 ISZERO PUSH2 0x25F JUMPI PUSH1 0x0 DUP1 REVERT JUMPDEST POP PUSH2 0x1BD PUSH2 0x26E CALLDATASIZE PUSH1 0x4 PUSH2 0x199E JUMP JUMPDEST PUSH2 0x60F JUMP JUMPDEST PUSH2 0x286 PUSH2 0x281 CALLDATASIZE PUSH1 0x4 PUSH2 0x1AE7 JUMP JUMPDEST PUSH2 0x63B JUMP JUMPDEST PUSH1 0x40 MLOAD PUSH20 0xFFFFFFFFFFFFFFFFFFFFFFFFFFFFFFFFFFFFFFFF SWAP1 SWAP2 AND DUP2 MSTORE PUSH1 0x20 ADD PUSH2 0xED JUMP JUMPDEST CALLVALUE DUP1 ISZERO PUSH2 0x2B7 JUMPI PUSH1 0x0 DUP1 REVERT JUMPDEST POP PUSH2 0x1BD PUSH2 0x725 JUMP JUMPDEST PUSH1 0x0 PUSH2 0x2CB DUP3 PUSH2 0x736 JUMP JUMPDEST SWAP3 SWAP2 POP POP JUMP JUMPDEST PUSH1 0x0 DUP1 PUSH2 0x2DF DUP6 DUP6 DUP6 PUSH2 0x792 JUMP JUMPDEST POP SWAP1 POP DUP1 ISZERO PUSH2 0x311 JUMPI POP PUSH32 0x1626BA7E00000000000000000000000000000000000000000000000000000000 SWAP1 POP PUSH2 0x317 JUMP JUMPDEST POP PUSH1 0x0 SWAP1 POP JUMPDEST SWAP4 SWAP3 POP POP POP JUMP JUMPDEST PUSH1 0x0 DUP1 PUSH2 0x343 DUP7 DUP7 PUSH1 0x40 MLOAD PUSH2 0x334 SWAP3 SWAP2 SWAP1 PUSH2 0x1BB6 JUMP JUMPDEST PUSH1 0x40 MLOAD DUP1 SWAP2 SUB SWAP1 KECCAK256 DUP6 DUP6 PUSH2 0x792 JUMP JUMPDEST POP SWAP1 POP DUP1 ISZERO PUSH2 0x375 JUMPI POP PUSH32 0x20C13B0B00000000000000000000000000000000000000000000000000000000 SWAP1 POP PUSH2 0x37B JUMP JUMPDEST POP PUSH1 0x0 SWAP1 POP JUMPDEST SWAP5 SWAP4 POP POP POP POP JUMP JUMPDEST CALLER ADDRESS EQ PUSH2 0x3C9 JUMPI PUSH1 0x40 MLOAD PUSH32 0xE125889400000000000000000000000000000000000000000000000000000000 DUP2 MSTORE CALLER PUSH1 0x4 DUP3 ADD MSTORE ADDRESS PUSH1 0x24 DUP3 ADD MSTORE PUSH1 0x44 ADD JUMPDEST PUSH1 0x40 MLOAD DUP1 SWAP2 SUB SWAP1 REVERT JUMPDEST PUSH2 0x3D2 DUP2 PUSH2 0x7CA JUMP JUMPDEST POP JUMP JUMPDEST PUSH1 0x0 PUSH2 0x408 DUP4 DUP4 PUSH1 0x40 MLOAD PUSH1 0x20 ADD PUSH2 0x3ED SWAP3 SWAP2 SWAP1 PUSH2 0x1D97 JUMP JUMPDEST PUSH1 0x40 MLOAD PUSH1 0x20 DUP2 DUP4 SUB SUB DUP2 MSTORE SWAP1 PUSH1 0x40 MSTORE DUP1 MLOAD SWAP1 PUSH1 0x20 ADD KECCAK256 PUSH2 0x7FC JUMP JUMPDEST SWAP1 POP PUSH2 0x415 DUP2 DUP5 DUP5 PUSH2 0x881 JUMP JUMPDEST POP POP POP JUMP JUMPDEST PUSH1 0x0 PUSH2 0x432 DUP7 DUP7 PUSH1 0x40 MLOAD PUSH1 0x20 ADD PUSH2 0x3ED SWAP3 SWAP2 SWAP1 PUSH2 0x1DDF JUMP JUMPDEST SWAP1 POP PUSH2 0x43F DUP2 DUP8 DUP8 PUSH2 0x881 JUMP JUMPDEST POP POP POP POP POP POP JUMP JUMPDEST PUSH1 0x0 DUP1 PUSH1 0x0 DUP1 PUSH1 0x0 DUP1 DUP8 DUP8 PUSH1 0x0 DUP2 DUP2 LT PUSH2 0x463 JUMPI PUSH2 0x463 PUSH2 0x1E27 JUMP JUMPDEST SWAP1 SWAP2 ADD CALLDATALOAD PUSH32 0xFF00000000000000000000000000000000000000000000000000000000000000 AND SWAP2 POP DUP2 SWAP1 POP PUSH2 0x4B9 JUMPI PUSH2 0x49B DUP10 PUSH2 0x7FC JUMP JUMPDEST SWAP3 POP PUSH2 0x4A8 DUP4 DUP10 DUP10 PUSH2 0xA0E JUMP JUMPDEST SWAP3 SWAP9 POP SWAP1 SWAP7 POP SWAP5 POP SWAP2 POP PUSH2 0x604 SWAP1 POP JUMP JUMPDEST PUSH32 0xFF00000000000000000000000000000000000000000000000000000000000000 DUP2 DUP2 AND ADD PUSH2 0x4F8 JUMPI PUSH2 0x4EB DUP10 PUSH2 0x7FC JUMP JUMPDEST SWAP3 POP PUSH2 0x4A8 DUP4 DUP10 DUP10 PUSH2 0xA5F JUMP JUMPDEST PUSH32 0xFE00000000000000000000000000000000000000000000000000000000000000 PUSH32 0xFF00000000000000000000000000000000000000000000000000000000000000 DUP3 AND ADD PUSH2 0x54A JUMPI PUSH2 0x4EB DUP10 PUSH2 0xA8B JUMP JUMPDEST PUSH32 0xFD00000000000000000000000000000000000000000000000000000000000000 PUSH32 0xFF00000000000000000000000000000000000000000000000000000000000000 DUP3 AND ADD PUSH2 0x5AE JUMPI PUSH2 0x59E DUP10 DUP10 DUP10 PUSH2 0xAF8 JUMP JUMPDEST SWAP6 POP SWAP6 POP SWAP6 POP SWAP6 POP SWAP6 POP POP PUSH2 0x604 JUMP JUMPDEST PUSH1 0x40 MLOAD PUSH32 0x6085CD8200000000000000000000000000000000000000000000000000000000 DUP2 MSTORE PUSH32 0xFF00000000000000000000000000000000000000000000000000000000000000 DUP3 AND PUSH1 0x4 DUP3 ADD MSTORE PUSH1 0x24 ADD PUSH2 0x3C0 JUMP JUMPDEST SWAP4 SWAP8 SWAP3 SWAP7 POP SWAP4 POP SWAP4 POP JUMP JUMPDEST PUSH1 0x0 PUSH2 0x2CB PUSH32 0x8D0BF1FD623D628C741362C1289948E57B3E2905218C676D3E69ABEE36D6AE2E DUP4 PUSH2 0xC75 JUMP JUMPDEST PUSH1 0x0 CALLER ADDRESS EQ PUSH2 0x67E JUMPI PUSH1 0x40 MLOAD PUSH32 0xE125889400000000000000000000000000000000000000000000000000000000 DUP2 MSTORE CALLER PUSH1 0x4 DUP3 ADD MSTORE ADDRESS PUSH1 0x24 DUP3 ADD MSTORE PUSH1 0x44 ADD PUSH2 0x3C0 JUMP JUMPDEST DUP2 MLOAD PUSH1 0x20 DUP4 ADD CALLVALUE CREATE SWAP1 POP PUSH20 0xFFFFFFFFFFFFFFFFFFFFFFFFFFFFFFFFFFFFFFFF DUP2 AND PUSH2 0x6D7 JUMPI DUP2 PUSH1 0x40 MLOAD PUSH32 0xD25719100000000000000000000000000000000000000000000000000000000 DUP2 MSTORE PUSH1 0x4 ADD PUSH2 0x3C0 SWAP2 SWAP1 PUSH2 0x1EBA JUMP JUMPDEST PUSH1 0x40 MLOAD PUSH20 0xFFFFFFFFFFFFFFFFFFFFFFFFFFFFFFFFFFFFFFFF DUP3 AND DUP2 MSTORE PUSH32 0xA506AD4E7F05ECEBA62A023C3219E5BD98A615F4FA87E2AFB08A2DA5CF62BF0C SWAP1 PUSH1 0x20 ADD PUSH1 0x40 MLOAD DUP1 SWAP2 SUB SWAP1 LOG1 SWAP2 SWAP1 POP JUMP JUMPDEST PUSH1 0x0 PUSH2 0x731 PUSH1 0x0 PUSH2 0x60F JUMP JUMPDEST SWAP1 POP SWAP1 JUMP JUMPDEST PUSH1 0x0 PUSH32 0x6FFBD45100000000000000000000000000000000000000000000000000000000 PUSH32 0xFFFFFFFF00000000000000000000000000000000000000000000000000000000 DUP4 AND ADD PUSH2 0x789 JUMPI POP PUSH1 0x1 SWAP2 SWAP1 POP JUMP JUMPDEST PUSH2 0x2CB DUP3 PUSH2 0xCD3 JUMP JUMPDEST PUSH1 0x0 DUP1 PUSH1 0x0 DUP1 PUSH1 0x0 PUSH2 0x7A5 DUP9 DUP9 DUP9 PUSH2 0x447 JUMP JUMPDEST POP SWAP7 POP SWAP2 SWAP5 POP SWAP3 POP SWAP1 POP DUP3 DUP3 LT DUP1 ISZERO SWAP1 PUSH2 0x7BD JUMPI POP PUSH1 0x1 JUMPDEST SWAP5 POP POP POP POP SWAP4 POP SWAP4 SWAP2 POP POP JUMP JUMPDEST PUSH1 0x40 MLOAD PUSH32 0xA038794000000000000000000000000000000000000000000000000000000000 DUP2 MSTORE PUSH1 0x4 ADD PUSH1 0x40 MLOAD DUP1 SWAP2 SUB SWAP1 REVERT JUMPDEST PUSH1 0x40 MLOAD PUSH32 0x1901000000000000000000000000000000000000000000000000000000000000 PUSH1 0x20 DUP3 ADD MSTORE CHAINID PUSH1 0x22 DUP3 ADD MSTORE PUSH32 0xFFFFFFFFFFFFFFFFFFFFFFFFFFFFFFFFFFFFFFFF000000000000000000000000 ADDRESS PUSH1 0x60 SHL AND PUSH1 0x42 DUP3 ADD MSTORE PUSH1 0x56 DUP2 ADD DUP3 SWAP1 MSTORE PUSH1 0x0 SWAP1 PUSH1 0x76 ADD JUMPDEST PUSH1 0x40 MLOAD PUSH1 0x20 DUP2 DUP4 SUB SUB DUP2 MSTORE SWAP1 PUSH1 0x40 MSTORE DUP1 MLOAD SWAP1 PUSH1 0x20 ADD KECCAK256 SWAP1 POP SWAP2 SWAP1 POP JUMP JUMPDEST DUP1 PUSH1 0x0 JUMPDEST DUP2 DUP2 LT ISZERO PUSH2 0xA07 JUMPI CALLDATASIZE DUP5 DUP5 DUP4 DUP2 DUP2 LT PUSH2 0x8A0 JUMPI PUSH2 0x8A0 PUSH2 0x1E27 JUMP JUMPDEST SWAP1 POP PUSH1 0x20 MUL DUP2 ADD SWAP1 PUSH2 0x8B2 SWAP2 SWAP1 PUSH2 0x1ECD JUMP JUMPDEST SWAP1 POP PUSH2 0x8C1 PUSH1 0x20 DUP3 ADD DUP3 PUSH2 0x1F0B JUMP JUMPDEST ISZERO PUSH2 0x8FB JUMPI PUSH1 0x40 MLOAD PUSH32 0x230D1CCC00000000000000000000000000000000000000000000000000000000 DUP2 MSTORE PUSH1 0x4 DUP2 ADD DUP4 SWAP1 MSTORE PUSH1 0x24 ADD PUSH2 0x3C0 JUMP JUMPDEST PUSH1 0x40 DUP2 ADD CALLDATALOAD DUP1 GAS LT ISZERO PUSH2 0x94E JUMPI DUP3 DUP2 GAS PUSH1 0x40 MLOAD PUSH32 0x2BB3E3BA00000000000000000000000000000000000000000000000000000000 DUP2 MSTORE PUSH1 0x4 DUP2 ADD SWAP4 SWAP1 SWAP4 MSTORE PUSH1 0x24 DUP4 ADD SWAP2 SWAP1 SWAP2 MSTORE PUSH1 0x44 DUP3 ADD MSTORE PUSH1 0x64 ADD PUSH2 0x3C0 JUMP JUMPDEST PUSH1 0x0 PUSH2 0x988 PUSH2 0x963 PUSH1 0x80 DUP6 ADD PUSH1 0x60 DUP7 ADD PUSH2 0x1F26 JUMP JUMPDEST PUSH1 0x80 DUP6 ADD CALLDATALOAD DUP5 ISZERO PUSH2 0x974 JUMPI DUP5 PUSH2 0x976 JUMP JUMPDEST GAS JUMPDEST PUSH2 0x983 PUSH1 0xA0 DUP9 ADD DUP9 PUSH2 0x1F41 JUMP JUMPDEST PUSH2 0xD2F JUMP JUMPDEST SWAP1 POP DUP1 ISZERO PUSH2 0x9CF JUMPI DUP8 PUSH32 0x5C4EEB02DABF8976016AB414D617F9A162936DCACE3CDEF8C69EF6E262AD5AE7 DUP6 PUSH1 0x40 MLOAD PUSH2 0x9C2 SWAP2 DUP2 MSTORE PUSH1 0x20 ADD SWAP1 JUMP JUMPDEST PUSH1 0x40 MLOAD DUP1 SWAP2 SUB SWAP1 LOG2 PUSH2 0x9F1 JUMP JUMPDEST PUSH2 0x9F1 PUSH2 0x9E2 PUSH1 0x40 DUP6 ADD PUSH1 0x20 DUP7 ADD PUSH2 0x1F0B JUMP JUMPDEST DUP10 DUP7 PUSH2 0x9EC PUSH2 0xD4C JUMP JUMPDEST PUSH2 0xD6B JUMP JUMPDEST POP POP POP DUP1 DUP1 PUSH2 0x9FF SWAP1 PUSH2 0x1FD5 JUMP JUMPDEST SWAP2 POP POP PUSH2 0x885 JUMP JUMPDEST POP POP POP POP POP JUMP JUMPDEST PUSH1 0x0 DUP1 DUP1 DUP1 PUSH2 0xA29 DUP8 PUSH2 0xA24 DUP8 PUSH1 0x6 DUP2 DUP12 PUSH2 0x200D JUMP JUMPDEST PUSH2 0xDB9 JUMP JUMPDEST PUSH1 0x0 SWAP1 DUP2 MSTORE DUP8 CALLDATALOAD PUSH1 0xF0 SHR PUSH1 0x20 DUP2 DUP2 MSTORE PUSH1 0x40 DUP1 DUP5 KECCAK256 DUP5 MSTORE PUSH1 0x2 SWAP1 SWAP11 ADD CALLDATALOAD PUSH1 0xE0 SHR SWAP1 DUP2 SWAP1 MSTORE SWAP9 SWAP1 SWAP2 KECCAK256 SWAP1 SWAP10 SWAP2 SWAP9 POP SWAP7 SWAP6 POP SWAP4 POP POP POP POP JUMP JUMPDEST PUSH1 0x0 DUP1 DUP1 DUP1 PUSH2 0xA7A DUP8 PUSH2 0xA75 DUP8 PUSH1 0x1 DUP2 DUP12 PUSH2 0x200D JUMP JUMPDEST PUSH2 0xA0E JUMP JUMPDEST SWAP4 POP SWAP4 POP SWAP4 POP SWAP4 POP SWAP4 POP SWAP4 POP SWAP4 POP SWAP4 JUMP JUMPDEST PUSH1 0x40 MLOAD PUSH32 0x1901000000000000000000000000000000000000000000000000000000000000 PUSH1 0x20 DUP3 ADD MSTORE PUSH1 0x0 PUSH1 0x22 DUP3 ADD DUP2 SWAP1 MSTORE PUSH32 0xFFFFFFFFFFFFFFFFFFFFFFFFFFFFFFFFFFFFFFFF000000000000000000000000 ADDRESS PUSH1 0x60 SHL AND PUSH1 0x42 DUP4 ADD MSTORE PUSH1 0x56 DUP3 ADD DUP4 SWAP1 MSTORE SWAP1 PUSH1 0x76 ADD PUSH2 0x864 JUMP JUMPDEST PUSH1 0x0 DUP1 DUP1 DUP1 DUP1 PUSH1 0x4 PUSH1 0x1 DUP9 ADD CALLDATALOAD PUSH1 0xE8 SHR DUP3 PUSH2 0xB13 DUP4 DUP4 PUSH2 0x2037 JUMP JUMPDEST SWAP1 POP PUSH2 0xB25 DUP12 PUSH2 0x226 DUP4 DUP7 DUP14 DUP16 PUSH2 0x200D JUMP JUMPDEST SWAP4 SWAP12 POP SWAP2 SWAP10 POP SWAP8 POP SWAP6 POP SWAP4 POP DUP8 DUP8 LT ISZERO PUSH2 0xB7D JUMPI PUSH2 0xB45 DUP2 DUP5 DUP12 DUP14 PUSH2 0x200D JUMP JUMPDEST DUP10 DUP10 PUSH1 0x40 MLOAD PUSH32 0xB006ABA000000000000000000000000000000000000000000000000000000000 DUP2 MSTORE PUSH1 0x4 ADD PUSH2 0x3C0 SWAP5 SWAP4 SWAP3 SWAP2 SWAP1 PUSH2 0x204A JUMP JUMPDEST DUP1 SWAP3 POP JUMPDEST DUP9 DUP4 LT ISZERO PUSH2 0xC67 JUMPI PUSH1 0x3 DUP4 ADD SWAP3 DUP11 ADD CALLDATALOAD PUSH1 0xE8 SHR SWAP2 POP PUSH2 0xBA0 DUP4 DUP4 PUSH2 0x2037 JUMP JUMPDEST SWAP1 POP PUSH1 0x0 PUSH2 0xBC2 PUSH2 0xBB0 DUP9 PUSH2 0x124F JUMP JUMPDEST DUP13 DUP13 DUP8 SWAP1 DUP7 SWAP3 PUSH2 0x226 SWAP4 SWAP3 SWAP2 SWAP1 PUSH2 0x200D JUMP JUMPDEST SWAP4 SWAP13 POP SWAP2 SWAP11 POP SWAP9 POP SWAP1 SWAP2 POP POP DUP9 DUP9 LT ISZERO PUSH2 0xC1A JUMPI PUSH2 0xBE2 DUP3 DUP6 DUP13 DUP15 PUSH2 0x200D JUMP JUMPDEST DUP11 DUP11 PUSH1 0x40 MLOAD PUSH32 0xB006ABA000000000000000000000000000000000000000000000000000000000 DUP2 MSTORE PUSH1 0x4 ADD PUSH2 0x3C0 SWAP5 SWAP4 SWAP3 SWAP2 SWAP1 PUSH2 0x204A JUMP JUMPDEST DUP5 DUP2 LT PUSH2 0xC5D JUMPI PUSH1 0x40 MLOAD PUSH32 0x37DAF62B00000000000000000000000000000000000000000000000000000000 DUP2 MSTORE PUSH1 0x4 DUP2 ADD DUP3 SWAP1 MSTORE PUSH1 0x24 DUP2 ADD DUP7 SWAP1 MSTORE PUSH1 0x44 ADD PUSH2 0x3C0 JUMP JUMPDEST SWAP4 POP SWAP2 POP DUP2 PUSH2 0xB81 JUMP JUMPDEST POP POP POP SWAP4 SWAP8 SWAP3 SWAP7 POP SWAP4 POP SWAP4 POP JUMP JUMPDEST PUSH1 0x0 DUP1 DUP4 DUP4 PUSH1 0x40 MLOAD PUSH1 0x20 ADD PUSH2 0xC94 SWAP3 SWAP2 SWAP1 SWAP2 DUP3 MSTORE PUSH1 0x20 DUP3 ADD MSTORE PUSH1 0x40 ADD SWAP1 JUMP JUMPDEST PUSH1 0x40 DUP1 MLOAD PUSH32 0xFFFFFFFFFFFFFFFFFFFFFFFFFFFFFFFFFFFFFFFFFFFFFFFFFFFFFFFFFFFFFFE0 DUP2 DUP5 SUB ADD DUP2 MSTORE SWAP2 SWAP1 MSTORE DUP1 MLOAD PUSH1 0x20 SWAP1 SWAP2 ADD KECCAK256 SLOAD SWAP5 SWAP4 POP POP POP POP JUMP JUMPDEST PUSH1 0x0 PUSH32 0xE4A77BBC00000000000000000000000000000000000000000000000000000000 PUSH32 0xFFFFFFFF00000000000000000000000000000000000000000000000000000000 DUP4 AND ADD PUSH2 0xD26 JUMPI POP PUSH1 0x1 SWAP2 SWAP1 POP JUMP JUMPDEST PUSH2 0x2CB DUP3 PUSH2 0x1283 JUMP JUMPDEST PUSH1 0x0 PUSH1 0x40 MLOAD DUP3 DUP5 DUP3 CALLDATACOPY PUSH1 0x0 DUP1 DUP5 DUP4 DUP10 DUP12 DUP11 CALL SWAP8 SWAP7 POP POP POP POP POP POP POP JUMP JUMPDEST PUSH1 0x60 RETURNDATASIZE PUSH1 0x40 MLOAD SWAP2 POP PUSH1 0x20 DUP3 ADD DUP2 DUP2 ADD PUSH1 0x40 MSTORE DUP2 DUP4 MSTORE DUP2 PUSH1 0x0 DUP3 RETURNDATACOPY POP POP SWAP1 JUMP JUMPDEST DUP4 ISZERO PUSH2 0xD79 JUMPI DUP1 MLOAD PUSH1 0x20 DUP3 ADD REVERT JUMPDEST DUP3 PUSH32 0xAB46C69F7F32E1BF09B0725853DA82A211E5402A0600296AB499A2FB5EA3B419 DUP4 DUP4 PUSH1 0x40 MLOAD PUSH2 0xDAB SWAP3 SWAP2 SWAP1 PUSH2 0x2071 JUMP JUMPDEST PUSH1 0x40 MLOAD DUP1 SWAP2 SUB SWAP1 LOG2 POP POP POP POP JUMP JUMPDEST PUSH1 0x0 DUP1 PUSH1 0x0 JUMPDEST DUP4 DUP2 LT ISZERO PUSH2 0x1246 JUMPI PUSH1 0x1 DUP2 ADD SWAP1 DUP6 ADD CALLDATALOAD PUSH1 0xF8 SHR PUSH32 0xFFFFFFFFFFFFFFFFFFFFFFFFFFFFFFFFFFFFFFFFFFFFFFFFFFFFFFFFFFFFFFFF DUP2 ADD PUSH2 0xE60 JUMPI PUSH1 0x15 DUP3 ADD SWAP2 DUP7 ADD CALLDATALOAD PUSH1 0xF8 DUP2 SWAP1 SHR SWAP1 PUSH1 0x58 SHR PUSH20 0xFFFFFFFFFFFFFFFFFFFFFFFFFFFFFFFFFFFFFFFF DUP2 AND SWAP1 PUSH21 0xFF0000000000000000000000000000000000000000 AND DUP2 OR DUP6 PUSH2 0xE46 JUMPI DUP1 PUSH2 0xE55 JUMP JUMPDEST PUSH1 0x0 DUP7 DUP2 MSTORE PUSH1 0x20 DUP3 SWAP1 MSTORE PUSH1 0x40 SWAP1 KECCAK256 JUMPDEST SWAP6 POP POP POP POP POP PUSH2 0xDBF JUMP JUMPDEST DUP1 PUSH2 0xEF6 JUMPI PUSH1 0x1 DUP3 ADD SWAP2 DUP7 DUP2 ADD CALLDATALOAD PUSH1 0xF8 SHR SWAP1 PUSH1 0x43 ADD PUSH1 0x0 PUSH2 0xE8C DUP11 PUSH2 0xE87 DUP5 DUP9 DUP13 DUP15 PUSH2 0x200D JUMP JUMPDEST PUSH2 0x136D JUMP JUMPDEST PUSH1 0xFF DUP5 AND SWAP8 SWAP1 SWAP8 ADD SWAP7 SWAP2 SWAP5 POP DUP5 SWAP2 SWAP1 POP PUSH1 0xA0 DUP4 SWAP1 SHL PUSH21 0xFF0000000000000000000000000000000000000000 AND PUSH20 0xFFFFFFFFFFFFFFFFFFFFFFFFFFFFFFFFFFFFFFFF DUP3 AND OR DUP7 PUSH2 0xEDB JUMPI DUP1 PUSH2 0xEEA JUMP JUMPDEST PUSH1 0x0 DUP8 DUP2 MSTORE PUSH1 0x20 DUP3 SWAP1 MSTORE PUSH1 0x40 SWAP1 KECCAK256 JUMPDEST SWAP7 POP POP POP POP POP POP PUSH2 0xDBF JUMP JUMPDEST PUSH1 0x2 DUP2 SUB PUSH2 0x101E JUMPI PUSH1 0x0 DUP1 DUP8 DUP5 ADD CALLDATALOAD PUSH1 0xF8 DUP2 SWAP1 SHR SWAP1 PUSH1 0x58 SHR PUSH20 0xFFFFFFFFFFFFFFFFFFFFFFFFFFFFFFFFFFFFFFFF AND PUSH1 0x15 DUP7 ADD SWAP6 POP SWAP1 SWAP3 POP SWAP1 POP PUSH1 0x0 DUP9 DUP6 ADD CALLDATALOAD PUSH1 0xE8 SHR PUSH1 0x3 DUP7 ADD DUP2 PUSH3 0xFFFFFF AND SWAP2 POP DUP1 SWAP7 POP DUP2 SWAP3 POP POP POP PUSH1 0x0 DUP2 DUP7 ADD SWAP1 POP PUSH2 0xF6F DUP12 DUP5 DUP13 DUP13 DUP11 SWAP1 DUP7 SWAP3 PUSH2 0xF6A SWAP4 SWAP3 SWAP2 SWAP1 PUSH2 0x200D JUMP JUMPDEST PUSH2 0x1630 JUMP JUMPDEST PUSH2 0xFB7 JUMPI DUP11 DUP4 PUSH2 0xF81 DUP4 DUP10 DUP14 DUP16 PUSH2 0x200D JUMP JUMPDEST PUSH1 0x40 MLOAD PUSH32 0x9A94623200000000000000000000000000000000000000000000000000000000 DUP2 MSTORE PUSH1 0x4 ADD PUSH2 0x3C0 SWAP5 SWAP4 SWAP3 SWAP2 SWAP1 PUSH2 0x208A JUMP JUMPDEST PUSH1 0xFF DUP5 AND SWAP8 SWAP1 SWAP8 ADD SWAP7 SWAP5 POP DUP5 PUSH1 0xA0 DUP5 SWAP1 SHL PUSH21 0xFF0000000000000000000000000000000000000000 AND PUSH20 0xFFFFFFFFFFFFFFFFFFFFFFFFFFFFFFFFFFFFFFFF DUP5 AND OR DUP8 PUSH2 0x1002 JUMPI DUP1 PUSH2 0x1011 JUMP JUMPDEST PUSH1 0x0 DUP9 DUP2 MSTORE PUSH1 0x20 DUP3 SWAP1 MSTORE PUSH1 0x40 SWAP1 KECCAK256 JUMPDEST SWAP8 POP POP POP POP POP POP POP PUSH2 0xDBF JUMP JUMPDEST PUSH1 0x3 DUP2 SUB PUSH2 0x1051 JUMPI PUSH1 0x20 DUP3 ADD SWAP2 DUP7 ADD CALLDATALOAD DUP4 PUSH2 0x1039 JUMPI DUP1 PUSH2 0x1048 JUMP JUMPDEST PUSH1 0x0 DUP5 DUP2 MSTORE PUSH1 0x20 DUP3 SWAP1 MSTORE PUSH1 0x40 SWAP1 KECCAK256 JUMPDEST SWAP4 POP POP POP PUSH2 0xDBF JUMP JUMPDEST PUSH1 0x4 DUP2 SUB PUSH2 0x109D JUMPI PUSH1 0x3 DUP1 DUP4 ADD SWAP3 DUP8 DUP2 ADD CALLDATALOAD PUSH1 0xE8 SHR SWAP2 SWAP1 DUP3 ADD ADD PUSH1 0x0 DUP1 PUSH2 0x107E DUP12 PUSH2 0xA24 DUP6 DUP10 DUP14 DUP16 PUSH2 0x200D JUMP JUMPDEST PUSH1 0x0 SWAP9 DUP10 MSTORE PUSH1 0x20 MSTORE PUSH1 0x40 SWAP1 SWAP8 KECCAK256 SWAP7 SWAP1 SWAP8 ADD SWAP7 POP SWAP1 SWAP4 POP PUSH2 0xDBF SWAP3 POP POP POP JUMP JUMPDEST PUSH1 0x6 DUP2 SUB PUSH2 0x11A5 JUMPI PUSH1 0x0 DUP3 DUP8 ADD CALLDATALOAD PUSH1 0xF8 SHR PUSH1 0x1 DUP5 ADD SWAP4 POP PUSH1 0xFF AND SWAP1 POP PUSH1 0x0 DUP8 DUP5 ADD CALLDATALOAD PUSH1 0xF0 SHR PUSH1 0x2 DUP6 ADD SWAP5 POP PUSH2 0xFFFF AND SWAP1 POP PUSH1 0x0 DUP9 DUP6 ADD CALLDATALOAD PUSH1 0xE8 SHR PUSH1 0x3 DUP7 ADD DUP2 PUSH3 0xFFFFFF AND SWAP2 POP DUP1 SWAP7 POP DUP2 SWAP3 POP POP POP PUSH1 0x0 DUP2 DUP7 ADD SWAP1 POP PUSH1 0x0 DUP1 PUSH2 0x110B DUP14 DUP14 DUP14 DUP12 SWAP1 DUP8 SWAP3 PUSH2 0xA24 SWAP4 SWAP3 SWAP2 SWAP1 PUSH2 0x200D JUMP JUMPDEST SWAP4 SWAP9 POP DUP9 SWAP4 SWAP1 SWAP3 POP SWAP1 POP DUP5 DUP3 LT PUSH2 0x1121 JUMPI SWAP9 DUP6 ADD SWAP9 JUMPDEST PUSH1 0x40 DUP1 MLOAD PUSH32 0x53657175656E6365206E657374656420636F6E6669673A0A0000000000000000 PUSH1 0x20 DUP1 DUP4 ADD SWAP2 SWAP1 SWAP2 MSTORE PUSH1 0x38 DUP3 ADD DUP5 SWAP1 MSTORE PUSH1 0x58 DUP3 ADD DUP9 SWAP1 MSTORE PUSH1 0x78 DUP1 DUP4 ADD DUP11 SWAP1 MSTORE DUP4 MLOAD DUP1 DUP5 SUB SWAP1 SWAP2 ADD DUP2 MSTORE PUSH1 0x98 SWAP1 SWAP3 ADD SWAP1 SWAP3 MSTORE DUP1 MLOAD SWAP2 ADD KECCAK256 DUP10 PUSH2 0x1187 JUMPI DUP1 PUSH2 0x1196 JUMP JUMPDEST PUSH1 0x0 DUP11 DUP2 MSTORE PUSH1 0x20 DUP3 SWAP1 MSTORE PUSH1 0x40 SWAP1 KECCAK256 JUMPDEST SWAP10 POP POP POP POP POP POP POP POP POP PUSH2 0xDBF JUMP JUMPDEST PUSH1 0x5 DUP2 SUB PUSH2 0x1211 JUMPI PUSH1 0x20 DUP3 ADD SWAP2 DUP7 ADD CALLDATALOAD DUP8 DUP2 SUB PUSH2 0x11E0 JUMPI PUSH32 0xFFFFFFFFFFFFFFFFFFFFFFFFFFFFFFFFFFFFFFFFFFFFFFFFFFFFFFFFFFFFFFFF SWAP5 POP JUMPDEST PUSH1 0x0 PUSH2 0x11EB DUP3 PUSH2 0x1817 JUMP JUMPDEST SWAP1 POP DUP5 PUSH2 0x11F8 JUMPI DUP1 PUSH2 0x1207 JUMP JUMPDEST PUSH1 0x0 DUP6 DUP2 MSTORE PUSH1 0x20 DUP3 SWAP1 MSTORE PUSH1 0x40 SWAP1 KECCAK256 JUMPDEST SWAP5 POP POP POP POP PUSH2 0xDBF JUMP JUMPDEST PUSH1 0x40 MLOAD PUSH32 0xB2505F7C00000000000000000000000000000000000000000000000000000000 DUP2 MSTORE PUSH1 0x4 DUP2 ADD DUP3 SWAP1 MSTORE PUSH1 0x24 ADD PUSH2 0x3C0 JUMP JUMPDEST POP SWAP4 POP SWAP4 SWAP2 POP POP JUMP JUMPDEST PUSH32 0x8713A7C4465F6FBEE2B6E9D6646D1D9F83FEC929EDFC4BAF661F3C865BDD04D1 PUSH1 0x0 SWAP1 DUP2 MSTORE PUSH1 0x20 DUP3 SWAP1 MSTORE PUSH1 0x40 DUP2 KECCAK256 PUSH2 0x2CB JUMP JUMPDEST PUSH1 0x0 PUSH32 0xFFFFFFFF00000000000000000000000000000000000000000000000000000000 DUP3 AND PUSH32 0xAC6A444E00000000000000000000000000000000000000000000000000000000 EQ DUP1 PUSH2 0x1316 JUMPI POP PUSH32 0xFFFFFFFF00000000000000000000000000000000000000000000000000000000 DUP3 AND PUSH32 0x36E7817500000000000000000000000000000000000000000000000000000000 EQ JUMPDEST ISZERO PUSH2 0x1323 JUMPI POP PUSH1 0x1 SWAP2 SWAP1 POP JUMP JUMPDEST PUSH32 0x1FFC9A700000000000000000000000000000000000000000000000000000000 PUSH32 0xFFFFFFFF00000000000000000000000000000000000000000000000000000000 DUP4 AND EQ PUSH2 0x2CB JUMP JUMPDEST PUSH1 0x0 PUSH1 0x42 DUP3 EQ PUSH2 0x13AD JUMPI DUP3 DUP3 PUSH1 0x40 MLOAD PUSH32 0x2EE17A3D00000000000000000000000000000000000000000000000000000000 DUP2 MSTORE PUSH1 0x4 ADD PUSH2 0x3C0 SWAP3 SWAP2 SWAP1 PUSH2 0x20CA JUMP JUMPDEST PUSH1 0x0 PUSH2 0x13C6 PUSH2 0x13BD PUSH1 0x1 DUP6 PUSH2 0x20DE JUMP JUMPDEST DUP6 ADD CALLDATALOAD PUSH1 0xF8 SHR SWAP1 JUMP JUMPDEST PUSH1 0xFF AND SWAP1 POP PUSH1 0x40 DUP5 ADD CALLDATALOAD PUSH1 0xF8 SHR DUP5 CALLDATALOAD PUSH1 0x20 DUP7 ADD CALLDATALOAD PUSH32 0x7FFFFFFFFFFFFFFFFFFFFFFFFFFFFFFF5D576E7357A4501DDFE92F46681B20A0 DUP2 GT ISZERO PUSH2 0x143A JUMPI DUP7 DUP7 DUP3 PUSH1 0x40 MLOAD PUSH32 0xAD4AAC7600000000000000000000000000000000000000000000000000000000 DUP2 MSTORE PUSH1 0x4 ADD PUSH2 0x3C0 SWAP4 SWAP3 SWAP2 SWAP1 PUSH2 0x20F1 JUMP JUMPDEST DUP3 PUSH1 0xFF AND PUSH1 0x1B EQ ISZERO DUP1 ISZERO PUSH2 0x1452 JUMPI POP DUP3 PUSH1 0xFF AND PUSH1 0x1C EQ ISZERO JUMPDEST ISZERO PUSH2 0x148F JUMPI DUP7 DUP7 DUP5 PUSH1 0x40 MLOAD PUSH32 0xE578897E00000000000000000000000000000000000000000000000000000000 DUP2 MSTORE PUSH1 0x4 ADD PUSH2 0x3C0 SWAP4 SWAP3 SWAP2 SWAP1 PUSH2 0x2115 JUMP JUMPDEST PUSH1 0x1 DUP5 SUB PUSH2 0x14FC JUMPI PUSH1 0x40 DUP1 MLOAD PUSH1 0x0 DUP2 MSTORE PUSH1 0x20 DUP2 ADD DUP1 DUP4 MSTORE DUP11 SWAP1 MSTORE PUSH1 0xFF DUP6 AND SWAP2 DUP2 ADD SWAP2 SWAP1 SWAP2 MSTORE PUSH1 0x60 DUP2 ADD DUP4 SWAP1 MSTORE PUSH1 0x80 DUP2 ADD DUP3 SWAP1 MSTORE PUSH1 0x1 SWAP1 PUSH1 0xA0 ADD JUMPDEST PUSH1 0x20 PUSH1 0x40 MLOAD PUSH1 0x20 DUP2 SUB SWAP1 DUP1 DUP5 SUB SWAP1 DUP6 GAS STATICCALL ISZERO DUP1 ISZERO PUSH2 0x14EB JUMPI RETURNDATASIZE PUSH1 0x0 DUP1 RETURNDATACOPY RETURNDATASIZE PUSH1 0x0 REVERT JUMPDEST POP POP POP PUSH1 0x20 PUSH1 0x40 MLOAD SUB MLOAD SWAP5 POP PUSH2 0x15D4 JUMP JUMPDEST PUSH1 0x2 DUP5 SUB PUSH2 0x1599 JUMPI PUSH1 0x40 MLOAD PUSH32 0x19457468657265756D205369676E6564204D6573736167653A0A333200000000 PUSH1 0x20 DUP3 ADD MSTORE PUSH1 0x3C DUP2 ADD DUP10 SWAP1 MSTORE PUSH1 0x1 SWAP1 PUSH1 0x5C ADD PUSH1 0x40 DUP1 MLOAD PUSH32 0xFFFFFFFFFFFFFFFFFFFFFFFFFFFFFFFFFFFFFFFFFFFFFFFFFFFFFFFFFFFFFFE0 DUP2 DUP5 SUB ADD DUP2 MSTORE DUP3 DUP3 MSTORE DUP1 MLOAD PUSH1 0x20 SWAP2 DUP3 ADD KECCAK256 PUSH1 0x0 DUP5 MSTORE SWAP1 DUP4 ADD DUP1 DUP4 MSTORE MSTORE PUSH1 0xFF DUP7 AND SWAP1 DUP3 ADD MSTORE PUSH1 0x60 DUP2 ADD DUP5 SWAP1 MSTORE PUSH1 0x80 DUP2 ADD DUP4 SWAP1 MSTORE PUSH1 0xA0 ADD PUSH2 0x14C9 JUMP JUMPDEST DUP7 DUP7 DUP6 PUSH1 0x1 PUSH1 0x40 MLOAD PUSH32 0x9DFBA85200000000000000000000000000000000000000000000000000000000 DUP2 MSTORE PUSH1 0x4 ADD PUSH2 0x3C0 SWAP5 SWAP4 SWAP3 SWAP2 SWAP1 PUSH2 0x213C JUMP JUMPDEST PUSH20 0xFFFFFFFFFFFFFFFFFFFFFFFFFFFFFFFFFFFFFFFF DUP6 AND PUSH2 0x1625 JUMPI DUP7 DUP7 PUSH1 0x40 MLOAD PUSH32 0x6C1719D200000000000000000000000000000000000000000000000000000000 DUP2 MSTORE PUSH1 0x4 ADD PUSH2 0x3C0 SWAP3 SWAP2 SWAP1 PUSH2 0x20CA JUMP JUMPDEST POP POP POP POP SWAP4 SWAP3 POP POP POP JUMP JUMPDEST PUSH1 0x0 DUP2 DUP2 SUB PUSH2 0x166B JUMPI PUSH1 0x40 MLOAD PUSH32 0xAC241E1100000000000000000000000000000000000000000000000000000000 DUP2 MSTORE PUSH1 0x4 ADD PUSH1 0x40 MLOAD DUP1 SWAP2 SUB SWAP1 REVERT JUMPDEST PUSH1 0x0 DUP4 DUP4 PUSH2 0x167A PUSH1 0x1 DUP3 PUSH2 0x20DE JUMP JUMPDEST DUP2 DUP2 LT PUSH2 0x1689 JUMPI PUSH2 0x1689 PUSH2 0x1E27 JUMP JUMPDEST SWAP2 SWAP1 SWAP2 ADD CALLDATALOAD PUSH1 0xF8 SHR SWAP2 POP POP PUSH1 0x1 DUP2 EQ DUP1 PUSH2 0x16A3 JUMPI POP PUSH1 0x2 DUP2 EQ JUMPDEST ISZERO PUSH2 0x16E8 JUMPI DUP5 PUSH20 0xFFFFFFFFFFFFFFFFFFFFFFFFFFFFFFFFFFFFFFFF AND PUSH2 0x16CA DUP8 DUP7 DUP7 PUSH2 0x136D JUMP JUMPDEST PUSH20 0xFFFFFFFFFFFFFFFFFFFFFFFFFFFFFFFFFFFFFFFF AND EQ SWAP2 POP PUSH2 0x180E JUMP JUMPDEST PUSH1 0x3 DUP2 SUB PUSH2 0x17D3 JUMPI PUSH20 0xFFFFFFFFFFFFFFFFFFFFFFFFFFFFFFFFFFFFFFFF DUP6 AND PUSH4 0x1626BA7E DUP8 DUP7 PUSH1 0x0 DUP8 PUSH2 0x171C PUSH1 0x1 DUP3 PUSH2 0x20DE JUMP JUMPDEST SWAP3 PUSH2 0x1729 SWAP4 SWAP3 SWAP2 SWAP1 PUSH2 0x200D JUMP JUMPDEST PUSH1 0x40 MLOAD DUP5 PUSH4 0xFFFFFFFF AND PUSH1 0xE0 SHL DUP2 MSTORE PUSH1 0x4 ADD PUSH2 0x1747 SWAP4 SWAP3 SWAP2 SWAP1 PUSH2 0x2168 JUMP JUMPDEST PUSH1 0x20 PUSH1 0x40 MLOAD DUP1 DUP4 SUB DUP2 DUP7 GAS STATICCALL ISZERO DUP1 ISZERO PUSH2 0x1764 JUMPI RETURNDATASIZE PUSH1 0x0 DUP1 RETURNDATACOPY RETURNDATASIZE PUSH1 0x0 REVERT JUMPDEST POP POP POP POP PUSH1 0x40 MLOAD RETURNDATASIZE PUSH1 0x1F NOT PUSH1 0x1F DUP3 ADD AND DUP3 ADD DUP1 PUSH1 0x40 MSTORE POP DUP2 ADD SWAP1 PUSH2 0x1788 SWAP2 SWAP1 PUSH2 0x218B JUMP JUMPDEST PUSH32 0xFFFFFFFF00000000000000000000000000000000000000000000000000000000 AND PUSH32 0x1626BA7E00000000000000000000000000000000000000000000000000000000 EQ SWAP2 POP PUSH2 0x180E JUMP JUMPDEST DUP4 DUP4 DUP3 PUSH1 0x0 PUSH1 0x40 MLOAD PUSH32 0x9DFBA85200000000000000000000000000000000000000000000000000000000 DUP2 MSTORE PUSH1 0x4 ADD PUSH2 0x3C0 SWAP5 SWAP4 SWAP3 SWAP2 SWAP1 PUSH2 0x213C JUMP JUMPDEST POP SWAP5 SWAP4 POP POP POP POP JUMP JUMPDEST PUSH1 0x40 MLOAD PUSH32 0x53657175656E636520737461746963206469676573743A0A0000000000000000 PUSH1 0x20 DUP3 ADD MSTORE PUSH1 0x38 DUP2 ADD DUP3 SWAP1 MSTORE PUSH1 0x0 SWAP1 PUSH1 0x58 ADD PUSH2 0x864 JUMP JUMPDEST PUSH32 0xFFFFFFFF00000000000000000000000000000000000000000000000000000000 DUP2 AND DUP2 EQ PUSH2 0x3D2 JUMPI PUSH1 0x0 DUP1 REVERT JUMPDEST PUSH1 0x0 PUSH1 0x20 DUP3 DUP5 SUB SLT ISZERO PUSH2 0x1892 JUMPI PUSH1 0x0 DUP1 REVERT JUMPDEST DUP2 CALLDATALOAD PUSH2 0x317 DUP2 PUSH2 0x1852 JUMP JUMPDEST PUSH1 0x0 DUP1 DUP4 PUSH1 0x1F DUP5 ADD SLT PUSH2 0x18AF JUMPI PUSH1 0x0 DUP1 REVERT JUMPDEST POP DUP2 CALLDATALOAD PUSH8 0xFFFFFFFFFFFFFFFF DUP2 GT ISZERO PUSH2 0x18C7 JUMPI PUSH1 0x0 DUP1 REVERT JUMPDEST PUSH1 0x20 DUP4 ADD SWAP2 POP DUP4 PUSH1 0x20 DUP3 DUP6 ADD ADD GT ISZERO PUSH2 0x18DF JUMPI PUSH1 0x0 DUP1 REVERT JUMPDEST SWAP3 POP SWAP3 SWAP1 POP JUMP JUMPDEST PUSH1 0x0 DUP1 PUSH1 0x0 PUSH1 0x40 DUP5 DUP7 SUB SLT ISZERO PUSH2 0x18FB JUMPI PUSH1 0x0 DUP1 REVERT JUMPDEST DUP4 CALLDATALOAD SWAP3 POP PUSH1 0x20 DUP5 ADD CALLDATALOAD PUSH8 0xFFFFFFFFFFFFFFFF DUP2 GT ISZERO PUSH2 0x1919 JUMPI PUSH1 0x0 DUP1 REVERT JUMPDEST PUSH2 0x1925 DUP7 DUP3 DUP8 ADD PUSH2 0x189D JUMP JUMPDEST SWAP5 SWAP8 SWAP1 SWAP7 POP SWAP4 SWAP5 POP POP POP POP JUMP JUMPDEST PUSH1 0x0 DUP1 PUSH1 0x0 DUP1 PUSH1 0x40 DUP6 DUP8 SUB SLT ISZERO PUSH2 0x1948 JUMPI PUSH1 0x0 DUP1 REVERT JUMPDEST DUP5 CALLDATALOAD PUSH8 0xFFFFFFFFFFFFFFFF DUP1 DUP3 GT ISZERO PUSH2 0x1960 JUMPI PUSH1 0x0 DUP1 REVERT JUMPDEST PUSH2 0x196C DUP9 DUP4 DUP10 ADD PUSH2 0x189D JUMP JUMPDEST SWAP1 SWAP7 POP SWAP5 POP PUSH1 0x20 DUP8 ADD CALLDATALOAD SWAP2 POP DUP1 DUP3 GT ISZERO PUSH2 0x1985 JUMPI PUSH1 0x0 DUP1 REVERT JUMPDEST POP PUSH2 0x1992 DUP8 DUP3 DUP9 ADD PUSH2 0x189D JUMP JUMPDEST SWAP6 SWAP9 SWAP5 SWAP8 POP SWAP6 POP POP POP POP JUMP JUMPDEST PUSH1 0x0 PUSH1 0x20 DUP3 DUP5 SUB SLT ISZERO PUSH2 0x19B0 JUMPI PUSH1 0x0 DUP1 REVERT JUMPDEST POP CALLDATALOAD SWAP2 SWAP1 POP JUMP JUMPDEST PUSH1 0x0 DUP1 DUP4 PUSH1 0x1F DUP5 ADD SLT PUSH2 0x19C9 JUMPI PUSH1 0x0 DUP1 REVERT JUMPDEST POP DUP2 CALLDATALOAD PUSH8 0xFFFFFFFFFFFFFFFF DUP2 GT ISZERO PUSH2 0x19E1 JUMPI PUSH1 0x0 DUP1 REVERT JUMPDEST PUSH1 0x20 DUP4 ADD SWAP2 POP DUP4 PUSH1 0x20 DUP3 PUSH1 0x5 SHL DUP6 ADD ADD GT ISZERO PUSH2 0x18DF JUMPI PUSH1 0x0 DUP1 REVERT JUMPDEST PUSH1 0x0 DUP1 PUSH1 0x20 DUP4 DUP6 SUB SLT ISZERO PUSH2 0x1A0F JUMPI PUSH1 0x0 DUP1 REVERT JUMPDEST DUP3 CALLDATALOAD PUSH8 0xFFFFFFFFFFFFFFFF DUP2 GT ISZERO PUSH2 0x1A26 JUMPI PUSH1 0x0 DUP1 REVERT JUMPDEST PUSH2 0x1A32 DUP6 DUP3 DUP7 ADD PUSH2 0x19B7 JUMP JUMPDEST SWAP1 SWAP7 SWAP1 SWAP6 POP SWAP4 POP POP POP POP JUMP JUMPDEST PUSH1 0x0 DUP1 PUSH1 0x0 DUP1 PUSH1 0x0 PUSH1 0x60 DUP7 DUP9 SUB SLT ISZERO PUSH2 0x1A56 JUMPI PUSH1 0x0 DUP1 REVERT JUMPDEST DUP6 CALLDATALOAD PUSH8 0xFFFFFFFFFFFFFFFF DUP1 DUP3 GT ISZERO PUSH2 0x1A6E JUMPI PUSH1 0x0 DUP1 REVERT JUMPDEST PUSH2 0x1A7A DUP10 DUP4 DUP11 ADD PUSH2 0x19B7 JUMP JUMPDEST SWAP1 SWAP8 POP SWAP6 POP PUSH1 0x20 DUP9 ADD CALLDATALOAD SWAP5 POP PUSH1 0x40 DUP9 ADD CALLDATALOAD SWAP2 POP DUP1 DUP3 GT ISZERO PUSH2 0x1A9A JUMPI PUSH1 0x0 DUP1 REVERT JUMPDEST POP PUSH2 0x1AA7 DUP9 DUP3 DUP10 ADD PUSH2 0x189D JUMP JUMPDEST SWAP7 SWAP10 SWAP6 SWAP9 POP SWAP4 SWAP7 POP SWAP3 SWAP5 SWAP4 SWAP3 POP POP POP JUMP JUMPDEST PUSH32 0x4E487B7100000000000000000000000000000000000000000000000000000000 PUSH1 0x0 MSTORE PUSH1 0x41 PUSH1 0x4 MSTORE PUSH1 0x24 PUSH1 0x0 REVERT JUMPDEST PUSH1 0x0 PUSH1 0x20 DUP3 DUP5 SUB SLT ISZERO PUSH2 0x1AF9 JUMPI PUSH1 0x0 DUP1 REVERT JUMPDEST DUP2 CALLDATALOAD PUSH8 0xFFFFFFFFFFFFFFFF DUP1 DUP3 GT ISZERO PUSH2 0x1B11 JUMPI PUSH1 0x0 DUP1 REVERT JUMPDEST DUP2 DUP5 ADD SWAP2 POP DUP5 PUSH1 0x1F DUP4 ADD SLT PUSH2 0x1B25 JUMPI PUSH1 0x0 DUP1 REVERT JUMPDEST DUP2 CALLDATALOAD DUP2 DUP2 GT ISZERO PUSH2 0x1B37 JUMPI PUSH2 0x1B37 PUSH2 0x1AB8 JUMP JUMPDEST PUSH1 0x40 MLOAD PUSH1 0x1F DUP3 ADD PUSH32 0xFFFFFFFFFFFFFFFFFFFFFFFFFFFFFFFFFFFFFFFFFFFFFFFFFFFFFFFFFFFFFFE0 SWAP1 DUP2 AND PUSH1 0x3F ADD AND DUP2 ADD SWAP1 DUP4 DUP3 GT DUP2 DUP4 LT OR ISZERO PUSH2 0x1B7D JUMPI PUSH2 0x1B7D PUSH2 0x1AB8 JUMP JUMPDEST DUP2 PUSH1 0x40 MSTORE DUP3 DUP2 MSTORE DUP8 PUSH1 0x20 DUP5 DUP8 ADD ADD GT ISZERO PUSH2 0x1B96 JUMPI PUSH1 0x0 DUP1 REVERT JUMPDEST DUP3 PUSH1 0x20 DUP7 ADD PUSH1 0x20 DUP4 ADD CALLDATACOPY PUSH1 0x0 SWAP3 DUP2 ADD PUSH1 0x20 ADD SWAP3 SWAP1 SWAP3 MSTORE POP SWAP6 SWAP5 POP POP POP POP POP JUMP JUMPDEST DUP2 DUP4 DUP3 CALLDATACOPY PUSH1 0x0 SWAP2 ADD SWAP1 DUP2 MSTORE SWAP2 SWAP1 POP JUMP JUMPDEST DUP1 CALLDATALOAD DUP1 ISZERO ISZERO DUP2 EQ PUSH2 0x1BD6 JUMPI PUSH1 0x0 DUP1 REVERT JUMPDEST SWAP2 SWAP1 POP JUMP JUMPDEST DUP1 CALLDATALOAD PUSH20 0xFFFFFFFFFFFFFFFFFFFFFFFFFFFFFFFFFFFFFFFF DUP2 AND DUP2 EQ PUSH2 0x1BD6 JUMPI PUSH1 0x0 DUP1 REVERT JUMPDEST DUP2 DUP4 MSTORE DUP2 DUP2 PUSH1 0x20 DUP6 ADD CALLDATACOPY POP PUSH1 0x0 PUSH1 0x20 DUP3 DUP5 ADD ADD MSTORE PUSH1 0x0 PUSH1 0x20 PUSH32 0xFFFFFFFFFFFFFFFFFFFFFFFFFFFFFFFFFFFFFFFFFFFFFFFFFFFFFFFFFFFFFFE0 PUSH1 0x1F DUP5 ADD AND DUP5 ADD ADD SWAP1 POP SWAP3 SWAP2 POP POP JUMP JUMPDEST DUP2 DUP4 MSTORE PUSH1 0x0 PUSH1 0x20 DUP1 DUP6 ADD DUP1 DUP2 SWAP7 POP DUP6 PUSH1 0x5 SHL DUP2 ADD SWAP2 POP DUP5 PUSH1 0x0 JUMPDEST DUP8 DUP2 LT ISZERO PUSH2 0x1D8A JUMPI DUP3 DUP5 SUB DUP10 MSTORE DUP2 CALLDATALOAD PUSH32 0xFFFFFFFFFFFFFFFFFFFFFFFFFFFFFFFFFFFFFFFFFFFFFFFFFFFFFFFFFFFFFF41 DUP9 CALLDATASIZE SUB ADD DUP2 SLT PUSH2 0x1CA1 JUMPI PUSH1 0x0 DUP1 REVERT JUMPDEST DUP8 ADD PUSH1 0xC0 PUSH2 0x1CAE DUP3 PUSH2 0x1BC6 JUMP JUMPDEST ISZERO ISZERO DUP7 MSTORE PUSH2 0x1CBD DUP8 DUP4 ADD PUSH2 0x1BC6 JUMP JUMPDEST ISZERO ISZERO DUP7 DUP9 ADD MSTORE PUSH1 0x40 DUP3 DUP2 ADD CALLDATALOAD SWAP1 DUP8 ADD MSTORE PUSH1 0x60 PUSH20 0xFFFFFFFFFFFFFFFFFFFFFFFFFFFFFFFFFFFFFFFF PUSH2 0x1CEF DUP3 DUP6 ADD PUSH2 0x1BDB JUMP JUMPDEST AND SWAP1 DUP8 ADD MSTORE PUSH1 0x80 DUP3 DUP2 ADD CALLDATALOAD SWAP1 DUP8 ADD MSTORE PUSH1 0xA0 DUP1 DUP4 ADD CALLDATALOAD CALLDATASIZE DUP5 SWAP1 SUB PUSH32 0xFFFFFFFFFFFFFFFFFFFFFFFFFFFFFFFFFFFFFFFFFFFFFFFFFFFFFFFFFFFFFFE1 ADD DUP2 SLT PUSH2 0x1D35 JUMPI PUSH1 0x0 DUP1 REVERT JUMPDEST SWAP1 SWAP3 ADD DUP8 DUP2 ADD SWAP3 SWAP1 CALLDATALOAD PUSH8 0xFFFFFFFFFFFFFFFF DUP2 GT ISZERO PUSH2 0x1D53 JUMPI PUSH1 0x0 DUP1 REVERT JUMPDEST DUP1 CALLDATASIZE SUB DUP5 SGT ISZERO PUSH2 0x1D62 JUMPI PUSH1 0x0 DUP1 REVERT JUMPDEST DUP3 DUP3 DUP10 ADD MSTORE PUSH2 0x1D74 DUP4 DUP10 ADD DUP3 DUP7 PUSH2 0x1BFF JUMP JUMPDEST SWAP13 DUP10 ADD SWAP13 SWAP8 POP POP POP SWAP3 DUP7 ADD SWAP3 POP POP PUSH1 0x1 ADD PUSH2 0x1C62 JUMP JUMPDEST POP SWAP2 SWAP8 SWAP7 POP POP POP POP POP POP POP JUMP JUMPDEST PUSH1 0x40 DUP2 MSTORE PUSH1 0x5 PUSH1 0x40 DUP3 ADD MSTORE PUSH32 0x73656C663A000000000000000000000000000000000000000000000000000000 PUSH1 0x60 DUP3 ADD MSTORE PUSH1 0x80 PUSH1 0x20 DUP3 ADD MSTORE PUSH1 0x0 PUSH2 0x37B PUSH1 0x80 DUP4 ADD DUP5 DUP7 PUSH2 0x1C48 JUMP JUMPDEST PUSH1 0x40 DUP2 MSTORE PUSH1 0x6 PUSH1 0x40 DUP3 ADD MSTORE PUSH32 0x67756573743A0000000000000000000000000000000000000000000000000000 PUSH1 0x60 DUP3 ADD MSTORE PUSH1 0x80 PUSH1 0x20 DUP3 ADD MSTORE PUSH1 0x0 PUSH2 0x37B PUSH1 0x80 DUP4 ADD DUP5 DUP7 PUSH2 0x1C48 JUMP JUMPDEST PUSH32 0x4E487B7100000000000000000000000000000000000000000000000000000000 PUSH1 0x0 MSTORE PUSH1 0x32 PUSH1 0x4 MSTORE PUSH1 0x24 PUSH1 0x0 REVERT JUMPDEST PUSH1 0x0 DUP2 MLOAD DUP1 DUP5 MSTORE PUSH1 0x0 JUMPDEST DUP2 DUP2 LT ISZERO PUSH2 0x1E7C JUMPI PUSH1 0x20 DUP2 DUP6 ADD DUP2 ADD MLOAD DUP7 DUP4 ADD DUP3 ADD MSTORE ADD PUSH2 0x1E60 JUMP JUMPDEST POP PUSH1 0x0 PUSH1 0x20 DUP3 DUP7 ADD ADD MSTORE PUSH1 0x20 PUSH32 0xFFFFFFFFFFFFFFFFFFFFFFFFFFFFFFFFFFFFFFFFFFFFFFFFFFFFFFFFFFFFFFE0 PUSH1 0x1F DUP4 ADD AND DUP6 ADD ADD SWAP2 POP POP SWAP3 SWAP2 POP POP JUMP JUMPDEST PUSH1 0x20 DUP2 MSTORE PUSH1 0x0 PUSH2 0x317 PUSH1 0x20 DUP4 ADD DUP5 PUSH2 0x1E56 JUMP JUMPDEST PUSH1 0x0 DUP3 CALLDATALOAD PUSH32 0xFFFFFFFFFFFFFFFFFFFFFFFFFFFFFFFFFFFFFFFFFFFFFFFFFFFFFFFFFFFFFF41 DUP4 CALLDATASIZE SUB ADD DUP2 SLT PUSH2 0x1F01 JUMPI PUSH1 0x0 DUP1 REVERT JUMPDEST SWAP2 SWAP1 SWAP2 ADD SWAP3 SWAP2 POP POP JUMP JUMPDEST PUSH1 0x0 PUSH1 0x20 DUP3 DUP5 SUB SLT ISZERO PUSH2 0x1F1D JUMPI PUSH1 0x0 DUP1 REVERT JUMPDEST PUSH2 0x317 DUP3 PUSH2 0x1BC6 JUMP JUMPDEST PUSH1 0x0 PUSH1 0x20 DUP3 DUP5 SUB SLT ISZERO PUSH2 0x1F38 JUMPI PUSH1 0x0 DUP1 REVERT JUMPDEST PUSH2 0x317 DUP3 PUSH2 0x1BDB JUMP JUMPDEST PUSH1 0x0 DUP1 DUP4 CALLDATALOAD PUSH32 0xFFFFFFFFFFFFFFFFFFFFFFFFFFFFFFFFFFFFFFFFFFFFFFFFFFFFFFFFFFFFFFE1 DUP5 CALLDATASIZE SUB ADD DUP2 SLT PUSH2 0x1F76 JUMPI PUSH1 0x0 DUP1 REVERT JUMPDEST DUP4 ADD DUP1 CALLDATALOAD SWAP2 POP PUSH8 0xFFFFFFFFFFFFFFFF DUP3 GT ISZERO PUSH2 0x1F91 JUMPI PUSH1 0x0 DUP1 REVERT JUMPDEST PUSH1 0x20 ADD SWAP2 POP CALLDATASIZE DUP2 SWAP1 SUB DUP3 SGT ISZERO PUSH2 0x18DF JUMPI PUSH1 0x0 DUP1 REVERT JUMPDEST PUSH32 0x4E487B7100000000000000000000000000000000000000000000000000000000 PUSH1 0x0 MSTORE PUSH1 0x11 PUSH1 0x4 MSTORE PUSH1 0x24 PUSH1 0x0 REVERT JUMPDEST PUSH1 0x0 PUSH32 0xFFFFFFFFFFFFFFFFFFFFFFFFFFFFFFFFFFFFFFFFFFFFFFFFFFFFFFFFFFFFFFFF DUP3 SUB PUSH2 0x2006 JUMPI PUSH2 0x2006 PUSH2 0x1FA6 JUMP JUMPDEST POP PUSH1 0x1 ADD SWAP1 JUMP JUMPDEST PUSH1 0x0 DUP1 DUP6 DUP6 GT ISZERO PUSH2 0x201D JUMPI PUSH1 0x0 DUP1 REVERT JUMPDEST DUP4 DUP7 GT ISZERO PUSH2 0x202A JUMPI PUSH1 0x0 DUP1 REVERT JUMPDEST POP POP DUP3 ADD SWAP4 SWAP2 SWAP1 SWAP3 SUB SWAP2 POP JUMP JUMPDEST DUP1 DUP3 ADD DUP1 DUP3 GT ISZERO PUSH2 0x2CB JUMPI PUSH2 0x2CB PUSH2 0x1FA6 JUMP JUMPDEST PUSH1 0x60 DUP2 MSTORE PUSH1 0x0 PUSH2 0x205E PUSH1 0x60 DUP4 ADD DUP7 DUP9 PUSH2 0x1BFF JUMP JUMPDEST PUSH1 0x20 DUP4 ADD SWAP5 SWAP1 SWAP5 MSTORE POP PUSH1 0x40 ADD MSTORE SWAP3 SWAP2 POP POP JUMP JUMPDEST DUP3 DUP2 MSTORE PUSH1 0x40 PUSH1 0x20 DUP3 ADD MSTORE PUSH1 0x0 PUSH2 0x37B PUSH1 0x40 DUP4 ADD DUP5 PUSH2 0x1E56 JUMP JUMPDEST DUP5 DUP2 MSTORE PUSH20 0xFFFFFFFFFFFFFFFFFFFFFFFFFFFFFFFFFFFFFFFF DUP5 AND PUSH1 0x20 DUP3 ADD MSTORE PUSH1 0x60 PUSH1 0x40 DUP3 ADD MSTORE PUSH1 0x0 PUSH2 0x20C0 PUSH1 0x60 DUP4 ADD DUP5 DUP7 PUSH2 0x1BFF JUMP JUMPDEST SWAP7 SWAP6 POP POP POP POP POP POP JUMP JUMPDEST PUSH1 0x20 DUP2 MSTORE PUSH1 0x0 PUSH2 0x37B PUSH1 0x20 DUP4 ADD DUP5 DUP7 PUSH2 0x1BFF JUMP JUMPDEST DUP2 DUP2 SUB DUP2 DUP2 GT ISZERO PUSH2 0x2CB JUMPI PUSH2 0x2CB PUSH2 0x1FA6 JUMP JUMPDEST PUSH1 0x40 DUP2 MSTORE PUSH1 0x0 PUSH2 0x2105 PUSH1 0x40 DUP4 ADD DUP6 DUP8 PUSH2 0x1BFF JUMP JUMPDEST SWAP1 POP DUP3 PUSH1 0x20 DUP4 ADD MSTORE SWAP5 SWAP4 POP POP POP POP JUMP JUMPDEST PUSH1 0x40 DUP2 MSTORE PUSH1 0x0 PUSH2 0x2129 PUSH1 0x40 DUP4 ADD DUP6 DUP8 PUSH2 0x1BFF JUMP JUMPDEST SWAP1 POP PUSH1 0xFF DUP4 AND PUSH1 0x20 DUP4 ADD MSTORE SWAP5 SWAP4 POP POP POP POP JUMP JUMPDEST PUSH1 0x60 DUP2 MSTORE PUSH1 0x0 PUSH2 0x2150 PUSH1 0x60 DUP4 ADD DUP7 DUP9 PUSH2 0x1BFF JUMP JUMPDEST PUSH1 0x20 DUP4 ADD SWAP5 SWAP1 SWAP5 MSTORE POP SWAP1 ISZERO ISZERO PUSH1 0x40 SWAP1 SWAP2 ADD MSTORE SWAP3 SWAP2 POP POP JUMP JUMPDEST DUP4 DUP2 MSTORE PUSH1 0x40 PUSH1 0x20 DUP3 ADD MSTORE PUSH1 0x0 PUSH2 0x2182 PUSH1 0x40 DUP4 ADD DUP5 DUP7 PUSH2 0x1BFF JUMP JUMPDEST SWAP6 SWAP5 POP POP POP POP POP JUMP JUMPDEST PUSH1 0x0 PUSH1 0x20 DUP3 DUP5 SUB SLT ISZERO PUSH2 0x219D JUMPI PUSH1 0x0 DUP1 REVERT JUMPDEST DUP2 MLOAD PUSH2 0x317 DUP2 PUSH2 0x1852 JUMP INVALID LOG2 PUSH5 0x6970667358 0x22 SLT KECCAK256 SWAP12 0xB9 0x5D XOR 0xE9 PUSH32 0x278AA47E0C04C20D5A6AF9BDB6D473C6D4051192CD96FC17866864736F6C6343 STOP ADDMOD SLT STOP CALLER "
				},
				"gasEstimates": {
					"creation": {
						"codeDepositCost": "1734000",
						"executionCost": "infinite",
						"totalCost": "infinite"
					},
					"external": {
						"SET_IMAGE_HASH_TYPE_HASH()": "262",
						"createContract(bytes)": "infinite",
						"execute((bool,bool,uint256,address,uint256,bytes)[],uint256,bytes)": "infinite",
						"isValidSignature(bytes,bytes)": "infinite",
						"isValidSignature(bytes32,bytes)": "infinite",
						"nonce()": "2645",
						"readNonce(uint256)": "2640",
						"selfExecute((bool,bool,uint256,address,uint256,bytes)[])": "infinite",
						"signatureRecovery(bytes32,bytes)": "infinite",
						"supportsInterface(bytes4)": "infinite",
						"updateImageHash(bytes32)": "357"
					},
					"internal": {
						"_executeGuest(bytes32,struct IModuleCalls.Transaction calldata[] calldata)": "infinite",
						"_isValidImage(bytes32)": "infinite",
						"_updateImageHash(bytes32)": "infinite"
					}
				},
				"methodIdentifiers": {
					"SET_IMAGE_HASH_TYPE_HASH()": "57c56d6b",
					"createContract(bytes)": "90042baf",
					"execute((bool,bool,uint256,address,uint256,bytes)[],uint256,bytes)": "7a9a1628",
					"isValidSignature(bytes,bytes)": "20c13b0b",
					"isValidSignature(bytes32,bytes)": "1626ba7e",
					"nonce()": "affed0e0",
					"readNonce(uint256)": "8c3f5563",
					"selfExecute((bool,bool,uint256,address,uint256,bytes)[])": "61c2926c",
					"signatureRecovery(bytes32,bytes)": "853c5068",
					"supportsInterface(bytes4)": "01ffc9a7",
					"updateImageHash(bytes32)": "29561426"
				}
			},
			"storageLayout": {
				"storage": [],
				"types": null
			},
			"userdoc": {
				"kind": "user",
				"methods": {
					"createContract(bytes)": {
						"notice": "Creates a contract forwarding eth value"
					},
					"execute((bool,bool,uint256,address,uint256,bytes)[],uint256,bytes)": {
						"notice": "Allow any caller to execute an action"
					},
					"isValidSignature(bytes,bytes)": {
						"notice": "Verifies whether the provided signature is valid with respect to the provided data"
					},
					"isValidSignature(bytes32,bytes)": {
						"notice": "Verifies whether the provided signature is valid with respect to the provided hash"
					},
					"nonce()": {
						"notice": "Returns the next nonce of the default nonce space"
					},
					"readNonce(uint256)": {
						"notice": "Returns the next nonce of the given nonce space"
					},
					"selfExecute((bool,bool,uint256,address,uint256,bytes)[])": {
						"notice": "Allow any caller to execute an action"
					},
					"signatureRecovery(bytes32,bytes)": {
						"notice": "Recovers the threshold, weight, imageHash, subdigest, and checkpoint of a signature."
					},
					"supportsInterface(bytes4)": {
						"notice": "Query if a contract implements an interface"
					},
					"updateImageHash(bytes32)": {
						"notice": "Updates the signers configuration of the wallet"
					}
				},
				"notice": "GuestModule implements a Sequence wallet without signatures, nonce or replay protection. executing transactions using this wallet is not an authenticated process, and can be done by any address.This contract is completely public with no security, designed to execute pre-signed transactions   and use Sequence tools without using the wallets.",
				"version": 1
			}
		}
	}
}