{
	"sourcify-verified/1/0xfea230Ee243f88BC698dD8f1aE93F8301B6cdfaE/sources/contracts/modules/commons/ModuleCreator.sol": {
		"ModuleCreator": {
			"abi": [
				{
					"inputs": [
						{
							"internalType": "bytes",
							"name": "_code",
							"type": "bytes"
						}
					],
					"name": "CreateFailed",
					"type": "error"
				},
				{
					"inputs": [
						{
							"internalType": "address",
							"name": "_sender",
							"type": "address"
						},
						{
							"internalType": "address",
							"name": "_self",
							"type": "address"
						}
					],
					"name": "OnlySelfAuth",
					"type": "error"
				},
				{
					"anonymous": false,
					"inputs": [
						{
							"indexed": false,
							"internalType": "address",
							"name": "_contract",
							"type": "address"
						}
					],
					"name": "CreatedContract",
					"type": "event"
				},
				{
					"inputs": [
						{
							"internalType": "bytes",
							"name": "_code",
							"type": "bytes"
						}
					],
					"name": "createContract",
					"outputs": [
						{
							"internalType": "address",
							"name": "addr",
							"type": "address"
						}
					],
					"stateMutability": "payable",
					"type": "function"
				},
				{
					"inputs": [
						{
							"internalType": "bytes4",
							"name": "_interfaceID",
							"type": "bytes4"
						}
					],
					"name": "supportsInterface",
					"outputs": [
						{
							"internalType": "bool",
							"name": "",
							"type": "bool"
						}
					],
					"stateMutability": "pure",
					"type": "function"
				}
			],
			"devdoc": {
				"kind": "dev",
				"methods": {
					"createContract(bytes)": {
						"params": {
							"_code": "Creation code of the contract"
						},
						"returns": {
							"addr": "The address of the created contract"
						}
					},
					"supportsInterface(bytes4)": {
						"params": {
							"_interfaceID": "The interface identifier, as specified in ERC-165"
						},
						"returns": {
							"_0": "`true` if the contract implements `_interfaceID`"
						}
					}
				},
				"version": 1
			},
			"evm": {
				"assembly": "    /* \"sourcify-verified/1/0xfea230Ee243f88BC698dD8f1aE93F8301B6cdfaE/sources/contracts/modules/commons/ModuleCreator.sol\":169:1177  contract ModuleCreator is IModuleCreator, ModuleERC165, ModuleSelfAuth {... */\n  mstore(0x40, 0x80)\n  callvalue\n  dup1\n  iszero\n  tag_1\n  jumpi\n  0x00\n  dup1\n  revert\ntag_1:\n  pop\n  dataSize(sub_0)\n  dup1\n  dataOffset(sub_0)\n  0x00\n  codecopy\n  0x00\n  return\nstop\n\nsub_0: assembly {\n        /* \"sourcify-verified/1/0xfea230Ee243f88BC698dD8f1aE93F8301B6cdfaE/sources/contracts/modules/commons/ModuleCreator.sol\":169:1177  contract ModuleCreator is IModuleCreator, ModuleERC165, ModuleSelfAuth {... */\n      mstore(0x40, 0x80)\n      jumpi(tag_1, lt(calldatasize, 0x04))\n      shr(0xe0, calldataload(0x00))\n      dup1\n      0x01ffc9a7\n      eq\n      tag_2\n      jumpi\n      dup1\n      0x90042baf\n      eq\n      tag_3\n      jumpi\n    tag_1:\n      0x00\n      dup1\n      revert\n        /* \"sourcify-verified/1/0xfea230Ee243f88BC698dD8f1aE93F8301B6cdfaE/sources/contracts/modules/commons/ModuleCreator.sol\":942:1175  function supportsInterface(bytes4 _interfaceID) public override virtual pure returns (bool) {... */\n    tag_2:\n      callvalue\n      dup1\n      iszero\n      tag_4\n      jumpi\n      0x00\n      dup1\n      revert\n    tag_4:\n      pop\n      tag_5\n      tag_6\n      calldatasize\n      0x04\n      tag_7\n      jump\t// in\n    tag_6:\n      tag_8\n      jump\t// in\n    tag_5:\n      mload(0x40)\n        /* \"#utility.yul\":516:530   */\n      swap1\n      iszero\n        /* \"#utility.yul\":509:531   */\n      iszero\n        /* \"#utility.yul\":491:532   */\n      dup2\n      mstore\n        /* \"#utility.yul\":479:481   */\n      0x20\n        /* \"#utility.yul\":464:482   */\n      add\n        /* \"sourcify-verified/1/0xfea230Ee243f88BC698dD8f1aE93F8301B6cdfaE/sources/contracts/modules/commons/ModuleCreator.sol\":942:1175  function supportsInterface(bytes4 _interfaceID) public override virtual pure returns (bool) {... */\n    tag_9:\n      mload(0x40)\n      dup1\n      swap2\n      sub\n      swap1\n      return\n        /* \"sourcify-verified/1/0xfea230Ee243f88BC698dD8f1aE93F8301B6cdfaE/sources/contracts/modules/commons/ModuleCreator.sol\":456:732  function createContract(bytes memory _code) public override virtual payable onlySelf returns (address addr) {... */\n    tag_3:\n      tag_11\n      tag_12\n      calldatasize\n      0x04\n      tag_13\n      jump\t// in\n    tag_12:\n      tag_14\n      jump\t// in\n    tag_11:\n      mload(0x40)\n        /* \"#utility.yul\":1893:1935   */\n      0xffffffffffffffffffffffffffffffffffffffff\n        /* \"#utility.yul\":1881:1936   */\n      swap1\n      swap2\n      and\n        /* \"#utility.yul\":1863:1937   */\n      dup2\n      mstore\n        /* \"#utility.yul\":1851:1853   */\n      0x20\n        /* \"#utility.yul\":1836:1854   */\n      add\n        /* \"sourcify-verified/1/0xfea230Ee243f88BC698dD8f1aE93F8301B6cdfaE/sources/contracts/modules/commons/ModuleCreator.sol\":456:732  function createContract(bytes memory _code) public override virtual payable onlySelf returns (address addr) {... */\n      tag_9\n        /* \"#utility.yul\":1717:1943   */\n      jump\n        /* \"sourcify-verified/1/0xfea230Ee243f88BC698dD8f1aE93F8301B6cdfaE/sources/contracts/modules/commons/ModuleCreator.sol\":942:1175  function supportsInterface(bytes4 _interfaceID) public override virtual pure returns (bool) {... */\n    tag_8:\n        /* \"sourcify-verified/1/0xfea230Ee243f88BC698dD8f1aE93F8301B6cdfaE/sources/contracts/modules/commons/ModuleCreator.sol\":1028:1032  bool */\n      0x00\n        /* \"sourcify-verified/1/0xfea230Ee243f88BC698dD8f1aE93F8301B6cdfaE/sources/contracts/modules/commons/ModuleCreator.sol\":1044:1092  _interfaceID == type(IModuleCreator).interfaceId */\n      0x6ffbd45100000000000000000000000000000000000000000000000000000000\n      0xffffffff00000000000000000000000000000000000000000000000000000000\n      dup4\n      and\n      add\n        /* \"sourcify-verified/1/0xfea230Ee243f88BC698dD8f1aE93F8301B6cdfaE/sources/contracts/modules/commons/ModuleCreator.sol\":1040:1120  if (_interfaceID == type(IModuleCreator).interfaceId) {... */\n      tag_18\n      jumpi\n      pop\n        /* \"sourcify-verified/1/0xfea230Ee243f88BC698dD8f1aE93F8301B6cdfaE/sources/contracts/modules/commons/ModuleCreator.sol\":1109:1113  true */\n      0x01\n      swap2\n        /* \"sourcify-verified/1/0xfea230Ee243f88BC698dD8f1aE93F8301B6cdfaE/sources/contracts/modules/commons/ModuleCreator.sol\":942:1175  function supportsInterface(bytes4 _interfaceID) public override virtual pure returns (bool) {... */\n      swap1\n      pop\n      jump\t// out\n        /* \"sourcify-verified/1/0xfea230Ee243f88BC698dD8f1aE93F8301B6cdfaE/sources/contracts/modules/commons/ModuleCreator.sol\":1040:1120  if (_interfaceID == type(IModuleCreator).interfaceId) {... */\n    tag_18:\n      pop\n        /* \"sourcify-verified/1/0xfea230Ee243f88BC698dD8f1aE93F8301B6cdfaE/sources/contracts/modules/commons/ModuleERC165.sol\":709:756  _interfaceID == this.supportsInterface.selector */\n      0xffffffff00000000000000000000000000000000000000000000000000000000\n      and\n        /* \"sourcify-verified/1/0xfea230Ee243f88BC698dD8f1aE93F8301B6cdfaE/sources/contracts/modules/commons/ModuleERC165.sol\":725:756  this.supportsInterface.selector */\n      0x01ffc9a700000000000000000000000000000000000000000000000000000000\n        /* \"sourcify-verified/1/0xfea230Ee243f88BC698dD8f1aE93F8301B6cdfaE/sources/contracts/modules/commons/ModuleERC165.sol\":709:756  _interfaceID == this.supportsInterface.selector */\n      eq\n      swap1\n        /* \"sourcify-verified/1/0xfea230Ee243f88BC698dD8f1aE93F8301B6cdfaE/sources/contracts/modules/commons/ModuleCreator.sol\":942:1175  function supportsInterface(bytes4 _interfaceID) public override virtual pure returns (bool) {... */\n      jump\t// out\n        /* \"sourcify-verified/1/0xfea230Ee243f88BC698dD8f1aE93F8301B6cdfaE/sources/contracts/modules/commons/ModuleCreator.sol\":456:732  function createContract(bytes memory _code) public override virtual payable onlySelf returns (address addr) {... */\n    tag_14:\n        /* \"sourcify-verified/1/0xfea230Ee243f88BC698dD8f1aE93F8301B6cdfaE/sources/contracts/modules/commons/ModuleCreator.sol\":550:562  address addr */\n      0x00\n        /* \"sourcify-verified/1/0xfea230Ee243f88BC698dD8f1aE93F8301B6cdfaE/sources/contracts/modules/commons/ModuleSelfAuth.sol\":178:188  msg.sender */\n      caller\n        /* \"sourcify-verified/1/0xfea230Ee243f88BC698dD8f1aE93F8301B6cdfaE/sources/contracts/modules/commons/ModuleSelfAuth.sol\":200:204  this */\n      address\n        /* \"sourcify-verified/1/0xfea230Ee243f88BC698dD8f1aE93F8301B6cdfaE/sources/contracts/modules/commons/ModuleSelfAuth.sol\":178:205  msg.sender != address(this) */\n      eq\n        /* \"sourcify-verified/1/0xfea230Ee243f88BC698dD8f1aE93F8301B6cdfaE/sources/contracts/modules/commons/ModuleSelfAuth.sol\":174:268  if (msg.sender != address(this)) {... */\n      tag_22\n      jumpi\n        /* \"sourcify-verified/1/0xfea230Ee243f88BC698dD8f1aE93F8301B6cdfaE/sources/contracts/modules/commons/ModuleSelfAuth.sol\":222:261  OnlySelfAuth(msg.sender, address(this)) */\n      mload(0x40)\n      0xe125889400000000000000000000000000000000000000000000000000000000\n      dup2\n      mstore\n        /* \"sourcify-verified/1/0xfea230Ee243f88BC698dD8f1aE93F8301B6cdfaE/sources/contracts/modules/commons/ModuleSelfAuth.sol\":235:245  msg.sender */\n      caller\n        /* \"sourcify-verified/1/0xfea230Ee243f88BC698dD8f1aE93F8301B6cdfaE/sources/contracts/modules/commons/ModuleSelfAuth.sol\":222:261  OnlySelfAuth(msg.sender, address(this)) */\n      0x04\n      dup3\n      add\n        /* \"#utility.yul\":2183:2217   */\n      mstore\n        /* \"sourcify-verified/1/0xfea230Ee243f88BC698dD8f1aE93F8301B6cdfaE/sources/contracts/modules/commons/ModuleSelfAuth.sol\":255:259  this */\n      address\n        /* \"#utility.yul\":2233:2251   */\n      0x24\n      dup3\n      add\n        /* \"#utility.yul\":2226:2269   */\n      mstore\n        /* \"#utility.yul\":2095:2113   */\n      0x44\n      add\n        /* \"sourcify-verified/1/0xfea230Ee243f88BC698dD8f1aE93F8301B6cdfaE/sources/contracts/modules/commons/ModuleSelfAuth.sol\":222:261  OnlySelfAuth(msg.sender, address(this)) */\n    tag_23:\n      mload(0x40)\n      dup1\n      swap2\n      sub\n      swap1\n      revert\n        /* \"sourcify-verified/1/0xfea230Ee243f88BC698dD8f1aE93F8301B6cdfaE/sources/contracts/modules/commons/ModuleSelfAuth.sol\":174:268  if (msg.sender != address(this)) {... */\n    tag_22:\n        /* \"sourcify-verified/1/0xfea230Ee243f88BC698dD8f1aE93F8301B6cdfaE/sources/contracts/modules/commons/ModuleCreator.sol\":631:636  _code */\n      dup2\n        /* \"sourcify-verified/1/0xfea230Ee243f88BC698dD8f1aE93F8301B6cdfaE/sources/contracts/modules/commons/ModuleCreator.sol\":625:637  mload(_code) */\n      mload\n        /* \"sourcify-verified/1/0xfea230Ee243f88BC698dD8f1aE93F8301B6cdfaE/sources/contracts/modules/commons/ModuleCreator.sol\":620:622  32 */\n      0x20\n        /* \"sourcify-verified/1/0xfea230Ee243f88BC698dD8f1aE93F8301B6cdfaE/sources/contracts/modules/commons/ModuleCreator.sol\":613:618  _code */\n      dup4\n        /* \"sourcify-verified/1/0xfea230Ee243f88BC698dD8f1aE93F8301B6cdfaE/sources/contracts/modules/commons/ModuleCreator.sol\":609:623  add(_code, 32) */\n      add\n        /* \"sourcify-verified/1/0xfea230Ee243f88BC698dD8f1aE93F8301B6cdfaE/sources/contracts/modules/commons/ModuleCreator.sol\":596:607  callvalue() */\n      callvalue\n        /* \"sourcify-verified/1/0xfea230Ee243f88BC698dD8f1aE93F8301B6cdfaE/sources/contracts/modules/commons/ModuleCreator.sol\":589:638  create(callvalue(), add(_code, 32), mload(_code)) */\n      create\n        /* \"sourcify-verified/1/0xfea230Ee243f88BC698dD8f1aE93F8301B6cdfaE/sources/contracts/modules/commons/ModuleCreator.sol\":581:638  addr := create(callvalue(), add(_code, 32), mload(_code)) */\n      swap1\n      pop\n        /* \"sourcify-verified/1/0xfea230Ee243f88BC698dD8f1aE93F8301B6cdfaE/sources/contracts/modules/commons/ModuleCreator.sol\":649:667  addr == address(0) */\n      0xffffffffffffffffffffffffffffffffffffffff\n      dup2\n      and\n        /* \"sourcify-verified/1/0xfea230Ee243f88BC698dD8f1aE93F8301B6cdfaE/sources/contracts/modules/commons/ModuleCreator.sol\":645:695  if (addr == address(0)) revert CreateFailed(_code) */\n      tag_26\n      jumpi\n        /* \"sourcify-verified/1/0xfea230Ee243f88BC698dD8f1aE93F8301B6cdfaE/sources/contracts/modules/commons/ModuleCreator.sol\":689:694  _code */\n      dup2\n        /* \"sourcify-verified/1/0xfea230Ee243f88BC698dD8f1aE93F8301B6cdfaE/sources/contracts/modules/commons/ModuleCreator.sol\":676:695  CreateFailed(_code) */\n      mload(0x40)\n      0x0d25719100000000000000000000000000000000000000000000000000000000\n      dup2\n      mstore\n      0x04\n      add\n      tag_23\n      swap2\n      swap1\n      tag_28\n      jump\t// in\n        /* \"sourcify-verified/1/0xfea230Ee243f88BC698dD8f1aE93F8301B6cdfaE/sources/contracts/modules/commons/ModuleCreator.sol\":645:695  if (addr == address(0)) revert CreateFailed(_code) */\n    tag_26:\n        /* \"sourcify-verified/1/0xfea230Ee243f88BC698dD8f1aE93F8301B6cdfaE/sources/contracts/modules/commons/ModuleCreator.sol\":706:727  CreatedContract(addr) */\n      mload(0x40)\n        /* \"#utility.yul\":1893:1935   */\n      0xffffffffffffffffffffffffffffffffffffffff\n        /* \"#utility.yul\":1881:1936   */\n      dup3\n      and\n        /* \"#utility.yul\":1863:1937   */\n      dup2\n      mstore\n        /* \"sourcify-verified/1/0xfea230Ee243f88BC698dD8f1aE93F8301B6cdfaE/sources/contracts/modules/commons/ModuleCreator.sol\":706:727  CreatedContract(addr) */\n      0xa506ad4e7f05eceba62a023c3219e5bd98a615f4fa87e2afb08a2da5cf62bf0c\n      swap1\n        /* \"#utility.yul\":1851:1853   */\n      0x20\n        /* \"#utility.yul\":1836:1854   */\n      add\n        /* \"sourcify-verified/1/0xfea230Ee243f88BC698dD8f1aE93F8301B6cdfaE/sources/contracts/modules/commons/ModuleCreator.sol\":706:727  CreatedContract(addr) */\n      mload(0x40)\n      dup1\n      swap2\n      sub\n      swap1\n      log1\n        /* \"sourcify-verified/1/0xfea230Ee243f88BC698dD8f1aE93F8301B6cdfaE/sources/contracts/modules/commons/ModuleCreator.sol\":456:732  function createContract(bytes memory _code) public override virtual payable onlySelf returns (address addr) {... */\n      swap2\n      swap1\n      pop\n      jump\t// out\n        /* \"#utility.yul\":14:346   */\n    tag_7:\n        /* \"#utility.yul\":72:78   */\n      0x00\n        /* \"#utility.yul\":125:127   */\n      0x20\n        /* \"#utility.yul\":113:122   */\n      dup3\n        /* \"#utility.yul\":104:111   */\n      dup5\n        /* \"#utility.yul\":100:123   */\n      sub\n        /* \"#utility.yul\":96:128   */\n      slt\n        /* \"#utility.yul\":93:145   */\n      iszero\n      tag_34\n      jumpi\n        /* \"#utility.yul\":141:142   */\n      0x00\n        /* \"#utility.yul\":138:139   */\n      dup1\n        /* \"#utility.yul\":131:143   */\n      revert\n        /* \"#utility.yul\":93:145   */\n    tag_34:\n        /* \"#utility.yul\":180:189   */\n      dup2\n        /* \"#utility.yul\":167:190   */\n      calldataload\n        /* \"#utility.yul\":230:296   */\n      0xffffffff00000000000000000000000000000000000000000000000000000000\n        /* \"#utility.yul\":223:228   */\n      dup2\n        /* \"#utility.yul\":219:297   */\n      and\n        /* \"#utility.yul\":212:217   */\n      dup2\n        /* \"#utility.yul\":209:298   */\n      eq\n        /* \"#utility.yul\":199:316   */\n      tag_35\n      jumpi\n        /* \"#utility.yul\":312:313   */\n      0x00\n        /* \"#utility.yul\":309:310   */\n      dup1\n        /* \"#utility.yul\":302:314   */\n      revert\n        /* \"#utility.yul\":199:316   */\n    tag_35:\n        /* \"#utility.yul\":335:340   */\n      swap4\n        /* \"#utility.yul\":14:346   */\n      swap3\n      pop\n      pop\n      pop\n      jump\t// out\n        /* \"#utility.yul\":543:727   */\n    tag_31:\n        /* \"#utility.yul\":595:672   */\n      0x4e487b7100000000000000000000000000000000000000000000000000000000\n        /* \"#utility.yul\":592:593   */\n      0x00\n        /* \"#utility.yul\":585:673   */\n      mstore\n        /* \"#utility.yul\":692:696   */\n      0x41\n        /* \"#utility.yul\":689:690   */\n      0x04\n        /* \"#utility.yul\":682:697   */\n      mstore\n        /* \"#utility.yul\":716:720   */\n      0x24\n        /* \"#utility.yul\":713:714   */\n      0x00\n        /* \"#utility.yul\":706:721   */\n      revert\n        /* \"#utility.yul\":732:1712   */\n    tag_13:\n        /* \"#utility.yul\":800:806   */\n      0x00\n        /* \"#utility.yul\":853:855   */\n      0x20\n        /* \"#utility.yul\":841:850   */\n      dup3\n        /* \"#utility.yul\":832:839   */\n      dup5\n        /* \"#utility.yul\":828:851   */\n      sub\n        /* \"#utility.yul\":824:856   */\n      slt\n        /* \"#utility.yul\":821:873   */\n      iszero\n      tag_39\n      jumpi\n        /* \"#utility.yul\":869:870   */\n      0x00\n        /* \"#utility.yul\":866:867   */\n      dup1\n        /* \"#utility.yul\":859:871   */\n      revert\n        /* \"#utility.yul\":821:873   */\n    tag_39:\n        /* \"#utility.yul\":909:918   */\n      dup2\n        /* \"#utility.yul\":896:919   */\n      calldataload\n        /* \"#utility.yul\":938:956   */\n      0xffffffffffffffff\n        /* \"#utility.yul\":979:981   */\n      dup1\n        /* \"#utility.yul\":971:977   */\n      dup3\n        /* \"#utility.yul\":968:982   */\n      gt\n        /* \"#utility.yul\":965:999   */\n      iszero\n      tag_40\n      jumpi\n        /* \"#utility.yul\":995:996   */\n      0x00\n        /* \"#utility.yul\":992:993   */\n      dup1\n        /* \"#utility.yul\":985:997   */\n      revert\n        /* \"#utility.yul\":965:999   */\n    tag_40:\n        /* \"#utility.yul\":1033:1039   */\n      dup2\n        /* \"#utility.yul\":1022:1031   */\n      dup5\n        /* \"#utility.yul\":1018:1040   */\n      add\n        /* \"#utility.yul\":1008:1040   */\n      swap2\n      pop\n        /* \"#utility.yul\":1078:1085   */\n      dup5\n        /* \"#utility.yul\":1071:1075   */\n      0x1f\n        /* \"#utility.yul\":1067:1069   */\n      dup4\n        /* \"#utility.yul\":1063:1076   */\n      add\n        /* \"#utility.yul\":1059:1086   */\n      slt\n        /* \"#utility.yul\":1049:1104   */\n      tag_41\n      jumpi\n        /* \"#utility.yul\":1100:1101   */\n      0x00\n        /* \"#utility.yul\":1097:1098   */\n      dup1\n        /* \"#utility.yul\":1090:1102   */\n      revert\n        /* \"#utility.yul\":1049:1104   */\n    tag_41:\n        /* \"#utility.yul\":1136:1138   */\n      dup2\n        /* \"#utility.yul\":1123:1139   */\n      calldataload\n        /* \"#utility.yul\":1158:1160   */\n      dup2\n        /* \"#utility.yul\":1154:1156   */\n      dup2\n        /* \"#utility.yul\":1151:1161   */\n      gt\n        /* \"#utility.yul\":1148:1184   */\n      iszero\n      tag_43\n      jumpi\n        /* \"#utility.yul\":1164:1182   */\n      tag_43\n      tag_31\n      jump\t// in\n    tag_43:\n        /* \"#utility.yul\":1298:1300   */\n      0x40\n        /* \"#utility.yul\":1292:1301   */\n      mload\n        /* \"#utility.yul\":1360:1364   */\n      0x1f\n        /* \"#utility.yul\":1352:1365   */\n      dup3\n      add\n        /* \"#utility.yul\":1203:1269   */\n      0xffffffffffffffffffffffffffffffffffffffffffffffffffffffffffffffe0\n        /* \"#utility.yul\":1348:1370   */\n      swap1\n      dup2\n      and\n        /* \"#utility.yul\":1372:1374   */\n      0x3f\n        /* \"#utility.yul\":1344:1375   */\n      add\n        /* \"#utility.yul\":1340:1380   */\n      and\n        /* \"#utility.yul\":1328:1381   */\n      dup2\n      add\n      swap1\n        /* \"#utility.yul\":1396:1414   */\n      dup4\n      dup3\n      gt\n        /* \"#utility.yul\":1416:1438   */\n      dup2\n      dup4\n      lt\n        /* \"#utility.yul\":1393:1439   */\n      or\n        /* \"#utility.yul\":1390:1462   */\n      iszero\n      tag_45\n      jumpi\n        /* \"#utility.yul\":1442:1460   */\n      tag_45\n      tag_31\n      jump\t// in\n    tag_45:\n        /* \"#utility.yul\":1482:1492   */\n      dup2\n        /* \"#utility.yul\":1478:1480   */\n      0x40\n        /* \"#utility.yul\":1471:1493   */\n      mstore\n        /* \"#utility.yul\":1517:1519   */\n      dup3\n        /* \"#utility.yul\":1509:1515   */\n      dup2\n        /* \"#utility.yul\":1502:1520   */\n      mstore\n        /* \"#utility.yul\":1557:1564   */\n      dup8\n        /* \"#utility.yul\":1552:1554   */\n      0x20\n        /* \"#utility.yul\":1547:1549   */\n      dup5\n        /* \"#utility.yul\":1543:1545   */\n      dup8\n        /* \"#utility.yul\":1539:1550   */\n      add\n        /* \"#utility.yul\":1535:1555   */\n      add\n        /* \"#utility.yul\":1532:1565   */\n      gt\n        /* \"#utility.yul\":1529:1582   */\n      iszero\n      tag_46\n      jumpi\n        /* \"#utility.yul\":1578:1579   */\n      0x00\n        /* \"#utility.yul\":1575:1576   */\n      dup1\n        /* \"#utility.yul\":1568:1580   */\n      revert\n        /* \"#utility.yul\":1529:1582   */\n    tag_46:\n        /* \"#utility.yul\":1634:1636   */\n      dup3\n        /* \"#utility.yul\":1629:1631   */\n      0x20\n        /* \"#utility.yul\":1625:1627   */\n      dup7\n        /* \"#utility.yul\":1621:1632   */\n      add\n        /* \"#utility.yul\":1616:1618   */\n      0x20\n        /* \"#utility.yul\":1608:1614   */\n      dup4\n        /* \"#utility.yul\":1604:1619   */\n      add\n        /* \"#utility.yul\":1591:1637   */\n      calldatacopy\n        /* \"#utility.yul\":1679:1680   */\n      0x00\n        /* \"#utility.yul\":1657:1672   */\n      swap3\n      dup2\n      add\n        /* \"#utility.yul\":1674:1676   */\n      0x20\n        /* \"#utility.yul\":1653:1677   */\n      add\n        /* \"#utility.yul\":1646:1681   */\n      swap3\n      swap1\n      swap3\n      mstore\n      pop\n        /* \"#utility.yul\":1661:1667   */\n      swap6\n        /* \"#utility.yul\":732:1712   */\n      swap5\n      pop\n      pop\n      pop\n      pop\n      pop\n      jump\t// out\n        /* \"#utility.yul\":2280:2885   */\n    tag_28:\n        /* \"#utility.yul\":2390:2394   */\n      0x00\n        /* \"#utility.yul\":2419:2421   */\n      0x20\n        /* \"#utility.yul\":2448:2450   */\n      dup1\n        /* \"#utility.yul\":2437:2446   */\n      dup4\n        /* \"#utility.yul\":2430:2451   */\n      mstore\n        /* \"#utility.yul\":2480:2486   */\n      dup4\n        /* \"#utility.yul\":2474:2487   */\n      mload\n        /* \"#utility.yul\":2523:2529   */\n      dup1\n        /* \"#utility.yul\":2518:2520   */\n      dup3\n        /* \"#utility.yul\":2507:2516   */\n      dup6\n        /* \"#utility.yul\":2503:2521   */\n      add\n        /* \"#utility.yul\":2496:2530   */\n      mstore\n        /* \"#utility.yul\":2548:2549   */\n      0x00\n        /* \"#utility.yul\":2558:2698   */\n    tag_50:\n        /* \"#utility.yul\":2572:2578   */\n      dup2\n        /* \"#utility.yul\":2569:2570   */\n      dup2\n        /* \"#utility.yul\":2566:2579   */\n      lt\n        /* \"#utility.yul\":2558:2698   */\n      iszero\n      tag_52\n      jumpi\n        /* \"#utility.yul\":2667:2681   */\n      dup6\n      dup2\n      add\n        /* \"#utility.yul\":2663:2686   */\n      dup4\n      add\n        /* \"#utility.yul\":2657:2687   */\n      mload\n        /* \"#utility.yul\":2633:2650   */\n      dup6\n      dup3\n      add\n        /* \"#utility.yul\":2652:2654   */\n      0x40\n        /* \"#utility.yul\":2629:2655   */\n      add\n        /* \"#utility.yul\":2622:2688   */\n      mstore\n        /* \"#utility.yul\":2587:2597   */\n      dup3\n      add\n        /* \"#utility.yul\":2558:2698   */\n      jump(tag_50)\n    tag_52:\n        /* \"#utility.yul\":2562:2565   */\n      pop\n        /* \"#utility.yul\":2747:2748   */\n      0x00\n        /* \"#utility.yul\":2742:2744   */\n      0x40\n        /* \"#utility.yul\":2733:2739   */\n      dup3\n        /* \"#utility.yul\":2722:2731   */\n      dup7\n        /* \"#utility.yul\":2718:2740   */\n      add\n        /* \"#utility.yul\":2714:2745   */\n      add\n        /* \"#utility.yul\":2707:2749   */\n      mstore\n        /* \"#utility.yul\":2876:2878   */\n      0x40\n        /* \"#utility.yul\":2806:2872   */\n      0xffffffffffffffffffffffffffffffffffffffffffffffffffffffffffffffe0\n        /* \"#utility.yul\":2801:2803   */\n      0x1f\n        /* \"#utility.yul\":2793:2799   */\n      dup4\n        /* \"#utility.yul\":2789:2804   */\n      add\n        /* \"#utility.yul\":2785:2873   */\n      and\n        /* \"#utility.yul\":2774:2783   */\n      dup6\n        /* \"#utility.yul\":2770:2874   */\n      add\n        /* \"#utility.yul\":2766:2879   */\n      add\n        /* \"#utility.yul\":2758:2879   */\n      swap3\n      pop\n      pop\n      pop\n        /* \"#utility.yul\":2280:2885   */\n      swap3\n      swap2\n      pop\n      pop\n      jump\t// out\n\n    auxdata: 0xa264697066735822122001c76a69e8b3fef98970ac002bb7976078d0e17b12897e7965b9442691a3a58464736f6c63430008120033\n}\n",
				"bytecode": {
					"linkReferences": {},
					"object": "608060405234801561001057600080fd5b5061040e806100206000396000f3fe6080604052600436106100295760003560e01c806301ffc9a71461002e57806390042baf14610063575b600080fd5b34801561003a57600080fd5b5061004e610049366004610225565b61009b565b60405190151581526020015b60405180910390f35b61007661007136600461029d565b610136565b60405173ffffffffffffffffffffffffffffffffffffffff909116815260200161005a565b60007f6ffbd451000000000000000000000000000000000000000000000000000000007fffffffff000000000000000000000000000000000000000000000000000000008316016100ee57506001919050565b507fffffffff00000000000000000000000000000000000000000000000000000000167f01ffc9a7000000000000000000000000000000000000000000000000000000001490565b600033301461017e576040517fe12588940000000000000000000000000000000000000000000000000000000081523360048201523060248201526044015b60405180910390fd5b81516020830134f0905073ffffffffffffffffffffffffffffffffffffffff81166101d757816040517f0d257191000000000000000000000000000000000000000000000000000000008152600401610175919061036c565b60405173ffffffffffffffffffffffffffffffffffffffff821681527fa506ad4e7f05eceba62a023c3219e5bd98a615f4fa87e2afb08a2da5cf62bf0c9060200160405180910390a1919050565b60006020828403121561023757600080fd5b81357fffffffff000000000000000000000000000000000000000000000000000000008116811461026757600080fd5b9392505050565b7f4e487b7100000000000000000000000000000000000000000000000000000000600052604160045260246000fd5b6000602082840312156102af57600080fd5b813567ffffffffffffffff808211156102c757600080fd5b818401915084601f8301126102db57600080fd5b8135818111156102ed576102ed61026e565b604051601f82017fffffffffffffffffffffffffffffffffffffffffffffffffffffffffffffffe0908116603f011681019083821181831017156103335761033361026e565b8160405282815287602084870101111561034c57600080fd5b826020860160208301376000928101602001929092525095945050505050565b600060208083528351808285015260005b818110156103995785810183015185820160400152820161037d565b5060006040828601015260407fffffffffffffffffffffffffffffffffffffffffffffffffffffffffffffffe0601f830116850101925050509291505056fea264697066735822122001c76a69e8b3fef98970ac002bb7976078d0e17b12897e7965b9442691a3a58464736f6c63430008120033",
					"opcodes": "PUSH1 0x80 PUSH1 0x40 MSTORE CALLVALUE DUP1 ISZERO PUSH2 0x10 JUMPI PUSH1 0x0 DUP1 REVERT JUMPDEST POP PUSH2 0x40E DUP1 PUSH2 0x20 PUSH1 0x0 CODECOPY PUSH1 0x0 RETURN INVALID PUSH1 0x80 PUSH1 0x40 MSTORE PUSH1 0x4 CALLDATASIZE LT PUSH2 0x29 JUMPI PUSH1 0x0 CALLDATALOAD PUSH1 0xE0 SHR DUP1 PUSH4 0x1FFC9A7 EQ PUSH2 0x2E JUMPI DUP1 PUSH4 0x90042BAF EQ PUSH2 0x63 JUMPI JUMPDEST PUSH1 0x0 DUP1 REVERT JUMPDEST CALLVALUE DUP1 ISZERO PUSH2 0x3A JUMPI PUSH1 0x0 DUP1 REVERT JUMPDEST POP PUSH2 0x4E PUSH2 0x49 CALLDATASIZE PUSH1 0x4 PUSH2 0x225 JUMP JUMPDEST PUSH2 0x9B JUMP JUMPDEST PUSH1 0x40 MLOAD SWAP1 ISZERO ISZERO DUP2 MSTORE PUSH1 0x20 ADD JUMPDEST PUSH1 0x40 MLOAD DUP1 SWAP2 SUB SWAP1 RETURN JUMPDEST PUSH2 0x76 PUSH2 0x71 CALLDATASIZE PUSH1 0x4 PUSH2 0x29D JUMP JUMPDEST PUSH2 0x136 JUMP JUMPDEST PUSH1 0x40 MLOAD PUSH20 0xFFFFFFFFFFFFFFFFFFFFFFFFFFFFFFFFFFFFFFFF SWAP1 SWAP2 AND DUP2 MSTORE PUSH1 0x20 ADD PUSH2 0x5A JUMP JUMPDEST PUSH1 0x0 PUSH32 0x6FFBD45100000000000000000000000000000000000000000000000000000000 PUSH32 0xFFFFFFFF00000000000000000000000000000000000000000000000000000000 DUP4 AND ADD PUSH2 0xEE JUMPI POP PUSH1 0x1 SWAP2 SWAP1 POP JUMP JUMPDEST POP PUSH32 0xFFFFFFFF00000000000000000000000000000000000000000000000000000000 AND PUSH32 0x1FFC9A700000000000000000000000000000000000000000000000000000000 EQ SWAP1 JUMP JUMPDEST PUSH1 0x0 CALLER ADDRESS EQ PUSH2 0x17E JUMPI PUSH1 0x40 MLOAD PUSH32 0xE125889400000000000000000000000000000000000000000000000000000000 DUP2 MSTORE CALLER PUSH1 0x4 DUP3 ADD MSTORE ADDRESS PUSH1 0x24 DUP3 ADD MSTORE PUSH1 0x44 ADD JUMPDEST PUSH1 0x40 MLOAD DUP1 SWAP2 SUB SWAP1 REVERT JUMPDEST DUP2 MLOAD PUSH1 0x20 DUP4 ADD CALLVALUE CREATE SWAP1 POP PUSH20 0xFFFFFFFFFFFFFFFFFFFFFFFFFFFFFFFFFFFFFFFF DUP2 AND PUSH2 0x1D7 JUMPI DUP2 PUSH1 0x40 MLOAD PUSH32 0xD25719100000000000000000000000000000000000000000000000000000000 DUP2 MSTORE PUSH1 0x4 ADD PUSH2 0x175 SWAP2 SWAP1 PUSH2 0x36C JUMP JUMPDEST PUSH1 0x40 MLOAD PUSH20 0xFFFFFFFFFFFFFFFFFFFFFFFFFFFFFFFFFFFFFFFF DUP3 AND DUP2 MSTORE PUSH32 0xA506AD4E7F05ECEBA62A023C3219E5BD98A615F4FA87E2AFB08A2DA5CF62BF0C SWAP1 PUSH1 0x20 ADD PUSH1 0x40 MLOAD DUP1 SWAP2 SUB SWAP1 LOG1 SWAP2 SWAP1 POP JUMP JUMPDEST PUSH1 0x0 PUSH1 0x20 DUP3 DUP5 SUB SLT ISZERO PUSH2 0x237 JUMPI PUSH1 0x0 DUP1 REVERT JUMPDEST DUP2 CALLDATALOAD PUSH32 0xFFFFFFFF00000000000000000000000000000000000000000000000000000000 DUP2 AND DUP2 EQ PUSH2 0x267 JUMPI PUSH1 0x0 DUP1 REVERT JUMPDEST SWAP4 SWAP3 POP POP POP JUMP JUMPDEST PUSH32 0x4E487B7100000000000000000000000000000000000000000000000000000000 PUSH1 0x0 MSTORE PUSH1 0x41 PUSH1 0x4 MSTORE PUSH1 0x24 PUSH1 0x0 REVERT JUMPDEST PUSH1 0x0 PUSH1 0x20 DUP3 DUP5 SUB SLT ISZERO PUSH2 0x2AF JUMPI PUSH1 0x0 DUP1 REVERT JUMPDEST DUP2 CALLDATALOAD PUSH8 0xFFFFFFFFFFFFFFFF DUP1 DUP3 GT ISZERO PUSH2 0x2C7 JUMPI PUSH1 0x0 DUP1 REVERT JUMPDEST DUP2 DUP5 ADD SWAP2 POP DUP5 PUSH1 0x1F DUP4 ADD SLT PUSH2 0x2DB JUMPI PUSH1 0x0 DUP1 REVERT JUMPDEST DUP2 CALLDATALOAD DUP2 DUP2 GT ISZERO PUSH2 0x2ED JUMPI PUSH2 0x2ED PUSH2 0x26E JUMP JUMPDEST PUSH1 0x40 MLOAD PUSH1 0x1F DUP3 ADD PUSH32 0xFFFFFFFFFFFFFFFFFFFFFFFFFFFFFFFFFFFFFFFFFFFFFFFFFFFFFFFFFFFFFFE0 SWAP1 DUP2 AND PUSH1 0x3F ADD AND DUP2 ADD SWAP1 DUP4 DUP3 GT DUP2 DUP4 LT OR ISZERO PUSH2 0x333 JUMPI PUSH2 0x333 PUSH2 0x26E JUMP JUMPDEST DUP2 PUSH1 0x40 MSTORE DUP3 DUP2 MSTORE DUP8 PUSH1 0x20 DUP5 DUP8 ADD ADD GT ISZERO PUSH2 0x34C JUMPI PUSH1 0x0 DUP1 REVERT JUMPDEST DUP3 PUSH1 0x20 DUP7 ADD PUSH1 0x20 DUP4 ADD CALLDATACOPY PUSH1 0x0 SWAP3 DUP2 ADD PUSH1 0x20 ADD SWAP3 SWAP1 SWAP3 MSTORE POP SWAP6 SWAP5 POP POP POP POP POP JUMP JUMPDEST PUSH1 0x0 PUSH1 0x20 DUP1 DUP4 MSTORE DUP4 MLOAD DUP1 DUP3 DUP6 ADD MSTORE PUSH1 0x0 JUMPDEST DUP2 DUP2 LT ISZERO PUSH2 0x399 JUMPI DUP6 DUP2 ADD DUP4 ADD MLOAD DUP6 DUP3 ADD PUSH1 0x40 ADD MSTORE DUP3 ADD PUSH2 0x37D JUMP JUMPDEST POP PUSH1 0x0 PUSH1 0x40 DUP3 DUP7 ADD ADD MSTORE PUSH1 0x40 PUSH32 0xFFFFFFFFFFFFFFFFFFFFFFFFFFFFFFFFFFFFFFFFFFFFFFFFFFFFFFFFFFFFFFE0 PUSH1 0x1F DUP4 ADD AND DUP6 ADD ADD SWAP3 POP POP POP SWAP3 SWAP2 POP POP JUMP INVALID LOG2 PUSH5 0x6970667358 0x22 SLT KECCAK256 ADD 0xC7 PUSH11 0x69E8B3FEF98970AC002BB7 SWAP8 PUSH1 0x78 0xD0 0xE1 PUSH28 0x12897E7965B9442691A3A58464736F6C634300081200330000000000 "
				},
				"gasEstimates": {
					"creation": {
						"codeDepositCost": "207600",
						"executionCost": "251",
						"totalCost": "207851"
					},
					"external": {
						"createContract(bytes)": "infinite",
						"supportsInterface(bytes4)": "334"
					}
				},
				"methodIdentifiers": {
					"createContract(bytes)": "90042baf",
					"supportsInterface(bytes4)": "01ffc9a7"
				}
			},
			"storageLayout": {
				"storage": [],
				"types": null
			},
			"userdoc": {
				"kind": "user",
				"methods": {
					"createContract(bytes)": {
						"notice": "Creates a contract forwarding eth value"
					},
					"supportsInterface(bytes4)": {
						"notice": "Query if a contract implements an interface"
					}
				},
				"version": 1
			}
		}
	}
}