{"abi":[{"type":"function","name":"DEFAULT_ADMIN_ROLE","inputs":[],"outputs":[{"name":"","type":"bytes32","internalType":"bytes32"}],"stateMutability":"view"},{"type":"function","name":"checkMerkleProof","inputs":[{"name":"root","type":"bytes32","internalType":"bytes32"},{"name":"proof","type":"bytes32[]","internalType":"bytes32[]"},{"name":"addr","type":"address","internalType":"address"},{"name":"salt","type":"bytes32","internalType":"bytes32"}],"outputs":[{"name":"","type":"bool","internalType":"bool"}],"stateMutability":"view"},{"type":"function","name":"getRoleAdmin","inputs":[{"name":"role","type":"bytes32","internalType":"bytes32"}],"outputs":[{"name":"","type":"bytes32","internalType":"bytes32"}],"stateMutability":"view"},{"type":"function","name":"getRoleMember","inputs":[{"name":"role","type":"bytes32","internalType":"bytes32"},{"name":"index","type":"uint256","internalType":"uint256"}],"outputs":[{"name":"","type":"address","internalType":"address"}],"stateMutability":"view"},{"type":"function","name":"getRoleMemberCount","inputs":[{"name":"role","type":"bytes32","internalType":"bytes32"}],"outputs":[{"name":"","type":"uint256","internalType":"uint256"}],"stateMutability":"view"},{"type":"function","name":"globalSaleDetails","inputs":[],"outputs":[{"name":"","type":"tuple","internalType":"struct IERC1155SaleFunctions.SaleDetails","components":[{"name":"cost","type":"uint256","internalType":"uint256"},{"name":"supplyCap","type":"uint256","internalType":"uint256"},{"name":"startTime","type":"uint64","internalType":"uint64"},{"name":"endTime","type":"uint64","internalType":"uint64"},{"name":"merkleRoot","type":"bytes32","internalType":"bytes32"}]}],"stateMutability":"view"},{"type":"function","name":"grantRole","inputs":[{"name":"role","type":"bytes32","internalType":"bytes32"},{"name":"account","type":"address","internalType":"address"}],"outputs":[],"stateMutability":"nonpayable"},{"type":"function","name":"hasRole","inputs":[{"name":"role","type":"bytes32","internalType":"bytes32"},{"name":"account","type":"address","internalType":"address"}],"outputs":[{"name":"","type":"bool","internalType":"bool"}],"stateMutability":"view"},{"type":"function","name":"initialize","inputs":[{"name":"owner","type":"address","internalType":"address"},{"name":"items","type":"address","internalType":"address"}],"outputs":[],"stateMutability":"nonpayable"},{"type":"function","name":"mint","inputs":[{"name":"to","type":"address","internalType":"address"},{"name":"tokenIds","type":"uint256[]","internalType":"uint256[]"},{"name":"amounts","type":"uint256[]","internalType":"uint256[]"},{"name":"data","type":"bytes","internalType":"bytes"},{"name":"expectedPaymentToken","type":"address","internalType":"address"},{"name":"maxTotal","type":"uint256","internalType":"uint256"},{"name":"proof","type":"bytes32[]","internalType":"bytes32[]"}],"outputs":[],"stateMutability":"payable"},{"type":"function","name":"paymentToken","inputs":[],"outputs":[{"name":"","type":"address","internalType":"address"}],"stateMutability":"view"},{"type":"function","name":"renounceRole","inputs":[{"name":"role","type":"bytes32","internalType":"bytes32"},{"name":"account","type":"address","internalType":"address"}],"outputs":[],"stateMutability":"nonpayable"},{"type":"function","name":"revokeRole","inputs":[{"name":"role","type":"bytes32","internalType":"bytes32"},{"name":"account","type":"address","internalType":"address"}],"outputs":[],"stateMutability":"nonpayable"},{"type":"function","name":"setGlobalSaleDetails","inputs":[{"name":"cost","type":"uint256","internalType":"uint256"},{"name":"supplyCap","type":"uint256","internalType":"uint256"},{"name":"startTime","type":"uint64","internalType":"uint64"},{"name":"endTime","type":"uint64","internalType":"uint64"},{"name":"merkleRoot","type":"bytes32","internalType":"bytes32"}],"outputs":[],"stateMutability":"nonpayable"},{"type":"function","name":"setPaymentToken","inputs":[{"name":"paymentTokenAddr","type":"address","internalType":"address"}],"outputs":[],"stateMutability":"nonpayable"},{"type":"function","name":"setTokenSaleDetails","inputs":[{"name":"tokenId","type":"uint256","internalType":"uint256"},{"name":"cost","type":"uint256","internalType":"uint256"},{"name":"supplyCap","type":"uint256","internalType":"uint256"},{"name":"startTime","type":"uint64","internalType":"uint64"},{"name":"endTime","type":"uint64","internalType":"uint64"},{"name":"merkleRoot","type":"bytes32","internalType":"bytes32"}],"outputs":[],"stateMutability":"nonpayable"},{"type":"function","name":"supportsInterface","inputs":[{"name":"interfaceId","type":"bytes4","internalType":"bytes4"}],"outputs":[{"name":"","type":"bool","internalType":"bool"}],"stateMutability":"view"},{"type":"function","name":"tokenSaleDetails","inputs":[{"name":"tokenId","type":"uint256","internalType":"uint256"}],"outputs":[{"name":"","type":"tuple","internalType":"struct IERC1155SaleFunctions.SaleDetails","components":[{"name":"cost","type":"uint256","internalType":"uint256"},{"name":"supplyCap","type":"uint256","internalType":"uint256"},{"name":"startTime","type":"uint64","internalType":"uint64"},{"name":"endTime","type":"uint64","internalType":"uint64"},{"name":"merkleRoot","type":"bytes32","internalType":"bytes32"}]}],"stateMutability":"view"},{"type":"function","name":"withdrawERC20","inputs":[{"name":"token","type":"address","internalType":"address"},{"name":"to","type":"address","internalType":"address"},{"name":"value","type":"uint256","internalType":"uint256"}],"outputs":[],"stateMutability":"nonpayable"},{"type":"function","name":"withdrawETH","inputs":[{"name":"to","type":"address","internalType":"address"},{"name":"value","type":"uint256","internalType":"uint256"}],"outputs":[],"stateMutability":"nonpayable"},{"type":"event","name":"GlobalSaleDetailsUpdated","inputs":[{"name":"cost","type":"uint256","indexed":false,"internalType":"uint256"},{"name":"supplyCap","type":"uint256","indexed":false,"internalType":"uint256"},{"name":"startTime","type":"uint64","indexed":false,"internalType":"uint64"},{"name":"endTime","type":"uint64","indexed":false,"internalType":"uint64"},{"name":"merkleRoot","type":"bytes32","indexed":false,"internalType":"bytes32"}],"anonymous":false},{"type":"event","name":"RoleAdminChanged","inputs":[{"name":"role","type":"bytes32","indexed":true,"internalType":"bytes32"},{"name":"previousAdminRole","type":"bytes32","indexed":true,"internalType":"bytes32"},{"name":"newAdminRole","type":"bytes32","indexed":true,"internalType":"bytes32"}],"anonymous":false},{"type":"event","name":"RoleGranted","inputs":[{"name":"role","type":"bytes32","indexed":true,"internalType":"bytes32"},{"name":"account","type":"address","indexed":true,"internalType":"address"},{"name":"sender","type":"address","indexed":true,"internalType":"address"}],"anonymous":false},{"type":"event","name":"RoleRevoked","inputs":[{"name":"role","type":"bytes32","indexed":true,"internalType":"bytes32"},{"name":"account","type":"address","indexed":true,"internalType":"address"},{"name":"sender","type":"address","indexed":true,"internalType":"address"}],"anonymous":false},{"type":"event","name":"TokenSaleDetailsUpdated","inputs":[{"name":"tokenId","type":"uint256","indexed":false,"internalType":"uint256"},{"name":"cost","type":"uint256","indexed":false,"internalType":"uint256"},{"name":"supplyCap","type":"uint256","indexed":false,"internalType":"uint256"},{"name":"startTime","type":"uint64","indexed":false,"internalType":"uint64"},{"name":"endTime","type":"uint64","indexed":false,"internalType":"uint64"},{"name":"merkleRoot","type":"bytes32","indexed":false,"internalType":"bytes32"}],"anonymous":false},{"type":"error","name":"GlobalSaleInactive","inputs":[]},{"type":"error","name":"InsufficientPayment","inputs":[{"name":"currency","type":"address","internalType":"address"},{"name":"expected","type":"uint256","internalType":"uint256"},{"name":"actual","type":"uint256","internalType":"uint256"}]},{"type":"error","name":"InsufficientSupply","inputs":[{"name":"currentSupply","type":"uint256","internalType":"uint256"},{"name":"requestedAmount","type":"uint256","internalType":"uint256"},{"name":"maxSupply","type":"uint256","internalType":"uint256"}]},{"type":"error","name":"InvalidInitialization","inputs":[]},{"type":"error","name":"InvalidSaleDetails","inputs":[]},{"type":"error","name":"InvalidTokenIds","inputs":[]},{"type":"error","name":"MerkleProofInvalid","inputs":[{"name":"root","type":"bytes32","internalType":"bytes32"},{"name":"proof","type":"bytes32[]","internalType":"bytes32[]"},{"name":"addr","type":"address","internalType":"address"},{"name":"salt","type":"bytes32","internalType":"bytes32"}]},{"type":"error","name":"SaleInactive","inputs":[{"name":"tokenId","type":"uint256","internalType":"uint256"}]},{"type":"error","name":"WithdrawFailed","inputs":[]}],"bytecode":{"object":"0x6080806040523461001657612c17908161001c8239f35b600080fdfe61010080604052600436101561001457600080fd5b600080608052803560e01c91826301ffc9a714611927575081630869678c146118f0578163119cd50c1461187e578163248a9ca31461184f5781632f2ff15d1461174d5781633013ce291461171757816336568abe1461165157816344004cc1146115b05781634782f77914611544578163485cc9551461121b5781634f651ccd146110d957816360e606f6146104675781636a326ab1146104015781639010d07c146103ac57816391d1485414610355578163975596001461020f578163a217fddf146101f1578163bad436611461017c57508063ca15c8731461014e5763d547741f1461010257600080fd5b3461014857604060031936011261014857610142600435610121611a33565b90806080515261013d6001604060805180602052200154612083565b612224565b60805180f35b60805180fd5b3461014857602060031936011261014857600435608051526001602052602060406080512054604051908152f35b346101485760806003193601126101485760243567ffffffffffffffff8111610148576101ad903690600401611c09565b6044929192359173ffffffffffffffffffffffffffffffffffffffff831683036101ee5760206101e4606435858588600435612a9f565b6040519015158152f35b80fd5b3461014857608051806003193601126101ee57602090604051908152f35b346101485760a06003193601126101485760043590602435916044359167ffffffffffffffff908184168094036101ee5750610249611a7e565b9260843591610256611f0d565b841690808210801561034b575b610321577f8fd3ac39fbb3d5e9c906dd9ec439dc6e584b8fa3ce02d5b67d589b22b22152a99560a09584608060405161029b81611a95565b88815284602082015285604082015286606082015201528560055581600655827fffffffffffffffffffffffffffffffff000000000000000000000000000000006fffffffffffffffff00000000000000006007549360401b1692161717600755836008556040519485526020850152604084015260608301526080820152a160805180f35b60046040517f85d4a748000000000000000000000000000000000000000000000000000000008152fd5b5042821115610263565b346101485760406003193601126101485760ff6040602092610375611a33565b6004356080515273ffffffffffffffffffffffffffffffffffffffff83608051808852209116825284522054166040519015158152f35b3461014857604060031936011261014857600435608051526001602052602073ffffffffffffffffffffffffffffffffffffffff6103f16024356040608051206124db565b9190546040519260031b1c168152f35b346101485760206003193601126101485773ffffffffffffffffffffffffffffffffffffffff61042f611a5b565b610437611f0d565b167fffffffffffffffffffffffff0000000000000000000000000000000000000000600454161760045560805180f35b60e06003193601126101485761047b611a5b565b60243567ffffffffffffffff81116101485761049b903690600401611b71565b60443567ffffffffffffffff8111610148576104bb903690600401611b71565b916064359167ffffffffffffffff831161014857366023840112156101485782600401356104e881611bcf565b936104f66040519586611b18565b818552366024838301011161014857602482910160208601376020608051918501015273ffffffffffffffffffffffffffffffffffffffff60843516608435036101485767ffffffffffffffff60c435116101485761055d9391933660c435600401611c09565b9060c052926080519283928496610572612782565b60a0526105a067ffffffffffffffff604060a05101511667ffffffffffffffff606060a05101511690612a4c565b60805160e08190529094905b835160e05110156107e3576105c360e0518561273a565b51968760e051151591826107d8575b50506107ae57866105e560e0518761273a565b5191816080515260096020526105ff6040608051206127c5565b61062667ffffffffffffffff60408301511667ffffffffffffffff60608401511690612a4c565b1561069e5750508661066d57506106569061065060019961064a8360a051516122d7565b90612319565b9a612319565b9661066260e05161270d565b60e0529896986105ac565b602490604051907f035acf500000000000000000000000000000000000000000000000000000000082526004820152fd5b9099916080820151908c826106c4575b505050829161064a6106569461065093516122d7565b816106d491339060c05186612a9f565b1561072b575060808051339052600260209081528151604080822094909152929052512080547fffffffffffffffffffffffffffffffffffffffffffffffffffffffffffffff001660011790558161064a8c6106ae565b8c604051927f265c66a80000000000000000000000000000000000000000000000000000000084526004840152608060248401528060848401527f07ffffffffffffffffffffffffffffffffffffffffffffffffffffffffffffff811161014857829060051b60a4928160c0518585013733604484015260648301528101030190fd5b60046040517f340bc4c9000000000000000000000000000000000000000000000000000000008152fd5b10159050878c6105d2565b84888a8693610e80575b5073ffffffffffffffffffffffffffffffffffffffff600454168073ffffffffffffffffffffffffffffffffffffffff6084351603610e42575060a435818110610dec575060843573ffffffffffffffffffffffffffffffffffffffff16610d3757803403610ce057505b73ffffffffffffffffffffffffffffffffffffffff60035460081c1660805190835182905b808210610b0d5750506006549081151580610a7f575b6109b75750505073ffffffffffffffffffffffffffffffffffffffff60035460081c1690813b15610148576109229461094961093473ffffffffffffffffffffffffffffffffffffffff93604051988997889687967fb48ab8b600000000000000000000000000000000000000000000000000000000885216600487015260806024870152608486019061274e565b9060031985830301604486015261274e565b600319838203016064840152608051966121e1565b0391608051905af180156109aa576109615760805180f35b67ffffffffffffffff81116109795760405280610142565b7f4e487b71000000000000000000000000000000000000000000000000000000006080515260416004526024608051fd5b6040513d608051823e3d90fd5b906020600492604051938480927f18160ddd000000000000000000000000000000000000000000000000000000008252608051905af19182156109aa5760805192610a49575b50610a45906040519384937fa9227830000000000000000000000000000000000000000000000000000000008552600485016040919493926060820195825260208201520152565b0390fd5b9091506020813d602011610a77575b81610a6560209383611b18565b81010312610148575190610a456109fd565b3d9150610a58565b506040517f18160ddd000000000000000000000000000000000000000000000000000000008152602081600481608051865af180156109aa5784849160805190610ad5575b610acf929350612319565b11610893565b5050506020813d602011610b05575b81610af160209383611b18565b810103126101485751829081908590610ac4565b3d9150610ae4565b9092610b19848761273a565b516080515260096020526001604060805120015480151580610c3f575b610b5f5750610b53610b5991610b4c868861273a565b5190612319565b9361270d565b9061087d565b8385876020610b6e838c61273a565b516024604051809681937f2693ebf20000000000000000000000000000000000000000000000000000000083526004830152608051905af19283156109aa5760805193610c09575b50610a4591610bc49161273a565b51926040519384937fa9227830000000000000000000000000000000000000000000000000000000008552600485016040919493926060820195825260208201520152565b9092506020813d602011610c37575b81610c2560209383611b18565b81010312610148575191610a45610bb6565b3d9150610c18565b50610c4a858861273a565b51604051907f2693ebf20000000000000000000000000000000000000000000000000000000082526004820152602081602481608051895af180156109aa57829160805191610ca9575b50610ca390610b4c888a61273a565b11610b36565b9150506020813d602011610cd8575b81610cc560209383611b18565b8101031261014857518190610ca3610c94565b3d9150610cb8565b6040517f1eabcfbe00000000000000000000000000000000000000000000000000000000815260843573ffffffffffffffffffffffffffffffffffffffff1660048201526024810191909152346044820152606490fd5b3415610d7d5760646040517f1eabcfbe00000000000000000000000000000000000000000000000000000000815260805160048201526080516024820152346044820152fd5b610de790604051907f23b872dd000000000000000000000000000000000000000000000000000000006020830152336024830152306044830152606482015260648152610dc981611a95565b73ffffffffffffffffffffffffffffffffffffffff6084351661280d565b610858565b6040517f1eabcfbe00000000000000000000000000000000000000000000000000000000815260843573ffffffffffffffffffffffffffffffffffffffff16600482015260248101929092526044820152606490fd5b606491604051917f1eabcfbe000000000000000000000000000000000000000000000000000000008352600483015260248201526080516044820152fd5b608060a05101519081610e94575b506107ed565b336080515260026020526080518260408220915260205260ff60406080512054161580610fb1575b15610f0f5750336080515260026020526080519060408220915260205260406080512060017fffffffffffffffffffffffffffffffffffffffffffffffffffffffffffffff008254161790558580610e8e565b604051917f265c66a80000000000000000000000000000000000000000000000000000000083526004830152608060248301528060848301527f07ffffffffffffffffffffffffffffffffffffffffffffffffffffffffffffff8111610148578160a49160051b8060c051848401373360448301527fffffffffffffffffffffffffffffffffffffffffffffffffffffffffffffffff60648301528101030190fd5b509491959260409491945160208101907fffffffffffffffffffffffffffffffffffffffff0000000000000000000000003360601b1682527fffffffffffffffffffffffffffffffffffffffffffffffffffffffffffffffff60348201526034815261101c81611ae0565b5190209661102987611b59565b97611037604051998a611b18565b87895260208901368960051b60c05101116101485760c051905b8960051b60c0510182106110c957505095608051965b89518810156110b75761107a888b61273a565b51608051818310156110a55750906080515260205261109f6040608051205b9761270d565b96611067565b5260205261109f604060805120611099565b90939650839194979295985014610ebc565b8135815260209182019101611051565b346101485760c0600319360112610148576024356044356004356110fb611a7e565b60843567ffffffffffffffff93848216809203610148578460a4359361111f611f0d565b16908183108015611211575b610321577f8ced76aee4b96a1e218e7903610fc7d648023d9075677163a5b31396cb280f969660c09660036040519161116383611a95565b83835260208301908582526040840190878252606085019089825260808601938b85528c60805152600960205260406080512096518755516001870155600286019251167fffffffffffffffffffffffffffffffff000000000000000000000000000000006fffffffffffffffff00000000000000008454935160401b1692161717905551910155604051958652602086015260408501526060840152608083015260a0820152a160805180f35b504283111561112b565b3461014857604060031936011261014857611234611a5b565b61123c611a33565b6003549060ff821661151a5774ffffffffffffffffffffffffffffffffffffffff007fffffffffffffffffffffff0000000000000000000000000000000000000000ff9160081b1691161760035560805180526113a260805160209281845273ffffffffffffffffffffffffffffffffffffffff604083209116809252835260805160ff604082205416156114ac575b506080518052600183818095526112e8836040608051206124f3565b507f4c02318d8c3aadc98ccf18aebbf3126f651e0c3f6a1de5ff8edcf6724a2ad5c280608051526080518083528460408220915282528060805160ff6040822054161561143f575b505060805152818152611348836040608051206124f3565b507f5d8e12c39142ff96d79d04d15d1ba1269e4fe57bb9d26f43523628b34ba108ec80608051526080518083528460408220915282528060805160ff604082205416156113d2575b505060805152526040608051206124f3565b507fffffffffffffffffffffffffffffffffffffffffffffffffffffffffffffff00600354161760035560805180f35b5260805180835284604082209152825260805160408120847fffffffffffffffffffffffffffffffffffffffffffffffffffffffffffffff0082541617905584827f2f8788117e7eff1d82e926ec794901d17c78024a50270940304540a733656f0d339380a48087611390565b5260805180835284604082209152825260805160408120847fffffffffffffffffffffffffffffffffffffffffffffffffffffffffffffff0082541617905584827f2f8788117e7eff1d82e926ec794901d17c78024a50270940304540a733656f0d339380a48087611330565b80526080518084528160408220915283526080516040812060017fffffffffffffffffffffffffffffffffffffffffffffffffffffffffffffff008254161790558133917f2f8788117e7eff1d82e926ec794901d17c78024a50270940304540a733656f0d8180a4836112cc565b60046040517ff92ee8a9000000000000000000000000000000000000000000000000000000008152fd5b346101485760406003193601126101485761155d611a5b565b611565611c3a565b60805180808093602435905af161157a612950565b50156115865760805180f35b60046040517f750b219c000000000000000000000000000000000000000000000000000000008152fd5b34610148576060600319360112610148576115c9611a5b565b6115d1611a33565b6115d9611c3a565b604051907fa9059cbb00000000000000000000000000000000000000000000000000000000602083015273ffffffffffffffffffffffffffffffffffffffff8091166024830152604435604483015260448252608082019282841067ffffffffffffffff85111761097957610142936040521661280d565b346101485760406003193601126101485761166a611a33565b3373ffffffffffffffffffffffffffffffffffffffff8216036116935761014290600435612224565b60846040517f08c379a000000000000000000000000000000000000000000000000000000000815260206004820152602f60248201527f416363657373436f6e74726f6c3a2063616e206f6e6c792072656e6f756e636560448201527f20726f6c657320666f722073656c6600000000000000000000000000000000006064820152fd5b3461014857608051806003193601126101ee57602073ffffffffffffffffffffffffffffffffffffffff60045416604051908152f35b34610148576040600319360112610148576117db600435600161176e611a33565b9180608051526080519061178c836040602094808652200154612083565b80608051526080519384835273ffffffffffffffffffffffffffffffffffffffff60408620911680955282528060805160ff604082205416156117e257505060805152526040608051206124f3565b5060805180f35b5260805180835284604082209152825260805160408120847fffffffffffffffffffffffffffffffffffffffffffffffffffffffffffffff0082541617905584827f2f8788117e7eff1d82e926ec794901d17c78024a50270940304540a733656f0d339380a48086611390565b346101485760206003193601126101485760043560805152602060016040608051808452200154604051908152f35b3461014857608051806003193601126101ee57611899612a74565b506118ec6118a5612782565b6040519182918291909160808060a0830194805184526020810151602085015267ffffffffffffffff80604083015116604086015260608201511660608501520151910152565b0390f35b3461014857602060031936011261014857611909612a74565b506004356080515260096020526118ec6118a56040608051206127c5565b34611a2f576020600319360112611a2f576004357fffffffff000000000000000000000000000000000000000000000000000000008116809103611a2b5760209250807f49007a5f000000000000000000000000000000000000000000000000000000001490811561199b575b5015158152f35b7f5a05180f000000000000000000000000000000000000000000000000000000008114915081156119ce575b5083611994565b7f7965db0b00000000000000000000000000000000000000000000000000000000811491508115611a01575b50836119c7565b7f01ffc9a700000000000000000000000000000000000000000000000000000000915014836119fa565b8280fd5b5080fd5b6024359073ffffffffffffffffffffffffffffffffffffffff82168203611a5657565b600080fd5b6004359073ffffffffffffffffffffffffffffffffffffffff82168203611a5657565b6064359067ffffffffffffffff82168203611a5657565b60a0810190811067ffffffffffffffff821117611ab157604052565b7f4e487b7100000000000000000000000000000000000000000000000000000000600052604160045260246000fd5b6060810190811067ffffffffffffffff821117611ab157604052565b6080810190811067ffffffffffffffff821117611ab157604052565b90601f7fffffffffffffffffffffffffffffffffffffffffffffffffffffffffffffffe0910116810190811067ffffffffffffffff821117611ab157604052565b67ffffffffffffffff8111611ab15760051b60200190565b81601f82011215611a5657803591611b8883611b59565b92611b966040519485611b18565b808452602092838086019260051b820101928311611a56578301905b828210611bc0575050505090565b81358152908301908301611bb2565b67ffffffffffffffff8111611ab157601f017fffffffffffffffffffffffffffffffffffffffffffffffffffffffffffffffe01660200190565b9181601f84011215611a565782359167ffffffffffffffff8311611a56576020808501948460051b010111611a5657565b3360009081527f20be27040b8e00df40bca0df34743417f3574a156386188f7d7f14369e5ee82b602090815260408083205490927f5d8e12c39142ff96d79d04d15d1ba1269e4fe57bb9d26f43523628b34ba108ec9160ff1615611c9e5750505050565b611ca733612366565b91845190611cb482611afc565b60428252848201926060368537825115611ee05760308453825190600191821015611ee05790607860218501536041915b818311611e1557505050611db9576048610a45938693611d8393611d7498519889937f416363657373436f6e74726f6c3a206163636f756e74200000000000000000008a860152611d3f815180928c6037890191016121be565b8401917f206973206d697373696e6720726f6c65200000000000000000000000000000006037840152518093868401906121be565b01036028810187520185611b18565b519283927f08c379a0000000000000000000000000000000000000000000000000000000008452600484015260248301906121e1565b6064848651907f08c379a000000000000000000000000000000000000000000000000000000000825280600483015260248201527f537472696e67733a20686578206c656e67746820696e73756666696369656e746044820152fd5b909192600f81166010811015611eb3577f3031323334353637383961626364656600000000000000000000000000000000901a611e528587612326565b5360041c928015611e86577fffffffffffffffffffffffffffffffffffffffffffffffffffffffffffffffff019190611ce5565b6024827f4e487b710000000000000000000000000000000000000000000000000000000081526011600452fd5b6024837f4e487b710000000000000000000000000000000000000000000000000000000081526032600452fd5b807f4e487b7100000000000000000000000000000000000000000000000000000000602492526032600452fd5b3360009081527f6058ee1f1c102e8ac9ef0c4319964e42c1ab00dfba021f8302fd0802656934ac602090815260408083205490927f4c02318d8c3aadc98ccf18aebbf3126f651e0c3f6a1de5ff8edcf6724a2ad5c29160ff1615611f715750505050565b611f7a33612366565b91845190611f8782611afc565b60428252848201926060368537825115611ee05760308453825190600191821015611ee05790607860218501536041915b81831161201257505050611db9576048610a45938693611d8393611d7498519889937f416363657373436f6e74726f6c3a206163636f756e74200000000000000000008a860152611d3f815180928c6037890191016121be565b909192600f81166010811015611eb3577f3031323334353637383961626364656600000000000000000000000000000000901a61204f8587612326565b5360041c928015611e86577fffffffffffffffffffffffffffffffffffffffffffffffffffffffffffffffff019190611fb8565b600090808252602090828252604092838120338252835260ff8482205416156120ac5750505050565b6120b533612366565b918451906120c282611afc565b60428252848201926060368537825115611ee05760308453825190600191821015611ee05790607860218501536041915b81831161214d57505050611db9576048610a45938693611d8393611d7498519889937f416363657373436f6e74726f6c3a206163636f756e74200000000000000000008a860152611d3f815180928c6037890191016121be565b909192600f81166010811015611eb3577f3031323334353637383961626364656600000000000000000000000000000000901a61218a8587612326565b5360041c928015611e86577fffffffffffffffffffffffffffffffffffffffffffffffffffffffffffffffff0191906120f3565b60005b8381106121d15750506000910152565b81810151838201526020016121c1565b907fffffffffffffffffffffffffffffffffffffffffffffffffffffffffffffffe0601f60209361221d815180928187528780880191016121be565b0116010190565b90604061226f926000908082528160205273ffffffffffffffffffffffffffffffffffffffff83832094169384835260205260ff8383205416612272575b81526001602052206125b4565b50565b808252816020528282208483526020528282207fffffffffffffffffffffffffffffffffffffffffffffffffffffffffffffff0081541690553384827ff6391f5c32d9c69d2a47ea670b442974b53935d1edc7fd64eb21e047a839171b8580a4612262565b818102929181159184041417156122ea57565b7f4e487b7100000000000000000000000000000000000000000000000000000000600052601160045260246000fd5b919082018092116122ea57565b908151811015612337570160200190565b7f4e487b7100000000000000000000000000000000000000000000000000000000600052603260045260246000fd5b6040519061237382611ae0565b602a82526020820160403682378251156123375760309053815160019081101561233757607860218401536029905b8082116124105750506123b25790565b60646040517f08c379a000000000000000000000000000000000000000000000000000000000815260206004820152602060248201527f537472696e67733a20686578206c656e67746820696e73756666696369656e746044820152fd5b9091600f811660108110156124ad577f3031323334353637383961626364656600000000000000000000000000000000901a61244c8486612326565b5360041c91801561247f577fffffffffffffffffffffffffffffffffffffffffffffffffffffffffffffffff01906123a2565b602460007f4e487b710000000000000000000000000000000000000000000000000000000081526011600452fd5b602460007f4e487b710000000000000000000000000000000000000000000000000000000081526032600452fd5b80548210156123375760005260206000200190600090565b919060018301600090828252806020526040822054156000146125ae5784549468010000000000000000861015612581578361257161253c886001604098999a018555846124db565b81939154907fffffffffffffffffffffffffffffffffffffffffffffffffffffffffffffffff9060031b92831b921b19161790565b9055549382526020522055600190565b6024837f4e487b710000000000000000000000000000000000000000000000000000000081526041600452fd5b50925050565b90600182019060009281845282602052604084205490811515600014612706577fffffffffffffffffffffffffffffffffffffffffffffffffffffffffffffffff918281018181116126d9578254908482019182116126ac57808203612677575b5050508054801561264a5782019161262d83836124db565b909182549160031b1b191690555582526020526040812055600190565b6024867f4e487b710000000000000000000000000000000000000000000000000000000081526031600452fd5b61269761268761253c93866124db565b90549060031b1c928392866124db565b90558652846020526040862055388080612615565b6024887f4e487b710000000000000000000000000000000000000000000000000000000081526011600452fd5b6024877f4e487b710000000000000000000000000000000000000000000000000000000081526011600452fd5b5050505090565b7fffffffffffffffffffffffffffffffffffffffffffffffffffffffffffffffff81146122ea5760010190565b80518210156123375760209160051b010190565b90815180825260208080930193019160005b82811061276e575050505090565b835185529381019392810192600101612760565b6040519061278f82611a95565b816005548152600654602082015260075467ffffffffffffffff90818116604084015260401c1660608201526080600854910152565b906040516127d281611a95565b6080600382948054845260018101546020850152600281015467ffffffffffffffff90818116604087015260401c1660608501520154910152565b73ffffffffffffffffffffffffffffffffffffffff1690604051604081019080821067ffffffffffffffff831117611ab15761288d916040526020938482527f5361666545524332303a206c6f772d6c6576656c2063616c6c206661696c6564858301526000808587829751910182855af1612887612950565b91612980565b80519182159184831561292c575b5050509050156128a85750565b608490604051907f08c379a00000000000000000000000000000000000000000000000000000000082526004820152602a60248201527f5361666545524332303a204552433230206f7065726174696f6e20646964206e60448201527f6f742073756363656564000000000000000000000000000000000000000000006064820152fd5b919381809450010312611a2f578201519081151582036101ee57508038808461289b565b3d1561297b573d9061296182611bcf565b9161296f6040519384611b18565b82523d6000602084013e565b606090565b919290156129fb5750815115612994575090565b3b1561299d5790565b60646040517f08c379a000000000000000000000000000000000000000000000000000000000815260206004820152601d60248201527f416464726573733a2063616c6c20746f206e6f6e2d636f6e74726163740000006044820152fd5b825190915015612a0e5750805190602001fd5b610a45906040519182917f08c379a00000000000000000000000000000000000000000000000000000000083526020600484015260248301906121e1565b908015918215612a6a575b508115612a62575090565b905042101590565b4210915038612a57565b60405190612a8182611a95565b60006080838281528260208201528260408201528260608201520152565b91929060009073ffffffffffffffffffffffffffffffffffffffff8316825260209060028252604093848420868552835260ff8585205416159788612aea575b505050505050505090565b909192939597508496989451907fffffffffffffffffffffffffffffffffffffffff0000000000000000000000008583019360601b168352603482015260348152612b3481611ae0565b51902090612b4188611b59565b97612b4e8751998a611b18565b8089528389019060051b820191368311612bdd578490915b838310612bcd57505050509183925b8751841015612bb857612b88848961273a565b519081811015612ba85785528252612ba28585209361270d565b92612b75565b9085528252612ba2858520610b53565b94509550505050143880808080808080612adf565b8235815291810191859101612b66565b8680fdfea26469706673582212200718b22fee7bc1d939554d52e8717e92b66810108ad0c7e128b71a1ffe6af4e364736f6c63430008130033","linkReferences":{}},"methodIdentifiers":{"DEFAULT_ADMIN_ROLE()":"a217fddf","checkMerkleProof(bytes32,bytes32[],address,bytes32)":"bad43661","getRoleAdmin(bytes32)":"248a9ca3","getRoleMember(bytes32,uint256)":"9010d07c","getRoleMemberCount(bytes32)":"ca15c873","globalSaleDetails()":"119cd50c","grantRole(bytes32,address)":"2f2ff15d","hasRole(bytes32,address)":"91d14854","initialize(address,address)":"485cc955","mint(address,uint256[],uint256[],bytes,address,uint256,bytes32[])":"60e606f6","paymentToken()":"3013ce29","renounceRole(bytes32,address)":"36568abe","revokeRole(bytes32,address)":"d547741f","setGlobalSaleDetails(uint256,uint256,uint64,uint64,bytes32)":"97559600","setPaymentToken(address)":"6a326ab1","setTokenSaleDetails(uint256,uint256,uint256,uint64,uint64,bytes32)":"4f651ccd","supportsInterface(bytes4)":"01ffc9a7","tokenSaleDetails(uint256)":"0869678c","withdrawERC20(address,address,uint256)":"44004cc1","withdrawETH(address,uint256)":"4782f779"},"id":93}