{"abi":[{"type":"constructor","inputs":[{"name":"factoryOwner","type":"address","internalType":"address"}],"stateMutability":"nonpayable"},{"type":"function","name":"beacon","inputs":[],"outputs":[{"name":"","type":"address","internalType":"contract UpgradeableBeacon"}],"stateMutability":"view"},{"type":"function","name":"deploy","inputs":[{"name":"proxyOwner","type":"address","internalType":"address"},{"name":"tokenOwner","type":"address","internalType":"address"},{"name":"name","type":"string","internalType":"string"},{"name":"baseURI","type":"string","internalType":"string"},{"name":"contractURI","type":"string","internalType":"string"},{"name":"royaltyReceiver","type":"address","internalType":"address"},{"name":"royaltyFeeNumerator","type":"uint96","internalType":"uint96"}],"outputs":[{"name":"proxyAddr","type":"address","internalType":"address"}],"stateMutability":"nonpayable"},{"type":"function","name":"determineAddress","inputs":[{"name":"proxyOwner","type":"address","internalType":"address"},{"name":"tokenOwner","type":"address","internalType":"address"},{"name":"name","type":"string","internalType":"string"},{"name":"baseURI","type":"string","internalType":"string"},{"name":"contractURI","type":"string","internalType":"string"},{"name":"royaltyReceiver","type":"address","internalType":"address"},{"name":"royaltyFeeNumerator","type":"uint96","internalType":"uint96"}],"outputs":[{"name":"proxyAddr","type":"address","internalType":"address"}],"stateMutability":"view"},{"type":"function","name":"owner","inputs":[],"outputs":[{"name":"","type":"address","internalType":"address"}],"stateMutability":"view"},{"type":"function","name":"renounceOwnership","inputs":[],"outputs":[],"stateMutability":"nonpayable"},{"type":"function","name":"transferOwnership","inputs":[{"name":"newOwner","type":"address","internalType":"address"}],"outputs":[],"stateMutability":"nonpayable"},{"type":"function","name":"upgradeBeacon","inputs":[{"name":"implementation","type":"address","internalType":"address"}],"outputs":[],"stateMutability":"nonpayable"},{"type":"event","name":"ERC1155ItemsDeployed","inputs":[{"name":"proxyAddr","type":"address","indexed":false,"internalType":"address"}],"anonymous":false},{"type":"event","name":"OwnershipTransferred","inputs":[{"name":"previousOwner","type":"address","indexed":true,"internalType":"address"},{"name":"newOwner","type":"address","indexed":true,"internalType":"address"}],"anonymous":false}],"bytecode":{"object":"0x608034610125576001600160401b0390601f6200663338819003918201601f191683019291908484118385101761010f57816020928492604096875283398101031261012557516001600160a01b038082168203610125576100603361012a565b82519361416594858101958187108388111761010f57620024ce823980600096039086f0908115610105578451916105ee808401928311848410176100f1579184849260209462001ee0853916815203019085f080156100e4576100d69394501660018060a01b0319600154161760015561012a565b51611d6e9081620001728239f35b50505051903d90823e3d90fd5b634e487b7160e01b88526041600452602488fd5b84513d87823e3d90fd5b634e487b7160e01b600052604160045260246000fd5b600080fd5b600080546001600160a01b039283166001600160a01b03198216811783559216907f8be0079c531659141344cd1fd0a4f28419497f9722a3daafe3b4186f6b6457e09080a356fe6040608081526004908136101561001557600080fd5b600091823560e01c80631bce4583146106cb57806338234f4d146103e657806359659e90146103935780636dbefeff1461029f578063715018a6146101ff5780638da5cb5b146101aa5763f2fde38b1461006e57600080fd5b346101a65760207ffffffffffffffffffffffffffffffffffffffffffffffffffffffffffffffffc3601126101a6576100a561078e565b906100ae61099f565b73ffffffffffffffffffffffffffffffffffffffff809216928315610123575050600054827fffffffffffffffffffffffff0000000000000000000000000000000000000000821617600055167f8be0079c531659141344cd1fd0a4f28419497f9722a3daafe3b4186f6b6457e0600080a380f35b90602060849251917f08c379a0000000000000000000000000000000000000000000000000000000008352820152602660248201527f4f776e61626c653a206e6577206f776e657220697320746865207a65726f206160448201527f64647265737300000000000000000000000000000000000000000000000000006064820152fd5b8280fd5b5050346101fb57817ffffffffffffffffffffffffffffffffffffffffffffffffffffffffffffffffc3601126101fb5773ffffffffffffffffffffffffffffffffffffffff60209254169051908152f35b5080fd5b833461029c57807ffffffffffffffffffffffffffffffffffffffffffffffffffffffffffffffffc36011261029c5761023661099f565b600073ffffffffffffffffffffffffffffffffffffffff81547fffffffffffffffffffffffff000000000000000000000000000000000000000081168355167f8be0079c531659141344cd1fd0a4f28419497f9722a3daafe3b4186f6b6457e08280a380f35b80fd5b5050346101fb576103536055600b6102d56102b9366108cb565b908b9c969a95949c9792975197889460209e8f87019788610a84565b03936103077fffffffffffffffffffffffffffffffffffffffffffffffffffffffffffffffe095868101835282610815565b51902092875192610317846107f9565b835273ffffffffffffffffffffffffffffffffffffffff966103478860015416948a519586938d85019889610af7565b03908101835282610815565b5190206111eb855161036788830182610815565b81815287810191610b4e83395190209085519186830152868201523081520160ff815320915191168152f35b5050346101fb57817ffffffffffffffffffffffffffffffffffffffffffffffffffffffffffffffffc3601126101fb5760209073ffffffffffffffffffffffffffffffffffffffff600154169051908152f35b5090346101a6576103f6366108cb565b91879996989399959495519960208b8b8b8a849f8b8a8a8a8a8a86019661041d9588610a84565b03937fffffffffffffffffffffffffffffffffffffffffffffffffffffffffffffffe09485810182526104509082610815565b51902092815194610460866107f9565b8d865273ffffffffffffffffffffffffffffffffffffffff9486866001541694519485938401966104919388610af7565b0390810182526104a19082610815565b5190208b516111eb908f6104b783820183610815565b828252810191610b4e833980511561066e57518392918df5169b8c15610612578160015416928d3b1561060e578b92838f92938f8c956105379151988997889687957fcf7a1d7700000000000000000000000000000000000000000000000000000000875216908501526024840152606060448401526064830190610a41565b03925af18015610604579089916105f0575b5050893b156105ec5791879594939161058d938a5198899788977ff89548180000000000000000000000000000000000000000000000000000000089528801610a84565b038183885af180156105e2576105ce575b50507f28a530eb465a41faf2a923830d2cd4e0301e87b2cddc112bda1a86048c3a54b2838251848152a151908152f35b6105d882916107b6565b61029c578061059e565b83513d84823e3d90fd5b8780fd5b6105f9906107b6565b6105ec578738610549565b8a513d8b823e3d90fd5b8b80fd5b6064888f8e51917f08c379a0000000000000000000000000000000000000000000000000000000008352820152601960248201527f437265617465323a204661696c6564206f6e206465706c6f79000000000000006044820152fd5b50506064888f808f51927f08c379a000000000000000000000000000000000000000000000000000000000845283015260248201527f437265617465323a2062797465636f6465206c656e677468206973207a65726f6044820152fd5b5090346101a65760207ffffffffffffffffffffffffffffffffffffffffffffffffffffffffffffffffc3601126101a6578261070561078e565b61070d61099f565b73ffffffffffffffffffffffffffffffffffffffff90816001541690813b1561078a5783602492865197889586947f3659cfe600000000000000000000000000000000000000000000000000000000865216908401525af19081156107815750610775575080f35b61077e906107b6565b80f35b513d84823e3d90fd5b8380fd5b6004359073ffffffffffffffffffffffffffffffffffffffff821682036107b157565b600080fd5b67ffffffffffffffff81116107ca57604052565b7f4e487b7100000000000000000000000000000000000000000000000000000000600052604160045260246000fd5b6020810190811067ffffffffffffffff8211176107ca57604052565b90601f7fffffffffffffffffffffffffffffffffffffffffffffffffffffffffffffffe0910116810190811067ffffffffffffffff8211176107ca57604052565b81601f820112156107b15780359067ffffffffffffffff82116107ca57604051926108a960207fffffffffffffffffffffffffffffffffffffffffffffffffffffffffffffffe0601f8601160185610815565b828452602083830101116107b157816000926020809301838601378301015290565b9060e07ffffffffffffffffffffffffffffffffffffffffffffffffffffffffffffffffc8301126107b15773ffffffffffffffffffffffffffffffffffffffff9060043582811681036107b1579260243583811681036107b1579267ffffffffffffffff926044358481116107b1578361094791600401610856565b936064358181116107b1578461095f91600401610856565b936084359182116107b15761097691600401610856565b9160a43590811681036107b1579060c4356bffffffffffffffffffffffff811681036107b15790565b73ffffffffffffffffffffffffffffffffffffffff6000541633036109c057565b60646040517f08c379a000000000000000000000000000000000000000000000000000000000815260206004820152602060248201527f4f776e61626c653a2063616c6c6572206973206e6f7420746865206f776e65726044820152fd5b60005b838110610a315750506000910152565b8181015183820152602001610a21565b907fffffffffffffffffffffffffffffffffffffffffffffffffffffffffffffffe0601f602093610a7d81518092818752878088019101610a1e565b0116010190565b9496959160a094610adc6bffffffffffffffffffffffff95610ace610aea9473ffffffffffffffffffffffffffffffffffffffff8097168b5260c060208c015260c08b0190610a41565b9089820360408b0152610a41565b908782036060890152610a41565b9616608085015216910152565b9190926048949383527fffffffffffffffffffffffffffffffffffffffff000000000000000000000000809260601b16602084015260601b166034820152610b488251809360208685019101610a1e565b01019056fe60808060405234610016576111cf908161001c8239f35b600080fdfe604060808152366103825773ffffffffffffffffffffffffffffffffffffffff807fb53127684a568b3173ae13b9f8a6016e243e63b6e8ee1178d6a717850b5d61035416158015610b94576000917fcf7a1d77000000000000000000000000000000000000000000000000000000007fffffffff00000000000000000000000000000000000000000000000000000000843516146100c057600484517ff92ee8a9000000000000000000000000000000000000000000000000000000008152fd5b6100c8611192565b60049136831161037e5760607ffffffffffffffffffffffffffffffffffffffffffffffffffffffffffffffffc36011261037e578235916101088361067f565b602435926101158461067f565b60443567ffffffffffffffff811161037a57610135839136908801610789565b941692156103525761014791166107e3565b803b156102cf578451907f5c60da1b000000000000000000000000000000000000000000000000000000009384835260209687848381865afa9384156102a657889461019d9189916102b2575b503b1515610926565b7fa3f0ad74e5423aebfd80d3ef4346578335a9a72aeaee59ff6cb3582b35133d5080547fffffffffffffffffffffffff00000000000000000000000000000000000000001673ffffffffffffffffffffffffffffffffffffffff85161790555194827f1cf3b03a6cf19fa2baba4df148e9dcabedea7f8a5c07840e207e5c089be95d3e8880a28451158015906102ab575b610242575b8361023c6107d0565b80519101f35b8592839182525afa9182156102a65761026a9392610277575b506102646109b1565b91610a21565b5038808083818080610233565b610298919250843d861161029f575b610290818361070e565b810190610902565b903861025b565b503d610286565b61091a565b508661022e565b6102c99150863d881161029f57610290818361070e565b38610194565b60848360208751917f08c379a0000000000000000000000000000000000000000000000000000000008352820152602560248201527f455243313936373a206e657720626561636f6e206973206e6f74206120636f6e60448201527f74726163740000000000000000000000000000000000000000000000000000006064820152fd5b8487517ff92ee8a9000000000000000000000000000000000000000000000000000000008152fd5b8680fd5b8380fd5b73ffffffffffffffffffffffffffffffffffffffff807fb53127684a568b3173ae13b9f8a6016e243e63b6e8ee1178d6a717850b5d61035416158015610b94576000907fcf7a1d77000000000000000000000000000000000000000000000000000000007fffffffff00000000000000000000000000000000000000000000000000000000833516146104395760046040517ff92ee8a9000000000000000000000000000000000000000000000000000000008152fd5b610441611192565b60049236841161067b5760607ffffffffffffffffffffffffffffffffffffffffffffffffffffffffffffffffc36011261067b5783356104808161067f565b6024359161048d8361067f565b60443567ffffffffffffffff8111610677576104ad829136908901610789565b9316931561064e576104bf91166107e3565b813b156105ca576040517f5c60da1b000000000000000000000000000000000000000000000000000000009283825260209586838281855afa9283156102a65787936105149188916105b357503b1515610926565b7fa3f0ad74e5423aebfd80d3ef4346578335a9a72aeaee59ff6cb3582b35133d5080547fffffffffffffffffffffffff00000000000000000000000000000000000000001673ffffffffffffffffffffffffffffffffffffffff841617905560405194827f1cf3b03a6cf19fa2baba4df148e9dcabedea7f8a5c07840e207e5c089be95d3e8880a28451158015906102ab57610242578361023c6107d0565b6102c99150853d871161029f57610290818361070e565b6084846020604051917f08c379a0000000000000000000000000000000000000000000000000000000008352820152602560248201527f455243313936373a206e657720626561636f6e206973206e6f74206120636f6e60448201527f74726163740000000000000000000000000000000000000000000000000000006064820152fd5b856040517ff92ee8a9000000000000000000000000000000000000000000000000000000008152fd5b8580fd5b8280fd5b73ffffffffffffffffffffffffffffffffffffffff81160361069d57565b600080fd5b7f4e487b7100000000000000000000000000000000000000000000000000000000600052604160045260246000fd5b6020810190811067ffffffffffffffff8211176106ed57604052565b6106a2565b6040810190811067ffffffffffffffff8211176106ed57604052565b90601f7fffffffffffffffffffffffffffffffffffffffffffffffffffffffffffffffe0910116810190811067ffffffffffffffff8211176106ed57604052565b67ffffffffffffffff81116106ed57601f017fffffffffffffffffffffffffffffffffffffffffffffffffffffffffffffffe01660200190565b81601f8201121561069d578035906107a08261074f565b926107ae604051948561070e565b8284526020838301011161069d57816000926020809301838601378301015290565b604051906107dd826106d1565b60008252565b7fb53127684a568b3173ae13b9f8a6016e243e63b6e8ee1178d6a717850b5d61039081547f7e644d79422f17c01e4894b5f4f588d331ebfa28653d42ae832dc59e38c9798f604080519373ffffffffffffffffffffffffffffffffffffffff9081851686521693846020820152a1811561087e577fffffffffffffffffffffffff000000000000000000000000000000000000000016179055565b60846040517f08c379a000000000000000000000000000000000000000000000000000000000815260206004820152602660248201527f455243313936373a206e65772061646d696e20697320746865207a65726f206160448201527f64647265737300000000000000000000000000000000000000000000000000006064820152fd5b9081602091031261069d57516109178161067f565b90565b6040513d6000823e3d90fd5b1561092d57565b60846040517f08c379a000000000000000000000000000000000000000000000000000000000815260206004820152603060248201527f455243313936373a20626561636f6e20696d706c656d656e746174696f6e206960448201527f73206e6f74206120636f6e7472616374000000000000000000000000000000006064820152fd5b604051906060820182811067ffffffffffffffff8211176106ed57604052602782527f206661696c6564000000000000000000000000000000000000000000000000006040837f416464726573733a206c6f772d6c6576656c2064656c65676174652063616c6c60208201520152565b6000806109179493602081519101845af43d15610a60573d91610a438361074f565b92610a51604051948561070e565b83523d6000602085013e610acd565b606091610acd565b15610a6f57565b60646040517f08c379a000000000000000000000000000000000000000000000000000000000815260206004820152601d60248201527f416464726573733a2063616c6c20746f206e6f6e2d636f6e74726163740000006044820152fd5b91929015610aed5750815115610ae1575090565b610917903b1515610a68565b825190915015610b005750805190602001fd5b604051907f08c379a000000000000000000000000000000000000000000000000000000000825281602080600483015282519283602484015260005b848110610b7d575050507fffffffffffffffffffffffffffffffffffffffffffffffffffffffffffffffe0601f836000604480968601015201168101030190fd5b818101830151868201604401528593508201610b3c565b610bee610bd57fb53127684a568b3173ae13b9f8a6016e243e63b6e8ee1178d6a717850b5d61035473ffffffffffffffffffffffffffffffffffffffff1690565b73ffffffffffffffffffffffffffffffffffffffff1690565b3303610d14576000357fffffffff00000000000000000000000000000000000000000000000000000000167f3659cfe6000000000000000000000000000000000000000000000000000000008103610c515750610c49610f0f565b602081519101f35b7f4f1ef286000000000000000000000000000000000000000000000000000000008103610c865750610c81611083565b610c49565b7f8f283970000000000000000000000000000000000000000000000000000000008103610cb65750610c81610ec5565b7ff851a440000000000000000000000000000000000000000000000000000000008103610ce65750610c81610dfd565b7f5c60da1b0000000000000000000000000000000000000000000000000000000003610d1457610c81610e53565b610d1c610d3b565b6000808092368280378136915af43d82803e15610d37573d90f35b3d90fd5b73ffffffffffffffffffffffffffffffffffffffff807f360894a13ba1a3210667c828492db98dca3e2076cc3735a920a3ca505d382bbc541680610df8575060206004917fa3f0ad74e5423aebfd80d3ef4346578335a9a72aeaee59ff6cb3582b35133d505416604051928380927f5c60da1b0000000000000000000000000000000000000000000000000000000082525afa9081156102a657600091610de0575090565b610917915060203d811161029f57610290818361070e565b905090565b610e05611192565b73ffffffffffffffffffffffffffffffffffffffff7fb53127684a568b3173ae13b9f8a6016e243e63b6e8ee1178d6a717850b5d6103541660405190602082015260208152610917816106f2565b610e5b611192565b610e63610d3b565b73ffffffffffffffffffffffffffffffffffffffff6040519116602082015260208152610917816106f2565b7ffffffffffffffffffffffffffffffffffffffffffffffffffffffffffffffffc602091011261069d576004356109178161067f565b610ecd611192565b3660041161069d57610efc73ffffffffffffffffffffffffffffffffffffffff610ef636610e8f565b166107e3565b604051610f08816106d1565b6000815290565b610f17611192565b3660041161069d5773ffffffffffffffffffffffffffffffffffffffff610f3d36610e8f565b1660405190610f4b826106d1565b60008252803b15610fff577f360894a13ba1a3210667c828492db98dca3e2076cc3735a920a3ca505d382bbc817fffffffffffffffffffffffff0000000000000000000000000000000000000000825416179055807fbc7cd75a20ee27fd9adebab32041f755214dbc6bffa90cc0225b39da2e5c2d3b600080a2815115801590610ff7575b610fe3575b5050604051610f08816106d1565b610fef916102646109b1565b503880610fd5565b506000610fd0565b60846040517f08c379a000000000000000000000000000000000000000000000000000000000815260206004820152602d60248201527f455243313936373a206e657720696d706c656d656e746174696f6e206973206e60448201527f6f74206120636f6e7472616374000000000000000000000000000000000000006064820152fd5b3660041161069d5760407ffffffffffffffffffffffffffffffffffffffffffffffffffffffffffffffffc36011261069d576004356110c18161067f565b60243567ffffffffffffffff811161069d576110f673ffffffffffffffffffffffffffffffffffffffff913690600401610789565b9116803b15610fff577f360894a13ba1a3210667c828492db98dca3e2076cc3735a920a3ca505d382bbc817fffffffffffffffffffffffff0000000000000000000000000000000000000000825416179055807fbc7cd75a20ee27fd9adebab32041f755214dbc6bffa90cc0225b39da2e5c2d3b600080a281511580159061118a57610fe3575050604051610f08816106d1565b506001610fd0565b3461069d5756fea26469706673582212200ba1d21ac2e0fbf3b66227d51b6eb0b8c5a36311eafb99821d17d6903b4a319164736f6c63430008130033a2646970667358221220ca514d9fdeb87a1ff2d82329795a5e1ba45112fb990fe1bc8883f875cdea9c8064736f6c6343000813003360803461011a57601f6105ee38819003918201601f19168301916001600160401b0383118484101761011f5780849260209460405283398101031261011a57516001600160a01b03808216919082820361011a576000549160018060a01b0319923384821617600055604051923391167f8be0079c531659141344cd1fd0a4f28419497f9722a3daafe3b4186f6b6457e0600080a33b156100b2575060015416176001556040516104b890816101368239f35b62461bcd60e51b815260206004820152603360248201527f5570677261646561626c65426561636f6e3a20696d706c656d656e746174696f60448201527f6e206973206e6f74206120636f6e7472616374000000000000000000000000006064820152608490fd5b600080fd5b634e487b7160e01b600052604160045260246000fdfe6080604052600436101561001257600080fd5b6000803560e01c80633659cfe6146102ce5780635c60da1b1461027c578063715018a6146101e05780638da5cb5b1461018f5763f2fde38b1461005457600080fd5b3461018c5760207ffffffffffffffffffffffffffffffffffffffffffffffffffffffffffffffffc36011261018c5760043573ffffffffffffffffffffffffffffffffffffffff808216809203610188576100ad610403565b8115610104578254827fffffffffffffffffffffffff00000000000000000000000000000000000000008216178455167f8be0079c531659141344cd1fd0a4f28419497f9722a3daafe3b4186f6b6457e08380a380f35b60846040517f08c379a000000000000000000000000000000000000000000000000000000000815260206004820152602660248201527f4f776e61626c653a206e6577206f776e657220697320746865207a65726f206160448201527f64647265737300000000000000000000000000000000000000000000000000006064820152fd5b8280fd5b80fd5b503461018c57807ffffffffffffffffffffffffffffffffffffffffffffffffffffffffffffffffc36011261018c5773ffffffffffffffffffffffffffffffffffffffff6020915416604051908152f35b503461018c57807ffffffffffffffffffffffffffffffffffffffffffffffffffffffffffffffffc36011261018c57610217610403565b8073ffffffffffffffffffffffffffffffffffffffff81547fffffffffffffffffffffffff000000000000000000000000000000000000000081168355167f8be0079c531659141344cd1fd0a4f28419497f9722a3daafe3b4186f6b6457e08280a380f35b503461018c57807ffffffffffffffffffffffffffffffffffffffffffffffffffffffffffffffffc36011261018c57602073ffffffffffffffffffffffffffffffffffffffff60015416604051908152f35b503461018c5760207ffffffffffffffffffffffffffffffffffffffffffffffffffffffffffffffffc36011261018c5760043573ffffffffffffffffffffffffffffffffffffffff81169081810361018857610328610403565b3b1561037f57807fffffffffffffffffffffffff000000000000000000000000000000000000000060015416176001557fbc7cd75a20ee27fd9adebab32041f755214dbc6bffa90cc0225b39da2e5c2d3b8280a280f35b60846040517f08c379a000000000000000000000000000000000000000000000000000000000815260206004820152603360248201527f5570677261646561626c65426561636f6e3a20696d706c656d656e746174696f60448201527f6e206973206e6f74206120636f6e7472616374000000000000000000000000006064820152fd5b73ffffffffffffffffffffffffffffffffffffffff60005416330361042457565b60646040517f08c379a000000000000000000000000000000000000000000000000000000000815260206004820152602060248201527f4f776e61626c653a2063616c6c6572206973206e6f7420746865206f776e65726044820152fdfea26469706673582212206d6669e7216f33fbfd554999d569b5fe43670355d84777aee170c8d658ab91b864736f6c6343000813003360a060405234620002ec5762000014620002f1565b6200001e620002f1565b815190916001600160401b0390818311620001ed576005938454916001948584811c9416918215620002e1575b60209283861014620002cb578190601f9586811162000277575b5083908683116001146200020f5760009262000203575b5050600019600383901b1c191690861b1786555b8151938411620001ed576004958654908682811c92168015620001e2575b83831014620001cd5784821162000184575b5050809284116001146200011957509282939183926000946200010d575b50501b916000199060031b1c19161790555b33608052604051613e4f90816200031682396080518161024b0152f35b015192503880620000de565b919083601f1981168760005284600020946000905b888383106200016957505050106200014f575b505050811b019055620000f0565b015160001960f88460031b161c1916905538808062000141565b8587015188559096019594850194879350908101906200012e565b87600052826000209085808801821c830193858910620001c3575b01901c019086905b828110620001b65750620000c0565b60008155018690620001a7565b935082936200019f565b602288634e487b7160e01b6000525260246000fd5b91607f1691620000ae565b634e487b7160e01b600052604160045260246000fd5b0151905038806200007c565b90889350601f198316918a600052856000209260005b8782821062000260575050841162000246575b505050811b01865562000090565b015160001960f88460031b161c1916905538808062000238565b8385015186558c9790950194938401930162000225565b9091508860005283600020868085018b1c820192868610620002c1575b918a9186959493018c1c01915b828110620002b157505062000065565b600081558594508a9101620002a1565b9250819262000294565b634e487b7160e01b600052602260045260246000fd5b93607f16936200004b565b600080fd5b60405190602082016001600160401b03811183821017620001ed576040526000825256fe608080604052600436101561001357600080fd5b60003560e01c908162fdd58e14612a7e5750806301ffc9a7146129df57806304634d8d1461299d57806306fdde03146128f75780630b5ee0061461277e5780630e89341c1461261857806318160ddd146125fa57806320ec271b146124c1578063248a9ca3146124925780632693ebf2146124665780632a55205a146123835780632eb2c2d614611ebf5780632f2ff15d14611dcb57806336568abe14611d055780634e1273f414611b165780635944c753146119f85780636c0360eb14611952578063731133e9146118005780637e518ec8146116865780639010d07c1461163357806391d14854146115d8578063938e3d7b1461145e578063a217fddf14611442578063a22cb46514611391578063b390c0ab14611302578063b48ab8b614610ff0578063ca15c87314610fc4578063d547741f14610f83578063e8a3d48514610e7f578063e985e9c514610e1b578063f242432a14610a8f5763f89548181461017e57600080fd5b34610a8a5760c0600319360112610a8a57610197612ace565b60243567ffffffffffffffff8111610a8a576101b7903690600401612c26565b9060443567ffffffffffffffff8111610a8a576101d8903690600401612c26565b9060643567ffffffffffffffff8111610a8a576101f9903690600401612c26565b9073ffffffffffffffffffffffffffffffffffffffff6084351660843503610a8a576bffffffffffffffffffffffff60a4351660a43503610a8a5773ffffffffffffffffffffffffffffffffffffffff7f0000000000000000000000000000000000000000000000000000000000000000163314801590610a7e575b610a5457835167ffffffffffffffff81116107ff57610295600554612b14565b601f81116109b1575b50602094601f821160011461092d57948192939495600092610922575b50506000198260011b9260031b1c1916176005555b825167ffffffffffffffff81116107ff576102ec600454612b14565b601f81116108bd575b506020601f8211600114610839578192939460009261082e575b50506000198260011b9260031b1c1916176004555b81519167ffffffffffffffff83116107ff57610341600a54612b14565b601f811161079a575b50602090601f84116001146107115761051c939160009183610706575b50506000198260011b9260031b1c191617600a555b73ffffffffffffffffffffffffffffffffffffffff1660008181527f5eff886ea0ce6ca488a3d6e336d6c0f75f46d19b42c06ce5ee98e42c96d256c7602052604090205460089060ff1615610697575b6000805260096020526103ff827fec8156718a8372b1db44bb411437d0870f3e3790d4a08526d024ce1b0b668f6b613809565b507f6db4061a20ca83a3be756ee172bd37a029093ac5afe4ce968c6d5435b43cb011806000528160205260406000208360005260205260ff6040600020541615610628575b600052600960205261045a826040600020613809565b507fe02a0315b383857ac496e9d2b2546a699afaeb4e5e83a1fdef64376d0b74e5a5806000528160205260406000208360005260205260ff60406000205416156105b9575b60005260096020526104b5826040600020613809565b506104c460a435608435613a72565b7f9f2df0fed2c77648de5860a4cc508cd0818c85b8b8a1ab4ceeef8d981c8956a690816000528060205260406000208360005260205260ff604060002054161561054a575b5060005260096020526040600020613809565b50600b80547fffffffffffffffffffffffffffffffffffffffffffffffffffffffffffffff00166001179055005b81600052602052604060002082600052602052604060002060017fffffffffffffffffffffffffffffffffffffffffffffffffffffffffffffff008254161790553382827f2f8788117e7eff1d82e926ec794901d17c78024a50270940304540a733656f0d600080a438610509565b8060005281602052604060002083600052602052604060002060017fffffffffffffffffffffffffffffffffffffffffffffffffffffffffffffff008254161790553383827f2f8788117e7eff1d82e926ec794901d17c78024a50270940304540a733656f0d600080a461049f565b8060005281602052604060002083600052602052604060002060017fffffffffffffffffffffffffffffffffffffffffffffffffffffffffffffff008254161790553383827f2f8788117e7eff1d82e926ec794901d17c78024a50270940304540a733656f0d600080a4610444565b6000805280602052604060002082600052602052604060002060017fffffffffffffffffffffffffffffffffffffffffffffffffffffffffffffff00825416179055338260007f2f8788117e7eff1d82e926ec794901d17c78024a50270940304540a733656f0d8180a46103cc565b015190503880610367565b90601f19841691600a6000527fc65a7bb8d6351c1cf70c95a316cc6a92839c986682d98bc35f958f4883f9d2a89260005b818110610782575091600193918661051c979410610769575b505050811b01600a5561037c565b015160001960f88460031b161c1916905538808061075b565b92936020600181928786015181550195019301610742565b600a6000527fc65a7bb8d6351c1cf70c95a316cc6a92839c986682d98bc35f958f4883f9d2a8601f850160051c810191602086106107f5575b601f0160051c01905b8181106107e9575061034a565b600081556001016107dc565b90915081906107d3565b7f4e487b7100000000000000000000000000000000000000000000000000000000600052604160045260246000fd5b01519050388061030f565b601f1982169060046000527f8a35acfbc15ff81a39ae7d344fd709f28e8600b4aa8c65c6b64bfe7fe36bd19b9160005b8181106108a55750958360019596971061088c575b505050811b01600455610324565b015160001960f88460031b161c1916905538808061087e565b9192602060018192868b015181550194019201610869565b60046000527f8a35acfbc15ff81a39ae7d344fd709f28e8600b4aa8c65c6b64bfe7fe36bd19b601f830160051c81019160208410610918575b601f0160051c01905b81811061090c57506102f5565b600081556001016108ff565b90915081906108f6565b0151905038806102bb565b601f1982169560056000527f036b6384b5eca791c62761152d0c79bb0604c104a5fb6f4eb0703f3154bb3db09160005b88811061099957508360019596979810610980575b505050811b016005556102d0565b015160001960f88460031b161c19169055388080610972565b9192602060018192868501518155019401920161095d565b6005600052601f820160051c7f036b6384b5eca791c62761152d0c79bb0604c104a5fb6f4eb0703f3154bb3db0019060208310610a2c575b601f0160051c7f036b6384b5eca791c62761152d0c79bb0604c104a5fb6f4eb0703f3154bb3db001905b818110610a20575061029e565b60008155600101610a13565b7f036b6384b5eca791c62761152d0c79bb0604c104a5fb6f4eb0703f3154bb3db091506109e9565b60046040517ff92ee8a9000000000000000000000000000000000000000000000000000000008152fd5b5060ff600b5416610275565b600080fd5b34610a8a5760a0600319360112610a8a57610aa8612ace565b610ab0612af1565b906044356064359260843567ffffffffffffffff8111610a8a57610ad8903690600401612c26565b73ffffffffffffffffffffffffffffffffffffffff809416938433148015610df7575b15610d73578216918215610cef57846000526020956000875260406000208560005287526040600020610b2f828254612d2d565b9055836000526000875260406000208560005287526040600020610b54828254612d3a565b90558386604051878152838a8201527fc3d58168c5ae7397731d063d5bbf3d657854427343f4c083240f7aacaa2d0f6260403392a4610b935a92612f17565b610b9957005b60008794610bf696604051978896879586937ff23a6e61000000000000000000000000000000000000000000000000000000009c8d865233600487015260248601526044850152606484015260a0608484015260a4830190612be5565b0393f18015610ce3577fffffffff0000000000000000000000000000000000000000000000000000000091600091610cb6575b501603610c3257005b608490604051907f08c379a00000000000000000000000000000000000000000000000000000000082526004820152603a60248201527f45524331313535235f63616c6c6f6e4552433131353552656365697665643a2060448201527f494e56414c49445f4f4e5f524543454956455f4d4553534147450000000000006064820152fd5b610cd69150843d8611610cdc575b610cce8183612b9f565b810190612d47565b84610c29565b503d610cc4565b6040513d6000823e3d90fd5b60846040517f08c379a000000000000000000000000000000000000000000000000000000000815260206004820152602b60248201527f4552433131353523736166655472616e7366657246726f6d3a20494e56414c4960448201527f445f524543495049454e540000000000000000000000000000000000000000006064820152fd5b60846040517f08c379a000000000000000000000000000000000000000000000000000000000815260206004820152602a60248201527f4552433131353523736166655472616e7366657246726f6d3a20494e56414c4960448201527f445f4f50455241544f52000000000000000000000000000000000000000000006064820152fd5b5084600052600160205260406000203360005260205260ff60406000205416610afb565b34610a8a576040600319360112610a8a57610e34612ace565b610e3c612af1565b9073ffffffffffffffffffffffffffffffffffffffff809116600052600160205260406000209116600052602052602060ff604060002054166040519015158152f35b34610a8a576000600319360112610a8a576040516000600a54610ea181612b14565b80845290600190818116908115610f3e5750600114610ee3575b610edf84610ecb81860382612b9f565b604051918291602083526020830190612be5565b0390f35b600a600090815292507fc65a7bb8d6351c1cf70c95a316cc6a92839c986682d98bc35f958f4883f9d2a85b828410610f26575050508101602001610ecb82610ebb565b80546020858701810191909152909301928101610f0e565b7fffffffffffffffffffffffffffffffffffffffffffffffffffffffffffffff001660208087019190915292151560051b85019092019250610ecb9150839050610ebb565b34610a8a576040600319360112610a8a57610fc2600435610fa2612af1565b90806000526008602052610fbd6001604060002001546134b6565b6135d4565b005b34610a8a576020600319360112610a8a5760043560005260096020526020604060002054604051908152f35b34610a8a57600319608081360112610a8a5761100a612ace565b9067ffffffffffffffff602435818111610a8a5761102c903690600401612c85565b92604435828111610a8a57611045903690600401612c85565b91606435908111610a8a5761105e903690600401612c26565b9061106761335e565b8451835181036112d85760008073ffffffffffffffffffffffffffffffffffffffff8416925b80831061124557506110a29150600254612d3a565b6002558060006040517f4a39dc06d4c0dbc64b70af90fd698a233a518aa5d07e595d983b8c0526c8f7fb3391806110da8a8d83612dd1565b0390a46110e75a92612f17565b6110ed57005b600061115891602095611167604051988997889687946111487fbc197c81000000000000000000000000000000000000000000000000000000009e8f885233600489015289602489015260a0604489015260a4880190612cf9565b9084878303016064880152612cf9565b91848303016084850152612be5565b0393f18015610ce3577fffffffff0000000000000000000000000000000000000000000000000000000091600091611227575b5016036111a357005b60846040517f08c379a000000000000000000000000000000000000000000000000000000000815260206004820152603f60248201527f45524331313535235f63616c6c6f6e455243313135354261746368526563656960448201527f7665643a20494e56414c49445f4f4e5f524543454956455f4d455353414745006064820152fd5b61123f915060203d8111610cdc57610cce8183612b9f565b8361119a565b906112cb6112d1918a60038a6112a38861129c816112638186612d8e565b51948d60005260209560008752604060002061127f848b612d8e565b5160005287526112956040600020918254612d3a565b9055612d8e565b5194612d8e565b51600052526112b86040600020918254612d3a565b90556112c4858a612d8e565b5190612d3a565b92612d7f565b919061108d565b60046040517f9d89020a000000000000000000000000000000000000000000000000000000008152fd5b34610a8a57600061131236612ce3565b61131e81600254612d2d565b600255818352600360205260408320611338828254612d2d565b905533835282602052604083208284526020526040832061135a828254612d2d565b9055604051918252602082015233907fc3d58168c5ae7397731d063d5bbf3d657854427343f4c083240f7aacaa2d0f6260403392a4005b34610a8a576040600319360112610a8a576113aa612ace565b602435801515809103610a8a5733600052600160205273ffffffffffffffffffffffffffffffffffffffff60406000209216918260005260205260406000207fffffffffffffffffffffffffffffffffffffffffffffffffffffffffffffff0081541660ff83161790556040519081527f17307eab39ab6107e8899845ad3d59bd9653f200f220920489ca2b5937696c3160203392a3005b34610a8a576000600319360112610a8a57602060405160008152f35b34610a8a57602080600319360112610a8a5767ffffffffffffffff600435818111610a8a57611491903690600401612c26565b9161149a613206565b82519182116107ff576114ae600a54612b14565b601f8111611574575b5080601f83116001146114f3575081926000926114e8575b50506000198260011b9260031b1c191617600a55600080f35b0151905082806114cf565b90601f19831693600a6000527fc65a7bb8d6351c1cf70c95a316cc6a92839c986682d98bc35f958f4883f9d2a8926000905b86821061155c5750508360019510611543575b505050811b01600a55005b015160001960f88460031b161c19169055828080611538565b80600185968294968601518155019501930190611525565b600a6000527fc65a7bb8d6351c1cf70c95a316cc6a92839c986682d98bc35f958f4883f9d2a8601f840160051c8101918385106115ce575b601f0160051c01905b8181106115c257506114b7565b600081556001016115b5565b90915081906115ac565b34610a8a576040600319360112610a8a576115f1612af1565b600435600052600860205273ffffffffffffffffffffffffffffffffffffffff60406000209116600052602052602060ff604060002054166040519015158152f35b34610a8a576040600319360112610a8a576004356000526009602052602073ffffffffffffffffffffffffffffffffffffffff61167660243560406000206137f1565b9190546040519260031b1c168152f35b34610a8a57602080600319360112610a8a5767ffffffffffffffff600435818111610a8a576116b9903690600401612c26565b916116c2613206565b82519182116107ff576116d6600454612b14565b601f811161179c575b5080601f831160011461171b57508192600092611710575b50506000198260011b9260031b1c191617600455600080f35b0151905082806116f7565b90601f1983169360046000527f8a35acfbc15ff81a39ae7d344fd709f28e8600b4aa8c65c6b64bfe7fe36bd19b926000905b868210611784575050836001951061176b575b505050811b01600455005b015160001960f88460031b161c19169055828080611760565b8060018596829496860151815501950193019061174d565b60046000527f8a35acfbc15ff81a39ae7d344fd709f28e8600b4aa8c65c6b64bfe7fe36bd19b601f840160051c8101918385106117f6575b601f0160051c01905b8181106117ea57506116df565b600081556001016117dd565b90915081906117d4565b34610a8a576080600319360112610a8a57611819612ace565b60243560443560643567ffffffffffffffff8111610a8a5761183f903690600401612c26565b9261184861335e565b61185482600254612d3a565b60025582600052602093600385526040600020611872848254612d3a565b905573ffffffffffffffffffffffffffffffffffffffff8216918260005260008652604060002085600052865260406000206118af858254612d3a565b905582600060405187815286898201527fc3d58168c5ae7397731d063d5bbf3d657854427343f4c083240f7aacaa2d0f6260403392a46118ef5a91612f17565b6118f557005b610bf693600087946040518097819682957ff23a6e61000000000000000000000000000000000000000000000000000000009b8c85523360048601528660248601526044850152606484015260a0608484015260a4830190612be5565b34610a8a576000600319360112610a8a57604051600060045461197481612b14565b80845290600190818116908115610f3e575060011461199d57610edf84610ecb81860382612b9f565b6004600090815292507f8a35acfbc15ff81a39ae7d344fd709f28e8600b4aa8c65c6b64bfe7fe36bd19b5b8284106119e0575050508101602001610ecb82610ebb565b805460208587018101919091529093019281016119c8565b34610a8a576060600319360112610a8a57611a11612af1565b6044356bffffffffffffffffffffffff8116809103610a8a57611a32612f4d565b611a406127108211156139e7565b73ffffffffffffffffffffffffffffffffffffffff809216918215611ab8577fffffffffffffffffffffffff00000000000000000000000000000000000000009060405193611a8e85612b67565b84526020840192835260043560005260076020526040600020935116915160a01b16179055600080f35b60646040517f08c379a000000000000000000000000000000000000000000000000000000000815260206004820152601b60248201527f455243323938313a20496e76616c696420706172616d657465727300000000006044820152fd5b34610a8a576040600319360112610a8a5760043567ffffffffffffffff808211610a8a5736602383011215610a8a57816004013590611b5482612c6d565b92611b626040519485612b9f565b82845260209260248486019160051b83010191368311610a8a57602401905b828210611cd957505050602435908111610a8a57611ba3903690600401612c85565b8251815103611c5557825190601f19611bd4611bbe84612c6d565b93611bcc6040519586612b9f565b808552612c6d565b01368484013760005b8451811015611c42578073ffffffffffffffffffffffffffffffffffffffff611c09611c3d9388612d8e565b5116600052600085526040600020611c218285612d8e565b516000528552604060002054611c378286612d8e565b52612d7f565b611bdd565b60405184815280610edf81870186612cf9565b608482604051907f08c379a00000000000000000000000000000000000000000000000000000000082526004820152602c60248201527f455243313135352362616c616e63654f6642617463683a20494e56414c49445f60448201527f41525241595f4c454e47544800000000000000000000000000000000000000006064820152fd5b813573ffffffffffffffffffffffffffffffffffffffff81168103610a8a578152908401908401611b81565b34610a8a576040600319360112610a8a57611d1e612af1565b3373ffffffffffffffffffffffffffffffffffffffff821603611d4757610fc2906004356135d4565b60846040517f08c379a000000000000000000000000000000000000000000000000000000000815260206004820152602f60248201527f416363657373436f6e74726f6c3a2063616e206f6e6c792072656e6f756e636560448201527f20726f6c657320666f722073656c6600000000000000000000000000000000006064820152fd5b34610a8a576040600319360112610a8a57610fc26004356009611dec612af1565b918060005260209060088252611e096001604060002001546134b6565b806000526008825273ffffffffffffffffffffffffffffffffffffffff604060002094169384600052825260ff6040600020541615611e51575b600052526040600020613809565b80600052600882526040600020846000528252604060002060017fffffffffffffffffffffffffffffffffffffffffffffffffffffffffffffff008254161790553384827f2f8788117e7eff1d82e926ec794901d17c78024a50270940304540a733656f0d600080a4611e43565b34610a8a5760a0600319360112610a8a57611ed8612ace565b611ee0612af1565b9060449067ffffffffffffffff908235828111610a8a57611f05903690600401612c85565b6064948535848111610a8a57611f1f903690600401612c85565b93608435908111610a8a57611f38903690600401612c26565b73ffffffffffffffffffffffffffffffffffffffff908185163314801561235d575b156122da57818316156122575783518651036121d457835160005b81811061214a57505060405182841690838716907f4a39dc06d4c0dbc64b70af90fd698a233a518aa5d07e595d983b8c0526c8f7fb339180611fb88c8b83612dd1565b0390a45a94611fc684612f17565b611fcc57005b8291604051978896879586947fbc197c810000000000000000000000000000000000000000000000000000000086523360048701521660248501528a840160a0905260a4840161201b91612cf9565b838103600319018c85015261202f91612cf9565b82810360031901608484015261204491612be5565b039216600090602095f1908115610ce3577fbc197c8100000000000000000000000000000000000000000000000000000000917fffffffff000000000000000000000000000000000000000000000000000000009160009161212c575b5016036120aa57005b7f7665643a20494e56414c49445f4f4e5f524543454956455f4d455353414745006084927f45524331313535235f63616c6c6f6e4552433131353542617463685265636569604051937f08c379a000000000000000000000000000000000000000000000000000000000855260206004860152603f6024860152840152820152fd5b612144915060203d8111610cdc57610cce8183612b9f565b856120a1565b806121586121cf928a612d8e565b51858916600052602090600082526040600020612175848b612d8e565b51600052825261218b6040600020918254612d2d565b9055612197828b612d8e565b5190868816600052600081526040600020906121b3848b612d8e565b51600052526121c86040600020918254612d3a565b9055612d7f565b611f75565b6084877f494e56414c49445f4152524159535f4c454e47544800000000000000000000008a7f45524331313535235f7361666542617463685472616e7366657246726f6d3a20604051937f08c379a00000000000000000000000000000000000000000000000000000000085526020600486015260356024860152840152820152fd5b6084877f4e56414c49445f524543495049454e54000000000000000000000000000000008a7f45524331313535237361666542617463685472616e7366657246726f6d3a2049604051937f08c379a00000000000000000000000000000000000000000000000000000000085526020600486015260306024860152840152820152fd5b6084877f4e56414c49445f4f50455241544f5200000000000000000000000000000000008a7f45524331313535237361666542617463685472616e7366657246726f6d3a2049604051937f08c379a000000000000000000000000000000000000000000000000000000000855260206004860152602f6024860152840152820152fd5b50818516600052600160205260406000203360005260205260ff60406000205416611f5a565b34610a8a5761239136612ce3565b906000526007602052604060002090604051916123ad83612b67565b5473ffffffffffffffffffffffffffffffffffffffff928382169182825260a01c60208201529015612444575b6bffffffffffffffffffffffff6020820151169182810292818404149015171561241557604092612710915116918351928352046020820152f35b7f4e487b7100000000000000000000000000000000000000000000000000000000600052601160045260246000fd5b5060405161245181612b67565b600654838116825260a01c60208201526123da565b34610a8a576020600319360112610a8a5760043560005260036020526020604060002054604051908152f35b34610a8a576020600319360112610a8a5760043560005260086020526020600160406000200154604051908152f35b34610a8a576040600319360112610a8a5767ffffffffffffffff600435818111610a8a576124f3903690600401612c85565b90602435908111610a8a5761250c903690600401612c85565b815191815183036112d8576000926000905b80821061256f575050612535600093600254612d2d565b6002557f4a39dc06d4c0dbc64b70af90fd698a233a518aa5d07e595d983b8c0526c8f7fb6040518061256a3395339583612dd1565b0390a4005b90936125ee6125f4916125828787612d8e565b513360005260209060008252604060002061259d8a89612d8e565b5160005282526125b36040600020918254612d2d565b905560036125c18989612d8e565b51916125cd8a89612d8e565b51600052526125e26040600020918254612d2d565b90556112c48787612d8e565b94612d7f565b9061251e565b34610a8a576000600319360112610a8a576020600254604051908152f35b34610a8a57602080600319360112610a8a57612635600435612e0a565b90604051918282600060045461264a81612b14565b9060019081811690811561274357506001146126e0575b5050908161267b85600595946126cc975194859201612bc2565b017f2e6a736f6e0000000000000000000000000000000000000000000000000000008152037fffffffffffffffffffffffffffffffffffffffffffffffffffffffffffffffe5810185520183612b9f565b610edf604051928284938452830190612be5565b60046000908152949593949192507f8a35acfbc15ff81a39ae7d344fd709f28e8600b4aa8c65c6b64bfe7fe36bd19b5b83831061272b5750929493925050820181018361267b612661565b8054838a018701528896508795909201918101612710565b7fffffffffffffffffffffffffffffffffffffffffffffffffffffffffffffff0016868601525050801515028301820190508361267b612661565b34610a8a57602080600319360112610a8a5767ffffffffffffffff90600435828111610a8a576127b2903690600401612c26565b916127bb613206565b82519081116107ff576005916127d18354612b14565b601f8111612896575b5080601f8311600114612816575081929360009261280b575b50506000198260011b9260031b1c1916179055600080f35b0151905083806127f3565b90601f19831694846000527f036b6384b5eca791c62761152d0c79bb0604c104a5fb6f4eb0703f3154bb3db0926000905b87821061287e575050836001959610612865575b505050811b019055005b015160001960f88460031b161c1916905583808061285b565b80600185968294968601518155019501930190612847565b836000527f036b6384b5eca791c62761152d0c79bb0604c104a5fb6f4eb0703f3154bb3db0601f8401851c8101918385106128ed575b601f01851c01905b8181106128e157506127da565b600081556001016128d4565b90915081906128cc565b34610a8a576000600319360112610a8a57604051600060055461291981612b14565b80845290600190818116908115610f3e575060011461294257610edf84610ecb81860382612b9f565b6005600090815292507f036b6384b5eca791c62761152d0c79bb0604c104a5fb6f4eb0703f3154bb3db05b828410612985575050508101602001610ecb82610ebb565b8054602085870181019190915290930192810161296d565b34610a8a576040600319360112610a8a576129b6612ace565b6024356bffffffffffffffffffffffff81168103610a8a57610fc2916129da612f4d565b613a72565b34610a8a576020600319360112610a8a576004357fffffffff00000000000000000000000000000000000000000000000000000000811690818103610a8a576020917fc79b8b5f0000000000000000000000000000000000000000000000000000000014908115612a6d575b8115612a5d575b506040519015158152f35b612a679150613b4a565b82612a52565b9050612a7881613b4a565b90612a4b565b34610a8a576040600319360112610a8a5760209073ffffffffffffffffffffffffffffffffffffffff612aaf612ace565b1660005260008252604060002060243560005282526040600020548152f35b6004359073ffffffffffffffffffffffffffffffffffffffff82168203610a8a57565b6024359073ffffffffffffffffffffffffffffffffffffffff82168203610a8a57565b90600182811c92168015612b5d575b6020831014612b2e57565b7f4e487b7100000000000000000000000000000000000000000000000000000000600052602260045260246000fd5b91607f1691612b23565b6040810190811067ffffffffffffffff8211176107ff57604052565b6080810190811067ffffffffffffffff8211176107ff57604052565b90601f601f19910116810190811067ffffffffffffffff8211176107ff57604052565b60005b838110612bd55750506000910152565b8181015183820152602001612bc5565b90601f19601f602093612c0381518092818752878088019101612bc2565b0116010190565b67ffffffffffffffff81116107ff57601f01601f191660200190565b81601f82011215610a8a57803590612c3d82612c0a565b92612c4b6040519485612b9f565b82845260208383010111610a8a57816000926020809301838601378301015290565b67ffffffffffffffff81116107ff5760051b60200190565b81601f82011215610a8a57803591612c9c83612c6d565b92612caa6040519485612b9f565b808452602092838086019260051b820101928311610a8a578301905b828210612cd4575050505090565b81358152908301908301612cc6565b6003196040910112610a8a576004359060243590565b90815180825260208080930193019160005b828110612d19575050505090565b835185529381019392810192600101612d0b565b9190820391821161241557565b9190820180921161241557565b90816020910312610a8a57517fffffffff0000000000000000000000000000000000000000000000000000000081168103610a8a5790565b60001981146124155760010190565b8051821015612da25760209160051b010190565b7f4e487b7100000000000000000000000000000000000000000000000000000000600052603260045260246000fd5b9091612de8612df693604084526040840190612cf9565b916020818403910152612cf9565b90565b908151811015612da2570160200190565b8015612edd5780816000925b612ec9575080612e2583612c0a565b92612e336040519485612b9f565b808452601f19612e4282612c0a565b01366020860137915b612e5457505090565b60001982019182116124155781600a8083049281840291848304148415171561241557612e8460ff928392612d2d565b16603001908111612415577fff00000000000000000000000000000000000000000000000000000000000000612ec29160f81b1660001a9185612df9565b5380612e4b565b91612ed5600a91612d7f565b920480612e16565b50604051612eea81612b67565b600181527f3000000000000000000000000000000000000000000000000000000000000000602082015290565b3f8015159081612f25575090565b7fc5d2460186f7233c927e7db2dcc703c0e500b653ca82273b7bfad8045d85a4709150141590565b3360009081527fa9ced9fdc45cded6d4b7a90e36d1ee82b957a500cc22704c465e9bdf275406fd602090815260408083205490927f6db4061a20ca83a3be756ee172bd37a029093ac5afe4ce968c6d5435b43cb0119160ff1615612fb15750505050565b612fba33613689565b91845190612fc782612b83565b604282528482019260603685378251156131d957603084538251906001918210156131d95790607860218501536041915b81831161312c575050506130d05760486130cc9386936130969361308798519889937f416363657373436f6e74726f6c3a206163636f756e74200000000000000000008a860152613052815180928c603789019101612bc2565b8401917f206973206d697373696e6720726f6c6520000000000000000000000000000000603784015251809386840190612bc2565b01036028810187520185612b9f565b519283927f08c379a000000000000000000000000000000000000000000000000000000000845260048401526024830190612be5565b0390fd5b6064848651907f08c379a000000000000000000000000000000000000000000000000000000000825280600483015260248201527f537472696e67733a20686578206c656e67746820696e73756666696369656e746044820152fd5b909192600f811660108110156131ac577f3031323334353637383961626364656600000000000000000000000000000000901a6131698587612df9565b5360041c92801561317f57600019019190612ff8565b6024827f4e487b710000000000000000000000000000000000000000000000000000000081526011600452fd5b6024837f4e487b710000000000000000000000000000000000000000000000000000000081526032600452fd5b807f4e487b7100000000000000000000000000000000000000000000000000000000602492526032600452fd5b3360009081527f95f185554aba264de8ed412af70e5aba6acb0e648f258c912ad29ed85d11ca18602090815260408083205490927fe02a0315b383857ac496e9d2b2546a699afaeb4e5e83a1fdef64376d0b74e5a59160ff161561326a5750505050565b61327333613689565b9184519061328082612b83565b604282528482019260603685378251156131d957603084538251906001918210156131d95790607860218501536041915b81831161330b575050506130d05760486130cc9386936130969361308798519889937f416363657373436f6e74726f6c3a206163636f756e74200000000000000000008a860152613052815180928c603789019101612bc2565b909192600f811660108110156131ac577f3031323334353637383961626364656600000000000000000000000000000000901a6133488587612df9565b5360041c92801561317f576000190191906132b1565b3360009081527f51a495916474fe1a0c0fcfb65a8a97682b84a054118858cdd1f5dfd7fc0919eb602090815260408083205490927f9f2df0fed2c77648de5860a4cc508cd0818c85b8b8a1ab4ceeef8d981c8956a69160ff16156133c25750505050565b6133cb33613689565b918451906133d882612b83565b604282528482019260603685378251156131d957603084538251906001918210156131d95790607860218501536041915b818311613463575050506130d05760486130cc9386936130969361308798519889937f416363657373436f6e74726f6c3a206163636f756e74200000000000000000008a860152613052815180928c603789019101612bc2565b909192600f811660108110156131ac577f3031323334353637383961626364656600000000000000000000000000000000901a6134a08587612df9565b5360041c92801561317f57600019019190613409565b60009080825260209060088252604092838120338252835260ff8482205416156134e05750505050565b6134e933613689565b918451906134f682612b83565b604282528482019260603685378251156131d957603084538251906001918210156131d95790607860218501536041915b818311613581575050506130d05760486130cc9386936130969361308798519889937f416363657373436f6e74726f6c3a206163636f756e74200000000000000000008a860152613052815180928c603789019101612bc2565b909192600f811660108110156131ac577f3031323334353637383961626364656600000000000000000000000000000000901a6135be8587612df9565b5360041c92801561317f57600019019190613527565b90604061362092600090808252600860205273ffffffffffffffffffffffffffffffffffffffff83832094169384835260205260ff8383205416613623575b81526009602052206138ac565b50565b80825260086020528282208483526020528282207fffffffffffffffffffffffffffffffffffffffffffffffffffffffffffffff0081541690553384827ff6391f5c32d9c69d2a47ea670b442974b53935d1edc7fd64eb21e047a839171b8580a4613613565b604051906060820182811067ffffffffffffffff8211176107ff57604052602a8252602082016040368237825115612da257603090538151600190811015612da257607860218401536029905b8082116137445750506136e65790565b60646040517f08c379a000000000000000000000000000000000000000000000000000000000815260206004820152602060248201527f537472696e67733a20686578206c656e67746820696e73756666696369656e746044820152fd5b9091600f811660108110156137c3577f3031323334353637383961626364656600000000000000000000000000000000901a6137808486612df9565b5360041c9180156137955760001901906136d6565b602460007f4e487b710000000000000000000000000000000000000000000000000000000081526011600452fd5b602460007f4e487b710000000000000000000000000000000000000000000000000000000081526032600452fd5b8054821015612da25760005260206000200190600090565b919060018301600090828252806020526040822054156000146138a657845494680100000000000000008610156138795783613869613852886001604098999a018555846137f1565b81939154906000199060031b92831b921b19161790565b9055549382526020522055600190565b6024837f4e487b710000000000000000000000000000000000000000000000000000000081526041600452fd5b50925050565b906001820190600092818452826020526040842054908115156000146139e057600019918281018181116139b35782549084820191821161398657808203613951575b505050805480156139245782019161390783836137f1565b909182549160031b1b191690555582526020526040812055600190565b6024867f4e487b710000000000000000000000000000000000000000000000000000000081526031600452fd5b61397161396161385293866137f1565b90549060031b1c928392866137f1565b905586528460205260408620553880806138ef565b6024887f4e487b710000000000000000000000000000000000000000000000000000000081526011600452fd5b6024877f4e487b710000000000000000000000000000000000000000000000000000000081526011600452fd5b5050505090565b156139ee57565b60846040517f08c379a000000000000000000000000000000000000000000000000000000000815260206004820152602a60248201527f455243323938313a20726f79616c7479206665652077696c6c2065786365656460448201527f2073616c655072696365000000000000000000000000000000000000000000006064820152fd5b73ffffffffffffffffffffffffffffffffffffffff6bffffffffffffffffffffffff831691613aa56127108411156139e7565b16918215613aec577fffffffffffffffffffffffff0000000000000000000000000000000000000000916020604051613add81612b67565b858152015260a01b1617600655565b60646040517f08c379a000000000000000000000000000000000000000000000000000000000815260206004820152601960248201527f455243323938313a20696e76616c6964207265636569766572000000000000006044820152fd5b613b5381613bf0565b908115613b87575b8115613b76575b8115613b6c575090565b612df69150613cb3565b9050613b8181613cb3565b90613b62565b9050613b9281613b98565b90613b5b565b7f0e89341c000000000000000000000000000000000000000000000000000000007fffffffff00000000000000000000000000000000000000000000000000000000821614613bea57612df690613bf0565b50600190565b7fffffffff0000000000000000000000000000000000000000000000000000000081167f3e85e62f0000000000000000000000000000000000000000000000000000000014908115613c40575090565b612df691507fffffffff00000000000000000000000000000000000000000000000000000000167fd9b67a26000000000000000000000000000000000000000000000000000000008114613bea577f01ffc9a7000000000000000000000000000000000000000000000000000000001490565b613cbc81613da2565b908115613d0a575b8115613cdf575b8115613cd5575090565b612df69150613d1b565b7fffffffff000000000000000000000000000000000000000000000000000000008116159150613ccb565b9050613d1581613d1b565b90613cc4565b7fffffffff000000000000000000000000000000000000000000000000000000008116907f5a05180f000000000000000000000000000000000000000000000000000000008214918215613d6e57505090565b7f7965db0b000000000000000000000000000000000000000000000000000000001491508115613d9c575090565b612df691505b7fffffffff00000000000000000000000000000000000000000000000000000000167f2a55205a000000000000000000000000000000000000000000000000000000008114908115613df2575090565b7f01ffc9a7000000000000000000000000000000000000000000000000000000009150149056fea2646970667358221220d7b05b5dcb8a9a641911924f7b2fd7753931a41293f9aff2435f9b7b4b62b3e364736f6c63430008130033","linkReferences":{}},"methodIdentifiers":{"beacon()":"59659e90","deploy(address,address,string,string,string,address,uint96)":"38234f4d","determineAddress(address,address,string,string,string,address,uint96)":"6dbefeff","owner()":"8da5cb5b","renounceOwnership()":"715018a6","transferOwnership(address)":"f2fde38b","upgradeBeacon(address)":"1bce4583"},"id":90}