{"abi":[{"type":"constructor","inputs":[],"stateMutability":"nonpayable"},{"type":"function","name":"DEFAULT_ADMIN_ROLE","inputs":[],"outputs":[{"name":"","type":"bytes32","internalType":"bytes32"}],"stateMutability":"view"},{"type":"function","name":"allowance","inputs":[{"name":"owner","type":"address","internalType":"address"},{"name":"spender","type":"address","internalType":"address"}],"outputs":[{"name":"","type":"uint256","internalType":"uint256"}],"stateMutability":"view"},{"type":"function","name":"approve","inputs":[{"name":"spender","type":"address","internalType":"address"},{"name":"amount","type":"uint256","internalType":"uint256"}],"outputs":[{"name":"","type":"bool","internalType":"bool"}],"stateMutability":"nonpayable"},{"type":"function","name":"balanceOf","inputs":[{"name":"account","type":"address","internalType":"address"}],"outputs":[{"name":"","type":"uint256","internalType":"uint256"}],"stateMutability":"view"},{"type":"function","name":"burn","inputs":[{"name":"amount","type":"uint256","internalType":"uint256"}],"outputs":[],"stateMutability":"nonpayable"},{"type":"function","name":"decimals","inputs":[],"outputs":[{"name":"","type":"uint8","internalType":"uint8"}],"stateMutability":"view"},{"type":"function","name":"decreaseAllowance","inputs":[{"name":"spender","type":"address","internalType":"address"},{"name":"subtractedValue","type":"uint256","internalType":"uint256"}],"outputs":[{"name":"","type":"bool","internalType":"bool"}],"stateMutability":"nonpayable"},{"type":"function","name":"getRoleAdmin","inputs":[{"name":"role","type":"bytes32","internalType":"bytes32"}],"outputs":[{"name":"","type":"bytes32","internalType":"bytes32"}],"stateMutability":"view"},{"type":"function","name":"getRoleMember","inputs":[{"name":"role","type":"bytes32","internalType":"bytes32"},{"name":"index","type":"uint256","internalType":"uint256"}],"outputs":[{"name":"","type":"address","internalType":"address"}],"stateMutability":"view"},{"type":"function","name":"getRoleMemberCount","inputs":[{"name":"role","type":"bytes32","internalType":"bytes32"}],"outputs":[{"name":"","type":"uint256","internalType":"uint256"}],"stateMutability":"view"},{"type":"function","name":"grantRole","inputs":[{"name":"role","type":"bytes32","internalType":"bytes32"},{"name":"account","type":"address","internalType":"address"}],"outputs":[],"stateMutability":"nonpayable"},{"type":"function","name":"hasRole","inputs":[{"name":"role","type":"bytes32","internalType":"bytes32"},{"name":"account","type":"address","internalType":"address"}],"outputs":[{"name":"","type":"bool","internalType":"bool"}],"stateMutability":"view"},{"type":"function","name":"increaseAllowance","inputs":[{"name":"spender","type":"address","internalType":"address"},{"name":"addedValue","type":"uint256","internalType":"uint256"}],"outputs":[{"name":"","type":"bool","internalType":"bool"}],"stateMutability":"nonpayable"},{"type":"function","name":"initialize","inputs":[{"name":"owner","type":"address","internalType":"address"},{"name":"tokenName","type":"string","internalType":"string"},{"name":"tokenSymbol","type":"string","internalType":"string"},{"name":"tokenDecimals","type":"uint8","internalType":"uint8"}],"outputs":[],"stateMutability":"nonpayable"},{"type":"function","name":"mint","inputs":[{"name":"to","type":"address","internalType":"address"},{"name":"amount","type":"uint256","internalType":"uint256"}],"outputs":[],"stateMutability":"nonpayable"},{"type":"function","name":"name","inputs":[],"outputs":[{"name":"","type":"string","internalType":"string"}],"stateMutability":"view"},{"type":"function","name":"renounceRole","inputs":[{"name":"role","type":"bytes32","internalType":"bytes32"},{"name":"account","type":"address","internalType":"address"}],"outputs":[],"stateMutability":"nonpayable"},{"type":"function","name":"revokeRole","inputs":[{"name":"role","type":"bytes32","internalType":"bytes32"},{"name":"account","type":"address","internalType":"address"}],"outputs":[],"stateMutability":"nonpayable"},{"type":"function","name":"setNameAndSymbol","inputs":[{"name":"tokenName","type":"string","internalType":"string"},{"name":"tokenSymbol","type":"string","internalType":"string"}],"outputs":[],"stateMutability":"nonpayable"},{"type":"function","name":"supportsInterface","inputs":[{"name":"interfaceId","type":"bytes4","internalType":"bytes4"}],"outputs":[{"name":"","type":"bool","internalType":"bool"}],"stateMutability":"view"},{"type":"function","name":"symbol","inputs":[],"outputs":[{"name":"","type":"string","internalType":"string"}],"stateMutability":"view"},{"type":"function","name":"totalSupply","inputs":[],"outputs":[{"name":"","type":"uint256","internalType":"uint256"}],"stateMutability":"view"},{"type":"function","name":"transfer","inputs":[{"name":"to","type":"address","internalType":"address"},{"name":"amount","type":"uint256","internalType":"uint256"}],"outputs":[{"name":"","type":"bool","internalType":"bool"}],"stateMutability":"nonpayable"},{"type":"function","name":"transferFrom","inputs":[{"name":"from","type":"address","internalType":"address"},{"name":"to","type":"address","internalType":"address"},{"name":"amount","type":"uint256","internalType":"uint256"}],"outputs":[{"name":"","type":"bool","internalType":"bool"}],"stateMutability":"nonpayable"},{"type":"event","name":"Approval","inputs":[{"name":"owner","type":"address","indexed":true,"internalType":"address"},{"name":"spender","type":"address","indexed":true,"internalType":"address"},{"name":"value","type":"uint256","indexed":false,"internalType":"uint256"}],"anonymous":false},{"type":"event","name":"RoleAdminChanged","inputs":[{"name":"role","type":"bytes32","indexed":true,"internalType":"bytes32"},{"name":"previousAdminRole","type":"bytes32","indexed":true,"internalType":"bytes32"},{"name":"newAdminRole","type":"bytes32","indexed":true,"internalType":"bytes32"}],"anonymous":false},{"type":"event","name":"RoleGranted","inputs":[{"name":"role","type":"bytes32","indexed":true,"internalType":"bytes32"},{"name":"account","type":"address","indexed":true,"internalType":"address"},{"name":"sender","type":"address","indexed":true,"internalType":"address"}],"anonymous":false},{"type":"event","name":"RoleRevoked","inputs":[{"name":"role","type":"bytes32","indexed":true,"internalType":"bytes32"},{"name":"account","type":"address","indexed":true,"internalType":"address"},{"name":"sender","type":"address","indexed":true,"internalType":"address"}],"anonymous":false},{"type":"event","name":"Transfer","inputs":[{"name":"from","type":"address","indexed":true,"internalType":"address"},{"name":"to","type":"address","indexed":true,"internalType":"address"},{"name":"value","type":"uint256","indexed":false,"internalType":"uint256"}],"anonymous":false},{"type":"error","name":"InvalidInitialization","inputs":[]},{"type":"error","name":"InvalidInitialization","inputs":[]}],"bytecode":{"object":"0x60c060405234620002f85762000014620002fd565b6200001e620002fd565b8151906001600160401b0390818311620001f8576003908154906001948583811c9316968715620002ed575b60209788851014620002d7578190601f9485811162000281575b5088908583116001146200021a576000926200020e575b505060001982861b1c191690861b1783555b8051938411620001f85760049586548681811c91168015620001ed575b82821014620001d8578381116200018d575b50809285116001146200011f575093839491849260009562000113575b50501b92600019911b1c19161790555b336080523360a0526040516127289081620003228239608051816101d8015260a051816101a70152f35b015193503880620000d9565b92919084601f1981168860005285600020956000905b8983831062000172575050501062000157575b50505050811b019055620000e9565b01519060f884600019921b161c191690553880808062000148565b85870151895590970196948501948893509081019062000135565b87600052816000208480880160051c820192848910620001ce575b0160051c019087905b828110620001c1575050620000bc565b60008155018790620001b1565b92508192620001a8565b602288634e487b7160e01b6000525260246000fd5b90607f1690620000aa565b634e487b7160e01b600052604160045260246000fd5b0151905038806200007b565b90889350601f19831691876000528a6000209260005b8c8282106200026a575050841162000251575b505050811b0183556200008d565b015160001983881b60f8161c1916905538808062000243565b8385015186558c9790950194938401930162000230565b90915085600052886000208580850160051c8201928b8610620002cd575b918a91869594930160051c01915b828110620002bd57505062000064565b600081558594508a9101620002ad565b925081926200029f565b634e487b7160e01b600052602260045260246000fd5b92607f16926200004a565b600080fd5b60405190602082016001600160401b03811183821017620001f8576040526000825256fe608060409080825260048036101561001657600080fd5b600091823560e01c90816301ffc9a7146118a95750806306fdde03146117ff578063095ea7b3146117d557806318160ddd146117b657806323b872dd146116c6578063248a9ca31461169a5780632f2ff15d146115b5578063313ce5671461159357806336568abe146114ce578063395093511461147257806340c10f191461124f57806342966c68146110d75780635a44621514610ae957806370a0823114610aa65780639010d07c14610a5657806391d1485414610a0257806395d89b4114610903578063a217fddf146108e8578063a457c2d714610801578063a9059cbb146107d0578063ca15c873146107a7578063d547741f14610765578063dd62ed3e1461070f5763f6d2ee861461012c57600080fd5b3461070b57608060031936011261070b576101456119b2565b67ffffffffffffffff93602435858111610707576101669036908501611a89565b926044358681116107035761017e9036908301611a89565b956064359460ff86168096036106ff5773ffffffffffffffffffffffffffffffffffffffff92837f00000000000000000000000000000000000000000000000000000000000000001633148015906106f0575b6106ba57837f00000000000000000000000000000000000000000000000000000000000000001633148015906106e1575b6106ba57815183811161068e578061021b600754612550565b93601f94858111610622575b50602090858311600114610583578b92610578575b50506000198260011b9260031b1c1916176007555b885192831161054c5750610266600854612550565b8181116104ec575b506020908211600114610447578190879861037a97989261043c575b50506000198260011b9260031b1c1916176008555b7fffffffffffffffffffffffffffffffffffffffffffffffffffffffffffffff009060099582875416178655868052600560205282872093169283875260205260ff8287205416156103f3575b858052600660205261030083838820612372565b506101007fffffffffffffffffffffffffffffffffffffffffffffffffffffffffffff00ff8654161785557f9f2df0fed2c77648de5860a4cc508cd0818c85b8b8a1ab4ceeef8d981c8956a690818752600560205282872084885260205260ff8388205416156103a9575b50855260066020528420612372565b50620100007fffffffffffffffffffffffffffffffffffffffffffffffffffffffffff00ffff82541617905580f35b81875260056020528287208488526020526001838820918254161790553383827f2f8788117e7eff1d82e926ec794901d17c78024a50270940304540a733656f0d8980a43861036b565b85805260056020528186208387526020528186206001828254161790553383877f2f8788117e7eff1d82e926ec794901d17c78024a50270940304540a733656f0d8180a46102ec565b01519050388061028a565b600887527ff3f7a9fe364faab93b216da50a3214154f22a0a2b415b23a84c8169e8b636ee3977fffffffffffffffffffffffffffffffffffffffffffffffffffffffffffffffe08316885b8181106104d457509161037a979899918460019594106104bb575b505050811b0160085561029f565b015160001960f88460031b161c191690553880806104ad565b838301518b556001909a019960209384019301610492565b600888527ff3f7a9fe364faab93b216da50a3214154f22a0a2b415b23a84c8169e8b636ee38280850160051c82019260208610610543575b0160051c01905b818110610538575061026e565b88815560010161052b565b92508192610524565b8760416024927f4e487b7100000000000000000000000000000000000000000000000000000000835252fd5b01519050388061023c565b60078c527fa66cc928b5edb82af9bd49922954155ab7b0942694bea4ce44661d9a8736c688927fffffffffffffffffffffffffffffffffffffffffffffffffffffffffffffffe0168c5b81811061060a57509084600195949392106105f1575b505050811b01600755610251565b015160001960f88460031b161c191690553880806105e3565b929360206001819287860151815501950193016105cd565b90915060078b527fa66cc928b5edb82af9bd49922954155ab7b0942694bea4ce44661d9a8736c6888580850160051c82019260208610610685575b9085949392910160051c01905b8181106106775750610227565b8c815584935060010161066a565b9250819261065d565b6024896041847f4e487b7100000000000000000000000000000000000000000000000000000000835252fd5b84517ff92ee8a9000000000000000000000000000000000000000000000000000000008152fd5b5060ff60095460081c16610202565b5060ff60095460101c166101d1565b8680fd5b8580fd5b8480fd5b5080fd5b82843461070b578060031936011261070b578060209261072d6119b2565b6107356119da565b73ffffffffffffffffffffffffffffffffffffffff91821683526001865283832091168252845220549051908152f35b5082346107a357806003193601126107a3576107a0913561079b60016107896119da565b93838752600560205286200154611afe565b611d3d565b80f35b8280fd5b508290346107a35760206003193601126107a35760209282913581526006845220549051908152f35b82843461070b578060031936011261070b576020906107fa6107f06119b2565b6024359033611e2e565b5160018152f35b5090346108e557826003193601126108e55761081b6119b2565b918360243592338152600160205281812073ffffffffffffffffffffffffffffffffffffffff86168252602052205490828210610862576020856107fa858503873361203d565b60849060208651917f08c379a0000000000000000000000000000000000000000000000000000000008352820152602560248201527f45524332303a2064656372656173656420616c6c6f77616e63652062656c6f7760448201527f207a65726f0000000000000000000000000000000000000000000000000000006064820152fd5b80fd5b82843461070b578160031936011261070b5751908152602090f35b82843461070b578160031936011261070b578051908260085461092581612550565b808552916001918083169081156109bc575060011461095f575b5050506109518261095b940383611a48565b5191829182611968565b0390f35b9450600885527ff3f7a9fe364faab93b216da50a3214154f22a0a2b415b23a84c8169e8b636ee35b8286106109a45750505061095182602061095b958201019461093f565b80546020878701810191909152909501948101610987565b61095b9750869350602092506109519491507fffffffffffffffffffffffffffffffffffffffffffffffffffffffffffffff001682840152151560051b8201019461093f565b508290346107a357816003193601126107a3578160209360ff92610a246119da565b903582526005865273ffffffffffffffffffffffffffffffffffffffff83832091168252855220541690519015158152f35b508290346107a357816003193601126107a357610a9760209373ffffffffffffffffffffffffffffffffffffffff923581526006855283602435912061235a565b92905490519260031b1c168152f35b82843461070b57602060031936011261070b578060209273ffffffffffffffffffffffffffffffffffffffff610ada6119b2565b16815280845220549051908152f35b50913461070b578060031936011261070b5767ffffffffffffffff9083358281116110d357610b1b9036908601611a89565b906024803584811161070357610b349036908801611a89565b9585805260209260058452808720338852845260ff818820541615610e5d57508351858111610e325780610b69600754612550565b95601f96878111610dc7575b508590878311600114610d28578992610d1d575b50506000198260011b9260031b1c1916176007555b8651948511610cf3575050610bb4600854612550565b828111610c94575b5080918311600114610bf557508293829392610bea575b50506000198260011b9260031b1c19161760085580f35b015190503880610bd3565b907fffffffffffffffffffffffffffffffffffffffffffffffffffffffffffffffe0831694600885527ff3f7a9fe364faab93b216da50a3214154f22a0a2b415b23a84c8169e8b636ee39285905b878210610c7c575050836001959610610c63575b505050811b0160085580f35b015160001960f88460031b161c19169055388080610c57565b80600185968294968601518155019501930190610c43565b600885527ff3f7a9fe364faab93b216da50a3214154f22a0a2b415b23a84c8169e8b636ee38380860160051c820192848710610cea575b0160051c01905b818110610cdf5750610bbc565b858155600101610cd2565b92508192610ccb565b604186917f4e487b7100000000000000000000000000000000000000000000000000000000835252fd5b015190503880610b89565b60078a527fa66cc928b5edb82af9bd49922954155ab7b0942694bea4ce44661d9a8736c688927fffffffffffffffffffffffffffffffffffffffffffffffffffffffffffffffe0168a5b88828210610db1575050908460019594939210610d98575b505050811b01600755610b9e565b015160001960f88460031b161c19169055388080610d8a565b6001859682939686015181550195019301610d72565b909150600789527fa66cc928b5edb82af9bd49922954155ab7b0942694bea4ce44661d9a8736c6888780850160051c820192888610610e29575b9085949392910160051c01905b818110610e1b5750610b75565b8a8155849350600101610e0e565b92508192610e01565b50604186917f4e487b7100000000000000000000000000000000000000000000000000000000835252fd5b91868491610e6a336121f2565b85519183610e77846119fd565b604284528584019460603687378451156110a8576030865384519060019182101561107d5790607860218701536041915b818311610fd557505050610f7a5750610f76938693610f4893610f39604894610f049a519a857f416363657373436f6e74726f6c3a206163636f756e74200000000000000000008d978801528251928391603789019101611945565b8401917f206973206d697373696e6720726f6c6520000000000000000000000000000000603784015251809386840190611945565b01036028810187520185611a48565b519283927f08c379a00000000000000000000000000000000000000000000000000000000084528301611968565b0390fd5b925050508160649451937f08c379a00000000000000000000000000000000000000000000000000000000085528401528201527f537472696e67733a20686578206c656e67746820696e73756666696369656e746044820152fd5b909192600f81166010811015611052577f3031323334353637383961626364656600000000000000000000000000000000901a61101285896121b2565b53891c92801561102757600019019190610ea8565b848260118c7f4e487b7100000000000000000000000000000000000000000000000000000000835252fd5b858360328d7f4e487b7100000000000000000000000000000000000000000000000000000000835252fd5b8060328a7f4e487b710000000000000000000000000000000000000000000000000000000087945252fd5b90506032877f4e487b7100000000000000000000000000000000000000000000000000000000835252fd5b8380fd5b5082346107a357602090816003193601126110d35782359233156111ce57338552848352818520549084821061114c5750917fddf252ad1be2c89b69c2b068fc378daa952ba7f163c4a11628f55a4df523b3ef918486959433875286845203818620558360025403600255519283523392a380f35b608490848451917f08c379a0000000000000000000000000000000000000000000000000000000008352820152602260248201527f45524332303a206275726e20616d6f756e7420657863656564732062616c616e60448201527f63650000000000000000000000000000000000000000000000000000000000006064820152fd5b8260849251917f08c379a0000000000000000000000000000000000000000000000000000000008352820152602160248201527f45524332303a206275726e2066726f6d20746865207a65726f2061646472657360448201527f73000000000000000000000000000000000000000000000000000000000000006064820152fd5b508290346107a357816003193601126107a35761126a6119b2565b906024928335917f9f2df0fed2c77648de5860a4cc508cd0818c85b8b8a1ab4ceeef8d981c8956a69384875260209460058652838820338952865260ff848920541615611376575073ffffffffffffffffffffffffffffffffffffffff1694851561131c575050918185936113027fddf252ad1be2c89b69c2b068fc378daa952ba7f163c4a11628f55a4df523b3ef94600254611df2565b60025585855284835280852082815401905551908152a380f35b601f908560649451937f08c379a00000000000000000000000000000000000000000000000000000000085528401528201527f45524332303a206d696e7420746f20746865207a65726f2061646472657373006044820152fd5b859150868891611385336121f2565b9091865192611393846119fd565b604284528584019460603687378451156110a8576030865384519060019182101561107d5790607860218701536041915b81831161142057505050610f7a5750610f76938693610f4893610f39604894610f049a519a857f416363657373436f6e74726f6c3a206163636f756e74200000000000000000008d978801528251928391603789019101611945565b909192600f81166010811015611052577f3031323334353637383961626364656600000000000000000000000000000000901a61145d85896121b2565b53891c928015611027576000190191906113c4565b82843461070b578060031936011261070b576107fa6020926114c76114956119b2565b913381526001865284812073ffffffffffffffffffffffffffffffffffffffff84168252865284602435912054611df2565b903361203d565b503461070b578260031936011261070b576114e76119da565b903373ffffffffffffffffffffffffffffffffffffffff83160361151057906107a09135611d3d565b60849060208551917f08c379a0000000000000000000000000000000000000000000000000000000008352820152602f60248201527f416363657373436f6e74726f6c3a2063616e206f6e6c792072656e6f756e636560448201527f20726f6c657320666f722073656c6600000000000000000000000000000000006064820152fd5b82843461070b578160031936011261070b5760209060ff600954169051908152f35b5082346107a357806003193601126107a35761162f91359060066115d76119da565b92808652602090600582526115f160018589200154611afe565b8087526005825273ffffffffffffffffffffffffffffffffffffffff848820951694858852825260ff848820541615611633575b8652528320612372565b5080f35b80875260058252838720858852825283872060017fffffffffffffffffffffffffffffffffffffffffffffffffffffffffffffff008254161790553385827f2f8788117e7eff1d82e926ec794901d17c78024a50270940304540a733656f0d8a80a4611625565b508290346107a35760206003193601126107a35781602093600192358152600585522001549051908152f35b503461070b57606060031936011261070b576116e06119b2565b6116e86119da565b91846044359473ffffffffffffffffffffffffffffffffffffffff8416815260016020528181203382526020522054906000198203611730575b6020866107fa878787611e2e565b848210611759575091839161174e602096956107fa9503338361203d565b919394819350611722565b60649060208751917f08c379a0000000000000000000000000000000000000000000000000000000008352820152601d60248201527f45524332303a20696e73756666696369656e7420616c6c6f77616e63650000006044820152fd5b82843461070b578160031936011261070b576020906002549051908152f35b82843461070b578060031936011261070b576020906107fa6117f56119b2565b602435903361203d565b82843461070b578160031936011261070b578051908260075461182181612550565b808552916001918083169081156109bc575060011461184c575050506109518261095b940383611a48565b9450600785527fa66cc928b5edb82af9bd49922954155ab7b0942694bea4ce44661d9a8736c6885b8286106118915750505061095182602061095b958201019461093f565b80546020878701810191909152909501948101611874565b919050346107a35760206003193601126107a357357fffffffff0000000000000000000000000000000000000000000000000000000081168082036110d357602093507f1a856d0c0000000000000000000000000000000000000000000000000000000014908115611934575b8115611924575b5015158152f35b61192e91506125a3565b8361191d565b905061193f816125a3565b90611916565b60005b8381106119585750506000910152565b8181015183820152602001611948565b7fffffffffffffffffffffffffffffffffffffffffffffffffffffffffffffffe0601f604093602084526119ab8151809281602088015260208888019101611945565b0116010190565b6004359073ffffffffffffffffffffffffffffffffffffffff821682036119d557565b600080fd5b6024359073ffffffffffffffffffffffffffffffffffffffff821682036119d557565b6080810190811067ffffffffffffffff821117611a1957604052565b7f4e487b7100000000000000000000000000000000000000000000000000000000600052604160045260246000fd5b90601f7fffffffffffffffffffffffffffffffffffffffffffffffffffffffffffffffe0910116810190811067ffffffffffffffff821117611a1957604052565b81601f820112156119d55780359067ffffffffffffffff8211611a195760405192611adc60207fffffffffffffffffffffffffffffffffffffffffffffffffffffffffffffffe0601f8601160185611a48565b828452602083830101116119d557816000926020809301838601378301015290565b600081815260209060058252604092838220338352835260ff848320541615611b275750505050565b611b30336121f2565b845191611b3c836119fd565b60428352848301936060368637835115611d105760308553835190600191821015611d105790607860218601536041915b818311611c6357505050611c0757610f04938593611bd793611bc8604894610f76995198857f416363657373436f6e74726f6c3a206163636f756e74200000000000000000008b978801528251928391603789019101611945565b01036028810185520183611a48565b519182917f08c379a000000000000000000000000000000000000000000000000000000000835260048301611968565b6064848651907f08c379a000000000000000000000000000000000000000000000000000000000825280600483015260248201527f537472696e67733a20686578206c656e67746820696e73756666696369656e746044820152fd5b909192600f81166010811015611ce3577f3031323334353637383961626364656600000000000000000000000000000000901a611ca085886121b2565b5360041c928015611cb657600019019190611b6d565b6024827f4e487b710000000000000000000000000000000000000000000000000000000081526011600452fd5b6024837f4e487b710000000000000000000000000000000000000000000000000000000081526032600452fd5b807f4e487b7100000000000000000000000000000000000000000000000000000000602492526032600452fd5b906040611d8992600090808252600560205273ffffffffffffffffffffffffffffffffffffffff83832094169384835260205260ff8383205416611d8c575b8152600660205220612415565b50565b80825260056020528282208483526020528282207fffffffffffffffffffffffffffffffffffffffffffffffffffffffffffffff0081541690553384827ff6391f5c32d9c69d2a47ea670b442974b53935d1edc7fd64eb21e047a839171b8580a4611d7c565b91908201809211611dff57565b7f4e487b7100000000000000000000000000000000000000000000000000000000600052601160045260246000fd5b73ffffffffffffffffffffffffffffffffffffffff809116918215611fb95716918215611f3557600082815280602052604081205491808310611eb157604082827fddf252ad1be2c89b69c2b068fc378daa952ba7f163c4a11628f55a4df523b3ef958760209652828652038282205586815220818154019055604051908152a3565b60846040517f08c379a000000000000000000000000000000000000000000000000000000000815260206004820152602660248201527f45524332303a207472616e7366657220616d6f756e742065786365656473206260448201527f616c616e636500000000000000000000000000000000000000000000000000006064820152fd5b60846040517f08c379a000000000000000000000000000000000000000000000000000000000815260206004820152602360248201527f45524332303a207472616e7366657220746f20746865207a65726f206164647260448201527f65737300000000000000000000000000000000000000000000000000000000006064820152fd5b60846040517f08c379a000000000000000000000000000000000000000000000000000000000815260206004820152602560248201527f45524332303a207472616e736665722066726f6d20746865207a65726f20616460448201527f64726573730000000000000000000000000000000000000000000000000000006064820152fd5b73ffffffffffffffffffffffffffffffffffffffff80911691821561212f57169182156120ab5760207f8c5be1e5ebec7d5bd14f71427d1e84f3dd0314c0f7b2291e5b200ac8c7c3b925918360005260018252604060002085600052825280604060002055604051908152a3565b60846040517f08c379a000000000000000000000000000000000000000000000000000000000815260206004820152602260248201527f45524332303a20617070726f766520746f20746865207a65726f20616464726560448201527f73730000000000000000000000000000000000000000000000000000000000006064820152fd5b60846040517f08c379a0000000000000000000000000000000000000000000000000000000008152602060048201526024808201527f45524332303a20617070726f76652066726f6d20746865207a65726f2061646460448201527f72657373000000000000000000000000000000000000000000000000000000006064820152fd5b9081518110156121c3570160200190565b7f4e487b7100000000000000000000000000000000000000000000000000000000600052603260045260246000fd5b604051906060820182811067ffffffffffffffff821117611a1957604052602a82526020820160403682378251156121c3576030905381516001908110156121c357607860218401536029905b8082116122ad57505061224f5790565b60646040517f08c379a000000000000000000000000000000000000000000000000000000000815260206004820152602060248201527f537472696e67733a20686578206c656e67746820696e73756666696369656e746044820152fd5b9091600f8116601081101561232c577f3031323334353637383961626364656600000000000000000000000000000000901a6122e984866121b2565b5360041c9180156122fe57600019019061223f565b602460007f4e487b710000000000000000000000000000000000000000000000000000000081526011600452fd5b602460007f4e487b710000000000000000000000000000000000000000000000000000000081526032600452fd5b80548210156121c35760005260206000200190600090565b9190600183016000908282528060205260408220541560001461240f57845494680100000000000000008610156123e257836123d26123bb886001604098999a0185558461235a565b81939154906000199060031b92831b921b19161790565b9055549382526020522055600190565b6024837f4e487b710000000000000000000000000000000000000000000000000000000081526041600452fd5b50925050565b90600182019060009281845282602052604084205490811515600014612549576000199182810181811161251c578254908482019182116124ef578082036124ba575b5050508054801561248d57820191612470838361235a565b909182549160031b1b191690555582526020526040812055600190565b6024867f4e487b710000000000000000000000000000000000000000000000000000000081526031600452fd5b6124da6124ca6123bb938661235a565b90549060031b1c9283928661235a565b90558652846020526040862055388080612458565b6024887f4e487b710000000000000000000000000000000000000000000000000000000081526011600452fd5b6024877f4e487b710000000000000000000000000000000000000000000000000000000081526011600452fd5b5050505090565b90600182811c92168015612599575b602083101461256a57565b7f4e487b7100000000000000000000000000000000000000000000000000000000600052602260045260246000fd5b91607f169161255f565b7fffffffff000000000000000000000000000000000000000000000000000000008116907f36372b07000000000000000000000000000000000000000000000000000000008214918215612622575b508115612611575b8115612604575090565b61260e915061264c565b90565b905061261c8161264c565b906125fa565b7fa219a02500000000000000000000000000000000000000000000000000000000149150386125f2565b7fffffffff00000000000000000000000000000000000000000000000000000000167f5a05180f00000000000000000000000000000000000000000000000000000000811490811561269c575090565b7f7965db0b000000000000000000000000000000000000000000000000000000008114915081156126cb575090565b7f01ffc9a7000000000000000000000000000000000000000000000000000000009150149056fea2646970667358221220d6ef567f91fdce3482ab2709559b8ce3bc9d446f7e24abfd7f88715adc02b43664736f6c63430008130033","linkReferences":{}},"methodIdentifiers":{"DEFAULT_ADMIN_ROLE()":"a217fddf","allowance(address,address)":"dd62ed3e","approve(address,uint256)":"095ea7b3","balanceOf(address)":"70a08231","burn(uint256)":"42966c68","decimals()":"313ce567","decreaseAllowance(address,uint256)":"a457c2d7","getRoleAdmin(bytes32)":"248a9ca3","getRoleMember(bytes32,uint256)":"9010d07c","getRoleMemberCount(bytes32)":"ca15c873","grantRole(bytes32,address)":"2f2ff15d","hasRole(bytes32,address)":"91d14854","increaseAllowance(address,uint256)":"39509351","initialize(address,string,string,uint8)":"f6d2ee86","mint(address,uint256)":"40c10f19","name()":"06fdde03","renounceRole(bytes32,address)":"36568abe","revokeRole(bytes32,address)":"d547741f","setNameAndSymbol(string,string)":"5a446215","supportsInterface(bytes4)":"01ffc9a7","symbol()":"95d89b41","totalSupply()":"18160ddd","transfer(address,uint256)":"a9059cbb","transferFrom(address,address,uint256)":"23b872dd"},"id":98}