{"abi":[{"type":"constructor","inputs":[{"name":"factoryOwner","type":"address","internalType":"address"}],"stateMutability":"nonpayable"},{"type":"function","name":"beacon","inputs":[],"outputs":[{"name":"","type":"address","internalType":"contract UpgradeableBeacon"}],"stateMutability":"view"},{"type":"function","name":"deploy","inputs":[{"name":"proxyOwner","type":"address","internalType":"address"},{"name":"tokenOwner","type":"address","internalType":"address"},{"name":"name","type":"string","internalType":"string"},{"name":"symbol","type":"string","internalType":"string"},{"name":"decimals","type":"uint8","internalType":"uint8"}],"outputs":[{"name":"proxyAddr","type":"address","internalType":"address"}],"stateMutability":"nonpayable"},{"type":"function","name":"determineAddress","inputs":[{"name":"proxyOwner","type":"address","internalType":"address"},{"name":"tokenOwner","type":"address","internalType":"address"},{"name":"name","type":"string","internalType":"string"},{"name":"symbol","type":"string","internalType":"string"},{"name":"decimals","type":"uint8","internalType":"uint8"}],"outputs":[{"name":"proxyAddr","type":"address","internalType":"address"}],"stateMutability":"view"},{"type":"function","name":"owner","inputs":[],"outputs":[{"name":"","type":"address","internalType":"address"}],"stateMutability":"view"},{"type":"function","name":"renounceOwnership","inputs":[],"outputs":[],"stateMutability":"nonpayable"},{"type":"function","name":"transferOwnership","inputs":[{"name":"newOwner","type":"address","internalType":"address"}],"outputs":[],"stateMutability":"nonpayable"},{"type":"function","name":"upgradeBeacon","inputs":[{"name":"implementation","type":"address","internalType":"address"}],"outputs":[],"stateMutability":"nonpayable"},{"type":"event","name":"ERC20ItemsDeployed","inputs":[{"name":"proxyAddr","type":"address","indexed":false,"internalType":"address"}],"anonymous":false},{"type":"event","name":"OwnershipTransferred","inputs":[{"name":"previousOwner","type":"address","indexed":true,"internalType":"address"},{"name":"newOwner","type":"address","indexed":true,"internalType":"address"}],"anonymous":false}],"bytecode":{"object":"0x608034610121576001600160401b0390601f614eac38819003918201601f191683019291908484118385101761010b57816020928492604096875283398101031261012157516001600160a01b0380821682036101215761005f33610126565b825193612a4a94858101958187108388111761010b57612462823980600096039086f0908115610101578451916105ee808401928311848410176100ed5791848492602094611e74853916815203019085f080156100e0576100d39394501660018060a01b03196001541617600155610126565b51611d06908161016e8239f35b50505051903d90823e3d90fd5b634e487b7160e01b88526041600452602488fd5b84513d87823e3d90fd5b634e487b7160e01b600052604160045260246000fd5b600080fd5b600080546001600160a01b039283166001600160a01b03198216811783559216907f8be0079c531659141344cd1fd0a4f28419497f9722a3daafe3b4186f6b6457e09080a356fe6040608081526004908136101561001557600080fd5b600091823560e01c806303e29ab7146104b0578381631bce4583146103e65750806359659e9014610393578063715018a6146102f35780638da5cb5b146102a2578063933383bf146101ac5763f2fde38b1461007057600080fd5b346101a85760207ffffffffffffffffffffffffffffffffffffffffffffffffffffffffffffffffc3601126101a8576100a761077b565b906100b061095b565b73ffffffffffffffffffffffffffffffffffffffff809216928315610125575050600054827fffffffffffffffffffffffff0000000000000000000000000000000000000000821617600055167f8be0079c531659141344cd1fd0a4f28419497f9722a3daafe3b4186f6b6457e0600080a380f35b90602060849251917f08c379a0000000000000000000000000000000000000000000000000000000008352820152602660248201527f4f776e61626c653a206e6577206f776e657220697320746865207a65726f206160448201527f64647265737300000000000000000000000000000000000000000000000000006064820152fd5b8280fd5b50503461029e5761025e916055600b6101c4366108b8565b939692906101e0899a939a5195869260209c8d85019586610a40565b03936102127fffffffffffffffffffffffffffffffffffffffffffffffffffffffffffffffe095868101835282610802565b51902092875192610222846107e6565b835273ffffffffffffffffffffffffffffffffffffffff966102528860015416948a519586938d85019889610a8f565b03908101835282610802565b5190206111eb855161027288830182610802565b81815287810191610ae683395190209085519186830152868201523081520160ff815320915191168152f35b5080fd5b50503461029e57817ffffffffffffffffffffffffffffffffffffffffffffffffffffffffffffffffc36011261029e5773ffffffffffffffffffffffffffffffffffffffff60209254169051908152f35b833461039057807ffffffffffffffffffffffffffffffffffffffffffffffffffffffffffffffffc3601126103905761032a61095b565b600073ffffffffffffffffffffffffffffffffffffffff81547fffffffffffffffffffffffff000000000000000000000000000000000000000081168355167f8be0079c531659141344cd1fd0a4f28419497f9722a3daafe3b4186f6b6457e08280a380f35b80fd5b50503461029e57817ffffffffffffffffffffffffffffffffffffffffffffffffffffffffffffffffc36011261029e5760209073ffffffffffffffffffffffffffffffffffffffff600154169051908152f35b929050346104ac5760207ffffffffffffffffffffffffffffffffffffffffffffffffffffffffffffffffc3601126104ac5761042061077b565b61042861095b565b73ffffffffffffffffffffffffffffffffffffffff8060015416803b156104a857859283602492865197889586947f3659cfe600000000000000000000000000000000000000000000000000000000865216908401525af190811561049f575061048f5750f35b610498906107a3565b6103905780f35b513d84823e3d90fd5b8580fd5b5050fd5b5090346101a8576104c0366108b8565b855160209895979394939290898101816104dd85858a8a86610a40565b03917fffffffffffffffffffffffffffffffffffffffffffffffffffffffffffffffe09283810182526105109082610802565b5190208989805193610521856107e6565b8a85528d73ffffffffffffffffffffffffffffffffffffffff9486866001541694519485938401966105539388610a8f565b0390810182526105639082610802565b5190206111eb8a518d82016105789082610802565b8181528d810191610ae6833980511561072057518392918bf516998a156106c4578160015416928b3b156106c057906105f28a93928c5195869485947fcf7a1d77000000000000000000000000000000000000000000000000000000008652168a85015260248401526060604484015260648301906109fd565b0381838d5af180156106b6576106a3575b50873b156104a8578593929161064491885196879586957ff6d2ee860000000000000000000000000000000000000000000000000000000087528601610a40565b038183885af1801561069957610685575b50507f2f7aebcaa1b6e607137fc80962355832b79ed6710cc89acb7987434d1e4d1b24838251848152a151908152f35b61068f82916107a3565b6103905780610655565b83513d84823e3d90fd5b6106af909691966107a3565b9438610603565b88513d89823e3d90fd5b8980fd5b6064868d8c51917f08c379a0000000000000000000000000000000000000000000000000000000008352820152601960248201527f437265617465323a204661696c6564206f6e206465706c6f79000000000000006044820152fd5b6064888f808f51927f08c379a000000000000000000000000000000000000000000000000000000000845283015260248201527f437265617465323a2062797465636f6465206c656e677468206973207a65726f6044820152fd5b6004359073ffffffffffffffffffffffffffffffffffffffff8216820361079e57565b600080fd5b67ffffffffffffffff81116107b757604052565b7f4e487b7100000000000000000000000000000000000000000000000000000000600052604160045260246000fd5b6020810190811067ffffffffffffffff8211176107b757604052565b90601f7fffffffffffffffffffffffffffffffffffffffffffffffffffffffffffffffe0910116810190811067ffffffffffffffff8211176107b757604052565b81601f8201121561079e5780359067ffffffffffffffff82116107b7576040519261089660207fffffffffffffffffffffffffffffffffffffffffffffffffffffffffffffffe0601f8601160185610802565b8284526020838301011161079e57816000926020809301838601378301015290565b9060a07ffffffffffffffffffffffffffffffffffffffffffffffffffffffffffffffffc83011261079e5773ffffffffffffffffffffffffffffffffffffffff91600435838116810361079e5792602435908116810361079e579167ffffffffffffffff60443581811161079e578361093391600401610843565b9260643591821161079e5761094a91600401610843565b9060843560ff8116810361079e5790565b73ffffffffffffffffffffffffffffffffffffffff60005416330361097c57565b60646040517f08c379a000000000000000000000000000000000000000000000000000000000815260206004820152602060248201527f4f776e61626c653a2063616c6c6572206973206e6f7420746865206f776e65726044820152fd5b60005b8381106109ed5750506000910152565b81810151838201526020016109dd565b907fffffffffffffffffffffffffffffffffffffffffffffffffffffffffffffffe0601f602093610a39815180928187528780880191016109da565b0116010190565b92610a8890610a7a60609473ffffffffffffffffffffffffffffffffffffffff60ff959998991687526080602088015260808701906109fd565b9085820360408701526109fd565b9416910152565b9190926048949383527fffffffffffffffffffffffffffffffffffffffff000000000000000000000000809260601b16602084015260601b166034820152610ae082518093602086850191016109da565b01019056fe60808060405234610016576111cf908161001c8239f35b600080fdfe604060808152366103825773ffffffffffffffffffffffffffffffffffffffff807fb53127684a568b3173ae13b9f8a6016e243e63b6e8ee1178d6a717850b5d61035416158015610b94576000917fcf7a1d77000000000000000000000000000000000000000000000000000000007fffffffff00000000000000000000000000000000000000000000000000000000843516146100c057600484517ff92ee8a9000000000000000000000000000000000000000000000000000000008152fd5b6100c8611192565b60049136831161037e5760607ffffffffffffffffffffffffffffffffffffffffffffffffffffffffffffffffc36011261037e578235916101088361067f565b602435926101158461067f565b60443567ffffffffffffffff811161037a57610135839136908801610789565b941692156103525761014791166107e3565b803b156102cf578451907f5c60da1b000000000000000000000000000000000000000000000000000000009384835260209687848381865afa9384156102a657889461019d9189916102b2575b503b1515610926565b7fa3f0ad74e5423aebfd80d3ef4346578335a9a72aeaee59ff6cb3582b35133d5080547fffffffffffffffffffffffff00000000000000000000000000000000000000001673ffffffffffffffffffffffffffffffffffffffff85161790555194827f1cf3b03a6cf19fa2baba4df148e9dcabedea7f8a5c07840e207e5c089be95d3e8880a28451158015906102ab575b610242575b8361023c6107d0565b80519101f35b8592839182525afa9182156102a65761026a9392610277575b506102646109b1565b91610a21565b5038808083818080610233565b610298919250843d861161029f575b610290818361070e565b810190610902565b903861025b565b503d610286565b61091a565b508661022e565b6102c99150863d881161029f57610290818361070e565b38610194565b60848360208751917f08c379a0000000000000000000000000000000000000000000000000000000008352820152602560248201527f455243313936373a206e657720626561636f6e206973206e6f74206120636f6e60448201527f74726163740000000000000000000000000000000000000000000000000000006064820152fd5b8487517ff92ee8a9000000000000000000000000000000000000000000000000000000008152fd5b8680fd5b8380fd5b73ffffffffffffffffffffffffffffffffffffffff807fb53127684a568b3173ae13b9f8a6016e243e63b6e8ee1178d6a717850b5d61035416158015610b94576000907fcf7a1d77000000000000000000000000000000000000000000000000000000007fffffffff00000000000000000000000000000000000000000000000000000000833516146104395760046040517ff92ee8a9000000000000000000000000000000000000000000000000000000008152fd5b610441611192565b60049236841161067b5760607ffffffffffffffffffffffffffffffffffffffffffffffffffffffffffffffffc36011261067b5783356104808161067f565b6024359161048d8361067f565b60443567ffffffffffffffff8111610677576104ad829136908901610789565b9316931561064e576104bf91166107e3565b813b156105ca576040517f5c60da1b000000000000000000000000000000000000000000000000000000009283825260209586838281855afa9283156102a65787936105149188916105b357503b1515610926565b7fa3f0ad74e5423aebfd80d3ef4346578335a9a72aeaee59ff6cb3582b35133d5080547fffffffffffffffffffffffff00000000000000000000000000000000000000001673ffffffffffffffffffffffffffffffffffffffff841617905560405194827f1cf3b03a6cf19fa2baba4df148e9dcabedea7f8a5c07840e207e5c089be95d3e8880a28451158015906102ab57610242578361023c6107d0565b6102c99150853d871161029f57610290818361070e565b6084846020604051917f08c379a0000000000000000000000000000000000000000000000000000000008352820152602560248201527f455243313936373a206e657720626561636f6e206973206e6f74206120636f6e60448201527f74726163740000000000000000000000000000000000000000000000000000006064820152fd5b856040517ff92ee8a9000000000000000000000000000000000000000000000000000000008152fd5b8580fd5b8280fd5b73ffffffffffffffffffffffffffffffffffffffff81160361069d57565b600080fd5b7f4e487b7100000000000000000000000000000000000000000000000000000000600052604160045260246000fd5b6020810190811067ffffffffffffffff8211176106ed57604052565b6106a2565b6040810190811067ffffffffffffffff8211176106ed57604052565b90601f7fffffffffffffffffffffffffffffffffffffffffffffffffffffffffffffffe0910116810190811067ffffffffffffffff8211176106ed57604052565b67ffffffffffffffff81116106ed57601f017fffffffffffffffffffffffffffffffffffffffffffffffffffffffffffffffe01660200190565b81601f8201121561069d578035906107a08261074f565b926107ae604051948561070e565b8284526020838301011161069d57816000926020809301838601378301015290565b604051906107dd826106d1565b60008252565b7fb53127684a568b3173ae13b9f8a6016e243e63b6e8ee1178d6a717850b5d61039081547f7e644d79422f17c01e4894b5f4f588d331ebfa28653d42ae832dc59e38c9798f604080519373ffffffffffffffffffffffffffffffffffffffff9081851686521693846020820152a1811561087e577fffffffffffffffffffffffff000000000000000000000000000000000000000016179055565b60846040517f08c379a000000000000000000000000000000000000000000000000000000000815260206004820152602660248201527f455243313936373a206e65772061646d696e20697320746865207a65726f206160448201527f64647265737300000000000000000000000000000000000000000000000000006064820152fd5b9081602091031261069d57516109178161067f565b90565b6040513d6000823e3d90fd5b1561092d57565b60846040517f08c379a000000000000000000000000000000000000000000000000000000000815260206004820152603060248201527f455243313936373a20626561636f6e20696d706c656d656e746174696f6e206960448201527f73206e6f74206120636f6e7472616374000000000000000000000000000000006064820152fd5b604051906060820182811067ffffffffffffffff8211176106ed57604052602782527f206661696c6564000000000000000000000000000000000000000000000000006040837f416464726573733a206c6f772d6c6576656c2064656c65676174652063616c6c60208201520152565b6000806109179493602081519101845af43d15610a60573d91610a438361074f565b92610a51604051948561070e565b83523d6000602085013e610acd565b606091610acd565b15610a6f57565b60646040517f08c379a000000000000000000000000000000000000000000000000000000000815260206004820152601d60248201527f416464726573733a2063616c6c20746f206e6f6e2d636f6e74726163740000006044820152fd5b91929015610aed5750815115610ae1575090565b610917903b1515610a68565b825190915015610b005750805190602001fd5b604051907f08c379a000000000000000000000000000000000000000000000000000000000825281602080600483015282519283602484015260005b848110610b7d575050507fffffffffffffffffffffffffffffffffffffffffffffffffffffffffffffffe0601f836000604480968601015201168101030190fd5b818101830151868201604401528593508201610b3c565b610bee610bd57fb53127684a568b3173ae13b9f8a6016e243e63b6e8ee1178d6a717850b5d61035473ffffffffffffffffffffffffffffffffffffffff1690565b73ffffffffffffffffffffffffffffffffffffffff1690565b3303610d14576000357fffffffff00000000000000000000000000000000000000000000000000000000167f3659cfe6000000000000000000000000000000000000000000000000000000008103610c515750610c49610f0f565b602081519101f35b7f4f1ef286000000000000000000000000000000000000000000000000000000008103610c865750610c81611083565b610c49565b7f8f283970000000000000000000000000000000000000000000000000000000008103610cb65750610c81610ec5565b7ff851a440000000000000000000000000000000000000000000000000000000008103610ce65750610c81610dfd565b7f5c60da1b0000000000000000000000000000000000000000000000000000000003610d1457610c81610e53565b610d1c610d3b565b6000808092368280378136915af43d82803e15610d37573d90f35b3d90fd5b73ffffffffffffffffffffffffffffffffffffffff807f360894a13ba1a3210667c828492db98dca3e2076cc3735a920a3ca505d382bbc541680610df8575060206004917fa3f0ad74e5423aebfd80d3ef4346578335a9a72aeaee59ff6cb3582b35133d505416604051928380927f5c60da1b0000000000000000000000000000000000000000000000000000000082525afa9081156102a657600091610de0575090565b610917915060203d811161029f57610290818361070e565b905090565b610e05611192565b73ffffffffffffffffffffffffffffffffffffffff7fb53127684a568b3173ae13b9f8a6016e243e63b6e8ee1178d6a717850b5d6103541660405190602082015260208152610917816106f2565b610e5b611192565b610e63610d3b565b73ffffffffffffffffffffffffffffffffffffffff6040519116602082015260208152610917816106f2565b7ffffffffffffffffffffffffffffffffffffffffffffffffffffffffffffffffc602091011261069d576004356109178161067f565b610ecd611192565b3660041161069d57610efc73ffffffffffffffffffffffffffffffffffffffff610ef636610e8f565b166107e3565b604051610f08816106d1565b6000815290565b610f17611192565b3660041161069d5773ffffffffffffffffffffffffffffffffffffffff610f3d36610e8f565b1660405190610f4b826106d1565b60008252803b15610fff577f360894a13ba1a3210667c828492db98dca3e2076cc3735a920a3ca505d382bbc817fffffffffffffffffffffffff0000000000000000000000000000000000000000825416179055807fbc7cd75a20ee27fd9adebab32041f755214dbc6bffa90cc0225b39da2e5c2d3b600080a2815115801590610ff7575b610fe3575b5050604051610f08816106d1565b610fef916102646109b1565b503880610fd5565b506000610fd0565b60846040517f08c379a000000000000000000000000000000000000000000000000000000000815260206004820152602d60248201527f455243313936373a206e657720696d706c656d656e746174696f6e206973206e60448201527f6f74206120636f6e7472616374000000000000000000000000000000000000006064820152fd5b3660041161069d5760407ffffffffffffffffffffffffffffffffffffffffffffffffffffffffffffffffc36011261069d576004356110c18161067f565b60243567ffffffffffffffff811161069d576110f673ffffffffffffffffffffffffffffffffffffffff913690600401610789565b9116803b15610fff577f360894a13ba1a3210667c828492db98dca3e2076cc3735a920a3ca505d382bbc817fffffffffffffffffffffffff0000000000000000000000000000000000000000825416179055807fbc7cd75a20ee27fd9adebab32041f755214dbc6bffa90cc0225b39da2e5c2d3b600080a281511580159061118a57610fe3575050604051610f08816106d1565b506001610fd0565b3461069d5756fea26469706673582212200ba1d21ac2e0fbf3b66227d51b6eb0b8c5a36311eafb99821d17d6903b4a319164736f6c63430008130033a26469706673582212201a9e412ac95ff006936e263a76dd9c6a1f7b6cee8a7e9e351e27c3b82f72ae2464736f6c6343000813003360803461011a57601f6105ee38819003918201601f19168301916001600160401b0383118484101761011f5780849260209460405283398101031261011a57516001600160a01b03808216919082820361011a576000549160018060a01b0319923384821617600055604051923391167f8be0079c531659141344cd1fd0a4f28419497f9722a3daafe3b4186f6b6457e0600080a33b156100b2575060015416176001556040516104b890816101368239f35b62461bcd60e51b815260206004820152603360248201527f5570677261646561626c65426561636f6e3a20696d706c656d656e746174696f60448201527f6e206973206e6f74206120636f6e7472616374000000000000000000000000006064820152608490fd5b600080fd5b634e487b7160e01b600052604160045260246000fdfe6080604052600436101561001257600080fd5b6000803560e01c80633659cfe6146102ce5780635c60da1b1461027c578063715018a6146101e05780638da5cb5b1461018f5763f2fde38b1461005457600080fd5b3461018c5760207ffffffffffffffffffffffffffffffffffffffffffffffffffffffffffffffffc36011261018c5760043573ffffffffffffffffffffffffffffffffffffffff808216809203610188576100ad610403565b8115610104578254827fffffffffffffffffffffffff00000000000000000000000000000000000000008216178455167f8be0079c531659141344cd1fd0a4f28419497f9722a3daafe3b4186f6b6457e08380a380f35b60846040517f08c379a000000000000000000000000000000000000000000000000000000000815260206004820152602660248201527f4f776e61626c653a206e6577206f776e657220697320746865207a65726f206160448201527f64647265737300000000000000000000000000000000000000000000000000006064820152fd5b8280fd5b80fd5b503461018c57807ffffffffffffffffffffffffffffffffffffffffffffffffffffffffffffffffc36011261018c5773ffffffffffffffffffffffffffffffffffffffff6020915416604051908152f35b503461018c57807ffffffffffffffffffffffffffffffffffffffffffffffffffffffffffffffffc36011261018c57610217610403565b8073ffffffffffffffffffffffffffffffffffffffff81547fffffffffffffffffffffffff000000000000000000000000000000000000000081168355167f8be0079c531659141344cd1fd0a4f28419497f9722a3daafe3b4186f6b6457e08280a380f35b503461018c57807ffffffffffffffffffffffffffffffffffffffffffffffffffffffffffffffffc36011261018c57602073ffffffffffffffffffffffffffffffffffffffff60015416604051908152f35b503461018c5760207ffffffffffffffffffffffffffffffffffffffffffffffffffffffffffffffffc36011261018c5760043573ffffffffffffffffffffffffffffffffffffffff81169081810361018857610328610403565b3b1561037f57807fffffffffffffffffffffffff000000000000000000000000000000000000000060015416176001557fbc7cd75a20ee27fd9adebab32041f755214dbc6bffa90cc0225b39da2e5c2d3b8280a280f35b60846040517f08c379a000000000000000000000000000000000000000000000000000000000815260206004820152603360248201527f5570677261646561626c65426561636f6e3a20696d706c656d656e746174696f60448201527f6e206973206e6f74206120636f6e7472616374000000000000000000000000006064820152fd5b73ffffffffffffffffffffffffffffffffffffffff60005416330361042457565b60646040517f08c379a000000000000000000000000000000000000000000000000000000000815260206004820152602060248201527f4f776e61626c653a2063616c6c6572206973206e6f7420746865206f776e65726044820152fdfea26469706673582212206d6669e7216f33fbfd554999d569b5fe43670355d84777aee170c8d658ab91b864736f6c6343000813003360c060405234620002f85762000014620002fd565b6200001e620002fd565b8151906001600160401b0390818311620001f8576003908154906001948583811c9316968715620002ed575b60209788851014620002d7578190601f9485811162000281575b5088908583116001146200021a576000926200020e575b505060001982861b1c191690861b1783555b8051938411620001f85760049586548681811c91168015620001ed575b82821014620001d8578381116200018d575b50809285116001146200011f575093839491849260009562000113575b50501b92600019911b1c19161790555b336080523360a0526040516127289081620003228239608051816101d8015260a051816101a70152f35b015193503880620000d9565b92919084601f1981168860005285600020956000905b8983831062000172575050501062000157575b50505050811b019055620000e9565b01519060f884600019921b161c191690553880808062000148565b85870151895590970196948501948893509081019062000135565b87600052816000208480880160051c820192848910620001ce575b0160051c019087905b828110620001c1575050620000bc565b60008155018790620001b1565b92508192620001a8565b602288634e487b7160e01b6000525260246000fd5b90607f1690620000aa565b634e487b7160e01b600052604160045260246000fd5b0151905038806200007b565b90889350601f19831691876000528a6000209260005b8c8282106200026a575050841162000251575b505050811b0183556200008d565b015160001983881b60f8161c1916905538808062000243565b8385015186558c9790950194938401930162000230565b90915085600052886000208580850160051c8201928b8610620002cd575b918a91869594930160051c01915b828110620002bd57505062000064565b600081558594508a9101620002ad565b925081926200029f565b634e487b7160e01b600052602260045260246000fd5b92607f16926200004a565b600080fd5b60405190602082016001600160401b03811183821017620001f8576040526000825256fe608060409080825260048036101561001657600080fd5b600091823560e01c90816301ffc9a7146118a95750806306fdde03146117ff578063095ea7b3146117d557806318160ddd146117b657806323b872dd146116c6578063248a9ca31461169a5780632f2ff15d146115b5578063313ce5671461159357806336568abe146114ce578063395093511461147257806340c10f191461124f57806342966c68146110d75780635a44621514610ae957806370a0823114610aa65780639010d07c14610a5657806391d1485414610a0257806395d89b4114610903578063a217fddf146108e8578063a457c2d714610801578063a9059cbb146107d0578063ca15c873146107a7578063d547741f14610765578063dd62ed3e1461070f5763f6d2ee861461012c57600080fd5b3461070b57608060031936011261070b576101456119b2565b67ffffffffffffffff93602435858111610707576101669036908501611a89565b926044358681116107035761017e9036908301611a89565b956064359460ff86168096036106ff5773ffffffffffffffffffffffffffffffffffffffff92837f00000000000000000000000000000000000000000000000000000000000000001633148015906106f0575b6106ba57837f00000000000000000000000000000000000000000000000000000000000000001633148015906106e1575b6106ba57815183811161068e578061021b600754612550565b93601f94858111610622575b50602090858311600114610583578b92610578575b50506000198260011b9260031b1c1916176007555b885192831161054c5750610266600854612550565b8181116104ec575b506020908211600114610447578190879861037a97989261043c575b50506000198260011b9260031b1c1916176008555b7fffffffffffffffffffffffffffffffffffffffffffffffffffffffffffffff009060099582875416178655868052600560205282872093169283875260205260ff8287205416156103f3575b858052600660205261030083838820612372565b506101007fffffffffffffffffffffffffffffffffffffffffffffffffffffffffffff00ff8654161785557f9f2df0fed2c77648de5860a4cc508cd0818c85b8b8a1ab4ceeef8d981c8956a690818752600560205282872084885260205260ff8388205416156103a9575b50855260066020528420612372565b50620100007fffffffffffffffffffffffffffffffffffffffffffffffffffffffffff00ffff82541617905580f35b81875260056020528287208488526020526001838820918254161790553383827f2f8788117e7eff1d82e926ec794901d17c78024a50270940304540a733656f0d8980a43861036b565b85805260056020528186208387526020528186206001828254161790553383877f2f8788117e7eff1d82e926ec794901d17c78024a50270940304540a733656f0d8180a46102ec565b01519050388061028a565b600887527ff3f7a9fe364faab93b216da50a3214154f22a0a2b415b23a84c8169e8b636ee3977fffffffffffffffffffffffffffffffffffffffffffffffffffffffffffffffe08316885b8181106104d457509161037a979899918460019594106104bb575b505050811b0160085561029f565b015160001960f88460031b161c191690553880806104ad565b838301518b556001909a019960209384019301610492565b600888527ff3f7a9fe364faab93b216da50a3214154f22a0a2b415b23a84c8169e8b636ee38280850160051c82019260208610610543575b0160051c01905b818110610538575061026e565b88815560010161052b565b92508192610524565b8760416024927f4e487b7100000000000000000000000000000000000000000000000000000000835252fd5b01519050388061023c565b60078c527fa66cc928b5edb82af9bd49922954155ab7b0942694bea4ce44661d9a8736c688927fffffffffffffffffffffffffffffffffffffffffffffffffffffffffffffffe0168c5b81811061060a57509084600195949392106105f1575b505050811b01600755610251565b015160001960f88460031b161c191690553880806105e3565b929360206001819287860151815501950193016105cd565b90915060078b527fa66cc928b5edb82af9bd49922954155ab7b0942694bea4ce44661d9a8736c6888580850160051c82019260208610610685575b9085949392910160051c01905b8181106106775750610227565b8c815584935060010161066a565b9250819261065d565b6024896041847f4e487b7100000000000000000000000000000000000000000000000000000000835252fd5b84517ff92ee8a9000000000000000000000000000000000000000000000000000000008152fd5b5060ff60095460081c16610202565b5060ff60095460101c166101d1565b8680fd5b8580fd5b8480fd5b5080fd5b82843461070b578060031936011261070b578060209261072d6119b2565b6107356119da565b73ffffffffffffffffffffffffffffffffffffffff91821683526001865283832091168252845220549051908152f35b5082346107a357806003193601126107a3576107a0913561079b60016107896119da565b93838752600560205286200154611afe565b611d3d565b80f35b8280fd5b508290346107a35760206003193601126107a35760209282913581526006845220549051908152f35b82843461070b578060031936011261070b576020906107fa6107f06119b2565b6024359033611e2e565b5160018152f35b5090346108e557826003193601126108e55761081b6119b2565b918360243592338152600160205281812073ffffffffffffffffffffffffffffffffffffffff86168252602052205490828210610862576020856107fa858503873361203d565b60849060208651917f08c379a0000000000000000000000000000000000000000000000000000000008352820152602560248201527f45524332303a2064656372656173656420616c6c6f77616e63652062656c6f7760448201527f207a65726f0000000000000000000000000000000000000000000000000000006064820152fd5b80fd5b82843461070b578160031936011261070b5751908152602090f35b82843461070b578160031936011261070b578051908260085461092581612550565b808552916001918083169081156109bc575060011461095f575b5050506109518261095b940383611a48565b5191829182611968565b0390f35b9450600885527ff3f7a9fe364faab93b216da50a3214154f22a0a2b415b23a84c8169e8b636ee35b8286106109a45750505061095182602061095b958201019461093f565b80546020878701810191909152909501948101610987565b61095b9750869350602092506109519491507fffffffffffffffffffffffffffffffffffffffffffffffffffffffffffffff001682840152151560051b8201019461093f565b508290346107a357816003193601126107a3578160209360ff92610a246119da565b903582526005865273ffffffffffffffffffffffffffffffffffffffff83832091168252855220541690519015158152f35b508290346107a357816003193601126107a357610a9760209373ffffffffffffffffffffffffffffffffffffffff923581526006855283602435912061235a565b92905490519260031b1c168152f35b82843461070b57602060031936011261070b578060209273ffffffffffffffffffffffffffffffffffffffff610ada6119b2565b16815280845220549051908152f35b50913461070b578060031936011261070b5767ffffffffffffffff9083358281116110d357610b1b9036908601611a89565b906024803584811161070357610b349036908801611a89565b9585805260209260058452808720338852845260ff818820541615610e5d57508351858111610e325780610b69600754612550565b95601f96878111610dc7575b508590878311600114610d28578992610d1d575b50506000198260011b9260031b1c1916176007555b8651948511610cf3575050610bb4600854612550565b828111610c94575b5080918311600114610bf557508293829392610bea575b50506000198260011b9260031b1c19161760085580f35b015190503880610bd3565b907fffffffffffffffffffffffffffffffffffffffffffffffffffffffffffffffe0831694600885527ff3f7a9fe364faab93b216da50a3214154f22a0a2b415b23a84c8169e8b636ee39285905b878210610c7c575050836001959610610c63575b505050811b0160085580f35b015160001960f88460031b161c19169055388080610c57565b80600185968294968601518155019501930190610c43565b600885527ff3f7a9fe364faab93b216da50a3214154f22a0a2b415b23a84c8169e8b636ee38380860160051c820192848710610cea575b0160051c01905b818110610cdf5750610bbc565b858155600101610cd2565b92508192610ccb565b604186917f4e487b7100000000000000000000000000000000000000000000000000000000835252fd5b015190503880610b89565b60078a527fa66cc928b5edb82af9bd49922954155ab7b0942694bea4ce44661d9a8736c688927fffffffffffffffffffffffffffffffffffffffffffffffffffffffffffffffe0168a5b88828210610db1575050908460019594939210610d98575b505050811b01600755610b9e565b015160001960f88460031b161c19169055388080610d8a565b6001859682939686015181550195019301610d72565b909150600789527fa66cc928b5edb82af9bd49922954155ab7b0942694bea4ce44661d9a8736c6888780850160051c820192888610610e29575b9085949392910160051c01905b818110610e1b5750610b75565b8a8155849350600101610e0e565b92508192610e01565b50604186917f4e487b7100000000000000000000000000000000000000000000000000000000835252fd5b91868491610e6a336121f2565b85519183610e77846119fd565b604284528584019460603687378451156110a8576030865384519060019182101561107d5790607860218701536041915b818311610fd557505050610f7a5750610f76938693610f4893610f39604894610f049a519a857f416363657373436f6e74726f6c3a206163636f756e74200000000000000000008d978801528251928391603789019101611945565b8401917f206973206d697373696e6720726f6c6520000000000000000000000000000000603784015251809386840190611945565b01036028810187520185611a48565b519283927f08c379a00000000000000000000000000000000000000000000000000000000084528301611968565b0390fd5b925050508160649451937f08c379a00000000000000000000000000000000000000000000000000000000085528401528201527f537472696e67733a20686578206c656e67746820696e73756666696369656e746044820152fd5b909192600f81166010811015611052577f3031323334353637383961626364656600000000000000000000000000000000901a61101285896121b2565b53891c92801561102757600019019190610ea8565b848260118c7f4e487b7100000000000000000000000000000000000000000000000000000000835252fd5b858360328d7f4e487b7100000000000000000000000000000000000000000000000000000000835252fd5b8060328a7f4e487b710000000000000000000000000000000000000000000000000000000087945252fd5b90506032877f4e487b7100000000000000000000000000000000000000000000000000000000835252fd5b8380fd5b5082346107a357602090816003193601126110d35782359233156111ce57338552848352818520549084821061114c5750917fddf252ad1be2c89b69c2b068fc378daa952ba7f163c4a11628f55a4df523b3ef918486959433875286845203818620558360025403600255519283523392a380f35b608490848451917f08c379a0000000000000000000000000000000000000000000000000000000008352820152602260248201527f45524332303a206275726e20616d6f756e7420657863656564732062616c616e60448201527f63650000000000000000000000000000000000000000000000000000000000006064820152fd5b8260849251917f08c379a0000000000000000000000000000000000000000000000000000000008352820152602160248201527f45524332303a206275726e2066726f6d20746865207a65726f2061646472657360448201527f73000000000000000000000000000000000000000000000000000000000000006064820152fd5b508290346107a357816003193601126107a35761126a6119b2565b906024928335917f9f2df0fed2c77648de5860a4cc508cd0818c85b8b8a1ab4ceeef8d981c8956a69384875260209460058652838820338952865260ff848920541615611376575073ffffffffffffffffffffffffffffffffffffffff1694851561131c575050918185936113027fddf252ad1be2c89b69c2b068fc378daa952ba7f163c4a11628f55a4df523b3ef94600254611df2565b60025585855284835280852082815401905551908152a380f35b601f908560649451937f08c379a00000000000000000000000000000000000000000000000000000000085528401528201527f45524332303a206d696e7420746f20746865207a65726f2061646472657373006044820152fd5b859150868891611385336121f2565b9091865192611393846119fd565b604284528584019460603687378451156110a8576030865384519060019182101561107d5790607860218701536041915b81831161142057505050610f7a5750610f76938693610f4893610f39604894610f049a519a857f416363657373436f6e74726f6c3a206163636f756e74200000000000000000008d978801528251928391603789019101611945565b909192600f81166010811015611052577f3031323334353637383961626364656600000000000000000000000000000000901a61145d85896121b2565b53891c928015611027576000190191906113c4565b82843461070b578060031936011261070b576107fa6020926114c76114956119b2565b913381526001865284812073ffffffffffffffffffffffffffffffffffffffff84168252865284602435912054611df2565b903361203d565b503461070b578260031936011261070b576114e76119da565b903373ffffffffffffffffffffffffffffffffffffffff83160361151057906107a09135611d3d565b60849060208551917f08c379a0000000000000000000000000000000000000000000000000000000008352820152602f60248201527f416363657373436f6e74726f6c3a2063616e206f6e6c792072656e6f756e636560448201527f20726f6c657320666f722073656c6600000000000000000000000000000000006064820152fd5b82843461070b578160031936011261070b5760209060ff600954169051908152f35b5082346107a357806003193601126107a35761162f91359060066115d76119da565b92808652602090600582526115f160018589200154611afe565b8087526005825273ffffffffffffffffffffffffffffffffffffffff848820951694858852825260ff848820541615611633575b8652528320612372565b5080f35b80875260058252838720858852825283872060017fffffffffffffffffffffffffffffffffffffffffffffffffffffffffffffff008254161790553385827f2f8788117e7eff1d82e926ec794901d17c78024a50270940304540a733656f0d8a80a4611625565b508290346107a35760206003193601126107a35781602093600192358152600585522001549051908152f35b503461070b57606060031936011261070b576116e06119b2565b6116e86119da565b91846044359473ffffffffffffffffffffffffffffffffffffffff8416815260016020528181203382526020522054906000198203611730575b6020866107fa878787611e2e565b848210611759575091839161174e602096956107fa9503338361203d565b919394819350611722565b60649060208751917f08c379a0000000000000000000000000000000000000000000000000000000008352820152601d60248201527f45524332303a20696e73756666696369656e7420616c6c6f77616e63650000006044820152fd5b82843461070b578160031936011261070b576020906002549051908152f35b82843461070b578060031936011261070b576020906107fa6117f56119b2565b602435903361203d565b82843461070b578160031936011261070b578051908260075461182181612550565b808552916001918083169081156109bc575060011461184c575050506109518261095b940383611a48565b9450600785527fa66cc928b5edb82af9bd49922954155ab7b0942694bea4ce44661d9a8736c6885b8286106118915750505061095182602061095b958201019461093f565b80546020878701810191909152909501948101611874565b919050346107a35760206003193601126107a357357fffffffff0000000000000000000000000000000000000000000000000000000081168082036110d357602093507f1a856d0c0000000000000000000000000000000000000000000000000000000014908115611934575b8115611924575b5015158152f35b61192e91506125a3565b8361191d565b905061193f816125a3565b90611916565b60005b8381106119585750506000910152565b8181015183820152602001611948565b7fffffffffffffffffffffffffffffffffffffffffffffffffffffffffffffffe0601f604093602084526119ab8151809281602088015260208888019101611945565b0116010190565b6004359073ffffffffffffffffffffffffffffffffffffffff821682036119d557565b600080fd5b6024359073ffffffffffffffffffffffffffffffffffffffff821682036119d557565b6080810190811067ffffffffffffffff821117611a1957604052565b7f4e487b7100000000000000000000000000000000000000000000000000000000600052604160045260246000fd5b90601f7fffffffffffffffffffffffffffffffffffffffffffffffffffffffffffffffe0910116810190811067ffffffffffffffff821117611a1957604052565b81601f820112156119d55780359067ffffffffffffffff8211611a195760405192611adc60207fffffffffffffffffffffffffffffffffffffffffffffffffffffffffffffffe0601f8601160185611a48565b828452602083830101116119d557816000926020809301838601378301015290565b600081815260209060058252604092838220338352835260ff848320541615611b275750505050565b611b30336121f2565b845191611b3c836119fd565b60428352848301936060368637835115611d105760308553835190600191821015611d105790607860218601536041915b818311611c6357505050611c0757610f04938593611bd793611bc8604894610f76995198857f416363657373436f6e74726f6c3a206163636f756e74200000000000000000008b978801528251928391603789019101611945565b01036028810185520183611a48565b519182917f08c379a000000000000000000000000000000000000000000000000000000000835260048301611968565b6064848651907f08c379a000000000000000000000000000000000000000000000000000000000825280600483015260248201527f537472696e67733a20686578206c656e67746820696e73756666696369656e746044820152fd5b909192600f81166010811015611ce3577f3031323334353637383961626364656600000000000000000000000000000000901a611ca085886121b2565b5360041c928015611cb657600019019190611b6d565b6024827f4e487b710000000000000000000000000000000000000000000000000000000081526011600452fd5b6024837f4e487b710000000000000000000000000000000000000000000000000000000081526032600452fd5b807f4e487b7100000000000000000000000000000000000000000000000000000000602492526032600452fd5b906040611d8992600090808252600560205273ffffffffffffffffffffffffffffffffffffffff83832094169384835260205260ff8383205416611d8c575b8152600660205220612415565b50565b80825260056020528282208483526020528282207fffffffffffffffffffffffffffffffffffffffffffffffffffffffffffffff0081541690553384827ff6391f5c32d9c69d2a47ea670b442974b53935d1edc7fd64eb21e047a839171b8580a4611d7c565b91908201809211611dff57565b7f4e487b7100000000000000000000000000000000000000000000000000000000600052601160045260246000fd5b73ffffffffffffffffffffffffffffffffffffffff809116918215611fb95716918215611f3557600082815280602052604081205491808310611eb157604082827fddf252ad1be2c89b69c2b068fc378daa952ba7f163c4a11628f55a4df523b3ef958760209652828652038282205586815220818154019055604051908152a3565b60846040517f08c379a000000000000000000000000000000000000000000000000000000000815260206004820152602660248201527f45524332303a207472616e7366657220616d6f756e742065786365656473206260448201527f616c616e636500000000000000000000000000000000000000000000000000006064820152fd5b60846040517f08c379a000000000000000000000000000000000000000000000000000000000815260206004820152602360248201527f45524332303a207472616e7366657220746f20746865207a65726f206164647260448201527f65737300000000000000000000000000000000000000000000000000000000006064820152fd5b60846040517f08c379a000000000000000000000000000000000000000000000000000000000815260206004820152602560248201527f45524332303a207472616e736665722066726f6d20746865207a65726f20616460448201527f64726573730000000000000000000000000000000000000000000000000000006064820152fd5b73ffffffffffffffffffffffffffffffffffffffff80911691821561212f57169182156120ab5760207f8c5be1e5ebec7d5bd14f71427d1e84f3dd0314c0f7b2291e5b200ac8c7c3b925918360005260018252604060002085600052825280604060002055604051908152a3565b60846040517f08c379a000000000000000000000000000000000000000000000000000000000815260206004820152602260248201527f45524332303a20617070726f766520746f20746865207a65726f20616464726560448201527f73730000000000000000000000000000000000000000000000000000000000006064820152fd5b60846040517f08c379a0000000000000000000000000000000000000000000000000000000008152602060048201526024808201527f45524332303a20617070726f76652066726f6d20746865207a65726f2061646460448201527f72657373000000000000000000000000000000000000000000000000000000006064820152fd5b9081518110156121c3570160200190565b7f4e487b7100000000000000000000000000000000000000000000000000000000600052603260045260246000fd5b604051906060820182811067ffffffffffffffff821117611a1957604052602a82526020820160403682378251156121c3576030905381516001908110156121c357607860218401536029905b8082116122ad57505061224f5790565b60646040517f08c379a000000000000000000000000000000000000000000000000000000000815260206004820152602060248201527f537472696e67733a20686578206c656e67746820696e73756666696369656e746044820152fd5b9091600f8116601081101561232c577f3031323334353637383961626364656600000000000000000000000000000000901a6122e984866121b2565b5360041c9180156122fe57600019019061223f565b602460007f4e487b710000000000000000000000000000000000000000000000000000000081526011600452fd5b602460007f4e487b710000000000000000000000000000000000000000000000000000000081526032600452fd5b80548210156121c35760005260206000200190600090565b9190600183016000908282528060205260408220541560001461240f57845494680100000000000000008610156123e257836123d26123bb886001604098999a0185558461235a565b81939154906000199060031b92831b921b19161790565b9055549382526020522055600190565b6024837f4e487b710000000000000000000000000000000000000000000000000000000081526041600452fd5b50925050565b90600182019060009281845282602052604084205490811515600014612549576000199182810181811161251c578254908482019182116124ef578082036124ba575b5050508054801561248d57820191612470838361235a565b909182549160031b1b191690555582526020526040812055600190565b6024867f4e487b710000000000000000000000000000000000000000000000000000000081526031600452fd5b6124da6124ca6123bb938661235a565b90549060031b1c9283928661235a565b90558652846020526040862055388080612458565b6024887f4e487b710000000000000000000000000000000000000000000000000000000081526011600452fd5b6024877f4e487b710000000000000000000000000000000000000000000000000000000081526011600452fd5b5050505090565b90600182811c92168015612599575b602083101461256a57565b7f4e487b7100000000000000000000000000000000000000000000000000000000600052602260045260246000fd5b91607f169161255f565b7fffffffff000000000000000000000000000000000000000000000000000000008116907f36372b07000000000000000000000000000000000000000000000000000000008214918215612622575b508115612611575b8115612604575090565b61260e915061264c565b90565b905061261c8161264c565b906125fa565b7fa219a02500000000000000000000000000000000000000000000000000000000149150386125f2565b7fffffffff00000000000000000000000000000000000000000000000000000000167f5a05180f00000000000000000000000000000000000000000000000000000000811490811561269c575090565b7f7965db0b000000000000000000000000000000000000000000000000000000008114915081156126cb575090565b7f01ffc9a7000000000000000000000000000000000000000000000000000000009150149056fea2646970667358221220d6ef567f91fdce3482ab2709559b8ce3bc9d446f7e24abfd7f88715adc02b43664736f6c63430008130033","linkReferences":{}},"methodIdentifiers":{"beacon()":"59659e90","deploy(address,address,string,string,uint8)":"03e29ab7","determineAddress(address,address,string,string,uint8)":"933383bf","owner()":"8da5cb5b","renounceOwnership()":"715018a6","transferOwnership(address)":"f2fde38b","upgradeBeacon(address)":"1bce4583"},"id":99}