{"abi":[{"type":"constructor","inputs":[],"stateMutability":"nonpayable"},{"type":"function","name":"DEFAULT_ADMIN_ROLE","inputs":[],"outputs":[{"name":"","type":"bytes32","internalType":"bytes32"}],"stateMutability":"view"},{"type":"function","name":"approve","inputs":[{"name":"to","type":"address","internalType":"address"},{"name":"tokenId","type":"uint256","internalType":"uint256"}],"outputs":[],"stateMutability":"payable"},{"type":"function","name":"balanceOf","inputs":[{"name":"owner","type":"address","internalType":"address"}],"outputs":[{"name":"","type":"uint256","internalType":"uint256"}],"stateMutability":"view"},{"type":"function","name":"batchBurn","inputs":[{"name":"tokenIds","type":"uint256[]","internalType":"uint256[]"}],"outputs":[],"stateMutability":"nonpayable"},{"type":"function","name":"burn","inputs":[{"name":"tokenId","type":"uint256","internalType":"uint256"}],"outputs":[],"stateMutability":"nonpayable"},{"type":"function","name":"contractURI","inputs":[],"outputs":[{"name":"","type":"string","internalType":"string"}],"stateMutability":"view"},{"type":"function","name":"explicitOwnershipOf","inputs":[{"name":"tokenId","type":"uint256","internalType":"uint256"}],"outputs":[{"name":"ownership","type":"tuple","internalType":"struct IERC721A.TokenOwnership","components":[{"name":"addr","type":"address","internalType":"address"},{"name":"startTimestamp","type":"uint64","internalType":"uint64"},{"name":"burned","type":"bool","internalType":"bool"},{"name":"extraData","type":"uint24","internalType":"uint24"}]}],"stateMutability":"view"},{"type":"function","name":"explicitOwnershipsOf","inputs":[{"name":"tokenIds","type":"uint256[]","internalType":"uint256[]"}],"outputs":[{"name":"","type":"tuple[]","internalType":"struct IERC721A.TokenOwnership[]","components":[{"name":"addr","type":"address","internalType":"address"},{"name":"startTimestamp","type":"uint64","internalType":"uint64"},{"name":"burned","type":"bool","internalType":"bool"},{"name":"extraData","type":"uint24","internalType":"uint24"}]}],"stateMutability":"view"},{"type":"function","name":"getApproved","inputs":[{"name":"tokenId","type":"uint256","internalType":"uint256"}],"outputs":[{"name":"","type":"address","internalType":"address"}],"stateMutability":"view"},{"type":"function","name":"getRoleAdmin","inputs":[{"name":"role","type":"bytes32","internalType":"bytes32"}],"outputs":[{"name":"","type":"bytes32","internalType":"bytes32"}],"stateMutability":"view"},{"type":"function","name":"getRoleMember","inputs":[{"name":"role","type":"bytes32","internalType":"bytes32"},{"name":"index","type":"uint256","internalType":"uint256"}],"outputs":[{"name":"","type":"address","internalType":"address"}],"stateMutability":"view"},{"type":"function","name":"getRoleMemberCount","inputs":[{"name":"role","type":"bytes32","internalType":"bytes32"}],"outputs":[{"name":"","type":"uint256","internalType":"uint256"}],"stateMutability":"view"},{"type":"function","name":"grantRole","inputs":[{"name":"role","type":"bytes32","internalType":"bytes32"},{"name":"account","type":"address","internalType":"address"}],"outputs":[],"stateMutability":"nonpayable"},{"type":"function","name":"hasRole","inputs":[{"name":"role","type":"bytes32","internalType":"bytes32"},{"name":"account","type":"address","internalType":"address"}],"outputs":[{"name":"","type":"bool","internalType":"bool"}],"stateMutability":"view"},{"type":"function","name":"initialize","inputs":[{"name":"owner","type":"address","internalType":"address"},{"name":"tokenName","type":"string","internalType":"string"},{"name":"tokenSymbol","type":"string","internalType":"string"},{"name":"tokenBaseURI","type":"string","internalType":"string"},{"name":"tokenContractURI","type":"string","internalType":"string"},{"name":"royaltyReceiver","type":"address","internalType":"address"},{"name":"royaltyFeeNumerator","type":"uint96","internalType":"uint96"}],"outputs":[],"stateMutability":"nonpayable"},{"type":"function","name":"isApprovedForAll","inputs":[{"name":"owner","type":"address","internalType":"address"},{"name":"operator","type":"address","internalType":"address"}],"outputs":[{"name":"","type":"bool","internalType":"bool"}],"stateMutability":"view"},{"type":"function","name":"mint","inputs":[{"name":"to","type":"address","internalType":"address"},{"name":"amount","type":"uint256","internalType":"uint256"}],"outputs":[],"stateMutability":"nonpayable"},{"type":"function","name":"name","inputs":[],"outputs":[{"name":"","type":"string","internalType":"string"}],"stateMutability":"view"},{"type":"function","name":"ownerOf","inputs":[{"name":"tokenId","type":"uint256","internalType":"uint256"}],"outputs":[{"name":"","type":"address","internalType":"address"}],"stateMutability":"view"},{"type":"function","name":"renounceRole","inputs":[{"name":"role","type":"bytes32","internalType":"bytes32"},{"name":"account","type":"address","internalType":"address"}],"outputs":[],"stateMutability":"nonpayable"},{"type":"function","name":"revokeRole","inputs":[{"name":"role","type":"bytes32","internalType":"bytes32"},{"name":"account","type":"address","internalType":"address"}],"outputs":[],"stateMutability":"nonpayable"},{"type":"function","name":"royaltyInfo","inputs":[{"name":"tokenId","type":"uint256","internalType":"uint256"},{"name":"salePrice","type":"uint256","internalType":"uint256"}],"outputs":[{"name":"","type":"address","internalType":"address"},{"name":"","type":"uint256","internalType":"uint256"}],"stateMutability":"view"},{"type":"function","name":"safeTransferFrom","inputs":[{"name":"from","type":"address","internalType":"address"},{"name":"to","type":"address","internalType":"address"},{"name":"tokenId","type":"uint256","internalType":"uint256"}],"outputs":[],"stateMutability":"payable"},{"type":"function","name":"safeTransferFrom","inputs":[{"name":"from","type":"address","internalType":"address"},{"name":"to","type":"address","internalType":"address"},{"name":"tokenId","type":"uint256","internalType":"uint256"},{"name":"_data","type":"bytes","internalType":"bytes"}],"outputs":[],"stateMutability":"payable"},{"type":"function","name":"setApprovalForAll","inputs":[{"name":"operator","type":"address","internalType":"address"},{"name":"approved","type":"bool","internalType":"bool"}],"outputs":[],"stateMutability":"nonpayable"},{"type":"function","name":"setBaseMetadataURI","inputs":[{"name":"tokenBaseURI","type":"string","internalType":"string"}],"outputs":[],"stateMutability":"nonpayable"},{"type":"function","name":"setContractURI","inputs":[{"name":"tokenContractURI","type":"string","internalType":"string"}],"outputs":[],"stateMutability":"nonpayable"},{"type":"function","name":"setDefaultRoyalty","inputs":[{"name":"receiver","type":"address","internalType":"address"},{"name":"feeNumerator","type":"uint96","internalType":"uint96"}],"outputs":[],"stateMutability":"nonpayable"},{"type":"function","name":"setNameAndSymbol","inputs":[{"name":"tokenName","type":"string","internalType":"string"},{"name":"tokenSymbol","type":"string","internalType":"string"}],"outputs":[],"stateMutability":"nonpayable"},{"type":"function","name":"setTokenRoyalty","inputs":[{"name":"tokenId","type":"uint256","internalType":"uint256"},{"name":"receiver","type":"address","internalType":"address"},{"name":"feeNumerator","type":"uint96","internalType":"uint96"}],"outputs":[],"stateMutability":"nonpayable"},{"type":"function","name":"supportsInterface","inputs":[{"name":"interfaceId","type":"bytes4","internalType":"bytes4"}],"outputs":[{"name":"","type":"bool","internalType":"bool"}],"stateMutability":"view"},{"type":"function","name":"symbol","inputs":[],"outputs":[{"name":"","type":"string","internalType":"string"}],"stateMutability":"view"},{"type":"function","name":"tokenURI","inputs":[{"name":"tokenId","type":"uint256","internalType":"uint256"}],"outputs":[{"name":"","type":"string","internalType":"string"}],"stateMutability":"view"},{"type":"function","name":"tokensOfOwner","inputs":[{"name":"owner","type":"address","internalType":"address"}],"outputs":[{"name":"","type":"uint256[]","internalType":"uint256[]"}],"stateMutability":"view"},{"type":"function","name":"tokensOfOwnerIn","inputs":[{"name":"owner","type":"address","internalType":"address"},{"name":"start","type":"uint256","internalType":"uint256"},{"name":"stop","type":"uint256","internalType":"uint256"}],"outputs":[{"name":"","type":"uint256[]","internalType":"uint256[]"}],"stateMutability":"view"},{"type":"function","name":"totalSupply","inputs":[],"outputs":[{"name":"result","type":"uint256","internalType":"uint256"}],"stateMutability":"view"},{"type":"function","name":"transferFrom","inputs":[{"name":"from","type":"address","internalType":"address"},{"name":"to","type":"address","internalType":"address"},{"name":"tokenId","type":"uint256","internalType":"uint256"}],"outputs":[],"stateMutability":"payable"},{"type":"event","name":"Approval","inputs":[{"name":"owner","type":"address","indexed":true,"internalType":"address"},{"name":"approved","type":"address","indexed":true,"internalType":"address"},{"name":"tokenId","type":"uint256","indexed":true,"internalType":"uint256"}],"anonymous":false},{"type":"event","name":"ApprovalForAll","inputs":[{"name":"owner","type":"address","indexed":true,"internalType":"address"},{"name":"operator","type":"address","indexed":true,"internalType":"address"},{"name":"approved","type":"bool","indexed":false,"internalType":"bool"}],"anonymous":false},{"type":"event","name":"ConsecutiveTransfer","inputs":[{"name":"fromTokenId","type":"uint256","indexed":true,"internalType":"uint256"},{"name":"toTokenId","type":"uint256","indexed":false,"internalType":"uint256"},{"name":"from","type":"address","indexed":true,"internalType":"address"},{"name":"to","type":"address","indexed":true,"internalType":"address"}],"anonymous":false},{"type":"event","name":"RoleAdminChanged","inputs":[{"name":"role","type":"bytes32","indexed":true,"internalType":"bytes32"},{"name":"previousAdminRole","type":"bytes32","indexed":true,"internalType":"bytes32"},{"name":"newAdminRole","type":"bytes32","indexed":true,"internalType":"bytes32"}],"anonymous":false},{"type":"event","name":"RoleGranted","inputs":[{"name":"role","type":"bytes32","indexed":true,"internalType":"bytes32"},{"name":"account","type":"address","indexed":true,"internalType":"address"},{"name":"sender","type":"address","indexed":true,"internalType":"address"}],"anonymous":false},{"type":"event","name":"RoleRevoked","inputs":[{"name":"role","type":"bytes32","indexed":true,"internalType":"bytes32"},{"name":"account","type":"address","indexed":true,"internalType":"address"},{"name":"sender","type":"address","indexed":true,"internalType":"address"}],"anonymous":false},{"type":"event","name":"Transfer","inputs":[{"name":"from","type":"address","indexed":true,"internalType":"address"},{"name":"to","type":"address","indexed":true,"internalType":"address"},{"name":"tokenId","type":"uint256","indexed":true,"internalType":"uint256"}],"anonymous":false},{"type":"error","name":"ApprovalCallerNotOwnerNorApproved","inputs":[]},{"type":"error","name":"ApprovalQueryForNonexistentToken","inputs":[]},{"type":"error","name":"BalanceQueryForZeroAddress","inputs":[]},{"type":"error","name":"InvalidInitialization","inputs":[]},{"type":"error","name":"InvalidQueryRange","inputs":[]},{"type":"error","name":"MintERC2309QuantityExceedsLimit","inputs":[]},{"type":"error","name":"MintToZeroAddress","inputs":[]},{"type":"error","name":"MintZeroQuantity","inputs":[]},{"type":"error","name":"NotCompatibleWithSpotMints","inputs":[]},{"type":"error","name":"OwnerQueryForNonexistentToken","inputs":[]},{"type":"error","name":"OwnershipNotInitializedForExtraData","inputs":[]},{"type":"error","name":"SequentialMintExceedsLimit","inputs":[]},{"type":"error","name":"SequentialUpToTooSmall","inputs":[]},{"type":"error","name":"SpotMintTokenIdTooSmall","inputs":[]},{"type":"error","name":"TokenAlreadyExists","inputs":[]},{"type":"error","name":"TransferCallerNotOwnerNorApproved","inputs":[]},{"type":"error","name":"TransferFromIncorrectOwner","inputs":[]},{"type":"error","name":"TransferToNonERC721ReceiverImplementer","inputs":[]},{"type":"error","name":"TransferToZeroAddress","inputs":[]},{"type":"error","name":"URIQueryForNonexistentToken","inputs":[]}],"bytecode":{"object":"0x60a06040523462000146576200001462000161565b6200001e62000161565b81516001600160401b038111620001405762000047816200004160025462000185565b620001c2565b602080601f8311600114620000af575081906200008294600092620000a3575b50508160011b916000199060031b1c19161760025562000274565b6000805533608052604051613eaa908162000368823960805181613a000152f35b01519050388062000067565b60026000529193601f1985167f405787fa12a823e0f2b7631cc41b3ba8828b3321ca811111fa75cd3aa3bb5ace936000905b82821062000127575050916001939186620000829794106200010d575b505050811b0160025562000274565b015160001960f88460031b161c19169055388080620000fe565b80600186978294978701518155019601940190620000e1565b6200014b565b600080fd5b634e487b7160e01b600052604160045260246000fd5b60405190602082016001600160401b03811183821017620001405760405260008252565b90600182811c92168015620001b7575b6020831014620001a157565b634e487b7160e01b600052602260045260246000fd5b91607f169162000195565b601f8111620001cf575050565b6000906002825260208220906020601f850160051c8301941062000210575b601f0160051c01915b8281106200020457505050565b818155600101620001f7565b9092508290620001ee565b601f811162000228575050565b6000906003825260208220906020601f850160051c8301941062000269575b601f0160051c01915b8281106200025d57505050565b81815560010162000250565b909250829062000247565b80519091906001600160401b0381116200014057620002a0816200029a60035462000185565b6200021b565b602080601f8311600114620002df5750819293600092620002d3575b50508160011b916000199060031b1c191617600355565b015190503880620002bc565b6003600052601f198316949091907fc2575a0e9e593c00f959f8c92f12db2869c3395a3b0502d05e2516446f71f85b926000905b8782106200034e57505083600195961062000334575b505050811b01600355565b015160001960f88460031b161c1916905538808062000329565b806001859682949686015181550195019301906200031356fe6080604052600436101561001257600080fd5b60003560e01c806301ffc9a71461026757806304634d8d1461026257806306fdde031461025d578063081812fc14610258578063095ea7b31461025357806318160ddd1461024e57806323b872dd14610249578063248a9ca3146102445780632a55205a1461023f5780632f2ff15d1461023a57806336568abe1461023557806340c10f191461023057806342842e0e1461022b57806342966c68146102265780635944c753146102215780635a4462151461021c5780635bbb2177146102175780636352211e1461021257806370a082311461020d5780637e518ec8146102085780638462151c146102035780639010d07c146101fe57806391d14854146101f9578063938e3d7b146101f457806395d89b41146101ef57806398dd69c8146101ea57806399a2557a146101e5578063a217fddf146101e0578063a22cb465146101db578063b88d4fde146101d6578063c23dc68f146101d1578063c87b56dd146101cc578063ca15c873146101c7578063d547741f146101c2578063dc8e92ea146101bd578063e8a3d485146101b85763e985e9c5146101b357600080fd5b611e3a565b611d93565b611d0c565b611ccd565b611ca1565b611b27565b611ab5565b611a5a565b61198b565b61196f565b6117df565b611741565b61169a565b61159b565b61153b565b6114e8565b61135c565b611222565b6111cc565b611190565b61112a565b610f60565b610cee565b610cd2565b610caf565b610b9f565b610ad9565b610996565b6108c5565b610896565b610884565b61081f565b610700565b610686565b610587565b6104e7565b61029b565b7fffffffff0000000000000000000000000000000000000000000000000000000081160361029657565b600080fd5b346102965760206003193601126102965761031d6004356102bb8161026c565b7fffffffff000000000000000000000000000000000000000000000000000000008116807f40c10f190000000000000000000000000000000000000000000000000000000014918215610321575b505060405190151581529081906020820190565b0390f35b7fc21b8f28000000000000000000000000000000000000000000000000000000008214925090821561041e575b821561038d575b50811561037c575b811561036c575b503880610309565b6103769150613d0e565b38610364565b905061038781613d0e565b9061035d565b9091507f01ffc9a70000000000000000000000000000000000000000000000000000000081149081156103f4575b81156103ca575b509038610355565b7f5b5e139f00000000000000000000000000000000000000000000000000000000915014386103c2565b7f80ac58cd00000000000000000000000000000000000000000000000000000000811491506103bb565b7f8446a79e000000000000000000000000000000000000000000000000000000008114925061034e565b6004359073ffffffffffffffffffffffffffffffffffffffff8216820361029657565b6024359073ffffffffffffffffffffffffffffffffffffffff8216820361029657565b60a4359073ffffffffffffffffffffffffffffffffffffffff8216820361029657565b604435906bffffffffffffffffffffffff8216820361029657565b60c435906bffffffffffffffffffffffff8216820361029657565b3461029657604060031936011261029657610500610448565b6024356bffffffffffffffffffffffff811681036102965761052991610524612731565b613c36565b005b60005b83811061053e5750506000910152565b818101518382015260200161052e565b90601f19601f60209361056c8151809281875287808801910161052b565b0116010190565b90602061058492818152019061054e565b90565b3461029657600080600319360112610683576040519080600e546105aa81613307565b8085529160019180831690811561063b57506001146105e0575b61031d856105d481870382610ec0565b60405191829182610573565b9250600e83527fbb7b4a454dc3493923482f07822329ed19e8244eff582cc204f8554c3620c3fd5b8284106106235750505081016020016105d48261031d6105c4565b80546020858701810191909152909301928101610608565b86955061031d969350602092506105d49491507fffffffffffffffffffffffffffffffffffffffffffffffffffffffffffffff001682840152151560051b82010192936105c4565b80fd5b34610296576020600319360112610296576004356106a38161206f565b156106d6576000526006602052602073ffffffffffffffffffffffffffffffffffffffff60406000205416604051908152f35b7fcf4700e40000000000000000000000000000000000000000000000000000000060005260046000fd5b604060031936011261029657610714610448565b60243573ffffffffffffffffffffffffffffffffffffffff8061073683611f35565b16908133036107b6575b600083815260066020526040812080547fffffffffffffffffffffffff00000000000000000000000000000000000000001673ffffffffffffffffffffffffffffffffffffffff87161790559316907f8c5be1e5ebec7d5bd14f71427d1e84f3dd0314c0f7b2291e5b200ac8c7c3b9258480a480f35b81600052600760205260ff6107ef3360406000209073ffffffffffffffffffffffffffffffffffffffff16600052602052604060002090565b5416610740577fcfb3b9420000000000000000000000000000000000000000000000000000000060005260046000fd5b346102965760006003193601126102965760206000546001549003604051908152f35b60031960609101126102965773ffffffffffffffffffffffffffffffffffffffff90600435828116810361029657916024359081168103610296579060443590565b61052961089036610842565b916120d0565b3461029657602060031936011261029657600435600052600b6020526020600160406000200154604051908152f35b3461029657604060031936011261029657600435600052600a6020526040600020604051906108f382610e83565b549073ffffffffffffffffffffffffffffffffffffffff82169182825260a01c60208201529015610988575b61095f6127106109436bffffffffffffffffffffffff602085015116602435612dd8565b04915173ffffffffffffffffffffffffffffffffffffffff1690565b6040805173ffffffffffffffffffffffffffffffffffffffff9290921682526020820192909252f35b50610991612da5565b61091f565b3461029657604060031936011261029657600435610a3e6109b561046b565b73ffffffffffffffffffffffffffffffffffffffff610a36600094808652600b6020526109e860016040882001546128d5565b808652600b60205260ff610a1f85604089209073ffffffffffffffffffffffffffffffffffffffff16600052602052604060002090565b541615610a4257600052600c602052604060002090565b911690613183565b5080f35b808652600b602052610a7784604088209073ffffffffffffffffffffffffffffffffffffffff16600052602052604060002090565b60017fffffffffffffffffffffffffffffffffffffffffffffffffffffffffffffff0082541617905533838516827f2f8788117e7eff1d82e926ec794901d17c78024a50270940304540a733656f0d8980a4600052600c602052604060002090565b3461029657604060031936011261029657610af261046b565b3373ffffffffffffffffffffffffffffffffffffffff821603610b1b5761052990600435612cb1565b60846040517f08c379a000000000000000000000000000000000000000000000000000000000815260206004820152602f60248201527f416363657373436f6e74726f6c3a2063616e206f6e6c792072656e6f756e636560448201527f20726f6c657320666f722073656c6600000000000000000000000000000000006064820152fd5b3461029657604060031936011261029657610bb8610448565b60243590610bc461282b565b6000918254918115610caa57600191610c3673ffffffffffffffffffffffffffffffffffffffff83169284831460e11b4260a01b178417610c0f876000526004602052604060002090565b5573ffffffffffffffffffffffffffffffffffffffff166000526005602052604060002090565b68010000000000000001820281540190558115610ca5578301929180805b610c60575b8585815580f35b15610c94575b84818484887fddf252ad1be2c89b69c2b068fc378daa952ba7f163c4a11628f55a4df523b3ef8180a4610c54565b80920191838303610c665780610c59565b6124ea565b6124c0565b610529610cbb36610842565b9060405192610cc984610ea4565b600084526122df565b34610296576020600319360112610296576105296004356137cf565b3461029657606060031936011261029657610d0761046b565b610d0f6104b1565b90610d18612731565b610d346127106bffffffffffffffffffffffff84161115613bab565b73ffffffffffffffffffffffffffffffffffffffff811615610df657610d9361052992610d7e610d62610ee3565b73ffffffffffffffffffffffffffffffffffffffff9094168452565b6bffffffffffffffffffffffff166020830152565b610da9600435600052600a602052604060002090565b815160209092015160a01b7fffffffffffffffffffffffff00000000000000000000000000000000000000001673ffffffffffffffffffffffffffffffffffffffff909216919091179055565b60646040517f08c379a000000000000000000000000000000000000000000000000000000000815260206004820152601b60248201527f455243323938313a20496e76616c696420706172616d657465727300000000006044820152fd5b7f4e487b7100000000000000000000000000000000000000000000000000000000600052604160045260246000fd5b6040810190811067ffffffffffffffff821117610e9f57604052565b610e54565b6020810190811067ffffffffffffffff821117610e9f57604052565b90601f601f19910116810190811067ffffffffffffffff821117610e9f57604052565b60405190610ef082610e83565b565b67ffffffffffffffff8111610e9f57601f01601f191660200190565b929192610f1a82610ef2565b91610f286040519384610ec0565b829481845281830111610296578281602093846000960137010152565b9080601f830112156102965781602061058493359101610f0e565b346102965760406003193601126102965767ffffffffffffffff60043581811161029657610f92903690600401610f45565b9060243581811161029657610fab903690600401610f45565b90610fb4612880565b8251908111610e9f57610fd181610fcc600e54613307565b61335a565b602080601f83116001146110125750819061052994600092611007575b50506000198260011b9260031b1c191617600e5561351e565b015190503880610fee565b600e6000529193601f1985167fbb7b4a454dc3493923482f07822329ed19e8244eff582cc204f8554c3620c3fd936000905b82821061108557505091600193918661052997941061106c575b505050811b01600e5561351e565b015160001960f88460031b161c1916905538808061105e565b80600186978294978701518155019601940190611044565b6020908160408183019282815285518094520193019160005b8281106110c4575050505090565b909192938260808261111e600194895162ffffff6060809273ffffffffffffffffffffffffffffffffffffffff815116855267ffffffffffffffff6020820151166020860152604081015115156040860152015116910152565b019501939291016110b6565b346102965760206003193601126102965767ffffffffffffffff6004358181116102965736602382011215610296578060040135918211610296573660248360051b830101116102965761031d91602461118492016126f1565b6040519182918261109d565b3461029657602060031936011261029657602073ffffffffffffffffffffffffffffffffffffffff6111c3600435611f35565b16604051908152f35b346102965760206003193601126102965760206111ef6111ea610448565b611eaa565b604051908152f35b6020600319820112610296576004359067ffffffffffffffff82116102965761058491600401610f45565b3461029657611230366111f7565b611238612880565b805167ffffffffffffffff8111610e9f5761125d81611258600d54613307565b6133cb565b602080601f831160011461129a5750819260009261128f575b50506000198260011b9260031b1c191617600d55600080f35b015190503880611276565b90601f198316936112cd600d6000527fd7b6990105719101dabeb77144f2a3385c8033acd3af97e9423a695e81ad1eb590565b926000905b86821061130957505083600195106112f0575b505050811b01600d55005b015160001960f88460031b161c191690553880806112e5565b806001859682949686015181550195019301906112d2565b6020908160408183019282815285518094520193019160005b828110611348575050505090565b83518552938101939281019260010161133a565b3461029657602060031936011261029657611375610448565b6000805490606080928015928315611396575b6040518061031d8782611321565b949193508392909185916114e3576113ad81611eaa565b95866113c7575b505050505061031d915038808080611388565b909192939450858411156114da575b60409283519560019384890160051b8801988987526113f361261c565b9084916114096114058a830151151590565b1590565b6114bb575b50849591959887805b611437575b5050505050505050505061031d9250815238808080806113b4565b1561149d575b859661144884612673565b808b0151156114655750508786935b0196888d8b52979397611417565b9390935180611495575b50848418861b15611482575b8890611457565b998801600581901b8c018b90529961147b565b93503861146f565b80831480156114b2575b1561143d578061141c565b50818a146114a7565b5173ffffffffffffffffffffffffffffffffffffffff1691503861140e565b945082946113d6565b6125bc565b3461029657604060031936011261029657600435600052600c602052602073ffffffffffffffffffffffffffffffffffffffff61152b602435604060002061314d565b9190546040519260031b1c168152f35b3461029657604060031936011261029657602060ff61158f61155b61046b565b600435600052600b845260406000209073ffffffffffffffffffffffffffffffffffffffff16600052602052604060002090565b54166040519015158152f35b34610296576115a9366111f7565b6115b1612880565b805167ffffffffffffffff8111610e9f576115d6816115d1601054613307565b61343c565b602080601f831160011461161357508192600092611608575b50506000198260011b9260031b1c191617601055600080f35b0151905038806115ef565b90601f1983169361164660106000527f1b6847dc741a1b0cd08d278845f9d819d87b734759afb55fe2de5cb82a9ae67290565b926000905b8682106116825750508360019510611669575b505050811b01601055005b015160001960f88460031b161c1916905538808061165e565b8060018596829496860151815501950193019061164b565b3461029657600080600319360112610683576040519080600f546116bd81613307565b8085529160019180831690811561063b57506001146116e65761031d856105d481870382610ec0565b9250600f83527f8d1108e10bcb7c27dddfc02ed9d693a074039d026cf4ea4240b40f7d581ac8025b8284106117295750505081016020016105d48261031d6105c4565b8054602085870181019190915290930192810161170e565b346102965760e06003193601126102965761175a610448565b67ffffffffffffffff906024358281116102965761177c903690600401610f45565b60443583811161029657611794903690600401610f45565b606435848111610296576117ac903690600401610f45565b608435948511610296576117c7610529953690600401610f45565b916117d061048e565b936117d96104cc565b956139e3565b3461029657606080600319360112610296576117f9610448565b6024359190604435838382808310156114e35760005480911015611967575b5061182284611eaa565b918387101561195e575b82611840575b6040518061031d8882611321565b90919293945085840383811115611956575b50604092835195600193600591611872868501841b8a019a8b895261265b565b936000946118856114058a830151151590565b611937575b5060009594959887805b6118b4575b5050505050505050505061031d925081523880808080611832565b15611919575b6000966118c687612673565b808b0151156118e35750508787965b0196888d8b52979697611894565b9690965180611911575b50838718851b15611900575b88906118d5565b99880180861b8c018b9052996118f9565b9650386118ed565b808614801561192e575b156118ba5780611899565b50818a14611923565b5173ffffffffffffffffffffffffffffffffffffffff1694503861188a565b925038611852565b6000925061182c565b925038611818565b3461029657600060031936011261029657602060405160008152f35b34610296576040600319360112610296576119a4610448565b602435908115158092036102965773ffffffffffffffffffffffffffffffffffffffff903360005260076020526119ff8160406000209073ffffffffffffffffffffffffffffffffffffffff16600052602052604060002090565b7fffffffffffffffffffffffffffffffffffffffffffffffffffffffffffffff0081541660ff851617905560405192835216907f17307eab39ab6107e8899845ad3d59bd9653f200f220920489ca2b5937696c3160203392a3005b608060031936011261029657611a6e610448565b611a7661046b565b6064359167ffffffffffffffff8311610296573660238401121561029657611aab610529933690602481600401359101610f0e565b91604435916122df565b34610296576020600319360112610296576080611ad360043561265b565b611b25604051809262ffffff6060809273ffffffffffffffffffffffffffffffffffffffff815116855267ffffffffffffffff6020820151166020860152604081015115156040860152015116910152565bf35b346102965760208060031936011261029657600435611b458161206f565b15611c77576040519082826000600d54611b5e81613307565b80845290600190818116908115611c375750600114611bd8575b5050611b8692500383610ec0565b815115611bc55761031d92611bb7611ba06105d493612477565b611bb1604051958694850190611f1e565b90611f1e565b03601f198101835282610ec0565b50505061031d611bd3611f0b565b6105d4565b90939150600d6000527fd7b6990105719101dabeb77144f2a3385c8033acd3af97e9423a695e81ad1eb5936000915b818310611c1f575087945050820101611b8638611b78565b85548884018501529485019487945091830191611c07565b9050611b869593507fffffffffffffffffffffffffffffffffffffffffffffffffffffffffffffff0091501682840152151560051b820101859238611b78565b7fa14c4b500000000000000000000000000000000000000000000000000000000060005260046000fd5b3461029657602060031936011261029657600435600052600c6020526020604060002054604051908152f35b3461029657604060031936011261029657610529600435611cec61046b565b9080600052600b602052611d076001604060002001546128d5565b612cb1565b34610296576020806003193601126102965767ffffffffffffffff6004358181116102965736602382011215610296578060040135918211610e9f578160051b60405192611d5c85830185610ec0565b83526024848401918301019136831161029657602401905b828210611d8457610529846139a5565b81358152908401908401611d74565b3461029657600080600319360112610683576040519080601054611db681613307565b8085529160019180831690811561063b5750600114611ddf5761031d856105d481870382610ec0565b9250601083527f1b6847dc741a1b0cd08d278845f9d819d87b734759afb55fe2de5cb82a9ae6725b828410611e225750505081016020016105d48261031d6105c4565b80546020858701810191909152909301928101611e07565b3461029657604060031936011261029657602060ff61158f611e5a610448565b73ffffffffffffffffffffffffffffffffffffffff611e7761046b565b91166000526007845260406000209073ffffffffffffffffffffffffffffffffffffffff16600052602052604060002090565b73ffffffffffffffffffffffffffffffffffffffff168015611ee157600052600560205267ffffffffffffffff6040600020541690565b7f8f4eb6040000000000000000000000000000000000000000000000000000000060005260046000fd5b60405190611f1882610ea4565b60008252565b90611f316020928281519485920161052b565b0190565b611f49816000526004602052604060002090565b54908115611f7957507c010000000000000000000000000000000000000000000000000000000081166125145790565b9050600090815481101561200657600019905b01611fa1816000526004602052604060002090565b54908115611ffc57507c0100000000000000000000000000000000000000000000000000000000811615611ff7576004827fdf2d9b42000000000000000000000000000000000000000000000000000000008152fd5b905090565b6000199150611f8c565b6004827fdf2d9b42000000000000000000000000000000000000000000000000000000008152fd5b7f4e487b7100000000000000000000000000000000000000000000000000000000600052601160045260246000fd5b801561206a576000190190565b61202e565b90600091600080548210612081575050565b9192505b80825260046020526040822054806120aa57506120a360409161205d565b9050612085565b7c0100000000000000000000000000000000000000000000000000000000161592915050565b9190916120dc82611f35565b9073ffffffffffffffffffffffffffffffffffffffff8091169384828416036122da576000848152600660205260409020805461213573ffffffffffffffffffffffffffffffffffffffff881633908114908314171590565b612270575b612266575b5061216a8573ffffffffffffffffffffffffffffffffffffffff166000526005602052604060002090565b805460001901905561219c8173ffffffffffffffffffffffffffffffffffffffff166000526005602052604060002090565b80546001019055169283917c0200000000000000000000000000000000000000000000000000000000804260a01b8517176121e1866000526004602052604060002090565b5581161561221c575b507fddf252ad1be2c89b69c2b068fc378daa952ba7f163c4a11628f55a4df523b3ef600080a41561221757565b612592565b60018401612234816000526004602052604060002090565b5415612241575b506121ea565b600054811461223b5761225e906000526004602052604060002090565b55388061223b565b600090553861213f565b6122d06114056122c9336122a48b73ffffffffffffffffffffffffffffffffffffffff166000526007602052604060002090565b9073ffffffffffffffffffffffffffffffffffffffff16600052602052604060002090565b5460ff1690565b1561213a57612568565b61253e565b9291906122ed8282866120d0565b803b6122fa575b50505050565b61230393612380565b1561231157388080806122f4565b7fd1a57ed60000000000000000000000000000000000000000000000000000000060005260046000fd5b9081602091031261029657516105848161026c565b3d1561237b573d9061236182610ef2565b9161236f6040519384610ec0565b82523d6000602084013e565b606090565b91926020916123f29160006040519586809581947f150b7a02000000000000000000000000000000000000000000000000000000009a8b845233600485015273ffffffffffffffffffffffffffffffffffffffff8095166024850152604484015260806064840152608483019061054e565b0393165af160009181612447575b506124215761240d612350565b80511561241c57805190602001fd5b612311565b7fffffffff00000000000000000000000000000000000000000000000000000000161490565b61246991925060203d8111612470575b6124618183610ec0565b81019061233b565b9038612400565b503d612457565b9060405160a08101604052600019608082019360008552935b0192600a908181066030018553049283156124ae5760001990612490565b9250608083601f199203019201918252565b7fb562e8dd0000000000000000000000000000000000000000000000000000000060005260046000fd5b7f2e0763000000000000000000000000000000000000000000000000000000000060005260046000fd5b7fdf2d9b420000000000000000000000000000000000000000000000000000000060005260046000fd5b7fa11481000000000000000000000000000000000000000000000000000000000060005260046000fd5b7f59c896be0000000000000000000000000000000000000000000000000000000060005260046000fd5b7fea553b340000000000000000000000000000000000000000000000000000000060005260046000fd5b7f32c1995a0000000000000000000000000000000000000000000000000000000060005260046000fd5b604051906080820182811067ffffffffffffffff821117610e9f5760405260006060838281528260208201528260408201520152565b600090816126286125e6565b928054612633575050565b9192505b808252600460205260408220546126515760001901612637565b6105849150612673565b906126646125e6565b91600080548210612633575050565b61267b6125e6565b5060005260046020526040600020546126926125e6565b9073ffffffffffffffffffffffffffffffffffffffff8116825267ffffffffffffffff8160a01c1660208301527c010000000000000000000000000000000000000000000000000000000081161515604083015260e81c606082015290565b6040519180835260051b6020818401016040525b8081801561272a5761272190601f19809101938501013561265b565b90840152612705565b5050505090565b3360009081527f142ae0bd48b54fb380e908bf20fd1f4ea4f2b9a2663ca7698d91ef391575c621602052604090205460ff161561276a57565b61282760486127f561277b33612ed9565b611bb7612786612f76565b6040519485937f416363657373436f6e74726f6c3a206163636f756e742000000000000000000060208601526127c681518092602060378901910161052b565b84017f206973206d697373696e6720726f6c652000000000000000000000000000000060378201520190611f1e565b6040519182917f08c379a000000000000000000000000000000000000000000000000000000000835260048301610573565b0390fd5b3360009081527ff70e363b3d7895af770c4a138460777d52eebd3cb9962ccc6b58721f6127bbc8602052604090205460ff161561286457565b61282760486127f561287533612ed9565b611bb7612786613013565b3360009081527fea6919ad9e84aa527aa2dffb6ac6f0a6af0387a080d10167acddf2a249a612dd602052604090205460ff16156128b957565b61282760486127f56128ca33612ed9565b611bb76127866130b0565b80600052600b60205260ff61290e3360406000209073ffffffffffffffffffffffffffffffffffffffff16600052602052604060002090565b5416156129185750565b61292133612ed9565b612929612deb565b91603061293584612e46565b53607861294184612e53565b5360415b600181116129645761282760486127f585611bb7886127868815612e74565b90600f81169060108210156129b2577f30313233343536373839616263646566000000000000000000000000000000006129ad921a6129a38487612e63565b5360041c9161205d565b612945565b612e17565b73ffffffffffffffffffffffffffffffffffffffff81811660009081527fdf7de25b7f1fd6d0b5205f0e18f1f35bd7b8d84cce336588d184533ce43a6f76602052604080822054612a1f9493929060ff1615612a22575b808052600c60205220911690613183565b50565b808052600b602052612a56848383209073ffffffffffffffffffffffffffffffffffffffff16600052602052604060002090565b60017fffffffffffffffffffffffffffffffffffffffffffffffffffffffffffffff0082541617905533838516827f2f8788117e7eff1d82e926ec794901d17c78024a50270940304540a733656f0d8180a4612a0e565b73ffffffffffffffffffffffffffffffffffffffff80821660009081527fea6919ad9e84aa527aa2dffb6ac6f0a6af0387a080d10167acddf2a249a612dd6020526040808220612a1f949392907fe02a0315b383857ac496e9d2b2546a699afaeb4e5e83a1fdef64376d0b74e5a59060ff905b541615612b38575b8152600c60205220911690613183565b808252600b602052612b6c858484209073ffffffffffffffffffffffffffffffffffffffff16600052602052604060002090565b60017fffffffffffffffffffffffffffffffffffffffffffffffffffffffffffffff0082541617905533848616827f2f8788117e7eff1d82e926ec794901d17c78024a50270940304540a733656f0d8580a4612b28565b73ffffffffffffffffffffffffffffffffffffffff80821660009081527f142ae0bd48b54fb380e908bf20fd1f4ea4f2b9a2663ca7698d91ef391575c6216020526040808220612a1f949392907f6db4061a20ca83a3be756ee172bd37a029093ac5afe4ce968c6d5435b43cb0119060ff90612b20565b73ffffffffffffffffffffffffffffffffffffffff80821660009081527ff70e363b3d7895af770c4a138460777d52eebd3cb9962ccc6b58721f6127bbc86020526040808220612a1f949392907f9f2df0fed2c77648de5860a4cc508cd0818c85b8b8a1ab4ceeef8d981c8956a69060ff90612b20565b9073ffffffffffffffffffffffffffffffffffffffff6040612a1f93600090808252600b60205260ff612d06868585209073ffffffffffffffffffffffffffffffffffffffff16600052602052604060002090565b5416612d1d575b8152600c60205220911690613252565b808252600b602052612d51858484209073ffffffffffffffffffffffffffffffffffffffff16600052602052604060002090565b7fffffffffffffffffffffffffffffffffffffffffffffffffffffffffffffff00815416905533848616827ff6391f5c32d9c69d2a47ea670b442974b53935d1edc7fd64eb21e047a839171b8580a4612d0d565b60405190612db282610e83565b60095473ffffffffffffffffffffffffffffffffffffffff8116835260a01c6020830152565b8181029291811591840414171561206a57565b604051906080820182811067ffffffffffffffff821117610e9f57604052604282526060366020840137565b7f4e487b7100000000000000000000000000000000000000000000000000000000600052603260045260246000fd5b8051156129b25760200190565b8051600110156129b25760210190565b9081518110156129b2570160200190565b15612e7b57565b60646040517f08c379a000000000000000000000000000000000000000000000000000000000815260206004820152602060248201527f537472696e67733a20686578206c656e67746820696e73756666696369656e746044820152fd5b604051906060820182811067ffffffffffffffff821117610e9f57604052602a825260403660208401376030612f0e83612e46565b536078612f1a83612e53565b536029905b60018211612f3257610584915015612e74565b600f81169060108210156129b2577f3031323334353637383961626364656600000000000000000000000000000000612f70921a6129a38486612e63565b90612f1f565b7f6db4061a20ca83a3be756ee172bd37a029093ac5afe4ce968c6d5435b43cb011612f9f612deb565b906030612fab83612e46565b536078612fb783612e53565b536041905b60018211612fcf57610584915015612e74565b600f81169060108210156129b2577f303132333435363738396162636465660000000000000000000000000000000061300d921a6129a38486612e63565b90612fbc565b7f9f2df0fed2c77648de5860a4cc508cd0818c85b8b8a1ab4ceeef8d981c8956a661303c612deb565b90603061304883612e46565b53607861305483612e53565b536041905b6001821161306c57610584915015612e74565b600f81169060108210156129b2577f30313233343536373839616263646566000000000000000000000000000000006130aa921a6129a38486612e63565b90613059565b7fe02a0315b383857ac496e9d2b2546a699afaeb4e5e83a1fdef64376d0b74e5a56130d9612deb565b9060306130e583612e46565b5360786130f183612e53565b536041905b6001821161310957610584915015612e74565b600f81169060108210156129b2577f3031323334353637383961626364656600000000000000000000000000000000613147921a6129a38486612e63565b906130f6565b80548210156129b25760005260206000200190600090565b9161317f918354906000199060031b92831b921b19161790565b9055565b60018101908260005281602052604060002054156000146131f157805468010000000000000000811015610e9f576131dc6131c582600187940185558461314d565b81939154906000199060031b92831b921b19161790565b90555491600052602052604060002055600190565b505050600090565b80549081156132235760001980920191613213838361314d565b909182549160031b1b1916905555565b7f4e487b7100000000000000000000000000000000000000000000000000000000600052603160045260246000fd5b60018101918060005282602052604060002054928315156000146132fe57600019928385019085821161206a57805494850194851161206a5760009585836132a6946132b598036132bb575b5050506131f9565b90600052602052604060002090565b55600190565b6132e56132df916132cf6132f5948761314d565b90549060031b1c9283918761314d565b90613165565b8590600052602052604060002090565b5538808061329e565b50505050600090565b90600182811c92168015613350575b602083101461332157565b7f4e487b7100000000000000000000000000000000000000000000000000000000600052602260045260246000fd5b91607f1691613316565b601f8111613366575050565b600090600e82527fbb7b4a454dc3493923482f07822329ed19e8244eff582cc204f8554c3620c3fd906020601f850160051c830194106133c1575b601f0160051c01915b8281106133b657505050565b8181556001016133aa565b90925082906133a1565b601f81116133d7575050565b600090600d82527fd7b6990105719101dabeb77144f2a3385c8033acd3af97e9423a695e81ad1eb5906020601f850160051c83019410613432575b601f0160051c01915b82811061342757505050565b81815560010161341b565b9092508290613412565b601f8111613448575050565b600090601082527f1b6847dc741a1b0cd08d278845f9d819d87b734759afb55fe2de5cb82a9ae672906020601f850160051c830194106134a3575b601f0160051c01915b82811061349857505050565b81815560010161348c565b9092508290613483565b601f81116134b9575050565b600090600f82527f8d1108e10bcb7c27dddfc02ed9d693a074039d026cf4ea4240b40f7d581ac802906020601f850160051c83019410613514575b601f0160051c01915b82811061350957505050565b8181556001016134fd565b90925082906134f4565b90815167ffffffffffffffff8111610e9f576135448161353f600f54613307565b6134ad565b602080601f831160011461357f5750819293600092613574575b50506000198260011b9260031b1c191617600f55565b01519050388061355e565b90601f198316946135b2600f6000527f8d1108e10bcb7c27dddfc02ed9d693a074039d026cf4ea4240b40f7d581ac80290565b926000905b8782106135ef5750508360019596106135d6575b505050811b01600f55565b015160001960f88460031b161c191690553880806135cb565b806001859682949686015181550195019301906135b7565b90815167ffffffffffffffff8111610e9f5761362881611258600d54613307565b602080601f83116001146136635750819293600092613658575b50506000198260011b9260031b1c191617600d55565b015190503880613642565b90601f19831694613696600d6000527fd7b6990105719101dabeb77144f2a3385c8033acd3af97e9423a695e81ad1eb590565b926000905b8782106136d35750508360019596106136ba575b505050811b01600d55565b015160001960f88460031b161c191690553880806136af565b8060018596829496860151815501950193019061369b565b90815167ffffffffffffffff8111610e9f5761370c816115d1601054613307565b602080601f8311600114613747575081929360009261373c575b50506000198260011b9260031b1c191617601055565b015190503880613726565b90601f1983169461377a60106000527f1b6847dc741a1b0cd08d278845f9d819d87b734759afb55fe2de5cb82a9ae67290565b926000905b8782106137b757505083600195961061379e575b505050811b01601055565b015160001960f88460031b161c19169055388080613793565b8060018596829496860151815501950193019061377f565b6137d881611f35565b73ffffffffffffffffffffffffffffffffffffffff8116613806836000526006602052604060002090815490565b929061382e73ffffffffffffffffffffffffffffffffffffffff841633908114908614171590565b613967575b60009361395e575b506138668273ffffffffffffffffffffffffffffffffffffffff166000526005602052604060002090565b6fffffffffffffffffffffffffffffffff81540190557c03000000000000000000000000000000000000000000000000000000004260a01b8317176138b5856000526004602052604060002090565b557c0200000000000000000000000000000000000000000000000000000000811615613915575b507fddf252ad1be2c89b69c2b068fc378daa952ba7f163c4a11628f55a4df523b3ef8280a4610ef061391060015460010190565b600155565b6001840161392d816000526004602052604060002090565b541561393a575b506138dc565b8354811461393457613956906000526004602052604060002090565b553880613934565b8390553861383b565b61399b6114056122c9336122a48773ffffffffffffffffffffffffffffffffffffffff166000526007602052604060002090565b1561383357612568565b80519060005b8281106139b757505050565b81518110156129b2576139d260208260051b840101516137cf565b600019811461206a576001016139ab565b95949392919073ffffffffffffffffffffffffffffffffffffffff7f0000000000000000000000000000000000000000000000000000000000000000163314801590613b9f575b613b755780519067ffffffffffffffff8211610e9f57613a4f82610fcc600e54613307565b60209081601f8411600114613af2575093613a98613aa29484613ac29b9a9895613a9d95613abd9b996000926110075750506000198260011b9260031b1c191617600e5561351e565b613607565b6136eb565b613aab846129b7565b613ab484612aad565b61052484612bc3565b612c3a565b610ef060017fffffffffffffffffffffffffffffffffffffffffffffffffffffffffffffff006011541617601155565b600e6000529190601f1984167fbb7b4a454dc3493923482f07822329ed19e8244eff582cc204f8554c3620c3fd936000905b828210613b5d57505094600185613a9d95613abd9b9995613a9895613ac29f9e9c99613aa29b1061106c57505050811b01600e5561351e565b80600186978294978701518155019601940190613b24565b60046040517ff92ee8a9000000000000000000000000000000000000000000000000000000008152fd5b5060ff60115416613a2a565b15613bb257565b60846040517f08c379a000000000000000000000000000000000000000000000000000000000815260206004820152602a60248201527f455243323938313a20726f79616c7479206665652077696c6c2065786365656460448201527f2073616c655072696365000000000000000000000000000000000000000000006064820152fd5b73ffffffffffffffffffffffffffffffffffffffff6bffffffffffffffffffffffff831691613c69612710841115613bab565b16918215613cb0577fffffffffffffffffffffffff0000000000000000000000000000000000000000916020604051613ca181610e83565b858152015260a01b1617600955565b60646040517f08c379a000000000000000000000000000000000000000000000000000000000815260206004820152601960248201527f455243323938313a20696e76616c6964207265636569766572000000000000006044820152fd5b613d1781613dfd565b908115613d65575b8115613d3a575b8115613d30575090565b6105849150613d76565b7fffffffff000000000000000000000000000000000000000000000000000000008116159150613d26565b9050613d7081613d76565b90613d1f565b7fffffffff000000000000000000000000000000000000000000000000000000008116907f5a05180f000000000000000000000000000000000000000000000000000000008214918215613dc957505090565b7f7965db0b000000000000000000000000000000000000000000000000000000001491508115613df7575090565b61058491505b7fffffffff00000000000000000000000000000000000000000000000000000000167f2a55205a000000000000000000000000000000000000000000000000000000008114908115613e4d575090565b7f01ffc9a7000000000000000000000000000000000000000000000000000000009150149056fea2646970667358221220709bb60bcb6900113375c469dd86384003500e8295952fe0c50623edb5fa25dd64736f6c63430008130033","linkReferences":{}},"methodIdentifiers":{"DEFAULT_ADMIN_ROLE()":"a217fddf","approve(address,uint256)":"095ea7b3","balanceOf(address)":"70a08231","batchBurn(uint256[])":"dc8e92ea","burn(uint256)":"42966c68","contractURI()":"e8a3d485","explicitOwnershipOf(uint256)":"c23dc68f","explicitOwnershipsOf(uint256[])":"5bbb2177","getApproved(uint256)":"081812fc","getRoleAdmin(bytes32)":"248a9ca3","getRoleMember(bytes32,uint256)":"9010d07c","getRoleMemberCount(bytes32)":"ca15c873","grantRole(bytes32,address)":"2f2ff15d","hasRole(bytes32,address)":"91d14854","initialize(address,string,string,string,string,address,uint96)":"98dd69c8","isApprovedForAll(address,address)":"e985e9c5","mint(address,uint256)":"40c10f19","name()":"06fdde03","ownerOf(uint256)":"6352211e","renounceRole(bytes32,address)":"36568abe","revokeRole(bytes32,address)":"d547741f","royaltyInfo(uint256,uint256)":"2a55205a","safeTransferFrom(address,address,uint256)":"42842e0e","safeTransferFrom(address,address,uint256,bytes)":"b88d4fde","setApprovalForAll(address,bool)":"a22cb465","setBaseMetadataURI(string)":"7e518ec8","setContractURI(string)":"938e3d7b","setDefaultRoyalty(address,uint96)":"04634d8d","setNameAndSymbol(string,string)":"5a446215","setTokenRoyalty(uint256,address,uint96)":"5944c753","supportsInterface(bytes4)":"01ffc9a7","symbol()":"95d89b41","tokenURI(uint256)":"c87b56dd","tokensOfOwner(address)":"8462151c","tokensOfOwnerIn(address,uint256,uint256)":"99a2557a","totalSupply()":"18160ddd","transferFrom(address,address,uint256)":"23b872dd"},"id":103}