{"abi":[{"type":"constructor","inputs":[{"name":"factoryOwner","type":"address","internalType":"address"}],"stateMutability":"nonpayable"},{"type":"function","name":"beacon","inputs":[],"outputs":[{"name":"","type":"address","internalType":"contract UpgradeableBeacon"}],"stateMutability":"view"},{"type":"function","name":"deploy","inputs":[{"name":"proxyOwner","type":"address","internalType":"address"},{"name":"tokenOwner","type":"address","internalType":"address"},{"name":"items","type":"address","internalType":"address"}],"outputs":[{"name":"proxyAddr","type":"address","internalType":"address"}],"stateMutability":"nonpayable"},{"type":"function","name":"determineAddress","inputs":[{"name":"proxyOwner","type":"address","internalType":"address"},{"name":"tokenOwner","type":"address","internalType":"address"},{"name":"items","type":"address","internalType":"address"}],"outputs":[{"name":"proxyAddr","type":"address","internalType":"address"}],"stateMutability":"view"},{"type":"function","name":"owner","inputs":[],"outputs":[{"name":"","type":"address","internalType":"address"}],"stateMutability":"view"},{"type":"function","name":"renounceOwnership","inputs":[],"outputs":[],"stateMutability":"nonpayable"},{"type":"function","name":"transferOwnership","inputs":[{"name":"newOwner","type":"address","internalType":"address"}],"outputs":[],"stateMutability":"nonpayable"},{"type":"function","name":"upgradeBeacon","inputs":[{"name":"implementation","type":"address","internalType":"address"}],"outputs":[],"stateMutability":"nonpayable"},{"type":"event","name":"ERC721SaleDeployed","inputs":[{"name":"proxyAddr","type":"address","indexed":false,"internalType":"address"}],"anonymous":false},{"type":"event","name":"OwnershipTransferred","inputs":[{"name":"previousOwner","type":"address","indexed":true,"internalType":"address"},{"name":"newOwner","type":"address","indexed":true,"internalType":"address"}],"anonymous":false}],"bytecode":{"object":"0x608034610121576001600160401b0390601f61483938819003918201601f191683019291908484118385101761010b57816020928492604096875283398101031261012157516001600160a01b0380821682036101215761005f33610126565b82519361246794858101958187108388111761010b576123d2823980600096039086f0908115610101578451916105ee808401928311848410176100ed5791848492602094611de4853916815203019085f080156100e0576100d39394501660018060a01b03196001541617600155610126565b51611c76908161016e8239f35b50505051903d90823e3d90fd5b634e487b7160e01b88526041600452602488fd5b84513d87823e3d90fd5b634e487b7160e01b600052604160045260246000fd5b600080fd5b600080546001600160a01b039283166001600160a01b03198216811783559216907f8be0079c531659141344cd1fd0a4f28419497f9722a3daafe3b4186f6b6457e09080a356fe6040608081526004908136101561001557600080fd5b600091823560e01c80631bce45831461079057806359659e901461073d578063715018a6146106a05780638da5cb5b1461064b578063d9181cd3146102ee578063e657f693146101aa5763f2fde38b1461006e57600080fd5b346101a65760207ffffffffffffffffffffffffffffffffffffffffffffffffffffffffffffffffc3601126101a6576100a561084f565b906100ae6108bd565b73ffffffffffffffffffffffffffffffffffffffff809216928315610123575050600054827fffffffffffffffffffffffff0000000000000000000000000000000000000000821617600055167f8be0079c531659141344cd1fd0a4f28419497f9722a3daafe3b4186f6b6457e0600080a380f35b90602060849251917f08c379a0000000000000000000000000000000000000000000000000000000008352820152602660248201527f4f776e61626c653a206e6577206f776e657220697320746865207a65726f206160448201527f64647265737300000000000000000000000000000000000000000000000000006064820152fd5b8280fd5b8284346102eb5760607ffffffffffffffffffffffffffffffffffffffffffffffffffffffffffffffffc3601126102eb57506101e461084f565b906101ed610877565b916055600b6101fa61089a565b845173ffffffffffffffffffffffffffffffffffffffff968716602080830191825292909716604080830191909152815290957fffffffffffffffffffffffffffffffffffffffffffffffffffffffffffffffe09161025a60608261099b565b519020906102ab86519161026d8361097f565b6000835273ffffffffffffffffffffffffffffffffffffffff9661029f8860015416948a519586938d850198896109ff565b0390810183528261099b565b5190206111eb85516102bf8883018261099b565b81815287810191610a5683395190209085519186830152868201523081520160ff815320915191168152f35b80fd5b5090346101a65760607ffffffffffffffffffffffffffffffffffffffffffffffffffffffffffffffffc3601126101a65761032761084f565b92610330610877565b61033861089a565b908351946020968787018761037586868490602090939293604083019473ffffffffffffffffffffffffffffffffffffffff809216845216910152565b03976103a77fffffffffffffffffffffffffffffffffffffffffffffffffffffffffffffffe0998a810183528261099b565b5190208651916103b68361097f565b6000835273ffffffffffffffffffffffffffffffffffffffff91816103f98c6103ed878d88600154169051958694850197886109ff565b038c810183528261099b565b5190206111eb895161040d8d83018261099b565b8181528c810191610a5683398051156105f057518492918af516988915610594578260015416938a3b156105905791608491601f8a95946104988f8e51998a9889977fcf7a1d77000000000000000000000000000000000000000000000000000000008952168c880152602487015260606044870152825192839182606489015288880191016109dc565b01168101030181838b5af1801561058657908591610572575b5050853b1561056e5784517f485cc95500000000000000000000000000000000000000000000000000000000815273ffffffffffffffffffffffffffffffffffffffff928316918101918252929091166020820152829082908190604001038183885af1801561056457610550575b50507fe3fc4d8c7984f762222579e0c4564a72a74f96cde3f6bae2751d01108c6ec240838251848152a151908152f35b61055a829161093c565b6102eb5780610520565b83513d84823e3d90fd5b8380fd5b61057b9061093c565b61056e5783386104b1565b86513d87823e3d90fd5b8880fd5b6064858c8b51917f08c379a0000000000000000000000000000000000000000000000000000000008352820152601960248201527f437265617465323a204661696c6564206f6e206465706c6f79000000000000006044820152fd5b6064878e808e51927f08c379a000000000000000000000000000000000000000000000000000000000845283015260248201527f437265617465323a2062797465636f6465206c656e677468206973207a65726f6044820152fd5b50503461069c57817ffffffffffffffffffffffffffffffffffffffffffffffffffffffffffffffffc36011261069c5773ffffffffffffffffffffffffffffffffffffffff60209254169051908152f35b5080fd5b83346102eb57807ffffffffffffffffffffffffffffffffffffffffffffffffffffffffffffffffc3601126102eb576106d76108bd565b600073ffffffffffffffffffffffffffffffffffffffff81547fffffffffffffffffffffffff000000000000000000000000000000000000000081168355167f8be0079c531659141344cd1fd0a4f28419497f9722a3daafe3b4186f6b6457e08280a380f35b50503461069c57817ffffffffffffffffffffffffffffffffffffffffffffffffffffffffffffffffc36011261069c5760209073ffffffffffffffffffffffffffffffffffffffff600154169051908152f35b5090346101a65760207ffffffffffffffffffffffffffffffffffffffffffffffffffffffffffffffffc3601126101a657826107ca61084f565b6107d26108bd565b73ffffffffffffffffffffffffffffffffffffffff90816001541690813b1561056e5783602492865197889586947f3659cfe600000000000000000000000000000000000000000000000000000000865216908401525af1908115610846575061083a575080f35b6108439061093c565b80f35b513d84823e3d90fd5b6004359073ffffffffffffffffffffffffffffffffffffffff8216820361087257565b600080fd5b6024359073ffffffffffffffffffffffffffffffffffffffff8216820361087257565b6044359073ffffffffffffffffffffffffffffffffffffffff8216820361087257565b73ffffffffffffffffffffffffffffffffffffffff6000541633036108de57565b60646040517f08c379a000000000000000000000000000000000000000000000000000000000815260206004820152602060248201527f4f776e61626c653a2063616c6c6572206973206e6f7420746865206f776e65726044820152fd5b67ffffffffffffffff811161095057604052565b7f4e487b7100000000000000000000000000000000000000000000000000000000600052604160045260246000fd5b6020810190811067ffffffffffffffff82111761095057604052565b90601f7fffffffffffffffffffffffffffffffffffffffffffffffffffffffffffffffe0910116810190811067ffffffffffffffff82111761095057604052565b60005b8381106109ef5750506000910152565b81810151838201526020016109df565b9190926048949383527fffffffffffffffffffffffffffffffffffffffff000000000000000000000000809260601b16602084015260601b166034820152610a5082518093602086850191016109dc565b01019056fe60808060405234610016576111cf908161001c8239f35b600080fdfe604060808152366103825773ffffffffffffffffffffffffffffffffffffffff807fb53127684a568b3173ae13b9f8a6016e243e63b6e8ee1178d6a717850b5d61035416158015610b94576000917fcf7a1d77000000000000000000000000000000000000000000000000000000007fffffffff00000000000000000000000000000000000000000000000000000000843516146100c057600484517ff92ee8a9000000000000000000000000000000000000000000000000000000008152fd5b6100c8611192565b60049136831161037e5760607ffffffffffffffffffffffffffffffffffffffffffffffffffffffffffffffffc36011261037e578235916101088361067f565b602435926101158461067f565b60443567ffffffffffffffff811161037a57610135839136908801610789565b941692156103525761014791166107e3565b803b156102cf578451907f5c60da1b000000000000000000000000000000000000000000000000000000009384835260209687848381865afa9384156102a657889461019d9189916102b2575b503b1515610926565b7fa3f0ad74e5423aebfd80d3ef4346578335a9a72aeaee59ff6cb3582b35133d5080547fffffffffffffffffffffffff00000000000000000000000000000000000000001673ffffffffffffffffffffffffffffffffffffffff85161790555194827f1cf3b03a6cf19fa2baba4df148e9dcabedea7f8a5c07840e207e5c089be95d3e8880a28451158015906102ab575b610242575b8361023c6107d0565b80519101f35b8592839182525afa9182156102a65761026a9392610277575b506102646109b1565b91610a21565b5038808083818080610233565b610298919250843d861161029f575b610290818361070e565b810190610902565b903861025b565b503d610286565b61091a565b508661022e565b6102c99150863d881161029f57610290818361070e565b38610194565b60848360208751917f08c379a0000000000000000000000000000000000000000000000000000000008352820152602560248201527f455243313936373a206e657720626561636f6e206973206e6f74206120636f6e60448201527f74726163740000000000000000000000000000000000000000000000000000006064820152fd5b8487517ff92ee8a9000000000000000000000000000000000000000000000000000000008152fd5b8680fd5b8380fd5b73ffffffffffffffffffffffffffffffffffffffff807fb53127684a568b3173ae13b9f8a6016e243e63b6e8ee1178d6a717850b5d61035416158015610b94576000907fcf7a1d77000000000000000000000000000000000000000000000000000000007fffffffff00000000000000000000000000000000000000000000000000000000833516146104395760046040517ff92ee8a9000000000000000000000000000000000000000000000000000000008152fd5b610441611192565b60049236841161067b5760607ffffffffffffffffffffffffffffffffffffffffffffffffffffffffffffffffc36011261067b5783356104808161067f565b6024359161048d8361067f565b60443567ffffffffffffffff8111610677576104ad829136908901610789565b9316931561064e576104bf91166107e3565b813b156105ca576040517f5c60da1b000000000000000000000000000000000000000000000000000000009283825260209586838281855afa9283156102a65787936105149188916105b357503b1515610926565b7fa3f0ad74e5423aebfd80d3ef4346578335a9a72aeaee59ff6cb3582b35133d5080547fffffffffffffffffffffffff00000000000000000000000000000000000000001673ffffffffffffffffffffffffffffffffffffffff841617905560405194827f1cf3b03a6cf19fa2baba4df148e9dcabedea7f8a5c07840e207e5c089be95d3e8880a28451158015906102ab57610242578361023c6107d0565b6102c99150853d871161029f57610290818361070e565b6084846020604051917f08c379a0000000000000000000000000000000000000000000000000000000008352820152602560248201527f455243313936373a206e657720626561636f6e206973206e6f74206120636f6e60448201527f74726163740000000000000000000000000000000000000000000000000000006064820152fd5b856040517ff92ee8a9000000000000000000000000000000000000000000000000000000008152fd5b8580fd5b8280fd5b73ffffffffffffffffffffffffffffffffffffffff81160361069d57565b600080fd5b7f4e487b7100000000000000000000000000000000000000000000000000000000600052604160045260246000fd5b6020810190811067ffffffffffffffff8211176106ed57604052565b6106a2565b6040810190811067ffffffffffffffff8211176106ed57604052565b90601f7fffffffffffffffffffffffffffffffffffffffffffffffffffffffffffffffe0910116810190811067ffffffffffffffff8211176106ed57604052565b67ffffffffffffffff81116106ed57601f017fffffffffffffffffffffffffffffffffffffffffffffffffffffffffffffffe01660200190565b81601f8201121561069d578035906107a08261074f565b926107ae604051948561070e565b8284526020838301011161069d57816000926020809301838601378301015290565b604051906107dd826106d1565b60008252565b7fb53127684a568b3173ae13b9f8a6016e243e63b6e8ee1178d6a717850b5d61039081547f7e644d79422f17c01e4894b5f4f588d331ebfa28653d42ae832dc59e38c9798f604080519373ffffffffffffffffffffffffffffffffffffffff9081851686521693846020820152a1811561087e577fffffffffffffffffffffffff000000000000000000000000000000000000000016179055565b60846040517f08c379a000000000000000000000000000000000000000000000000000000000815260206004820152602660248201527f455243313936373a206e65772061646d696e20697320746865207a65726f206160448201527f64647265737300000000000000000000000000000000000000000000000000006064820152fd5b9081602091031261069d57516109178161067f565b90565b6040513d6000823e3d90fd5b1561092d57565b60846040517f08c379a000000000000000000000000000000000000000000000000000000000815260206004820152603060248201527f455243313936373a20626561636f6e20696d706c656d656e746174696f6e206960448201527f73206e6f74206120636f6e7472616374000000000000000000000000000000006064820152fd5b604051906060820182811067ffffffffffffffff8211176106ed57604052602782527f206661696c6564000000000000000000000000000000000000000000000000006040837f416464726573733a206c6f772d6c6576656c2064656c65676174652063616c6c60208201520152565b6000806109179493602081519101845af43d15610a60573d91610a438361074f565b92610a51604051948561070e565b83523d6000602085013e610acd565b606091610acd565b15610a6f57565b60646040517f08c379a000000000000000000000000000000000000000000000000000000000815260206004820152601d60248201527f416464726573733a2063616c6c20746f206e6f6e2d636f6e74726163740000006044820152fd5b91929015610aed5750815115610ae1575090565b610917903b1515610a68565b825190915015610b005750805190602001fd5b604051907f08c379a000000000000000000000000000000000000000000000000000000000825281602080600483015282519283602484015260005b848110610b7d575050507fffffffffffffffffffffffffffffffffffffffffffffffffffffffffffffffe0601f836000604480968601015201168101030190fd5b818101830151868201604401528593508201610b3c565b610bee610bd57fb53127684a568b3173ae13b9f8a6016e243e63b6e8ee1178d6a717850b5d61035473ffffffffffffffffffffffffffffffffffffffff1690565b73ffffffffffffffffffffffffffffffffffffffff1690565b3303610d14576000357fffffffff00000000000000000000000000000000000000000000000000000000167f3659cfe6000000000000000000000000000000000000000000000000000000008103610c515750610c49610f0f565b602081519101f35b7f4f1ef286000000000000000000000000000000000000000000000000000000008103610c865750610c81611083565b610c49565b7f8f283970000000000000000000000000000000000000000000000000000000008103610cb65750610c81610ec5565b7ff851a440000000000000000000000000000000000000000000000000000000008103610ce65750610c81610dfd565b7f5c60da1b0000000000000000000000000000000000000000000000000000000003610d1457610c81610e53565b610d1c610d3b565b6000808092368280378136915af43d82803e15610d37573d90f35b3d90fd5b73ffffffffffffffffffffffffffffffffffffffff807f360894a13ba1a3210667c828492db98dca3e2076cc3735a920a3ca505d382bbc541680610df8575060206004917fa3f0ad74e5423aebfd80d3ef4346578335a9a72aeaee59ff6cb3582b35133d505416604051928380927f5c60da1b0000000000000000000000000000000000000000000000000000000082525afa9081156102a657600091610de0575090565b610917915060203d811161029f57610290818361070e565b905090565b610e05611192565b73ffffffffffffffffffffffffffffffffffffffff7fb53127684a568b3173ae13b9f8a6016e243e63b6e8ee1178d6a717850b5d6103541660405190602082015260208152610917816106f2565b610e5b611192565b610e63610d3b565b73ffffffffffffffffffffffffffffffffffffffff6040519116602082015260208152610917816106f2565b7ffffffffffffffffffffffffffffffffffffffffffffffffffffffffffffffffc602091011261069d576004356109178161067f565b610ecd611192565b3660041161069d57610efc73ffffffffffffffffffffffffffffffffffffffff610ef636610e8f565b166107e3565b604051610f08816106d1565b6000815290565b610f17611192565b3660041161069d5773ffffffffffffffffffffffffffffffffffffffff610f3d36610e8f565b1660405190610f4b826106d1565b60008252803b15610fff577f360894a13ba1a3210667c828492db98dca3e2076cc3735a920a3ca505d382bbc817fffffffffffffffffffffffff0000000000000000000000000000000000000000825416179055807fbc7cd75a20ee27fd9adebab32041f755214dbc6bffa90cc0225b39da2e5c2d3b600080a2815115801590610ff7575b610fe3575b5050604051610f08816106d1565b610fef916102646109b1565b503880610fd5565b506000610fd0565b60846040517f08c379a000000000000000000000000000000000000000000000000000000000815260206004820152602d60248201527f455243313936373a206e657720696d706c656d656e746174696f6e206973206e60448201527f6f74206120636f6e7472616374000000000000000000000000000000000000006064820152fd5b3660041161069d5760407ffffffffffffffffffffffffffffffffffffffffffffffffffffffffffffffffc36011261069d576004356110c18161067f565b60243567ffffffffffffffff811161069d576110f673ffffffffffffffffffffffffffffffffffffffff913690600401610789565b9116803b15610fff577f360894a13ba1a3210667c828492db98dca3e2076cc3735a920a3ca505d382bbc817fffffffffffffffffffffffff0000000000000000000000000000000000000000825416179055807fbc7cd75a20ee27fd9adebab32041f755214dbc6bffa90cc0225b39da2e5c2d3b600080a281511580159061118a57610fe3575050604051610f08816106d1565b506001610fd0565b3461069d5756fea26469706673582212200ba1d21ac2e0fbf3b66227d51b6eb0b8c5a36311eafb99821d17d6903b4a319164736f6c63430008130033a2646970667358221220faf7507aae463874107955f4a139ccd6296a755995c56c46b37bcd093079782564736f6c6343000813003360803461011a57601f6105ee38819003918201601f19168301916001600160401b0383118484101761011f5780849260209460405283398101031261011a57516001600160a01b03808216919082820361011a576000549160018060a01b0319923384821617600055604051923391167f8be0079c531659141344cd1fd0a4f28419497f9722a3daafe3b4186f6b6457e0600080a33b156100b2575060015416176001556040516104b890816101368239f35b62461bcd60e51b815260206004820152603360248201527f5570677261646561626c65426561636f6e3a20696d706c656d656e746174696f60448201527f6e206973206e6f74206120636f6e7472616374000000000000000000000000006064820152608490fd5b600080fd5b634e487b7160e01b600052604160045260246000fdfe6080604052600436101561001257600080fd5b6000803560e01c80633659cfe6146102ce5780635c60da1b1461027c578063715018a6146101e05780638da5cb5b1461018f5763f2fde38b1461005457600080fd5b3461018c5760207ffffffffffffffffffffffffffffffffffffffffffffffffffffffffffffffffc36011261018c5760043573ffffffffffffffffffffffffffffffffffffffff808216809203610188576100ad610403565b8115610104578254827fffffffffffffffffffffffff00000000000000000000000000000000000000008216178455167f8be0079c531659141344cd1fd0a4f28419497f9722a3daafe3b4186f6b6457e08380a380f35b60846040517f08c379a000000000000000000000000000000000000000000000000000000000815260206004820152602660248201527f4f776e61626c653a206e6577206f776e657220697320746865207a65726f206160448201527f64647265737300000000000000000000000000000000000000000000000000006064820152fd5b8280fd5b80fd5b503461018c57807ffffffffffffffffffffffffffffffffffffffffffffffffffffffffffffffffc36011261018c5773ffffffffffffffffffffffffffffffffffffffff6020915416604051908152f35b503461018c57807ffffffffffffffffffffffffffffffffffffffffffffffffffffffffffffffffc36011261018c57610217610403565b8073ffffffffffffffffffffffffffffffffffffffff81547fffffffffffffffffffffffff000000000000000000000000000000000000000081168355167f8be0079c531659141344cd1fd0a4f28419497f9722a3daafe3b4186f6b6457e08280a380f35b503461018c57807ffffffffffffffffffffffffffffffffffffffffffffffffffffffffffffffffc36011261018c57602073ffffffffffffffffffffffffffffffffffffffff60015416604051908152f35b503461018c5760207ffffffffffffffffffffffffffffffffffffffffffffffffffffffffffffffffc36011261018c5760043573ffffffffffffffffffffffffffffffffffffffff81169081810361018857610328610403565b3b1561037f57807fffffffffffffffffffffffff000000000000000000000000000000000000000060015416176001557fbc7cd75a20ee27fd9adebab32041f755214dbc6bffa90cc0225b39da2e5c2d3b8280a280f35b60846040517f08c379a000000000000000000000000000000000000000000000000000000000815260206004820152603360248201527f5570677261646561626c65426561636f6e3a20696d706c656d656e746174696f60448201527f6e206973206e6f74206120636f6e7472616374000000000000000000000000006064820152fd5b73ffffffffffffffffffffffffffffffffffffffff60005416330361042457565b60646040517f08c379a000000000000000000000000000000000000000000000000000000000815260206004820152602060248201527f4f776e61626c653a2063616c6c6572206973206e6f7420746865206f776e65726044820152fdfea26469706673582212206d6669e7216f33fbfd554999d569b5fe43670355d84777aee170c8d658ab91b864736f6c63430008130033608080604052346100165761244b908161001c8239f35b600080fdfe608060408181526004908136101561001657600080fd5b600092833560e01c90816301ffc9a714611673575080630668d0bb14610f3b578063248a9ca314610f115780632f2ff15d14610e915780633474a4a614610dc057806336568abe14610cf957806344004cc114610c255780634782f77914610bc2578063485cc955146108bf5780638c17030f146104475780639010d07c146103f857806391d14854146103a5578063a217fddf1461038a578063a971e8421461034e578063bad4366114610146578063ca15c8731461011e5763d547741f146100df57600080fd5b3461011a578060031936011261011a57610117913561011260016101016117be565b938387528660205286200154611aab565b611d16565b80f35b8280fd5b50903461011a57602060031936011261011a5760209282913581526001845220549051908152f35b503461011a57608060031936011261011a578135602490813567ffffffffffffffff9586821161034b575061017e90369086016117e1565b949061018861179b565b9573ffffffffffffffffffffffffffffffffffffffff8716600052602097600289528660002085600052895260ff8760002054161597886101cf575b898989519015158152f35b9091929497508695989396517fffffffffffffffffffffffffffffffffffffffff0000000000000000000000008582019260601b16825260643560348201526034815261021b81611c53565b51902090821161031e5760059382851b86519361023a86830186611c8b565b845284840190820191368311610319578590915b8383106103095750505050926000935b82518510156102f25784821b830184015190866000838310156102e55750506000528352846000205b937fffffffffffffffffffffffffffffffffffffffffffffffffffffffffffffffff81146102b8576001019361025e565b886011887f4e487b7100000000000000000000000000000000000000000000000000000000600052526000fd5b9190928252855220610287565b9496955050509450501490388080808080806101c4565b823581529181019186910161024e565b600080fd5b876041877f4e487b7100000000000000000000000000000000000000000000000000000000600052526000fd5b80fd5b83823461038657816003193601126103865760209073ffffffffffffffffffffffffffffffffffffffff60035460081c169051908152f35b5080fd5b83823461038657816003193601126103865751908152602090f35b50903461011a578160031936011261011a5773ffffffffffffffffffffffffffffffffffffffff826020946103d86117be565b93358152808652209116600052825260ff81600020541690519015158152f35b50903461011a578160031936011261011a5761043860209373ffffffffffffffffffffffffffffffffffffffff9235815260018552836024359120611f7e565b92905490519260031b1c168152f35b50903461011a5760c060031936011261011a5780359160249081359061046b61179b565b906064359267ffffffffffffffff9485851694858103610319576084359687168097036103195760a435977f4c02318d8c3aadc98ccf18aebbf3126f651e0c3f6a1de5ff8edcf6724a2ad5c280600052602093600085528660002033600052855260ff87600020541615610628575050868810801561061e575b6105f7579189979593917fabec13ca1773eed55d54d2f64593c33fa520ee45cac73a162f13928a2ebee2339a86948b60a073ffffffffffffffffffffffffffffffffffffffff60c09e9c9a519961053b8b611c08565b858b5288888c0152169889898201528a60608201528b608082015201525582600555847fffffffff000000000000000000000000000000000000000000000000000000007bffffffffffffffff00000000000000000000000000000000000000006006549360a01b1692161717600655857fffffffffffffffffffffffffffffffffffffffffffffffff000000000000000060075416176007558660085582519788528701528501526060840152608083015260a0820152a180f35b84517f85d4a748000000000000000000000000000000000000000000000000000000008152fd5b50428811156104e5565b919450915061063633611e09565b85519161064283611c6f565b604283528483019360603686378351156108925760308553835160019081101561086557607860218601536041905b80821161079d575050610742575061073e938693610710936107016048946106cc9a519a857f416363657373436f6e74726f6c3a206163636f756e74200000000000000000008d978801528251928391603789019101611be5565b8401917f206973206d697373696e6720726f6c6520000000000000000000000000000000603784015251809386840190611be5565b01036028810187520185611c8b565b519283927f08c379a00000000000000000000000000000000000000000000000000000000084528301611ccc565b0390fd5b925050508160649451937f08c379a00000000000000000000000000000000000000000000000000000000085528401528201527f537472696e67733a20686578206c656e67746820696e73756666696369656e746044820152fd5b9091600f81166010811015610838577f3031323334353637383961626364656600000000000000000000000000000000901a6107d98488611dc9565b53881c91801561080b577fffffffffffffffffffffffffffffffffffffffffffffffffffffffffffffffff0190610671565b8360118a7f4e487b7100000000000000000000000000000000000000000000000000000000600052526000fd5b8460328b7f4e487b7100000000000000000000000000000000000000000000000000000000600052526000fd5b826032897f4e487b7100000000000000000000000000000000000000000000000000000000600052526000fd5b506032867f4e487b7100000000000000000000000000000000000000000000000000000000600052526000fd5b50903461011a578160031936011261011a576108d9611778565b906108e26117be565b6003549160ff8316610b9b5750907fffffffffffffffffffffff0000000000000000000000000000000000000000ff74ffffffffffffffffffffffffffffffffffffffff00610a2c949360081b16911617600355600080526020926000845273ffffffffffffffffffffffffffffffffffffffff8160002092169182600052845260ff81600020541615610b2f575b60008052600184818096526109898484600020611f96565b507f4c02318d8c3aadc98ccf18aebbf3126f651e0c3f6a1de5ff8edcf6724a2ad5c280600052600082528360002085600052825260ff84600020541615610ac4575b6000528181526109de8484600020611f96565b507f5d8e12c39142ff96d79d04d15d1ba1269e4fe57bb9d26f43523628b34ba108ec80600052600082528360002085600052825260ff84600020541615610a59575b60005252600020611f96565b507fffffffffffffffffffffffffffffffffffffffffffffffffffffffffffffff00600354161760035580f35b80600052600082528360002085600052825283600020837fffffffffffffffffffffffffffffffffffffffffffffffffffffffffffffff008254161790553385827f2f8788117e7eff1d82e926ec794901d17c78024a50270940304540a733656f0d600080a4610a20565b80600052600082528360002085600052825283600020837fffffffffffffffffffffffffffffffffffffffffffffffffffffffffffffff008254161790553385827f2f8788117e7eff1d82e926ec794901d17c78024a50270940304540a733656f0d600080a46109cb565b6000805260008452806000208260005284528060002060017fffffffffffffffffffffffffffffffffffffffffffffffffffffffffffffff00825416179055338260007f2f8788117e7eff1d82e926ec794901d17c78024a50270940304540a733656f0d8180a4610971565b84517ff92ee8a9000000000000000000000000000000000000000000000000000000008152fd5b503461011a578060031936011261011a5782808080610bdf611778565b610be7611812565b602435905af1610bf56122f3565b5015610bff578280f35b517f750b219c000000000000000000000000000000000000000000000000000000008152fd5b83823461038657606060031936011261038657610cc773ffffffffffffffffffffffffffffffffffffffff61011792610cf3610c5f611778565b91610c686117be565b90610c71611812565b517fa9059cbb00000000000000000000000000000000000000000000000000000000602082015273ffffffffffffffffffffffffffffffffffffffff909116602482015260448035908201529384906064820190565b037fffffffffffffffffffffffffffffffffffffffffffffffffffffffffffffffe08101855284611c8b565b166121b0565b50919034610386578260031936011261038657610d146117be565b903373ffffffffffffffffffffffffffffffffffffffff831603610d3d57906101179135611d16565b60849060208551917f08c379a0000000000000000000000000000000000000000000000000000000008352820152602f60248201527f416363657373436f6e74726f6c3a2063616e206f6e6c792072656e6f756e636560448201527f20726f6c657320666f722073656c6600000000000000000000000000000000006064820152fd5b50903461011a578260031936011261011a5760c09260a08351610de281611c08565b82815282602082015282858201528260608201528260808201520152815190610e0a82611c08565b5491828252600554602083019081526006548284019273ffffffffffffffffffffffffffffffffffffffff908183168552606086019167ffffffffffffffff9586809560a01c1684528460075416956080890196875260a060085499019889528351998a525160208a015251169087015251166060850152511660808301525160a0820152f35b503461011a578060031936011261011a57610f0d9135906001610eb26117be565b92808652602090868252610eca838589200154611aab565b806000526000825273ffffffffffffffffffffffffffffffffffffffff8460002095169485600052825260ff84600020541615610a595760005252600020611f96565b5080f35b50903461011a57602060031936011261011a57816020936001923581528085522001549051908152f35b5060a060031936011261011a57610f50611778565b91610f5961179b565b9067ffffffffffffffff60843581811161166f57610f7a90369084016117e1565b600354908651927f18160ddd0000000000000000000000000000000000000000000000000000000084526020938481888173ffffffffffffffffffffffffffffffffffffffff809860081c165afa908115611665578b91611634575b50865490811515806115f4575b6115b75750508460065460a01c16856007541680159182156115ad575b5081156115a2575b5061157a57600854918261131a575b505050600554602495863593848302928084048614901517156112ef578360065416848316908082036112b5575060643584811061125a5750806111815750508134036111255750509087915b60035460081c16803b1561011a576110cd97838851809a819582947f40c10f190000000000000000000000000000000000000000000000000000000084528a84016020909392919373ffffffffffffffffffffffffffffffffffffffff60408201951681520152565b03925af1801561111b576110df578580f35b84116110f15750505238808080808580f35b604185917f4e487b7100000000000000000000000000000000000000000000000000000000835252fd5b84513d88823e3d90fd5b61073e8689519384937f1eabcfbe0000000000000000000000000000000000000000000000000000000085523492850160409194939273ffffffffffffffffffffffffffffffffffffffff606083019616825260208201520152565b989a96999698909290915034156111cc5760648a8a8a818f51937f1eabcfbe000000000000000000000000000000000000000000000000000000008552840152820152346044820152fd5b7f23b872dd000000000000000000000000000000000000000000000000000000008b999b9a979a5193840152338884015230604484015260648301526064825260a082018281108682111761122f5788528993929161122a916121b0565b611064565b878b6041897f4e487b7100000000000000000000000000000000000000000000000000000000835252fd5b8a517f1eabcfbe00000000000000000000000000000000000000000000000000000000815273ffffffffffffffffffffffffffffffffffffffff8516818b019081526020810187905260408101929092529081906060010390fd5b888d868c6064948f51947f1eabcfbe0000000000000000000000000000000000000000000000000000000086528501528301526044820152fd5b878b6011897f4e487b7100000000000000000000000000000000000000000000000000000000835252fd5b338b5260028552888b20838c52855260ff898c2054161580611403575b1561138157505033895260028352868920908952825285882060017fffffffffffffffffffffffffffffffffffffffffffffffffffffffffffffff00825416179055388080611017565b8a9087938a51947f265c66a8000000000000000000000000000000000000000000000000000000008652850152608060248501528060848501527f07ffffffffffffffffffffffffffffffffffffffffffffffffffffffffffffff81116103865791839160a49360051b80928585013733604484015260648301528101030190fd5b50999892889792949591969851868101907fffffffffffffffffffffffffffffffffffffffff0000000000000000000000003360601b1682528b60348201526034815261144f81611c53565b51902094828c1161154e5788519560059594939291908d871b8e6114758b83018b611c8b565b89528a0189890136821161154a578a8c915b83831061153a5750505050988c995b88518b1015611523578a881b89018a0151908e82821015611515575289528a8d205b997fffffffffffffffffffffffffffffffffffffffffffffffffffffffffffffffff81146114e95760010199611496565b60248e60118f7f4e487b7100000000000000000000000000000000000000000000000000000000835252fd5b9190915289528a8d206114b8565b91959c9d9398975093999a98508491955014611337565b82358152918101918c9101611487565b8e80fd5b60248b60418c7f4e487b7100000000000000000000000000000000000000000000000000000000835252fd5b8588517f3f886774000000000000000000000000000000000000000000000000000000008152fd5b905042101538611008565b4210915038611000565b60649188918b51927fa922783000000000000000000000000000000000000000000000000000000000845283015260243560248301526044820152fd5b506024358101808211611608578210610fe3565b60248d60118b7f4e487b7100000000000000000000000000000000000000000000000000000000835252fd5b90508481813d831161165e575b61164b8183611c8b565b8101031261165a575138610fd6565b8a80fd5b503d611641565b89513d8d823e3d90fd5b8680fd5b8490843461011a57602060031936011261011a57357fffffffff00000000000000000000000000000000000000000000000000000000811680910361011a57602092507fbe0b77120000000000000000000000000000000000000000000000000000000081149081156116e8575b5015158152f35b7f5a05180f0000000000000000000000000000000000000000000000000000000081149150811561171b575b50836116e1565b7f7965db0b0000000000000000000000000000000000000000000000000000000081149150811561174e575b5083611714565b7f01ffc9a70000000000000000000000000000000000000000000000000000000091501483611747565b6004359073ffffffffffffffffffffffffffffffffffffffff8216820361031957565b6044359073ffffffffffffffffffffffffffffffffffffffff8216820361031957565b6024359073ffffffffffffffffffffffffffffffffffffffff8216820361031957565b9181601f840112156103195782359167ffffffffffffffff8311610319576020808501948460051b01011161031957565b3360009081527f20be27040b8e00df40bca0df34743417f3574a156386188f7d7f14369e5ee82b60209081526040808320549092907f5d8e12c39142ff96d79d04d15d1ba1269e4fe57bb9d26f43523628b34ba108ec9060ff16156118775750505050565b61188033611e09565b84519161188c83611c6f565b60428352848301936060368637835115611a7e5760308553835190600191821015611a7e5790607860218601536041915b8183116119b357505050611957576106cc9385936119279361191860489461073e995198857f416363657373436f6e74726f6c3a206163636f756e74200000000000000000008b978801528251928391603789019101611be5565b01036028810185520183611c8b565b519182917f08c379a000000000000000000000000000000000000000000000000000000000835260048301611ccc565b6064848651907f08c379a000000000000000000000000000000000000000000000000000000000825280600483015260248201527f537472696e67733a20686578206c656e67746820696e73756666696369656e746044820152fd5b909192600f81166010811015611a51577f3031323334353637383961626364656600000000000000000000000000000000901a6119f08588611dc9565b5360041c928015611a24577fffffffffffffffffffffffffffffffffffffffffffffffffffffffffffffffff0191906118bd565b6024827f4e487b710000000000000000000000000000000000000000000000000000000081526011600452fd5b6024837f4e487b710000000000000000000000000000000000000000000000000000000081526032600452fd5b807f4e487b7100000000000000000000000000000000000000000000000000000000602492526032600452fd5b6000818152602090808252604092838220338352835260ff848320541615611ad35750505050565b611adc33611e09565b845191611ae883611c6f565b60428352848301936060368637835115611a7e5760308553835190600191821015611a7e5790607860218601536041915b818311611b7457505050611957576106cc9385936119279361191860489461073e995198857f416363657373436f6e74726f6c3a206163636f756e74200000000000000000008b978801528251928391603789019101611be5565b909192600f81166010811015611a51577f3031323334353637383961626364656600000000000000000000000000000000901a611bb18588611dc9565b5360041c928015611a24577fffffffffffffffffffffffffffffffffffffffffffffffffffffffffffffffff019190611b19565b60005b838110611bf85750506000910152565b8181015183820152602001611be8565b60c0810190811067ffffffffffffffff821117611c2457604052565b7f4e487b7100000000000000000000000000000000000000000000000000000000600052604160045260246000fd5b6060810190811067ffffffffffffffff821117611c2457604052565b6080810190811067ffffffffffffffff821117611c2457604052565b90601f7fffffffffffffffffffffffffffffffffffffffffffffffffffffffffffffffe0910116810190811067ffffffffffffffff821117611c2457604052565b7fffffffffffffffffffffffffffffffffffffffffffffffffffffffffffffffe0601f60409360208452611d0f8151809281602088015260208888019101611be5565b0116010190565b906040611d61926000908082528160205273ffffffffffffffffffffffffffffffffffffffff83832094169384835260205260ff8383205416611d64575b8152600160205220612057565b50565b808252816020528282208483526020528282207fffffffffffffffffffffffffffffffffffffffffffffffffffffffffffffff0081541690553384827ff6391f5c32d9c69d2a47ea670b442974b53935d1edc7fd64eb21e047a839171b8580a4611d54565b908151811015611dda570160200190565b7f4e487b7100000000000000000000000000000000000000000000000000000000600052603260045260246000fd5b60405190611e1682611c53565b602a8252602082016040368237825115611dda57603090538151600190811015611dda57607860218401536029905b808211611eb3575050611e555790565b60646040517f08c379a000000000000000000000000000000000000000000000000000000000815260206004820152602060248201527f537472696e67733a20686578206c656e67746820696e73756666696369656e746044820152fd5b9091600f81166010811015611f50577f3031323334353637383961626364656600000000000000000000000000000000901a611eef8486611dc9565b5360041c918015611f22577fffffffffffffffffffffffffffffffffffffffffffffffffffffffffffffffff0190611e45565b602460007f4e487b710000000000000000000000000000000000000000000000000000000081526011600452fd5b602460007f4e487b710000000000000000000000000000000000000000000000000000000081526032600452fd5b8054821015611dda5760005260206000200190600090565b9190600183016000908282528060205260408220541560001461205157845494680100000000000000008610156120245783612014611fdf886001604098999a01855584611f7e565b81939154907fffffffffffffffffffffffffffffffffffffffffffffffffffffffffffffffff9060031b92831b921b19161790565b9055549382526020522055600190565b6024837f4e487b710000000000000000000000000000000000000000000000000000000081526041600452fd5b50925050565b906001820190600092818452826020526040842054908115156000146121a9577fffffffffffffffffffffffffffffffffffffffffffffffffffffffffffffffff9182810181811161217c5782549084820191821161214f5780820361211a575b505050805480156120ed578201916120d08383611f7e565b909182549160031b1b191690555582526020526040812055600190565b6024867f4e487b710000000000000000000000000000000000000000000000000000000081526031600452fd5b61213a61212a611fdf9386611f7e565b90549060031b1c92839286611f7e565b905586528460205260408620553880806120b8565b6024887f4e487b710000000000000000000000000000000000000000000000000000000081526011600452fd5b6024877f4e487b710000000000000000000000000000000000000000000000000000000081526011600452fd5b5050505090565b73ffffffffffffffffffffffffffffffffffffffff1690604051604081019080821067ffffffffffffffff831117611c2457612230916040526020938482527f5361666545524332303a206c6f772d6c6576656c2063616c6c206661696c6564858301526000808587829751910182855af161222a6122f3565b91612351565b8051918215918483156122cf575b50505090501561224b5750565b608490604051907f08c379a00000000000000000000000000000000000000000000000000000000082526004820152602a60248201527f5361666545524332303a204552433230206f7065726174696f6e20646964206e60448201527f6f742073756363656564000000000000000000000000000000000000000000006064820152fd5b9193818094500103126103865782015190811515820361034b57508038808461223e565b3d1561234c573d9067ffffffffffffffff8211611c24576040519161234060207fffffffffffffffffffffffffffffffffffffffffffffffffffffffffffffffe0601f8401160184611c8b565b82523d6000602084013e565b606090565b919290156123cc5750815115612365575090565b3b1561236e5790565b60646040517f08c379a000000000000000000000000000000000000000000000000000000000815260206004820152601d60248201527f416464726573733a2063616c6c20746f206e6f6e2d636f6e74726163740000006044820152fd5b8251909150156123df5750805190602001fd5b61073e906040519182917f08c379a000000000000000000000000000000000000000000000000000000000835260048301611ccc56fea2646970667358221220378aef2c21b62f6e02270b8d3550ea36194286ac9608c2fcdcd1ffbe1443ffb364736f6c63430008130033","linkReferences":{}},"methodIdentifiers":{"beacon()":"59659e90","deploy(address,address,address)":"d9181cd3","determineAddress(address,address,address)":"e657f693","owner()":"8da5cb5b","renounceOwnership()":"715018a6","transferOwnership(address)":"f2fde38b","upgradeBeacon(address)":"1bce4583"},"id":109}